A107900682CA 1134FACIDEX TOTAL MASTIC     TAB105    PROMOTORA 00000530000000352501906167501299307335
A012201362CA 0132RICITOS DE ORO MANZANILLAJAB100G   GRISI HERM00000140800000102001906167501022105283
A096800191CA 1234LEVEMIR FLEXPEN 3ML (R)  CAJ5      NOVO NORDI00025252000020185501906167503007822307
A077100181CA 1134LEXAPRO 20MG             TAB14     LUNDBECK M00013700000010960001906167503003746287
A027600592CA 1132BEXIDENT ENCIAS COLUTORIOSOL250ML  SIEGFRIED 00002931000001831901906168430206280296
A012100671CA 1134HIPERTON 5               UNG5G     LABORATORI0000179310000110560190616008400000675 
A051900332CA 1132INTRASITE GEL 25G        CAJ1X10   SMITH Y NE00013519000011896701906165000223411206
A126302011CA 1134HIGROTON BLOCK 100/25MG  TAB28     SANDOZ    00004581500003733101906167502216930551
A126302021CA 1134HIGROTON BLOCK 50/12.5MG TAB28     SANDOZ    00002497000002034601906167502216930568
A005000891CA 1134LIBERTRIM SII            COM24     PRODUCTOS 00004057600003327301906167501070903695
A005000831CA 1134LIBERTRIM 100MG          COM50     APLICACION00002965900002432101906167501070903503
A017800272CA 0132LIGADURA MIYAKO          BOL1      SHIRAI MAT00000095700000082201906167501877650419
A001400082CA 1134HIPOGLOS PLUS            TAR60G    INDUSTRIAS00001023000000798001906167501289511193
A001400112CA 1134HIPOGLOS                 TUB60G    INDUSTRIAS00001227500000957501906167501289511261
A062100111CA 1134ETABUS B1                TAB15     FERRING   00001325000001040101906167503000883145
A005000141CA 1134CYCLOFEMINA              AMP0.5ML  APLICACION00001891700001551201906167501124109929
A019902941CA 1134FLUCOXAN 150MG 2X1       CAP1      LABORATORI00003071300002598201906167501125101960
A074100331CA 1134ZALDIAR 37.5/325MG       TAB20     GRUNENTAL 00004641800003713401906167501124763022
A019901411CA 1134NEPHRAMINE 5.4           INY250ML  LABORATORI00003287500002781101906167501125102264
A019902801CA 1134GLUPROPAN 2MG            TAB15     LABORATORI00002450300002072901906167501125102479
A019902811CA 1134GLUPROPAN 4MG            TAB15     LABORATORI00004238400003585501906167501125102486
A019900911CA 1134PENISODINA 400000 (A)    AMP1      LABORATORI00000256500000216901906167501125106958
A019900921CA 1134PENISODINA 800000 (A)    AMP1      LABORATORI00000297900000252001906167501125107009
A019901941CA 1134FALOT CEFALOTINA 1G PISA AMP1      LABORATORI00000627200000530601906167501125107030
A012101071CA 1134AFAZOL GRIN NASAL        SOL15ML   LABORATORI0000085640000052800190616008400001337 
A012101091CA 1134GODEK                    SOL5ML    LABORATORI0000500810000308780190616008400001344 
A026002771CA 1134EXFORGE 5/160MG          COM28     NOVARTIS F00012290000010269301906167501094916671
A026002791CA 1134EXFORGE 10/160MG         COM28     NOVARTIS F00012370000010336201906167501094916688
A026002781CA 1134EXFORGE 10/160MG         COM14     NOVARTIS F00006500000005431301906167501094916695
A026002761CA 1134EXFORGE 5/160MG          COM14     NOVARTIS F00006460000005397901906167501094916701
A012101151CA 1134CELUNAF                  GOT15ML   LABORATORI0000272770000168170190616008400001481 
A012100742CA 1134PC GRIN USUARIO COMP     GOT10ML   LABORATORI0000057750000035610190616008400002181 
A012100981CA 1134SHEMOL 0.5               GOT15ML   LABORATORI0000123590000076190190616008400002242 
A012100791CA 1134OBRYDEX                  SOL5ML    LABORATORI0000409210000252300190616008400003218 
A125000021CA 1134HALCION 0.25MG (C)       TAB30     PFIZER    0001001750000801400190616300090017125 
A133700082CA 1132CHAP STICK FRESA         TUB4.2G   WYETH     0000033710000026800190616036600963247 
A026200062CA 1134KANKA 3 OZ               SOL1      LABORATORI0000182000000116480190616041388284316 
A092900062CA 1134LOSEC A10 10MG           CAP14     GENOMMA LA00000699000000604101906167501098603836
A092900092CA 1134LOSEC A20 20MG           CAP14     GENOMMA LA00000999000000863401906167501098603867
A002401041CA 1134SYMBICORT 320/9MCG       PVO60DOSISASTRAZENEC00009240000005440001906167501098604116
A002401191CA 1134ATACAND 8MG              TAB14     ASTRAZENEC00003750000002210001906167501098604499
A027700311CA 1134MALIVAL AP               CAP28     LABORATORI00005090000003160001906167501101612282
A027700301CA 1134MALIVAL 25MG             CAP30     LABORATORI00001900000001180001906167501101614026
A027700261CA 1134GLINORBORAL COMPUESTO    TAB40     LABORATORI00006240000003870001906167501101615016
A027700901CA 1134GLIMETAL 2/1000MG        TAB16     LABORATORI00006020000003730001906167501101615856
A076802091CA 1134PAXIL CR 12.5MG          TAB10     GLAXOSMITH00005159800003507301906165050278003543
A074100272CA 1134DOXIPROCT PLUS           PDA60G    GRUNENTAL 00003174700002539701906165605709349525
A003200962CA 1134BENEXOL                  BLI30     BAYER DE M00002775700001838901906167501008409428
A003201042CA 1134REDOXON FORTE 2G         COM10     BAYER DE M00001332200000882601906167501008409503
A003201052CA 1134REDOXON LIMON 1G         COM10     BAYER DE M00000951800000630601906167501008409510
A003201072CA 1134REDOXON NARANJA 1G       COM10     BAYER DE M00000951800000630601906167501008409527
A003201092CA 1134SARIDON                  COM100    BAYER DE M00002020200001338401906167501008409534
A003201102CA 1134SARIDON                  COM20     BAYER DE M00000573200000379801906167501008409541
A003200992CA 1134BEROCCA CA Y MAG EFER    COM10     BAYER DE M00001250300000828401906167501008409572
A127200042CA 1134LECHE DE MAGNESIA NORMEX SUS360ML  QUIMICA Y 00000480000000360001906167501109760541
A127200011CA 1134COLCHIQUIM 1MG           TAB20     CONSUPHARM00000890000000667501906167501109762446
A127200032CA 1134LECHE DE MAGNESIA NORMEX SUS180ML  QUIMICA Y 00000280000000210001906167501109790029
A000302341CA 1134KLARICID IV 500MG (A)    AMP       ABBOTT LAB00007881000005021001906167501033951374
A004401622CA 1134QUESTRAN POLVO 9G        SOB50     BRISTOL MY00017050000013981201906167501095435010
A026001681CA 1134MIFLONIDE 200MCG         CAP30     NOVARTIS F00002470000002063701906167501094914103
A122000021CA 1134ALUPENT 1ML              AMP5      BOEHRINGER00001449000001039601906167501037900576
A076300531CA 1134TARKA 180MG/2MG          TAB30     ABBOTT LAB00012094000007705101906167501033953576
A000302381CA 1134KLARICID OD 500MG (A)    TAB14     ABBOTT LAB00010998000007006801906167501033953897
A004401632CA 1134QUESTRAN POLVO 9G        SOB10     BRISTOL MY00004550000003731101906167501095435027
A026001671CA 1134CODIOVAN 160/25MG        GRA14     SIEGFRIED 00006490000004577801906167501094914196
A121800581CA 1134ATROVENT 10ML            AER1      BOEHRINGER00007847400005610501906167501037901030
A121801451CA 1134ATROVENT MONODOSIS P/NEB AMP10X2ML BOEHRINGER00005501200003928601906167501037901047
A121800601CA 1134BERODUAL SUSP 100MG      AER14G    BOEHRINGER00009050800006495501906167501037905069
A121900112CA 1134LAXOBERON                COM20     BOEHRINGER00001456600001041301906167501037945010
A121800951CA 1134FLURINOL 20MG            TAB20     BOEHRINGER00006908000004958401906167501037945058
A121801171CA 1134MOBICOX 7.5 MG           COM14     BOEHRINGER00006083700004359801906167501037946031
A127200052CA 1134LECHE DE MAGNESIA NORMEX SUS60ML   QUIMICA Y 00000160000000120001906167501109790739
A138400001CA 1132KITOSCELL                GEL30G    CELL PHARM00008224200006652601906167502224228763
A138400011CA 1132KITOSCELL                GEL90G    CELL PHARM00019955200016141701906167502224228787
A003501661CA 1134ACTRON INF 120 ML        SUS120 ML BAYER DE M00001080000000803101906167501318661110
A129201422CA 1132DUODERM CGF 20 X 30 CM   APO       BOSTON MED0002390130002025640190616768455106707 
A111700282CA 1132NOVO HERKLIN 2000 PEINE  PZA1      ARMSTRONG 00002900000001879201906167501089810465
A130200231CA 1134ONYRIC 60MG/ML           FRA80ML   FERRER THE00003050000002290001906167503007704689
A091601172CA 1132PEDIASURE PLUS CHOCOLATE BOT400G   ABBOTT LAB00002741000002384701906167501033957215
A132800461CA 1134LACTULAX 10G/15ML        SOB       LABORATORI00002900000002079401906167501314704989
A079401181CA 1134EUTIROX 200 MCG          TAB50     MERCK     00006490700004178101906167501298217901
A130200221CA 1134FISIOFER 40MG/15ML       FRA10     LABORATORI00002370000001900001906167503007704504
A127900081CA 1134ACXION 30MG (C)          TAB30     INVESTIGAC00003700000002923001906167501249605818
A107900862CA 1134CICLOFERON XTRM CRE 2 G  TUB       PROMOTORA 00000710000000472201906167501299355039
A106700062CA 1132ESTERIFLU NASAL BEBE 30  SOL30 ML  ESTERIPHAR00001931000001515901906167503008821330
A009801441CA 1134CIALIS 5MG               TAB28     ELI LILLY 00024589000016397201906167501082242409
A080400151CA 1134VALDOXA 25 MG            COM14     BECKMAN LA00007876600004920001906163594450700438
A080400141CA 1134VALDOXA 25 MG            COM28     BECKMAN LA00015753400009850001906163594450700421
A067700202CA 1132OPTIFREE REPLENISH       SOL120ML  ALCON LABO00001160900000873401906167501088619656
A114800721CA 1134GAAP OFTENO              GOT3ML    SOPHIA COM0000731950000596420190616736085402346 
A114800691CA 1134TRAZINAC OFTENO 3/1MG    GOT5ML    SOPHIA COM0000474060000386240190616736085400953 
A077100071CA 1134SEROPRAM 20MG            TAB14     LUNDBECK M00011100000008880001906167503003746010
A077100081CA 1134SEROPRAM 20MG            TAB28     LUNDBECK M00021390000017112001906167503003746027
A098100091CA 1134LEXOTAN 6MG (C)          TAB30     PRODUCTOS 00006730000004509101906167501009004585
A098100241CA 1134ROACCUTAN 20MG (C)       CAP30     PRODUCTOS 00024780000016602601906167501009007258
A098100021CA 1134DORMICUM 50MG (C)        AMP5      PRODUCTOS 00041010000027476701906167501009052814
A098100121CA 1134RIVOTRIL 0.5MG (C)       COM30     PRODUCTOS 00003550000002378501906167501009070948
A031400171CA 1134ZYPREXA IM 10MG          FAM2ML    ELI LILLY 00003237000002338601906167501082212129
A031400131CA 1134EVISTA 60MG              TAB28     ELI LILLY 00014663000010584501906167501082224214
A076300661CA 1134TEOLONG 100MG            CAP20     ARMSTRONG 00001825000001162701906167501285600334
A019501811CA 1134ALDACTONE 100MG          TAB30     PFIZER    00013917000011133601906167501287621009
A019501711CA 1134CELEBREX 200MG           CAP10     PFIZER    00007456500005592401906167501287624505
A019501291CA 1134LIPITOR 10MG             TAB20     PFIZER    00005779200004334401906167501287652744
A077100021CA 1134CLOPIXOL DEPOT 200MG     AMP1ML    LUNDBECK M00014570000011656001906167503003746065
A077100061CA 1134FLUANXOL DEPOT 20MG      AMP1      LUNDBECK M00008650000006920001906167503003746089
A077100111CA 1134LEXAPRO 10MG             TAB14     LUNDBECK M00008520000006816001906167503003746119
A077100101CA 1134LEXAPRO 10MG             TAB28     LUNDBECK M00016030000012824001906167503003746126
A077100091CA 1134EBIXA 10MG               TAB28     LUNDBECK M00010540000008432001906167503003746133
A077100121CA 1134EBIXA 10MG               TAB14     LUNDBECK M00005650000004520001906167503003746225
A005500301CA 1134MELADININA               TAB30     PRODUCTOS 00001663200001100001906167501088542855
A019502531CA 1134DEPOMEDROL               F A2ML    PFIZER    00002597600002078101906167501142925150
A026100411CA 1134POSIPEN 250MG (A)        CAP20     LABORATORI00003080000002156001906167501070634759
A110502722CA 1134CLEXANE 20MG             INY2      SANOFIAVEN00004214200003749401906167501072350213
A110502732CA 1134CLEXANE 40MG             INY2      SANOFIAVEN00007910600007038201906167501072350220
A110502742CA 1134CLEXANE 60MG             INY2      SANOFIAVEN00010566200009400501906167501072350299
A111000041CA 1234LANTUS 100UI/ML VIAL (R) FAM10ML   SANOFIAVEN00014646200010221201906167501165002937
A125000011CA 1134HALCION 0.125MG (C)      TAB30     PFIZER    0000618310000494650190616300090010072 
A125000051CA 1134TAFIL 0.50MG (C)         TAB30     PFIZER    0000480370000384300190616300090055097 
A093500541CA 1134METICORTEN 20MG          TAB30     ASPEN LABS00004653800003108801906167501050612364
A093500551CA 1134METICORTEN 50MG          TAB20     ASPEN LABS00012304700008219601906167501050612371
A093400161CA 1134ZINTREPID 10/20MG        COM28     LABORATORI00013720000009604001906167501050612395
A026800012CA 1134AFRIN AD                 SPR20ML   BAYER DE M00000756800000375001906167501050613453
A103100291CA 1134CARDISPAN                AMP5      LOGISTICA 00003220300002624001906167501123010608
A103101071CA 1134SINPEBAC 2 UNGUENTO      TUB15G    LOGISTICA 00002231700001818401906167501123017300
A110502801CA 1134TAVANIC 500MG (A)        F A100ML  SANOFIAVEN00006506200005788601906167501165002661
A110501131CA 1134SECNIDAL 900MG           SOL30ML   SANOFIAVEN00002970300002072901906167501165002739
A110500961CA 1134PROFENID 100MG           CAP20     SANOFIAVEN00004167700002908601906167501165002791
A103100851CA 1134K50                      AMP5ML    LOGISTICA 00001200700000978201906167501122964902
A103101232CA 1134VANTAL PASTA DENTAL      TBO60G    LOGISTICA 00001406500001146001906167501123017713
A103101222CA 1134VANTAL GEL               TUB60G    LOGISTICA 00001685900001373701906167501123017805
A103101351CA 1132VISYNERAL                CAP60     LOGISTICA 00002092000001704601906167501123017911
A103101202CA 1134VANTAL BUCOF SPRAY       SOL30ML   LOGISTICA 00003369700002745701906167501123018024
A103101592CA 1134VANTAL BUCOFARINGEO      SOL360ML  LOGISTICA 00002048700001669301906167501123018031
A136500031CA 1134DILAR 6MG                TAB15     SYNTEX    00004840000003822601906167501124723101
A136500011CA 1134DILARMINE                TAB25     SYNTEX    00003100000002449001906167501124723170
A136500041CA 1134DILARMINE                SUS100ML  SYNTEX    00002900000002291001906167501124723217
A019902831CA 1134ONEMER 10MG              TAB10     LABORATORI00000999600000845701906167501125102929
A026001231CA 1134FLOTAC 140MG             CAP20     NOVARTIS F00006990000005840701906167501124810474
A026001661CA 1134ZELMAC 6MG               COM30     NOVARTIS F00011870000009918401906167501124810863
A059000352CA 1134SENOKOT REGULAR 8.6MG    TAB60     NOVARTIS F00001437000001186201906167501124810900
A031001241CA 1134COMENTER 15MG            TAB10     ASOFARMA D00004800000003264801906167730979095464
A019504171CA 1134CENTRUMGENDER HOMBRES    TAB60     PFIZER    00002364800001880001906167501287675101
A026101771CA 1134ADENASA (A) 500MG        TAB7      LABORATORI00004420000003094001906167501070648879
A003601571CA 0132NIVEA MILK NUTRIT PIEL EXBOT250ML  BDF MEXICO00000374200000280701906167501054503576
A093200901CA 1134EVEREST GRANULADO 4MG    SOB20     PROMOTORA 00003960000002633401906167501299345009
A129900321CA 1134MICROPALCM               GEL30G    GLENMARK P00007967200006294101906168904091104475
A143000301CA 1134GIDZY 16MG               TAB20     ZYDUS     00002365000001513601906168901120007547
A014001421CA 1132UMBRELLA PLUS 50         EMU120G   ITALMEX   00004490000003592001906167703281001447
A096800261CA 1234RYZODEG FLEXTOUCH (R)    PLP5X3ML  NOVO NORDI00029544300023616501906167503007822659
A096800271CA 1234RYZODEG FLEXTOUCH (R)    PLP3ML    NOVO NORDI00006183800004943101906167503007822642
A074100821CA 1134SOLORO 7 10MG (C)        PAR2      GRUNENTAL 00007193900005755101906167502209290839
A074100811CA 1134SOLORO 7 5MG (C)         PAR2      GRUNENTAL 00005092600004074101906167502209290822
A110504091CA 1132SYNVISC ONE              JGP6ML    SANOFIAVEN00078418400071126501906167502244510091
A012201771CA 1134FOLCRESS 5 2X1           FCO60ML   GRISI HERM00006077500003926101906167501022101933
A012201781CA 1132RICITOS DE ORO TOALL AVENUNI64     GRISI HERM0000024630000018000190616037836040320 
A027601771CA 1134POLYVISOL                SOL50ML   SIEGFRIED 00001930000001206301906167501300407290
A009801621CA 1134CYMBALTA 30MG            CAP28     ELI LILLY 00017644000012329801906167501082243376
A031001251CA 1134EUTEBROL 20MG            TAB30     ASOFARMA D00016100000010950701906167730979095341
A031001261CA 1134EUTEBROL 20MG            TAB20     ASOFARMA D00012250000008332001906167730979095334
A026101781CA 1134DIMODAN 100MG            CAP20     LABORATORI00002200000001540001906167501070648640
A014001431CA 1134MINOPAC 50MG (A)         TAB24     ITALMEX   00004060000003329201906167501390913084
A014001441CA 1134PROALID 1 MG             UNG15G    ITALMEX   00004170000003419401906167501390912803
A014001451CA 1134PROALID 0.3MG            UNG15G    ITALMEX   00002780000002279601906167501390912827
A014001461CA 1134MINOPAC 100MG (A)        TAB12     ITALMEX   00004060000003329201906167501390913091
A093200911CA 1134EVOCS III 750MG (A)      TAB7      PROMOTORA 00005830000003876901906167501299330371
A017312901CA 1134JARDIANZ 10MG            TAB30     BOEHRINGER00011492100008132501906167501034600196
A030501521CA 1134NURSOY GOLD              BTE400G   WYETH     00002889200002099701906167502253072054
A030501531CA 1134SMA SIN LACTOSA GOLD     BTE400G   WYETH     00003037200002357801906167502253072078
A030501551CA 1134SMA GOLD 1               BTE900G   WYETH     00004516800003506601906167502253071804
A030501561CA 1134PROMIL GOLD 2            BTE900G   WYETH     00004145300002977101906167502253071972
A030501581CA 1134PROGRESS GOLD 3          BTE400G   WYETH     00001546300001110601906167502253072016
A027601781CA 1134DALVEAR ADUL FRESA 300/16JBE200ML  SIEGFRIED 00002220000001387501906167501300408037
A026003801CA 1134EXCEDRIN MIGRANA         TAB48     NOVARTIS F00001118000000922601906167501124816681
A141300141CA 1132VITACILINA ESNCIAL JAB ANBAR100G   COMPANIA I00000217000000145401906167502250340644
A138700221CA 1132VITANOIN INTENSIVE       CAP30     PANME     00006336200004973901906167501124181918
A019504181CA 1134CENTRUMGENDER MUJERES    TAB60     PFIZER    00002364800001880001906167501287675156
A095800221CA 1134GINORELLE 20             COM28     LABORATORI00003050000002440001906167502235760153
A144600021CA 1134IVEL 250/60MG            TAB30     UP PHARMA 00003000000002400001906167506334400026
A145600011CA 1134OXYCONTIN 10MG (E)       TAB30     MUNDIPHARM00011120000009563201906167506359900020
A145600021CA 1134OXYCONTIN 20MG (E)       TAB30     MUNDIPHARM00020985000018047101906167506359900037
A030501591CA 1134SMA GOLD 1               BTE400G   WYETH     00002179000001691701906167502253071521
A030501601CA 1134PROGRESS GOLD 3          BTE900G   WYETH     00003186800002288701906167502253072023
A030501611CA 1134PROMIL GOLD 2            BTE400G   WYETH     00002073700001489401906167502253071965
A053302971CA 1134LYSTEDA 650MG            TAB30     PIERRE FAB00007390000006021501906167503000883527
A071301571CA 1132LIPIKAR BAUME AP         BOT200ML  FRABEL    00003439700002700101906163337872418587
A136600541CA 1134BENTABUD 0.64 MG/ML      SUS6ML    SANDOZ    00003944600003214201906167502216934207
A071301581CA 1132LIPIKAR SYNDET           BOT400ML  FRABEL    00003612100002835501906163433422407350
A073800371CA 1134POSTDAY UNIDOSIS 1.5MG   COM1      INVESTIGAC00001500000001185001906167501249606778
A075501381CA 1132ASTRINGOSOL PROTEC ANTICABOT220ML  GLAXOSMITH00000345000000224301906167501065041012
A145900011CA 1134ARAHKOR 60MG             TAB20     ESPECIFICO00005126000003410001906167501701400562
A071301601CA 0132LA ROCHE POSAY PIGMENTCLATUB40ML   FRABEL    00004301700003376901906163337872414176
A144100151CA 1132ENTEREX ESPESANTE        BTE227G   VIINC     0000121730000085600190616612197112116 
A144100101CA 1132ENTEREX VAINILLA POLVO   BTE400G   VIINC     0000232780000172750190616612197122009 
A144100111CA 1132ENTEREX FRESA POLVO      BTE400G   VIINC     0000232780000172750190616612197122207 
A144100121CA 1132ENTEREX VAINILLA LIQUIDO BTE237ML  VIINC     0000046190000029920190616612197211000 
A141300131CA 1132VITACILINA BEBE JABON NEUBAR80G    COMPANIA I00000128000000108901906167502250340248
A026101701CA 1134AZANTAC 150MG            TAB20     LABORATORI00001150000000782001906167501070618773
A001803311CA 1134ZYRTEC 10MG              TAB7      ARMSTRONG 00001460000000946101906167501089803443
A026003751CA 1134VOLTAREN EMULGEL 12 HRS 2TUB100G   NOVARTIS F00002397200001978201906167501124818500
A079401731CA 1134DABEX XR 1000MG          TAB30     MERCK     00003706400002385801906167501298217130
A051200821CA 1132CETAPHIL DAYLONG FPS 50 LTUB100ML  GALDERMA M00003862100003089701906167612076457355
A051200841CA 1132CETAPHIL DAYLONG KIDS FPSTUB150ML  GALDERMA M00004353400003482801906167612076457430
A051200881CA 1132CETAPHIL DAYLONG FPS 30  TUB30ML   GALDERMA M00002198300001758601906167612076457638
A075501351CA 1134RELVARE 30 DOSIS 200/25MCPZA       GLAXOSMITH00008870000006029301906167501043100144
A075501361CA 1134RELVARE 30 DOSIS 100/25MCPZA       GLAXOSMITH00008870000006029301906167501043100137
A071300462CA 1132LA ROCHE POS KERIUM GRASASHA200ML  FRABEL    00002629300002064001906163433422407299
A002500251CA 1134PANCLASA                 AMP5      LOGISTICA 00001519500001238201906167501188800671
A002500571CA 1134KLONAZA                  CAP20     LOGISTICA 00002829900002305901906167501188800701
A074200211CA 1134ARTRIDOL GEL             TUB60G    REPRESENTA00003930000003202201906167501250810645
A001000341CA 1134LUMIGAN                  SOL3ML    ALLERGAN  00008144900006889001906167501201400352
A001000382CA 1134REFRESH GEL              TUB10G    ALLERGAN  00005553800004697501906167501201400406
A001000401CA 1134ALPHAGAN P 0.15          GOT5ML    ALLERGAN  00007991100006759001906167501201400413
A001000392CA 1134REFRESH LIQUIGEL         GOT15ML   ALLERGAN  00005640300004770601906167501201400437
A001000421CA 1134ZYMAR 3.0MG              GOT5ML    ALLERGAN  00006365800005384301906167501201400482
A111900111CA 1134PLANEX 100/100MG         CAP20     REPRESENTA00005480000004465301906167501250838212
A110300041CA 1134EVASTEL 10MG             COM10     ALMIRALL D00003678200002406601906167501289500012
A110300051CA 1134EVASTEL 1MG SOL          FCO60ML   ALMIRALL D00003156500002065301906167501289500029
A071300522CA 1132LA ROCHE POS ISO UREA CRETBO200ML  FRABEL    00003439700002700101906163433422408227
A131200011CA 1134AMOXICLIDE (A)           CAP20     REPRESENTA00006349900005174101906167501250810706
A119700011CA 1134ZITROFLAM 500/100MG (A)  TAB3      REPRESENTA00006260000005100701906167501250810881
A119700021CA 1134ZITROFLAM 500/100MG (A)  TAB4      REPRESENTA00006370000005190401906167501250810898
A024700102CA 1134COMPLEJO B DE RIMSA      FAM10ML   REPRESENTA00002870000002368401906167501250812519
A074200481CA 1134CARTIGEN 50 MG           CAP20     REPRESENTA00005340000004351201906167501250838359
A019501741CA 1134CELEBREX 200MG           CAP20     PFIZER    00014946100011209601906167501287624512
A019502021CA 1134CELEBREX 200MG           CAP30     PFIZER    00018487400013865601906167501287624529
A017600212CA 1132OLEODERM PLUS            CRE225ML  REPRESENTA00002877600002273301906167501273500233
A017600262CA 1132BENZADERM                JAB100G   REPRESENTA00001010200000798101906167501273500271
A133200081CA 1134SCHERIDERM               CRE15G    INTENDIS M00002871900001902701906167795320050325
A133200141CA 1134ADVANTAN 0.1             EMU20G    INTENDIS M00004385900002905701906167795320051025
A096800131CA 1234NOVORAPID PENFILL 100U (RCAR5X3ML  NOVO NORDI00013543300010826001906167503007822154
A096800141CA 1234NOVORAPID VIAL 100U (R)  FAM10ML   NOVO NORDI00008452700006756701906167503007822161
A096800151CA 1234NOVOMIX 30 FLEX PEN (R)  AMP5X3ML  NOVO NORDI00015516800012403501906167503007822222
A096800171CA 1234NOVOMIX 30FLEX PEN (R)   PZA100U/MLNOVO NORDI00003261600002607201906167503007822284
A096800181CA 1234NOVORAPID FLEX PEN (R)   PZA100U/M NOVO NORDI00003042000002431801906167503007822291
A084900102CA 1132GENOVAN EXTREM           EMU125ML  COSMETICOS00003577600003345001906168423372021046
A001802751CA 1134KARET 50 MCG             COM50     ARMSTRONG 00001390000000900701906167501089803160
A001802761CA 1134KARET 100 MCG            COM50     ARMSTRONG 00002650000001717201906167501089803177
A001802391CA 1134DIOXAFLEX RAPID 65MG     SOB10     ARMSTRONG 00002990000001937501906167501089809414
A001802341CA 1134ZYPLO 60MG               GOT15ML   ARMSTRONG 00002470000001600601906167501089809421
A001802351CA 1134ZYPLO 600MG              JBE120ML  ARMSTRONG 00001800000001166401906167501089809438
A001802551CA 1134ESKAPAR COMPUESTO        CAP20     ARMSTRONG 00001890000001224701906167501089809445
A001801731CA 1134UROFLOX 200MG (A)        TAB2      ARMSTRONG 00004820000003123401906167501089809216
A001801741CA 1134UROFLOX 200MG (A)        TAB6      ARMSTRONG 00008300000005378401906167501089809223
A001801711CA 1134LOGICAL TUTTI FRUTTI     SOB2GX6   ARMSTRONG 00002410000001561701906167501089809230
A001802541CA 1134ESKAPAR COMPUESTO        SUS120ML  ARMSTRONG 00002420000001568201906167501089809315
A001802381CA 1134TRIFAMOX IBL12H 875MG (A)COM14     ARMSTRONG 00005410000003505701906167501089809384
A026001301CA 1134AROPAX 20MG              TAB20     NOVARTIS F00010950000009149601906167501094910815
A133200031CA 1134ADVANTAN                 CRE15G    BAYER DE M00004253700002818101906167795320050127
A031000661CA 1134GESLUTIN 200MG           PER15     ASOFARMA D00006200000004217001906167501871720620
A031000411CA 1134TREXEN 100MG             OVU7      ASOFARMA D00004250000002817301906167501871720637
A031000481CA 1134TREXEN DUO 100400MG      OVU7      ASOFARMA D00004500000003022301906167501871720644
A031000741CA 1134TAFIROL AC 500/50MG      TAB15     ASOFARMA D00002650000001825901906167501871720668
A031000421CA 1134TAFIROL 1G               TAB20     ASOFARMA D00002500000001657201906167501871720675
A031000581CA 1134TAFIROL FLEX             TAB30     ASOFARMA D00005950000004099601906167501871720682
A031000371CA 1134VARTALON 500MG           CAP30     ASOFARMA D00005500000003645901906167501871720576
A031000431CA 1134VARTALON 1.5G GDO        SOB15     ASOFARMA D00006600000004375101906167501871720583
A031000671CA 1134VARTALON COMPOSITUM      SOB30     ASOFARMA D00012000000008162001906167501871720590
A084900112CA 1132GENOVAN FPS30            SPR125ML  COSMETICOS00003039700002842101906168423372021053
A084900292CA 1132PILOPEPTAN               CAP60     COSMETICOS00007217200006748101906168423372025044
A121700092CA 1134VIUSID 4G                SOB21     CHEMINOVA 00007990000006270001906168414200215508
A026002321CA 1134VOLTAREN RETARD 100MG    GRA20     NOVARTIS F00007170000005991101906167501094910396
A097200281CA 1134DELIGLUS 10MG/ML         SOL100ML  FARMACEUTI00001850000001461501906167502003381450
A027601631CA 1132BEXIDENT AFT             TUB5ML    SIEGFRIED 00001301700000813601906168429420055254
A027601641CA 1134DOLAC 10MG               TAB20     SIEGFRIED 00002310000001443801906167501300407863
A071301541CA 1132LA ROCHE POSAY EFFACLAR GFRA400ML  FRABEL    00003612100002835501906163337872411991
A093200651CA 1134FLAGENASE VG 500MG/100000CAP10     PROMOTORA 00001670000001110601906167501299335031
A141400091CA 1134ALDARA 3.75 9.375MG      SOB14     MORE PHARM00014210000009662801906167502246642813
A129900281CA 1134AYTUGRE NS 120 DOSIS 50MCFRA       GLENMARK P00004320400003413101906168904091101689
A000303081CA 1134LIPIDIL 200MG            CAP28     ABBOTT LAB00009904000006309801906167501033958762
A073800341CA 1134MEGATONIX                TAB30     INVESTIGAC00001495000001181101906167501249607515
A093200681CA 1134PASTA DENTRIFIC NEDENTO TTUB       PROMOTORA 00001570000001044101906168414601746106
A093200701CA 1134ENJUAGUE NEDENTO ENCIA 0.BOT300ML  PROMOTORA 00002800000001862001906168414602714104
A142600071CA 1134INCRESINA 25MG           TAB14     TAKEDA MEX00004110000002688801906167501092721031
A110504001CA 1132ICY HOT SLEEVE MANGAS    PZA3      SANOFIAVEN00001125400000705401906167501165009349
A003201621CA 0134CITRACAL 950MG           TAB60     BAYER DE M00001856800001230201906167501008497555
A110200251CA 0134HIPREX 1G                TAB20     MORE PHARM00006600000004488001906167502246641618
A075501181CA 0134SERETIDE DIS COMBO 50/250POL60DOSISGLAXOSMITH00013702800009314401906167501043100847
A136600141CA 0134ACC 600MG                TAB20     SANDOZ    00003481700002836901906167502216930865
A027301601CA 0134FLUCOGREL 75MG           TAB14     LABORATORI00005600000004015501906167501314705634
A099900531CA 0132HYPAFIX 5MX10CM          ROL1      BSN MEDICA00001600100001200001906164042809258813
A003201641CA 0134CANESTEN V 1 DAY 500MG   OVU1      BAYER DE M00001684100001115701906167501318697409
A138400031CA 0132ZAXCELL 8/0.016G         GEL5G     CELL PHARM00001456900001178501906167502224227117
A000302851CA 0134CREON 300MG              CAP50     ABBOTT LAB00010246000006527701906167501033957956
A000302861CA 0134CREON 300MG              CAP30     ABBOTT LAB00006834000004353901906167501033957949
A027301591CA 0134SENOVITAL 10MG           TAB30     LABORATORI00009800000007027101906167501314703548
A003201631CA 0134CITRACALD                TAB60     BAYER DE M00001889200001251601906167501008497562
A026101461CA 0134TEMERIT 5MG              COM28     LABORATORI00008960000006272001906167501070648022
A093200371CA 0134GO ORODISPERSABLE 1 50MG TAB1      PROMOTORA 00001310000000871101906167501299330104
A019903971CA 1134PISALPRA 0.50MG (C)      TAB30     LABORATORI00002196300001858101906167501125152627
A027301611CA 0134ESMISEN 15/100/100/5MG   AMP1X1ML  LABORATORI00002600000001864301906167501314703951
A110300331CA 0134DIMOFLAX 0.50/200MG      CAP45     ALMIRALL D00007714700005214701906168430308001379
A017312431CA 0134PRADAXAR 11 75MG         CAP30     BOEHRINGER00016791800012032801906167501037965148
A070601351CA 1134TIRAPROB 500MG           TAB30     PROBIOMED 00008893300006981201906167502213146702
A026003671CA 1134GALVUS MET 50/850MG      COM30     NOVARTIS F00005980000005314001906167501094917005
A008502741CA 1132VASO RECOLEC DE MUESTRAS BTE       DEGASA    00000032500000026701906167501048640034
A005500751CA 1134TOPSYNY 0.05/3G          GEL40G    PRODUCTOS 00003458200002350001906167501088505508
A097200271CA 1134METIXANE 1G              TAB40     FARMACEUTI00002310000001824901906167502003384734
A005500761CA 1134SYNALAR C 0.01/3G        CRE40G    PRODUCTOS 00002136200001450001906167501088505461
A014001301CA 1134QUINORET FORTE 4         CRE30G    ITALMEX   00007450000006109001906167501390912780
A014001321CA 1134QUINORET                 CRE30G    ITALMEX   00006450000005289001906167501390912766
A005500771CA 1134SYNALAR NEO 0.01/0.35G   CRE40G    PRODUCTOS 00002052000001400001906167501088505423
A005500781CA 1134SYNALAR SIMPLE 0.025G    CRE20G    PRODUCTOS 00001339800000915001906167501088505454
A005500791CA 1134SYNALAR SIMPLE 0.01G     CRE40G    PRODUCTOS 00001825200001245001906167501088505447
A005500801CA 1134SYNALAR SIMPLE 0.01G     CRE20G    PRODUCTOS 00000975200000670001906167501088505430
A005500811CA 1134SYNALAR OTICO 0.25MG     GOT15ML   PRODUCTOS 00001657800001135001906167501088505485
A000801401CA 1132SYSTANE GEL 0.4          GOT10ML   ALCON LABO00004913300004003401906160300650454179
A019904251CA 1134FONTANIVIO 10MG          TAB14     LABORATORI00011889900010058401906167501125154539
A080400161CA 1134COVERSAM 5/5MG           COM14     BECKMAN LA00005962300003730001906165391189200776
A080400171CA 1134COVERSAM 10/10MG         COM14     BECKMAN LA00005962300003730001906165391189230759
A080400191CA 1134COVERSAM 5/10MG          COM14     BECKMAN LA00005962300003730001906165391189220767
A080400201CA 1134COVERSAM 5/5MG           COM30     BECKMAN LA00011924600007450001906165391189200851
A008502751CA 1132AGUA OXI DERMOCLEEN 3.34GBOT100ML  DEGASA    00000045500000038701906167501048335138
A005500821CA 1134SYNALAR NASAL 0.10MG     GOT15ML   PRODUCTOS 00001144500000778001906167501088505416
A008502761CA 0132ABATELENGUA DE MADERA    BOL25     DEGASA    00000047000000039401906167501281200101
A110503791CA 1134AVALIDE 150/12.5MG       TAB28     SANOFIAVEN00009390100006507701906167501361693021
A004402981CA 1134TEMPRA 100MG             GOT30ML   RECKITT BE00000852700000725801906167501041941848
A110503801CA 0132ICY HOT 30/10G           BAR50G    SANOFIAVEN00001017700000616301906167501165008908
A110503811CA 0132ICY HOT 29/7.6G          FRA100G   SANOFIAVEN00000944200000571801906167501165008892
A110503821CA 1134APROVASC 300/10MG        TAB28     SANOFIAVEN00014107500009845201906167501165007819
A110503831CA 1134APROVASC 150/5MG         TAB28     SANOFIAVEN00011286300007876401906167501165007796
A110503841CA 1134APROVASC 300/5MG         TAB28     SANOFIAVEN00014107500009845201906167501165007833
A003000541CA 1132ARTELAC NIGHTTIME 2MG    TUB10G    BAUSCH Y L00004769200003576901906164030571003359
A027601571CA 1134CEFURACET 7D 500MG (A)   TAB14     SIEGFRIED 00006850000004281301906167501300407207
A003201901CA 1134MYCOSPOR 1G              TUB20G    BAYER DE M00001874500001241901906167501318697287
A017312761CA 1134SIFROL ER 1.5MG          TAB30     BOEHRINGER00026092300018698801906167501037907667
A110503861CA 1132ICY HOT 5 8X12CM         PAR5      SANOFIAVEN00000941400000570101906167501165009035
A143000011CA 1134FIRSITO 10MG             TAB14     ZYDUS     00004608000002949101906168901120002580
A143000021CA 1134FIRSITO 10MG             TAB28     ZYDUS     00008760000005606401906168901120002597
A008502771CA 0132CUBREBOCA SENCILLO       PZA10     DEGASA    00000044100000036101906167501048781874
A094800341CA 1134LEXCITOX 10MG            TAB28     SUN PHARMA00010890000008548701906167503006916779
A060500611CA 1134KEPPRA 100MG/ML          FRA150ML  UCB DE MEX00012730000009993101906167501088507755
A027601581CA 1134NAXEN 500MG              TAB15     SIEGFRIED 00001870000001168801906167501300407801
A000302991CA 0132ENSURE ADVANCE VAINILLA  BOT237ML  ABBOTT LAB00000583800000507901906167501033958717
A004402701CA 1134DURACEF 250MG/5ML (A)    FRA100ML  BRISTOL MY00009930000008142701906167501041940964
A140200061CA 1134PILOVAIT 1MG             TAB56     LAKESIDE S00008058100006325701906167501258209748
A129201481CA 1132DUODERM GEL              TUB3X30G  BOSTON MED0000633240000536660190616768455107063 
A082300081CA 1132AEROCHAMBER PLUS ADULTO  CAJ1      AEROSOL ME0000537280000365430190616762860013483 
A082300091CA 1132AEROCHAMBER PLUS LACTANTECAJ1      AEROSOL ME0000537280000365430190616762860013469 
A082300101CA 1132AEROCHAMBER PLUS INFANT  CAJ1      AEROSOL ME0000537280000365430190616762860013476 
A051200661CA 1132CETAPHIL ANTIBACTERIAL   BAR127G   GALDERMA M00001112100000889701906167502003560527
A139300571CA 1132GOICOTINES UNISEX NEG    CAJ1      GENOMMA LA0000065090000056250190616650240020360 
A139300601CA 1134LOMECAN V OVULOS 200MG   PZA3      GENOMMA LA0000087500000075620190616650240019999 
A140700011CA 1134FORCEDOL 10/25MG         AMP2X1ML  INLAP     00005680000004628201906167502261160002
A140800011CA 1134SINEMET 250/25MG         TAB30     LABORATORI00006460000004522001906167502241941119
A024701331CA 1132ARANTOX 0.7/0.1G         FCO120ML  REPRESENTA00003080000002509701906167501250810720
A003000481CA 1132RENU FRESH LUB Y HUMEC   GOT8ML    BAUSCH Y L0000080860000056600190616310119052136 
A140400061CA 0134INFALIN DUO 3/0.25MG (A) GOT10ML   PRODUCTOS 00002692400002207801906167501124180782
A140400071CA 0134INFALIN 3MG (A)          GOT10ML   PRODUCTOS 00002554600002094801906167501124180799
A010700581CA 1134DAIVOBET 5/50MG          UNG30G    LABORATORI00008210700006445401906165702191008067
A099900351CA 1132ACTIMOVE MITELLA CAB CH  CAJ1      BSN MEDICA00001036000000828801906164042809017175
A136600321CA 1134MEGION IV 1G (A)         AMP1X10ML SANDOZ    00005169200004212001906167502216932500
A031001071CA 1134TIM ASF 25MG             TAB30     ASOFARMA D00004900000003228001906167730979092883
A031001081CA 1134TIM ASF 100MG            TAB30     ASOFARMA D00011700000007707701906167730979092869
A031001091CA 1134TIM ASF 200MG            TAB30     ASOFARMA D00012010000007911901906167730979092876
A140200261CA 0132DERMAGE JABON            FRA500ML  LAKESIDE S00004419600003469301906167501258211475
A140200311CA 0132DERMAGE HIDRONUTRIT PED  CRE200ML  LAKESIDE S00003678200002887301906167501258211437
A110503521CA 1132ICY HOT 30/10PPM         TUB85G    SANOFIAVEN00001187400000719001906167501165008717
A110503531CA 1132ICY HOT 30/10PPM         TUB35.4G  SANOFIAVEN00000712500000431501906167501165008700
A073800321CA 1134IFA NOREX 50MG (C)       TAB30     INVESTIGAC00005700000004503001906167501249606068
A002401361CA 1134VIMOVO 500/20MG          TAB30     ASTRAZENEC00005900000003470001906167501098607957
A015901041CA 1134FLEVOX 500MG (A)         TAB7      LAKESIDE S00004412800003133001906167501258211758
A015901051CA 1134FLEVOX 500MG (A)         TAB14     LAKESIDE S00005820800004132701906167501258211987
A140200321CA 0132DERMAGE LOCION MICELAR   BOT240ML  LAKESIDE S00002575700002021901906167501258211420
A071301501CA 1132REDERMIC HYALU C UV      CRE40ML   FRABEL    00006456900005068701906163337872413728
A071301511CA 0132EFFACLAR DERMA SENSIBLE  BAR80G    FRABEL    00001112100000873001906167899026437449
A027601461CA 0132BEXIDENT DIENTES SENS    TUB75ML   SIEGFRIED 00001413800000883601906168429420054509
A027601481CA 0132BEXIDENT ENCIAS GEL DENTRGEL75ML   SIEGFRIED 00001836200001147601906168429420008571
A027601491CA 1134UROTROL 2MG              TAB14     SIEGFRIED 00004120000002575001906167502216797475
A027601501CA 1134UROTROL 2MG              TAB28     SIEGFRIED 00007000000004375001906167502216797482
A027601511CA 1134PANOTOS 0.7G             JBE200ML  SIEGFRIED 00004110000002568801906164104480706196
A027601521CA 1134VENIBYK 50MG             TAB14     SIEGFRIED 00010130000006331301906167502216797413
A004402951CA 1134PENTREXYL 250MG (A)      FRA120ML  BRISTOL MY00002280000001869601906168027950210206
A000302951CA 1134SIMILAC AR               BTE850G   ABBOTT LAB00004512000004060801906167501033958212
A027601531CA 1134VENIBYK 50MG             TAB28     SIEGFRIED 00019010000011881301906167502216797420
A129800071CA 1134FASTUFREM GEL 2.5/100G   GEL50G    LABORATORI00002000000001600001906168470009167677
A003201821CA 1134ASPIRINA PROTECT 100MG   TAB28     BAYER DE M00000780000000580001906167501318612655
A017312681CA 1134BUSCAPINA 10MG           GRA24     BOEHRINGER00001693200001200901906167501037908619
A026003611CA 1134LAMISIL CREMA 2X1        CRE30G    NOVARTIS F00001026100000847301906167501124818005
A013101161CA 1134POLYMOX 500MG (A)        CAP15     LABORATORI00001780000001246001906167501385495069
A110300391CA 1134ACTIKERALL               FRA25ML   ALMIRALL D00013030000008436801906164042762020281
A019904061CA 1134MONTIPEDIA 4MG           TAB20     LABORATORI00003077200002603201906167501125156007
A002401371CA 1134VIMOVO 500/20MG          TAB10     ASTRAZENEC00002200000001300001906167501098608701
A138400101CA 1132KITOSCELL GEL 8/100G     GEL3.5G   CELL PHARM00001231100000995901906167502224228060
A002401411CA 1134SEROQUEL XR 150MG        TAB30     ASTRAZENEC00014430000008500001906165000455019966
A138400071CA 1132ACCUA ASEPTIC GEL 0.008G GEL60G    CELL PHARM00001162500000940301906167502224226424
A140200351CA 0132DERMAGE COMP HIDRONUTRIT CRE200ML  LAKESIDE S00003678200002887301906167501258211468
A027601441CA 1134TAPAZOL 5MG              TAB60     SIEGFRIED 00004380000002737501906167501300408945
A027601451CA 1134VODELAN 500/100MG        TAB14     SIEGFRIED 00004930000003081301906167501300407160
A138400081CA 1132ACCUA ASEPTIC 0.008G     SOL60ML   CELL PHARM00000646600000523101906167502224221030
A010700591CA 1134DAIVOBET 5/50MG          GEL30G    LABORATORI00008210700006445401906165702191009026
A026002451CA 1134ZADITEN                  JBE100ML  NOVARTIS F00006910000005773901906167501124856601
A019901491CA 1134PRIDAM 4MG/4ML           AMP10     LABORATORI00008646400007314501906167501125124570
A101800012CA 1132FLEBOTEK C/A EQ VENOCLIS BOL1      LABORATORI00000331700000280601906167501125125331
A019901101CA 1134TRACEFUSIN AMP           SOL20ML   LABORATORI00001988000001681801906167501125102950
A076802101CA 1134SERETIDE EVO CO/DO 120DOSSPR25/50MCGLAXOSMITH00008870800006029901906163393370037415
A101800022CA 1132FLEBOTEK S/A             BOL1      LABORATORI00000304700000257701906167501125125362
A070700272CA 1132JERINGA DL 5ML 22X32     BLI1      DENTILAB  00000048400000024201906167501128113236
A110500171CA 1134AMARYL 4MG               COM15     SANOFIAVEN00005783400004036101906167501165001770
A110500121CA 1134ALOSOL (A)               SOL20G    SANOFIAVEN00003207900002238701906167501165001800
A110500041CA 1134ACTONEL 35MG             GRA4      ACTAVIS S 00014691900009829301906167501165002883
A111600042CA 1132EUCERIN ANTI PIGM        CRE50ML   BDF MEXICO00002595300002257901906164005800635335
A003900332CA 1132NIVEA BODY MILK RESECA   CRE125ML  BDF MEXICO00000208400000181301906164005808802814
A003900302CA 1132NIVEA BODY MILK NORMAL   CRE125ML  BDF MEXICO00000208400000181301906164005808803002
A016000501CA 1132ACCUCHEK ACTIVE GLUC TIRAPZA50     PRODUCTOS 00003774100003019301906164015630064519
A027601831CA 1134LEGIONIS 2X1 40MG        TAB28     SIEGFRIED 00005970000003731301906167501300420039
A001401041CA 1132SINURESIS                BOT20ML   INDUSTRIAS00004957300003866601906167506325000037
A016000511CA 1134GLUCOPHAGE 850MG         TAB40     PRODUCTOS 00004260000002854201906167501009072577
A097200301CA 1134PERDUQUAN 20MG           TAB14     FARMACEUTI00006530000005158701906167502003385977
A110504111CA 1134APROVASC 150/10MG        TAB28     SANOFIAVEN00011286300007876401906167501165007772
A144600041CA 1134REMOTIV 250MG            TAB30     UP PHARMA 00003500000002800001906167506334400002
A140500321CA 1134DERNUTRAN 1MG/G          TUB30G    ISDIN MEXI00002210000001720001906168429420046566
A097200321CA 1134PERDUQUAN 20MG           TAB28     FARMACEUTI00011380000008990201906167502003385984
A139600381CA 1134ENFAMIL PREMIUM 2        BOT237ML  MEAD JOHNS00000295900000268901906167506205807145
A139600391CA 1134ENFAGROW PREMIUM 3       BTE200ML  MEAD JOHNS00000181000000164401906167506205806872
A139600401CA 1134ENFAMIL PREMIUM 1        BOT237ML  MEAD JOHNS00000324900000295101906167506205807114
A027601851CA 1134CEFTREX IM 3X2 1G (A)    FAM3.5ML  SIEGFRIED 00009990000006243801906167501300420053
A019904571CA 1134ROBOTEK 20MG             TAB30     LABORATORI00007433300006288201906167501125165269
A000303201CA 1134IRMEGLOL D 150/12.5MG    TAB14     ABBOTT LAB00003885000002214201906167501033959226
A000303211CA 1134FREPADAN 80MG            TAB28     ABBOTT LAB00008925000005048401906167501033959295
A024701581CA 1132JUVENTAGE SKIN CONTORN DEGEL18G    REPRESENTA00003870000003153401906167501250819785
A070601401CA 1134HELLEVA 80MG             TAB1      PROBIOMED 00002189000001718401906167502213145521
A146300011CA 1132ALCOHOL ETILIC DESNATUR LBOT120ML  LABORATORI00000096100000059801906167501006820010
A000303281CA 1134SIMILAC 3                BTE850G   ABBOTT LAB00002717000002445301906167501033958847
A000303301CA 1134SIMILAC 2                BTE850G   ABBOTT LAB00003872000003484801906167501033958830
A143100061CA 1134OSIDEAGL 100MG/5G        GEL1      AVIVIA PHA00001790000001275001906167502216802032
A001803371CA 0132AVESOP                   BAR100G   ARMSTRONG 00001800000001166401906167501089812100
A000303221CA 1134FREPADAN 40MG            TAB14     ABBOTT LAB00003675000002214201906167501033959264
A000303231CA 1134FREPADAN 80MG            TAB14     ABBOTT LAB00005260000003073001906167501033959288
A000303241CA 1134IRMEGLOL D 150/12.5MG    TAB28     ABBOTT LAB00007329000004074101906167501033959233
A000303251CA 1134FREPADAN 40MG            TAB28     ABBOTT LAB00006458000003675901906167501033959271
A019904581CA 1134ROBOTEK 10MG             TAB30     LABORATORI00004948000004185801906167501125165665
A070601411CA 1134HELLEVA 80MG             TAB4      PROBIOMED 00007004800005498801906167502213145538
A146300061CA 1132YUPI PREMIUM CONDON LUBRIPZA3      LABORATORI00000470000000344401906167506328700019
A146300071CA 1132YUPI PREMIUM CONDON TEXTUPZA3      LABORATORI00000470000000344401906167506328700040
A146300081CA 1132YUPI PREMIUM CONDON ULTRAPZA3      LABORATORI00000470000000344401906167506328700071
A021901501CA 1134ZEUGIAL 150MG            CAP14     PSICOFARMA00002700000001853801906167501384544973
A021901511CA 1134ZEUGIAL 75MG             CAP28     PSICOFARMA00004550000003124001906167501384544966
A021901521CA 1134ZEUGIAL 75MG             CAP14     PSICOFARMA00002760000001895001906167501384544959
A021901531CA 1134ZEUGIAL 150MG            CAP28     PSICOFARMA00004450000003055301906167501384544980
A027601861CA 1134FLUCISTEN 0.4MG          CAP20     SIEGFRIED 00004090000002556301906167502216797444
A001803381CA 1134MONOCORAT DEPOT 50MG     TAB10     ARMSTRONG 00002380000001542201906167501089803115
A075501531CA 1134FLIXOTIDE NEBULES 2MG/2MLAMP10     GLAXOSMITH00007087100004627401906167501043100328
A075501541CA 1134FLIXOTIDE NEBULES 0.5MG/2AMP10     GLAXOSMITH00003628500002369201906167501043100311
A075501551CA 1134MICROMYCIN 100MG (A)     CAP10     GLAXOSMITH00003947900002616901906167502264950389
A144600051CA 1134GIAL 8MG                 TAB40     UP PHARMA 00003700000002960001906167506334400057
A000303311CA 0132FREESTYLE OPTIUM NEO     EQP1      ABBOTT LAB0000517030000439450190616093815713616 
A016000521CA 1132ACCUCHEK PERFORMA TIRAS RPZA25     PRODUCTOS 00002713900002171101906164015630981960
A027301701CA 1134KASTANDI 30MG            TAB7      LABORATORI00003700000002653101906167501314705269
A140400291CA 1134CARNOTPRIM LP 30MG       COM10     PRODUCTOS 00003270900002682101906167501124182120
A027301721CA 1134CONAGRAD 120MG           CAP30     LABORATORI00005900000004230601906167501314706273
A027301731CA 1134CONAGRAD 60MG            CAP30     LABORATORI00003700000002653101906167501314706259
A012101241CA 1134KEDROP 0.05              GOT5ML    LABORATORI0000554220000341710190616008400004628 
A020500172CA 1134PEPTO BISMOL             SUS236ML  COMPANIA P0000086850000074350190616020800753050 
A027700071CA 1134CAPTRAL 25MG 11          TAB30     LABORATORI00003990000002470001906167501101640049
A027700871CA 1134SIL NORBORAL 5MG 500MG   TAB40     LABORATORI00004030000002499001906167501101642234
A002400091CA 1134IMDUR                    GRA20     ASTRAZENEC00003690000002170001906167501098610841
A002400391CA 1134LOGIMAX                  TAB14     ASTRAZENEC00004250000002500001906167501098610872
A033900361CA 1134LOSEC 40MG               FAM1      ASTRAZENEC00003830000003010001906167501098610957
A120800062CA 1134GOICOTABS                TAB30     GENOMMA LA0000139900000120900190616650240002465 
A120800112CA 1134GENOPRAZOL 20MG          CAP14     GENOMMA LA0000069000000059630190616650240003950 
A120800122CA 1134GENOPRAZOL 20MG          CAP7      GENOMMA LA0000049900000043130190616650240003967 
A019502351CA 1134LINCOCIN (A)             JBE100ML  PFIZER    0000248530000198820190616300090444037 
A019502371CA 1134LINCOCIN INF 300MG C/JER(AMP6X1ML  PFIZER    0000538880000431100190616300090555412 
A096600091CA 1134DALACIN C 75MG GRANU (A) SUS100ML  PFIZER    0000306980000245580190616300090760045 
A027700501CA 1134SIL NORBORAL 5/1000MG    TAB40     LABORATORI00007220000004480001906167501101643217
A027700861CA 1134SIL NORBORAL 2.5MG 500MG TAB40     LABORATORI00002950000001829001906167501101643286
A027701171CA 1134GLIMETAL LEX 2/850MG     TAB16     LABORATORI00006030000003740001906167501101649035
A027701181CA 1134GLIMETAL LEX 4/850MG     TAB16     LABORATORI00008090000005020001906167501101649097
A027701191CA 1134PREDIAL PLUS 500MG       TAB30     LABORATORI00003210000001990001906167501101649158
A027701221CA 1134PREDIAL PLUS 850MG       TAB30     LABORATORI00004410000002730001906167501101649219
A019502771CA 1134ERANZ 10MG               TAB28     WYETH     00023054400018443601906167501108715528
A141400181CA 1134SOLOSTIN POLVO 17G       SOB7      MORE PHARM00001220000000841801906167502246640970
A016000531CA 1132ACCUCHEK PERFORMA TIRAS RPZA50     PRODUCTOS 00003901800003121401906164015630981977
A001000691CA 1132OPTIVE 30 UNIDOSIS 9.0/5.SOL0.4ML  ALLERGAN  00004569000003864501906167501201401090
A013101091CA 1134HIDEX IM 100MG           AMP3X1ML  LABORATORI00003090000002101201906167501385494475
A138700081CA 1134PERIPLUM GEL 1G          TUB30G    PANME     00002751800002160201906167501124180720
A141200041CA 1134DILAR 40MG               AMP1X2ML  NOVOPHARM 00002840000002243601906167500225625017
A001000611CA 1134LUMIGAN RC 0.1MG         FCO3ML    ALLERGAN  00007917200006696501906167501201400833
A004402761CA 1134AMIKIN 250MG (A)         FAM2X2ML  BRISTOL MY00006820000005592501906167501041941275
A013101151CA 1134PENAMOX 1G (A)           TAB12     LABORATORI00002640000001821601906167501070635114
A139900041CA 1134EDARBI 40MG              TAB28     TAKEDA MEX00007460000004880301906167502257270081
A139900051CA 1134EDARBI 80MG              TAB28     TAKEDA MEX00010080000006594301906167502257270111
A139900071CA 1134EDARBI 80MG              TAB14     TAKEDA PHA00005820000003807401906167502257270104
A009801491CA 1134REDEVANT 2MG             TAB28     ELI LILLY 00006543000004654501906167501082242461
A009801501CA 1134REDEVANT 4MG             TAB28     ELI LILLY 00007686000005467601906167501082242478
A000801361CA 0132SYSTANE ULTRA            FRA10ML   ALCON LABO00004805700003915801906160300651431681
A093200311CA 1134RADIANCE 3MG/20MCG       TAB28     PROMOTORA 00002960000001968401906167501299330029
A000302781CA 0134DUSPATALIN 200MG         CAP14     ABBOTT LAB00003963000002524801906167501033957512
A000302791CA 0134DUSPATALIN 200MG         CAP28     ABBOTT LAB00007210000004593501906167501033957529
A000302811CA 0134DICETEL 100MG            TAB14     ABBOTT LAB00003746000002386601906167501033957567
A000302821CA 0134DUSPATALIN PEDIATRICO 1G FRA100ML  ABBOTT LAB00002580000001643701906167501033957536
A000302831CA 0134CREON 150MG              CAP50     ABBOTT LAB00005378000003426301906167501033957505
A026002861CA 1134LAMISIL 250MG            COM20     NOVARTIS F00009650000008063401906167501124813468
A081700052CA 1134MENTHOLATUM              TAR28G    MENTHOLATU0000034850000028080190616310742300116 
A081700062CA 1134MENTHOLATUM              TAR85G    MENTHOLATU0000077480000062420190616310742300123 
A111600262CA 1132EUCERIN HYALURON FILL EYECRE15ML   BDF MEXICO00002828000002460401906164005800057670
A111600252CA 0132EUCERIN HYALUR FILL NOCH TAR50ML   BDF MEXICO00003741100003254801906164005800634864
A107900312CA 1134FACIDEX TOTAL MASTICABLE TAB5      PROMOTORA 00000280000000186301906167501299302996
A019502211CA 1134FACTIVE5 320MG (A)       TAB3      PFIZER    00005209500004167601906167501287612069
A053300142CA 1132AVENE AGUA TERMAL        AER150ML  PIERRE FAB00001767200001555201906163282770930597
A053300152CA 1132AVENE AGUA TERMAL        AER300ML  PIERRE FAB00002327600002048301906163282770930603
A053300172CA 1132AVENE CLEANANCE GEL LIMP FCO200ML  PIERRE FAB00003094800002723401906163282770959888
A053300362CA 1132DUCRAY ELUTION           SHA200ML  PIERRE FAB00002319000002040701906163282771014623
A053300012CA 1132AVENE AGUA TERMAL        AER50ML   PIERRE FAB00000853400000751001906163282770505320
A053301252CA 1132ADERMA EXOMEGA           LOC400ML  PIERRE FAB00004129300003633801906163282776059131
A019904811CA 1134DEXTROSA Y CS PISA PLAST SOL500ML  LABORATORI00000529800000448201906167501125100185
A019904821CA 1134DEXTROSA Y CS PISA PLAST SOL1000ML LABORATORI00000801900000678301906167501125100192
A101800552CA 1134HARTMAN PISA PLAST       SOL1000ML LABORATORI00000801900000678401906167501125100253
A111800032CA 1134ELECTROLIT COCO PLASCO   SOL625ML  LABORATORI00000317000000268201906167501125104411
A019901121CA 1134OTROZOL 500MG 250ML      FCO100ML  LABORATORI00000851200000720101906167501125104923
A112700342CA 1134ADEROGYL 15 ORAL 3ML     AMP5      SANOFIAVEN00001547000000884501906167501165003040
A026100581CA 1134ASTELIN NASAL            SPR       MEDAP     00004860000003863701906164019338197418
A026101751CA 1134KAMILLOSAN               SOL30ML   LABORATORI00001600000001272001906164019338345284
A019903511CA 1134FLUONING 750MG(A)        TAB7      LABORATORI00004840000004094501906167501125118289
A005000661CA 1134FLUXEDAN                 COM24     APLICACION00001673300001372101906167501070903237
A017800262CA 0132LAVA OJOS PLASTICO MIYAKOBOL1      SHIRAI MAT00000022000000019001906167501877650396
A027003081CA 1134LERTAMINE D INF          SOL60ML   BAYER DE M00003094800002033401906167501050623827
A091601062CA 1132GLUCERNA SR FRESA        BOT237ML  ABBOTT LAB00000510000000443701906167501033956140
A091601052CA 1132GLUCERNA SR VAINILLA     BOT237ML  ABBOTT LAB00000510000000443701906167501033956126
A027301491CA 1134FOSFOCIL (A)             SUS120ML  LABORATORI00003750000002688901906167501314701704
A103101941CA 1134ENI 500MG (A)            TAB14     LOGISTICA 00004572500003725801906167501123012923
A115301621CA 1134PANTOZOL 20MG            GRA14     TAKEDA MEX00004310000002819601906167501092777380
A115301631CA 1134TECTA 20MG               TAB14     TAKEDA MEX00004160000002721501906167501092777403
A002401281CA 1134VANNAIR 80/4.5MCG 120D   AER       ASTRAZENEC00006390000003760001906167501098606103
A002401291CA 1134VANNAIR 160/4.5MCG 120D  AER       ASTRAZENEC00007750000004570001906167501098606127
A111800512CA 1134ELECTROLIT PED FRESA PLASSOL500ML  LABORATORI00000261800000221501906167501125143205
A019903571CA 1134LINDEZA 60MG             CAP30     LABORATORI00002990000001911801906167501125143267
A111300211CA 1134STILNOX CR 12.5MG (C)    TAB28     SANOFIAVEN00011674200009573001906167501165005815
A020500832CA 1134VICK VITAPYRENA MANZANIL SOB5X5G   COMPANIA P00000664300000417801906167506195102640
A020500842CA 1134VICK VITAPYRENA MANZCAN  SOB5X5G   COMPANIA P00000664300000417801906167506195102695
A006401662CA 0132COLGATE DOBLE FRESCURA      150ML  COLGATE PA00000346300000294401906167501035911079
A006401742CA 0132COLGATE FRESKA RA           100ML  COLGATE PA00000134200000114101906167501035911062
A012101261CA 1134PRED NF OFT              SOL5ML    LABORATORI0000271040000167110190616008400001016 
A091700292CA 1134PEDIALYTE SR60 MANZANA   SOL500ML  ABBOTT LAB00000328000000279201906167501033954740
A091601022CA 1132PEDIASURE PLUS CHOCOLATE BOT237ML  ABBOTT LAB00000506000000440201906167501033956317
A005000522CA 1134RINOFREN                 SOL120ML  APLICACION00000939600000770501906167501124103552
A003902412CA 1132NIVEA ACLARADO NATURAL   ROL50ML   BDF MEXICO00000271200000236001906164005808837472
A003902402CA 1132NIVEA ACLARADO NATURAL   AER150ML  BDF MEXICO00000453200000394301906164005808829675
A003902352CA 1132NIVEA BABY PURE TOA HUM  BOL63     BDF MEXICO00000361500000314401906164005808225958
A003902372CA 0132NIVEA BABY SOFTYCARE TOA BOL63     BDF MEXICO00000361500000314401906164005808225941
A091601002CA 1132PEDIASURE PLUS VAINILLA  LAT400G   ABBOTT LAB00002741000002384701906167501033955693
A062100471CA 1134PENTASA GRANULADO 2G     SOB30     FERRING   00017020500013361101906167503000883398
A121900842CA 1134PHARMATON  40 DESC       CAP100    BOEHRINGER00004158400002922901906167501037906110
A019502941CA 1134PRISTIQ 50MG             TAB28     WYETH     00017276200013820901906167501108767893
A024500881CA 0132TEGADERM 60.3X101MM      APO5      3M MEXICO 0000080940000068820190616051131835580 
A002401271CA 1134ATACAND 32MG             TAB14     ASTRAZENEC00009090000005350001906167501098606035
A008500852CA 0132ALGODON PROTEC PLISADO   BOL100G   DEGASA    00000218300000179601906167501048620906
A008500842CA 0132ALGODON PROTEC PLISADO   BOL200G   DEGASA    00000352500000297301906167501048621002
A008500832CA 0132ALGODON PROTEC PLISADO   BOL300G   DEGASA    00000527900000445101906167501048621200
A008500862CA 0132ALGODON PROTEC PLISADO   BOL50G    DEGASA    00000118800000100301906167501048620807
A133700092CA 1132CHAP STICK CEREZA        TUB4.2G   WYETH     0000033710000026800190616036600963230 
A133700072CA 1132CHAP STICK NATURAL       TUB4.2G   WYETH     0000033710000026800190616036600963223 
A062100402CA 1134CHORAGON 5000UI          AMP1X1ML  FERRING   00006066700004762301906167503000883497
A051300252CA 0132CETAPHIL UVA/UVB DEFE 50 FCO50ML   GALDERMA M00003465500002772401906163499320003001
A110502871CA 1134BIPROFENID 150MG         COM20     SANOFIAVEN00006629500004626601906167501165006362
A012300852CA 1132ACNEBAR                  JAB100G   GRISI HERM00000648900000436301906167501022150405
A111700012CA 1134ACOMEXOL 10G             TUB30G    ARMSTRONG 00000940000000609101906167501089810045
A026800792CA 1134AFRINEX EFX              TAB12     BAYER DE M00000760600000397401906167501050619943
A120800772CA 1134BENGUE ULTRA GEL         TUB35G    GENOMMA LA0000067500000058330190616650240006647 
A120800762CA 1134BENGUE ULTRA             GEL65G    GENOMMA LA0000114000000098520190616650240006678 
A006402062CA 0132PALMOLIVE BRILLANTINA    LIQ52ML   COLGATE PA000001195000001017019061675001872     
A027301521CA 1134BREDELIN 750MG (A)       TAB7      LABORATORI00006800000004875901906167501314701650
A019904851CA 1134MEPRIZINA 1G (A)         FAM2ML    LABORATORI00000336600000284701906167501125106408
A127900051CA 1134IFA LOSE 2MG (C)         TAB30     INVESTIGAC00004300000003397001906167501249605252
A019900151CA 1134BEPLENOVAX               AMP1000ML LABORATORI00001078000000912001906167501125116254
A019900141CA 1134BEPLENOVAX               AMP500ML  LABORATORI00000577600000488601906167501125116247
A026800162CA 1132MEXSANA TALCO            BOT160G   BAYER DE M00000392200000259901906167501050624015
A026800172CA 1132MEXSANA TALCO            BOT320G   BAYER DE M00000586200000388401906167501050624022
A071300772CA 0132LA ROCHE POS EFFACLAR    GEL200ML  FRABEL    00003181000002497101906163337872411083
A071300721CA 1132LA ROCHE POS KERIUM ANTI BOT125ML  FRABEL    00006112100004798001906163337872411052
A059001401CA 1134LAMISIL VALUE PACK       TUB15G    NOVARTIS F00000553300000456701906167501124814984
A026002871CA 1134LAMISIL 250MG            COM10     NOVARTIS F00005820000004863101906167501124813451
A026800182CA 1132MEXSANA TALCO            BOT80G    BAYER DE M00000271200000145301906167501050624008
A121801641CA 1134MICARDIS PLUS 80MG/12.5  TAB28     BOEHRINGER00010962500007700501906167501037946246
A121801691CA 1134MICARDIS PLUS 80MG/25    TAB14     BOEHRINGER00006508200004618701906167501037946239
A102700032CA 1132MICRODACYN               SOL240ML  MORE PHARM00002440000001390801906167503006698323
A098900012CA 1132MICRODYN                 GOT15ML   MERCANCIAS00000125600000114401906167501119500366
A098500232CA 0132MICROLET LANCETS         CAJ25     BAYER DE M00000623400000432301906165016003654404
A095800061CA 1134MILEVA 35                COM21     LABORATORI00003410000002730001906167502003389555
A059200032CA 0132VIDA MAGNESIO PLUS       CAP60     COYOACAN Q00001190200000892901906167501417004764
A110502411CA 1134OROXADIN 100MG           CAP15     SANOFIAVEN00006296400004394101906167501328977218
A079600232CA 1134SEDALMERCK               TAB20     MERCK     00000689300000389001906167501298281209
A079600242CA 1134SEDALMERCK               TAB40     MERCK     00001214900000738901906167501298281308
A107700281CA 1134CICLOFERON 200MG         TAB25     PROMOTORA 00004860000003231901906167501299300107
A107700412CA 1134CONAZOL K 200MG          TAB10     PROMOTORA 00002250000001496301906167501299300145
A003501391CA 1134NORISTERAT               AMP1ML    BAYER DE M00002480000001843701906167501303449501
A003501171CA 1134ANGELIQ 1/2MG            COM28     BAYER DE M00006440000004787701906167501303451559
A003501582CA 1134ANDROCUR 50MG            TAB20     BAYER DE M00019550000016221001906167501303451566
A003500731CA 1134ADALAT CC 30MG           COM30     BAYER DE M00004460000003315801906167501318635135
A003500661CA 1134ADALAT CC 30MG           COM10     BAYER DE M00001670000001241601906167501318635142
A003500621CA 1134ADALAT OROS 60MG         TAB10     BAYER DE M00003140000002334501906167501318635227
A003500521CA 1134ADALAT RETARD 20MG       COM28     BAYER DE M00002600000001932901906167501318635784
A102000541CA 1134VYTORIN 10/10MG          COM14     MERCK SHAR00006037600004830001906167501326000345
A102000561CA 1134VYTORIN 10/20MG          COM14     MERCK SHAR00006641400005313101906167501326000369
A102000581CA 1134VYTORIN 10/40MG          COM14     MERCK SHAR00009520300007616301906167501326000383
A102000591CA 1134VYTORIN 10/80MG          COM14     MERCK SHAR00011353900009083101906167501326000406
A102000361CA 1134PRINIVIL 20MG            TAB30     MERCK SHAR00009222100007377701906167501326000475
A107700631CA 1134FLAGENASE 500MG          TAB30     PROMOTORA 00001140000000758101906167501299300251
A107700611CA 1134FLAGENASE 400            CAP30     PROMOTORA 00001340000000891101906167501299300275
A107700921CA 1134MUCOVIBROL 30MG          COM20     PROMOTORA 00001420000000944301906167501299300343
A107701671CA 1134SENSIBIT 10MG            TAB10     PROMOTORA 00001710000001137201906167501299300367
A107700521CA 1134ECTAPRIM F (A)           TAB14     PROMOTORA 00001560000001037401906167501299300763
A072200012CA 1132COLLAR CERVICAL BLANDO   PZACHICA  ATENCION E00000744300000517301906163320510000015
A072200022CA 1132COLLAR CERVICAL BLANDO   PZAMEDIANOATENCION E00000744300000517301906163320510000022
A072200032CA 1132COLLAR CERVICAL BLANDO   PZAGRANDE ATENCION E00000744300000517301906163320510000039
A080400091CA 1134PROTOS 2 GDO             SOB28     BECKMAN LA00012864300008040001906163594456500599
A127300081CA 1134UTROGESTAN 100MG         CAP30     BESINS HEA00005910000003959701906163700039500027
A127300071CA 1134PREMASTAN                GEL80G    BESINS HEA00005730000003839101906163700039500034
A127300061CA 1134OESTROGEL                TUB80G    BESINS HEA00006087300004077901906163700039500058
A111600092CA 1132EUCERIN PH5 PROT LABIAL  BLI4.8G   BDF MEXICO00000408100000355201906164005800631702
A075600442CA 1132PARODONTAX FLUOR PAST       75G    GLAXOSMITH00000753100000489501906165000198281750
A051900572CA 1132VISCOPASTE 7.5CMX6M         1      SMITH Y NE00001825600001606501906165000223404703
A051200501CA 1134SILKIS                   UNG30G    GALDERMA M00008645300006916301906163499320002028
A051200481CA 1134BENZAC AC 2.5 GEL        TUB60G    GALDERMA M00002102000001681601906163499320002394
A051200331CA 1134LOCERYL 5                SOL2.5ML  GALDERMA M00006942800005554201906163499320002523
A051300242CA 1132CETAPHIL                 SHA200ML  GALDERMA M00002327600001862101906163499320002738
A094000181CA 1134MYSOLINE 250MG           TAB50     LABORATORI00003258600002444001906167501086300129
A118300072CA 1134OXAL INF 100/400MG       SOL10ML   LABORATORI00001220000000841801906167501086300136
A118300062CA 1134OXAL JR 200/400MG        SUS20ML   LABORATORI00001220000000841801906167501086300143
A003700682CA 1132PLASTIPAK 5ML 21X32      BLI1      BECTON DIC00000071300000046201906167501073025493
A003700232CA 1132PLASTIPAK 5ML 22X25      BLI1      BECTON DIC00000073800000047501906167501073025516
A003700692CA 1132PLASTIPAK 5ML 22X32      BLI1      BECTON DIC00000073800000047501906167501073025523
A003700352CA 1132PLASTIPAK 10M 20X32      BLI1      BECTON DIC00000078700000050701906167501073025554
A003700362CA 1132PLASTIPAK 10M 20X38      BLI1      BECTON DIC00000078700000050701906167501073025561
A003700372CA 1132PLASTIPAK 10M 21X32      BLI1      BECTON DIC00000078700000050701906167501073025585
A003700382CA 1132PLASTIPAK 10M 22X32      BLI1      BECTON DIC00000078700000050701906167501073025608
A003700962CA 1132PLASTIPAK 1ML TUBER 25X16BLI1      BECTON DIC00000028000000018001906167501073025790
A086600051CA 1134RIBOVAC GDO 500MG        SOB12     PIERRE FAB00008090000006591901906167501088504839
A110501911CA 1134PLAVIX 75 MG             GRA14     SANOFIAVEN00008840800006169801906167501328978994
A110502191CA 1134ENTEROGERMINA 5ML        AMP20     SANOFIAVEN00003560000002484401906167501328980119
A111300101CA 1134VICTAN 2MG (C)           COM30     SANOFIAVEN00005239400004296401906167501328980249
A118300051CA 1134OXAL                     TAB2      LABORATORI00001220000000841801906167501086301041
A001800231CA 1134ATEMPERATOR S            SUS100ML  ARMSTRONG 00002800000001814401906167501089800077
A022100181CA 1134NEUGERON LP 200MG        TAB20     ARMSTRONG 00002910000001885701906167501089800084
A086600031CA 1134RIBOVAC                  TAB12     PIERRE FAB00008090000006591901906167501088504853
A086600081CA 1134PRIMALAN 10MG            COM14     PIERRE FAB00003790000003088201906167501088504976
A005500031CA 1134ALIN                     AMP2ML    PRODUCTOS 00000588500000385001906167501088505003
A005500541CA 1134NEURALIN                 AMP2X1ML  PRODUCTOS 00001133600000750001906167501088505126
A001800151CA 1134ANGIOTROFIN RETARD 180MG TAB10     ARMSTRONG 00003650000002365201906167501089802057
A111300051CA 1134STILNOX 10MG (C)         TAB10     SANOFIAVEN00004493200003684401906167501328979090
A111300061CA 1134STILNOX 10MG (C)         TAB30     SANOFIAVEN00011675500009574101906167501328979106
A110502141CA 1134CO APROVEL 150MG         TAB14     SANOFIAVEN00005191100003597601906167501328979113
A110502161CA 1134CO APROVEL 300MG         TAB14     SANOFIAVEN00007821200005420301906167501328979120
A021900491CA 1134SERTEX 50MG              TAB14     PSICOFARMA00004260000002924901906167501384504823
A021900511CA 1134DEPRECTAL 300MG          TAB20     PSICOFARMA00003910000002684601906167501384504953
A112800092CA 1134HISTIACIL FLU            TAB20     SANOFIAVEN00000642600000224201906167501328980317
A110502011CA 1134CO APROVEL 300/25MG      TAB14     SANOFIAVEN00008212200005691401906167501328980331
A110502021CA 1134CO APROVEL 300/25MG      TAB28     SANOFIAVEN00015194900010530601906167501328980348
A126301381CA 1134ACC 200MG EFERV          TAB20     SANDOZ    00002156800001757401906167502216931220
A005500331CA 1134MYDOCALM A               CAP30     PRODUCTOS 00001702800001085001906167501088545658
A005500382CA 1134SCABISAN PLUS            EMU120ML  PRODUCTOS 00000915600000588001906167501088559112
A001802771CA 1134KARET 150MCG             COM50     ARMSTRONG 00004280000002773401906167501089803184
A001800801CA 1134RECOVERON                UNG40G    ARMSTRONG 00002700000001749601906167501089804013
A001802121CA 1134RECOVERON 12G            SOB10     ARMSTRONG 00011000000007128001906167501089804082
A001802641CA 1134AUTRIN 600               GRA36     ARMSTRONG 00003950000002559601906167501089804099
A001800821CA 1134RECOVERON                CRE40G    ARMSTRONG 00002700000001749601906167501089804136
A001800831CA 1134RECOVERON NEOMICINA      UNG40G    ARMSTRONG 00003250000002106001906167501089804310
A098000012CA 1132NATURALAG                SOL15ML   ALCON LABO00001583800001226801906167501088605857
A000800421CA 1134MAXITROL                 UNG3.5G   ALCON LABO00004788300003901601906167501088606304
A000800931CA 1134MAXITROL                 SUS5ML    ALCON LABO00005580700004547301906167501088606403
A000800811CA 1134TOBRADEX                 SUS5ML    ALCON LABO00005859000004774001906167501088606908
A098000022CA 1132NATURALAG                UNG3.5G   ALCON LABO00001617000001252701906167501088607806
A000800841CA 1134TOBREX                   UNG3.5G   ALCON LABO00003394800002766201906167501088607905
A000800961CA 1134TOBREX                   SOL5ML    ALCON LABO00003878600003160401906167501088607950
A094800051CA 1134CITOX 20MG               TAB14     SUN PHARMA00005690000004466701906167503006916076
A094800061CA 1134CITOX 20MG               TAB28     SUN PHARMA00009990000007842201906167503006916083
A094800071CA 1134OXETOL 300MG             TAB20     SUN PHARMA00004560000003579601906167503006916090
A003501231CA 1134DIANE                    GRA21     BAYER DE M00003610000002683901906167896116861566
A001801511CA 1134RECOVERON NC             CRE40G    ARMSTRONG 00003250000002106001906167501089804327
A111700082CA 1134KAOMYCIN                 SUS180ML  ARMSTRONG 00001700000001101601906167501089809452
A001801951CA 1134ESKAPAR 400MG            CAP16     ARMSTRONG 00001750000001134001906167501089809506
A001801502CA 1134ESKAPAR                  SUS90ML   ARMSTRONG 00001440000000933101906167501089809513
A001000502CA 1132OPTIVE GOTAS             GOT10ML   ALLERGAN  00004127300003490901906167501201400710
A021900851CA 1134ORTOPSIQUE 10MG (C)      AMP5      PSICOFARMA00001410000001121001906167501384502553
A005000532CA 1134RINOFREN                 COM24     APLICACION00001058400000867901906167501124103514
A026003061CA 1134RASILLES 300MG           COM28     NOVARTIS F00010700000008940701906167501124813833
A019502491CA 1134DETRUSITOL SR 4MG        CAP14     PFIZER    00009341600007473301906167501142936286
A111800292CA 1134AGRIFEN                  TAB10     MDR PHARMA00000212500000153701906167501125116810
A110500621CA 1134LASILACTON 50MG/20MG     CAP16     SANOFIAVEN00003529200002462901906167501165000179
A103101121CA 1134TRIMEXAZOL 3ML (A)       AMP6      LOGISTICA 00002370700001845501906167501122967705
A110500611CA 1134LASIX 20MG 2ML           AMP5      SANOFIAVEN00002241600001564401906167501165000186
A110500641CA 1134LASIX 40MG               TAB24     SANOFIAVEN00001706900001191201906167501165000193
A110500811CA 1134NEO MELUBRINA 500MG      COM10     SANOFIAVEN00000787200000549401906167501165000230
A110500791CA 1134NEO MELUBRINA 1G 2ML     AMP5      SANOFIAVEN00001060100000739901906167501165000254
A103100232CA 1134BREACOL INF              JBE120ML  LOGISTICA 00001262400001028601906167501123013418
A103100971CA 1134OTO ENI (A)              SUS10ML   LOGISTICA 00003048500002484001906167501123013807
A103100391CA 1134DIAMIN 10MG              TAB20     LOGISTICA 00006516700005310001906167501123013814
A103100531CA 1134ENI OFTALMICO 3MG        GOT5ML    LOGISTICA 00002624700002138701906167501123013821
A103101261CA 1134VILONA                   SOL120ML  LOGISTICA 00005000000003892401906167501122969310
A103101271CA 1134VILONA 400MG             CAP18     LOGISTICA 00014976700011659301906167501122969419
A103101561CA 1134FIRAC PLUS               GRA20     LOGISTICA 00002566900002091601906167501123014101
A103100671CA 1134FIRAC 100MG 2ML          F A5      LOGISTICA 00000926500000754901906167501123014514
A103100711CA 1134FIRAC PLUS 100MG         AMP6      LOGISTICA 00002467400002010501906167501123014521
A103100681CA 1134FIRAC 125MG              TAB10     LOGISTICA 00001609100001311101906167501123014613
A103100691CA 1134FIRAC 250MG              TAB10     LOGISTICA 00002439400001987901906167501123014644
A135000061CA 1134LEPONEX 100MG (C)        TAB30     NOVARTIS F00030560000026882501906167501124852108
A026001421CA 1234MIACALCIC NASAL 200UI (R)AER2ML    NOVARTIS F00022250000018591701906167501124853181
A026200072CA 1134SYNCOL                   COM24     LABORATORI00001070000000684801906167501070600556
A026200172CA 1134SYNCOL MAX               COM12     LABORATORI00001010000000646401906167501070600730
A026200342CA 1132REPLENS 5.9G             APL6      CHURCH Y D00002900000002384101906167501070600853
A026100531CA 1134TREDA                    SUS75ML   LABORATORI00001540000001078001906167501070612320
A026100541CA 1134TREDA                    TAB20     LABORATORI00001640000001148001906167501070612368
A019500501CA 1134UNASYNA IM/IV 250/500MG (FAM1.6ML  PFIZER    00003125300002500201906167501287669193
A019500491CA 1134UNASYNA IM/IV 500/1000MG(FAM3.2ML  PFIZER    00006692100005353701906167501287669209
A076700321CA 1134RAPIVIR 500MG            TAB42     GLAXOSMITH00028251100018446101906167501043161626
A076700371CA 1134RAPIVIR 500MG            TAB10     GLAXOSMITH00007945100005187601906167501043161640
A110501831CA 1134PROFENID I.V 100MG       FAM3      SANOFIAVEN00003594500002508501906167501165005617
A110501841CA 1134NEUROFLAX 20/4 MG        FAM3      LABORATORI00008670000006069001906167501165005624
A010700151CA 1134SALOFALK 250MG           COM60     LABORATORI00004957000004064701906167501168810409
A017000401CA 1134SOLUCAPS (C)             CAP30     PRODUCTOS 00006066800004762601906167501293200366
A017000062CA 1132CROMOTEX                 CAP30     PRODUCTOS 00002838400002228201906167501293200465
A017000432CA 1134VITALAIF                 CAP60     PRODUCTOS 00003269000002566101906167501293200540
A017000321CA 1134REDOTEX NF (C)           CAP30     PRODUCTOS 00008732700006855201906167501293200595
A017000411CA 1134TEROCAPS                 CAP60     PRODUCTOS 00004358100003421301906167501293200625
A017000462CA 1134CRONOCAPS 3MG            CAP30     PRODUCTOS 00002181800001712801906167501293200649
A017000472CA 1134CRONOCAPS 5MG            CAP30     PRODUCTOS 00003701600002905801906167501293200656
A027002991CA 1134CELESTAMINE NS           TAB20     BAYER DE M00003888600002441601906167501050600026
A093400051CA 1134CELESTONE PED            GOT60ML   LABORATORI00002560000001792001906167501050623629
A093300042CA 1134CLOROTRIMETON REPET 12MG GRA20     BAYER DE M00000914400000561501906167501050624640
A093500421CA 1134UNICLAR 0.05             SPR18ML   LABORATORI00008850000006195001906167501050612241
A093400121CA 1134ZINTREPID 10/10MG        COM14     LABORATORI00006550000004585001906167501050612319
A093400131CA 1134ZINTREPID 10/10MG        COM28     LABORATORI00013110000009177001906167501050612326
A093400151CA 1134ZINTREPID 10/20MG        COM14     LABORATORI00007200000005040001906167501050612357
A013101011CA 1134PENAMOX 500MG (A)        CAP12     LABORATORI00001850000001276501906167501070635183
A013100961CA 1134PENAMOX 250MG (A)        SUS75ML   LABORATORI00001690000001166101906167501070635237
A013100981CA 1134PENAMOX 500MG SUSP (A)   FCO75ML   LABORATORI00001980000001366201906167501070635299
A102600322CA 1134CEFTRIAXONA GI 1G KENDR (AMP3.5ML  SANOFIAVEN00001804100000464101906167501361680151
A003100332CA 1134DEXTROSA 5 BAXTER        SOL100ML  BAXTER    0000013250000011670190616786759200877 
A027600662CA 1132BEXIDENT TRICLOSAN COLUT SOL250ML  SIEGFRIED 00002094800001309301906168430206280180
A027600652CA 1132BEXIDENT TRICLOSAN       TUB75ML   SIEGFRIED 00001698300001061401906168430206280197
A027600642CA 1132BEXIDENT ENCIAS 0.20     SPR40ML   SIEGFRIED 00003059500001912201906168430206280272
A027600602CA 1132BEXIDENT ENCIAS GEL 0.20 TUB50ML   SIEGFRIED 00002370700001481701906168430206280289
A110300151CA 1134BRISTAFLAM 100MG POLVO   SOB20     ALMIRALL D00004168500002658801906168430308002253
A110300032CA 1134BRISTAFLAM CREMA         TUB60G    ALMIRALL D00002717800001778301906168430308015109
A110300121CA 1134ALMAX MASTICABLE 500MG   TAB30     ALMIRALL D00001689500001084301906168430308259510
A110300112CA 1134ALMAX 1G/7.5ML           SOL225ML  ALMIRALL D00002268000001455801906168430308320517
A110300131CA 1134PEMIX 1MG                SOB30     ALMIRALL D00003733600002396701906168430308413516
A110300141CA 1134EVASTEL 20MG             COM10     ALMIRALL D00003699400002420501906168430308624516
A003100272CA 1134HARTMAN BAXTER (RINGER)  SOL250ML  BAXTER    0000018620000013580190616786759223227 
A003100282CA 1134HARTMAN BAXTER (RINGER)  SOL500ML  BAXTER    0000034170000018280190616786759223234 
A033900222CA 1134ARIMIDEX 1MG             COM28     ASTRAZENEC00030350000025410001906167501324403711
A033900292CA 1134CASODEX 150MG            CAP28     ASTRAZENEC00055020000046060001906167501324472137
A033900282CA 1134CASODEX 150MG            CAP14     ASTRAZENEC00027520000023040001906167501324472144
A079400841CA 1134EUTIROX 150MCG           TAB50     MERCK     00005653300003639001906167501298210766
A121700012CA 1132SKINCAP                  SHA150ML  CHEMINOVA 00005220000004090001906168470000478949
A103101331CA 1134VIRAZIDE GOTAS           FCO15ML   LOGISTICA 000012862000010013019061675004958     
A103100571CA 1134ESPACIL SIMPLE           GOT15ML   LOGISTICA 000018148000014788019061675004972     
A003501221CA 1134CLIMENE                  GRA21     BAYER DE M00006730000005003501906167896116861559
A090600011CA 1134POSTINOR 2 1.5MG         TAB1      GEDEON RIC00001500000000839001906167501590211232
A115301551CA 1134FLEET PHOSPHO SODA S/SABOSOL45ML   TAKEDA MEX0000220000000143920190616301320005011 
A115301641CA 1134FLEET ENEMA ADULTO       SOL133ML  TAKEDA MEX0000115000000075230190616301320010206 
A115301651CA 1134FLEET PHOSPHO SODA JENGIBSOL45ML   TAKEDA MEX0000220000000143920190616301320065015 
A003701012CA 1132AGUJA DESCH PRECIS 22X32 BLI1      BECTON DIC0000002130000001400190616382903000814 
A051300022CA 1132DERMACROM                LOC120ML  GALDERMA M00002844800002275901906167502003560107
A051300122CA 1132KAPPA ELASTIN            CRE60G    GALDERMA M00003965500003172401906167502003560213
A097200111CA 1134PROMOTION 15MG           TAB10     FARMACEUTI00002720000002148801906167502003386226
A114500041CA 1134VIVIOPTAL 40/35/10MG     CAP90     BOMUCA    00008336100006655501906167501587010497
A074100441CA 1134DOXIUM 500MG             CAP30     GRUNENTAL 00005930800004744701906167502209290181
A120802572CA 1134GOICOTABS                TAB20     GENOMMA LA0000109900000094980190616650240013669 
A003100192CA 1134CLORURO SODIO 0.9 BAXT   SOL250ML  BAXTER    0000018620000013580190616786759213228 
A003100202CA 1134CLORURO SODIO 0.9 BAXT   SOL500ML  BAXTER    0000034170000018280190616786759213235 
A003100182CA 1134CLORURO SODIO 0.9 BAXT   SOL1000ML BAXTER    0000056210000021140190616786759213242 
A019903241CA 1134PISAURIT 20MG            CAP14     LABORATORI00002975600002517201906167501125123252
A111700192CA 1134NOVO HERKLIN 2000 5      CRE60G    ARMSTRONG 00000910000000589701906167501089810359
A026800852CA 1134LOTRIMIN AF              AER100G   BAYER DE M00000970500000575901906167501050630023
A095300462CA 1134NAN 1                    LAT350G   MARCAS NES00001076900000919001906167501059235243
A095300482CA 1134NAN 2                    LAT350G   MARCAS NES00001006000000834001906167501059235250
A095300472CA 1134NAN 1 BULLET             LAT800G   MARCAS NES00002281700001949001906167501059235298
A003100472CA 1134DIANEAL DEXT 1.5 GEMELA  BSA2LT    BAXTER    0000093590000073700190616786759249968 
A003100482CA 1134DIANEAL DEXT 4.25 GEMELA BSA2LT    BAXTER    0000093590000073700190616786759249982 
A110200191CA 1134EPAQ 5 APLICADORES VAG   GEL40G    MORE PHARM0000396000000269280190616891671002161 
A110200231CA 1134MINITRAN 18MG ( 5MG/24H) PAR10     MORE PHARM0000573000000389640190616891671002215 
A110200081CA 1134NORFLEX PLUS             TAB50     MORE PHARM0000433000000294440190616891671002277 
A075501071CA 1134AVODART 0.5MG            CAP90     GLAXOSMITH00020608400014008401906167501043195713
A075501081CA 1134SERETIDE DISKUS 50/100MG POL60DOSISGLAXOSMITH00012895400008765501906167501043100830
A140400011CA 1134LIBERTRIM SII 100/37.5MG COM20     PRODUCTOS 00002598500002130801906167501070903688
A136600091CA 1134DESLIBAL 5MG             TAB30     SANDOZ    00004995200004070201906167502216931763
A093200281CA 1134SUPRADOL SUBLINGUAL 30MG TAB2      PROMOTORA 00000940000000625101906167501299306123
A017000851CA 1132SENEX 3 1.5G             SOB30     PRODUCTOS 00005890500004624101906167501293201646
A140400021CA 1134REPAFET 10MG             TAB20     PRODUCTOS 00005280000004329701906167501124180201
A079401251CA 1134HEALCREM 35G             CRE50G    MERCK     00001637000000983101906167501298218700
A075501121CA 1134SERETIDE 120 DOSIS 11 25/AER       GLAXOSMITH00014004900009519701906167501043100861
A075501131CA 1134SERETIDE EVOH 25/50MCG   AER120DS  GLAXOSMITH00013306200009044801906167501043100854
A107700402CA 1134CONAZOL                  CRE40G    PROMOTORA 00000890000000591801906167501299303061
A107900202CA 1134CONAZOL K CREMA          TUB30G    PROMOTORA 00000670000000445601906167501299303078
A003200112CA 1134TABCIN                   TAB12     BAYER DE M00000302800000200601906167501008485316
A003201212CA 1134TABCIN 500               TAB12     BAYER DE M00000345000000228501906167501008485408
A003200802CA 1132MERTHIOLATE BLANCO       SOL60ML   BAYER DE M00000382200000253201906167501008486528
A003201382CA 1132MERTHIOLATE ATOMIZ BLANCO   60ML   BAYER DE M00000524200000347301906167501008486559
A003201402CA 1132MERTHIOLATE ROJO         SOL60ML   BAYER DE M00000382200000253201906167501008486566
A003200722CA 1134CEVALIN 500MG            TAB100    BAYER DE M00001686700001117401906167501008465653
A024500262CA 1132TRANSPORE NEXCARE 1.25X9 BLI1      3M MEXICO 00000439000000405701906167501023105558
A024500292CA 1132NEXCARE COMPRESA FRIOCAL    10X25CM3M MEXICO 00000819000000778401906167501023105589
A024500402CA 1132NEXCARE VENDA COBAN PIE  BLI7.5X4.53M MEXICO 00000553300000507001906167501023106128
A024900571CA 1134ROCEPHIN IM 1G (A)       AMP       PRODUCTOS 00007330000004911101906167501009007401
A024900601CA 1134ROCEPHIN IV 500MG (A)    AMP       PRODUCTOS 00003720000002492401906167501009007418
A024900591CA 1134ROCEPHIN IV 1G (A)       AMP       PRODUCTOS 00006810000004562701906167501009007425
A098100181CA 1134VALIUM 10MG (C)          COM20     PRODUCTOS 00003420000002291401906167501009009269
A132800421CA 1134BREDELIN 500MG (A)       TAB7      LABORATORI00006050000004338101906167501314701612
A132800171CA 1134FOSFOCIL IM 1G (A)       AMP       LABORATORI00001350000000968101906167501314701711
A132800161CA 1134FOSFOCIL IM 0.5G (A)     AMP       LABORATORI00001000000000717001906167501314701728
A132800181CA 1134FOSFOCIL IV 1G (A)       AMP       LABORATORI00001500000001036001906167501314701735
A132800151CA 1134FOSFOCIL (A)             SUS60ML   LABORATORI00002350000001685201906167501314701742
A132800401CA 1134FOSFOCIL 500MG (A)       CAP6      LABORATORI00002650000001830201906167501314701759
A003500791CA 1134AMOBAY 500MG (A)         CAP15     BAYER DE M00001330000000988801906167501318657304
A003201911CA 1134AMOBAY CL 400/57MG (A)   SUS70ML   BAYER DE M00002660000001977701906167501318657526
A107900172CA 1134CICLOFERON PIEL          TUB2G     PROMOTORA 00000670000000445601906167501299303085
A132800071CA 1134DIMEGAND                 JBE60ML   LABORATORI00003450000002473801906167501314703647
A132800021CA 1134DIMEGAN 10MG             CAP10     LABORATORI00002850000002043601906167501314703753
A132800011CA 1134DIMEGAN 10MG             CAP20     LABORATORI00004550000003262501906167501314703760
A132800441CA 1134DIMEGAN PED              SOL30ML   LABORATORI00002200000001577501906167501314703777
A132800031CA 1134DIMEGAN                  JBE60ML   LABORATORI00002800000002007701906167501314703784
A132800341CA 1134RAPIX 30MG/2ML           AMP3      LABORATORI00002500000001792601906167501314703814
A132800331CA 1134RAPIX 10MG               CAP10     LABORATORI00001850000001326601906167501314703821
A024500482CA 1132TRANSPORE NEXCARE 2.5X9.1BLI1      3M MEXICO 00000526600000486901906167501023108191
A091600752CA 1132ENSURE PLUS FRESA SINGLESBOT237ML  ABBOTT LAB00000519000000451501906167501033954139
A000301531CA 1134KLARICID OD 500MG (A)    TAB10     ABBOTT LAB00008262000005263701906167501033921285
A000301601CA 1134EPIVAL SPRINKLE 125MG    CAP60     ABBOTT LAB00005886000003750001906167501033921292
A012300832CA 1132AXEL CONTROL AZUFRE      JAB125G   GRISI HERM00000377700000253801906167501022101896
A012300862CA 1134AXEL CONTROL AZUFRE      CRE20G    GRISI HERM00000497800000334501906167501022101780
A093500321CA 1134AZOMYR 5MG               TAB30     LABORATORI00007610000005327001906167501050620659
A093500311CA 1134AZOMYR 50MG              JBE120ML  LABORATORI00004110000002877001906167501050607643
A120801722CA 1134BENGUE ULTRA AZUL        GEL35G    GENOMMA LA0000067500000058330190616650240010507 
A094100291CA 1134ADCOL 0.40G ADULTO       CAP10     LABORATORI00001120000000879201906167501086300891
A110502841CA 1134AMARYL M 2MG/1000MG      TAB16     SANOFIAVEN00006321100004411301906167501165005822
A112500292CA 0134BRONCOLIN PLUS           JBE240ML  BRONCOLIN 0000144740000115790190616714706901003 
A112500012CA 1134BRONCOLIN                JBE140ML  BRONCOLIN 0000071030000056830190616714706100307 
A112500142CA 1134BRONCOLIPTOS             JBE250ML  BRONCOLIN 0000083470000066770190616714706400209 
A020401582CA 1132NATURELLA F MODERADO ALASBOL10     COMPANIA P00000158800000142901906167501001157296
A020401562CA 1132NATURELLA F ABUND C/A    BOL14     COMPANIA P0000034120000030720190616037000394969 
A020401592CA 0132NATURELLA F MODERADO ALASBOL14     COMPANIA P0000033630000029640190616037000394945 
A091700372CA 1134PEDIALYTE 30 CZA CALOR   SOL500ML  ABBOTT LAB00000307000000261301906167501033956638
A012101331CA 1134SOFTRAM C 1MG/3MG OFT    GOT5ML    LABORATORI0000505270000300090190616008400005236 
A012101341CA 1134SOFTRAM OFT 1MG          GOT5ML    LABORATORI0000292480000180330190616008400005243 
A115500052CA 1132ALCOHOL SWABS BD         CAJ100    BECTON DIC0000147070000095580190616382906899033 
A120802481CA 1134TUKOL D AD               JAR125ML  GENOMMA LA0000062000000053580190616650240010712 
A120802342CA 1134SHOT B GS                CAP30     GENOMMA LA0000089000000076910190616650240011177 
A027600081CA 1134ENALADIL 10MG DUAL 11    TAB30     SIEGFRIED 00006810000004256301906167501300408884
A027600831CA 1134CEFURACET 250MG (A)      SUS50ML   SIEGFRIED 00004670000002918801906167501300409010
A027600851CA 1134CEFURACET 500MG (A)      TAB10     SIEGFRIED 00005150000003218801906167501300409034
A003501081CA 1134OPTOCEF 250MG (A)        SUS75ML   BAYER DE M00002570000001910701906167501318606227
A003500171CA 1134BINOTAL 1.0G (A)         COM12     LAKESIDE S00001653600001354101906167501318606784
A003501001CA 1134ACTRON 400MG             CAP10     BAYER DE M00000830000000617101906167501318608900
A003500991CA 1134ACTRON 200MG             CAP10     BAYER DE M00000550000000409601906167501318608924
A003501021CA 1134ACTRON 600MG             CAP10     BAYER DE M00000890000000661601906167501318609020
A003500771CA 1134AVELOX 400MG (A)         TAB5      BAYER DE M00005640000004193001906167501318610798
A102000781CA 1134JANUMET 50/500MG         COM56     MERCK SHAR00012031600009625301906167501326004190
A102000791CA 1134JANUMET 50/850MG         COM56     MERCK SHAR00012171000009736801906167501326004947
A102000801CA 1134JANUMET 50/1000MG        COM56     MERCK SHAR00012176000009740801906167501326004954
A102000691CA 1134HYZAAR 100/12.5MG        TAB15     MERCK SHAR00008333100006666501906167501326007320
A102000701CA 1134HYZAAR 100/12.5MG        TAB30     MERCK SHAR00014114900011291901906167501326007368
A102000551CA 1134VYTORIN 10/10MG          TAB28     MERCK SHAR00012083700009667001906167501326008396
A079400251CA 1134DENVAR 100MG/5ML (A)     SUS100ML  MERCK     00008306600005346901906167501298216409
A079400261CA 1134DENVAR 100MG/5ML (A)     SUS50ML   MERCK     00006231500004011201906167501298216508
A079400161CA 1134DABEX 500MG              TAB60     MERCK     00003457100002225301906167501298219509
A079400171CA 1134DABEX 850MG              TAB30     MERCK     00002887400001858601906167501298219608
A079400321CA 1134DOLO NEUROBION           TAB30     MERCK     00003479100001939101906167501298220406
A079400351CA 1134DOLO NEUROBION FORTE     TAB30     MERCK     00004689500002613701906167501298221403
A027600501CA 1134AMINOEFEDRISON NF        JAR150ML  SIEGFRIED 00002940000001837501906167501300409584
A027600351CA 1134DORIXINA F 250MG         TAB10     SIEGFRIED 00003220000002012501906167501300409713
A027600071CA 1134ENALADIL 10MG            COM10     SIEGFRIED 00001760000001100001906167501300409805
A027600091CA 1134ENALADIL 20MG            COM10     SIEGFRIED 00003040000001900001906167501300409812
A027600061CA 1134DORIXINA 125MG           TAB10     SIEGFRIED 00002120000001325001906167501300409881
A027600051CA 1134DORIXINA                 AMP5X2ML  SIEGFRIED 00001370000000856301906167501300409898
A027600861CA 1134CLENDIX 300MG (A)        CAP21     SIEGFRIED 00005670000003543801906167501300409911
A003501041CA 1134AXOL 300MG JARABE        SOL120ML  BAYER DE M00001660000001234201906167501318613737
A003501031CA 1134AXOL 30MG                CAP20     BAYER DE M00001590000001182201906167501318613805
A003500911CA 1134LEVITRA 20MG             TAB1      BAYER DE M00002840000002111601906167501318620162
A012100231CA 1134LEVODEXAN                SOL10ML   LABORATORI0000289550000187450190616008400000347 
A012100241CA 1134LEVOFENIL                SOL5ML    LABORATORI0000394530000222100190616008400000354 
A012100261CA 1134NEOBACIGRIN              SOL5ML    LABORATORI0000392200000241810190616008400000361 
A012100281CA 1134NEOBACIGRIN              UNG5G     LABORATORI0000340970000210220190616008400000378 
A019501311CA 1134LOPID 600MG              TAB14     PFIZER    00007794600006235701906167501057002168
A120100112CA 1134CALADRYL                 LOC180ML  LOGISTICA 00001035300000773301906167501057005312
A093500451CA 1134CEDAX 400MG (A)          CAP10     MERCK SHAR00010730300008584201906167501050615112
A026800712CA 1132MEXSANA LADY TALCO       BOT160G   BAYER DE M00000437400000289801906167501050615617
A093300302CA 1134BIOMETRIX AOX            CAP30     BAYER DE M00002901400001006201906167501050616638
A093500301CA 1134AVIANT GOTAS 50 MG       FCO60ML   MERCK SHAR00003554300002843501906167501050616942
A093500291CA 1134AZOMYR GOTAS 50MG        FCO60ML   LABORATORI00003830000002681001906167501050616973
A026800961CA 1134DESENFRIOL D             TAB24     BAYER DE M00000567800000329101906167501050617055
A120100122CA 1134CALADRYL CLEAR           LOC180ML  LOGISTICA 00001217200000909701906167501057005848
A005000871CA 1134LIBERTRIM 50MG 5ML       AMP6      APLICACION00005280500004330101906167501070901059
A005000681CA 1134LIBERAN                  COM60     APLICACION00001717700001408501906167501070901080
A005000711CA 1134LM6                      GOT30ML   APLICACION00000878600000720501906167501070901301
A110500951CA 1134PLASIL                   GOT20ML   LABORATORI00001660000001162001906167501061014003
A110501031CA 1134RIFADIN 300MG (A)        CAP16     SANOFIAVEN00004435400003095301906167501061017004
A110501091CA 1134RIFOCYNA 1G/100ML (A)    SPR20ML   SANOFIAVEN00002827500001973201906167501061019008
A110501071CA 1134RIFATER 150/75/400MG (A) GRA24     SANOFIAVEN00005486000003828501906167501061019206
A120801092CA 0132MEDICASP SHA             BOT130ML  GENOMMA LA0000085340000073750190616650240007019 
A019501171CA 1134EPAMIN SP 250MG          AMP5X5ML  PFIZER    00007719600006175701906167501287652362
A059001532CA 1134TENALIF MIELLIM INF33    JBE200ML  NOVARTIS F00001393000001149801906167501124815660
A114900072CA 1134SPLASH TEARS GOTAS       FCO15ML   SOPHIA COM0000090260000073200190616736085405422 
A137100112CA 0132GLICOLIC CHAMPU          FCO240ML  ITALMEX   00004310000003448001906167705849004143
A060500391CA 1134XUZAL 5MG                TAB30     UCB DE MEX00007700000006044501906167501088507618
A001801011CA 1134PLENACOR LP 50/20MG      CAP10     ARMSTRONG 00003230000002093001906167501089802460
A001802601CA 1134MONOCORAT 40MG           TAB20     ARMSTRONG 00003360000002177301906167501089803108
A001802831CA 1134GANGLIOSIDE 10MG         TAB20     ARMSTRONG 00002910000001885701906167501089803337
A001802841CA 1134DIOXAFLEX DUO 50MG/4MG   TAB15     ARMSTRONG 00003880000002514201906167501089809797
A110300231CA 1134SEKISAN                  JAR120ML  ALMIRALL D00001701300001113101906168430308020059
A074200531CA 1134TREMECOX 300/7.5MG       TAB20     INLAP     00007360000005997101906167501250838458
A074200541CA 1134TREMECOX 300/15MG        TAB10     INLAP     00007430000006054201906167501250838441
A111900361CA 1134TREMEPEN                 CAP20     REPRESENTA00007279900005931901906167501250838236
A125100031CA 1134TREVISSAGE 10MG (C)      CAP30     PIERRE FAB00006900000005589001906167501088504617
A059001502CA 1134THERAFLU VERDE60         SOB10     NOVARTIS F00001215800001036501906167501124814588
A137100232CA 1132SALILEX                  BAR120G   ITALMEX   00002150000001720001906167703281003946
A115301361CA 1134VENALOT DEPOT 180/30MG   TAB30     TAKEDA MEX00004480000002930801906167501092773511
A115300301CA 1134FERRANINA COMPLEX        GRA30     TAKEDA MEX00003720000002433601906167501092772415
A115300731CA 1134PASPAT 0.2 ML (A)        AMP10     TAKEDA MEX00011910000007791501906167501092787020
A103500151CA 1134PROCTOACID TUBO APLIC    POM50G    BYK GULDEN00002030000001328001906167501092792031
A115300811CA 1134RIOPAN MASTICABLES       TAB24     TAKEDA MEX00001770000001157901906167501092793021
A115300781CA 1134RIOPAN GEL FRASCO        SUS250ML  TAKEDA MEX00002200000001439201906167501092793038
A115300801CA 1134RIOPAN GEL 10ML          SOB20     TAKEDA MEX00001890000001236401906167501092793045
A115301761CA 1134RIOPAN GEL 10ML          SOB10     TAKEDA MEX00001030000000673801906167501092793052
A115300861CA 1134VASODIL 40MG             COM24     TAKEDA MEX00003580000002342001906167501092799030
A133000281CA 1134OVESTIN                  CRE15G    ASPEN LABS00005420600003621001906167501409201270
A110501121CA 1134SECNIDAL 500MG           COM8      SANOFIAVEN00003828000002671501906167501072310217
A009801141CA 1134ZACTOS 30MG              TAB7      ELI LILLY 00006857000004673701906167501082221077
A009801151CA 1134ZACTOS 45MG              TAB7      ELI LILLY 00007358000005015101906167501082221084
A110502762CA 1134CLEXANE 80MG             INY2      SANOFIAVEN00010688500009509601906167501072350305
A109300092CA 1132ORAL B CLASICO SUAVE 35  CEP       COMPANIA P00000230100000202601906167501086494262
A109300112CA 1132ORAL B CLASICO SUAVE 60  CEP       COMPANIA P00000230600000202601906167501086494286
A031901231CA 1134AZILECT 1MG              TAB30     LEMERY    00032917500026331801906167501559601333
A110502101CA 1134APROVEL 300MG            TAB28     SANOFIAVEN00014132700009794501906167501328979311
A110502661CA 1134PRIMPERAN 10MG           TAB20     LABORATORI00001350000000945001906167501328979328
A110502431CA 1134PIRIMIR 100MG            COM24     SANOFIAVEN00001865300001301801906167501328979366
A112800052CA 1134HISTIACIL                TAB20     SANOFIAVEN00001173000000703101906167501328979380
A000801231CA 1134TRAVATAN                 SOL2.5ML  ALCON LABO00008256000006727201906167501088617553
A098000042CA 1134SOLUTINA F 5ML           SOL15ML   ALCON LABO00000831300000643901906167501088617904
A138600492CA 1132ACNAID                   JAB100G   GLAXOSMITH00001075400000844201906167501406870097
A138600512CA 1132OILATUM AROMA            JAB100G   GLAXOSMITH00001202000000943601906167501406872008
A013100191CA 1134HEMOSIN K 2ML            FAM3      LABORATORI00002650000001855001906167501385410055
A013100081CA 1134DANZEN 5MG               TAB30     LABORATORI00001910000001337001906167501385420061
A115300341CA 1134FERRANINA                SOL100ML  TAKEDA MEX00002060000001347701906167501092743026
A112700252CA 1134MELOX PLUS MENTA         SUS360ML  SANOFIAVEN00000933500000578801906167501072310378
A112700262CA 1134MELOX PLUS CEREZA        SUS360ML  SANOFIAVEN00000933500000578801906167501072310392
A110500251CA 1134BIFEBRAL                 COM12     LABORATORI00002220000001554001906167501072340030
A110500501CA 1134FLAGYL 250MG             COM30     SANOFIAVEN00000799400000557801906167501072340078
A110500521CA 1134FLAGYL 500MG             COM30     SANOFIAVEN00001494400001042901906167501072340092
A110500541CA 1134FLAGYSTATIN V            OVU10     SANOFIAVEN00003476200002425901906167501072340108
A103500102CA 1134ARBISTIN PEDIATRICO      JAR150ML  BYK GULDEN00001890000001236401906167501092774761
A115301171CA 1134TECTA 40MG               TAB7      TAKEDA MEX00004010000002623301906167501092774822
A115301181CA 1134TECTA 40MG               TAB14     TAKEDA MEX00007140000004671001906167501092774839
A115301371CA 1134ALVESCO 200MCG 6.1G      AER60DOSISTAKEDA MEX00005710000003735501906167501092776659
A133000101CA 1134MERCILON                 TAB21     LABORATORI00003070000002149001906167501409201539
A133000391CA 1134REMERON SOLTAB DISP 30MG TAB12     LABORATORI00008420000005894001906167501409201546
A133000111CA 1134METRIGEN FUERTE          AMP1ML    ASPEN LABS00002284300001525901906167501409201553
A110500531CA 1134FLAGYL V                 OVU10     SANOFIAVEN00001284300000896301906167501072340115
A110502751CA 1134FLAGYL BOLSA 500MG (A)   SOL100ML  SANOFIAVEN00001906400001696201906167501072340139
A110500491CA 1134FLAGYL 125MG             SUS120ML  SANOFIAVEN00000982900000685901906167501072340153
A031400191CA 1134ZYPREXA ZYDIS 10MG       TAB14     ELI LILLY 00018509000014229301906167501082242096
A016201322CA 0132COLLARIN LEROY CERV MED  CAJ1      LABORATORI0000158960000138290190616729513132212 
A121900602CA 1134DULCOLAX                 GRA10     BOEHRINGER00000645000000463001906167501037911183
A000801331CA 1134DUOTRAV                  SOL2.5ML  ALCON LABO00009670600007879801906167501088619557
A079400901CA 1134DEFLOX                   SUS120ML  MERCK     00002201000001416801906167501298212371
A114800161CA 1134DELTA CORTI OFT 0.5      GOT5ML    SOPHIA COM0000168970000137610190616736085148060 
A101800462CA 1134DEXTROSA 5 PISA VIDRIO   SOL500ML  LABORATORI00000545600000461501906167501125100826
A079400921CA 1134DABEX XR 750MG           TAB30     MERCK     00003532900002274101906167501298213569
A079400971CA 1134DABEX XR 750MG           TAB60     MERCK     00006240300004016901906167501298214207
A019502271CA 1134DALACIN T                SOL30ML   PFIZER    0000344360000275490190616300093116016 
A020603032CA 0132OLD SPICE DES PURE SPORT BAR60G    COMPANIA P00000323600000290101906167501001164003
A062500112CA 0134POMADA DE ARNICA            50G    PRODUCTOS 00000230200000149601906167502001631137
A062500102CA 0134POMADA DE MANZANA        TAR50G    PRODUCTOS 00000189500000123201906167502001631120
A135200052CA 1134DERMAN PVO               BOT80G    COMPANIA I0000045300000035560190616354312425014 
A103101982CA 0132DERMATIX ULTRA           TUB15G    LOGISTICA 00006386100005203601906167501122900313
A020100072CA 1134CALCID SURT FCO          PAS100    PROVENTAS 00000495000000371301906167501124311100
A020100042CA 1134CALCID SURT              PAS12X12  PROVENTAS 00000858000000643501906167501124311070
A005000541CA 1134CARNOTPRIM 15MG 12H      COM20     APLICACION00003400400002788401906167501124103484
A109300022CA 0132MACH3 CARTUCHO           BLI2      COMPANIA P0000092400000069240190616047400179240 
A129800011CA 1134DEBROMU 40MG             TAB30     A MENARINI00006730000005384001906167501385494246
A053302822CA 0132DEXERYL                  CRE250G   PIERRE FAB00001250000001100001906163282776432026
A109300392CA 1132PRO DDUTY MED COPETE     CEP1      COMPANIA P00000204400000173801906167501086472048
A071301181CA 1132ANTHELIOS DERMO PEDIAT   CRE100ML  FRABEL    00003439700002700101906163337872412752
A071301281CA 1132KERIUM DS                CRE40ML   FRABEL    00003008600002361801906163337872411793
A077100261CA 1134EBIXA 10MG               TAB56     LUNDBECK M00018690000014952001906167503003746232
A136600121CA 1134RUPILIP 20MG             TAB30     SANOFIAVEN00008657900004514401906167502216931787
A136600131CA 1134RUPILIP 10MG             TAB30     SANOFIAVEN00006111000003066401906167502216931770
A110503131CA 1134HISTIACIL NF 22.5/22.5MG CAP20     SANOFIAVEN00001387200000831401906167501165007659
A073800281CA 1134ITRAVIL AP 60MG (C)      TAB30     INVESTIGAC00005400000004266001906167501249601322
A073800291CA 1134ACXION AP 30MG (C)       TAB30     INVESTIGAC00003900000003081001906167501249605849
A110503151CA 1134PRIMACORT 1MG/1ML        AMP3X10ML SANOFIAVEN00039476600035122701906167501165007581
A017312391CA 1134PHARMATON PROTECT        CAP30     BOEHRINGER00002482700001759901906167501034635280
A017312401CA 1134PHARMATON PROTECT        CAP60     BOEHRINGER00003883300002760601906167501034635297
A130900101CA 1134EYESTIL LUB 1.5MG        GOT10ML   LABORATORI00004020000002566401906167503014492029
A012101401CA 1134LUBRIK 14MG/ML           FRA15ML   LABORATORI0000160660000099050190616008400001603 
A092700161CA 1132PRUDENCE SAB NARANJA     PZA3      DKT DE MEX00000332900000187801906167502214982507
A092700171CA 1132PRUDENCE SAB CHOCOLATE   PZA3      DKT DE MEX00000332900000187801906167502214982514
A092700181CA 1132PRUDENCE SAB MENTA       PZA3      DKT DE MEX00000332900000187801906167502214982484
A092700191CA 1132PRUDENCE ANILLOS Y PUNTOSPZA3      DKT DE MEX00000392300000216101906167502214982538
A092700201CA 1132PRUDENCE SAB MIX         PZA5      DKT DE MEX00000468100000264001906167502214982811
A075500302CA 1134TUMS SABOR MENTA         TAB75     GLAXOSMITH00000571500000320401906167501065054128
