A107900682CA 1134FACIDEX TOTAL MASTIC     TAB105    PROMOTORA 00000530000000352502605167501299307335
A096800191CA 1234LEVEMIR FLEXPEN 3ML (R)  CAJ5      NOVO NORDI00025252000020185502605167503007822307
A077100181CA 1134LEXAPRO 20MG             TAB14     LUNDBECK M00013700000010960002605167503003746287
A027600592CA 1132BEXIDENT ENCIAS COLUTORIOSOL250ML  SIEGFRIED 00002931000001831902605168430206280296
A012100671CA 1134HIPERTON 5               UNG5G     LABORATORI0000179310000110560260516008400000675 
A126302011CA 1134HIGROTON BLOCK 100/25MG  TAB28     SANDOZ    00004581500003733102605167502216930551
A126302021CA 1134HIGROTON BLOCK 50/12.5MG TAB28     SANDOZ    00002497000002034602605167502216930568
A005000891CA 1134LIBERTRIM SII            COM24     PRODUCTOS 00004057600003327302605167501070903695
A001400082CA 1134HIPOGLOS PLUS            TAR60G    INDUSTRIAS00001023000000798002605167501289511193
A001400112CA 1134HIPOGLOS                 TUB60G    INDUSTRIAS00001227500000957502605167501289511261
A019900481CA 1134ESTREPTOSULFESTREP PISA (AMP1G     LABORATORI00000336000000284202605167501125107054
A062100111CA 1134ETABUS B1                TAB15     FERRING   00001325000001040102605167503000883145
A005000141CA 1134CYCLOFEMINA              AMP0.5ML  APLICACION00001891700001551202605167501124109929
A019902941CA 1134FLUCOXAN 150MG 2X1       CAP1      LABORATORI00003071300002598202605167501125101960
A074100331CA 1134ZALDIAR 37.5/325MG       TAB20     GRUNENTAL 00004641800003713402605167501124763022
A019902801CA 1134GLUPROPAN 2MG            TAB15     LABORATORI00002450300002072902605167501125102479
A019902811CA 1134GLUPROPAN 4MG            TAB15     LABORATORI00004238400003585502605167501125102486
A019900921CA 1134PENISODINA 800000 (A)    AMP1      LABORATORI00000297900000252002605167501125107009
A019901941CA 1134FALOT CEFALOTINA 1G PISA AMP1      LABORATORI00000627200000530602605167501125107030
A012101071CA 1134AFAZOL GRIN NASAL        SOL15ML   LABORATORI0000085640000052800260516008400001337 
A012101091CA 1134GODEK                    SOL5ML    LABORATORI0000500810000308780260516008400001344 
A026002771CA 1134EXFORGE 5/160MG          COM28     NOVARTIS F00012290000010269302605167501094916671
A026002791CA 1134EXFORGE 10/160MG         COM28     NOVARTIS F00012370000010336202605167501094916688
A026002781CA 1134EXFORGE 10/160MG         COM14     NOVARTIS F00006500000005431302605167501094916695
A026002761CA 1134EXFORGE 5/160MG          COM14     NOVARTIS F00006460000005397902605167501094916701
A012101151CA 1134CELUNAF                  GOT15ML   LABORATORI0000272770000168170260516008400001481 
A012100742CA 1134PC GRIN USUARIO COMP     GOT10ML   LABORATORI0000057750000035610260516008400002181 
A012100981CA 1134SHEMOL 0.5               GOT15ML   LABORATORI0000123590000076190260516008400002242 
A012100791CA 1134OBRYDEX                  SOL5ML    LABORATORI0000409210000252300260516008400003218 
A125000021CA 1134HALCION 0.25MG (C)       TAB30     PFIZER    0001001750000801400260516300090017125 
A026200062CA 1134KANKA 3 OZ               SOL1      LABORATORI0000182000000116480260516041388284316 
A002401041CA 1134SYMBICORT 320/9MCG       PVO60DOSISASTRAZENEC00009240000005440002605167501098604116
A002401191CA 1134ATACAND 8MG              TAB14     ASTRAZENEC00003750000002210002605167501098604499
A027700311CA 1134MALIVAL AP               CAP28     LABORATORI00005090000003160002605167501101612282
A027700301CA 1134MALIVAL 25MG             CAP30     LABORATORI00001900000001180002605167501101614026
A027700261CA 1134GLINORBORAL COMPUESTO    TAB40     LABORATORI00006240000003870002605167501101615016
A027700901CA 1134GLIMETAL 2/1000MG        TAB16     LABORATORI00006020000003730002605167501101615856
A076802091CA 1134PAXIL CR 12.5MG          TAB10     GLAXOSMITH00005159800003507302605165050278003543
A074100272CA 1134DOXIPROCT PLUS           PDA60G    GRUNENTAL 00003174700002539702605165605709349525
A003200962CA 1134BENEXOL                  BLI30     BAYER DE M00002775700001838902605167501008409428
A003201042CA 1134REDOXON FORTE 2G         COM10     BAYER DE M00001332200000882602605167501008409503
A003201052CA 1134REDOXON LIMON 1G         COM10     BAYER DE M00000951800000630602605167501008409510
A003201072CA 1134REDOXON NARANJA 1G       COM10     BAYER DE M00000951800000630602605167501008409527
A003201092CA 1134SARIDON                  COM100    BAYER DE M00002020200001338402605167501008409534
A003201102CA 1134SARIDON                  COM20     BAYER DE M00000573200000379802605167501008409541
A003200992CA 1134BEROCCA CA Y MAG EFER    COM10     BAYER DE M00001250300000828402605167501008409572
A127200042CA 1134LECHE DE MAGNESIA NORMEX SUS360ML  QUIMICA Y 00000480000000360002605167501109760541
A127200011CA 1134COLCHIQUIM 1MG           TAB20     CONSUPHARM00000890000000667502605167501109762446
A127200032CA 1134LECHE DE MAGNESIA NORMEX SUS180ML  QUIMICA Y 00000280000000210002605167501109790029
A000302341CA 1134KLARICID IV 500MG (A)    AMP       ABBOTT LAB00007881000005021002605167501033951374
A004401622CA 1134QUESTRAN POLVO 9G        SOB50     BRISTOL MY00017050000013981202605167501095435010
A026001681CA 1134MIFLONIDE 200MCG         CAP30     NOVARTIS F00002470000002063702605167501094914103
A122000021CA 1134ALUPENT 1ML              AMP5      BOEHRINGER00001449000001039602605167501037900576
A076300531CA 1134TARKA 180MG/2MG          TAB30     ABBOTT LAB00012094000007705102605167501033953576
A000302381CA 1134KLARICID OD 500MG (A)    TAB14     ABBOTT LAB00010998000007006802605167501033953897
A004401632CA 1134QUESTRAN POLVO 9G        SOB10     BRISTOL MY00004550000003731102605167501095435027
A121800581CA 1134ATROVENT 10ML            AER1      BOEHRINGER00007847400005610502605167501037901030
A121800601CA 1134BERODUAL SUSP 100MG      AER14G    BOEHRINGER00009050800006495502605167501037905069
A121900112CA 1134LAXOBERON                COM20     BOEHRINGER00001456600001041302605167501037945010
A121800951CA 1134FLURINOL 20MG            TAB20     BOEHRINGER00006908000004958402605167501037945058
A121801171CA 1134MOBICOX 7.5 MG           COM14     BOEHRINGER00006083700004359802605167501037946031
A127200052CA 1134LECHE DE MAGNESIA NORMEX SUS60ML   QUIMICA Y 00000160000000120002605167501109790739
A094800251CA 1134ZUNUN 500 MG             TAB30     SUN PHARMA00014690000011531702605167503006916571
A138400001CA 1132KITOSCELL                GEL30G    CELL PHARM00006853500005543802605167502224228763
A138400011CA 1132KITOSCELL                GEL90G    CELL PHARM00016629300013451402605167502224228787
A003501661CA 1134ACTRON INF 120 ML        SUS120 ML BAYER DE M00001080000000803102605167501318661110
A129201422CA 1132DUODERM CGF 20 X 30 CM   APO       BOSTON MED0002390130002025640260516768455106707 
A111700282CA 1132NOVO HERKLIN 2000 PEINE  PZA1      ARMSTRONG 00002900000001879202605167501089810465
A130200231CA 1134ONYRIC 60MG/ML           FRA80ML   FERRER THE00003050000002290002605167503007704689
A091601172CA 1132PEDIASURE PLUS CHOCOLATE BOT400G   ABBOTT LAB00002741000002384702605167501033957215
A132800461CA 1134LACTULAX 10G/15ML        SOB       LABORATORI00002900000002079402605167501314704989
A079401181CA 1134EUTIROX 200 MCG          TAB50     MERCK     00006490700004178102605167501298217901
A130200221CA 1134FISIOFER 40MG/15ML       FRA10     LABORATORI00002370000001900002605167503007704504
A127900081CA 1134ACXION 30MG (C)          TAB30     INVESTIGAC00003700000002923002605167501249605818
A107900862CA 1134CICLOFERON XTRM CRE 2 G  TUB       PROMOTORA 00000710000000472202605167501299355039
A009801441CA 1134CIALIS 5MG               TAB28     ELI LILLY 00023643000015766402605167501082242409
A080400151CA 1134VALDOXA 25 MG            COM14     BECKMAN LA00007876600004920002605163594450700438
A080400141CA 1134VALDOXA 25 MG            COM28     BECKMAN LA00015753400009850002605163594450700421
A067700202CA 1132OPTIFREE REPLENISH       SOL120ML  ALCON LABO00001160900000873402605167501088619656
A114800721CA 1134GAAP OFTENO              GOT3ML    SOPHIA COM0000731950000596420260516736085402346 
A114800691CA 1134TRAZINAC OFTENO 3/1MG    GOT5ML    SOPHIA COM0000474060000386240260516736085400953 
A077100071CA 1134SEROPRAM 20MG            TAB14     LUNDBECK M00011100000008880002605167503003746010
A098100091CA 1134LEXOTAN 6MG (C)          TAB30     PRODUCTOS 00006470000004334902605167501009004585
A098100021CA 1134DORMICUM 50MG (C)        AMP5      PRODUCTOS 00039430000026418102605167501009052814
A098100121CA 1134RIVOTRIL 0.5MG (C)       COM30     PRODUCTOS 00003410000002284702605167501009070948
A031400171CA 1134ZYPREXA IM 10MG          FAM2ML    ELI LILLY 00002942500002125902605167501082212129
A031400131CA 1134EVISTA 60MG              TAB28     ELI LILLY 00013965000010080602605167501082224214
A076300661CA 1134TEOLONG 100MG            CAP20     ARMSTRONG 00001825000001162702605167501285600334
A019501811CA 1134ALDACTONE 100MG          TAB30     PFIZER    00013917000011133602605167501287621009
A019501711CA 1134CELEBREX 200MG           CAP10     PFIZER    00007456500005592402605167501287624505
A019501291CA 1134LIPITOR 10MG             TAB20     PFIZER    00005779200004334402605167501287652744
A077100021CA 1134CLOPIXOL DEPOT 200MG     AMP1ML    LUNDBECK M00014570000011656002605167503003746065
A077100061CA 1134FLUANXOL DEPOT 20MG      AMP1      LUNDBECK M00008650000006920002605167503003746089
A077100111CA 1134LEXAPRO 10MG             TAB14     LUNDBECK M00008520000006816002605167503003746119
A077100101CA 1134LEXAPRO 10MG             TAB28     LUNDBECK M00016030000012824002605167503003746126
A077100091CA 1134EBIXA 10MG               TAB28     LUNDBECK M00010540000008432002605167503003746133
A077100121CA 1134EBIXA 10MG               TAB14     LUNDBECK M00005650000004520002605167503003746225
A005500301CA 1134MELADININA               TAB30     PRODUCTOS 00001663200001100002605167501088542855
A019502531CA 1134DEPOMEDROL               F A2ML    PFIZER    00002597600002078102605167501142925150
A026100411CA 1134POSIPEN 250MG (A)        CAP20     LABORATORI00003080000002156002605167501070634759
A110502722CA 1134CLEXANE 20MG             INY2      SANOFIAVEN00004214200003749402605167501072350213
A110502732CA 1134CLEXANE 40MG             INY2      SANOFIAVEN00007910600007038202605167501072350220
A110502742CA 1134CLEXANE 60MG             INY2      SANOFIAVEN00010566200009400502605167501072350299
A111000041CA 1234LANTUS 100UI/ML VIAL (R) FAM10ML   SANOFIAVEN00014646200010221202605167501165002937
A125000011CA 1134HALCION 0.125MG (C)      TAB30     PFIZER    0000618310000494650260516300090010072 
A125000051CA 1134TAFIL 0.50MG (C)         TAB30     PFIZER    0000480370000384300260516300090055097 
A125000111CA 1134TAFIL 2MG (C)            TAB30     PFIZER    0001180820000944650260516300090094119 
A093500541CA 1134METICORTEN 20MG          TAB30     ASPEN LABS00004653800003108802605167501050612364
A093500551CA 1134METICORTEN 50MG          TAB20     ASPEN LABS00012304700008219602605167501050612371
A093400161CA 1134ZINTREPID 10/20MG        COM28     LABORATORI00013720000009604002605167501050612395
A026800012CA 1134AFRIN AD                 SPR20ML   BAYER DE M00000756800000375002605167501050613453
A103100291CA 1134CARDISPAN                AMP5      LOGISTICA 00003220300002624002605167501123010608
A103101071CA 1134SINPEBAC 2 UNGUENTO      TUB15G    LOGISTICA 00002231700001818402605167501123017300
A110502801CA 1134TAVANIC 500MG (A)        F A100ML  SANOFIAVEN00006506200005788602605167501165002661
A110501131CA 1134SECNIDAL 900MG           SOL30ML   SANOFIAVEN00002970300002072902605167501165002739
A110500961CA 1134PROFENID 100MG           CAP20     SANOFIAVEN00004167700002908602605167501165002791
A103100851CA 1134K50                      AMP5ML    LOGISTICA 00001200700000978202605167501122964902
A103100741CA 1134FITOESTIMULINA V 6 APLIC CRE30G    LOGISTICA 00003547100002890402605167501123017454
A103101232CA 1134VANTAL PASTA DENTAL      TBO60G    LOGISTICA 00001406500001146002605167501123017713
A103101222CA 1134VANTAL GEL               TUB60G    LOGISTICA 00001685900001373702605167501123017805
A103101202CA 1134VANTAL BUCOF SPRAY       SOL30ML   LOGISTICA 00003369700002745702605167501123018024
A103101592CA 1134VANTAL BUCOFARINGEO      SOL360ML  LOGISTICA 00002048700001669302605167501123018031
A136500031CA 1134DILAR 6MG                TAB15     SYNTEX    00004840000003822602605167501124723101
A136500011CA 1134DILARMINE                TAB25     SYNTEX    00003100000002449002605167501124723170
A136500041CA 1134DILARMINE                SUS100ML  SYNTEX    00002900000002291002605167501124723217
A019902831CA 1134ONEMER 10MG              TAB10     LABORATORI00000999600000845702605167501125102929
A026001231CA 1134FLOTAC 140MG             CAP20     NOVARTIS F00006990000005840702605167501124810474
A026001661CA 1134ZELMAC 6MG               COM30     NOVARTIS F00011870000009918402605167501124810863
A059000352CA 1134SENOKOT REGULAR 8.6MG    TAB60     NOVARTIS F00001437000001186202605167501124810900
A031001241CA 1134COMENTER 15MG            TAB10     ASOFARMA D00004800000003264802605167730979095464
A019504171CA 1134CENTRUMGENDER HOMBRES    TAB60     PFIZER    00002364800001880002605167501287675101
A140700251CA 1134MOVIDUAL GEL 50/500MG    TUB60G    INLAP     00003930000003202202605167502261161283
A093200901CA 1134EVEREST GRANULADO 4MG    SOB20     PROMOTORA 00003960000002633402605167501299345009
A129900321CA 1134MICROPALCM               GEL30G    GLENMARK P00007967200006294102605168904091104475
A094000921CA 1132REBIOT E 7               FRA10ML   LABORATORI00002829000002121802605167501086301546
A094000931CA 1132CETOLAN 30               SOB7G     LABORATORI00012751200009563402605167501086301560
A014001421CA 1132UMBRELLA PLUS 50         EMU120G   ITALMEX   00004490000003592002605167703281001447
A096800261CA 1234RYZODEG FLEXTOUCH (R)    PLP5X3ML  NOVO NORDI00026039400020814902605167503007822659
A096800271CA 1234RYZODEG FLEXTOUCH (R)    PLP3ML    NOVO NORDI00005450200004356702605167503007822642
A095800211CA 1134FEMELLEONE 30MG          COM1      LABORATORI00001980000001580002605167502235760146
A074100821CA 1134SOLORO 7 10MG (C)        PAR2      GRUNENTAL 00007193900005755102605167502209290839
A074100811CA 1134SOLORO 7 5MG (C)         PAR2      GRUNENTAL 00005092600004074102605167502209290822
A110504091CA 1132SYNVISC ONE              JGP6ML    SANOFIAVEN00078418400071126502605167502244510091
A012201761CA 1132RICITOS DE ORO TOALLI BIOUNI64     GRISI HERM00000246300000180002605160037836040313
A012201771CA 1134FOLCRESS 5 2X1           FCO60ML   GRISI HERM00006077500003926102605167501022101933
A012201781CA 1132RICITOS DE ORO TOALL AVENUNI64     GRISI HERM0000024630000018000260516037836040320 
A027601771CA 1134POLYVISOL                SOL50ML   SIEGFRIED 00001930000001206302605167501300407290
A009801621CA 1134CYMBALTA 30MG            CAP28     ELI LILLY 00016645000011631702605167501082243376
A031001251CA 1134EUTEBROL 20MG            TAB30     ASOFARMA D00016100000010950702605167730979095341
A031001261CA 1134EUTEBROL 20MG            TAB20     ASOFARMA D00012250000008332002605167730979095334
A026101781CA 1134DIMODAN 100MG            CAP20     LABORATORI00002200000001540002605167501070648640
A014001431CA 1134MINOPAC 50MG (A)         TAB24     ITALMEX   00004060000003329202605167501390913084
A014001441CA 1134PROALID 1 MG             UNG15G    ITALMEX   00004170000003419402605167501390912803
A014001451CA 1134PROALID 0.3MG            UNG15G    ITALMEX   00002780000002279602605167501390912827
A014001461CA 1134MINOPAC 100MG (A)        TAB12     ITALMEX   00004060000003329202605167501390913091
A093200911CA 1134EVOCS III 750MG (A)      TAB7      PROMOTORA 00005830000003876902605167501299330371
A017312891CA 1134JARDIANZ 25MG            TAB10     BOEHRINGER00004596400003252702605167501034605092
A017312901CA 1134JARDIANZ 10MG            TAB30     BOEHRINGER00011492100008132502605167501034600196
A030501531CA 1134SMA SIN LACTOSA GOLD     BTE400G   WYETH     00003037200002357802605167502253072078
A030501551CA 1134SMA GOLD 1               BTE900G   WYETH     00004516800003506602605167502253071804
A030501561CA 1134PROMIL GOLD 2            BTE900G   WYETH     00004145300002977102605167502253071972
A030501581CA 1134PROGRESS GOLD 3          BTE400G   WYETH     00001546300001110602605167502253072016
A027601781CA 1134DALVEAR ADUL FRESA 300/16JBE200ML  SIEGFRIED 00002220000001387502605167501300408037
A138700221CA 1132VITANOIN INTENSIVE       CAP30     PANME     00006336200004973902605167501124181918
A019504181CA 1134CENTRUMGENDER MUJERES    TAB60     PFIZER    00002364800001880002605167501287675156
A095800221CA 1134GINORELLE 20             COM28     LABORATORI00003050000002440002605167502235760153
A144600021CA 1134IVEL 250/60MG            TAB30     UP PHARMA 00003000000002400002605167506334400026
A145600011CA 1134OXYCONTIN 10MG (E)       TAB30     MUNDIPHARM00011120000009563202605167506359900020
A145600021CA 1134OXYCONTIN 20MG (E)       TAB30     MUNDIPHARM00020985000018047102605167506359900037
A145600031CA 1134OXYCONTIN 40MG (E)       TAB30     MUNDIPHARM00029095000025021702605167506359900044
A030501591CA 1134SMA GOLD 1               BTE400G   WYETH     00002179000001691702605167502253071521
A030501601CA 1134PROGRESS GOLD 3          BTE900G   WYETH     00003186800002288702605167502253072023
A030501611CA 1134PROMIL GOLD 2            BTE400G   WYETH     00002073700001489402605167502253071965
A053302971CA 1134LYSTEDA 650MG            TAB30     PIERRE FAB00007390000006021502605167503000883527
A071301571CA 1132LIPIKAR BAUME AP         BOT200ML  FRABEL    00003439700002700102605163337872418587
A071301581CA 1132LIPIKAR SYNDET           BOT400ML  FRABEL    00003612100002835502605163433422407350
A073800371CA 1134POSTDAY UNIDOSIS 1.5MG   COM1      INVESTIGAC00001500000001185002605167501249606778
A145900011CA 1134ARAHKOR 60MG             TAB20     ESPECIFICO00005126000003410002605167501701400562
A071301601CA 0132LA ROCHE POSAY PIGMENTCLATUB40ML   FRABEL    00004301700003376902605163337872414176
A144100101CA 1132ENTEREX VAINILLA POLVO   BTE400G   VIINC     0000232780000172750260516612197122009 
A144100111CA 1132ENTEREX FRESA POLVO      BTE400G   VIINC     0000232780000172750260516612197122207 
A144100121CA 1132ENTEREX VAINILLA LIQUIDO BTE237ML  VIINC     0000046190000029920260516612197211000 
A144100131CA 1132ENTEREX FRESA LIQUIDO    BTE237ML  VIINC     0000046190000029920260516612197222204 
A141300131CA 1132VITACILINA BEBE JABON NEUBAR80G    COMPANIA I00000128000000108902605167502250340248
A026101701CA 1134AZANTAC 150MG            TAB20     LABORATORI00001150000000782002605167501070618773
A001803311CA 1134ZYRTEC 10MG              TAB7      ARMSTRONG 00001460000000946102605167501089803443
A079401731CA 1134DABEX XR 1000MG          TAB30     MERCK     00003706400002385802605167501298217130
A051200821CA 1132CETAPHIL DAYLONG FPS 50 LTUB100ML  GALDERMA M00003862100003089702605167612076457355
A051200841CA 1132CETAPHIL DAYLONG KIDS FPSTUB150ML  GALDERMA M00004353400003482802605167612076457430
A051200881CA 1132CETAPHIL DAYLONG FPS 30  TUB30ML   GALDERMA M00002198300001758602605167612076457638
A075501351CA 1134RELVARE 30 DOSIS 200/25MCPZA       GLAXOSMITH00008870000006029302605167501043100144
A075501361CA 1134RELVARE 30 DOSIS 100/25MCPZA       GLAXOSMITH00008870000006029302605167501043100137
A071300462CA 1132LA ROCHE POS KERIUM GRASASHA200ML  FRABEL    00002629300002064002605163433422407299
A002500251CA 1134PANCLASA                 AMP5      LOGISTICA 00001519500001238202605167501188800671
A002500571CA 1134KLONAZA                  CAP20     LOGISTICA 00002829900002305902605167501188800701
A024700071CA 1134ARTRIDOL                 CAP20     REPRESENTA00006169900005091402605167501250810614
A024700081CA 1134ARTRIDOL                 CAP40     REPRESENTA00011810000009745702605167501250810621
A074200211CA 1134ARTRIDOL GEL             TUB60G    REPRESENTA00003930000003202202605167501250810645
A001000341CA 1134LUMIGAN                  SOL3ML    ALLERGAN  00008144900006889002605167501201400352
A001000382CA 1134REFRESH GEL              TUB10G    ALLERGAN  00005553800004697502605167501201400406
A001000401CA 1134ALPHAGAN P 0.15          GOT5ML    ALLERGAN  00007991100006759002605167501201400413
A001000392CA 1134REFRESH LIQUIGEL         GOT15ML   ALLERGAN  00005640300004770602605167501201400437
A001000421CA 1134ZYMAR 3.0MG              GOT5ML    ALLERGAN  00006365800005384302605167501201400482
A111900111CA 1134PLANEX 100/100MG         CAP20     REPRESENTA00005480000004465302605167501250838212
A110300041CA 1134EVASTEL 10MG             COM10     ALMIRALL D00003678200002406602605167501289500012
A110300051CA 1134EVASTEL 1MG SOL          FCO60ML   ALMIRALL D00003156500002065302605167501289500029
A131200011CA 1134AMOXICLIDE (A)           CAP20     REPRESENTA00006349900005174102605167501250810706
A119700011CA 1134ZITROFLAM 500/100MG (A)  TAB3      REPRESENTA00006260000005100702605167501250810881
A119700021CA 1134ZITROFLAM 500/100MG (A)  TAB4      REPRESENTA00006370000005190402605167501250810898
A024700102CA 1134COMPLEJO B DE RIMSA      FAM10ML   REPRESENTA00002870000002368402605167501250812519
A074200481CA 1134CARTIGEN 50 MG           CAP20     REPRESENTA00005340000004351202605167501250838359
A019501741CA 1134CELEBREX 200MG           CAP20     PFIZER    00014946100011209602605167501287624512
A019502021CA 1134CELEBREX 200MG           CAP30     PFIZER    00018487400013865602605167501287624529
A017600212CA 1132OLEODERM PLUS            CRE225ML  REPRESENTA00002877600002273302605167501273500233
A017600262CA 1132BENZADERM                JAB100G   REPRESENTA00001010200000798102605167501273500271
A133200081CA 1134SCHERIDERM               CRE15G    INTENDIS M00002871900001902702605167795320050325
A096800131CA 1234NOVORAPID PENFILL 100U (RCAR5X3ML  NOVO NORDI00013543300010826002605167503007822154
A096800141CA 1234NOVORAPID VIAL 100U (R)  FAM10ML   NOVO NORDI00008452700006756702605167503007822161
A096800151CA 1234NOVOMIX 30 FLEX PEN (R)  AMP5X3ML  NOVO NORDI00015516800012403502605167503007822222
A096800171CA 1234NOVOMIX 30FLEX PEN (R)   PZA100U/MLNOVO NORDI00003261600002607202605167503007822284
A096800181CA 1234NOVORAPID FLEX PEN (R)   PZA100U/M NOVO NORDI00003042000002431802605167503007822291
A001802751CA 1134KARET 50 MCG             COM50     ARMSTRONG 00001390000000900702605167501089803160
A001802761CA 1134KARET 100 MCG            COM50     ARMSTRONG 00002650000001717202605167501089803177
A001802391CA 1134DIOXAFLEX RAPID 65MG     SOB10     ARMSTRONG 00002990000001937502605167501089809414
A001802341CA 1134ZYPLO 60MG               GOT15ML   ARMSTRONG 00002470000001600602605167501089809421
A001802351CA 1134ZYPLO 600MG              JBE120ML  ARMSTRONG 00001800000001166402605167501089809438
A001802551CA 1134ESKAPAR COMPUESTO        CAP20     ARMSTRONG 00001890000001224702605167501089809445
A001801731CA 1134UROFLOX 200MG (A)        TAB2      ARMSTRONG 00004820000003123402605167501089809216
A001801741CA 1134UROFLOX 200MG (A)        TAB6      ARMSTRONG 00008300000005378402605167501089809223
A001801711CA 1134LOGICAL TUTTI FRUTTI     SOB2GX6   ARMSTRONG 00002410000001561702605167501089809230
A001802541CA 1134ESKAPAR COMPUESTO        SUS120ML  ARMSTRONG 00002420000001568202605167501089809315
A001802381CA 1134TRIFAMOX IBL12H 875MG (A)COM14     ARMSTRONG 00005410000003505702605167501089809384
A026001301CA 1134AROPAX 20MG              TAB20     NOVARTIS F00010950000009149602605167501094910815
A133200031CA 1134ADVANTAN                 CRE15G    BAYER DE M00004253700002818102605167795320050127
A031000661CA 1134GESLUTIN 200MG           PER15     ASOFARMA D00006200000004217002605167501871720620
A031000411CA 1134TREXEN 100MG             OVU7      ASOFARMA D00004250000002817302605167501871720637
A031000481CA 1134TREXEN DUO 100400MG      OVU7      ASOFARMA D00004500000003022302605167501871720644
A031000741CA 1134TAFIROL AC 500/50MG      TAB15     ASOFARMA D00002650000001825902605167501871720668
A031000421CA 1134TAFIROL 1G               TAB20     ASOFARMA D00002500000001657202605167501871720675
A031000581CA 1134TAFIROL FLEX             TAB30     ASOFARMA D00005950000004099602605167501871720682
A031000431CA 1134VARTALON 1.5G GDO        SOB15     ASOFARMA D00006600000004375102605167501871720583
A031000671CA 1134VARTALON COMPOSITUM      SOB30     ASOFARMA D00012000000008162002605167501871720590
A084900112CA 1132GENOVAN FPS30            SPR125ML  COSMETICOS00003039700002842102605168423372021053
A121700092CA 1134VIUSID 4G                SOB21     CHEMINOVA 00007990000006270002605168414200215508
A026002321CA 1134VOLTAREN RETARD 100MG    GRA20     NOVARTIS F00007170000005991102605167501094910396
A027601631CA 1132BEXIDENT AFT             TUB5ML    SIEGFRIED 00001301700000813602605168429420055254
A027601641CA 1134DOLAC 10MG               TAB20     SIEGFRIED 00002310000001443802605167501300407863
A071301541CA 1132LA ROCHE POSAY EFFACLAR GFRA400ML  FRABEL    00003612100002835502605163337872411991
A093200651CA 1134FLAGENASE VG 500MG/100000CAP10     PROMOTORA 00001670000001110602605167501299335031
A141400091CA 1134ALDARA 3.75 9.375MG      SOB14     MORE PHARM00014210000009662802605167502246642813
A129900281CA 1134AYTUGRE NS 120 DOSIS 50MCFRA       GLENMARK P00004320400003413102605168904091101689
A000303081CA 1134LIPIDIL 200MG            CAP28     ABBOTT LAB00009904000006309802605167501033958762
A093200681CA 1134PASTA DENTRIFIC NEDENTO TTUB       PROMOTORA 00001570000001044102605168414601746106
A093200701CA 1134ENJUAGUE NEDENTO ENCIA 0.BOT300ML  PROMOTORA 00002800000001862002605168414602714104
A142600061CA 1134INCRESINA 25MG           TAB28     TAKEDA MEX00006960000004553202605167501092720980
A142600071CA 1134INCRESINA 25MG           TAB14     TAKEDA MEX00004110000002688802605167501092721031
A021901271CA 1134ANEPIGRAN 11 25MG        TAB20     PSICOFARMA00002750000001888102605167501384544232
A021901281CA 1134ANEPIGRAN 11 100MG       TAB20     PSICOFARMA00007880000005410302605167501384544256
A003201621CA 0134CITRACAL 950MG           TAB60     BAYER DE M00001856800001230202605167501008497555
A110200251CA 0134HIPREX 1G                TAB20     MORE PHARM00006600000004488002605167502246641618
A136600141CA 0134ACC 600MG                TAB20     SANDOZ    00003481700002836902605167502216930865
A140700041CA 0134FORCEDOL 10/25MG         CAP20     INLAP     00009780000007969002605167502261160026
A140700051CA 0134FORCEDOL 10/25MG         CAP10     INLAP     00005780000004709702605167502261160019
A027301601CA 0134FLUCOGREL 75MG           TAB14     LABORATORI00005600000004015502605167501314705634
A003201641CA 0134CANESTEN V 1 DAY 500MG   OVU1      BAYER DE M00001684100001115702605167501318697409
A000302851CA 0134CREON 300MG              CAP50     ABBOTT LAB00010246000006527702605167501033957956
A000302861CA 0134CREON 300MG              CAP30     ABBOTT LAB00006834000004353902605167501033957949
A027301591CA 0134SENOVITAL 10MG           TAB30     LABORATORI00009800000007027102605167501314703548
A003201631CA 0134CITRACALD                TAB60     BAYER DE M00001889200001251602605167501008497562
A093200371CA 0134GO ORODISPERSABLE 1 50MG TAB1      PROMOTORA 00001310000000871102605167501299330104
A093200381CA 0134GO ORODISPERSABLE 50MG   TAB4      PROMOTORA 00002360000001569402605167501299330050
A027301611CA 0134ESMISEN 15/100/100/5MG   AMP1X1ML  LABORATORI00002600000001864302605167501314703951
A110300331CA 0134DIMOFLAX 0.50/200MG      CAP45     ALMIRALL D00007714700005214702605168430308001379
A017312431CA 0134PRADAXAR 11 75MG         CAP30     BOEHRINGER00016791800012032802605167501037965148
A070601351CA 1134TIRAPROB 500MG           TAB30     PROBIOMED 00008893300006981202605167502213146702
A142900031CA 1134LOXCELL JUNIOR 2.0/1.0G  SUS20ML   MDR PHARMA00000649000000519202605167502224227346
A142900041CA 1134LOXCELL PEDIA 20/10MG    SUS10ML   MDR PHARMA00000649000000519202605167502224227360
A065900971CA 1132TRIACNEAL                CRE30ML   PIERRE FAB00003801700003345502605163282779281102
A026003671CA 1134GALVUS MET 50/850MG      COM30     NOVARTIS F00005980000005314002605167501094917005
A008502741CA 1132VASO RECOLEC DE MUESTRAS BTE       DEGASA    00000032500000026702605167501048640034
A005500751CA 1134TOPSYNY 0.05/3G          GEL40G    PRODUCTOS 00003458200002350002605167501088505508
A005500761CA 1134SYNALAR C 0.01/3G        CRE40G    PRODUCTOS 00002136200001450002605167501088505461
A014001301CA 1134QUINORET FORTE 4         CRE30G    ITALMEX   00007450000006109002605167501390912780
A014001321CA 1134QUINORET                 CRE30G    ITALMEX   00006450000005289002605167501390912766
A005500771CA 1134SYNALAR NEO 0.01/0.35G   CRE40G    PRODUCTOS 00002052000001400002605167501088505423
A005500781CA 1134SYNALAR SIMPLE 0.025G    CRE20G    PRODUCTOS 00001339800000915002605167501088505454
A005500791CA 1134SYNALAR SIMPLE 0.01G     CRE40G    PRODUCTOS 00001825200001245002605167501088505447
A005500801CA 1134SYNALAR SIMPLE 0.01G     CRE20G    PRODUCTOS 00000975200000670002605167501088505430
A005500811CA 1134SYNALAR OTICO 0.25MG     GOT15ML   PRODUCTOS 00001657800001135002605167501088505485
A000801401CA 1132SYSTANE GEL 0.4          GOT10ML   ALCON LABO00004913300004003402605160300650454179
A080400161CA 1134COVERSAM 5/5MG           COM14     BECKMAN LA00005962300003730002605165391189200776
A080400171CA 1134COVERSAM 10/10MG         COM14     BECKMAN LA00005962300003730002605165391189230759
A080400181CA 1134COVERSAM 10/5MG          COM14     BECKMAN LA00005962300003730002605165391189230797
A080400191CA 1134COVERSAM 5/10MG          COM14     BECKMAN LA00005962300003730002605165391189220767
A080400201CA 1134COVERSAM 5/5MG           COM30     BECKMAN LA00011924600007450002605165391189200851
A005500821CA 1134SYNALAR NASAL 0.10MG     GOT15ML   PRODUCTOS 00001144500000778002605167501088505416
A110503791CA 1134AVALIDE 150/12.5MG       TAB28     SANOFIAVEN00009390100006507702605167501361693021
A004402981CA 1134TEMPRA 100MG             GOT30ML   RECKITT BE00000852700000725802605167501041941848
A110503811CA 0132ICY HOT 29/7.6G          FRA100G   SANOFIAVEN00000944200000571802605167501165008892
A110503821CA 1134APROVASC 300/10MG        TAB28     SANOFIAVEN00014107500009845202605167501165007819
A110503841CA 1134APROVASC 300/5MG         TAB28     SANOFIAVEN00014107500009845202605167501165007833
A003000541CA 1132ARTELAC NIGHTTIME 2MG    TUB10G    BAUSCH Y L00004769200003576902605164030571003359
A027601571CA 1134CEFURACET 7D 500MG (A)   TAB14     SIEGFRIED 00006850000004281302605167501300407207
A003201901CA 1134MYCOSPOR 1G              TUB20G    BAYER DE M00001874500001241902605167501318697287
A017312761CA 1134SIFROL ER 1.5MG          TAB30     BOEHRINGER00026092300018698802605167501037907667
A110503861CA 1132ICY HOT 5 8X12CM         PAR5      SANOFIAVEN00000941400000570102605167501165009035
A143000011CA 1134FIRSITO 10MG             TAB14     ZYDUS     00004608000002949102605168901120002580
A143000021CA 1134FIRSITO 10MG             TAB28     ZYDUS     00008760000005606402605168901120002597
A094800331CA 1134LEXCITOX 10MG            TAB14     SUN PHARMA00006090000004780702605167503006916762
A094800341CA 1134LEXCITOX 10MG            TAB28     SUN PHARMA00010890000008548702605167503006916779
A060500611CA 1134KEPPRA 100MG/ML          FRA150ML  UCB DE MEX00012730000009993102605167501088507755
A027601581CA 1134NAXEN 500MG              TAB15     SIEGFRIED 00001870000001168802605167501300407801
A000302991CA 0132ENSURE ADVANCE VAINILLA  BOT237ML  ABBOTT LAB00000583800000507902605167501033958717
A004402701CA 1134DURACEF 250MG/5ML (A)    FRA100ML  BRISTOL MY00009930000008142702605167501041940964
A140200061CA 1134PILOVAIT 1MG             TAB56     LAKESIDE S00008058100006325702605167501258209748
A129201481CA 1132DUODERM GEL              TUB3X30G  BOSTON MED0000633240000536660260516768455107063 
A082300101CA 1132AEROCHAMBER PLUS INFANT  CAJ1      AEROSOL ME0000537280000365430260516762860013476 
A051200661CA 1132CETAPHIL ANTIBACTERIAL   BAR127G   GALDERMA M00001112100000889702605167502003560527
A140700011CA 1134FORCEDOL 10/25MG         AMP2X1ML  INLAP     00005680000004628202605167502261160002
A140800011CA 1134SINEMET 250/25MG         TAB30     LABORATORI00006460000004522002605167502241941119
A024701331CA 1132ARANTOX 0.7/0.1G         FCO120ML  REPRESENTA00003080000002509702605167501250810720
A003000481CA 1132RENU FRESH LUB Y HUMEC   GOT8ML    BAUSCH Y L0000080860000056600260516310119052136 
A140400061CA 0134INFALIN DUO 3/0.25MG (A) GOT10ML   PRODUCTOS 00002692400002207802605167501124180782
A140400071CA 0134INFALIN 3MG (A)          GOT10ML   PRODUCTOS 00002554600002094802605167501124180799
A010700581CA 1134DAIVOBET 5/50MG          UNG30G    LABORATORI00008210700006445402605165702191008067
A136600321CA 1134MEGION IV 1G (A)         AMP1X10ML SANDOZ    00005169200004212002605167502216932500
A031001071CA 1134TIM ASF 25MG             TAB30     ASOFARMA D00004900000003228002605167730979092883
A031001081CA 1134TIM ASF 100MG            TAB30     ASOFARMA D00011700000007707702605167730979092869
A031001091CA 1134TIM ASF 200MG            TAB30     ASOFARMA D00012010000007911902605167730979092876
A140200261CA 0132DERMAGE JABON            FRA500ML  LAKESIDE S00004419600003469302605167501258211475
A110503521CA 1132ICY HOT 30/10PPM         TUB85G    SANOFIAVEN00001187400000719002605167501165008717
A110503531CA 1132ICY HOT 30/10PPM         TUB35.4G  SANOFIAVEN00000712500000431502605167501165008700
A073800321CA 1134IFA NOREX 50MG (C)       TAB30     INVESTIGAC00005700000004503002605167501249606068
A021901161CA 1134AMIDONE LIQUID 1G/100ML (SOL30ML   PSICOFARMA00002614700002245502605167501384501181
A002401361CA 1134VIMOVO 500/20MG          TAB30     ASTRAZENEC00005900000003470002605167501098607957
A015901041CA 1134FLEVOX 500MG (A)         TAB7      LAKESIDE S00004412800003133002605167501258211758
A015901051CA 1134FLEVOX 500MG (A)         TAB14     LAKESIDE S00005820800004132702605167501258211987
A071301501CA 1132REDERMIC HYALU C UV      CRE40ML   FRABEL    00006456900005068702605163337872413728
A071301511CA 0132EFFACLAR DERMA SENSIBLE  BAR80G    FRABEL    00001112100000873002605167899026437449
A027601461CA 0132BEXIDENT DIENTES SENS    TUB75ML   SIEGFRIED 00001413800000883602605168429420054509
A027601481CA 0132BEXIDENT ENCIAS GEL DENTRGEL75ML   SIEGFRIED 00001836200001147602605168429420008571
A027601491CA 1134UROTROL 2MG              TAB14     SIEGFRIED 00004120000002575002605167502216797475
A027601501CA 1134UROTROL 2MG              TAB28     SIEGFRIED 00007000000004375002605167502216797482
A004402951CA 1134PENTREXYL 250MG (A)      FRA120ML  BRISTOL MY00002280000001869602605168027950210206
A027601531CA 1134VENIBYK 50MG             TAB28     SIEGFRIED 00019010000011881302605167502216797420
A000302961CA 1134SIMILAC AR               BTE375G   ABBOTT LAB00002100000001890002605167501033958205
A129800071CA 1134FASTUFREM GEL 2.5/100G   GEL50G    LABORATORI00002000000001600002605168470009167677
A003201821CA 1134ASPIRINA PROTECT 100MG   TAB28     BAYER DE M00000780000000580002605167501318612655
A027601551CA 1132BEXIDENT SENS COLUTORIO  FRA250ML  SIEGFRIED 00001827600001142302605168429420006447
A017312681CA 1134BUSCAPINA 10MG           GRA24     BOEHRINGER00001693200001200902605167501037908619
A026003611CA 1134LAMISIL CREMA 2X1        CRE30G    NOVARTIS F00001026100000847302605167501124818005
A110300391CA 1134ACTIKERALL               FRA25ML   ALMIRALL D00013030000008436802605164042762020281
A002401371CA 1134VIMOVO 500/20MG          TAB10     ASTRAZENEC00002200000001300002605167501098608701
A138400101CA 1132KITOSCELL GEL 8/100G     GEL3.5G   CELL PHARM00001025900000829802605167502224228060
A002401411CA 1134SEROQUEL XR 150MG        TAB30     ASTRAZENEC00014430000008500002605165000455019966
A138400071CA 1132ACCUA ASEPTIC GEL 0.008G GEL60G    CELL PHARM00001162500000940302605167502224226424
A027601441CA 1134TAPAZOL 5MG              TAB60     SIEGFRIED 00004380000002737502605167501300408945
A027601451CA 1134VODELAN 500/100MG        TAB14     SIEGFRIED 00004930000003081302605167501300407160
A138400081CA 1132ACCUA ASEPTIC 0.008G     SOL60ML   CELL PHARM00000646600000523102605167502224221030
A010700591CA 1134DAIVOBET 5/50MG          GEL30G    LABORATORI00008210700006445402605165702191009026
A026002451CA 1134ZADITEN                  JBE100ML  NOVARTIS F00006910000005773902605167501124856601
A101800012CA 1132FLEBOTEK C/A EQ VENOCLIS BOL1      LABORATORI00000331700000280602605167501125125331
A019901101CA 1134TRACEFUSIN AMP           SOL20ML   LABORATORI00001988000001681802605167501125102950
A076802101CA 1134SERETIDE EVO CO/DO 120DOSSPR25/50MCGLAXOSMITH00008870800006029902605163393370037415
A070700272CA 1132JERINGA DL 5ML 22X32     BLI1      DENTILAB  00000048400000024202605167501128113236
A110500171CA 1134AMARYL 4MG               COM15     SANOFIAVEN00005783400004036102605167501165001770
A110500121CA 1134ALOSOL (A)               SOL20G    SANOFIAVEN00003207900002238702605167501165001800
A110500041CA 1134ACTONEL 35MG             GRA4      ACTAVIS S 00014691900009829302605167501165002883
A003900332CA 1132NIVEA BODY MILK RESECA   CRE125ML  BDF MEXICO00000208400000181302605164005808802814
A003900302CA 1132NIVEA BODY MILK NORMAL   CRE125ML  BDF MEXICO00000208400000181302605164005808803002
A016000501CA 1132ACCUCHEK ACTIVE GLUC TIRAPZA50     PRODUCTOS 00003774100003019302605164015630064519
A094000941CA 1132REBIOT I 7               FRA10ML   LABORATORI00003254500002440902605167501086301553
A027601831CA 1134LEGIONIS 2X1 40MG        TAB28     SIEGFRIED 00005970000003731302605167501300420039
A001401041CA 1132SINURESIS                BOT20ML   INDUSTRIAS00004957300003866602605167506325000037
A016000511CA 1134GLUCOPHAGE 850MG         TAB40     PRODUCTOS 00004100000002747002605167501009072577
A097200291CA 1134PERDUQUAN 10MG           TAB14     FARMACEUTI00003730000002946702605167502003385953
A097200301CA 1134PERDUQUAN 20MG           TAB14     FARMACEUTI00006530000005158702605167502003385977
A110504111CA 1134APROVASC 150/10MG        TAB28     SANOFIAVEN00011286300007876402605167501165007772
A062100581CA 1134LONACTENE RT 100 MCG/ML  SOL1ML    FERRING   00007297500005728502605167503000883879
A144600041CA 1134REMOTIV 250MG            TAB30     UP PHARMA 00003500000002800002605167506334400002
A140500321CA 1134DERNUTRAN 1MG/G          TUB30G    ISDIN MEXI00002210000001720002605168429420046566
A097200311CA 1134PERDUQUAN 10MG           TAB28     FARMACEUTI00006950000005490502605167502003385960
A097200321CA 1134PERDUQUAN 20MG           TAB28     FARMACEUTI00011380000008990202605167502003385984
A139600381CA 1134ENFAMIL PREMIUM 2        BOT237ML  MEAD JOHNS00000295900000268902605167506205807145
A139600391CA 1134ENFAGROW PREMIUM 3       BTE200ML  MEAD JOHNS00000181000000164402605167506205806872
A027601851CA 1134CEFTREX IM 3X2 1G (A)    FAM3.5ML  SIEGFRIED 00009990000006243802605167501300420053
A138700231CA 1134PROAVENAL H 1            CRE50G    PANME     00002310000001813402605167501124182328
A000303201CA 1134IRMEGLOL D 150/12.5MG    TAB14     ABBOTT LAB00003885000002214202605167501033959226
A000303211CA 1134FREPADAN 80MG            TAB28     ABBOTT LAB00008925000005048402605167501033959295
A024701581CA 1132JUVENTAGE SKIN CONTORN DEGEL18G    REPRESENTA00003870000003153402605167501250819785
A000303281CA 1134SIMILAC 3                BTE850G   ABBOTT LAB00002717000002445302605167501033958847
A001803371CA 0132AVESOP                   BAR100G   ARMSTRONG 00001800000001166402605167501089812100
A000303221CA 1134FREPADAN 40MG            TAB14     ABBOTT LAB00003675000002214202605167501033959264
A000303231CA 1134FREPADAN 80MG            TAB14     ABBOTT LAB00005260000003073002605167501033959288
A000303241CA 1134IRMEGLOL D 150/12.5MG    TAB28     ABBOTT LAB00007329000004074102605167501033959233
A000303251CA 1134FREPADAN 40MG            TAB28     ABBOTT LAB00006458000003675902605167501033959271
A027601861CA 1134FLUCISTEN 0.4MG          CAP20     SIEGFRIED 00004090000002556302605167502216797444
A001803381CA 1134MONOCORAT DEPOT 50MG     TAB10     ARMSTRONG 00002380000001542202605167501089803115
A075501531CA 1134FLIXOTIDE NEBULES 2MG/2MLAMP10     GLAXOSMITH00007087100004627402605167501043100328
A075501541CA 1134FLIXOTIDE NEBULES 0.5MG/2AMP10     GLAXOSMITH00003628500002369202605167501043100311
A075501551CA 1134MICROMYCIN 100MG (A)     CAP10     GLAXOSMITH00003947900002616902605167502264950389
A000303311CA 0132FREESTYLE OPTIUM NEO     EQP1      ABBOTT LAB0000517030000439450260516093815713616 
A016000521CA 1132ACCUCHEK PERFORMA TIRAS RPZA25     PRODUCTOS 00002713900002171102605164015630981960
A140400291CA 1134CARNOTPRIM LP 30MG       COM10     PRODUCTOS 00003270900002682102605167501124182120
A027301721CA 1134CONAGRAD 120MG           CAP30     LABORATORI00005900000004230602605167501314706273
A027301731CA 1134CONAGRAD 60MG            CAP30     LABORATORI00003700000002653102605167501314706259
A012101241CA 1134KEDROP 0.05              GOT5ML    LABORATORI0000554220000341710260516008400004628 
A020500172CA 1134PEPTO BISMOL             SUS236ML  COMPANIA P0000086850000074350260516020800753050 
A019502682CA 1132GELFOAM NO100 ESPONJA              PFIZER    0000426620000341290260516300090342043 
A027700071CA 1134CAPTRAL 25MG 11          TAB30     LABORATORI00003990000002470002605167501101640049
A027700871CA 1134SIL NORBORAL 5MG 500MG   TAB40     LABORATORI00004030000002499002605167501101642234
A002400091CA 1134IMDUR                    GRA20     ASTRAZENEC00003690000002170002605167501098610841
A002400391CA 1134LOGIMAX                  TAB14     ASTRAZENEC00004250000002500002605167501098610872
A019502351CA 1134LINCOCIN (A)             JBE100ML  PFIZER    0000248530000198820260516300090444037 
A019502371CA 1134LINCOCIN INF 300MG C/JER(AMP6X1ML  PFIZER    0000538880000431100260516300090555412 
A096600091CA 1134DALACIN C 75MG GRANU (A) SUS100ML  PFIZER    0000306980000245580260516300090760045 
A027700501CA 1134SIL NORBORAL 5/1000MG    TAB40     LABORATORI00007220000004480002605167501101643217
A027700861CA 1134SIL NORBORAL 2.5MG 500MG TAB40     LABORATORI00002950000001829002605167501101643286
A027701171CA 1134GLIMETAL LEX 2/850MG     TAB16     LABORATORI00006030000003740002605167501101649035
A027701181CA 1134GLIMETAL LEX 4/850MG     TAB16     LABORATORI00008090000005020002605167501101649097
A027701191CA 1134PREDIAL PLUS 500MG       TAB30     LABORATORI00003210000001990002605167501101649158
A027701221CA 1134PREDIAL PLUS 850MG       TAB30     LABORATORI00004410000002730002605167501101649219
A019502771CA 1134ERANZ 10MG               TAB28     WYETH     00023054400018443602605167501108715528
A016000531CA 1132ACCUCHEK PERFORMA TIRAS RPZA50     PRODUCTOS 00003901800003121402605164015630981977
A001000691CA 1132OPTIVE 30 UNIDOSIS 9.0/5.SOL0.4ML  ALLERGAN  00004569000003864502605167501201401090
A013101091CA 1134HIDEX IM 100MG           AMP3X1ML  LABORATORI00003090000002101202605167501385494475
A138700081CA 1134PERIPLUM GEL 1G          TUB30G    PANME     00002751800002160202605167501124180720
A141200041CA 1134DILAR 40MG               AMP1X2ML  NOVOPHARM 00002840000002243602605167500225625017
A001000611CA 1134LUMIGAN RC 0.1MG         FCO3ML    ALLERGAN  00007917200006696502605167501201400833
A004402761CA 1134AMIKIN 250MG (A)         FAM2X2ML  BRISTOL MY00006820000005592502605167501041941275
A013101151CA 1134PENAMOX 1G (A)           TAB12     LABORATORI00002640000001821602605167501070635114
A139900041CA 1134EDARBI 40MG              TAB28     TAKEDA MEX00007460000004880302605167502257270081
A139900051CA 1134EDARBI 80MG              TAB28     TAKEDA MEX00010080000006594302605167502257270111
A139900071CA 1134EDARBI 80MG              TAB14     TAKEDA PHA00005820000003807402605167502257270104
A009801491CA 1134REDEVANT 2MG             TAB28     ELI LILLY 00005948300004231402605167501082242461
A009801501CA 1134REDEVANT 4MG             TAB28     ELI LILLY 00006987600004970802605167501082242478
A000801361CA 0132SYSTANE ULTRA            FRA10ML   ALCON LABO00004805700003915802605160300651431681
A093200311CA 1134RADIANCE 3MG/20MCG       TAB28     PROMOTORA 00002960000001968402605167501299330029
A093200321CA 0134SENSIBIT ORODISPENSABLES TAB10     PROMOTORA 00001750000001163802605167501299330074
A000302781CA 0134DUSPATALIN 200MG         CAP14     ABBOTT LAB00003963000002524802605167501033957512
A000302791CA 0134DUSPATALIN 200MG         CAP28     ABBOTT LAB00007210000004593502605167501033957529
A000302801CA 0134DICETEL 100MG            TAB28     ABBOTT LAB00007142000004550202605167501033957574
A000302821CA 0134DUSPATALIN PEDIATRICO 1G FRA100ML  ABBOTT LAB00002580000001643702605167501033957536
A000302831CA 0134CREON 150MG              CAP50     ABBOTT LAB00005378000003426302605167501033957505
A026002861CA 1134LAMISIL 250MG            COM20     NOVARTIS F00009650000008063402605167501124813468
A111600262CA 1132EUCERIN HYALURON FILL EYECRE15ML   BDF MEXICO00002828000002460402605164005800057670
A111600252CA 0132EUCERIN HYALUR FILL NOCH TAR50ML   BDF MEXICO00003741100003254802605164005800634864
A019502211CA 1134FACTIVE5 320MG (A)       TAB3      PFIZER    00005209500004167602605167501287612069
A053300142CA 1132AVENE AGUA TERMAL        AER150ML  PIERRE FAB00001767200001555202605163282770930597
A053300152CA 1132AVENE AGUA TERMAL        AER300ML  PIERRE FAB00002327600002048302605163282770930603
A053300172CA 1132AVENE CLEANANCE GEL LIMP FCO200ML  PIERRE FAB00003094800002723402605163282770959888
A053300362CA 1132DUCRAY ELUTION           SHA200ML  PIERRE FAB00002319000002040702605163282771014623
A101800572CA 1134HARTMAN PISA PLAST       SOL500ML  LABORATORI00000534800000452502605167501125100246
A111800062CA 1134ELECTROLIT MANZANA PLASCOSOL625ML  LABORATORI00000317000000268202605167501125104343
A111800032CA 1134ELECTROLIT COCO PLASCO   SOL625ML  LABORATORI00000317000000268202605167501125104411
A019903901CA 1132AGRIFEN PARCHES INF      SOB5      MDR PHARMA00000652500000472002605167501125104626
A111800102CA 1134ELECTROLIT NJA/MAND PLASCBOT625ML  LABORATORI00000317000000268202605167501125104688
A112700342CA 1134ADEROGYL 15 ORAL 3ML     AMP5      SANOFIAVEN00001547000000884502605167501165003040
A026100581CA 1134ASTELIN NASAL            SPR       MEDAP     00004860000003863702605164019338197418
A026101761CA 1134KAMILLOSAN               CRE20G    LABORATORI00001790000001423102605164019338348254
A019903511CA 1134FLUONING 750MG(A)        TAB7      LABORATORI00004840000004094502605167501125118289
A027003081CA 1134LERTAMINE D INF          SOL60ML   BAYER DE M00003094800002033402605167501050623827
A091601062CA 1132GLUCERNA SR FRESA        BOT237ML  ABBOTT LAB00000510000000443702605167501033956140
A091601052CA 1132GLUCERNA SR VAINILLA     BOT237ML  ABBOTT LAB00000510000000443702605167501033956126
A021900651CA 1134HALOPERIL 5MG            TAB20     PSICOFARMA00002400000001647802605167501384503154
A027301491CA 1134FOSFOCIL (A)             SUS120ML  LABORATORI00003750000002688902605167501314701704
A103101941CA 1134ENI 500MG (A)            TAB14     LOGISTICA 00004572500003725802605167501123012923
A115301621CA 1134PANTOZOL 20MG            GRA14     TAKEDA MEX00004310000002819602605167501092777380
A115301631CA 1134TECTA 20MG               TAB14     TAKEDA MEX00004160000002721502605167501092777403
A002401281CA 1134VANNAIR 80/4.5MCG 120D   AER       ASTRAZENEC00006390000003760002605167501098606103
A002401291CA 1134VANNAIR 160/4.5MCG 120D  AER       ASTRAZENEC00007750000004570002605167501098606127
A111300211CA 1134STILNOX CR 12.5MG (C)    TAB28     SANOFIAVEN00011674200009573002605167501165005815
A020500832CA 1134VICK VITAPYRENA MANZANIL SOB5X5G   COMPANIA P00000664300000417802605167506195102640
A086600191CA 1134RIBOVAC GDO 500MG        SOB24     PIERRE FAB00011290000009199302605167501088588525
A006401742CA 0132COLGATE FRESKA RA           100ML  COLGATE PA00000134200000114102605167501035911062
A012101261CA 1134PRED NF OFT              SOL5ML    LABORATORI0000271040000167110260516008400001016 
A091700292CA 1134PEDIALYTE SR60 MANZANA   SOL500ML  ABBOTT LAB00000328000000279202605167501033954740
A091601022CA 1132PEDIASURE PLUS CHOCOLATE BOT237ML  ABBOTT LAB00000506000000440202605167501033956317
A005000522CA 1134RINOFREN                 SOL120ML  APLICACION00000939600000770502605167501124103552
A003902412CA 1132NIVEA ACLARADO NATURAL   ROL50ML   BDF MEXICO00000271200000236002605164005808837472
A003902402CA 1132NIVEA ACLARADO NATURAL   AER150ML  BDF MEXICO00000453200000394302605164005808829675
A003902352CA 1132NIVEA BABY PURE TOA HUM  BOL63     BDF MEXICO00000361500000314402605164005808225958
A003902372CA 0132NIVEA BABY SOFTYCARE TOA BOL63     BDF MEXICO00000361500000314402605164005808225941
A091601002CA 1132PEDIASURE PLUS VAINILLA  LAT400G   ABBOTT LAB00002741000002384702605167501033955693
A062100471CA 1134PENTASA GRANULADO 2G     SOB30     FERRING   00017020500013361102605167503000883398
A121900842CA 1134PHARMATON  40 DESC       CAP100    BOEHRINGER00004158400002922902605167501037906110
A019502941CA 1134PRISTIQ 50MG             TAB28     WYETH     00017276200013820902605167501108767893
A002401271CA 1134ATACAND 32MG             TAB14     ASTRAZENEC00009090000005350002605167501098606035
A008500852CA 0132ALGODON PROTEC PLISADO   BOL100G   DEGASA    00000218300000179602605167501048620906
A008500832CA 0132ALGODON PROTEC PLISADO   BOL300G   DEGASA    00000527900000445102605167501048621200
A008500862CA 0132ALGODON PROTEC PLISADO   BOL50G    DEGASA    00000118800000100302605167501048620807
A051300252CA 0132CETAPHIL UVA/UVB DEFE 50 FCO50ML   GALDERMA M00003465500002772402605163499320003001
A107500101CA 1234BIOYETIN 4 000UI (R)     JGP6X0.3MLPROBIOMED 00038720000022605302605167502213141844
A110502871CA 1134BIPROFENID 150MG         COM20     SANOFIAVEN00006629500004626602605167501165006362
A012300852CA 1132ACNEBAR                  JAB100G   GRISI HERM00000648900000436302605167501022150405
A111700012CA 1134ACOMEXOL 10G             TUB30G    ARMSTRONG 00000940000000609102605167501089810045
A026800792CA 1134AFRINEX EFX              TAB12     BAYER DE M00000760600000397402605167501050619943
A120800772CA 1134BENGUE ULTRA GEL         TUB35G    GENOMMA LA0000067500000058330260516650240006647 
A006402062CA 0132PALMOLIVE BRILLANTINA    LIQ52ML   COLGATE PA000001195000001017026051675001872     
A027301521CA 1134BREDELIN 750MG (A)       TAB7      LABORATORI00006800000004875902605167501314701650
A127900051CA 1134IFA LOSE 2MG (C)         TAB30     INVESTIGAC00004300000003397002605167501249605252
A002500851CA 1134IGREXA RD MASTIC         TAB100MG  LOGISTICA 00002002300001631502605167501188800800
A026800162CA 1132MEXSANA TALCO            BOT160G   BAYER DE M00000392200000259902605167501050624015
A026800172CA 1132MEXSANA TALCO            BOT320G   BAYER DE M00000586200000388402605167501050624022
A071300772CA 0132LA ROCHE POS EFFACLAR    GEL200ML  FRABEL    00003181000002497102605163337872411083
A071300721CA 1132LA ROCHE POS KERIUM ANTI BOT125ML  FRABEL    00006112100004798002605163337872411052
A059001401CA 1134LAMISIL VALUE PACK       TUB15G    NOVARTIS F00000553300000456702605167501124814984
A026002871CA 1134LAMISIL 250MG            COM10     NOVARTIS F00005820000004863102605167501124813451
A026800182CA 1132MEXSANA TALCO            BOT80G    BAYER DE M00000271200000145302605167501050624008
A121801641CA 1134MICARDIS PLUS 80MG/12.5  TAB28     BOEHRINGER00010962500007700502605167501037946246
A121801691CA 1134MICARDIS PLUS 80MG/25    TAB14     BOEHRINGER00006508200004618702605167501037946239
A102700032CA 1132MICRODACYN               SOL240ML  MORE PHARM00002440000001390802605167503006698323
A095800061CA 1134MILEVA 35                COM21     LABORATORI00003410000002730002605167502003389555
A059200032CA 0132VIDA MAGNESIO PLUS       CAP60     COYOACAN Q00001190200000892902605167501417004764
A111300071CA 1134TRANXENE 10MG (C)        CAP30     SANOFIAVEN00002306300001891102605167501328977171
A110502411CA 1134OROXADIN 100MG           CAP15     SANOFIAVEN00006296400004394102605167501328977218
A079600232CA 1134SEDALMERCK               TAB20     MERCK     00000689300000389002605167501298281209
A079600242CA 1134SEDALMERCK               TAB40     MERCK     00001214900000738902605167501298281308
A107700281CA 1134CICLOFERON 200MG         TAB25     PROMOTORA 00004860000003231902605167501299300107
A107700412CA 1134CONAZOL K 200MG          TAB10     PROMOTORA 00002250000001496302605167501299300145
A003501391CA 1134NORISTERAT               AMP1ML    BAYER DE M00002480000001843702605167501303449501
A003501171CA 1134ANGELIQ 1/2MG            COM28     BAYER DE M00006440000004787702605167501303451559
A003501582CA 1134ANDROCUR 50MG            TAB20     BAYER DE M00018800000015598702605167501303451566
A003500731CA 1134ADALAT CC 30MG           COM30     BAYER DE M00004460000003315802605167501318635135
A003500661CA 1134ADALAT CC 30MG           COM10     BAYER DE M00001670000001241602605167501318635142
A003500621CA 1134ADALAT OROS 60MG         TAB10     BAYER DE M00003140000002334502605167501318635227
A003500521CA 1134ADALAT RETARD 20MG       COM28     BAYER DE M00002600000001932902605167501318635784
A102000541CA 1134VYTORIN 10/10MG          COM14     MERCK SHAR00006037600004830002605167501326000345
A102000561CA 1134VYTORIN 10/20MG          COM14     MERCK SHAR00006641400005313102605167501326000369
A102000581CA 1134VYTORIN 10/40MG          COM14     MERCK SHAR00009520300007616302605167501326000383
A102000591CA 1134VYTORIN 10/80MG          COM14     MERCK SHAR00011353900009083102605167501326000406
A102000361CA 1134PRINIVIL 20MG            TAB30     MERCK SHAR00009222100007377702605167501326000475
A107700631CA 1134FLAGENASE 500MG          TAB30     PROMOTORA 00001140000000758102605167501299300251
A107700611CA 1134FLAGENASE 400            CAP30     PROMOTORA 00001340000000891102605167501299300275
A107700921CA 1134MUCOVIBROL 30MG          COM20     PROMOTORA 00001420000000944302605167501299300343
A107701671CA 1134SENSIBIT 10MG            TAB10     PROMOTORA 00001710000001137202605167501299300367
A107700521CA 1134ECTAPRIM F (A)           TAB14     PROMOTORA 00001560000001037402605167501299300763
A080400091CA 1134PROTOS 2 GDO             SOB28     BECKMAN LA00012864300008040002605163594456500599
A127300081CA 1134UTROGESTAN 100MG         CAP30     BESINS HEA00005910000003959702605163700039500027
A127300071CA 1134PREMASTAN                GEL80G    BESINS HEA00005730000003839102605163700039500034
A075600442CA 1132PARODONTAX FLUOR PAST       75G    GLAXOSMITH00000753100000489502605165000198281750
A051200501CA 1134SILKIS                   UNG30G    GALDERMA M00008645300006916302605163499320002028
A051200481CA 1134BENZAC AC 2.5 GEL        TUB60G    GALDERMA M00002102000001681602605163499320002394
A051200331CA 1134LOCERYL 5                SOL2.5ML  GALDERMA M00006942800005554202605163499320002523
A051300242CA 1132CETAPHIL                 SHA200ML  GALDERMA M00002327600001862102605163499320002738
A094000181CA 1134MYSOLINE 250MG           TAB50     LABORATORI00003258600002444002605167501086300129
A118300072CA 1134OXAL INF 100/400MG       SOL10ML   LABORATORI00001220000000841802605167501086300136
A118300062CA 1134OXAL JR 200/400MG        SUS20ML   LABORATORI00001220000000841802605167501086300143
A003700682CA 1132PLASTIPAK 5ML 21X32      BLI1      BECTON DIC00000071300000046202605167501073025493
A003700352CA 1132PLASTIPAK 10M 20X32      BLI1      BECTON DIC00000078700000050702605167501073025554
A003700372CA 1132PLASTIPAK 10M 21X32      BLI1      BECTON DIC00000078700000050702605167501073025585
A086600051CA 1134RIBOVAC GDO 500MG        SOB12     PIERRE FAB00008090000006591902605167501088504839
A110501911CA 1134PLAVIX 75 MG             GRA14     SANOFIAVEN00008840800006169802605167501328978994
A110502191CA 1134ENTEROGERMINA 5ML        AMP20     SANOFIAVEN00003560000002484402605167501328980119
A111300101CA 1134VICTAN 2MG (C)           COM30     SANOFIAVEN00005239400004296402605167501328980249
A118300051CA 1134OXAL                     TAB2      LABORATORI00001220000000841802605167501086301041
A094000131CA 1134FERRICOL 500MCG/30MG     TAB30     LABORATORI00003194200002395702605167501086311057
A094000151CA 1134GLOSSDERM                POM95G    LABORATORI00001519800001139902605167501086312825
A001800231CA 1134ATEMPERATOR S            SUS100ML  ARMSTRONG 00002800000001814402605167501089800077
A022100181CA 1134NEUGERON LP 200MG        TAB20     ARMSTRONG 00002910000001885702605167501089800084
A086600031CA 1134RIBOVAC                  TAB12     PIERRE FAB00008090000006591902605167501088504853
A086600081CA 1134PRIMALAN 10MG            COM14     PIERRE FAB00003790000003088202605167501088504976
A005500031CA 1134ALIN                     AMP2ML    PRODUCTOS 00000588500000385002605167501088505003
A005500541CA 1134NEURALIN                 AMP2X1ML  PRODUCTOS 00001133600000750002605167501088505126
A001800151CA 1134ANGIOTROFIN RETARD 180MG TAB10     ARMSTRONG 00003650000002365202605167501089802057
A111300051CA 1134STILNOX 10MG (C)         TAB10     SANOFIAVEN00004493200003684402605167501328979090
A111300061CA 1134STILNOX 10MG (C)         TAB30     SANOFIAVEN00011675500009574102605167501328979106
A110502141CA 1134CO APROVEL 150MG         TAB14     SANOFIAVEN00005191100003597602605167501328979113
A110502161CA 1134CO APROVEL 300MG         TAB14     SANOFIAVEN00007821200005420302605167501328979120
A021900491CA 1134SERTEX 50MG              TAB14     PSICOFARMA00004260000002924902605167501384504823
A112800092CA 1134HISTIACIL FLU            TAB20     SANOFIAVEN00000642600000224202605167501328980317
A110502011CA 1134CO APROVEL 300/25MG      TAB14     SANOFIAVEN00008212200005691402605167501328980331
A110502021CA 1134CO APROVEL 300/25MG      TAB28     SANOFIAVEN00015194900010530602605167501328980348
A005500382CA 1134SCABISAN PLUS            EMU120ML  PRODUCTOS 00000915600000588002605167501088559112
A001802771CA 1134KARET 150MCG             COM50     ARMSTRONG 00004280000002773402605167501089803184
A001800801CA 1134RECOVERON                UNG40G    ARMSTRONG 00002700000001749602605167501089804013
A001802121CA 1134RECOVERON 12G            SOB10     ARMSTRONG 00011000000007128002605167501089804082
A001802641CA 1134AUTRIN 600               GRA36     ARMSTRONG 00003950000002559602605167501089804099
A001800821CA 1134RECOVERON                CRE40G    ARMSTRONG 00002700000001749602605167501089804136
A001800831CA 1134RECOVERON NEOMICINA      UNG40G    ARMSTRONG 00003250000002106002605167501089804310
A098000012CA 1132NATURALAG                SOL15ML   ALCON LABO00001583800001226802605167501088605857
A000800421CA 1134MAXITROL                 UNG3.5G   ALCON LABO00004788300003901602605167501088606304
A000800931CA 1134MAXITROL                 SUS5ML    ALCON LABO00005580700004547302605167501088606403
A000800811CA 1134TOBRADEX                 SUS5ML    ALCON LABO00005859000004774002605167501088606908
A098000022CA 1132NATURALAG                UNG3.5G   ALCON LABO00001617000001252702605167501088607806
A000800841CA 1134TOBREX                   UNG3.5G   ALCON LABO00003394800002766202605167501088607905
A000800961CA 1134TOBREX                   SOL5ML    ALCON LABO00003878600003160402605167501088607950
A094800051CA 1134CITOX 20MG               TAB14     SUN PHARMA00005690000004466702605167503006916076
A094800061CA 1134CITOX 20MG               TAB28     SUN PHARMA00009990000007842202605167503006916083
A094800071CA 1134OXETOL 300MG             TAB20     SUN PHARMA00004560000003579602605167503006916090
A003501231CA 1134DIANE                    GRA21     BAYER DE M00003610000002683902605167896116861566
A001801511CA 1134RECOVERON NC             CRE40G    ARMSTRONG 00003250000002106002605167501089804327
A059000102CA 1134TESACOF EXP AD 160MG     SOL100ML  NOVARTIS F00001085700000947602605167501094911232
A001801951CA 1134ESKAPAR 400MG            CAP16     ARMSTRONG 00001750000001134002605167501089809506
A001801502CA 1134ESKAPAR                  SUS90ML   ARMSTRONG 00001440000000933102605167501089809513
A001000502CA 1132OPTIVE GOTAS             GOT10ML   ALLERGAN  00004127300003490902605167501201400710
A005000532CA 1134RINOFREN                 COM24     APLICACION00001058400000867902605167501124103514
A026003051CA 1134RASILLES 300MG           COM14     NOVARTIS F00005690000004754502605167501124813826
A019502491CA 1134DETRUSITOL SR 4MG        CAP14     PFIZER    00009341600007473302605167501142936286
A111800292CA 1134AGRIFEN                  TAB10     MDR PHARMA00000212500000153702605167501125116810
A110500621CA 1134LASILACTON 50MG/20MG     CAP16     SANOFIAVEN00003529200002462902605167501165000179
A103101121CA 1134TRIMEXAZOL 3ML (A)       AMP6      LOGISTICA 00002370700001845502605167501122967705
A110500611CA 1134LASIX 20MG 2ML           AMP5      SANOFIAVEN00002241600001564402605167501165000186
A110500641CA 1134LASIX 40MG               TAB24     SANOFIAVEN00001706900001191202605167501165000193
A110500811CA 1134NEO MELUBRINA 500MG      COM10     SANOFIAVEN00000787200000549402605167501165000230
A110500791CA 1134NEO MELUBRINA 1G 2ML     AMP5      SANOFIAVEN00001060100000739902605167501165000254
A103100232CA 1134BREACOL INF              JBE120ML  LOGISTICA 00001262400001028602605167501123013418
A103100971CA 1134OTO ENI (A)              SUS10ML   LOGISTICA 00003048500002484002605167501123013807
A103100391CA 1134DIAMIN 10MG              TAB20     LOGISTICA 00006516700005310002605167501123013814
A103100531CA 1134ENI OFTALMICO 3MG        GOT5ML    LOGISTICA 00002624700002138702605167501123013821
A103101261CA 1134VILONA                   SOL120ML  LOGISTICA 00005000000003892402605167501122969310
A103101271CA 1134VILONA 400MG             CAP18     LOGISTICA 00014976700011659302605167501122969419
A103101561CA 1134FIRAC PLUS               GRA20     LOGISTICA 00002566900002091602605167501123014101
A103100671CA 1134FIRAC 100MG 2ML          F A5      LOGISTICA 00000926500000754902605167501123014514
A103100711CA 1134FIRAC PLUS 100MG         AMP6      LOGISTICA 00002467400002010502605167501123014521
A103100681CA 1134FIRAC 125MG              TAB10     LOGISTICA 00001609100001311102605167501123014613
A103100691CA 1134FIRAC 250MG              TAB10     LOGISTICA 00002439400001987902605167501123014644
A135000061CA 1134LEPONEX 100MG (C)        TAB30     NOVARTIS F00030560000026882502605167501124852108
A026001411CA 1234MIACALCIC 100UI (R)      AMP5X1ML  NOVARTIS F00013540000011313802605167501124853105
A026001421CA 1234MIACALCIC NASAL 200UI (R)AER2ML    NOVARTIS F00022250000018591702605167501124853181
A026200072CA 1134SYNCOL                   COM24     LABORATORI00001070000000684802605167501070600556
A026200172CA 1134SYNCOL MAX               COM12     LABORATORI00001010000000646402605167501070600730
A026200342CA 1132REPLENS 5.9G             APL6      CHURCH Y D00002900000002384102605167501070600853
A026100541CA 1134TREDA                    TAB20     LABORATORI00001640000001148002605167501070612368
A076700321CA 1134RAPIVIR 500MG            TAB42     GLAXOSMITH00028251100018446102605167501043161626
A076700371CA 1134RAPIVIR 500MG            TAB10     GLAXOSMITH00007945100005187602605167501043161640
A110501831CA 1134PROFENID I.V 100MG       FAM3      SANOFIAVEN00003594500002508502605167501165005617
A110501841CA 1134NEUROFLAX 20/4 MG        FAM3      LABORATORI00008670000006069002605167501165005624
A010700151CA 1134SALOFALK 250MG           COM60     LABORATORI00004957000004064702605167501168810409
A017000401CA 1134SOLUCAPS (C)             CAP30     PRODUCTOS 00006066800004762602605167501293200366
A017000062CA 1132CROMOTEX                 CAP30     PRODUCTOS 00002838400002228202605167501293200465
A017000432CA 1134VITALAIF                 CAP60     PRODUCTOS 00003269000002566102605167501293200540
A017000321CA 1134REDOTEX NF (C)           CAP30     PRODUCTOS 00008732700006855202605167501293200595
A017000411CA 1134TEROCAPS                 CAP60     PRODUCTOS 00004358100003421302605167501293200625
A017000462CA 1134CRONOCAPS 3MG            CAP30     PRODUCTOS 00002181800001712802605167501293200649
A017000472CA 1134CRONOCAPS 5MG            CAP30     PRODUCTOS 00003701600002905802605167501293200656
A027002991CA 1134CELESTAMINE NS           TAB20     BAYER DE M00003888600002441602605167501050600026
A093400051CA 1134CELESTONE PED            GOT60ML   LABORATORI00002560000001792002605167501050623629
A093300042CA 1134CLOROTRIMETON REPET 12MG GRA20     BAYER DE M00000914400000561502605167501050624640
A093400121CA 1134ZINTREPID 10/10MG        COM14     LABORATORI00006550000004585002605167501050612319
A029600061CA 1134A.F. VALDECASAS 5MG      TAB20     LABORATORI00000171000000133402605167501446000010
A093400151CA 1134ZINTREPID 10/20MG        COM14     LABORATORI00007200000005040002605167501050612357
A013101011CA 1134PENAMOX 500MG (A)        CAP12     LABORATORI00001850000001276502605167501070635183
A013100961CA 1134PENAMOX 250MG (A)        SUS75ML   LABORATORI00001690000001166102605167501070635237
A013100981CA 1134PENAMOX 500MG SUSP (A)   FCO75ML   LABORATORI00001980000001366202605167501070635299
A102600322CA 1134CEFTRIAXONA GI 1G KENDR (AMP3.5ML  SANOFIAVEN00001804100000464102605167501361680151
A027600662CA 1132BEXIDENT TRICLOSAN COLUT SOL250ML  SIEGFRIED 00002094800001309302605168430206280180
A027600652CA 1132BEXIDENT TRICLOSAN       TUB75ML   SIEGFRIED 00001698300001061402605168430206280197
A027600642CA 1132BEXIDENT ENCIAS 0.20     SPR40ML   SIEGFRIED 00003059500001912202605168430206280272
A027600602CA 1132BEXIDENT ENCIAS GEL 0.20 TUB50ML   SIEGFRIED 00002370700001481702605168430206280289
A110300151CA 1134BRISTAFLAM 100MG POLVO   SOB20     ALMIRALL D00004168500002658802605168430308002253
A110300032CA 1134BRISTAFLAM CREMA         TUB60G    ALMIRALL D00002717800001778302605168430308015109
A110300112CA 1134ALMAX 1G/7.5ML           SOL225ML  ALMIRALL D00002268000001455802605168430308320517
A110300131CA 1134PEMIX 1MG                SOB30     ALMIRALL D00003733600002396702605168430308413516
A110300141CA 1134EVASTEL 20MG             COM10     ALMIRALL D00003699400002420502605168430308624516
A033900222CA 1134ARIMIDEX 1MG             COM28     ASTRAZENEC00030350000025410002605167501324403711
A033900292CA 1134CASODEX 150MG            CAP28     ASTRAZENEC00055020000046060002605167501324472137
A079400841CA 1134EUTIROX 150MCG           TAB50     MERCK     00005653300003639002605167501298210766
A121700012CA 1132SKINCAP                  SHA150ML  CHEMINOVA 00005220000004090002605168470000478949
A103101331CA 1134VIRAZIDE GOTAS           FCO15ML   LOGISTICA 000012862000010013026051675004958     
A103100571CA 1134ESPACIL SIMPLE           GOT15ML   LOGISTICA 000018148000014788026051675004972     
A003501221CA 1134CLIMENE                  GRA21     BAYER DE M00006730000005003502605167896116861559
A090600011CA 1134POSTINOR 2 1.5MG         TAB1      GEDEON RIC00001500000000839002605167501590211232
A115301641CA 1134FLEET ENEMA ADULTO       SOL133ML  TAKEDA MEX0000115000000075230260516301320010206 
A051300022CA 1132DERMACROM                LOC120ML  GALDERMA M00002844800002275902605167502003560107
A051300122CA 1132KAPPA ELASTIN            CRE60G    GALDERMA M00003965500003172402605167502003560213
A114500041CA 1134VIVIOPTAL 40/35/10MG     CAP90     BOMUCA    00008336100006655502605167501587010497
A074100441CA 1134DOXIUM 500MG             CAP30     GRUNENTAL 00005930800004744702605167502209290181
A019903241CA 1134PISAURIT 20MG            CAP14     LABORATORI00002975600002517202605167501125123252
A111700192CA 1134NOVO HERKLIN 2000 5      CRE60G    ARMSTRONG 00000910000000589702605167501089810359
A026800852CA 1134LOTRIMIN AF              AER100G   BAYER DE M00000970500000575902605167501050630023
A110200231CA 1134MINITRAN 18MG ( 5MG/24H) PAR10     MORE PHARM0000573000000389640260516891671002215 
A000302721CA 1134SIMILAC TOTAL COMFORT HA POL820G   ABBOTT LAB00004293000003863702605167501033957390
A075501071CA 1134AVODART 0.5MG            CAP90     GLAXOSMITH00020608400014008402605167501043195713
A075501081CA 1134SERETIDE DISKUS 50/100MG POL60DOSISGLAXOSMITH00012895400008765502605167501043100830
A140400011CA 1134LIBERTRIM SII 100/37.5MG COM20     PRODUCTOS 00002598500002130802605167501070903688
A136600091CA 1134DESLIBAL 5MG             TAB30     SANDOZ    00004995200004070202605167502216931763
A093200281CA 1134SUPRADOL SUBLINGUAL 30MG TAB2      PROMOTORA 00000940000000625102605167501299306123
A093200291CA 1134SUPRADOL 10MG            TAB20     PROMOTORA 00002000000001330002605167501299306734
A017000851CA 1132SENEX 3 1.5G             SOB30     PRODUCTOS 00005890500004624102605167501293201646
A140400021CA 1134REPAFET 10MG             TAB20     PRODUCTOS 00005280000004329702605167501124180201
A079401251CA 1134HEALCREM 35G             CRE50G    MERCK     00001637000000983102605167501298218700
A075501121CA 1134SERETIDE 120 DOSIS 11 25/AER       GLAXOSMITH00014004900009519702605167501043100861
A075501131CA 1134SERETIDE EVOH 25/50MCG   AER120DS  GLAXOSMITH00013306200009044802605167501043100854
A094800261CA 1134TOPUMATE 25MG            TAB20     SUN PHARMA00002590000002033202605167503006916588
A107700402CA 1134CONAZOL                  CRE40G    PROMOTORA 00000890000000591802605167501299303061
A107900202CA 1134CONAZOL K CREMA          TUB30G    PROMOTORA 00000670000000445602605167501299303078
A003200112CA 1134TABCIN                   TAB12     BAYER DE M00000302800000200602605167501008485316
A003201212CA 1134TABCIN 500               TAB12     BAYER DE M00000345000000228502605167501008485408
A003200802CA 1132MERTHIOLATE BLANCO       SOL60ML   BAYER DE M00000382200000253202605167501008486528
A003201382CA 1132MERTHIOLATE ATOMIZ BLANCO   60ML   BAYER DE M00000524200000347302605167501008486559
A003201402CA 1132MERTHIOLATE ROJO         SOL60ML   BAYER DE M00000382200000253202605167501008486566
A003200722CA 1134CEVALIN 500MG            TAB100    BAYER DE M00001686700001117402605167501008465653
A024900601CA 1134ROCEPHIN IV 500MG (A)    AMP       PRODUCTOS 00003720000002492402605167501009007418
A024900591CA 1134ROCEPHIN IV 1G (A)       AMP       PRODUCTOS 00006810000004562702605167501009007425
A132800421CA 1134BREDELIN 500MG (A)       TAB7      LABORATORI00006050000004338102605167501314701612
A132800171CA 1134FOSFOCIL IM 1G (A)       AMP       LABORATORI00001350000000968102605167501314701711
A132800161CA 1134FOSFOCIL IM 0.5G (A)     AMP       LABORATORI00001000000000717002605167501314701728
A132800181CA 1134FOSFOCIL IV 1G (A)       AMP       LABORATORI00001500000001036002605167501314701735
A132800151CA 1134FOSFOCIL (A)             SUS60ML   LABORATORI00002350000001685202605167501314701742
A132800401CA 1134FOSFOCIL 500MG (A)       CAP6      LABORATORI00002650000001830202605167501314701759
A003500811CA 1134AMOBAY 500MG (A)         SUS75ML   BAYER DE M00001380000001026202605167501318657298
A003500791CA 1134AMOBAY 500MG (A)         CAP15     BAYER DE M00001330000000988802605167501318657304
A003201911CA 1134AMOBAY CL 400/57MG (A)   SUS70ML   BAYER DE M00002660000001977702605167501318657526
A107900172CA 1134CICLOFERON PIEL          TUB2G     PROMOTORA 00000670000000445602605167501299303085
A132800071CA 1134DIMEGAND                 JBE60ML   LABORATORI00003450000002473802605167501314703647
A132800021CA 1134DIMEGAN 10MG             CAP10     LABORATORI00002850000002043602605167501314703753
A132800011CA 1134DIMEGAN 10MG             CAP20     LABORATORI00004550000003262502605167501314703760
A132800441CA 1134DIMEGAN PED              SOL30ML   LABORATORI00002200000001577502605167501314703777
A132800031CA 1134DIMEGAN                  JBE60ML   LABORATORI00002800000002007702605167501314703784
A132800341CA 1134RAPIX 30MG/2ML           AMP3      LABORATORI00002500000001792602605167501314703814
A132800331CA 1134RAPIX 10MG               CAP10     LABORATORI00001850000001326602605167501314703821
A091600752CA 1132ENSURE PLUS FRESA SINGLESBOT237ML  ABBOTT LAB00000519000000451502605167501033954139
A000301531CA 1134KLARICID OD 500MG (A)    TAB10     ABBOTT LAB00008262000005263702605167501033921285
A000301601CA 1134EPIVAL SPRINKLE 125MG    CAP60     ABBOTT LAB00005886000003750002605167501033921292
A012300832CA 1132AXEL CONTROL AZUFRE      JAB125G   GRISI HERM00000377700000253802605167501022101896
A012300862CA 1134AXEL CONTROL AZUFRE      CRE20G    GRISI HERM00000497800000334502605167501022101780
A093500321CA 1134AZOMYR 5MG               TAB30     LABORATORI00007610000005327002605167501050620659
A093500311CA 1134AZOMYR 50MG              JBE120ML  LABORATORI00004110000002877002605167501050607643
A110502841CA 1134AMARYL M 2MG/1000MG      TAB16     SANOFIAVEN00006321100004411302605167501165005822
A112500012CA 1134BRONCOLIN                JBE140ML  BRONCOLIN 0000071030000056830260516714706100307 
A114900051CA 1134TERRAXIN UNG             TUB10G    SOPHIA COM0000080920000065740260516736085404678 
A020401582CA 1132NATURELLA F MODERADO ALASBOL10     COMPANIA P00000158800000142902605167501001157296
A020401592CA 0132NATURELLA F MODERADO ALASBOL14     COMPANIA P0000033630000029640260516037000394945 
A091700372CA 1134PEDIALYTE 30 CZA CALOR   SOL500ML  ABBOTT LAB00000307000000261302605167501033956638
A019903171CA 1134SODRIMAX                 GOT10ML   LABORATORI00001992400001685502605167501125122491
A012101331CA 1134SOFTRAM C 1MG/3MG OFT    GOT5ML    LABORATORI0000505270000300090260516008400005236 
A012101341CA 1134SOFTRAM OFT 1MG          GOT5ML    LABORATORI0000292480000180330260516008400005243 
A120802481CA 1134TUKOL D AD               JAR125ML  GENOMMA LA0000062000000053580260516650240010712 
A027600081CA 1134ENALADIL 10MG DUAL 11    TAB30     SIEGFRIED 00006810000004256302605167501300408884
A027600831CA 1134CEFURACET 250MG (A)      SUS50ML   SIEGFRIED 00004670000002918802605167501300409010
A027600851CA 1134CEFURACET 500MG (A)      TAB10     SIEGFRIED 00005150000003218802605167501300409034
A003501081CA 1134OPTOCEF 250MG (A)        SUS75ML   BAYER DE M00002570000001910702605167501318606227
A003500171CA 1134BINOTAL 1.0G (A)         COM12     LAKESIDE S00001653600001354102605167501318606784
A003501001CA 1134ACTRON 400MG             CAP10     BAYER DE M00000830000000617102605167501318608900
A003500991CA 1134ACTRON 200MG             CAP10     BAYER DE M00000550000000409602605167501318608924
A003501021CA 1134ACTRON 600MG             CAP10     BAYER DE M00000890000000661602605167501318609020
A003500771CA 1134AVELOX 400MG (A)         TAB5      BAYER DE M00005640000004193002605167501318610798
A003501051CA 1134THIOCTACID 600MG         COM30     MEDAP     00007990000006352102605167501318612082
A102000781CA 1134JANUMET 50/500MG         COM56     MERCK SHAR00012031600009625302605167501326004190
A102000791CA 1134JANUMET 50/850MG         COM56     MERCK SHAR00012171000009736802605167501326004947
A102000801CA 1134JANUMET 50/1000MG        COM56     MERCK SHAR00012176000009740802605167501326004954
A102000691CA 1134HYZAAR 100/12.5MG        TAB15     MERCK SHAR00008333100006666502605167501326007320
A102000701CA 1134HYZAAR 100/12.5MG        TAB30     MERCK SHAR00014114900011291902605167501326007368
A102000551CA 1134VYTORIN 10/10MG          TAB28     MERCK SHAR00012083700009667002605167501326008396
A079400161CA 1134DABEX 500MG              TAB60     MERCK     00003457100002225302605167501298219509
A079400171CA 1134DABEX 850MG              TAB30     MERCK     00002887400001858602605167501298219608
A079400321CA 1134DOLO NEUROBION           TAB30     MERCK     00003479100001939102605167501298220406
A079400351CA 1134DOLO NEUROBION FORTE     TAB30     MERCK     00004689500002613702605167501298221403
A027600501CA 1134AMINOEFEDRISON NF        JAR150ML  SIEGFRIED 00002940000001837502605167501300409584
A027600351CA 1134DORIXINA F 250MG         TAB10     SIEGFRIED 00003220000002012502605167501300409713
A027600071CA 1134ENALADIL 10MG            COM10     SIEGFRIED 00001760000001100002605167501300409805
A027600091CA 1134ENALADIL 20MG            COM10     SIEGFRIED 00003040000001900002605167501300409812
A027600061CA 1134DORIXINA 125MG           TAB10     SIEGFRIED 00002120000001325002605167501300409881
A027600051CA 1134DORIXINA                 AMP5X2ML  SIEGFRIED 00001370000000856302605167501300409898
A027600861CA 1134CLENDIX 300MG (A)        CAP21     SIEGFRIED 00005670000003543802605167501300409911
A003501041CA 1134AXOL 300MG JARABE        SOL120ML  BAYER DE M00001660000001234202605167501318613737
A003501031CA 1134AXOL 30MG                CAP20     BAYER DE M00001590000001182202605167501318613805
A003500911CA 1134LEVITRA 20MG             TAB1      BAYER DE M00002840000002111602605167501318620162
A012100231CA 1134LEVODEXAN                SOL10ML   LABORATORI0000289550000187450260516008400000347 
A012100241CA 1134LEVOFENIL                SOL5ML    LABORATORI0000394530000222100260516008400000354 
A012100261CA 1134NEOBACIGRIN              SOL5ML    LABORATORI0000392200000241810260516008400000361 
A012100281CA 1134NEOBACIGRIN              UNG5G     LABORATORI0000340970000210220260516008400000378 
A019501311CA 1134LOPID 600MG              TAB14     PFIZER    00007794600006235702605167501057002168
A120100112CA 1134CALADRYL                 LOC180ML  LOGISTICA 00001035300000773302605167501057005312
A093500451CA 1134CEDAX 400MG (A)          CAP10     MERCK SHAR00010730300008584202605167501050615112
A026800712CA 1132MEXSANA LADY TALCO       BOT160G   BAYER DE M00000437400000289802605167501050615617
A093300302CA 1134BIOMETRIX AOX            CAP30     BAYER DE M00002901400001006202605167501050616638
A093500301CA 1134AVIANT GOTAS 50 MG       FCO60ML   MERCK SHAR00003554300002843502605167501050616942
A093500291CA 1134AZOMYR GOTAS 50MG        FCO60ML   LABORATORI00003830000002681002605167501050616973
A026800961CA 1134DESENFRIOL D             TAB24     BAYER DE M00000567800000329102605167501050617055
A120100122CA 1134CALADRYL CLEAR           LOC180ML  LOGISTICA 00001217200000909702605167501057005848
A005000871CA 1134LIBERTRIM 50MG 5ML       AMP6      APLICACION00005280500004330102605167501070901059
A005000681CA 1134LIBERAN                  COM60     APLICACION00001717700001408502605167501070901080
A005000711CA 1134LM6                      GOT30ML   APLICACION00000878600000720502605167501070901301
A110500951CA 1134PLASIL                   GOT20ML   LABORATORI00001660000001162002605167501061014003
A110501031CA 1134RIFADIN 300MG (A)        CAP16     SANOFIAVEN00004435400003095302605167501061017004
A110501091CA 1134RIFOCYNA 1G/100ML (A)    SPR20ML   SANOFIAVEN00002827500001973202605167501061019008
A110501071CA 1134RIFATER 150/75/400MG (A) GRA24     SANOFIAVEN00005486000003828502605167501061019206
A098000052CA 1134SOLUTINA F BLIST         SOL15ML   ALCON LABO000008313000006439026051675017255     
A019501171CA 1134EPAMIN SP 250MG          AMP5X5ML  PFIZER    00007719600006175702605167501287652362
A059001532CA 1134TENALIF MIELLIM INF33    JBE200ML  NOVARTIS F00001393000001149802605167501124815660
A114900072CA 1134SPLASH TEARS GOTAS       FCO15ML   SOPHIA COM0000090260000073200260516736085405422 
A137100112CA 0132GLICOLIC CHAMPU          FCO240ML  ITALMEX   00004310000003448002605167705849004143
A060500391CA 1134XUZAL 5MG                TAB30     UCB DE MEX00007700000006044502605167501088507618
A001801011CA 1134PLENACOR LP 50/20MG      CAP10     ARMSTRONG 00003230000002093002605167501089802460
A001802831CA 1134GANGLIOSIDE 10MG         TAB20     ARMSTRONG 00002910000001885702605167501089803337
A001802841CA 1134DIOXAFLEX DUO 50MG/4MG   TAB15     ARMSTRONG 00003880000002514202605167501089809797
A110300231CA 1134SEKISAN                  JAR120ML  ALMIRALL D00001701300001113102605168430308020059
A074200531CA 1134TREMECOX 300/7.5MG       TAB20     INLAP     00007360000005997102605167501250838458
A074200541CA 1134TREMECOX 300/15MG        TAB10     INLAP     00007430000006054202605167501250838441
A111900361CA 1134TREMEPEN                 CAP20     REPRESENTA00007279900005931902605167501250838236
A111900371CA 1134TREMEPEN                 CAP30     REPRESENTA00010380000008457902605167501250838915
A125100031CA 1134TREVISSAGE 10MG (C)      CAP30     PIERRE FAB00006900000005589002605167501088504617
A137100232CA 1132SALILEX                  BAR120G   ITALMEX   00002150000001720002605167703281003946
A115301361CA 1134VENALOT DEPOT 180/30MG   TAB30     TAKEDA MEX00004480000002930802605167501092773511
A115300301CA 1134FERRANINA COMPLEX        GRA30     TAKEDA MEX00003720000002433602605167501092772415
A115300991CA 1134OSTEOMIN D               COM30     REPRESENTA00002389900001583302605167501092772965
A115300731CA 1134PASPAT 0.2 ML (A)        AMP10     TAKEDA MEX00011910000007791502605167501092787020
A115300811CA 1134RIOPAN MASTICABLES       TAB24     TAKEDA MEX00001770000001157902605167501092793021
A115300781CA 1134RIOPAN GEL FRASCO        SUS250ML  TAKEDA MEX00002200000001439202605167501092793038
A115300801CA 1134RIOPAN GEL 10ML          SOB20     TAKEDA MEX00001890000001236402605167501092793045
A115301761CA 1134RIOPAN GEL 10ML          SOB10     TAKEDA MEX00001030000000673802605167501092793052
A115300861CA 1134VASODIL 40MG             COM24     TAKEDA MEX00003580000002342002605167501092799030
A133000281CA 1134OVESTIN                  CRE15G    ASPEN LABS00005420600003621002605167501409201270
A110501121CA 1134SECNIDAL 500MG           COM8      SANOFIAVEN00003828000002671502605167501072310217
A009801141CA 1134ZACTOS 30MG              TAB7      ELI LILLY 00006657300004537602605167501082221077
A009801151CA 1134ZACTOS 45MG              TAB7      ELI LILLY 00007357200005014502605167501082221084
A110502762CA 1134CLEXANE 80MG             INY2      SANOFIAVEN00010688500009509602605167501072350305
A109300092CA 1132ORAL B CLASICO SUAVE 35  CEP       COMPANIA P00000230100000202602605167501086494262
A109300112CA 1132ORAL B CLASICO SUAVE 60  CEP       COMPANIA P00000230600000202602605167501086494286
A031901221CA 1134AZILECT 1MG              TAB10     LEMERY    00011860800009487802605167501559601326
A031901231CA 1134AZILECT 1MG              TAB30     LEMERY    00032917500026331802605167501559601333
A110502101CA 1134APROVEL 300MG            TAB28     SANOFIAVEN00014132700009794502605167501328979311
A110502661CA 1134PRIMPERAN 10MG           TAB20     LABORATORI00001350000000945002605167501328979328
A110502431CA 1134PIRIMIR 100MG            COM24     SANOFIAVEN00001865300001301802605167501328979366
A112800052CA 1134HISTIACIL                TAB20     SANOFIAVEN00001173000000703102605167501328979380
A000801231CA 1134TRAVATAN                 SOL2.5ML  ALCON LABO00008256000006727202605167501088617553
A000801271CA 1134CILODEX                  SOL5ML    ALCON LABO00006484700005283802605167501088617850
A098000042CA 1134SOLUTINA F 5ML           SOL15ML   ALCON LABO00000831300000643902605167501088617904
A013100191CA 1134HEMOSIN K 2ML            FAM3      LABORATORI00002650000001855002605167501385410055
A013100081CA 1134DANZEN 5MG               TAB30     LABORATORI00001910000001337002605167501385420061
A115300341CA 1134FERRANINA                SOL100ML  TAKEDA MEX00002060000001347702605167501092743026
A112700252CA 1134MELOX PLUS MENTA         SUS360ML  SANOFIAVEN00000933500000578802605167501072310378
A112700262CA 1134MELOX PLUS CEREZA        SUS360ML  SANOFIAVEN00000933500000578802605167501072310392
A110500251CA 1134BIFEBRAL                 COM12     LABORATORI00002220000001554002605167501072340030
A110500501CA 1134FLAGYL 250MG             COM30     SANOFIAVEN00000799400000557802605167501072340078
A110500521CA 1134FLAGYL 500MG             COM30     SANOFIAVEN00001494400001042902605167501072340092
A110500541CA 1134FLAGYSTATIN V            OVU10     SANOFIAVEN00003476200002425902605167501072340108
A103500102CA 1134ARBISTIN PEDIATRICO      JAR150ML  BYK GULDEN00001890000001236402605167501092774761
A115301171CA 1134TECTA 40MG               TAB7      TAKEDA MEX00004010000002623302605167501092774822
A115301181CA 1134TECTA 40MG               TAB14     TAKEDA MEX00007140000004671002605167501092774839
A133000101CA 1134MERCILON                 TAB21     LABORATORI00003070000002149002605167501409201539
A133000391CA 1134REMERON SOLTAB DISP 30MG TAB12     LABORATORI00008420000005894002605167501409201546
A133000111CA 1134METRIGEN FUERTE          AMP1ML    ASPEN LABS00002284300001525902605167501409201553
A110500531CA 1134FLAGYL V                 OVU10     SANOFIAVEN00001284300000896302605167501072340115
A110502751CA 1134FLAGYL BOLSA 500MG (A)   SOL100ML  SANOFIAVEN00001906400001696202605167501072340139
A110500491CA 1134FLAGYL 125MG             SUS120ML  SANOFIAVEN00000982900000685902605167501072340153
A031400191CA 1134ZYPREXA ZYDIS 10MG       TAB14     ELI LILLY 00017969500013814602605167501082242096
A121900602CA 1134DULCOLAX                 GRA10     BOEHRINGER00000645000000463002605167501037911183
A000801331CA 1134DUOTRAV                  SOL2.5ML  ALCON LABO00009670600007879802605167501088619557
A079400901CA 1134DEFLOX                   SUS120ML  MERCK     00002201000001416802605167501298212371
A114800161CA 1134DELTA CORTI OFT 0.5      GOT5ML    SOPHIA COM0000168970000137610260516736085148060 
A079400921CA 1134DABEX XR 750MG           TAB30     MERCK     00003532900002274102605167501298213569
A079400971CA 1134DABEX XR 750MG           TAB60     MERCK     00006240300004016902605167501298214207
A019502271CA 1134DALACIN T                SOL30ML   PFIZER    0000344360000275490260516300093116016 
A020603032CA 0132OLD SPICE DES PURE SPORT BAR60G    COMPANIA P00000323600000290102605167501001164003
A062500102CA 0134POMADA DE MANZANA        TAR50G    PRODUCTOS 00000189500000123202605167502001631120
A103101982CA 0132DERMATIX ULTRA           TUB15G    LOGISTICA 00006386100005203602605167501122900313
A020100072CA 1134CALCID SURT FCO          PAS100    PROVENTAS 00000495000000371302605167501124311100
A005000541CA 1134CARNOTPRIM 15MG 12H      COM20     APLICACION00003400400002788402605167501124103484
A129800011CA 1134DEBROMU 40MG             TAB30     A MENARINI00006730000005384002605167501385494246
A053302822CA 0132DEXERYL                  CRE250G   PIERRE FAB00001250000001100002605163282776432026
A109300392CA 1132PRO DDUTY MED COPETE     CEP1      COMPANIA P00000204400000173802605167501086472048
A077100261CA 1134EBIXA 10MG               TAB56     LUNDBECK M00018690000014952002605167503003746232
A136600121CA 1134RUPILIP 20MG             TAB30     SANOFIAVEN00008657900004514402605167502216931787
A073800281CA 1134ITRAVIL AP 60MG (C)      TAB30     INVESTIGAC00005400000004266002605167501249601322
A073800291CA 1134ACXION AP 30MG (C)       TAB30     INVESTIGAC00003900000003081002605167501249605849
A110503151CA 1134PRIMACORT 1MG/1ML        AMP3X10ML SANOFIAVEN00039476600035122702605167501165007581
A017312391CA 1134PHARMATON PROTECT        CAP30     BOEHRINGER00002482700001759902605167501034635280
A017312401CA 1134PHARMATON PROTECT        CAP60     BOEHRINGER00003883300002760602605167501034635297
A093200301CA 1134CICLOFERON XTRM 0.05/0.02FRA50ML   PROMOTORA 00004350000002892702605167501299338018
A130900101CA 1134EYESTIL LUB 1.5MG        GOT10ML   LABORATORI00004020000002566402605167503014492029
A012101401CA 1134LUBRIK 14MG/ML           FRA15ML   LABORATORI0000160660000099050260516008400001603 
A092700161CA 1132PRUDENCE SAB NARANJA     PZA3      DKT DE MEX00000332900000187802605167502214982507
A092700171CA 1132PRUDENCE SAB CHOCOLATE   PZA3      DKT DE MEX00000332900000187802605167502214982514
A092700181CA 1132PRUDENCE SAB MENTA       PZA3      DKT DE MEX00000332900000187802605167502214982484
A092700191CA 1132PRUDENCE ANILLOS Y PUNTOSPZA3      DKT DE MEX00000392300000216102605167502214982538
A092700201CA 1132PRUDENCE SAB MIX         PZA5      DKT DE MEX00000468100000264002605167502214982811
A016200182CA 1132TIRALECHE CRISTAL LEROY  BOL1      LABORATORI0000073290000063760260516729513100488 
A098000082CA 1134SOLUTINA CAJA            GOT15ML   ALCON LABO000008313000006439026051675007027     
A119700111CA 1134TRIVAFLUC 250/37.5/500MG TAB4      REPRESENTA00006669900005434802605167501250838588
A077100151CA 1134SERLECT 4MG              TAB10     LUNDBECK M00007850000006280002605167503003746249
A016200832CA 0132TERMOMETRO ORAL LEROY    CAJ1      LABORATORI0000025850000022490260516729513100464 
A082000592CA 1132STERIMAR BEBE            SPR50ML   CHURCH Y D00001691000001360202605167501080912274
A135100141CA 1134TALPRAMIN 25MG (C)       TAB20     PSICOFARMA00003200000002544002605167501384503215
A135100101CA 1134LEPTOPSIQUE 4MG (C)      TAB30     PSICOFARMA00002080000001653602605167501384503239
A021900331CA 1134KINEX 2MG                TAB30     PSICOFARMA00001920000001318202605167501384503260
A021900371CA 1134PRIDONA 250MG            TAB50     PSICOFARMA00002610000001792002605167501384503307
A135100161CA 1134PONTIRIDE 50MG (C)       TAB50     PSICOFARMA00001520000001208402605167501384504267
A021900051CA 1134CARBAZINA 200MG          TAB20     PSICOFARMA00001900000001304502605167501384504304
A135100061CA 1134CARBOLIT 300MG (C)       TAB50     PSICOFARMA00002680000002130602605167501384504311
A076801131CA 1134LAMICTAL DISPERSAB 5MG   TAB28     GLAXOSMITH00002152700001405602605167501046428016
A076800951CA 1134LAMICTAL DISPERSAB 25MG  TAB28     GLAXOSMITH00003641500002377702605167501046428696
A076801111CA 1134LAMICTAL DISPERSAB 100MG TAB14     GLAXOSMITH00005778600003773102605167501046429716
A093400181CA 1134ZINTREPID 10/40MG        COM14     LABORATORI00009280000006496002605167501050612418
A093400191CA 1134ZINTREPID 10/40MG        COM28     LABORATORI00015110000010577002605167501050612456
A100500062CA 1132COMODO EDIGAR                      EDIGAR    00000997500000778002605167501463306003
A014000401CA 1134MACMIROR COMP CRE APLIC 6TUB30G    ITALMEX   00004110000003370202605167501390911547
A014000391CA 1134MACMIROR 400 (A)         CAP8      ITALMEX   00002530000002074602605167501390911554
A014000751CA 1134MACMIROR COMPLEX V (A)   OVU6      ITALMEX   00003830000003140602605167501390911561
A021900241CA 1134FENITRON 100MG           TAB50     PSICOFARMA00002280000001565602605167501384504328
A138600101CA 1234INDOXYL GEL (R)          TUB30G    GLAXOSMITH00006421500004364902605167501406829002
A093400351CA 1134TEMGESIC SUBLING (C)     TAB10     MERCK SHAR00005974900004779902605167501050612463
A026800911CA 1134CEDAX 400MG (A)          CAP5      MERCK SHAR00006960200005568102605167501050612524
A093400361CA 1134ALGITRIN                 TAB24     LABORATORI00002500000001750002605167501050612562
A111800482CA 1134ELECTROLIT FRESA PED     SOL300ML  LABORATORI00000195200000165102605167501125130892
A111800052CA 1134ELECTROLIT FRESA PLASCO  SOL625ML  LABORATORI00000317000000268202605167501125104268
A111800202CA 1134ELECTROLIT FRESA         SOL1150ML LABORATORI00000540000000456802605167501125104763
A111800492CA 1134ELECTROLIT MANZANA PED   SOL300ML  LABORATORI00000195200000165102605167501125130878
A111800192CA 1134ELECTROLIT MANZANA       SOL1150ML LABORATORI00000540000000456802605167501125104770
A111800232CA 1134ELECTROLIT PINA          SOL625ML  LABORATORI00000317000000268202605167501125103582
A114800641CA 1134HUMYLUB OFT              GOT15ML   SOPHIA COM0000470930000383660260516736085405668 
A005500581CA 1134GABIROL 1.0G (A)         SOL120ML  PRODUCTOS 00002134000001410002605167501088507878
A012100891CA 1134AFAZOL Z                 SOL15ML   LABORATORI0000125070000077110260516008400001184 
A012100771CA 1134OBRY                     SOL15ML   LABORATORI0000269420000160020260516008400001245 
A012100631CA 1134PREMID                   UNG3G     LABORATORI0000224610000133400260516008400001290 
A012100692CA 1134TETRAZOL                 GOT15ML   LABORATORI0000057750000035610260516008400001313 
A020500512CA 1134PEPTO BISMOL             FRA118ML  COMPANIA P0000052080000044550260516020800753067 
A020500632CA 1134PEPTO BISMOL PLUS        FRA118ML  COMPANIA P0000074830000055760260516020800755719 
A020500642CA 1134PEPTO BISMOL PLUS        BOT236ML  COMPANIA P0000124790000092490260516020800755726 
A020500142CA 1134METAMUCIL NATURAL        BOT210G   COMPANIA P0000199340000148090260516020800790222 
A020500152CA 1134METAMUCIL NATURAL        BOT504G   COMPANIA P0000422350000313680260516020800790246 
A020500122CA 1134METAMUCIL NARANJA        BOT174G   COMPANIA P0000199340000148090260516020800790253 
A092900042CA 1134EMLA                     CRE5G     ASTRAZENEC00001090000000590002605167501098603317
A092900032CA 1134EMLA                     CRE30G    ASTRAZENEC00004260000002350002605167501098603690
A027700911CA 1134GLIMETAL 4/1000MG        TAB16     LABORATORI00007920000004910002605167501101654985
A027700841CA 1134PREDIAL 850MG            TAB30     LABORATORI00002730000001690002605167501101656156
A002400871CA 1134NEXIUMMUPS 20MG          TAB14     ASTRAZENEC00005110000003010002605167501098611305
A002400741CA 1134NEXIUMMUPS 40MG          TAB7      ASTRAZENEC00004560000002700002605167501098611312
A002400751CA 1134NEXIUMMUPS 40MG          TAB14     ASTRAZENEC00007290000004290002605167501098611329
A002400401CA 1134PLENDIL 5MG              TAB30     ASTRAZENEC00008420000004960002605167501098611862
A019502421CA 1134SOLUMEDROL 500MG         FAM1      PFIZER    0000462170000369740260516300090887018 
A125000151CA 1234XALATAN OFT (R)          SOL2.5ML  PFIZER    0000746160000596930260516300092960016 
A125000141CA 1234XALACOM OFT (R)          GOT2.5ML  PFIZER    0000831090000664870260516300092960030 
A136700052CA 1132PERIODENTYL DENTAL       CRE75ML   DIGRIMEX  00001110400000754802605167501043162326
A027003011CA 1134CELESTAMINE NS 5/0.25MG  TAB10     BAYER DE M00002181400001369702605167501050610018
A010700022CA 1134BEKUNIS HOJAS Y VAINAS      80G    LABORATORI00001148000000941402605167501168860107
A010700032CA 1134BEKUNIS INSTANTANEO         17G    LABORATORI00001261000001034002605167501168860206
A010700012CA 1134BEKUNIS                  GRA30     LABORATORI00001294000001061102605167501168860305
A010700262CA 1134PLANTIVAL                GRA40     LABORATORI00003564000002922502605167501168860824
A010700402CA 1134TANAKAN 40MG             TAB24     LABORATORI00001564000001282502605167501168861104
A010700421CA 1134TEBONIN 761 40MG         GRA24     LABORATORI00002797000002293702605167501168870311
A110500271CA 1134BLADURIL 200MG           GRA20     SANOFIAVEN00006137100004282902605167501174607024
A027002771CA 1134GARAMICINA 80MG (A)      AMP5      SCHERING P00007070000004949002605167501050610056
A027002791CA 1134GARAMICINA GU 160MG (A)  AMP5      SCHERING P00009120000006384002605167501050610063
A003900142CA 1132LABELLO CEREZA           BLI4.8G   BDF MEXICO00000310400000270002605167501054502777
A125100041CA 1134TREVISSAGE 20MG (C)      CAP30     PIERRE FAB00012000000009720002605167501088504624
A002401231CA 1134RHINOCORT AQUA 120 DOSIS FRA32MCG  ASTRAZENEC00005010000002950002605167501098605298
A020500662CA 1134PEPTO BISMOL CEREZA MAST TAB24     COMPANIA P00000728000000622302605167501001353377
A020500672CA 1134PEPTO BISMOL CEREZA      LIQ118ML  COMPANIA P0000052080000044550260516020800756440 
A020500682CA 1134PEPTO BISMOL CEREZA      LIQ236ML  COMPANIA P0000086930000074350260516020800756457 
A026800862CA 1134LOTRIMIN AF  33          AER100G   BAYER DE M00001179300000648002605167501050614597
A026800842CA 1134LOTRIMIN                 AER150G   BAYER DE M00001213500000700202605167501050614849
A093300482CA 1134DESENFRIOLITO PED        SOL60ML   BAYER DE M00000839800000548502605167501050624886
A026800832CA 1132AFRIN PURE SEA           SPR125ML  BAYER DE M00001465800000903002605167501050625272
A129200382CA 1132STOMAHESIVE PASTA 60G    TUB1      BOSTON MED0000266030000225470260516768455100019 
A129201132CA 1132ACTIVE LIFE C/STO TRA    BOL10     BOSTON MED0000754780000639680260516768455101610 
A001802871CA 1134ZYRTEC                   GOT10ML   ARMSTRONG 00002600000001684802605167501088507144
A001802911CA 1134ZYRTEC 10MG              TAB10     UCB DE MEX00003440000002229102605167501088507168
A001802921CA 1134ZYRTEC 10MG              TAB20     ARMSTRONG 00005790000003751902605167501088507175
A051200471CA 1134AVIXIS ALFATRADIOL 0.025 SOL100ML  GALDERMA M00006490000005192002605163499320003056
A019502201CA 1134NORVAS 10MG              TAB20     PFIZER    00010063400007547602605167501287670045
A079401321CA 1134ENCEPHABOL 20MG          GRA24     MERCK     00003706700002386002605167501298228006
A081900191CA 1132TROJAN FIRE Y ICE        PZA3      CHURCH Y D00000641200000347802605167501080953017
A001803101CA 1134AKINETON 2MG             TAB30     ARMSTRONG 00002350000001522802605167501089803351
A079401361CA 1134DEXABION DOBLE CAM       JGP3X3ML  MERCK     00004571400002547902605167501298217703
A079401371CA 1134DEXABION DOBLE CAM       JGP2X3ML  MERCK     00003437900001916102605167501298217697
A079401381CA 1134DEXABION DOBLE CAM       JGP1X3ML  MERCK     00002156400001201902605167501298217673
A010700531CA 1134DAIVONEX UNGUENTO 50MCG  TUB30G    LABORATORI00008095000006354602605165702191008074
A002401321CA 1134BRILINTA 90MG            TAB60     ASTRAZENEC00021470000008860002605167501098607841
A002401331CA 1134BRILINTA 90MG            TAB30     ASTRAZENEC00010740000004440002605167501098607834
A024701351CA 1134NOVOBERIL 15/2MG         TAB15     REPRESENTA00007489900006103002605167501250821771
A140700031CA 1134OACEREIN 50MG            CAP30     INLAP     00007250000005907502605167502261160767
A017000861CA 1134TEMPOLIB 300MG           TAB30     PRODUCTOS 00004539900003563902605167501293201516
A079401401CA 1134COZAAR 2X1 50MG          TAB30     MERCK     00009938000007950402605167502241941331
A079401411CA 1134DOLO NEUROBION DOBLE CAM JGP3X3ML  MERCK     00004536200002528302605167501298217659
A004402731CA 1134AMIKIN 1G (A)            FAM1X4ML  BRISTOL MY00010070000008257502605167501041941268
A004402741CA 1134AMIKIN 500MG (A)         FAM2X2ML  BRISTOL MY00011650000009553102605167501041941282
A000302751CA 1134DICETEL 100MG            TAB42     ABBOTT LAB00009797000006241702605167501033957581
A000302761CA 1134CREON 150MG              CAP20     ABBOTT LAB00002387000001520802605167501033957499
A079401421CA 1134HYZAAR 2X1 50/12.5MG     TAB30     MERCK     00009938000007950402605167502241941324
A024701361CA 1134NOVOBERIL 15/2MG         TAB30     REPRESENTA00012770000010405202605167501250821788
A070601231CA 1134TACEX IM 500MG (A)       FAM1X2ML  PROBIOMED 00003149200002472102605167502213143169
A070601241CA 1134TACEX IM 1G (A)          FAM1X3.5MLPROBIOMED 00004773800003747402605167502213143176
A070601251CA 1134TACEX IV 1G (A)          FAM1X10ML PROBIOMED 00004069700003194702605167502213143183
A139700051CA 1134VESSEL DUE F 25MG        CAP50     ALFA WASSE00005440000004320002605168020030091252
A141100011CA 1234FIBROQUEL 8.33MG/1ML (R) FAM1.5ML  ASPPH     0001090000000904700260516767475402035 
A141100021CA 1234FIBROQUEL 8.33MG/1ML (R) FAM4ML    ASPPH     0002470000002050100260516767475402011 
A073800301CA 1134IFA ACXION 15MG (C)      TAB30     INVESTIGAC00002100000001659002605167501249605801
A139700061CA 1134VESSEL DUE F 60MG        AMP10X2ML ALFA WASSE00004720000003750002605168020030091351
A010700541CA 1134FUCIDIN 20MG             UNG15G    LABORATORI00002529600001985802605165702191008104
A112500522CA 0134BRONCOLIN CEREZA         PAL10     BRONCOLIN 0000041190000032950260516714706901409 
A003501431CA 1134PRIMOLUT DEPOT 1ML       AMP250MG  BAYER DE M00001880000001397802605167501303456004
A019502901CA 1134PRISTIQ 100MG            TAB14     WYETH     00010063800008051002605167501108767916
A026200362CA 1132REPLENS APLICADOR        TUB35G    CHURCH Y D00002900000002384102605167501070600877
A127200092CA 0134PARCHE POROSO ALLCOCKS   SOB1      CONSUPHARM00000350000000262502605167501109760039
A127200082CA 0132PARCHE NEGRO BELLADONA   SOB1      CONSUPHARM00000460000000345002605167501109760886
A003600972CA 0132PARCHE CURITAS EL GALLO  CAJ6      BDF MEXICO00000273400000237902605167702003477270
A003601022CA 0132PARCHE CURITAS LEON CADERSOB1      BDF MEXICO00000273400000237902605167702003469565
