A107900682CA 1134FACIDEX TOTAL MASTIC     TAB105    PROMOTORA 00000530000000352500806167501299307335
A096800191CA 1234LEVEMIR FLEXPEN 3ML (R)  CAJ5      NOVO NORDI00025252000020185500806167503007822307
A077100181CA 1134LEXAPRO 20MG             TAB14     LUNDBECK M00013700000010960000806167503003746287
A027600592CA 1132BEXIDENT ENCIAS COLUTORIOSOL250ML  SIEGFRIED 00002931000001831900806168430206280296
A012100671CA 1134HIPERTON 5               UNG5G     LABORATORI0000179310000110560080616008400000675 
A126302011CA 1134HIGROTON BLOCK 100/25MG  TAB28     SANDOZ    00004581500003733100806167502216930551
A126302021CA 1134HIGROTON BLOCK 50/12.5MG TAB28     SANDOZ    00002497000002034600806167502216930568
A005000891CA 1134LIBERTRIM SII            COM24     PRODUCTOS 00004057600003327300806167501070903695
A001400082CA 1134HIPOGLOS PLUS            TAR60G    INDUSTRIAS00001023000000798000806167501289511193
A001400112CA 1134HIPOGLOS                 TUB60G    INDUSTRIAS00001227500000957500806167501289511261
A062100111CA 1134ETABUS B1                TAB15     FERRING   00001325000001040100806167503000883145
A005000141CA 1134CYCLOFEMINA              AMP0.5ML  APLICACION00001891700001551200806167501124109929
A019902941CA 1134FLUCOXAN 150MG 2X1       CAP1      LABORATORI00003071300002598200806167501125101960
A074100331CA 1134ZALDIAR 37.5/325MG       TAB20     GRUNENTAL 00004641800003713400806167501124763022
A019902801CA 1134GLUPROPAN 2MG            TAB15     LABORATORI00002450300002072900806167501125102479
A019902811CA 1134GLUPROPAN 4MG            TAB15     LABORATORI00004238400003585500806167501125102486
A019900921CA 1134PENISODINA 800000 (A)    AMP1      LABORATORI00000297900000252000806167501125107009
A019901941CA 1134FALOT CEFALOTINA 1G PISA AMP1      LABORATORI00000627200000530600806167501125107030
A012101071CA 1134AFAZOL GRIN NASAL        SOL15ML   LABORATORI0000085640000052800080616008400001337 
A012101091CA 1134GODEK                    SOL5ML    LABORATORI0000500810000308780080616008400001344 
A026002771CA 1134EXFORGE 5/160MG          COM28     NOVARTIS F00012290000010269300806167501094916671
A026002791CA 1134EXFORGE 10/160MG         COM28     NOVARTIS F00012370000010336200806167501094916688
A026002781CA 1134EXFORGE 10/160MG         COM14     NOVARTIS F00006500000005431300806167501094916695
A026002761CA 1134EXFORGE 5/160MG          COM14     NOVARTIS F00006460000005397900806167501094916701
A012101151CA 1134CELUNAF                  GOT15ML   LABORATORI0000272770000168170080616008400001481 
A012100742CA 1134PC GRIN USUARIO COMP     GOT10ML   LABORATORI0000057750000035610080616008400002181 
A012100981CA 1134SHEMOL 0.5               GOT15ML   LABORATORI0000123590000076190080616008400002242 
A012100791CA 1134OBRYDEX                  SOL5ML    LABORATORI0000409210000252300080616008400003218 
A125000021CA 1134HALCION 0.25MG (C)       TAB30     PFIZER    0001001750000801400080616300090017125 
A026200062CA 1134KANKA 3 OZ               SOL1      LABORATORI0000182000000116480080616041388284316 
A002401041CA 1134SYMBICORT 320/9MCG       PVO60DOSISASTRAZENEC00009240000005440000806167501098604116
A002401191CA 1134ATACAND 8MG              TAB14     ASTRAZENEC00003750000002210000806167501098604499
A027700311CA 1134MALIVAL AP               CAP28     LABORATORI00005090000003160000806167501101612282
A027700301CA 1134MALIVAL 25MG             CAP30     LABORATORI00001900000001180000806167501101614026
A027700261CA 1134GLINORBORAL COMPUESTO    TAB40     LABORATORI00006240000003870000806167501101615016
A027700901CA 1134GLIMETAL 2/1000MG        TAB16     LABORATORI00006020000003730000806167501101615856
A076802091CA 1134PAXIL CR 12.5MG          TAB10     GLAXOSMITH00005159800003507300806165050278003543
A074100272CA 1134DOXIPROCT PLUS           PDA60G    GRUNENTAL 00003174700002539700806165605709349525
A003200962CA 1134BENEXOL                  BLI30     BAYER DE M00002775700001838900806167501008409428
A003201042CA 1134REDOXON FORTE 2G         COM10     BAYER DE M00001332200000882600806167501008409503
A003201052CA 1134REDOXON LIMON 1G         COM10     BAYER DE M00000951800000630600806167501008409510
A003201072CA 1134REDOXON NARANJA 1G       COM10     BAYER DE M00000951800000630600806167501008409527
A003201092CA 1134SARIDON                  COM100    BAYER DE M00002020200001338400806167501008409534
A003201102CA 1134SARIDON                  COM20     BAYER DE M00000573200000379800806167501008409541
A003200992CA 1134BEROCCA CA Y MAG EFER    COM10     BAYER DE M00001250300000828400806167501008409572
A127200042CA 1134LECHE DE MAGNESIA NORMEX SUS360ML  QUIMICA Y 00000480000000360000806167501109760541
A127200011CA 1134COLCHIQUIM 1MG           TAB20     CONSUPHARM00000890000000667500806167501109762446
A127200032CA 1134LECHE DE MAGNESIA NORMEX SUS180ML  QUIMICA Y 00000280000000210000806167501109790029
A000302341CA 1134KLARICID IV 500MG (A)    AMP       ABBOTT LAB00007881000005021000806167501033951374
A004401622CA 1134QUESTRAN POLVO 9G        SOB50     BRISTOL MY00017050000013981200806167501095435010
A026001681CA 1134MIFLONIDE 200MCG         CAP30     NOVARTIS F00002470000002063700806167501094914103
A122000021CA 1134ALUPENT 1ML              AMP5      BOEHRINGER00001449000001039600806167501037900576
A076300531CA 1134TARKA 180MG/2MG          TAB30     ABBOTT LAB00012094000007705100806167501033953576
A000302381CA 1134KLARICID OD 500MG (A)    TAB14     ABBOTT LAB00010998000007006800806167501033953897
A004401632CA 1134QUESTRAN POLVO 9G        SOB10     BRISTOL MY00004550000003731100806167501095435027
A121800581CA 1134ATROVENT 10ML            AER1      BOEHRINGER00007847400005610500806167501037901030
A121800601CA 1134BERODUAL SUSP 100MG      AER14G    BOEHRINGER00009050800006495500806167501037905069
A121900112CA 1134LAXOBERON                COM20     BOEHRINGER00001456600001041300806167501037945010
A121800951CA 1134FLURINOL 20MG            TAB20     BOEHRINGER00006908000004958400806167501037945058
A121801171CA 1134MOBICOX 7.5 MG           COM14     BOEHRINGER00006083700004359800806167501037946031
A127200052CA 1134LECHE DE MAGNESIA NORMEX SUS60ML   QUIMICA Y 00000160000000120000806167501109790739
A094800251CA 1134ZUNUN 500 MG             TAB30     SUN PHARMA00014690000011531700806167503006916571
A138400001CA 1132KITOSCELL                GEL30G    CELL PHARM00008224200006652600806167502224228763
A138400011CA 1132KITOSCELL                GEL90G    CELL PHARM00019955200016141700806167502224228787
A003501661CA 1134ACTRON INF 120 ML        SUS120 ML BAYER DE M00001080000000803100806167501318661110
A129201422CA 1132DUODERM CGF 20 X 30 CM   APO       BOSTON MED0002390130002025640080616768455106707 
A111700282CA 1132NOVO HERKLIN 2000 PEINE  PZA1      ARMSTRONG 00002900000001879200806167501089810465
A130200231CA 1134ONYRIC 60MG/ML           FRA80ML   FERRER THE00003050000002290000806167503007704689
A091601172CA 1132PEDIASURE PLUS CHOCOLATE BOT400G   ABBOTT LAB00002741000002384700806167501033957215
A132800461CA 1134LACTULAX 10G/15ML        SOB       LABORATORI00002900000002079400806167501314704989
A079401181CA 1134EUTIROX 200 MCG          TAB50     MERCK     00006490700004178100806167501298217901
A130200221CA 1134FISIOFER 40MG/15ML       FRA10     LABORATORI00002370000001900000806167503007704504
A127900081CA 1134ACXION 30MG (C)          TAB30     INVESTIGAC00003700000002923000806167501249605818
A107900862CA 1134CICLOFERON XTRM CRE 2 G  TUB       PROMOTORA 00000710000000472200806167501299355039
A009801441CA 1134CIALIS 5MG               TAB28     ELI LILLY 00023643000015766400806167501082242409
A080400151CA 1134VALDOXA 25 MG            COM14     BECKMAN LA00007876600004920000806163594450700438
A080400141CA 1134VALDOXA 25 MG            COM28     BECKMAN LA00015753400009850000806163594450700421
A067700202CA 1132OPTIFREE REPLENISH       SOL120ML  ALCON LABO00001160900000873400806167501088619656
A114800721CA 1134GAAP OFTENO              GOT3ML    SOPHIA COM0000731950000596420080616736085402346 
A114800691CA 1134TRAZINAC OFTENO 3/1MG    GOT5ML    SOPHIA COM0000474060000386240080616736085400953 
A077100071CA 1134SEROPRAM 20MG            TAB14     LUNDBECK M00011100000008880000806167503003746010
A098100091CA 1134LEXOTAN 6MG (C)          TAB30     PRODUCTOS 00006730000004509100806167501009004585
A098100021CA 1134DORMICUM 50MG (C)        AMP5      PRODUCTOS 00041010000027476700806167501009052814
A098100121CA 1134RIVOTRIL 0.5MG (C)       COM30     PRODUCTOS 00003550000002378500806167501009070948
A031400171CA 1134ZYPREXA IM 10MG          FAM2ML    ELI LILLY 00002942500002125900806167501082212129
A031400131CA 1134EVISTA 60MG              TAB28     ELI LILLY 00013965000010080600806167501082224214
A076300661CA 1134TEOLONG 100MG            CAP20     ARMSTRONG 00001825000001162700806167501285600334
A019501811CA 1134ALDACTONE 100MG          TAB30     PFIZER    00013917000011133600806167501287621009
A019501711CA 1134CELEBREX 200MG           CAP10     PFIZER    00007456500005592400806167501287624505
A019501291CA 1134LIPITOR 10MG             TAB20     PFIZER    00005779200004334400806167501287652744
A077100021CA 1134CLOPIXOL DEPOT 200MG     AMP1ML    LUNDBECK M00014570000011656000806167503003746065
A077100061CA 1134FLUANXOL DEPOT 20MG      AMP1      LUNDBECK M00008650000006920000806167503003746089
A077100111CA 1134LEXAPRO 10MG             TAB14     LUNDBECK M00008520000006816000806167503003746119
A077100101CA 1134LEXAPRO 10MG             TAB28     LUNDBECK M00016030000012824000806167503003746126
A077100091CA 1134EBIXA 10MG               TAB28     LUNDBECK M00010540000008432000806167503003746133
A077100121CA 1134EBIXA 10MG               TAB14     LUNDBECK M00005650000004520000806167503003746225
A005500301CA 1134MELADININA               TAB30     PRODUCTOS 00001663200001100000806167501088542855
A019502531CA 1134DEPOMEDROL               F A2ML    PFIZER    00002597600002078100806167501142925150
A026100411CA 1134POSIPEN 250MG (A)        CAP20     LABORATORI00003080000002156000806167501070634759
A110502722CA 1134CLEXANE 20MG             INY2      SANOFIAVEN00004214200003749400806167501072350213
A110502732CA 1134CLEXANE 40MG             INY2      SANOFIAVEN00007910600007038200806167501072350220
A110502742CA 1134CLEXANE 60MG             INY2      SANOFIAVEN00010566200009400500806167501072350299
A111000041CA 1234LANTUS 100UI/ML VIAL (R) FAM10ML   SANOFIAVEN00014646200010221200806167501165002937
A125000011CA 1134HALCION 0.125MG (C)      TAB30     PFIZER    0000618310000494650080616300090010072 
A125000051CA 1134TAFIL 0.50MG (C)         TAB30     PFIZER    0000480370000384300080616300090055097 
A125000111CA 1134TAFIL 2MG (C)            TAB30     PFIZER    0001180820000944650080616300090094119 
A093500541CA 1134METICORTEN 20MG          TAB30     ASPEN LABS00004653800003108800806167501050612364
A093500551CA 1134METICORTEN 50MG          TAB20     ASPEN LABS00012304700008219600806167501050612371
A093400161CA 1134ZINTREPID 10/20MG        COM28     LABORATORI00013720000009604000806167501050612395
A026800012CA 1134AFRIN AD                 SPR20ML   BAYER DE M00000756800000375000806167501050613453
A103100291CA 1134CARDISPAN                AMP5      LOGISTICA 00003220300002624000806167501123010608
A103101071CA 1134SINPEBAC 2 UNGUENTO      TUB15G    LOGISTICA 00002231700001818400806167501123017300
A110502801CA 1134TAVANIC 500MG (A)        F A100ML  SANOFIAVEN00006506200005788600806167501165002661
A110501131CA 1134SECNIDAL 900MG           SOL30ML   SANOFIAVEN00002970300002072900806167501165002739
A110500961CA 1134PROFENID 100MG           CAP20     SANOFIAVEN00004167700002908600806167501165002791
A103100851CA 1134K50                      AMP5ML    LOGISTICA 00001200700000978200806167501122964902
A103101232CA 1134VANTAL PASTA DENTAL      TBO60G    LOGISTICA 00001406500001146000806167501123017713
A103101222CA 1134VANTAL GEL               TUB60G    LOGISTICA 00001685900001373700806167501123017805
A103101202CA 1134VANTAL BUCOF SPRAY       SOL30ML   LOGISTICA 00003369700002745700806167501123018024
A103101592CA 1134VANTAL BUCOFARINGEO      SOL360ML  LOGISTICA 00002048700001669300806167501123018031
A136500031CA 1134DILAR 6MG                TAB15     SYNTEX    00004840000003822600806167501124723101
A136500011CA 1134DILARMINE                TAB25     SYNTEX    00003100000002449000806167501124723170
A136500041CA 1134DILARMINE                SUS100ML  SYNTEX    00002900000002291000806167501124723217
A019902831CA 1134ONEMER 10MG              TAB10     LABORATORI00000999600000845700806167501125102929
A026001231CA 1134FLOTAC 140MG             CAP20     NOVARTIS F00006990000005840700806167501124810474
A026001661CA 1134ZELMAC 6MG               COM30     NOVARTIS F00011870000009918400806167501124810863
A059000352CA 1134SENOKOT REGULAR 8.6MG    TAB60     NOVARTIS F00001437000001186200806167501124810900
A031001241CA 1134COMENTER 15MG            TAB10     ASOFARMA D00004800000003264800806167730979095464
A019504171CA 1134CENTRUMGENDER HOMBRES    TAB60     PFIZER    00002364800001880000806167501287675101
A093200901CA 1134EVEREST GRANULADO 4MG    SOB20     PROMOTORA 00003960000002633400806167501299345009
A129900321CA 1134MICROPALCM               GEL30G    GLENMARK P00007967200006294100806168904091104475
A094000931CA 1132CETOLAN 30               SOB7G     LABORATORI00012751200009563400806167501086301560
A014001421CA 1132UMBRELLA PLUS 50         EMU120G   ITALMEX   00004490000003592000806167703281001447
A096800261CA 1234RYZODEG FLEXTOUCH (R)    PLP5X3ML  NOVO NORDI00026039400020814900806167503007822659
A096800271CA 1234RYZODEG FLEXTOUCH (R)    PLP3ML    NOVO NORDI00005450200004356700806167503007822642
A074100821CA 1134SOLORO 7 10MG (C)        PAR2      GRUNENTAL 00007193900005755100806167502209290839
A074100811CA 1134SOLORO 7 5MG (C)         PAR2      GRUNENTAL 00005092600004074100806167502209290822
A110504091CA 1132SYNVISC ONE              JGP6ML    SANOFIAVEN00078418400071126500806167502244510091
A012201771CA 1134FOLCRESS 5 2X1           FCO60ML   GRISI HERM00006077500003926100806167501022101933
A012201781CA 1132RICITOS DE ORO TOALL AVENUNI64     GRISI HERM0000024630000018000080616037836040320 
A027601771CA 1134POLYVISOL                SOL50ML   SIEGFRIED 00001930000001206300806167501300407290
A009801621CA 1134CYMBALTA 30MG            CAP28     ELI LILLY 00016645000011631700806167501082243376
A031001251CA 1134EUTEBROL 20MG            TAB30     ASOFARMA D00016100000010950700806167730979095341
A031001261CA 1134EUTEBROL 20MG            TAB20     ASOFARMA D00012250000008332000806167730979095334
A026101781CA 1134DIMODAN 100MG            CAP20     LABORATORI00002200000001540000806167501070648640
A014001431CA 1134MINOPAC 50MG (A)         TAB24     ITALMEX   00004060000003329200806167501390913084
A014001441CA 1134PROALID 1 MG             UNG15G    ITALMEX   00004170000003419400806167501390912803
A014001451CA 1134PROALID 0.3MG            UNG15G    ITALMEX   00002780000002279600806167501390912827
A014001461CA 1134MINOPAC 100MG (A)        TAB12     ITALMEX   00004060000003329200806167501390913091
A093200911CA 1134EVOCS III 750MG (A)      TAB7      PROMOTORA 00005830000003876900806167501299330371
A017312901CA 1134JARDIANZ 10MG            TAB30     BOEHRINGER00011492100008132500806167501034600196
A030501531CA 1134SMA SIN LACTOSA GOLD     BTE400G   WYETH     00003037200002357800806167502253072078
A030501551CA 1134SMA GOLD 1               BTE900G   WYETH     00004516800003506600806167502253071804
A030501561CA 1134PROMIL GOLD 2            BTE900G   WYETH     00004145300002977100806167502253071972
A030501581CA 1134PROGRESS GOLD 3          BTE400G   WYETH     00001546300001110600806167502253072016
A027601781CA 1134DALVEAR ADUL FRESA 300/16JBE200ML  SIEGFRIED 00002220000001387500806167501300408037
A138700221CA 1132VITANOIN INTENSIVE       CAP30     PANME     00006336200004973900806167501124181918
A019504181CA 1134CENTRUMGENDER MUJERES    TAB60     PFIZER    00002364800001880000806167501287675156
A095800221CA 1134GINORELLE 20             COM28     LABORATORI00003050000002440000806167502235760153
A144600021CA 1134IVEL 250/60MG            TAB30     UP PHARMA 00003000000002400000806167506334400026
A145600011CA 1134OXYCONTIN 10MG (E)       TAB30     MUNDIPHARM00011120000009563200806167506359900020
A145600021CA 1134OXYCONTIN 20MG (E)       TAB30     MUNDIPHARM00020985000018047100806167506359900037
A030501591CA 1134SMA GOLD 1               BTE400G   WYETH     00002179000001691700806167502253071521
A030501601CA 1134PROGRESS GOLD 3          BTE900G   WYETH     00003186800002288700806167502253072023
A030501611CA 1134PROMIL GOLD 2            BTE400G   WYETH     00002073700001489400806167502253071965
A053302971CA 1134LYSTEDA 650MG            TAB30     PIERRE FAB00007390000006021500806167503000883527
A071301571CA 1132LIPIKAR BAUME AP         BOT200ML  FRABEL    00003439700002700100806163337872418587
A071301581CA 1132LIPIKAR SYNDET           BOT400ML  FRABEL    00003612100002835500806163433422407350
A073800371CA 1134POSTDAY UNIDOSIS 1.5MG   COM1      INVESTIGAC00001500000001185000806167501249606778
A145900011CA 1134ARAHKOR 60MG             TAB20     ESPECIFICO00005126000003410000806167501701400562
A071301601CA 0132LA ROCHE POSAY PIGMENTCLATUB40ML   FRABEL    00004301700003376900806163337872414176
A144100101CA 1132ENTEREX VAINILLA POLVO   BTE400G   VIINC     0000232780000172750080616612197122009 
A144100111CA 1132ENTEREX FRESA POLVO      BTE400G   VIINC     0000232780000172750080616612197122207 
A144100121CA 1132ENTEREX VAINILLA LIQUIDO BTE237ML  VIINC     0000046190000029920080616612197211000 
A144100131CA 1132ENTEREX FRESA LIQUIDO    BTE237ML  VIINC     0000046190000029920080616612197222204 
A141300131CA 1132VITACILINA BEBE JABON NEUBAR80G    COMPANIA I00000128000000108900806167502250340248
A026101701CA 1134AZANTAC 150MG            TAB20     LABORATORI00001150000000782000806167501070618773
A001803311CA 1134ZYRTEC 10MG              TAB7      ARMSTRONG 00001460000000946100806167501089803443
A079401731CA 1134DABEX XR 1000MG          TAB30     MERCK     00003706400002385800806167501298217130
A051200821CA 1132CETAPHIL DAYLONG FPS 50 LTUB100ML  GALDERMA M00003862100003089700806167612076457355
A051200841CA 1132CETAPHIL DAYLONG KIDS FPSTUB150ML  GALDERMA M00004353400003482800806167612076457430
A051200881CA 1132CETAPHIL DAYLONG FPS 30  TUB30ML   GALDERMA M00002198300001758600806167612076457638
A075501351CA 1134RELVARE 30 DOSIS 200/25MCPZA       GLAXOSMITH00008870000006029300806167501043100144
A075501361CA 1134RELVARE 30 DOSIS 100/25MCPZA       GLAXOSMITH00008870000006029300806167501043100137
A071300462CA 1132LA ROCHE POS KERIUM GRASASHA200ML  FRABEL    00002629300002064000806163433422407299
A002500251CA 1134PANCLASA                 AMP5      LOGISTICA 00001519500001238200806167501188800671
A002500571CA 1134KLONAZA                  CAP20     LOGISTICA 00002829900002305900806167501188800701
A074200211CA 1134ARTRIDOL GEL             TUB60G    REPRESENTA00003930000003202200806167501250810645
A001000341CA 1134LUMIGAN                  SOL3ML    ALLERGAN  00008144900006889000806167501201400352
A001000382CA 1134REFRESH GEL              TUB10G    ALLERGAN  00005553800004697500806167501201400406
A001000401CA 1134ALPHAGAN P 0.15          GOT5ML    ALLERGAN  00007991100006759000806167501201400413
A001000392CA 1134REFRESH LIQUIGEL         GOT15ML   ALLERGAN  00005640300004770600806167501201400437
A001000421CA 1134ZYMAR 3.0MG              GOT5ML    ALLERGAN  00006365800005384300806167501201400482
A111900111CA 1134PLANEX 100/100MG         CAP20     REPRESENTA00005480000004465300806167501250838212
A110300041CA 1134EVASTEL 10MG             COM10     ALMIRALL D00003678200002406600806167501289500012
A110300051CA 1134EVASTEL 1MG SOL          FCO60ML   ALMIRALL D00003156500002065300806167501289500029
A131200011CA 1134AMOXICLIDE (A)           CAP20     REPRESENTA00006349900005174100806167501250810706
A119700011CA 1134ZITROFLAM 500/100MG (A)  TAB3      REPRESENTA00006260000005100700806167501250810881
A119700021CA 1134ZITROFLAM 500/100MG (A)  TAB4      REPRESENTA00006370000005190400806167501250810898
A024700102CA 1134COMPLEJO B DE RIMSA      FAM10ML   REPRESENTA00002870000002368400806167501250812519
A074200481CA 1134CARTIGEN 50 MG           CAP20     REPRESENTA00005340000004351200806167501250838359
A019501741CA 1134CELEBREX 200MG           CAP20     PFIZER    00014946100011209600806167501287624512
A019502021CA 1134CELEBREX 200MG           CAP30     PFIZER    00018487400013865600806167501287624529
A017600212CA 1132OLEODERM PLUS            CRE225ML  REPRESENTA00002877600002273300806167501273500233
A017600262CA 1132BENZADERM                JAB100G   REPRESENTA00001010200000798100806167501273500271
A133200081CA 1134SCHERIDERM               CRE15G    INTENDIS M00002871900001902700806167795320050325
A096800131CA 1234NOVORAPID PENFILL 100U (RCAR5X3ML  NOVO NORDI00013543300010826000806167503007822154
A096800141CA 1234NOVORAPID VIAL 100U (R)  FAM10ML   NOVO NORDI00008452700006756700806167503007822161
A096800151CA 1234NOVOMIX 30 FLEX PEN (R)  AMP5X3ML  NOVO NORDI00015516800012403500806167503007822222
A096800171CA 1234NOVOMIX 30FLEX PEN (R)   PZA100U/MLNOVO NORDI00003261600002607200806167503007822284
A096800181CA 1234NOVORAPID FLEX PEN (R)   PZA100U/M NOVO NORDI00003042000002431800806167503007822291
A001802751CA 1134KARET 50 MCG             COM50     ARMSTRONG 00001390000000900700806167501089803160
A001802761CA 1134KARET 100 MCG            COM50     ARMSTRONG 00002650000001717200806167501089803177
A001802391CA 1134DIOXAFLEX RAPID 65MG     SOB10     ARMSTRONG 00002990000001937500806167501089809414
A001802341CA 1134ZYPLO 60MG               GOT15ML   ARMSTRONG 00002470000001600600806167501089809421
A001802351CA 1134ZYPLO 600MG              JBE120ML  ARMSTRONG 00001800000001166400806167501089809438
A001802551CA 1134ESKAPAR COMPUESTO        CAP20     ARMSTRONG 00001890000001224700806167501089809445
A001801731CA 1134UROFLOX 200MG (A)        TAB2      ARMSTRONG 00004820000003123400806167501089809216
A001801741CA 1134UROFLOX 200MG (A)        TAB6      ARMSTRONG 00008300000005378400806167501089809223
A001801711CA 1134LOGICAL TUTTI FRUTTI     SOB2GX6   ARMSTRONG 00002410000001561700806167501089809230
A001802541CA 1134ESKAPAR COMPUESTO        SUS120ML  ARMSTRONG 00002420000001568200806167501089809315
A001802381CA 1134TRIFAMOX IBL12H 875MG (A)COM14     ARMSTRONG 00005410000003505700806167501089809384
A026001301CA 1134AROPAX 20MG              TAB20     NOVARTIS F00010950000009149600806167501094910815
A133200031CA 1134ADVANTAN                 CRE15G    BAYER DE M00004253700002818100806167795320050127
A031000661CA 1134GESLUTIN 200MG           PER15     ASOFARMA D00006200000004217000806167501871720620
A031000411CA 1134TREXEN 100MG             OVU7      ASOFARMA D00004250000002817300806167501871720637
A031000481CA 1134TREXEN DUO 100400MG      OVU7      ASOFARMA D00004500000003022300806167501871720644
A031000741CA 1134TAFIROL AC 500/50MG      TAB15     ASOFARMA D00002650000001825900806167501871720668
A031000421CA 1134TAFIROL 1G               TAB20     ASOFARMA D00002500000001657200806167501871720675
A031000581CA 1134TAFIROL FLEX             TAB30     ASOFARMA D00005950000004099600806167501871720682
A031000431CA 1134VARTALON 1.5G GDO        SOB15     ASOFARMA D00006600000004375100806167501871720583
A031000671CA 1134VARTALON COMPOSITUM      SOB30     ASOFARMA D00012000000008162000806167501871720590
A084900112CA 1132GENOVAN FPS30            SPR125ML  COSMETICOS00003039700002842100806168423372021053
A121700092CA 1134VIUSID 4G                SOB21     CHEMINOVA 00007990000006270000806168414200215508
A026002321CA 1134VOLTAREN RETARD 100MG    GRA20     NOVARTIS F00007170000005991100806167501094910396
A027601631CA 1132BEXIDENT AFT             TUB5ML    SIEGFRIED 00001301700000813600806168429420055254
A027601641CA 1134DOLAC 10MG               TAB20     SIEGFRIED 00002310000001443800806167501300407863
A071301541CA 1132LA ROCHE POSAY EFFACLAR GFRA400ML  FRABEL    00003612100002835500806163337872411991
A093200651CA 1134FLAGENASE VG 500MG/100000CAP10     PROMOTORA 00001670000001110600806167501299335031
A141400091CA 1134ALDARA 3.75 9.375MG      SOB14     MORE PHARM00014210000009662800806167502246642813
A129900281CA 1134AYTUGRE NS 120 DOSIS 50MCFRA       GLENMARK P00004320400003413100806168904091101689
A000303081CA 1134LIPIDIL 200MG            CAP28     ABBOTT LAB00009904000006309800806167501033958762
A093200681CA 1134PASTA DENTRIFIC NEDENTO TTUB       PROMOTORA 00001570000001044100806168414601746106
A093200701CA 1134ENJUAGUE NEDENTO ENCIA 0.BOT300ML  PROMOTORA 00002800000001862000806168414602714104
A142600071CA 1134INCRESINA 25MG           TAB14     TAKEDA MEX00004110000002688800806167501092721031
A003201621CA 0134CITRACAL 950MG           TAB60     BAYER DE M00001856800001230200806167501008497555
A110200251CA 0134HIPREX 1G                TAB20     MORE PHARM00006600000004488000806167502246641618
A136600141CA 0134ACC 600MG                TAB20     SANDOZ    00003481700002836900806167502216930865
A027301601CA 0134FLUCOGREL 75MG           TAB14     LABORATORI00005600000004015500806167501314705634
A003201641CA 0134CANESTEN V 1 DAY 500MG   OVU1      BAYER DE M00001684100001115700806167501318697409
A000302851CA 0134CREON 300MG              CAP50     ABBOTT LAB00010246000006527700806167501033957956
A000302861CA 0134CREON 300MG              CAP30     ABBOTT LAB00006834000004353900806167501033957949
A027301591CA 0134SENOVITAL 10MG           TAB30     LABORATORI00009800000007027100806167501314703548
A003201631CA 0134CITRACALD                TAB60     BAYER DE M00001889200001251600806167501008497562
A093200371CA 0134GO ORODISPERSABLE 1 50MG TAB1      PROMOTORA 00001310000000871100806167501299330104
A027301611CA 0134ESMISEN 15/100/100/5MG   AMP1X1ML  LABORATORI00002600000001864300806167501314703951
A110300331CA 0134DIMOFLAX 0.50/200MG      CAP45     ALMIRALL D00007714700005214700806168430308001379
A017312431CA 0134PRADAXAR 11 75MG         CAP30     BOEHRINGER00016791800012032800806167501037965148
A070601351CA 1134TIRAPROB 500MG           TAB30     PROBIOMED 00008893300006981200806167502213146702
A026003671CA 1134GALVUS MET 50/850MG      COM30     NOVARTIS F00005980000005314000806167501094917005
A008502741CA 1132VASO RECOLEC DE MUESTRAS BTE       DEGASA    00000032500000026700806167501048640034
A005500751CA 1134TOPSYNY 0.05/3G          GEL40G    PRODUCTOS 00003458200002350000806167501088505508
A005500761CA 1134SYNALAR C 0.01/3G        CRE40G    PRODUCTOS 00002136200001450000806167501088505461
A014001301CA 1134QUINORET FORTE 4         CRE30G    ITALMEX   00007450000006109000806167501390912780
A014001321CA 1134QUINORET                 CRE30G    ITALMEX   00006450000005289000806167501390912766
A005500771CA 1134SYNALAR NEO 0.01/0.35G   CRE40G    PRODUCTOS 00002052000001400000806167501088505423
A005500781CA 1134SYNALAR SIMPLE 0.025G    CRE20G    PRODUCTOS 00001339800000915000806167501088505454
A005500791CA 1134SYNALAR SIMPLE 0.01G     CRE40G    PRODUCTOS 00001825200001245000806167501088505447
A005500801CA 1134SYNALAR SIMPLE 0.01G     CRE20G    PRODUCTOS 00000975200000670000806167501088505430
A005500811CA 1134SYNALAR OTICO 0.25MG     GOT15ML   PRODUCTOS 00001657800001135000806167501088505485
A000801401CA 1132SYSTANE GEL 0.4          GOT10ML   ALCON LABO00004913300004003400806160300650454179
A080400161CA 1134COVERSAM 5/5MG           COM14     BECKMAN LA00005962300003730000806165391189200776
A080400171CA 1134COVERSAM 10/10MG         COM14     BECKMAN LA00005962300003730000806165391189230759
A080400181CA 1134COVERSAM 10/5MG          COM14     BECKMAN LA00005962300003730000806165391189230797
A080400191CA 1134COVERSAM 5/10MG          COM14     BECKMAN LA00005962300003730000806165391189220767
A080400201CA 1134COVERSAM 5/5MG           COM30     BECKMAN LA00011924600007450000806165391189200851
A005500821CA 1134SYNALAR NASAL 0.10MG     GOT15ML   PRODUCTOS 00001144500000778000806167501088505416
A110503791CA 1134AVALIDE 150/12.5MG       TAB28     SANOFIAVEN00009390100006507700806167501361693021
A004402981CA 1134TEMPRA 100MG             GOT30ML   RECKITT BE00000852700000725800806167501041941848
A110503811CA 0132ICY HOT 29/7.6G          FRA100G   SANOFIAVEN00000944200000571800806167501165008892
A110503821CA 1134APROVASC 300/10MG        TAB28     SANOFIAVEN00014107500009845200806167501165007819
A110503841CA 1134APROVASC 300/5MG         TAB28     SANOFIAVEN00014107500009845200806167501165007833
A003000541CA 1132ARTELAC NIGHTTIME 2MG    TUB10G    BAUSCH Y L00004769200003576900806164030571003359
A027601571CA 1134CEFURACET 7D 500MG (A)   TAB14     SIEGFRIED 00006850000004281300806167501300407207
A003201901CA 1134MYCOSPOR 1G              TUB20G    BAYER DE M00001874500001241900806167501318697287
A017312761CA 1134SIFROL ER 1.5MG          TAB30     BOEHRINGER00026092300018698800806167501037907667
A110503861CA 1132ICY HOT 5 8X12CM         PAR5      SANOFIAVEN00000941400000570100806167501165009035
A143000011CA 1134FIRSITO 10MG             TAB14     ZYDUS     00004608000002949100806168901120002580
A143000021CA 1134FIRSITO 10MG             TAB28     ZYDUS     00008760000005606400806168901120002597
A094800331CA 1134LEXCITOX 10MG            TAB14     SUN PHARMA00006090000004780700806167503006916762
A094800341CA 1134LEXCITOX 10MG            TAB28     SUN PHARMA00010890000008548700806167503006916779
A060500611CA 1134KEPPRA 100MG/ML          FRA150ML  UCB DE MEX00012730000009993100806167501088507755
A027601581CA 1134NAXEN 500MG              TAB15     SIEGFRIED 00001870000001168800806167501300407801
A000302991CA 0132ENSURE ADVANCE VAINILLA  BOT237ML  ABBOTT LAB00000583800000507900806167501033958717
A004402701CA 1134DURACEF 250MG/5ML (A)    FRA100ML  BRISTOL MY00009930000008142700806167501041940964
A140200061CA 1134PILOVAIT 1MG             TAB56     LAKESIDE S00008058100006325700806167501258209748
A129201481CA 1132DUODERM GEL              TUB3X30G  BOSTON MED0000633240000536660080616768455107063 
A082300101CA 1132AEROCHAMBER PLUS INFANT  CAJ1      AEROSOL ME0000537280000365430080616762860013476 
A051200661CA 1132CETAPHIL ANTIBACTERIAL   BAR127G   GALDERMA M00001112100000889700806167502003560527
A140700011CA 1134FORCEDOL 10/25MG         AMP2X1ML  INLAP     00005680000004628200806167502261160002
A140800011CA 1134SINEMET 250/25MG         TAB30     LABORATORI00006460000004522000806167502241941119
A024701331CA 1132ARANTOX 0.7/0.1G         FCO120ML  REPRESENTA00003080000002509700806167501250810720
A003000481CA 1132RENU FRESH LUB Y HUMEC   GOT8ML    BAUSCH Y L0000080860000056600080616310119052136 
A140400061CA 0134INFALIN DUO 3/0.25MG (A) GOT10ML   PRODUCTOS 00002692400002207800806167501124180782
A140400071CA 0134INFALIN 3MG (A)          GOT10ML   PRODUCTOS 00002554600002094800806167501124180799
A010700581CA 1134DAIVOBET 5/50MG          UNG30G    LABORATORI00008210700006445400806165702191008067
A136600321CA 1134MEGION IV 1G (A)         AMP1X10ML SANDOZ    00005169200004212000806167502216932500
A031001071CA 1134TIM ASF 25MG             TAB30     ASOFARMA D00004900000003228000806167730979092883
A031001081CA 1134TIM ASF 100MG            TAB30     ASOFARMA D00011700000007707700806167730979092869
A031001091CA 1134TIM ASF 200MG            TAB30     ASOFARMA D00012010000007911900806167730979092876
A140200261CA 0132DERMAGE JABON            FRA500ML  LAKESIDE S00004419600003469300806167501258211475
A110503521CA 1132ICY HOT 30/10PPM         TUB85G    SANOFIAVEN00001187400000719000806167501165008717
A110503531CA 1132ICY HOT 30/10PPM         TUB35.4G  SANOFIAVEN00000712500000431500806167501165008700
A073800321CA 1134IFA NOREX 50MG (C)       TAB30     INVESTIGAC00005700000004503000806167501249606068
A002401361CA 1134VIMOVO 500/20MG          TAB30     ASTRAZENEC00005900000003470000806167501098607957
A015901041CA 1134FLEVOX 500MG (A)         TAB7      LAKESIDE S00004412800003133000806167501258211758
A015901051CA 1134FLEVOX 500MG (A)         TAB14     LAKESIDE S00005820800004132700806167501258211987
A071301501CA 1132REDERMIC HYALU C UV      CRE40ML   FRABEL    00006456900005068700806163337872413728
A071301511CA 0132EFFACLAR DERMA SENSIBLE  BAR80G    FRABEL    00001112100000873000806167899026437449
A027601461CA 0132BEXIDENT DIENTES SENS    TUB75ML   SIEGFRIED 00001413800000883600806168429420054509
A027601481CA 0132BEXIDENT ENCIAS GEL DENTRGEL75ML   SIEGFRIED 00001836200001147600806168429420008571
A027601491CA 1134UROTROL 2MG              TAB14     SIEGFRIED 00004120000002575000806167502216797475
A027601501CA 1134UROTROL 2MG              TAB28     SIEGFRIED 00007000000004375000806167502216797482
A004402951CA 1134PENTREXYL 250MG (A)      FRA120ML  BRISTOL MY00002280000001869600806168027950210206
A027601531CA 1134VENIBYK 50MG             TAB28     SIEGFRIED 00019010000011881300806167502216797420
A129800071CA 1134FASTUFREM GEL 2.5/100G   GEL50G    LABORATORI00002000000001600000806168470009167677
A003201821CA 1134ASPIRINA PROTECT 100MG   TAB28     BAYER DE M00000780000000580000806167501318612655
A017312681CA 1134BUSCAPINA 10MG           GRA24     BOEHRINGER00001693200001200900806167501037908619
A026003611CA 1134LAMISIL CREMA 2X1        CRE30G    NOVARTIS F00001026100000847300806167501124818005
A110300391CA 1134ACTIKERALL               FRA25ML   ALMIRALL D00013030000008436800806164042762020281
A002401371CA 1134VIMOVO 500/20MG          TAB10     ASTRAZENEC00002200000001300000806167501098608701
A138400101CA 1132KITOSCELL GEL 8/100G     GEL3.5G   CELL PHARM00001231100000995900806167502224228060
A002401411CA 1134SEROQUEL XR 150MG        TAB30     ASTRAZENEC00014430000008500000806165000455019966
A138400071CA 1132ACCUA ASEPTIC GEL 0.008G GEL60G    CELL PHARM00001162500000940300806167502224226424
A027601441CA 1134TAPAZOL 5MG              TAB60     SIEGFRIED 00004380000002737500806167501300408945
A027601451CA 1134VODELAN 500/100MG        TAB14     SIEGFRIED 00004930000003081300806167501300407160
A138400081CA 1132ACCUA ASEPTIC 0.008G     SOL60ML   CELL PHARM00000646600000523100806167502224221030
A010700591CA 1134DAIVOBET 5/50MG          GEL30G    LABORATORI00008210700006445400806165702191009026
A026002451CA 1134ZADITEN                  JBE100ML  NOVARTIS F00006910000005773900806167501124856601
A101800012CA 1132FLEBOTEK C/A EQ VENOCLIS BOL1      LABORATORI00000331700000280600806167501125125331
A019901101CA 1134TRACEFUSIN AMP           SOL20ML   LABORATORI00001988000001681800806167501125102950
A076802101CA 1134SERETIDE EVO CO/DO 120DOSSPR25/50MCGLAXOSMITH00008870800006029900806163393370037415
A070700272CA 1132JERINGA DL 5ML 22X32     BLI1      DENTILAB  00000048400000024200806167501128113236
A110500171CA 1134AMARYL 4MG               COM15     SANOFIAVEN00005783400004036100806167501165001770
A110500121CA 1134ALOSOL (A)               SOL20G    SANOFIAVEN00003207900002238700806167501165001800
A110500041CA 1134ACTONEL 35MG             GRA4      ACTAVIS S 00014691900009829300806167501165002883
A003900332CA 1132NIVEA BODY MILK RESECA   CRE125ML  BDF MEXICO00000208400000181300806164005808802814
A003900302CA 1132NIVEA BODY MILK NORMAL   CRE125ML  BDF MEXICO00000208400000181300806164005808803002
A016000501CA 1132ACCUCHEK ACTIVE GLUC TIRAPZA50     PRODUCTOS 00003774100003019300806164015630064519
A027601831CA 1134LEGIONIS 2X1 40MG        TAB28     SIEGFRIED 00005970000003731300806167501300420039
A001401041CA 1132SINURESIS                BOT20ML   INDUSTRIAS00004957300003866600806167506325000037
A016000511CA 1134GLUCOPHAGE 850MG         TAB40     PRODUCTOS 00004260000002854200806167501009072577
A097200291CA 1134PERDUQUAN 10MG           TAB14     FARMACEUTI00003730000002946700806167502003385953
A097200301CA 1134PERDUQUAN 20MG           TAB14     FARMACEUTI00006530000005158700806167502003385977
A110504111CA 1134APROVASC 150/10MG        TAB28     SANOFIAVEN00011286300007876400806167501165007772
A144600041CA 1134REMOTIV 250MG            TAB30     UP PHARMA 00003500000002800000806167506334400002
A140500321CA 1134DERNUTRAN 1MG/G          TUB30G    ISDIN MEXI00002210000001720000806168429420046566
A097200321CA 1134PERDUQUAN 20MG           TAB28     FARMACEUTI00011380000008990200806167502003385984
A139600381CA 1134ENFAMIL PREMIUM 2        BOT237ML  MEAD JOHNS00000295900000268900806167506205807145
A139600391CA 1134ENFAGROW PREMIUM 3       BTE200ML  MEAD JOHNS00000181000000164400806167506205806872
A027601851CA 1134CEFTREX IM 3X2 1G (A)    FAM3.5ML  SIEGFRIED 00009990000006243800806167501300420053
A000303201CA 1134IRMEGLOL D 150/12.5MG    TAB14     ABBOTT LAB00003885000002214200806167501033959226
A000303211CA 1134FREPADAN 80MG            TAB28     ABBOTT LAB00008925000005048400806167501033959295
A024701581CA 1132JUVENTAGE SKIN CONTORN DEGEL18G    REPRESENTA00003870000003153400806167501250819785
A000303281CA 1134SIMILAC 3                BTE850G   ABBOTT LAB00002717000002445300806167501033958847
A001803371CA 0132AVESOP                   BAR100G   ARMSTRONG 00001800000001166400806167501089812100
A000303221CA 1134FREPADAN 40MG            TAB14     ABBOTT LAB00003675000002214200806167501033959264
A000303231CA 1134FREPADAN 80MG            TAB14     ABBOTT LAB00005260000003073000806167501033959288
A000303241CA 1134IRMEGLOL D 150/12.5MG    TAB28     ABBOTT LAB00007329000004074100806167501033959233
A000303251CA 1134FREPADAN 40MG            TAB28     ABBOTT LAB00006458000003675900806167501033959271
A027601861CA 1134FLUCISTEN 0.4MG          CAP20     SIEGFRIED 00004090000002556300806167502216797444
A001803381CA 1134MONOCORAT DEPOT 50MG     TAB10     ARMSTRONG 00002380000001542200806167501089803115
A075501531CA 1134FLIXOTIDE NEBULES 2MG/2MLAMP10     GLAXOSMITH00007087100004627400806167501043100328
A075501541CA 1134FLIXOTIDE NEBULES 0.5MG/2AMP10     GLAXOSMITH00003628500002369200806167501043100311
A075501551CA 1134MICROMYCIN 100MG (A)     CAP10     GLAXOSMITH00003947900002616900806167502264950389
A000303311CA 0132FREESTYLE OPTIUM NEO     EQP1      ABBOTT LAB0000517030000439450080616093815713616 
A016000521CA 1132ACCUCHEK PERFORMA TIRAS RPZA25     PRODUCTOS 00002713900002171100806164015630981960
A140400291CA 1134CARNOTPRIM LP 30MG       COM10     PRODUCTOS 00003270900002682100806167501124182120
A027301721CA 1134CONAGRAD 120MG           CAP30     LABORATORI00005900000004230600806167501314706273
A027301731CA 1134CONAGRAD 60MG            CAP30     LABORATORI00003700000002653100806167501314706259
A012101241CA 1134KEDROP 0.05              GOT5ML    LABORATORI0000554220000341710080616008400004628 
A020500172CA 1134PEPTO BISMOL             SUS236ML  COMPANIA P0000086850000074350080616020800753050 
A027700071CA 1134CAPTRAL 25MG 11          TAB30     LABORATORI00003990000002470000806167501101640049
A027700871CA 1134SIL NORBORAL 5MG 500MG   TAB40     LABORATORI00004030000002499000806167501101642234
A002400091CA 1134IMDUR                    GRA20     ASTRAZENEC00003690000002170000806167501098610841
A002400391CA 1134LOGIMAX                  TAB14     ASTRAZENEC00004250000002500000806167501098610872
A019502351CA 1134LINCOCIN (A)             JBE100ML  PFIZER    0000248530000198820080616300090444037 
A019502371CA 1134LINCOCIN INF 300MG C/JER(AMP6X1ML  PFIZER    0000538880000431100080616300090555412 
A096600091CA 1134DALACIN C 75MG GRANU (A) SUS100ML  PFIZER    0000306980000245580080616300090760045 
A027700501CA 1134SIL NORBORAL 5/1000MG    TAB40     LABORATORI00007220000004480000806167501101643217
A027700861CA 1134SIL NORBORAL 2.5MG 500MG TAB40     LABORATORI00002950000001829000806167501101643286
A027701171CA 1134GLIMETAL LEX 2/850MG     TAB16     LABORATORI00006030000003740000806167501101649035
A027701181CA 1134GLIMETAL LEX 4/850MG     TAB16     LABORATORI00008090000005020000806167501101649097
A027701191CA 1134PREDIAL PLUS 500MG       TAB30     LABORATORI00003210000001990000806167501101649158
A027701221CA 1134PREDIAL PLUS 850MG       TAB30     LABORATORI00004410000002730000806167501101649219
A019502771CA 1134ERANZ 10MG               TAB28     WYETH     00023054400018443600806167501108715528
A016000531CA 1132ACCUCHEK PERFORMA TIRAS RPZA50     PRODUCTOS 00003901800003121400806164015630981977
A001000691CA 1132OPTIVE 30 UNIDOSIS 9.0/5.SOL0.4ML  ALLERGAN  00004569000003864500806167501201401090
A013101091CA 1134HIDEX IM 100MG           AMP3X1ML  LABORATORI00003090000002101200806167501385494475
A138700081CA 1134PERIPLUM GEL 1G          TUB30G    PANME     00002751800002160200806167501124180720
A141200041CA 1134DILAR 40MG               AMP1X2ML  NOVOPHARM 00002840000002243600806167500225625017
A001000611CA 1134LUMIGAN RC 0.1MG         FCO3ML    ALLERGAN  00007917200006696500806167501201400833
A004402761CA 1134AMIKIN 250MG (A)         FAM2X2ML  BRISTOL MY00006820000005592500806167501041941275
A013101151CA 1134PENAMOX 1G (A)           TAB12     LABORATORI00002640000001821600806167501070635114
A139900041CA 1134EDARBI 40MG              TAB28     TAKEDA MEX00007460000004880300806167502257270081
A139900051CA 1134EDARBI 80MG              TAB28     TAKEDA MEX00010080000006594300806167502257270111
A139900071CA 1134EDARBI 80MG              TAB14     TAKEDA PHA00005820000003807400806167502257270104
A009801491CA 1134REDEVANT 2MG             TAB28     ELI LILLY 00005948300004231400806167501082242461
A009801501CA 1134REDEVANT 4MG             TAB28     ELI LILLY 00006987600004970800806167501082242478
A000801361CA 0132SYSTANE ULTRA            FRA10ML   ALCON LABO00004805700003915800806160300651431681
A093200311CA 1134RADIANCE 3MG/20MCG       TAB28     PROMOTORA 00002960000001968400806167501299330029
A000302781CA 0134DUSPATALIN 200MG         CAP14     ABBOTT LAB00003963000002524800806167501033957512
A000302791CA 0134DUSPATALIN 200MG         CAP28     ABBOTT LAB00007210000004593500806167501033957529
A000302821CA 0134DUSPATALIN PEDIATRICO 1G FRA100ML  ABBOTT LAB00002580000001643700806167501033957536
A000302831CA 0134CREON 150MG              CAP50     ABBOTT LAB00005378000003426300806167501033957505
A026002861CA 1134LAMISIL 250MG            COM20     NOVARTIS F00009650000008063400806167501124813468
A111600262CA 1132EUCERIN HYALURON FILL EYECRE15ML   BDF MEXICO00002828000002460400806164005800057670
A111600252CA 0132EUCERIN HYALUR FILL NOCH TAR50ML   BDF MEXICO00003741100003254800806164005800634864
A019502211CA 1134FACTIVE5 320MG (A)       TAB3      PFIZER    00005209500004167600806167501287612069
A053300142CA 1132AVENE AGUA TERMAL        AER150ML  PIERRE FAB00001767200001555200806163282770930597
A053300152CA 1132AVENE AGUA TERMAL        AER300ML  PIERRE FAB00002327600002048300806163282770930603
A053300172CA 1132AVENE CLEANANCE GEL LIMP FCO200ML  PIERRE FAB00003094800002723400806163282770959888
A053300362CA 1132DUCRAY ELUTION           SHA200ML  PIERRE FAB00002319000002040700806163282771014623
A111800032CA 1134ELECTROLIT COCO PLASCO   SOL625ML  LABORATORI00000317000000268200806167501125104411
A112700342CA 1134ADEROGYL 15 ORAL 3ML     AMP5      SANOFIAVEN00001547000000884500806167501165003040
A026100581CA 1134ASTELIN NASAL            SPR       MEDAP     00004860000003863700806164019338197418
A019903511CA 1134FLUONING 750MG(A)        TAB7      LABORATORI00004840000004094500806167501125118289
A027003081CA 1134LERTAMINE D INF          SOL60ML   BAYER DE M00003094800002033400806167501050623827
A091601062CA 1132GLUCERNA SR FRESA        BOT237ML  ABBOTT LAB00000510000000443700806167501033956140
A091601052CA 1132GLUCERNA SR VAINILLA     BOT237ML  ABBOTT LAB00000510000000443700806167501033956126
A027301491CA 1134FOSFOCIL (A)             SUS120ML  LABORATORI00003750000002688900806167501314701704
A103101941CA 1134ENI 500MG (A)            TAB14     LOGISTICA 00004572500003725800806167501123012923
A115301621CA 1134PANTOZOL 20MG            GRA14     TAKEDA MEX00004310000002819600806167501092777380
A115301631CA 1134TECTA 20MG               TAB14     TAKEDA MEX00004160000002721500806167501092777403
A002401281CA 1134VANNAIR 80/4.5MCG 120D   AER       ASTRAZENEC00006390000003760000806167501098606103
A002401291CA 1134VANNAIR 160/4.5MCG 120D  AER       ASTRAZENEC00007750000004570000806167501098606127
A111300211CA 1134STILNOX CR 12.5MG (C)    TAB28     SANOFIAVEN00011674200009573000806167501165005815
A020500832CA 1134VICK VITAPYRENA MANZANIL SOB5X5G   COMPANIA P00000664300000417800806167506195102640
A006401742CA 0132COLGATE FRESKA RA           100ML  COLGATE PA00000134200000114100806167501035911062
A012101261CA 1134PRED NF OFT              SOL5ML    LABORATORI0000271040000167110080616008400001016 
A091700292CA 1134PEDIALYTE SR60 MANZANA   SOL500ML  ABBOTT LAB00000328000000279200806167501033954740
A091601022CA 1132PEDIASURE PLUS CHOCOLATE BOT237ML  ABBOTT LAB00000506000000440200806167501033956317
A005000522CA 1134RINOFREN                 SOL120ML  APLICACION00000939600000770500806167501124103552
A003902412CA 1132NIVEA ACLARADO NATURAL   ROL50ML   BDF MEXICO00000271200000236000806164005808837472
A003902402CA 1132NIVEA ACLARADO NATURAL   AER150ML  BDF MEXICO00000453200000394300806164005808829675
A003902352CA 1132NIVEA BABY PURE TOA HUM  BOL63     BDF MEXICO00000361500000314400806164005808225958
A003902372CA 0132NIVEA BABY SOFTYCARE TOA BOL63     BDF MEXICO00000361500000314400806164005808225941
A091601002CA 1132PEDIASURE PLUS VAINILLA  LAT400G   ABBOTT LAB00002741000002384700806167501033955693
A062100471CA 1134PENTASA GRANULADO 2G     SOB30     FERRING   00017020500013361100806167503000883398
A121900842CA 1134PHARMATON  40 DESC       CAP100    BOEHRINGER00004158400002922900806167501037906110
A019502941CA 1134PRISTIQ 50MG             TAB28     WYETH     00017276200013820900806167501108767893
A002401271CA 1134ATACAND 32MG             TAB14     ASTRAZENEC00009090000005350000806167501098606035
A008500852CA 0132ALGODON PROTEC PLISADO   BOL100G   DEGASA    00000218300000179600806167501048620906
A008500832CA 0132ALGODON PROTEC PLISADO   BOL300G   DEGASA    00000527900000445100806167501048621200
A008500862CA 0132ALGODON PROTEC PLISADO   BOL50G    DEGASA    00000118800000100300806167501048620807
A051300252CA 0132CETAPHIL UVA/UVB DEFE 50 FCO50ML   GALDERMA M00003465500002772400806163499320003001
A110502871CA 1134BIPROFENID 150MG         COM20     SANOFIAVEN00006629500004626600806167501165006362
A012300852CA 1132ACNEBAR                  JAB100G   GRISI HERM00000648900000436300806167501022150405
A111700012CA 1134ACOMEXOL 10G             TUB30G    ARMSTRONG 00000940000000609100806167501089810045
A026800792CA 1134AFRINEX EFX              TAB12     BAYER DE M00000760600000397400806167501050619943
A120800772CA 1134BENGUE ULTRA GEL         TUB35G    GENOMMA LA0000067500000058330080616650240006647 
A006402062CA 0132PALMOLIVE BRILLANTINA    LIQ52ML   COLGATE PA000001195000001017008061675001872     
A027301521CA 1134BREDELIN 750MG (A)       TAB7      LABORATORI00006800000004875900806167501314701650
A127900051CA 1134IFA LOSE 2MG (C)         TAB30     INVESTIGAC00004300000003397000806167501249605252
A026800162CA 1132MEXSANA TALCO            BOT160G   BAYER DE M00000392200000259900806167501050624015
A026800172CA 1132MEXSANA TALCO            BOT320G   BAYER DE M00000586200000388400806167501050624022
A071300772CA 0132LA ROCHE POS EFFACLAR    GEL200ML  FRABEL    00003181000002497100806163337872411083
A071300721CA 1132LA ROCHE POS KERIUM ANTI BOT125ML  FRABEL    00006112100004798000806163337872411052
A059001401CA 1134LAMISIL VALUE PACK       TUB15G    NOVARTIS F00000553300000456700806167501124814984
A026002871CA 1134LAMISIL 250MG            COM10     NOVARTIS F00005820000004863100806167501124813451
A026800182CA 1132MEXSANA TALCO            BOT80G    BAYER DE M00000271200000145300806167501050624008
A121801641CA 1134MICARDIS PLUS 80MG/12.5  TAB28     BOEHRINGER00010962500007700500806167501037946246
A121801691CA 1134MICARDIS PLUS 80MG/25    TAB14     BOEHRINGER00006508200004618700806167501037946239
A102700032CA 1132MICRODACYN               SOL240ML  MORE PHARM00002440000001390800806167503006698323
A095800061CA 1134MILEVA 35                COM21     LABORATORI00003410000002730000806167502003389555
A059200032CA 0132VIDA MAGNESIO PLUS       CAP60     COYOACAN Q00001190200000892900806167501417004764
A110502411CA 1134OROXADIN 100MG           CAP15     SANOFIAVEN00006296400004394100806167501328977218
A079600232CA 1134SEDALMERCK               TAB20     MERCK     00000689300000389000806167501298281209
A079600242CA 1134SEDALMERCK               TAB40     MERCK     00001214900000738900806167501298281308
A107700281CA 1134CICLOFERON 200MG         TAB25     PROMOTORA 00004860000003231900806167501299300107
A107700412CA 1134CONAZOL K 200MG          TAB10     PROMOTORA 00002250000001496300806167501299300145
A003501391CA 1134NORISTERAT               AMP1ML    BAYER DE M00002480000001843700806167501303449501
A003501171CA 1134ANGELIQ 1/2MG            COM28     BAYER DE M00006440000004787700806167501303451559
A003501582CA 1134ANDROCUR 50MG            TAB20     BAYER DE M00018800000015598700806167501303451566
A003500731CA 1134ADALAT CC 30MG           COM30     BAYER DE M00004460000003315800806167501318635135
A003500661CA 1134ADALAT CC 30MG           COM10     BAYER DE M00001670000001241600806167501318635142
A003500621CA 1134ADALAT OROS 60MG         TAB10     BAYER DE M00003140000002334500806167501318635227
A003500521CA 1134ADALAT RETARD 20MG       COM28     BAYER DE M00002600000001932900806167501318635784
A102000541CA 1134VYTORIN 10/10MG          COM14     MERCK SHAR00006037600004830000806167501326000345
A102000561CA 1134VYTORIN 10/20MG          COM14     MERCK SHAR00006641400005313100806167501326000369
A102000581CA 1134VYTORIN 10/40MG          COM14     MERCK SHAR00009520300007616300806167501326000383
A102000591CA 1134VYTORIN 10/80MG          COM14     MERCK SHAR00011353900009083100806167501326000406
A102000361CA 1134PRINIVIL 20MG            TAB30     MERCK SHAR00009222100007377700806167501326000475
A107700631CA 1134FLAGENASE 500MG          TAB30     PROMOTORA 00001140000000758100806167501299300251
A107700611CA 1134FLAGENASE 400            CAP30     PROMOTORA 00001340000000891100806167501299300275
A107700921CA 1134MUCOVIBROL 30MG          COM20     PROMOTORA 00001420000000944300806167501299300343
A107701671CA 1134SENSIBIT 10MG            TAB10     PROMOTORA 00001710000001137200806167501299300367
A107700521CA 1134ECTAPRIM F (A)           TAB14     PROMOTORA 00001560000001037400806167501299300763
A080400091CA 1134PROTOS 2 GDO             SOB28     BECKMAN LA00012864300008040000806163594456500599
A127300081CA 1134UTROGESTAN 100MG         CAP30     BESINS HEA00005910000003959700806163700039500027
A127300071CA 1134PREMASTAN                GEL80G    BESINS HEA00005730000003839100806163700039500034
A075600442CA 1132PARODONTAX FLUOR PAST       75G    GLAXOSMITH00000753100000489500806165000198281750
A051200501CA 1134SILKIS                   UNG30G    GALDERMA M00008645300006916300806163499320002028
A051200481CA 1134BENZAC AC 2.5 GEL        TUB60G    GALDERMA M00002102000001681600806163499320002394
A051200331CA 1134LOCERYL 5                SOL2.5ML  GALDERMA M00006942800005554200806163499320002523
A051300242CA 1132CETAPHIL                 SHA200ML  GALDERMA M00002327600001862100806163499320002738
A094000181CA 1134MYSOLINE 250MG           TAB50     LABORATORI00003258600002444000806167501086300129
A118300072CA 1134OXAL INF 100/400MG       SOL10ML   LABORATORI00001220000000841800806167501086300136
A118300062CA 1134OXAL JR 200/400MG        SUS20ML   LABORATORI00001220000000841800806167501086300143
A003700682CA 1132PLASTIPAK 5ML 21X32      BLI1      BECTON DIC00000071300000046200806167501073025493
A003700352CA 1132PLASTIPAK 10M 20X32      BLI1      BECTON DIC00000078700000050700806167501073025554
A003700372CA 1132PLASTIPAK 10M 21X32      BLI1      BECTON DIC00000078700000050700806167501073025585
A086600051CA 1134RIBOVAC GDO 500MG        SOB12     PIERRE FAB00008090000006591900806167501088504839
A110501911CA 1134PLAVIX 75 MG             GRA14     SANOFIAVEN00008840800006169800806167501328978994
A110502191CA 1134ENTEROGERMINA 5ML        AMP20     SANOFIAVEN00003560000002484400806167501328980119
A111300101CA 1134VICTAN 2MG (C)           COM30     SANOFIAVEN00005239400004296400806167501328980249
A118300051CA 1134OXAL                     TAB2      LABORATORI00001220000000841800806167501086301041
A001800231CA 1134ATEMPERATOR S            SUS100ML  ARMSTRONG 00002800000001814400806167501089800077
A022100181CA 1134NEUGERON LP 200MG        TAB20     ARMSTRONG 00002910000001885700806167501089800084
A086600031CA 1134RIBOVAC                  TAB12     PIERRE FAB00008090000006591900806167501088504853
A086600081CA 1134PRIMALAN 10MG            COM14     PIERRE FAB00003790000003088200806167501088504976
A005500031CA 1134ALIN                     AMP2ML    PRODUCTOS 00000588500000385000806167501088505003
A005500541CA 1134NEURALIN                 AMP2X1ML  PRODUCTOS 00001133600000750000806167501088505126
A001800151CA 1134ANGIOTROFIN RETARD 180MG TAB10     ARMSTRONG 00003650000002365200806167501089802057
A111300051CA 1134STILNOX 10MG (C)         TAB10     SANOFIAVEN00004493200003684400806167501328979090
A111300061CA 1134STILNOX 10MG (C)         TAB30     SANOFIAVEN00011675500009574100806167501328979106
A110502141CA 1134CO APROVEL 150MG         TAB14     SANOFIAVEN00005191100003597600806167501328979113
A110502161CA 1134CO APROVEL 300MG         TAB14     SANOFIAVEN00007821200005420300806167501328979120
A021900491CA 1134SERTEX 50MG              TAB14     PSICOFARMA00004260000002924900806167501384504823
A112800092CA 1134HISTIACIL FLU            TAB20     SANOFIAVEN00000642600000224200806167501328980317
A110502011CA 1134CO APROVEL 300/25MG      TAB14     SANOFIAVEN00008212200005691400806167501328980331
A110502021CA 1134CO APROVEL 300/25MG      TAB28     SANOFIAVEN00015194900010530600806167501328980348
A005500382CA 1134SCABISAN PLUS            EMU120ML  PRODUCTOS 00000915600000588000806167501088559112
A001802771CA 1134KARET 150MCG             COM50     ARMSTRONG 00004280000002773400806167501089803184
A001800801CA 1134RECOVERON                UNG40G    ARMSTRONG 00002700000001749600806167501089804013
A001802121CA 1134RECOVERON 12G            SOB10     ARMSTRONG 00011000000007128000806167501089804082
A001802641CA 1134AUTRIN 600               GRA36     ARMSTRONG 00003950000002559600806167501089804099
A001800821CA 1134RECOVERON                CRE40G    ARMSTRONG 00002700000001749600806167501089804136
A001800831CA 1134RECOVERON NEOMICINA      UNG40G    ARMSTRONG 00003250000002106000806167501089804310
A098000012CA 1132NATURALAG                SOL15ML   ALCON LABO00001583800001226800806167501088605857
A000800421CA 1134MAXITROL                 UNG3.5G   ALCON LABO00004788300003901600806167501088606304
A000800931CA 1134MAXITROL                 SUS5ML    ALCON LABO00005580700004547300806167501088606403
A000800811CA 1134TOBRADEX                 SUS5ML    ALCON LABO00005859000004774000806167501088606908
A098000022CA 1132NATURALAG                UNG3.5G   ALCON LABO00001617000001252700806167501088607806
A000800841CA 1134TOBREX                   UNG3.5G   ALCON LABO00003394800002766200806167501088607905
A000800961CA 1134TOBREX                   SOL5ML    ALCON LABO00003878600003160400806167501088607950
A094800051CA 1134CITOX 20MG               TAB14     SUN PHARMA00005690000004466700806167503006916076
A094800061CA 1134CITOX 20MG               TAB28     SUN PHARMA00009990000007842200806167503006916083
A094800071CA 1134OXETOL 300MG             TAB20     SUN PHARMA00004560000003579600806167503006916090
A003501231CA 1134DIANE                    GRA21     BAYER DE M00003610000002683900806167896116861566
A001801511CA 1134RECOVERON NC             CRE40G    ARMSTRONG 00003250000002106000806167501089804327
A111700082CA 1134KAOMYCIN                 SUS180ML  ARMSTRONG 00001700000001101600806167501089809452
A001801951CA 1134ESKAPAR 400MG            CAP16     ARMSTRONG 00001750000001134000806167501089809506
A001801502CA 1134ESKAPAR                  SUS90ML   ARMSTRONG 00001440000000933100806167501089809513
A001000502CA 1132OPTIVE GOTAS             GOT10ML   ALLERGAN  00004127300003490900806167501201400710
A005000532CA 1134RINOFREN                 COM24     APLICACION00001058400000867900806167501124103514
A019502491CA 1134DETRUSITOL SR 4MG        CAP14     PFIZER    00009341600007473300806167501142936286
A111800292CA 1134AGRIFEN                  TAB10     MDR PHARMA00000212500000153700806167501125116810
A110500621CA 1134LASILACTON 50MG/20MG     CAP16     SANOFIAVEN00003529200002462900806167501165000179
A103101121CA 1134TRIMEXAZOL 3ML (A)       AMP6      LOGISTICA 00002370700001845500806167501122967705
A110500611CA 1134LASIX 20MG 2ML           AMP5      SANOFIAVEN00002241600001564400806167501165000186
A110500641CA 1134LASIX 40MG               TAB24     SANOFIAVEN00001706900001191200806167501165000193
A110500811CA 1134NEO MELUBRINA 500MG      COM10     SANOFIAVEN00000787200000549400806167501165000230
A110500791CA 1134NEO MELUBRINA 1G 2ML     AMP5      SANOFIAVEN00001060100000739900806167501165000254
A103100232CA 1134BREACOL INF              JBE120ML  LOGISTICA 00001262400001028600806167501123013418
A103100971CA 1134OTO ENI (A)              SUS10ML   LOGISTICA 00003048500002484000806167501123013807
A103100391CA 1134DIAMIN 10MG              TAB20     LOGISTICA 00006516700005310000806167501123013814
A103100531CA 1134ENI OFTALMICO 3MG        GOT5ML    LOGISTICA 00002624700002138700806167501123013821
A103101261CA 1134VILONA                   SOL120ML  LOGISTICA 00005000000003892400806167501122969310
A103101271CA 1134VILONA 400MG             CAP18     LOGISTICA 00014976700011659300806167501122969419
A103101561CA 1134FIRAC PLUS               GRA20     LOGISTICA 00002566900002091600806167501123014101
A103100671CA 1134FIRAC 100MG 2ML          F A5      LOGISTICA 00000926500000754900806167501123014514
A103100711CA 1134FIRAC PLUS 100MG         AMP6      LOGISTICA 00002467400002010500806167501123014521
A103100681CA 1134FIRAC 125MG              TAB10     LOGISTICA 00001609100001311100806167501123014613
A103100691CA 1134FIRAC 250MG              TAB10     LOGISTICA 00002439400001987900806167501123014644
A135000061CA 1134LEPONEX 100MG (C)        TAB30     NOVARTIS F00030560000026882500806167501124852108
A026001421CA 1234MIACALCIC NASAL 200UI (R)AER2ML    NOVARTIS F00022250000018591700806167501124853181
A026200072CA 1134SYNCOL                   COM24     LABORATORI00001070000000684800806167501070600556
A026200172CA 1134SYNCOL MAX               COM12     LABORATORI00001010000000646400806167501070600730
A026200342CA 1132REPLENS 5.9G             APL6      CHURCH Y D00002900000002384100806167501070600853
A026100541CA 1134TREDA                    TAB20     LABORATORI00001640000001148000806167501070612368
A076700321CA 1134RAPIVIR 500MG            TAB42     GLAXOSMITH00028251100018446100806167501043161626
A076700371CA 1134RAPIVIR 500MG            TAB10     GLAXOSMITH00007945100005187600806167501043161640
A110501831CA 1134PROFENID I.V 100MG       FAM3      SANOFIAVEN00003594500002508500806167501165005617
A110501841CA 1134NEUROFLAX 20/4 MG        FAM3      LABORATORI00008670000006069000806167501165005624
A010700151CA 1134SALOFALK 250MG           COM60     LABORATORI00004957000004064700806167501168810409
A017000401CA 1134SOLUCAPS (C)             CAP30     PRODUCTOS 00006066800004762600806167501293200366
A017000062CA 1132CROMOTEX                 CAP30     PRODUCTOS 00002838400002228200806167501293200465
A017000432CA 1134VITALAIF                 CAP60     PRODUCTOS 00003269000002566100806167501293200540
A017000321CA 1134REDOTEX NF (C)           CAP30     PRODUCTOS 00008732700006855200806167501293200595
A017000411CA 1134TEROCAPS                 CAP60     PRODUCTOS 00004358100003421300806167501293200625
A017000462CA 1134CRONOCAPS 3MG            CAP30     PRODUCTOS 00002181800001712800806167501293200649
A017000472CA 1134CRONOCAPS 5MG            CAP30     PRODUCTOS 00003701600002905800806167501293200656
A027002991CA 1134CELESTAMINE NS           TAB20     BAYER DE M00003888600002441600806167501050600026
A093400051CA 1134CELESTONE PED            GOT60ML   LABORATORI00002560000001792000806167501050623629
A093300042CA 1134CLOROTRIMETON REPET 12MG GRA20     BAYER DE M00000914400000561500806167501050624640
A093400121CA 1134ZINTREPID 10/10MG        COM14     LABORATORI00006550000004585000806167501050612319
A029600061CA 1134A.F. VALDECASAS 5MG      TAB20     LABORATORI00000171000000133400806167501446000010
A093400151CA 1134ZINTREPID 10/20MG        COM14     LABORATORI00007200000005040000806167501050612357
A013101011CA 1134PENAMOX 500MG (A)        CAP12     LABORATORI00001850000001276500806167501070635183
A013100961CA 1134PENAMOX 250MG (A)        SUS75ML   LABORATORI00001690000001166100806167501070635237
A013100981CA 1134PENAMOX 500MG SUSP (A)   FCO75ML   LABORATORI00001980000001366200806167501070635299
A102600322CA 1134CEFTRIAXONA GI 1G KENDR (AMP3.5ML  SANOFIAVEN00001804100000464100806167501361680151
A027600662CA 1132BEXIDENT TRICLOSAN COLUT SOL250ML  SIEGFRIED 00002094800001309300806168430206280180
A027600652CA 1132BEXIDENT TRICLOSAN       TUB75ML   SIEGFRIED 00001698300001061400806168430206280197
A027600642CA 1132BEXIDENT ENCIAS 0.20     SPR40ML   SIEGFRIED 00003059500001912200806168430206280272
A027600602CA 1132BEXIDENT ENCIAS GEL 0.20 TUB50ML   SIEGFRIED 00002370700001481700806168430206280289
A110300151CA 1134BRISTAFLAM 100MG POLVO   SOB20     ALMIRALL D00004168500002658800806168430308002253
A110300032CA 1134BRISTAFLAM CREMA         TUB60G    ALMIRALL D00002717800001778300806168430308015109
A110300112CA 1134ALMAX 1G/7.5ML           SOL225ML  ALMIRALL D00002268000001455800806168430308320517
A110300131CA 1134PEMIX 1MG                SOB30     ALMIRALL D00003733600002396700806168430308413516
A110300141CA 1134EVASTEL 20MG             COM10     ALMIRALL D00003699400002420500806168430308624516
A033900222CA 1134ARIMIDEX 1MG             COM28     ASTRAZENEC00030350000025410000806167501324403711
A033900292CA 1134CASODEX 150MG            CAP28     ASTRAZENEC00055020000046060000806167501324472137
A079400841CA 1134EUTIROX 150MCG           TAB50     MERCK     00005653300003639000806167501298210766
A121700012CA 1132SKINCAP                  SHA150ML  CHEMINOVA 00005220000004090000806168470000478949
A103101331CA 1134VIRAZIDE GOTAS           FCO15ML   LOGISTICA 000012862000010013008061675004958     
A103100571CA 1134ESPACIL SIMPLE           GOT15ML   LOGISTICA 000018148000014788008061675004972     
A003501221CA 1134CLIMENE                  GRA21     BAYER DE M00006730000005003500806167896116861559
A090600011CA 1134POSTINOR 2 1.5MG         TAB1      GEDEON RIC00001500000000839000806167501590211232
A115301641CA 1134FLEET ENEMA ADULTO       SOL133ML  TAKEDA MEX0000115000000075230080616301320010206 
A051300022CA 1132DERMACROM                LOC120ML  GALDERMA M00002844800002275900806167502003560107
A051300122CA 1132KAPPA ELASTIN            CRE60G    GALDERMA M00003965500003172400806167502003560213
A114500041CA 1134VIVIOPTAL 40/35/10MG     CAP90     BOMUCA    00008336100006655500806167501587010497
A074100441CA 1134DOXIUM 500MG             CAP30     GRUNENTAL 00005930800004744700806167502209290181
A019903241CA 1134PISAURIT 20MG            CAP14     LABORATORI00002975600002517200806167501125123252
A111700192CA 1134NOVO HERKLIN 2000 5      CRE60G    ARMSTRONG 00000910000000589700806167501089810359
A026800852CA 1134LOTRIMIN AF              AER100G   BAYER DE M00000970500000575900806167501050630023
A110200231CA 1134MINITRAN 18MG ( 5MG/24H) PAR10     MORE PHARM0000573000000389640080616891671002215 
A000302721CA 1134SIMILAC TOTAL COMFORT HA POL820G   ABBOTT LAB00004293000003863700806167501033957390
A075501071CA 1134AVODART 0.5MG            CAP90     GLAXOSMITH00020608400014008400806167501043195713
A075501081CA 1134SERETIDE DISKUS 50/100MG POL60DOSISGLAXOSMITH00012895400008765500806167501043100830
A140400011CA 1134LIBERTRIM SII 100/37.5MG COM20     PRODUCTOS 00002598500002130800806167501070903688
A136600091CA 1134DESLIBAL 5MG             TAB30     SANDOZ    00004995200004070200806167502216931763
A093200281CA 1134SUPRADOL SUBLINGUAL 30MG TAB2      PROMOTORA 00000940000000625100806167501299306123
A017000851CA 1132SENEX 3 1.5G             SOB30     PRODUCTOS 00005890500004624100806167501293201646
A140400021CA 1134REPAFET 10MG             TAB20     PRODUCTOS 00005280000004329700806167501124180201
A079401251CA 1134HEALCREM 35G             CRE50G    MERCK     00001637000000983100806167501298218700
A075501121CA 1134SERETIDE 120 DOSIS 11 25/AER       GLAXOSMITH00014004900009519700806167501043100861
A075501131CA 1134SERETIDE EVOH 25/50MCG   AER120DS  GLAXOSMITH00013306200009044800806167501043100854
A107700402CA 1134CONAZOL                  CRE40G    PROMOTORA 00000890000000591800806167501299303061
A107900202CA 1134CONAZOL K CREMA          TUB30G    PROMOTORA 00000670000000445600806167501299303078
A003200112CA 1134TABCIN                   TAB12     BAYER DE M00000302800000200600806167501008485316
A003201212CA 1134TABCIN 500               TAB12     BAYER DE M00000345000000228500806167501008485408
A003200802CA 1132MERTHIOLATE BLANCO       SOL60ML   BAYER DE M00000382200000253200806167501008486528
A003201382CA 1132MERTHIOLATE ATOMIZ BLANCO   60ML   BAYER DE M00000524200000347300806167501008486559
A003201402CA 1132MERTHIOLATE ROJO         SOL60ML   BAYER DE M00000382200000253200806167501008486566
A003200722CA 1134CEVALIN 500MG            TAB100    BAYER DE M00001686700001117400806167501008465653
A024900601CA 1134ROCEPHIN IV 500MG (A)    AMP       PRODUCTOS 00003720000002492400806167501009007418
A024900591CA 1134ROCEPHIN IV 1G (A)       AMP       PRODUCTOS 00006810000004562700806167501009007425
A132800421CA 1134BREDELIN 500MG (A)       TAB7      LABORATORI00006050000004338100806167501314701612
A132800171CA 1134FOSFOCIL IM 1G (A)       AMP       LABORATORI00001350000000968100806167501314701711
A132800161CA 1134FOSFOCIL IM 0.5G (A)     AMP       LABORATORI00001000000000717000806167501314701728
A132800181CA 1134FOSFOCIL IV 1G (A)       AMP       LABORATORI00001500000001036000806167501314701735
A132800151CA 1134FOSFOCIL (A)             SUS60ML   LABORATORI00002350000001685200806167501314701742
A132800401CA 1134FOSFOCIL 500MG (A)       CAP6      LABORATORI00002650000001830200806167501314701759
A003500791CA 1134AMOBAY 500MG (A)         CAP15     BAYER DE M00001330000000988800806167501318657304
A003201911CA 1134AMOBAY CL 400/57MG (A)   SUS70ML   BAYER DE M00002660000001977700806167501318657526
A107900172CA 1134CICLOFERON PIEL          TUB2G     PROMOTORA 00000670000000445600806167501299303085
A132800071CA 1134DIMEGAND                 JBE60ML   LABORATORI00003450000002473800806167501314703647
A132800021CA 1134DIMEGAN 10MG             CAP10     LABORATORI00002850000002043600806167501314703753
A132800011CA 1134DIMEGAN 10MG             CAP20     LABORATORI00004550000003262500806167501314703760
A132800441CA 1134DIMEGAN PED              SOL30ML   LABORATORI00002200000001577500806167501314703777
A132800031CA 1134DIMEGAN                  JBE60ML   LABORATORI00002800000002007700806167501314703784
A132800341CA 1134RAPIX 30MG/2ML           AMP3      LABORATORI00002500000001792600806167501314703814
A132800331CA 1134RAPIX 10MG               CAP10     LABORATORI00001850000001326600806167501314703821
A091600752CA 1132ENSURE PLUS FRESA SINGLESBOT237ML  ABBOTT LAB00000519000000451500806167501033954139
A000301531CA 1134KLARICID OD 500MG (A)    TAB10     ABBOTT LAB00008262000005263700806167501033921285
A000301601CA 1134EPIVAL SPRINKLE 125MG    CAP60     ABBOTT LAB00005886000003750000806167501033921292
A012300832CA 1132AXEL CONTROL AZUFRE      JAB125G   GRISI HERM00000377700000253800806167501022101896
A012300862CA 1134AXEL CONTROL AZUFRE      CRE20G    GRISI HERM00000497800000334500806167501022101780
A093500321CA 1134AZOMYR 5MG               TAB30     LABORATORI00007610000005327000806167501050620659
A093500311CA 1134AZOMYR 50MG              JBE120ML  LABORATORI00004110000002877000806167501050607643
A110502841CA 1134AMARYL M 2MG/1000MG      TAB16     SANOFIAVEN00006321100004411300806167501165005822
A112500012CA 1134BRONCOLIN                JBE140ML  BRONCOLIN 0000071030000056830080616714706100307 
A020401582CA 1132NATURELLA F MODERADO ALASBOL10     COMPANIA P00000158800000142900806167501001157296
A020401592CA 0132NATURELLA F MODERADO ALASBOL14     COMPANIA P0000033630000029640080616037000394945 
A091700372CA 1134PEDIALYTE 30 CZA CALOR   SOL500ML  ABBOTT LAB00000307000000261300806167501033956638
A012101331CA 1134SOFTRAM C 1MG/3MG OFT    GOT5ML    LABORATORI0000505270000300090080616008400005236 
A012101341CA 1134SOFTRAM OFT 1MG          GOT5ML    LABORATORI0000292480000180330080616008400005243 
A120802481CA 1134TUKOL D AD               JAR125ML  GENOMMA LA0000062000000053580080616650240010712 
A027600081CA 1134ENALADIL 10MG DUAL 11    TAB30     SIEGFRIED 00006810000004256300806167501300408884
A027600831CA 1134CEFURACET 250MG (A)      SUS50ML   SIEGFRIED 00004670000002918800806167501300409010
A027600851CA 1134CEFURACET 500MG (A)      TAB10     SIEGFRIED 00005150000003218800806167501300409034
A003501081CA 1134OPTOCEF 250MG (A)        SUS75ML   BAYER DE M00002570000001910700806167501318606227
A003500171CA 1134BINOTAL 1.0G (A)         COM12     LAKESIDE S00001653600001354100806167501318606784
A003501001CA 1134ACTRON 400MG             CAP10     BAYER DE M00000830000000617100806167501318608900
A003500991CA 1134ACTRON 200MG             CAP10     BAYER DE M00000550000000409600806167501318608924
A003501021CA 1134ACTRON 600MG             CAP10     BAYER DE M00000890000000661600806167501318609020
A003500771CA 1134AVELOX 400MG (A)         TAB5      BAYER DE M00005640000004193000806167501318610798
A102000781CA 1134JANUMET 50/500MG         COM56     MERCK SHAR00012031600009625300806167501326004190
A102000791CA 1134JANUMET 50/850MG         COM56     MERCK SHAR00012171000009736800806167501326004947
A102000801CA 1134JANUMET 50/1000MG        COM56     MERCK SHAR00012176000009740800806167501326004954
A102000691CA 1134HYZAAR 100/12.5MG        TAB15     MERCK SHAR00008333100006666500806167501326007320
A102000701CA 1134HYZAAR 100/12.5MG        TAB30     MERCK SHAR00014114900011291900806167501326007368
A102000551CA 1134VYTORIN 10/10MG          TAB28     MERCK SHAR00012083700009667000806167501326008396
A079400161CA 1134DABEX 500MG              TAB60     MERCK     00003457100002225300806167501298219509
A079400171CA 1134DABEX 850MG              TAB30     MERCK     00002887400001858600806167501298219608
A079400321CA 1134DOLO NEUROBION           TAB30     MERCK     00003479100001939100806167501298220406
A079400351CA 1134DOLO NEUROBION FORTE     TAB30     MERCK     00004689500002613700806167501298221403
A027600501CA 1134AMINOEFEDRISON NF        JAR150ML  SIEGFRIED 00002940000001837500806167501300409584
A027600351CA 1134DORIXINA F 250MG         TAB10     SIEGFRIED 00003220000002012500806167501300409713
A027600071CA 1134ENALADIL 10MG            COM10     SIEGFRIED 00001760000001100000806167501300409805
A027600091CA 1134ENALADIL 20MG            COM10     SIEGFRIED 00003040000001900000806167501300409812
A027600061CA 1134DORIXINA 125MG           TAB10     SIEGFRIED 00002120000001325000806167501300409881
A027600051CA 1134DORIXINA                 AMP5X2ML  SIEGFRIED 00001370000000856300806167501300409898
A027600861CA 1134CLENDIX 300MG (A)        CAP21     SIEGFRIED 00005670000003543800806167501300409911
A003501041CA 1134AXOL 300MG JARABE        SOL120ML  BAYER DE M00001660000001234200806167501318613737
A003501031CA 1134AXOL 30MG                CAP20     BAYER DE M00001590000001182200806167501318613805
A003500911CA 1134LEVITRA 20MG             TAB1      BAYER DE M00002840000002111600806167501318620162
A012100231CA 1134LEVODEXAN                SOL10ML   LABORATORI0000289550000187450080616008400000347 
A012100241CA 1134LEVOFENIL                SOL5ML    LABORATORI0000394530000222100080616008400000354 
A012100261CA 1134NEOBACIGRIN              SOL5ML    LABORATORI0000392200000241810080616008400000361 
A012100281CA 1134NEOBACIGRIN              UNG5G     LABORATORI0000340970000210220080616008400000378 
A019501311CA 1134LOPID 600MG              TAB14     PFIZER    00007794600006235700806167501057002168
A120100112CA 1134CALADRYL                 LOC180ML  LOGISTICA 00001035300000773300806167501057005312
A093500451CA 1134CEDAX 400MG (A)          CAP10     MERCK SHAR00010730300008584200806167501050615112
A026800712CA 1132MEXSANA LADY TALCO       BOT160G   BAYER DE M00000437400000289800806167501050615617
A093300302CA 1134BIOMETRIX AOX            CAP30     BAYER DE M00002901400001006200806167501050616638
A093500301CA 1134AVIANT GOTAS 50 MG       FCO60ML   MERCK SHAR00003554300002843500806167501050616942
A093500291CA 1134AZOMYR GOTAS 50MG        FCO60ML   LABORATORI00003830000002681000806167501050616973
A026800961CA 1134DESENFRIOL D             TAB24     BAYER DE M00000567800000329100806167501050617055
A120100122CA 1134CALADRYL CLEAR           LOC180ML  LOGISTICA 00001217200000909700806167501057005848
A005000871CA 1134LIBERTRIM 50MG 5ML       AMP6      APLICACION00005280500004330100806167501070901059
A005000681CA 1134LIBERAN                  COM60     APLICACION00001717700001408500806167501070901080
A005000711CA 1134LM6                      GOT30ML   APLICACION00000878600000720500806167501070901301
A110500951CA 1134PLASIL                   GOT20ML   LABORATORI00001660000001162000806167501061014003
A110501031CA 1134RIFADIN 300MG (A)        CAP16     SANOFIAVEN00004435400003095300806167501061017004
A110501091CA 1134RIFOCYNA 1G/100ML (A)    SPR20ML   SANOFIAVEN00002827500001973200806167501061019008
A110501071CA 1134RIFATER 150/75/400MG (A) GRA24     SANOFIAVEN00005486000003828500806167501061019206
A019501171CA 1134EPAMIN SP 250MG          AMP5X5ML  PFIZER    00007719600006175700806167501287652362
A059001532CA 1134TENALIF MIELLIM INF33    JBE200ML  NOVARTIS F00001393000001149800806167501124815660
A114900072CA 1134SPLASH TEARS GOTAS       FCO15ML   SOPHIA COM0000090260000073200080616736085405422 
A137100112CA 0132GLICOLIC CHAMPU          FCO240ML  ITALMEX   00004310000003448000806167705849004143
A060500391CA 1134XUZAL 5MG                TAB30     UCB DE MEX00007700000006044500806167501088507618
A001801011CA 1134PLENACOR LP 50/20MG      CAP10     ARMSTRONG 00003230000002093000806167501089802460
A001802831CA 1134GANGLIOSIDE 10MG         TAB20     ARMSTRONG 00002910000001885700806167501089803337
A001802841CA 1134DIOXAFLEX DUO 50MG/4MG   TAB15     ARMSTRONG 00003880000002514200806167501089809797
A110300231CA 1134SEKISAN                  JAR120ML  ALMIRALL D00001701300001113100806168430308020059
A074200531CA 1134TREMECOX 300/7.5MG       TAB20     INLAP     00007360000005997100806167501250838458
A074200541CA 1134TREMECOX 300/15MG        TAB10     INLAP     00007430000006054200806167501250838441
A111900361CA 1134TREMEPEN                 CAP20     REPRESENTA00007279900005931900806167501250838236
A125100031CA 1134TREVISSAGE 10MG (C)      CAP30     PIERRE FAB00006900000005589000806167501088504617
A137100232CA 1132SALILEX                  BAR120G   ITALMEX   00002150000001720000806167703281003946
A115301361CA 1134VENALOT DEPOT 180/30MG   TAB30     TAKEDA MEX00004480000002930800806167501092773511
A115300301CA 1134FERRANINA COMPLEX        GRA30     TAKEDA MEX00003720000002433600806167501092772415
A115300731CA 1134PASPAT 0.2 ML (A)        AMP10     TAKEDA MEX00011910000007791500806167501092787020
A115300811CA 1134RIOPAN MASTICABLES       TAB24     TAKEDA MEX00001770000001157900806167501092793021
A115300781CA 1134RIOPAN GEL FRASCO        SUS250ML  TAKEDA MEX00002200000001439200806167501092793038
A115300801CA 1134RIOPAN GEL 10ML          SOB20     TAKEDA MEX00001890000001236400806167501092793045
A115301761CA 1134RIOPAN GEL 10ML          SOB10     TAKEDA MEX00001030000000673800806167501092793052
A115300861CA 1134VASODIL 40MG             COM24     TAKEDA MEX00003580000002342000806167501092799030
A133000281CA 1134OVESTIN                  CRE15G    ASPEN LABS00005420600003621000806167501409201270
A110501121CA 1134SECNIDAL 500MG           COM8      SANOFIAVEN00003828000002671500806167501072310217
A009801141CA 1134ZACTOS 30MG              TAB7      ELI LILLY 00006657300004537600806167501082221077
A009801151CA 1134ZACTOS 45MG              TAB7      ELI LILLY 00007357200005014500806167501082221084
A110502762CA 1134CLEXANE 80MG             INY2      SANOFIAVEN00010688500009509600806167501072350305
A109300092CA 1132ORAL B CLASICO SUAVE 35  CEP       COMPANIA P00000230100000202600806167501086494262
A109300112CA 1132ORAL B CLASICO SUAVE 60  CEP       COMPANIA P00000230600000202600806167501086494286
A031901231CA 1134AZILECT 1MG              TAB30     LEMERY    00032917500026331800806167501559601333
A110502101CA 1134APROVEL 300MG            TAB28     SANOFIAVEN00014132700009794500806167501328979311
A110502661CA 1134PRIMPERAN 10MG           TAB20     LABORATORI00001350000000945000806167501328979328
A110502431CA 1134PIRIMIR 100MG            COM24     SANOFIAVEN00001865300001301800806167501328979366
A112800052CA 1134HISTIACIL                TAB20     SANOFIAVEN00001173000000703100806167501328979380
A000801231CA 1134TRAVATAN                 SOL2.5ML  ALCON LABO00008256000006727200806167501088617553
A098000042CA 1134SOLUTINA F 5ML           SOL15ML   ALCON LABO00000831300000643900806167501088617904
A013100191CA 1134HEMOSIN K 2ML            FAM3      LABORATORI00002650000001855000806167501385410055
A013100081CA 1134DANZEN 5MG               TAB30     LABORATORI00001910000001337000806167501385420061
A115300341CA 1134FERRANINA                SOL100ML  TAKEDA MEX00002060000001347700806167501092743026
A112700252CA 1134MELOX PLUS MENTA         SUS360ML  SANOFIAVEN00000933500000578800806167501072310378
A112700262CA 1134MELOX PLUS CEREZA        SUS360ML  SANOFIAVEN00000933500000578800806167501072310392
A110500251CA 1134BIFEBRAL                 COM12     LABORATORI00002220000001554000806167501072340030
A110500501CA 1134FLAGYL 250MG             COM30     SANOFIAVEN00000799400000557800806167501072340078
A110500521CA 1134FLAGYL 500MG             COM30     SANOFIAVEN00001494400001042900806167501072340092
A110500541CA 1134FLAGYSTATIN V            OVU10     SANOFIAVEN00003476200002425900806167501072340108
A103500102CA 1134ARBISTIN PEDIATRICO      JAR150ML  BYK GULDEN00001890000001236400806167501092774761
A115301171CA 1134TECTA 40MG               TAB7      TAKEDA MEX00004010000002623300806167501092774822
A115301181CA 1134TECTA 40MG               TAB14     TAKEDA MEX00007140000004671000806167501092774839
A133000101CA 1134MERCILON                 TAB21     LABORATORI00003070000002149000806167501409201539
A133000391CA 1134REMERON SOLTAB DISP 30MG TAB12     LABORATORI00008420000005894000806167501409201546
A133000111CA 1134METRIGEN FUERTE          AMP1ML    ASPEN LABS00002284300001525900806167501409201553
A110500531CA 1134FLAGYL V                 OVU10     SANOFIAVEN00001284300000896300806167501072340115
A110502751CA 1134FLAGYL BOLSA 500MG (A)   SOL100ML  SANOFIAVEN00001906400001696200806167501072340139
A110500491CA 1134FLAGYL 125MG             SUS120ML  SANOFIAVEN00000982900000685900806167501072340153
A031400191CA 1134ZYPREXA ZYDIS 10MG       TAB14     ELI LILLY 00017969500013814600806167501082242096
A121900602CA 1134DULCOLAX                 GRA10     BOEHRINGER00000645000000463000806167501037911183
A000801331CA 1134DUOTRAV                  SOL2.5ML  ALCON LABO00009670600007879800806167501088619557
A079400901CA 1134DEFLOX                   SUS120ML  MERCK     00002201000001416800806167501298212371
A114800161CA 1134DELTA CORTI OFT 0.5      GOT5ML    SOPHIA COM0000168970000137610080616736085148060 
A079400921CA 1134DABEX XR 750MG           TAB30     MERCK     00003532900002274100806167501298213569
A079400971CA 1134DABEX XR 750MG           TAB60     MERCK     00006240300004016900806167501298214207
A019502271CA 1134DALACIN T                SOL30ML   PFIZER    0000344360000275490080616300093116016 
A020603032CA 0132OLD SPICE DES PURE SPORT BAR60G    COMPANIA P00000323600000290100806167501001164003
A062500102CA 0134POMADA DE MANZANA        TAR50G    PRODUCTOS 00000189500000123200806167502001631120
A103101982CA 0132DERMATIX ULTRA           TUB15G    LOGISTICA 00006386100005203600806167501122900313
A020100072CA 1134CALCID SURT FCO          PAS100    PROVENTAS 00000495000000371300806167501124311100
A005000541CA 1134CARNOTPRIM 15MG 12H      COM20     APLICACION00003400400002788400806167501124103484
A129800011CA 1134DEBROMU 40MG             TAB30     A MENARINI00006730000005384000806167501385494246
A053302822CA 0132DEXERYL                  CRE250G   PIERRE FAB00001250000001100000806163282776432026
A109300392CA 1132PRO DDUTY MED COPETE     CEP1      COMPANIA P00000204400000173800806167501086472048
A077100261CA 1134EBIXA 10MG               TAB56     LUNDBECK M00018690000014952000806167503003746232
A136600121CA 1134RUPILIP 20MG             TAB30     SANOFIAVEN00008657900004514400806167502216931787
A073800281CA 1134ITRAVIL AP 60MG (C)      TAB30     INVESTIGAC00005400000004266000806167501249601322
A073800291CA 1134ACXION AP 30MG (C)       TAB30     INVESTIGAC00003900000003081000806167501249605849
A110503151CA 1134PRIMACORT 1MG/1ML        AMP3X10ML SANOFIAVEN00039476600035122700806167501165007581
A017312391CA 1134PHARMATON PROTECT        CAP30     BOEHRINGER00002482700001759900806167501034635280
A017312401CA 1134PHARMATON PROTECT        CAP60     BOEHRINGER00003883300002760600806167501034635297
A130900101CA 1134EYESTIL LUB 1.5MG        GOT10ML   LABORATORI00004020000002566400806167503014492029
A012101401CA 1134LUBRIK 14MG/ML           FRA15ML   LABORATORI0000160660000099050080616008400001603 
A092700161CA 1132PRUDENCE SAB NARANJA     PZA3      DKT DE MEX00000332900000187800806167502214982507
A092700171CA 1132PRUDENCE SAB CHOCOLATE   PZA3      DKT DE MEX00000332900000187800806167502214982514
A092700181CA 1132PRUDENCE SAB MENTA       PZA3      DKT DE MEX00000332900000187800806167502214982484
A092700191CA 1132PRUDENCE ANILLOS Y PUNTOSPZA3      DKT DE MEX00000392300000216100806167502214982538
A092700201CA 1132PRUDENCE SAB MIX         PZA5      DKT DE MEX00000468100000264000806167502214982811
A016200182CA 1132TIRALECHE CRISTAL LEROY  BOL1      LABORATORI0000073290000063760080616729513100488 
A098000082CA 1134SOLUTINA CAJA            GOT15ML   ALCON LABO000008313000006439008061675007027     
A119700111CA 1134TRIVAFLUC 250/37.5/500MG TAB4      REPRESENTA00006669900005434800806167501250838588
A077100151CA 1134SERLECT 4MG              TAB10     LUNDBECK M00007850000006280000806167503003746249
A016200832CA 0132TERMOMETRO ORAL LEROY    CAJ1      LABORATORI0000025850000022490080616729513100464 
A082000592CA 1132STERIMAR BEBE            SPR50ML   CHURCH Y D00001691000001360200806167501080912274
A135100141CA 1134TALPRAMIN 25MG (C)       TAB20     PSICOFARMA00003200000002544000806167501384503215
A135100101CA 1134LEPTOPSIQUE 4MG (C)      TAB30     PSICOFARMA00002080000001653600806167501384503239
A021900331CA 1134KINEX 2MG                TAB30     PSICOFARMA00001920000001318200806167501384503260
A021900371CA 1134PRIDONA 250MG            TAB50     PSICOFARMA00002610000001792000806167501384503307
A135100161CA 1134PONTIRIDE 50MG (C)       TAB50     PSICOFARMA00001520000001208400806167501384504267
A021900051CA 1134CARBAZINA 200MG          TAB20     PSICOFARMA00001900000001304500806167501384504304
A076801131CA 1134LAMICTAL DISPERSAB 5MG   TAB28     GLAXOSMITH00002152700001405600806167501046428016
A076800951CA 1134LAMICTAL DISPERSAB 25MG  TAB28     GLAXOSMITH00003641500002377700806167501046428696
A076801111CA 1134LAMICTAL DISPERSAB 100MG TAB14     GLAXOSMITH00005778600003773100806167501046429716
A093400181CA 1134ZINTREPID 10/40MG        COM14     LABORATORI00009280000006496000806167501050612418
A093400191CA 1134ZINTREPID 10/40MG        COM28     LABORATORI00015110000010577000806167501050612456
A100500062CA 1132COMODO EDIGAR                      EDIGAR    00000997500000778000806167501463306003
A014000401CA 1134MACMIROR COMP CRE APLIC 6TUB30G    ITALMEX   00004110000003370200806167501390911547
A014000391CA 1134MACMIROR 400 (A)         CAP8      ITALMEX   00002530000002074600806167501390911554
A014000751CA 1134MACMIROR COMPLEX V (A)   OVU6      ITALMEX   00003830000003140600806167501390911561
A021900241CA 1134FENITRON 100MG           TAB50     PSICOFARMA00002280000001565600806167501384504328
A138600101CA 1234INDOXYL GEL (R)          TUB30G    GLAXOSMITH00006421500004364900806167501406829002
A093400351CA 1134TEMGESIC SUBLING (C)     TAB10     MERCK SHAR00005974900004779900806167501050612463
A026800911CA 1134CEDAX 400MG (A)          CAP5      MERCK SHAR00006960200005568100806167501050612524
A093400361CA 1134ALGITRIN                 TAB24     LABORATORI00002500000001750000806167501050612562
A111800052CA 1134ELECTROLIT FRESA PLASCO  SOL625ML  LABORATORI00000317000000268200806167501125104268
A111800202CA 1134ELECTROLIT FRESA         SOL1150ML LABORATORI00000540000000456800806167501125104763
A111800492CA 1134ELECTROLIT MANZANA PED   SOL300ML  LABORATORI00000195200000165100806167501125130878
A111800232CA 1134ELECTROLIT PINA          SOL625ML  LABORATORI00000317000000268200806167501125103582
A114800641CA 1134HUMYLUB OFT              GOT15ML   SOPHIA COM0000470930000383660080616736085405668 
A005500581CA 1134GABIROL 1.0G (A)         SOL120ML  PRODUCTOS 00002134000001410000806167501088507878
A012100891CA 1134AFAZOL Z                 SOL15ML   LABORATORI0000125070000077110080616008400001184 
A012100771CA 1134OBRY                     SOL15ML   LABORATORI0000269420000160020080616008400001245 
A012100631CA 1134PREMID                   UNG3G     LABORATORI0000224610000133400080616008400001290 
A012100692CA 1134TETRAZOL                 GOT15ML   LABORATORI0000057750000035610080616008400001313 
A020500512CA 1134PEPTO BISMOL             FRA118ML  COMPANIA P0000052080000044550080616020800753067 
A020500632CA 1134PEPTO BISMOL PLUS        FRA118ML  COMPANIA P0000074830000055760080616020800755719 
A020500642CA 1134PEPTO BISMOL PLUS        BOT236ML  COMPANIA P0000124790000092490080616020800755726 
A020500142CA 1134METAMUCIL NATURAL        BOT210G   COMPANIA P0000199340000148090080616020800790222 
A020500152CA 1134METAMUCIL NATURAL        BOT504G   COMPANIA P0000422350000313680080616020800790246 
A020500122CA 1134METAMUCIL NARANJA        BOT174G   COMPANIA P0000199340000148090080616020800790253 
A092900042CA 1134EMLA                     CRE5G     ASTRAZENEC00001090000000590000806167501098603317
A092900032CA 1134EMLA                     CRE30G    ASTRAZENEC00004260000002350000806167501098603690
A027700911CA 1134GLIMETAL 4/1000MG        TAB16     LABORATORI00007920000004910000806167501101654985
A027700841CA 1134PREDIAL 850MG            TAB30     LABORATORI00002730000001690000806167501101656156
A002400871CA 1134NEXIUMMUPS 20MG          TAB14     ASTRAZENEC00005110000003010000806167501098611305
A002400741CA 1134NEXIUMMUPS 40MG          TAB7      ASTRAZENEC00004560000002700000806167501098611312
A002400751CA 1134NEXIUMMUPS 40MG          TAB14     ASTRAZENEC00007290000004290000806167501098611329
A002400401CA 1134PLENDIL 5MG              TAB30     ASTRAZENEC00008420000004960000806167501098611862
A019502421CA 1134SOLUMEDROL 500MG         FAM1      PFIZER    0000462170000369740080616300090887018 
A125000151CA 1234XALATAN OFT (R)          SOL2.5ML  PFIZER    0000746160000596930080616300092960016 
A125000141CA 1234XALACOM OFT (R)          GOT2.5ML  PFIZER    0000831090000664870080616300092960030 
A136700052CA 1132PERIODENTYL DENTAL       CRE75ML   DIGRIMEX  00001110400000754800806167501043162326
A027003011CA 1134CELESTAMINE NS 5/0.25MG  TAB10     BAYER DE M00002181400001369700806167501050610018
A010700032CA 1134BEKUNIS INSTANTANEO         17G    LABORATORI00001261000001034000806167501168860206
A010700012CA 1134BEKUNIS                  GRA30     LABORATORI00001294000001061100806167501168860305
A010700262CA 1134PLANTIVAL                GRA40     LABORATORI00003564000002922500806167501168860824
A010700402CA 1134TANAKAN 40MG             TAB24     LABORATORI00001564000001282500806167501168861104
A010700421CA 1134TEBONIN 761 40MG         GRA24     LABORATORI00002797000002293700806167501168870311
A110500271CA 1134BLADURIL 200MG           GRA20     SANOFIAVEN00006137100004282900806167501174607024
A027002771CA 1134GARAMICINA 80MG (A)      AMP5      SCHERING P00007070000004949000806167501050610056
A027002791CA 1134GARAMICINA GU 160MG (A)  AMP5      SCHERING P00009120000006384000806167501050610063
A003900142CA 1132LABELLO CEREZA           BLI4.8G   BDF MEXICO00000310400000270000806167501054502777
A125100041CA 1134TREVISSAGE 20MG (C)      CAP30     PIERRE FAB00012000000009720000806167501088504624
A002401231CA 1134RHINOCORT AQUA 120 DOSIS FRA32MCG  ASTRAZENEC00005010000002950000806167501098605298
A020500662CA 1134PEPTO BISMOL CEREZA MAST TAB24     COMPANIA P00000728000000622300806167501001353377
A020500672CA 1134PEPTO BISMOL CEREZA      LIQ118ML  COMPANIA P0000052080000044550080616020800756440 
A026800862CA 1134LOTRIMIN AF  33          AER100G   BAYER DE M00001179300000648000806167501050614597
A026800842CA 1134LOTRIMIN                 AER150G   BAYER DE M00001213500000700200806167501050614849
A093300482CA 1134DESENFRIOLITO PED        SOL60ML   BAYER DE M00000839800000548500806167501050624886
A026800832CA 1132AFRIN PURE SEA           SPR125ML  BAYER DE M00001465800000903000806167501050625272
A129200382CA 1132STOMAHESIVE PASTA 60G    TUB1      BOSTON MED0000266030000225470080616768455100019 
A129201132CA 1132ACTIVE LIFE C/STO TRA    BOL10     BOSTON MED0000754780000639680080616768455101610 
A001802871CA 1134ZYRTEC                   GOT10ML   ARMSTRONG 00002600000001684800806167501088507144
A001802911CA 1134ZYRTEC 10MG              TAB10     UCB DE MEX00003440000002229100806167501088507168
A001802921CA 1134ZYRTEC 10MG              TAB20     ARMSTRONG 00005790000003751900806167501088507175
A051200471CA 1134AVIXIS ALFATRADIOL 0.025 SOL100ML  GALDERMA M00006490000005192000806163499320003056
A019502201CA 1134NORVAS 10MG              TAB20     PFIZER    00010063400007547600806167501287670045
A079401321CA 1134ENCEPHABOL 20MG          GRA24     MERCK     00003706700002386000806167501298228006
A081900191CA 1132TROJAN FIRE Y ICE        PZA3      CHURCH Y D00000641200000347800806167501080953017
A001803101CA 1134AKINETON 2MG             TAB30     ARMSTRONG 00002350000001522800806167501089803351
A079401361CA 1134DEXABION DOBLE CAM       JGP3X3ML  MERCK     00004571400002547900806167501298217703
A079401371CA 1134DEXABION DOBLE CAM       JGP2X3ML  MERCK     00003437900001916100806167501298217697
A079401381CA 1134DEXABION DOBLE CAM       JGP1X3ML  MERCK     00002156400001201900806167501298217673
A010700531CA 1134DAIVONEX UNGUENTO 50MCG  TUB30G    LABORATORI00008095000006354600806165702191008074
A002401321CA 1134BRILINTA 90MG            TAB60     ASTRAZENEC00021470000008860000806167501098607841
A002401331CA 1134BRILINTA 90MG            TAB30     ASTRAZENEC00010740000004440000806167501098607834
A024701351CA 1134NOVOBERIL 15/2MG         TAB15     REPRESENTA00007489900006103000806167501250821771
A140700031CA 1134OACEREIN 50MG            CAP30     INLAP     00007250000005907500806167502261160767
A017000861CA 1134TEMPOLIB 300MG           TAB30     PRODUCTOS 00004539900003563900806167501293201516
A079401401CA 1134COZAAR 2X1 50MG          TAB30     MERCK     00009938000007950400806167502241941331
A079401411CA 1134DOLO NEUROBION DOBLE CAM JGP3X3ML  MERCK     00004536200002528300806167501298217659
A004402731CA 1134AMIKIN 1G (A)            FAM1X4ML  BRISTOL MY00010070000008257500806167501041941268
A004402741CA 1134AMIKIN 500MG (A)         FAM2X2ML  BRISTOL MY00011650000009553100806167501041941282
A000302751CA 1134DICETEL 100MG            TAB42     ABBOTT LAB00009797000006241700806167501033957581
A000302761CA 1134CREON 150MG              CAP20     ABBOTT LAB00002387000001520800806167501033957499
A079401421CA 1134HYZAAR 2X1 50/12.5MG     TAB30     MERCK     00009938000007950400806167502241941324
A024701361CA 1134NOVOBERIL 15/2MG         TAB30     REPRESENTA00012770000010405200806167501250821788
A070601231CA 1134TACEX IM 500MG (A)       FAM1X2ML  PROBIOMED 00003149200002472100806167502213143169
A070601241CA 1134TACEX IM 1G (A)          FAM1X3.5MLPROBIOMED 00004773800003747400806167502213143176
A070601251CA 1134TACEX IV 1G (A)          FAM1X10ML PROBIOMED 00004069700003194700806167502213143183
A139700051CA 1134VESSEL DUE F 25MG        CAP50     ALFA WASSE00005440000004320000806168020030091252
A141100011CA 1234FIBROQUEL 8.33MG/1ML (R) FAM1.5ML  ASPPH     0001090000000904700080616767475402035 
A141100021CA 1234FIBROQUEL 8.33MG/1ML (R) FAM4ML    ASPPH     0002470000002050100080616767475402011 
A073800301CA 1134IFA ACXION 15MG (C)      TAB30     INVESTIGAC00002100000001659000806167501249605801
A139700061CA 1134VESSEL DUE F 60MG        AMP10X2ML ALFA WASSE00004720000003750000806168020030091351
A010700541CA 1134FUCIDIN 20MG             UNG15G    LABORATORI00002529600001985800806165702191008104
A003501431CA 1134PRIMOLUT DEPOT 1ML       AMP250MG  BAYER DE M00001880000001397800806167501303456004
A019502901CA 1134PRISTIQ 100MG            TAB14     WYETH     00010063800008051000806167501108767916
A026200362CA 1132REPLENS APLICADOR        TUB35G    CHURCH Y D00002900000002384100806167501070600877
A127200092CA 0134PARCHE POROSO ALLCOCKS   SOB1      CONSUPHARM00000350000000262500806167501109760039
A127200082CA 0132PARCHE NEGRO BELLADONA   SOB1      CONSUPHARM00000460000000345000806167501109760886
A003600972CA 0132PARCHE CURITAS EL GALLO  CAJ6      BDF MEXICO00000273400000237900806167702003477270
A003601022CA 0132PARCHE CURITAS LEON CADERSOB1      BDF MEXICO00000273400000237900806167702003469565
A003000412CA 0132RENU FRESH NO RUB        SOL60ML   BAUSCH Y L0000066570000046600080616310119034347 
A112500472CA 0134BRONCOLIN LIGHT FRESA 35GPAS16     BRONCOLIN 0000054340000043470080616714706904042 
A112500482CA 1134BRONCOLIN LIGHT LIMON 35GPAS16     BRONCOLIN 0000054340000043470080616714706904028 
A112500492CA 1134BRONCOLIN LIGHT NARAN 35GPAS16     BRONCOLIN 0000054340000043470080616714706904035 
A112500502CA 0134BRONCOLIN LIGHT EUCAL 35GPAS16     BRONCOLIN 0000054340000043470080616714706904059 
A000801321CA 1134PATANOL 0.2              SOL2.5ML  ALCON LABO00007422000006047600806167501088604058
A005000941CA 1134PATECTOR NF PRELL 75MG   JER1      APLICACION00001866700001530700806167501070903459
A001400832CA 1134CIRUELAX COMP            CAJ24     DIGRIFAR  00001097800000665600806167803510001818
A001400782CA 1134CIRUELAX JALEA           FCO150G   DIGRIFAR  00001076400000652600806167803510773319
A020500552CA 1134VICK MIEL 44 EXP         JBE240ML  COMPANIA P00001946900001445000806167590002042090
A137100012CA 1132AVITIL                   GEL50G    ITALMEX   00007250000005800000806167703281007616
A003501551CA 1134PRIMOGYN 1MG             GRA28     BAYER DE M00003920000002914400806167703331157001
A003501561CA 1134PRIMOGYN 2MG             GRA28     BAYER DE M00004540000003375200806167703331157025
A003501541CA 1134YASMIN                   GRA21     BAYER DE M00003470000002579800806167703331157506
A027700781CA 1134FOLIVITAL 400MCG         TAB90     LABORATORI000013500000008370008061675016951     
A137100092CA 1132FILTROSOL PROT SOLAR     GEL60G    ITALMEX   00002190000001752000806167703332003314
A003000302CA 1132RENU FRESH NO RUB        SOL355ML  BAUSCH Y L0000181780000127250080616310119033340 
A081700012CA 1134TERMO RUB                CRE35G    MENTHOLATU0000104180000083920080616310742330663 
A115500012CA 1132JERINGA BD UF 0.5ML 31X8 CAJ10     BECTON DIC0000053490000034770080616382903267798 
A115500022CA 1132JERINGA BD UF 1ML 30X13  CAJ10     BECTON DIC0000053490000034770080616382903267804 
A051300222CA 1132BLANCALER                CRE30G    GALDERMA M00003465500002772400806167502003560275
A076700352CA 1234NIMBEX (R)               AMP1X5.0MLGLAXOSMITH00002928000001911800806167501043162630
A076700362CA 1234NIMBEX 2MG (R)           AMP10ML   GLAXOSMITH00004994600003261200806167501043162661
A076801221CA 1134WELLBUTRIN 150MG         TAB15     GLAXOSMITH00008452500005519000806167501043162760
A076801231CA 1134WELLBUTRIN 150MG         TAB30     GLAXOSMITH00016537100010797700806167501043162777
A019500601CA 1134NORVAS 5MG               TAB30     PFIZER    00009882100007411600806167501287670038
A019501561CA 1134CADUET 5/10MG            TAB30     PFIZER    00011392900009114300806167501287670212
A010700221CA 1134TEBOVEN                  GRA40     LABORATORI00002646000002169700806167501168870403
A010700291CA 1134HIPERIKAN 300MG          GRA40     LABORATORI00003760000003083200806167501168870502
A010700231CA 1134UROGUTT 160MG            CAP40     LABORATORI00005692000004667400806167501168870618
A008500112CA 1132VENDA ELAST PROTEC 5CMX5M          DEGASA    00000051800000043500806167501048693009
A008500122CA 1132VENDA ELAST PROTEC 7CMX5M          DEGASA    00000068500000058000806167501048693306
A093300322CA 1134DESENFRIOLITO PLUS       TAB24     BAYER DE M00000500600000286100806167501050617079
A093400211CA 1134ALMETEC 20MG             TAB14     MERCK SHAR00003863700003091000806167501050617154
A093400221CA 1134ALMETEC 20MG             TAB28     MERCK SHAR00007637600006110100806167501050617161
A093400231CA 1134ALMETEC 40MG             TAB14     MERCK SHAR00005000400004000300806167501050617178
A093400241CA 1134ALMETEC 40MG             TAB28     MERCK SHAR00010000800008000600806167501050617185
A093400281CA 1134ALMETEC CO 20/12.50MG    TAB14     MERCK SHAR00004458300003566600806167501050617192
A093400251CA 1134ALMETEC CO 20/12.50MG    TAB28     MERCK SHAR00008446200006757000806167501050617208
A093400261CA 1134ALMETEC CO 40/12.50MG    TAB14     MERCK SHAR00005769900004615900806167501050617604
A027002921CA 1134LERTAMINE 10MG           TAB10     BAYER DE M00003252100002136800806167501050605359
A093400401CA 1134TRIDERM                  CRE25G    LABORATORI00002560000001792000806167501050605717
A027002831CA 1134GARAMICINA HYPAK 80MG (A)AMP1      SCHERING P00001840000001288000806167501050649834
A076800271CA 1134IMIGRAN 100MG            TAB2      GLAXOSMITH00008168000005333200806167501043162814
A076800521CA 1134IMIGRAN 50MG             TAB2      GLAXOSMITH00005818000003798800806167501043162852
A093400321CA 1134DIPROSPAN VIAL           FA 2ML    MERCK SHAR00003754100003003300806167501050610438
A093400331CA 1134DIPROSPAN VIAL           F A5ML    MERCK SHAR00008469100006775200806167501050610490
A010700321CA 1134PROSGUTT                 CAP40     LABORATORI00006623000005432500806167501168870625
A010700301CA 1134UMCKALOABO               SOL50ML   ABBOTT LAB00001900000001210500806167501168870809
A010700441CA 1134UMCKALOABO               GRA20     ABBOTT LAB00001500000000955700806167501168870816
A010700371CA 1134NEO LAIKAN 500MG         GRA30     LABORATORI00003444000002824100806167501168890142
A010700391CA 1134AVALA                    CAP30     LABORATORI00003129000002565800806167501168890166
A112500062CA 0134BRONCOLIN CARAMELO MACIZ    40G    BRONCOLIN 0000027810000022240080616714706100604 
A112500302CA 1134BRONCOLIN LIMON CARAMELO    40G    BRONCOLIN 0000027810000022240080616714706901607 
A112500312CA 0134BRONCOLIN NARANJA CARAME    40G    BRONCOLIN 0000027810000022240080616714706901706 
A112500512CA 1134BRONCOLIN CARMELO CEREZA CAJ40G    BRONCOLIN 0000027810000022240080616714706901508 
A107900212CA 1134CONAZOL POLVO            SPR85G    PROMOTORA 00000990000000658300806167501299306253
A107900482CA 1134CONAZOL                  SPR160G   PROMOTORA 00001370000000911000806167501299304525
A107900722CA 1134CONAZOL 3010GR           CRE40G    LABORATORI00000700000000465500806167501299303290
A027601041CA 1134AMPLIRON DUO 875MG (A)   COM14     SIEGFRIED 00004720000002950000806167501300408136
A103102041CA 1134ARGENTAFIL AL 1 SPRAY (A)SUS120ML  LOGISTICA 00003570200002909000806167501122900368
