02          7501303467505ULTRAPROCT                       176.62 10.10      0      0      0 10.00   217.88
02          7501303469103ULTRAPROCT                       176.38 10.10      0      0      0 10.00   217.58
02          7501303451580FINACEA 15                       284.94 10.10      0      0      0 10.00   351.51
02          7501303461503SCHERIPROCT                      169.99 10.10      0      0      0 10.00   209.70
02          7501303462005SCHERIPROCT                      162.56 10.10      0      0      0 10.00   200.53
02          8470003004343ENDOCARE                         362.42  5.00      0      0      0 10.00   409.00
02          8470003310338ENDOCARE                         388.99  5.00      0      0      0 10.00   439.00
02          8470003987509ENDOCARE CONT OJOS/LABIOS        362.43  5.00      0      0      0 10.00   409.00
02          7501314704873ULSEN 20MG EMBLISTADO            190.34 23.07      0      0      0 18.00   225.00
02          7501314704880ULSEN 20MG EMBLISTADO            325.69 23.07      0      0      0 18.00   385.00
02          7501314707638GENTIL AD                         22.00 16.66      0      0      0 18.00    26.00
02          7501314707645GENTILITO                         21.14 16.66      0      0      0 18.00    25.00
02          7501303433005ICADEN                           211.23 10.10      0      0      0 10.00   260.58
02          7501314707775DURAK 75MG                        31.76 23.07      0      0      0 18.00    39.00
02          7501314707782DURAK                             56.21 23.07      0      0      0 18.00    69.00
02          7501314707805PLEXUS ADULTO                     97.78 16.66      0      0      0 18.00   120.00
02          7501314707812PLEXUS INFANTIL                   93.70 16.66      0      0      0 18.00   115.00
02          7501303406009BINERISONA                       202.55 10.10      0      0      0 10.00   249.87
02          353885771504 ONE TOUCH ULTRA TIRAS            312.87  7.00      0      0      0  0.00   376.95
02          7501871720118TAFENIL 250 MG                   333.27  9.09      0      0      0 18.00   409.00
02          7501871720125TAFENIL 250MG                   1010.38  9.09      0      0      0 18.00  1240.00
02          75015046     SOLUTINA LUB CAJA                 45.95 25.00      0      0      0 18.00    59.33
02          75004958     VIRAZIDE GOTAS                    97.22  9.09      0      0      0  8.00   124.87
02          75004972     ESPACIL SIMPLE                   136.04 16.66      0      0      0  8.00   166.95
02          75004989     VILONA                            95.14  9.09      0      0      0  8.00   122.21
02          75004996     ESPAVEN PED                      141.17 16.66      0      0      0  8.00   173.25
02          75015961     CYNOMEL 25MG                     159.08  9.09      0      0      0  8.00   196.48
02          75016647     CYNOPLUS 3MG                     154.97  9.09      0      0      0  8.00   191.40
02          7501685170154SOFT LUBE HYDRA INTIME            41.87 16.66      0      0      0  0.00    58.62
02          7501685171113SICO ULTRA SENSE CARTERA          36.48 16.66      0      0      0  0.00    50.86
02          7501685172110SICO EXCESS CARTERA               34.51 16.66      0      0      0  0.00    48.28
02          7503000645798ASTIN 10MG 11                    304.15 17.66      0      0      0 18.00   387.45
02          324208299050 LOTEREX 0.5                      240.78  9.00      0      0      0 18.00   300.98
02          7502009340154PENPROCILINA 400 000 (A)          43.91  9.09      0      0      0  0.00    61.85
02          7502009340161PENPROCILINA 800 000 (A)          52.89  9.09      0      0      0  0.00    74.50
02          7502004530079VENDA ELAST SELECTA 15X5           7.25  9.09      0      0      0  0.00     9.43
02          7502009340130PENGESOD 1000000 (A)              29.61  9.09      0      0      0  0.00    41.70
02          7501057005312CALADRYL                          53.36  9.09      0      0      0 18.00    71.45
02          7501050617055DESENFRIOL D                      44.57 12.00      0      0      0 17.00    56.78
02          7501493888043AMICINA 500MG/2ML                107.93 46.00      0      0      0 18.00   143.90
02          7501493888128KIMOLIP 200MG                    129.36 30.00      0      0      0 18.00   172.48
02          7501493888333FLUKENEZOL 100 MG                435.00 46.00      0      0      0 18.00   580.00
02          7501057005848CALADRYL CLEAR                    62.78  9.09      0      0      0 18.00    84.00
02          7501058367112SICO SAFETY CARTERA               32.54 16.66      0      0      0  0.00    45.69
02          7501058367136SICO SAFETY                       81.37 16.66      0      0      0  0.00   112.93
02          7501070901080LIBERAN                          118.90 14.00      0      0      0 18.00   145.00
02          7501070901301LM6                               59.04 14.00      0      0      0 18.00    72.00
02          7501061050186NATURETTI JALEA                  105.79  9.00      0      0      0 18.00   126.59
02          7501070903091NOAX 3 5ML                        45.10 14.00      0      0      0 18.00    55.00
02          7501070903107ORANOR (A)                       255.84 14.00      0      0      0 18.00   312.00
02          7501070903114ORANOR (A)                       455.11 14.00      0      0      0 18.00   555.00
02          7501058368119SICO SENSITIVE CARTERA            34.51 16.66      0      0      0  0.00    48.28
02          7501058368133SICO SENSITIVE                    86.29 16.66      0      0      0  0.00   119.83
02          7501070637279KIN GINGIVAL ENJUAGUE BUC        195.40 17.66      0      0      0 18.00   251.00
02          7501061009603NATURETTI                         81.26  9.00      0      0      0 18.00    97.23
02          7501070900168ANEREX                           131.20 14.00      0      0      0 18.00   160.00
02          7501070900373DOLAREN                          129.56 14.00      0      0      0 18.00   158.00
02          7501070900380DOLAREN                          335.39 14.00      0      0      0 18.00   409.00
02          7501070900441FLUXEDAN                         147.60 14.00      0      0      0 18.00   180.00
02          7501037908930ATROVENT 250MCG/ML               349.95  9.10      0      0      0 18.00   416.84
02          7501033953354ENSURE VAINILLA FOS              248.55  6.00      0      0      0  5.00   285.70
02          7501033953361ENSURE CHOCOLATE FOS             248.55  6.00      0      0      0  5.00   285.70
02          7501101612084GLIMETAL 1/500MG                 463.36 24.00      0      0      0  8.00   558.00
02          7501101615016GLINORBORAL COMPUESTO            467.51 24.00      0      0      0  8.00   563.00
02          7501101615856GLIMETAL 2/1000MG                466.68 24.00      0      0      0  8.00   562.00
02          7501101620027TIAMIDEXAL                       307.25 25.00      0      0      0  8.00   370.00
02          7501101620386VERTISAL 250MG                   195.14 26.00      0      0      0  8.00   235.00
02          7501122960317CLOBESOL 0.05 CREMA              272.63  9.09      0      0      0  8.00   350.20
02          7501122961017ARGENTAFIL AL 1                  102.40 16.66      0      0      0  8.00   125.66
02          7501122961024ARGENTAFIL AL 1                  277.07 16.66      0      0      0  8.00   340.04
02          7501122961109CUTACLIN GEL 1                   223.30  9.09      0      0      0  8.00   274.05
02          7501122961413CARBOTURAL                       205.28 16.66      0      0      0  8.00   251.93
02          7501037908015BUSCAPINA INY 1ML                121.03  9.10      0      0      0 18.00   144.17
02          7501095452161TEMPRA 500MG                     213.69 17.66      0      0      0 18.00   260.60
02          7501037908534BUSCAPINA COMP                   287.58  9.10      0      0      0 18.00   342.55
02          7501037908558BUSCAPINA COMP N                 173.01  9.10      0      0      0 18.00   206.08
02          7501101627507DOLOTIAMINAL                     261.57 25.00      0      0      0  8.00   315.00
02          7501159580014SINUBERASE                       128.44 10.00      0      0      0  0.00   153.71
02          7501123010806AMIKAYECT 100MG (A)               76.94  9.09      0      0      0  8.00    98.82
02          7501123010905AMIKAYECT 500MG (A)              244.31  9.09      0      0      0  8.00   313.82
02          7501123011704FITOESTIMULINA                   252.08 16.66      0      0      0  8.00   309.36
02          7501124813055VOLTAREN EMULGEL 25              140.74  7.00      0      0      0 18.00   170.55
02          7501125114717FICONAX 850MG                     94.13 16.66      0      0      0 18.00   115.50
02          7501125109461AMOXICLAV PED 125MG (A)          120.30 16.66      0      0      0 18.00   142.20
02          7501125109485AMOXICLAV 250MG (A)              211.15 16.66      0      0      0 18.00   249.59
02          7501125109935SOLDRIN OFTALMICO                 60.11 16.66      0      0      0 18.00    71.06
02          7501122965824DERFINA 1.0                      148.91 16.66      0      0      0  8.00   181.59
02          7501159580182SINUBERASE 5ML INGERIBLE         117.31 10.00      0      0      0  0.00   140.40
02          7501123012800ENI 250MG (A)                    180.25  9.09      0      0      0  8.00   231.53
02          7501122966609REGULACT                         134.40 16.66      0      0      0  8.00   164.94
02          7501122966623REGULACT PVO 5G                  153.56 16.66      0      0      0  8.00   188.46
02          7501122966630REGULACT                         169.99 16.66      0      0      0  8.00   208.62
02          7501122966906SOLAQUIN 4                       280.84  9.09      0      0      0  8.00   344.66
02          7501122967019SUPRA 4MG                        286.73  9.09      0      0      0  8.00   351.90
02          7501123013111DOLOBEDOYECTA C/JERINGA          199.92 16.66      0      0      0  8.00   245.35
02          7501123013135DOLOBEDOYECTA                    312.91 16.66      0      0      0  8.00   384.03
02          7501123013234BEDOYECTA PEDIATRICA SOLU        163.77 16.66      0      0      0 10.00   200.99
02          7501123013302BEDOYECTA TRI 50000              258.44 16.66      0      0      0 10.00   331.97
02          7501123013340BEDOYECTA ORAL                   183.40 16.66      0      0      0 10.00   225.07
02          7501123013401BREACOL AD                        95.13 28.57      0      0      0  8.00   116.75
02          7501125116810AGRIFEN                           17.98 25.00      0      0      0 18.00    21.25
02          7501142970716PATREX 50MG                      347.91 26.00      0      0      0 10.00   434.89
02          7501142970723PATREX 100MG                     113.31 26.00      0      0      0 10.00   141.64
02          7501122967705TRIMEXAZOL 3ML (A)               171.46 16.66      0      0      0  8.00   220.24
02          7501123013418BREACOL INF                       91.92 28.57      0      0      0  8.00   112.81
02          7501122967828TRIMEXAZOL F (A)                 116.85 16.66      0      0      0  8.00   150.09
02          7501122969310VILONA                           370.50  9.09      0      0      0  8.00   475.92
02          7501123014101FIRAC PLUS                       194.31 16.66      0      0      0  8.00   238.47
02          7501123014613FIRAC 125MG                      116.04 16.66      0      0      0  8.00   142.41
02          7501123014644FIRAC 250MG                      175.93 16.66      0      0      0  8.00   215.90
02          7501142970730PATREX 100MG                     372.76 26.00      0      0      0 10.00   465.95
02          7501125118326AMOXICLAV 500MG (A)              299.22 16.66      0      0      0 18.00   367.14
02          7501125118333AMOXICLAV BID 875/125MG (A)      315.29 16.66      0      0      0 18.00   386.86
02          7501125118913AMOXICLAV BID 400/57.1MG (A)     194.90 16.66      0      0      0 18.00   239.14
02          7501159525015EUCALIPTINE                       77.71 13.00      0      0      0  0.00    93.00
02          7501122969808IVEXTERM 6MG                     101.36  9.09      0      0      0  8.00   130.20
02          7501123014705FEMISAN CREMA APLIC              268.66 16.66      0      0      0  8.00   329.73
02          7501123014736FEMISAN V                        268.66 16.66      0      0      0  8.00   329.73
02          7501123014743FEMISAN 3D VAG                   268.66 16.66      0      0      0  8.00   329.73
02          7501123015009HIDROCILINA 800000 UI (A)         47.96 16.66      0      0      0  8.00    61.60
02          7501123010707CARDISPAN 30 SUSP                370.59  9.09      0      0      0  8.00   454.82
02          7501123010738CARDISPAN PEDIATRICO 10          226.02  9.09      0      0      0  8.00   277.39
02          7501122969600VILONA 7.5                       309.08  9.09      0      0      0  8.00   397.03
02          7501122969617VILONA 7.5                       137.39  9.09      0      0      0  8.00   176.47
02          7501123015405MVI 12 AD                        114.82 15.00      0      0      0  8.00   140.92
02          7501159526029EUCALIPTINE                      152.91 13.00      0      0      0  0.00   183.00
02          7501318683075MYCOSPOR PUMP 150MG              122.88  3.00      0      0      0 10.00   147.78
02          7501318683099MYCOSPOR ONICOSET                590.14  3.00      0      0      0 10.00   709.72
02          7501033954061ENSURE CHOCOLATE BOTTLE           41.41 11.00      0      0      0  5.00    47.60
02          7501033954078ENSURE FRESA BOTTLE               41.41 11.00      0      0      0  5.00    47.60
02          7501033954085ENSURE VAINILLA BOTTLE            41.41 11.00      0      0      0  5.00    47.60
02          7501033954115ENSURE PLUS CHOC SINGLES          43.58 11.00      0      0      0  5.00    50.10
02          7501033954122ENSURE PLUS VAIN SINGLES          43.58 11.00      0      0      0  5.00    50.10
02          7501034605085BIPASMIN N                       148.26  9.10      0      0      0 18.00   176.59
02          7501037980028SEKRETOVIT EX GOTAS              146.07  9.10      0      0      0 18.00   173.99
02          7501008485057TABCIN ACTIVE                     44.26  5.00      0      0      0 10.00    53.23
02          7501023105558TRANSPORE NEXCARE 1.25X9          37.33 10.00      0      0      0  0.00    40.39
02          7501023105589NEXCARE COMPRESA FRIOCAL          73.37  5.00      0      0      0  0.00    77.19
02          7501023106128NEXCARE VENDA COBAN PIE           47.78  5.00      0      0      0  0.00    52.14
02          7501023108191TRANSPORE NEXCARE 2.5X9.1         44.81 10.00      0      0      0  0.00    48.46
02          7501033954139ENSURE PLUS FRESA SINGLES         43.58 11.00      0      0      0  5.00    50.10
02          7501034635013ISODINE ESPUMA                    95.26  9.10      0      0      0 18.00   113.47
02          7501034635020ISODINE                           92.54  9.10      0      0      0 18.00   110.23
02          7501034635044ISODINE BUCOFARINGEO              96.32  9.10      0      0      0 18.00   114.73
02          7501314701827CIPROFLOX 500MG (A)              359.53 23.07      0      0      0 18.00   425.00
02          7501314701834CIPROFLOX 500MG (A)              194.57 23.07      0      0      0 18.00   230.00
02          7501314701865CIPROFLOX 250MG (A)              203.03 23.07      0      0      0 18.00   240.00
02          7501314704330RANISEN 300MG                     92.89 16.66      0      0      0 18.00   114.00
02          7501314704347RANISEN 150MG EMBLISTADO         101.04 16.66      0      0      0 18.00   124.00
02          7501037980134SEKRETOVIT EX INFANTIL           174.35  9.10      0      0      0 18.00   207.68
02          7501037980165SPIRIVA 18MCG HANDIHALER         348.19 10.10      0      0      0 18.00   414.75
02          7501314703173FACICAM                           82.05 16.66      0      0      0 18.00    97.00
02          7501037946154MICARDIS 40MG                    351.68  9.10      0      0      0 18.00   418.90
02          7501037946178MICARDIS 80MG                    478.80 10.10      0      0      0 18.00   570.33
02          7501037946185MICARDIS 80MG                    787.16 10.10      0      0      0 18.00   937.62
02          7501034665553PRODOLINA                         46.43 13.50      0      0      0 18.00    55.31
02          7501023100447BUFPUF REGULAR                    23.00  5.00      0      0      0  0.00    25.35
02          7501023100454BUFPUF SUAVE                      24.16  5.00      0      0      0  0.00    26.62
02          7501023102182MICROPORE BLIST B 1.25X5M         24.56 10.00      0      0      0  0.00    26.61
02          7501023102199MICROPORE BLIST B 2.5X5M          37.41 10.00      0      0      0  0.00    40.47
02          7501023103578MICROPORE BLIST P 1.25X5M         24.56 10.00      0      0      0  0.00    26.61
02          5016003392108ASCENCIA ELITE                   325.86 16.66      0      0      0  0.00   361.70
02          5016003708701ASCENCIA MICROFILL               307.59 16.66      0      0      0  0.00   452.48
02          7501023103585MICROPORE BLIST P 2.5X5M          37.41 10.00      0      0      0  0.00    40.47
02          7501023104018MICROPORE PHAR 2.5X5M B           26.31 10.00      0      0      0  0.00    28.51
02          7501023104025MICROPORE PHAR 1.25X5M B          14.49 10.00      0      0      0  0.00    15.73
02          7501023104216MICROPORE PHAR 1.25X5M P          14.49 10.00      0      0      0  0.00    15.73
02          7501023104223MICROPORE PHAR 2.5X5M P           26.31 10.00      0      0      0  0.00    28.51
02          7501088507007NOOTROPIL 800MG                  407.42 10.10      0      0      0  5.00   519.00
02          7501328979380HISTIACIL                         96.12 13.00      0      0      0 18.00   115.00
02          7501088617904SOLUTINA F 5ML                    54.09 23.00      0      0      0 18.00    69.82
02          7501328979496HISTIACIL NF INF                 108.65 13.00      0      0      0 18.00   130.00
02          7501328979502HISTIACIL NF AD                  110.33 13.00      0      0      0 18.00   132.00
02          7501072310378MELOX PLUS MENTA                  63.28 10.00      0      0      0 18.00    75.71
02          7501072310392MELOX PLUS CEREZA                 63.28 10.00      0      0      0 18.00    75.71
02          7501328979724HISTIACIL NF PED                  74.39 13.00      0      0      0 18.00    89.00
02          7501328979885HISTIACIL NF                      65.20 13.00      0      0      0 18.00    78.00
02          7501328980317HISTIACIL FLU                     52.65 13.00      0      0      0 18.00    63.00
02          7501123016808BIOPROTECT                       233.59 16.66      0      0      0  8.00   286.68
02          7501123016907YUREDOL                          304.14 16.66      0      0      0  8.00   373.26
02          7501123017300SINPEBAC 2 UNGUENTO              172.21 16.66      0      0      0  8.00   211.35
02          7501122964827KINERASE 0.1                     488.36 16.66      0      0      0  8.00   627.32
02          7501122964902K50                               94.96  9.09      0      0      0  8.00   116.55
02          7501123017713VANTAL PASTA DENTAL              106.47 16.66      0      0      0  8.00   130.67
02          7501123017805VANTAL GEL                       125.14  9.09      0      0      0  8.00   153.58
02          7501123017911VISYNERAL                        162.34 15.00      0      0      0  8.00   199.24
02          7501123018024VANTAL BUCOF SPRAY               250.12  9.09      0      0      0  8.00   306.97
02          7501123018031VANTAL BUCOFARINGEO              152.07 16.66      0      0      0  8.00   186.63
02          7501124723217DILARMINE                        172.22 11.00      0      0      0  0.00   218.00
02          7501125102929ONEMER 10MG                       80.54 14.30      0      0      0 18.00    95.20
02          7501125103568ENTEREX VAINILLA                  36.69 10.00      0      0      0 18.00    43.37
02          7501125103575ENTEREX FRESA                     36.69 10.00      0      0      0 18.00    43.37
02          7501125103643ENTEREX DIABET FIBRA CHOC         41.26 14.30      0      0      0 18.00    48.77
02          4260085520107DARDIA EMOLIENTE CORP            349.36 10.10      0      0      0 10.00   430.97
02          7501123018208VANTALV                           92.30  9.09      0      0      0  8.00   113.27
02          7501123018307VIRAZIDE 7.5 CREMA               312.93  9.09      0      0      0  8.00   401.97
02          7501123018314VIRAZIDE 7.5                     139.02  9.09      0      0      0  8.00   178.57
02          7501123018710VIRAZIDE SOL                     374.95  9.09      0      0      0  8.00   481.65
02          7501165002890MELOX PLUS CEREZA                 62.84 10.00      0      0      0 18.00    75.19
02          7501165002906MELOX PLUS CEREZA                 45.70 10.00      0      0      0 18.00    54.69
02          7501165002913MELOX PLUS MENTA                  62.84 10.00      0      0      0 18.00    75.19
02          7501165002920MELOX PLUS MENTA                  45.70 10.00      0      0      0 18.00    54.69
02          7501123018918VIRAZIDE 400MG                  1131.97  9.09      0      0      0  8.00  1454.05
02          7501123019403YECTAMICINA 160MG (A)            141.57 16.66      0      0      0  8.00   181.85
02          7501123019601YECTAMES                         109.41  9.09      0      0      0  8.00   140.54
02          7501123019717UNIFER FOL                       252.55  9.09      0      0      0  8.00   309.95
02          7501124727123TERBAC IM 1GR (A)                421.21  9.09      0      0      0  0.00   593.25
02          7501124727130TERBAC IM 500MG (A)              229.72  9.09      0      0      0  0.00   323.55
02          7501125104626AGRIFEN PARCHES INF               55.20 20.00      0      0      0 18.00    65.25
02          7501165003040ADEROGYL 15 ORAL 3ML             124.28 17.00      0      0      0 18.00   148.70
02          4035710006628ARTELAC                          155.79  9.00      0      0      0 18.00   194.74
02          4260085520084DARDIA CREMA                     186.19 10.10      0      0      0 10.00   229.68
02          7501165005372LACTACYD                          74.48 11.00      0      0      0 18.00    89.13
02          7501124103088RINOFREN NF PED                   61.50 14.00      0      0      0 18.00    75.00
02          7501122961604ELDOPAQUE 2                      227.70  9.09      0      0      0  8.00   279.45
02          7501122961819DERFINA 1                        148.91 16.66      0      0      0  8.00   181.59
02          7501122961901ELDOQUIN 4                       253.01  9.09      0      0      0  8.00   310.50
02          7501122962007ELDOPAQUE 4                      292.64  9.09      0      0      0  8.00   359.15
02          7501122962410MICROSONA 1 CREMA                126.21  9.09      0      0      0  8.00   154.90
02          7501122962700ESPAVEN                           86.23 16.66      0      0      0  8.00   105.82
02          7501122962816ESPAVEN ALCALINO                 112.93 16.66      0      0      0  8.00   138.60
02          7501124103200BROXOL                           132.02 14.00      0      0      0 18.00   161.00
02          7501124103279PRAMIGEL                         104.14 14.00      0      0      0 18.00   127.00
02          7501124103378LACTEOL FORT                     193.52 14.00      0      0      0 18.00   236.00
02          7501124727147TERBAC IV 1GR (A)                437.22  9.09      0      0      0  0.00   615.80
02          7501124727154TERBAC IV 500MG (A)              229.72  9.09      0      0      0  0.00   323.55
02          7501125100864DEXTROSA 5 PISA PLAST             67.84 16.66      0      0      0 18.00    80.19
02          7501125106224CEFAXONA IM 500MG (A)            221.21 16.66      0      0      0 18.00   271.42
02          7501125106231CEFAXONA IM 1GR (A)              412.28 16.66      0      0      0 18.00   487.36
02          7501125106286FOTEXINA IM 1GR (A)              242.70 17.66      0      0      0 18.00   286.90
02          7501124103392BROXOL AIR                       100.04 14.00      0      0      0 18.00   122.00
02          7501122963028ESPAVEN ENZIMATICO               147.16 16.66      0      0      0  8.00   180.60
02          7501122963318ESPAVEN ALCALINO MAST             90.69 16.66      0      0      0  8.00   111.30
02          7501122963516FOTORAL                          232.00  9.09      0      0      0  8.00   284.72
02          7501122963707ESPACIL COMPUESTO                193.97 16.66      0      0      0  8.00   238.05
02          7501122963806ESPACIL SIMPLE                   119.79 17.66      0      0      0  8.00   147.00
02          7501124109684BROXOL PLUS                      167.28 14.00      0      0      0 18.00   204.00
02          7501125101960FLUCOXAN 150MG 2X1               214.03 15.30      0      0      0 18.00   253.00
02          7501125102486GLUPROPAN 4MG                    245.90 16.66      0      0      0 18.00   290.68
02          7501125102516INCARDEL 50MG                     83.88 17.66      0      0      0 18.00    99.15
02          7501072300133TING                              59.28 12.00      0      0      0 18.00    70.94
02          7501072300140TING                              76.40 12.00      0      0      0 18.00    91.42
02          7501072300157TING                              90.12 12.00      0      0      0 18.00   107.85
02          7501072300164TING TALCO                        53.71 12.00      0      0      0 18.00    64.27
02          7501072300171TING TALCO                        74.38 12.00      0      0      0 18.00    89.02
02          7501072300188TING TALCO                       101.86 12.00      0      0      0 18.00   121.89
02          7501072300218TING AEROSOL                      74.53 12.00      0      0      0 18.00    89.20
02          7502213142353BAPEX 400MG                      390.60 17.66      0      0      0 18.00   497.58
02          7502213142384OVELQUIN 500MG (A)               276.76 17.66      0      0      0 18.00   352.56
02          7502213142506AGLUMET 500MG                    152.88 17.66      0      0      0 18.00   194.75
02          7502213142520PROSERTIN 50MG                   326.56 17.66      0      0      0 18.00   416.00
02          7502213142346BAPEX 300MG                      347.38 17.66      0      0      0 18.00   442.52
02          7501871720217TAXUS 20 MG                      111.63 16.66      0      0      0 18.00   137.00
02          7503005569105CURIOSIN GEL                     185.33 15.30      0      0      0  0.00   275.00
02          7795320050134ADVANTAN                         251.48 10.10      0      0      0 10.00   310.23
02          7795320050165ADVANTAN                         310.14  7.00      0      0      0 10.00   382.59
02          7795320050950ICADEN SPRAY                     264.99 10.10      0      0      0 10.00   326.90
02          7795320051025ADVANTAN 0.1                     283.90 10.10      0      0      0 10.00   350.23
02          7795320005035ICADEN                           251.11 10.10      0      0      0 10.00   309.77
02          7795320050127ADVANTAN                         275.64 10.10      0      0      0 10.00   340.03
02          7501080911178STERIMAR CU                      161.22  2.10      0      0      0 18.00   238.83
02          7501080911185STERIMAR MN                      161.22  2.10      0      0      0 18.00   238.83
02          7502213142087BAPEX 300MG                      196.62 10.10      0      0      0 18.00   250.47
02          7502213140908PULSOL 10MG                      191.26 17.66      0      0      0 18.00   243.64
02          7501080912076STERIMAR AGUA D/MAR NASAL        147.68  2.10      0      0      0 18.00   218.78
02          7501080912083STERIMAR AGUA D/MAR NASAL        127.24  2.10      0      0      0 18.00   188.50
02          7502213141233GLINUX N 100UI(R)                224.08 10.10      0      0      0 18.00   285.45
02          7501088605857NATURALAG                         93.04 25.00      0      0      0 18.00   120.11
02          7501088607806NATURALAG                         95.00 23.00      0      0      0 18.00   122.63
02          7896261008717VOLTAREN AEROSOL                 129.68  4.00      0      0      0 18.00   157.15
02          7501070903152UROPIPEMID 400MG                 250.10 14.00      0      0      0 18.00   305.00
02          7501070903268NEODOLAREN GEL                   136.12 14.00      0      0      0 18.00   166.00
02          7501072300034DESENEX                           83.27 12.00      0      0      0 18.00    99.63
02          7501072300065DESENEX TALCO                     46.60 12.00      0      0      0 18.00    55.74
02          7502213142094BAPEX 400MG                      217.33 17.66      0      0      0 18.00   276.85
02          7502213142100PROTALGINE 100MG DISPERS         507.58 17.66      0      0      0 18.00   646.60
02          7502213142131PROTALGINE 25MG DISPER           192.56 17.66      0      0      0 18.00   245.30
02          7501072300072DESENEX TALCO                     72.41 12.00      0      0      0 18.00    86.63
02          7502213142315CIMOGAL 500MG (A)                251.45 17.66      0      0      0 18.00   320.32
02          7501287650504ACUPRIL 20MG                     772.25 10.10      0      0      0 10.00   965.31
02          7501287650603ACUPRIL 10MG                     486.80 10.10      0      0      0 10.00   608.50
02          7501287650702ACUPRIL 20MG                     631.75 10.10      0      0      0 10.00   789.69
02          7501273500028DERMOX TINTURA                   163.37 19.00      0      0      0 18.00   206.80
02          7501273500035LAGENBACH BARRA                   47.80 19.00      0      0      0 18.00    60.50
02          7501273500042DAPSODERMX 100MG (A)             163.37 18.00      0      0      0 18.00   206.80
02          7501273500073DERMOPLAST TUBO                  135.56 19.00      0      0      0 18.00   171.60
02          7501273500080DERMOBRAS TUBO                   163.37 18.00      0      0      0 18.00   206.80
02          7501273500127DERMOTIN A                       189.44 19.00      0      0      0 18.00   239.80
02          7501273500134OLEODERM                         109.49 19.00      0      0      0 18.00   138.60
02          7501273500165KAMILODERM                       163.37 19.00      0      0      0 18.00   206.80
02          7501273500202OLEODERM                          57.35 19.00      0      0      0 18.00    72.60
02          7501250810621ARTRIDOL                         704.75 25.00      0      0      0 18.00   854.00
02          7501201400482ZYMAR 3.0mg                      443.09  6.00      0      0      0 18.00   523.86
02          7501250812519COMPLEJO B DE RIMSA              170.00 25.00      0      0      0 18.00   206.00
02          7501273500226DAPSODERMX 50MG (A)              122.53 18.00      0      0      0 18.00   155.10
02          7501273500233OLEODERM PLUS                    163.37 19.00      0      0      0 18.00   206.80
02          7501273500271BENZADERM                         57.35 19.00      0      0      0 18.00    72.60
02          7501273500288HIDROQUIN                        175.54 18.00      0      0      0 18.00   222.20
02          7501273500295AQUASOAP DERMOLIMPIADOR          215.51 19.00      0      0      0 18.00   272.80
02          7501273500301KAMILODERM                        57.35 18.00      0      0      0 18.00    72.60
02          7501273500318GLICODERM                        245.06 18.00      0      0      0 18.00   310.20
02          7501273500349OLEODERM                          62.57 19.00      0      0      0 18.00    79.20
02          7501188800916TETRA ATLANTIS 500MG (A)          68.97 18.00      0      0      0  8.00    84.65
02          7501188801227PANCLASA                         112.75 25.00      0      0      0  8.00   144.83
02          7501201400581COMBIGAN D                       583.48  6.00      0      0      0 18.00   689.85
02          7501250819747JUVENTAGE                        375.64 17.66      0      0      0 18.00   461.00
02          7501250881553POMADA DEL TIGRE BLANCA           93.25  6.00      0      0      0 18.00   113.00
02          7501250881560POMADA DEL TIGRE ROJA             93.25  6.00      0      0      0 18.00   113.00
02          7501273500370LINIDERM                          74.73 19.00      0      0      0 18.00    94.60
02          7501273500387DERMOPLAST 30                    163.37 19.00      0      0      0 18.00   206.80
02          7501273500394PRESPIR LOCION                   145.12 18.00      0      0      0 18.00   183.70
02          7501273500417DERMOPLAST 40                    176.41 19.00      0      0      0 18.00   223.30
02          7501273500462ACIDLAC CREMA                    189.44 19.00      0      0      0 18.00   239.80
02          7501273500479LAGENBACH BARRAS                  95.59 19.00      0      0      0 18.00   121.00
02          7501273500493DERMOSCALP                        94.72 19.00      0      0      0 18.00   119.90
02          7501273500509SUAVENE CREMA                    189.44 19.00      0      0      0 18.00   239.80
02          7501273500516LIPODERM C CREMA                 245.06 19.00      0      0      0 18.00   310.20
02          7501273500530AQUA SOAP                         87.77 19.00      0      0      0 18.00   111.10
02          7501250825816OXIGRICOL INF (A)                 67.67 25.00      0      0      0 18.00    82.00
02          7501250825939OXIGRICOL 12HR                   101.51 25.00      0      0      0 18.00   123.00
02          300650144179 OPTIFREE EXPRESS                  84.01 23.07      0      0      0 18.00   108.46
02          7501101642234SIL NORBORAL 5MG 500MG           274.86 25.00      0      0      0  8.00   331.00
02          7501101643217SIL NORBORAL 5/1000MG            523.15 24.00      0      0      0  8.00   630.00
02          7501101649035GLIMETAL LEX 2/850MG             466.68 24.00      0      0      0  8.00   562.00
02          7501101649097GLIMETAL LEX 4/850MG             651.86 24.00      0      0      0  8.00   785.00
02          7501101649158PREDIAL PLUS 500MG               233.34 24.00      0      0      0  8.00   281.00
02          7501101649219PREDIAL PLUS 850MG               321.36 24.00      0      0      0  8.00   387.00
02          732013080044 NEOSTRATA ULTRA SUAV 10          343.82  5.00      0      0      0 10.00   388.00
02          732013080075 NEOSTRATA P/MANCHAS 10           414.68  5.00      0      0      0 10.00   468.00
02          732013080099 NEOSTRATA P/MANCHAS S/HID        414.71  5.00      0      0      0 10.00   468.00
02          7501110565173OCUVITE ADULT                    307.87 11.00      0      0      0 18.00   384.84
02          7501101654985GLIMETAL 4/1000MG                614.49 24.00      0      0      0  8.00   740.00
02          7501101698453DORSAL 15/200MG                  411.04 24.00      0      0      0  8.00   495.00
02          732013084042 NEOSTRATA CONTORNO OJOS4         343.81  5.00      0      0      0 10.00   388.00
02          31669887     CYSTIZ                           458.97  5.00      0      0      0 10.00   518.00
02          732013088088 NEOCEUTICALS HQ DESPIGMEN        415.59  5.00      0      0      0 10.00   469.00
02          051131000223 OPTICLUDE INFANTIL PARCHE         95.40  5.00      0      0      0  0.00   100.32
02          051131000230 OPTICLUDE ADULTO PARCHE           95.40  5.00      0      0      0  0.00   100.32
02          051131862937 NEXCARE VEND LIQUIDA              91.77  5.00      0      0      0  0.00    99.14
02          7501050610056GARAMICINA 80MG (A)              486.22 10.10      0      0      0 18.00   585.53
02          7501050610063GARAMICINA GU 160MG (A)          627.09 10.10      0      0      0 18.00   755.18
02          7501050610070GARAMICINA 120MG (A)             459.57 10.10      0      0      0 18.00   553.44
02          7501048613601GASA PROTEC EST 10X10             12.65  5.00      0      0      0  0.00    14.54
02          7501048613700GASA PROTEC EST 10X10            110.66  5.00      0      0      0  0.00   127.19
02          7501048613908GASA PROTEC EST 7.5X5             63.03  5.00      0      0      0  0.00    72.45
02          7501048693009VENDA ELAST PROTEC 5CMX5M          3.68 20.00      0      0      0  0.00     4.24
02          7501048693306VENDA ELAST PROTEC 7CMX5M          4.91 20.00      0      0      0  0.00     5.63
02          7501050649834GARAMICINA HYPAK 80MG (A)        126.56 10.10      0      0      0 18.00   152.41
02          7501050610520GARAMICINA 20MG 2ML INF (A)      271.84 10.10      0      0      0 18.00   327.36
02          7501050610537GARAMICINA 80MG 2ML (A)          398.32 10.10      0      0      0 18.00   479.67
02          7501048693603VENDA ELAST PROTEC 10CMX5          6.72 20.00      0      0      0  0.00     7.73
02          7501048693900VENDA ELAST PROTEC 15CMX5          9.90 20.00      0      0      0  0.00    11.37
02          7501048694501VENDA ELAST PROTEC 30CMX5         16.11 20.00      0      0      0  0.00    18.51
02          7501050610636GARAMICINA HYPAK 120MG (A)       122.57 10.10      0      0      0 18.00   147.60
02          7501174600117ADEROGYL 15 ORAL 3ML              28.34 17.00      0      0      0 18.00    33.90
02          7501174600124ADEROGYL C                        53.74 17.00      0      0      0 18.00    64.30
02          7501174601022CALCIGENOL DOBLE                 105.84  9.00      0      0      0 18.00   126.63
02          7501070600853REPLENS 5.9GR                    236.28 10.10      0      0      0 18.00   303.50
02          7501050611084GARAMICINA                        65.63 10.10      0      0      0 18.00    79.03
02          7501122962106DEXTREVIT IV 10ML (R)            142.75  9.09      0      0      0  8.00   175.20
02          7501122965718PROTAMINA 1000                   109.94  9.09      0      0      0  8.00   134.93
02          7501123010608CARDISPAN                        248.51  9.09      0      0      0  8.00   304.98
02          7501871721252SINTEMEL 2.5MG                   449.74 33.33      0      0      0 18.00   545.00
02          7501122900399EFUDIX                           608.35  8.00      0      0      0  8.00   751.39
02          5900273001566COLGATE CEP EX CLEAN MED          13.59 51.00      0      0      0  0.00    15.62
02          4260085520121DARDIA POMADA                    273.15 10.10      0      0      0 10.00   336.96
02          7509546015514LADY S S ACTIVE FRESH             28.46 20.00      0      0      0  0.00    32.34
02          7502004531441CUBREBOCA SENCILLO                 4.72  9.09      0      0      0  0.00     9.70
02          7502001631137POMADA DE ARNICA                   8.44  5.00      0      0      0  0.00     9.39
02          7502001631120POMADA DE MANZANA                  8.44 15.00      0      0      0  0.00     9.39
02          7501122900313DERMATIX ULTRA                   495.58  9.09      0      0      0  8.00   608.20
02          7501124311100CALCID SURT FCO                   33.75 21.00      0      0      0 18.00    45.00
02          7501048333301ALCOHOL DESNAT 70 PROCT           31.05 15.00      0      0      0  0.00    35.29
02          7501165005563ALLEMAR NASAL                    143.14 11.00      0      0      0 18.00   171.30
02          7501165005570ALLEMAR NASAL                    117.73 11.00      0      0      0 18.00   140.90
02          7501022105337GRISI CONCHA NACAR                11.32  3.00      0      0      0  0.00    12.30
02          8437002567217ISOCARE NEOVASC                  234.81  5.00      0      0      0 10.00   265.00
02          7501022105207GRISI NEUTRO GIGANTE               9.87  3.00      0      0      0  0.00    11.09
02          7501022105191GRISI NEUTRO                       7.38  3.00      0      0      0  0.00     8.30
02          7501022105276GRISI NEUTRO                      11.71  3.00      0      0      0  0.00    13.16
02          7501022107027GRISI PERRO CONSENTIDO            15.26  4.00      0      0      0  0.00    17.99
02          7502213142469KUPPAM 11 40 MG                  385.75 10.10      0      0      0 18.00   491.40
02          7501250838267GEX 10ML                          81.48 10.10      0      0      0 18.00   100.00
02          7501070903237FLUXEDAN                         105.78 14.00      0      0      0 18.00   129.00
02          7501033956140GLUCERNA SR FRESA                 42.89 11.00      0      0      0  5.00    49.30
02          7501033956126GLUCERNA SR VAINILLA              42.89 11.00      0      0      0  5.00    49.30
02          7501123012923ENI 500MG (A)                    355.30  9.09      0      0      0  8.00   436.05
02          7501165006126NEOMELUFEN                        66.07  8.00      0      0      0 18.00    79.07
02          7501250838168GEX                              163.78 10.10      0      0      0 18.00   201.00
02          7501125130885ELECTROLIT UVA PED                14.55 20.00      0      0      0 18.00    17.20
02          7501123014903HIDROCILINA 400000 UI (A)         39.60 16.66      0      0      0  8.00    50.86
02          7506200700083LASDERMA CRE                     400.89 17.66      0      0      0 18.00   507.45
02          7506200700106ALIAGEN 100 g                    401.55 17.66      0      0      0 18.00   508.29
02          7502213142841ARA 2 11 50MG                    211.53 17.66      0      0      0 18.00   269.46
02          7502213142865NATOLOX 35MG                     688.91 17.66      0      0      0 18.00   877.59
02          7501124814779VOLTAREN ARTRITIS                140.74  7.00      0      0      0 18.00   170.55
02          7501124815486VOLTAREN EMULGEL 33               43.35  1.00      0      0      0 18.00    52.53
02          7501022103111RICITOS DE ORO                    16.11  8.00      0      0      0  0.00    18.96
02          7501022103166RICITOS DE ORO                    33.76  8.00      0      0      0  0.00    39.71
02          7501125143199ELECTROLIT PED UVA PLAS           19.51 20.00      0      0      0 18.00    23.07
02          7501125143205ELECTROLIT PED FRESA PLAS         19.51 20.00      0      0      0 18.00    23.07
02          748499100848 DRUSEN LAZ SUPLEMENTO A          277.87 10.10      0      0      0 18.00   353.97
02          7501070903497LIBERTRIM 100MG                  100.86 14.00      0      0      0 18.00   123.00
02          7501070903510AKABAR 200MG                      91.84 14.00      0      0      0 18.00   112.00
02          7501125118296FLUONING 500MG(A)                285.94 15.30      0      0      0 18.00   350.85
02          7501125131059URTISIN 100MG                     98.97 14.30      0      0      0 18.00   117.00
02          7501125139543COMBESTERAL SOL INY              142.96 14.30      0      0      0 18.00   169.00
02          7501125140723NAXIFELAR 250MG INF (A)          122.49 15.30      0      0      0 18.00   144.80
02          7501123019106YECTAMICINA 20MG (A)              72.79 16.66      0      0      0  8.00    93.51
02          7501123019304YECTAMICINA 80MG (A)             106.93 16.66      0      0      0  8.00   137.36
02          7501048692088VENDA MALLA TUB PROTEC N1          9.62  5.00      0      0      0  0.00    10.94
02          7501048692187VENDA MALLA TUB PROTEC N2          9.98  5.00      0      0      0  0.00    11.34
02          7501125143182ELECTROLIT PED MANZA PLAS         19.51 20.00      0      0      0 18.00    23.07
02          7501125126031NAXIFELAR 500MG (A)              118.68 15.30      0      0      0 18.00   140.30
02          7501125114809NORFABEN M 500/5MG               111.52 16.66      0      0      0 18.00   136.84
02          7501250838625POLIBETIC                        222.45 17.66      0      0      0 18.00   273.00
02          7501033956317PEDIASURE PLUS CHOCOLATE          42.54 10.00      0      0      0  5.00    48.90
02          7501124103552RINOFREN                          65.60 14.00      0      0      0 10.00    80.00
02          7501033955693PEDIASURE PLUS VAINILLA          236.11  6.00      0      0      0  5.00   271.40
02          7501033956331PEDIASURE PLUS FRESA              42.54 10.00      0      0      0  5.00    48.90
02          7501033956294PEDIASURE PLUS VAINILLA           42.54 10.00      0      0      0  5.00    48.90
02          7503002770474PRUEBA EMBARAZO ILUSSIONE         44.03 16.66      0      0      0  0.00   109.00
02          7501070903473CIPROLISINA                      211.56 14.00      0      0      0 18.00   258.00
02          7501314707522DIOCAPS 100MG SENOSIAIN           96.09  9.09      0      0      0 18.00   120.00
02          7501035916586STEFANO SPAZIO                    31.98 20.00      0      0      0  0.00    36.34
02          7792129001916CANDEREL                          29.10 21.00      0      0      0  0.00    36.37
02          7501048620906ALGODON PROTEC PLISADO            15.22 15.00      0      0      0  0.00    17.91
02          7501048621002ALGODON PROTEC PLISADO            25.19 10.00      0      0      0  0.00    28.95
02          7501048621200ALGODON PROTEC PLISADO            37.69 10.00      0      0      0  0.00    43.31
02          7501048620807ALGODON PROTEC PLISADO             8.51 15.00      0      0      0  0.00     9.78
02          7501037908084BUSCAPINA                         70.41 10.10      0      0      0 18.00    83.86
02          7501048332977ALCOHOL DESNAT 70 PROTEC           4.85 15.00      0      0      0  0.00     5.58
02          7501048621606TORUNDA ALGODON PROTEC            60.65 15.00      0      0      0  0.00    69.71
02          7501048621408TORUNDA ALGODON PROTEC            13.35 15.00      0      0      0  0.00    15.35
02          7501048333059ALCOHOL DESNAT 70 PROTEC           7.25 15.00      0      0      0  0.00     8.34
02          7501165005594MELOX NOCHE                       80.14 10.00      0      0      0 18.00    95.89
02          7501165006430MELOX NOCHE                      120.05 10.00      0      0      0 18.00   143.69
02          7501070903503LIBERTRIM 100MG                  200.08 14.00      0      0      0 18.00   244.00
02          7501125121401ENTEREX VAINILLA KIDZ             38.80 10.00      0      0      0 18.00    46.00
02          7501417001749VIDA MAGNESIO                     39.31 14.00      0      0      0 18.00    52.40
02          7502242120001CERCIORAT 0.75MG                  84.80 16.66      0      0      0  5.00   106.00
02          7501070600587SYNCOL NOCTURNO                   65.01 17.66      0      0      0 18.00    83.50
02          7501070600617SYNCOL TEEN                       43.99 17.66      0      0      0 18.00    56.50
02          7501385493850VARITON                          265.73 10.10      0      0      0  5.00   320.00
02          7501125122491SODRIMAX                         133.24 15.30      0      0      0 18.00   157.50
02          7501072300225TING AEROSOL                      91.59 12.00      0      0      0 18.00   109.62
02          7501070903817LIBERTRIM 200 MG                 373.11 14.00      0      0      0 18.00   455.00
02          7501070980009PROESSE SUPL ALIMENTICIO         229.60 14.00      0      0      0 18.00   280.00
02          7501080912281STERIMAR HYPERTONIC              171.55  2.10      0      0      0 18.00   228.74
02          7501048691005VENDA ELAST TENSOLAS P            17.30  5.00      0      0      0  0.00    19.88
02          7501048691104VENDA ELAST TENSOLAT P            23.73  5.00      0      0      0  0.00    26.98
02          7501122900467ARGENTAFIL AL 1 (A)              120.65 16.66      0      0      0  8.00   148.07
02          7501124815103LAMISIL PRECIO DE 15GR            72.66 12.00      0      0      0 18.00    80.00
02          7501023111771NEXCARE ACTIV SPOTS VEND          12.08  5.00      0      0      0  0.00    13.22
02          7501033956133GLUCERNA SR CHOCOLATE             42.89 11.00      0      0      0  5.00    49.30
02          7501125110504ISAVIR 200MG                     287.63 15.30      0      0      0 18.00   340.00
02          7501125122583URTISIN 10MG                     107.45 14.30      0      0      0 18.00   127.02
02          300650144094 OPTIFREE EXPRESS                 125.46 23.07      0      0      0 18.00   161.97
02          7501070637309KIN GINGIVAL DENTIF PASTA        116.39 17.66      0      0      0 18.00   149.50
02          7501273500561REMEXA DIABETES CARE             133.83 19.00      0      0      0 18.00   169.40
02          353885490252 ONE TOUCH ULT SOFT LANCET         54.27  7.00      0      0      0  0.00    65.39
02          353885160254 ONE TOUCH ULTRA TIRAS            178.21  7.00      0      0      0  0.00   214.71
02          7501070600877REPLENS APLICADOR                236.28 10.10      0      0      0 18.00   303.50
02          7803510001818CIRUELAX COMP                     78.00 17.00      0      0      0 18.00   104.00
02          7501072300096DESENEX AEROSOL                   86.40 12.00      0      0      0 18.00   103.38
02          7501072300089DESENEX AEROSOL                   70.67 12.00      0      0      0 18.00    84.55
02          7501072300027DESENEX                           68.58 12.00      0      0      0 18.00    82.06
02          7501072300010DESENEX                           49.90 12.00      0      0      0 18.00    59.70
02          7501122960713AMOXIVET 500MG (A)               104.96  9.09      0      0      0  8.00   134.82
02          7501122900368ARGENTAFIL AL 1 SPRAY (A)        270.25 16.66      0      0      0  8.00   331.68
02          7501685170178SOFT LUBE PLEASURE PLUS           47.58 16.66      0      0      0  0.00    66.38
02          7501685170116SOFT LUBE LUBRIC VAGINAL          36.15 16.66      0      0      0  0.00    50.86
02          7501188800800IGREXA RD MASTIC                 135.58 25.00      0      0      0  8.00   166.40
02          7501070903787LM6                               80.36 14.00      0      0      0 18.00    98.00
02          7501022105078GRISI AVENA                        9.13  3.00      0      0      0  0.00    10.26
02          7501022105436GRISI AVENA                       11.59  3.00      0      0      0  0.00    13.03
02          7501123011711FITOESTIMULINA GASAS 4GR         388.62 16.66      0      0      0  8.00   476.94
02          7501123000401FITOESTIMULINA GASAS 4GR         135.17 16.66      0      0      0  8.00   165.89
02          7501125130892ELECTROLIT FRESA PED              14.55 20.00      0      0      0 18.00    17.20
02          7501125104763ELECTROLIT FRESA                  44.01 25.00      0      0      0 18.00    54.00
02          7501125130878ELECTROLIT MANZANA PED            14.55 20.00      0      0      0 18.00    17.20
02          7501125104770ELECTROLIT MANZANA                44.01 25.00      0      0      0 18.00    54.00
02          7501125103582ELECTROLIT PINA                   25.84 25.00      0      0      0 18.00    31.70
02          7501033956195GAIN 3 IQ PLUS                   109.44  5.00      0      0      0  5.00   121.60
02          7501033956201GAIN 3 IQ PLUS                   219.69  5.00      0      0      0  5.00   244.10
02          7501008485033TABCIN NOCHE                      44.26  5.00      0      0      0 10.00    53.23
02          7501048613809GASA PROTEC EST 7.5X5              7.12  5.00      0      0      0  0.00     8.18
02          7501125122866SUPACID 40MG                     183.57 15.30      0      0      0 18.00   217.00
02          7501125125973SUPACID 20MG                      68.45 16.66      0      0      0 18.00    84.00
02          7501125122521SUPACID 40MG                     357.67 15.30      0      0      0 18.00   392.18
02          75007027     SOLUTINA CAJA                     54.09 25.00      0      0      0 18.00    69.82
02          75017279     SOLUTINA BLIST                    54.09 25.00      0      0      0 18.00    69.82
02          7501080912274STERIMAR BEBE                    136.02  2.10      0      0      0 18.00   181.32
02          7502001632264SULFATIAZOL                       44.84 15.00      0      0      0  0.00    50.95
02          7501400800625SULFATIAZOL                       34.65 17.66      0      0      0 18.00    42.00
02          75014032     SOLUTINA F CAJA                   54.09 25.00      0      0      0 18.00    69.82
02          75017255     SOLUTINA F BLIST                  54.09 25.00      0      0      0 18.00    69.82
02          7501022133071ORGANOGAL SHAMPOO                 42.69 12.00      0      0      0  0.00    49.07
02          7501273500585OLEODERM BABY                     57.35 19.00      0      0      0 18.00    72.60
02          7501058374110SICO PLEASURE CARTERA             34.51 16.66      0      0      0  0.00    48.28
02          891671002215 MINITRAN 18MG ( 5MG/24H)         328.88  9.09      0      0      0 18.00   418.95
02          891671002222 MINITRAN 36MG (10MG/24H)         387.40  9.09      0      0      0 18.00   493.50
02          891671002239 MINITRAN 18MG ( 5MG/24H)         304.97  9.09      0      0      0 18.00   388.50
02          7502214980015PRUDENCE PRESERV CLASICO          10.93 10.00      0      0      0  0.00    19.29
02          7501685175005SICO RING ANILLO VIBRADOR         76.96 16.66      0      0      0  0.00    94.83
02          7501124103514RINOFREN                          80.36 14.00      0      0      0 18.00    98.00
02          7501273500554OLEODERM BABY                    125.14 19.00      0      0      0 18.00   158.40
02          7501590233043POSTINOR 2 0.75MG                 77.00 51.00      0      0      0  5.00    87.00
02          310119022009 OPCONA                            38.07 11.00      0      0      0 18.00    47.59
02          7502004530017VENDA ELAST SELECTA                2.40  9.09      0      0      0  0.00     3.12
02          7501037901580SECOTEX OCAS 0.4MG               789.04 16.66      0      0      0 18.00   939.86
02          7501273500592DOSMIN EMULSION                  116.45 19.00      0      0      0 18.00   147.40
02          7501022150412RICITOS DE ORO MIEL                9.75  4.00      0      0      0  0.00    10.60
02          7502004530055VENDA ELAST SELECTA 7X5            3.57  9.09      0      0      0  0.00     4.64
02          7502004530024VENDA ELAST SELECTA 10X5           4.74  9.09      0      0      0  0.00     6.16
02          7502004530109VENDA ELAST SELECTA 30X5          11.70  9.09      0      0      0  0.00    15.21
02          8470003468237ENDOCARE TENSAGE CREMA           526.34  5.00      0      0      0 10.00   594.00
02          324208358054 ZYLETH OFT                       285.31  9.00      0      0      0 18.00   356.64
02          7501101649646BICARTIAL 2.5 / 50 mg            325.51 24.00      0      0      0  8.00   392.00
02          7501101649660BICARTIAL 5 / 100 mg             325.51 24.00      0      0      0  8.00   392.00
02          353885003315 ONE TOUCH ULT MINI PLATA         513.87  7.00      0      0      0  0.00   619.12
02          353885003322 ONE TOUCH ULT MINI ROSA          513.87  7.00      0      0      0  0.00   619.12
02          7501125135118VOTRIPAX 3 JER 5 mg              231.23 14.30      0      0      0 18.00   273.34
02          7502213142889SILDEREC 2 mg                    501.41 10.10      0      0      0 18.00   638.73
02          7501034690968PHARMATON DUO PACK 2 X 1         167.53 12.00      0      0      0 18.00   199.55
02          7501033957215PEDIASURE PLUS CHOCOLATE         236.11  6.00      0      0      0  5.00   271.40
02          7501124816933VOLTAREN DOLO 25 mg               55.67 13.00      0      0      0 18.00    67.46
02          7501124816940VOLTAREN DOLO 25 mg              106.01 13.00      0      0      0 18.00   128.47
02          7501250840086NANAVIT 115.600/77.000 m         215.12  5.00      0      0      0 18.00   264.00
02          7501023111719NEXCARE VENDITAS DE TELA          15.72  5.00      0      0      0  0.00    16.23
02          7501369200016ESTOMAQUIL POLVO 3G               76.50 17.66      0      0      0 18.00    91.50
02          7501165007345NATURETTI                         38.44 10.00      0      0      0 18.00    46.00
02          7501122900634TOBLEFAM 500MG (A)               136.62  9.09      0      0      0  8.00   167.67
02          7501033957420ENSURE ADVANCE                   281.27  6.00      0      0      0  5.00   323.30
02          8904091150496TABITRAL CREMA                   308.89 10.10      0      0      0 18.00   392.70
02          7502214982477PRUDENCE SAB FRESA                13.37 10.00      0      0      0  0.00    23.58
02          7501165007659HISTIACIL NF 22.5/22.5MG         113.64 13.00      0      0      0 18.00   136.00
02          7501034635280PHARMATON PROTECT                176.56  9.10      0      0      0 18.00   210.31
02          7501034635297PHARMATON PROTECT                284.17  9.10      0      0      0 18.00   338.49
02          7501125152566SUPACID 20MG                     118.14 16.66      0      0      0 18.00   145.00
02          7502261160002FORCEDOL 10/25MG                 338.16  5.00      0      0      0 18.00   415.00
02          7501493891913ZENTANOR 5MG                     411.75 20.00      0      0      0 18.00   549.00
02          7501250840253POLICARDIC                       309.63 10.10      0      0      0 18.00   380.00
02          7502261160767OACEREIN 50MG                    427.79  8.50      0      0      0 18.00   525.00
02          7502213143176TACEX IM 1G (A)                  273.59 17.66      0      0      0 18.00   348.53
02          7502213143183TACEX IV 1G (A)                  273.59 10.10      0      0      0 18.00   348.53
02          7501125122347ENTEREX DIABETIC FRESA            41.27 14.30      0      0      0 18.00    48.77
02          7502261160026FORCEDOL 10/25MG                 583.41  5.00      0      0      0 18.00   716.00
02          7502261160019FORCEDOL 10/25MG                 343.86  5.00      0      0      0 18.00   422.00
02          7501070647025ETURION 20MG                     260.99 16.66      0      0      0 10.00   328.28
02          7501070647001ETURION 20MG                     160.29 16.66      0      0      0 10.00   201.62
02          7501070647087ETURION 40MG                     256.16 16.66      0      0      0 10.00   322.21
02          7501273500608AQUA SOAP                        104.28 19.00      0      0      0 18.00   132.00
02          7501165008144TING XZONE POWER RUSH             39.10  8.00      0      0      0 18.00    46.80
02          7501165008137TING XZONE ADVENTURE              39.10  8.00      0      0      0 18.00    46.80
02          7501165008113TING XZONE ENERGY                 39.10  8.00      0      0      0 18.00    46.80
02          7501165008120TING XZONE ENERGY                 24.23  8.00      0      0      0 18.00    29.00
02          353885008211 TIRAS REACTIVAS SEL SIM          279.00 15.00      0      0      0  0.00   348.75
02          353885007191 MEDIDOR ONE TOUCH SEL SIM        431.29 21.00      0      0      0  0.00   539.11
02          7501258211055RESTIVVIT                        453.73 16.66      0      0      0 18.00   556.86
02          7501258211079PREDICTOR PRUEBA EMBARAZO        176.01 16.66      0      0      0 18.00   216.00
02          7501165008717ICY HOT 30/10PPM                  87.74 15.00      0      0      0 18.00   105.00
02          7501165008700ICY HOT 30/10PPM                  52.65 15.00      0      0      0 18.00    63.00
02          7501258211758FLEVOX 500MG (A)                 263.99 16.66      0      0      0  0.00   371.81
02          7501258211789CLAVUSER 500/125MG (A)           213.96 16.66      0      0      0  0.00   301.35
02          7501258211956CLAVUSER JR 250/62.5MG (A)       130.82 16.66      0      0      0  0.00   184.26
02          7501258211772CLAVUSER JR 12H 400/57MG (A)     120.02 16.66      0      0      0  0.00   169.04
02          7501258211765CLAVUSER PED12H200/28.5MG(A)      79.59 16.66      0      0      0  0.00   112.10
02          7501165008335LACTACYD FRESH                    74.48 11.00      0      0      0 18.00    89.13
02          7501124818005LAMISIL CREMA 2X1                 72.66  1.00      0      0      0 18.00    80.00
02          7501124818050LAMISIL CREMA 6X4                166.08  1.00      0      0      0 18.00   176.00
02          7501258211888CLAVUSER 12HRS 875/125MG (A)     188.66 16.66      0      0      0  0.00   265.72
02          7501258211895SERITRAL 100MG                   281.52 16.66      0      0      0  0.00   396.50
02          7501258211963CLAVUSER PED 25/6.25MG/ML(A)      74.11 16.66      0      0      0  0.00   104.38
02          0300651361469OPTIFREE PUREMOIST               136.27 23.07      0      0      0 18.00   181.38
02          0300651361476OPTIFREE PUREMOIST                91.40 23.07      0      0      0 18.00   121.52
