2014072602216187131932     P0000020202GEL X-TREME AZUL 250 G             0000003000000000000000000007100000000071000000002130000000021300000000034200000000000075030021635280000   00000000000000000000000000                                        
2014072602216187131932     P0000020202GEL X-TREME AZUL 250 G             0000003000000000000000000007100000000071000000002130000000021300000000034200000000000075030021635280000   00000000000000000000000000                                        
2014072602216187131932     P0000020205PILOPEPTAN 650 MH C/60 CAPS.       0000001000000000000000000456690000004566900000045669000000456690000000730700000000000084233720250440000   00000000000000000000000000                                        
2014072602216187131932     P0000020202GEL X-TREME AZUL 250 G             0000003000000000000000000007100000000071000000002130000000021300000000034200000000000075030021635280000   00000000000000000000000000                                        
2014072602216187131932     P0000020205PILOPEPTAN 650 MH C/60 CAPS.       0000001000000000000000000456690000004566900000045669000000456690000000730700000000000084233720250440000   00000000000000000000000000                                        
2014072602216187131932     P0000020205SIETE MACHOS LOC 220ML             0000001000000000000000000062310000000623100000006231000000062310000000099700000000000075011687103100000   00000000000000000000000000                                        
2014072602216187131932     P0000020202GEL X-TREME AZUL 250 G             0000003000000000000000000007100000000071000000002130000000021300000000034200000000000075030021635280000   00000000000000000000000000                                        
2014072602216187131932     P0000020205PILOPEPTAN 650 MH C/60 CAPS.       0000001000000000000000000456690000004566900000045669000000456690000000730700000000000084233720250440000   00000000000000000000000000                                        
2014072602216187131932     P0000020205SIETE MACHOS LOC 220ML             0000001000000000000000000062310000000623100000006231000000062310000000099700000000000075011687103100000   00000000000000000000000000                                        
2014072602216187131932     P0000020201TRADOL RETARD 100 MG TAB 30        0000001000000000000000000548500000005485000000054850000000548500000000000000000000000075022092909140000   00000000000000000000000000                                        
2014072602216187131932     P0000020202GEL X-TREME AZUL 250 G             0000003000000000000000000007100000000071000000002130000000021300000000034200000000000075030021635280000   00000000000000000000000000                                        
2014072602216187131932     P0000020205PILOPEPTAN 650 MH C/60 CAPS.       0000001000000000000000000456690000004566900000045669000000456690000000730700000000000084233720250440000   00000000000000000000000000                                        
2014072602216187131932     P0000020205SIETE MACHOS LOC 220ML             0000001000000000000000000062310000000623100000006231000000062310000000099700000000000075011687103100000   00000000000000000000000000                                        
2014072602216187131932     P0000020201TRADOL RETARD 100 MG TAB 30        0000001000000000000000000548500000005485000000054850000000548500000000000000000000000075022092909140000   00000000000000000000000000                                        
2014072602216187131932     P0000020205TENA S CALZON DESCH ANAT 10GDE     0000001000000000000000000068960000000689600000006896000000068960000000110300000000000075010190510430000   00000000000000000000000000                                        
2014072602216187131932     P0000020202GEL X-TREME AZUL 250 G             0000003000000000000000000007100000000071000000002130000000021300000000034200000000000075030021635280000   00000000000000000000000000                                        
2014072602216187131932     P0000020205PILOPEPTAN 650 MH C/60 CAPS.       0000001000000000000000000456690000004566900000045669000000456690000000730700000000000084233720250440000   00000000000000000000000000                                        
2014072602216187131932     P0000020205SIETE MACHOS LOC 220ML             0000001000000000000000000062310000000623100000006231000000062310000000099700000000000075011687103100000   00000000000000000000000000                                        
2014072602216187131932     P0000020201TRADOL RETARD 100 MG TAB 30        0000001000000000000000000548500000005485000000054850000000548500000000000000000000000075022092909140000   00000000000000000000000000                                        
2014072602216187131932     P0000020205TENA S CALZON DESCH ANAT 10GDE     0000001000000000000000000068960000000689600000006896000000068960000000110300000000000075010190510430000   00000000000000000000000000                                        
2014072602216187131932     P0000020202VASELINE PURE SKIN 50G ORIG        0000003000000000000000000012710000000127100000003813000000038130000000060900000000000075010563395310000   00000000000000000000000000                                        
2014072602216187131932     P0000020202GEL X-TREME AZUL 250 G             0000003000000000000000000007100000000071000000002130000000021300000000034200000000000075030021635280000   00000000000000000000000000                                        
2014072602216187131932     P0000020205PILOPEPTAN 650 MH C/60 CAPS.       0000001000000000000000000456690000004566900000045669000000456690000000730700000000000084233720250440000   00000000000000000000000000                                        
2014072602216187131932     P0000020205SIETE MACHOS LOC 220ML             0000001000000000000000000062310000000623100000006231000000062310000000099700000000000075011687103100000   00000000000000000000000000                                        
2014072602216187131932     P0000020201TRADOL RETARD 100 MG TAB 30        0000001000000000000000000548500000005485000000054850000000548500000000000000000000000075022092909140000   00000000000000000000000000                                        
2014072602216187131932     P0000020205TENA S CALZON DESCH ANAT 10GDE     0000001000000000000000000068960000000689600000006896000000068960000000110300000000000075010190510430000   00000000000000000000000000                                        
2014072602216187131932     P0000020202VASELINE PURE SKIN 50G ORIG        0000003000000000000000000012710000000127100000003813000000038130000000060900000000000075010563395310000   00000000000000000000000000                                        
2014072602216187131932     P0000020201MUCOSOLVAN COMP SOL 120ML          0000001000000000000000000119180000001191800000011918000000119180000000000000000000000075010346510200000   00000000000000000000000000                                        
2014072602216187131932     P0000020202GEL X-TREME AZUL 250 G             0000003000000000000000000007100000000071000000002130000000021300000000034200000000000075030021635280000   00000000000000000000000000                                        
2014072602216187131932     P0000020205PILOPEPTAN 650 MH C/60 CAPS.       0000001000000000000000000456690000004566900000045669000000456690000000730700000000000084233720250440000   00000000000000000000000000                                        
2014072602216187131932     P0000020205SIETE MACHOS LOC 220ML             0000001000000000000000000062310000000623100000006231000000062310000000099700000000000075011687103100000   00000000000000000000000000                                        
2014072602216187131932     P0000020201TRADOL RETARD 100 MG TAB 30        0000001000000000000000000548500000005485000000054850000000548500000000000000000000000075022092909140000   00000000000000000000000000                                        
2014072602216187131932     P0000020205TENA S CALZON DESCH ANAT 10GDE     0000001000000000000000000068960000000689600000006896000000068960000000110300000000000075010190510430000   00000000000000000000000000                                        
2014072602216187131932     P0000020202VASELINE PURE SKIN 50G ORIG        0000003000000000000000000012710000000127100000003813000000038130000000060900000000000075010563395310000   00000000000000000000000000                                        
2014072602216187131932     P0000020201MUCOSOLVAN COMP SOL 120ML          0000001000000000000000000119180000001191800000011918000000119180000000000000000000000075010346510200000   00000000000000000000000000                                        
2014072602216187131932     P0000020201BUSCAPINA 20 MG AMP. 3X1 ML        0000001000000000000000000091410000000914100000009141000000091410000000000000000000000075010379080150000   00000000000000000000000000                                        
2014072602216187131932     P0000020202GEL X-TREME AZUL 250 G             0000003000000000000000000007100000000071000000002130000000021300000000034200000000000075030021635280000   00000000000000000000000000                                        
2014072602216187131932     P0000020205PILOPEPTAN 650 MH C/60 CAPS.       0000001000000000000000000456690000004566900000045669000000456690000000730700000000000084233720250440000   00000000000000000000000000                                        
2014072602216187131932     P0000020205SIETE MACHOS LOC 220ML             0000001000000000000000000062310000000623100000006231000000062310000000099700000000000075011687103100000   00000000000000000000000000                                        
2014072602216187131932     P0000020201TRADOL RETARD 100 MG TAB 30        0000001000000000000000000548500000005485000000054850000000548500000000000000000000000075022092909140000   00000000000000000000000000                                        
2014072602216187131932     P0000020205TENA S CALZON DESCH ANAT 10GDE     0000001000000000000000000068960000000689600000006896000000068960000000110300000000000075010190510430000   00000000000000000000000000                                        
2014072602216187131932     P0000020202VASELINE PURE SKIN 50G ORIG        0000003000000000000000000012710000000127100000003813000000038130000000060900000000000075010563395310000   00000000000000000000000000                                        
2014072602216187131932     P0000020201MUCOSOLVAN COMP SOL 120ML          0000001000000000000000000119180000001191800000011918000000119180000000000000000000000075010346510200000   00000000000000000000000000                                        
2014072602216187131932     P0000020201BUSCAPINA 20 MG AMP. 3X1 ML        0000001000000000000000000091410000000914100000009141000000091410000000000000000000000075010379080150000   00000000000000000000000000                                        
2014072602216187131932     P0000020201BUSCAPINA COMP A 3                 0000001000000000000000000165560000001655600000016556000000165560000000000000000000000075010379085100000   00000000000000000000000000                                        
2014072602216187131932     P0000020202GEL X-TREME AZUL 250 G             0000003000000000000000000007100000000071000000002130000000021300000000034200000000000075030021635280000   00000000000000000000000000                                        
2014072602216187131932     P0000020205PILOPEPTAN 650 MH C/60 CAPS.       0000001000000000000000000456690000004566900000045669000000456690000000730700000000000084233720250440000   00000000000000000000000000                                        
2014072602216187131932     P0000020205SIETE MACHOS LOC 220ML             0000001000000000000000000062310000000623100000006231000000062310000000099700000000000075011687103100000   00000000000000000000000000                                        
2014072602216187131932     P0000020201TRADOL RETARD 100 MG TAB 30        0000001000000000000000000548500000005485000000054850000000548500000000000000000000000075022092909140000   00000000000000000000000000                                        
2014072602216187131932     P0000020205TENA S CALZON DESCH ANAT 10GDE     0000001000000000000000000068960000000689600000006896000000068960000000110300000000000075010190510430000   00000000000000000000000000                                        
2014072602216187131932     P0000020202VASELINE PURE SKIN 50G ORIG        0000003000000000000000000012710000000127100000003813000000038130000000060900000000000075010563395310000   00000000000000000000000000                                        
2014072602216187131932     P0000020201MUCOSOLVAN COMP SOL 120ML          0000001000000000000000000119180000001191800000011918000000119180000000000000000000000075010346510200000   00000000000000000000000000                                        
2014072602216187131932     P0000020201BUSCAPINA 20 MG AMP. 3X1 ML        0000001000000000000000000091410000000914100000009141000000091410000000000000000000000075010379080150000   00000000000000000000000000                                        
2014072602216187131932     P0000020201BUSCAPINA COMP A 3                 0000001000000000000000000165560000001655600000016556000000165560000000000000000000000075010379085100000   00000000000000000000000000                                        
2014072602216187131932     P0000020201RENITEC RENITEC 5MG X 30           0000001000000000000000000213890000002138900000021389000000213890000000000000000000000075013260034760000   00000000000000000000000000                                        
2014072602216187131932     P0000020202GEL X-TREME AZUL 250 G             0000003000000000000000000007100000000071000000002130000000021300000000034200000000000075030021635280000   00000000000000000000000000                                        
2014072602216187131932     P0000020205PILOPEPTAN 650 MH C/60 CAPS.       0000001000000000000000000456690000004566900000045669000000456690000000730700000000000084233720250440000   00000000000000000000000000                                        
2014072602216187131932     P0000020205SIETE MACHOS LOC 220ML             0000001000000000000000000062310000000623100000006231000000062310000000099700000000000075011687103100000   00000000000000000000000000                                        
2014072602216187131932     P0000020201TRADOL RETARD 100 MG TAB 30        0000001000000000000000000548500000005485000000054850000000548500000000000000000000000075022092909140000   00000000000000000000000000                                        
2014072602216187131932     P0000020205TENA S CALZON DESCH ANAT 10GDE     0000001000000000000000000068960000000689600000006896000000068960000000110300000000000075010190510430000   00000000000000000000000000                                        
2014072602216187131932     P0000020202VASELINE PURE SKIN 50G ORIG        0000003000000000000000000012710000000127100000003813000000038130000000060900000000000075010563395310000   00000000000000000000000000                                        
2014072602216187131932     P0000020201MUCOSOLVAN COMP SOL 120ML          0000001000000000000000000119180000001191800000011918000000119180000000000000000000000075010346510200000   00000000000000000000000000                                        
2014072602216187131932     P0000020201BUSCAPINA 20 MG AMP. 3X1 ML        0000001000000000000000000091410000000914100000009141000000091410000000000000000000000075010379080150000   00000000000000000000000000                                        
2014072602216187131932     P0000020201BUSCAPINA COMP A 3                 0000001000000000000000000165560000001655600000016556000000165560000000000000000000000075010379085100000   00000000000000000000000000                                        
2014072602216187131932     P0000020201RENITEC RENITEC 5MG X 30           0000001000000000000000000213890000002138900000021389000000213890000000000000000000000075013260034760000   00000000000000000000000000                                        
2014072602216187131932     P0000020205CHUPON BABYDAMACO FLOR MIEL        0000005000000000000000000004530000000045300000002265000000022650000000036000000000000075015075120320000   00000000000000000000000000                                        
2014072602216187131932     P0000020202GEL X-TREME AZUL 250 G             0000003000000000000000000007100000000071000000002130000000021300000000034200000000000075030021635280000   00000000000000000000000000                                        
2014072602216187131932     P0000020205PILOPEPTAN 650 MH C/60 CAPS.       0000001000000000000000000456690000004566900000045669000000456690000000730700000000000084233720250440000   00000000000000000000000000                                        
2014072602216187131932     P0000020205SIETE MACHOS LOC 220ML             0000001000000000000000000062310000000623100000006231000000062310000000099700000000000075011687103100000   00000000000000000000000000                                        
2014072602216187131932     P0000020201TRADOL RETARD 100 MG TAB 30        0000001000000000000000000548500000005485000000054850000000548500000000000000000000000075022092909140000   00000000000000000000000000                                        
2014072602216187131932     P0000020205TENA S CALZON DESCH ANAT 10GDE     0000001000000000000000000068960000000689600000006896000000068960000000110300000000000075010190510430000   00000000000000000000000000                                        
2014072602216187131932     P0000020202VASELINE PURE SKIN 50G ORIG        0000003000000000000000000012710000000127100000003813000000038130000000060900000000000075010563395310000   00000000000000000000000000                                        
2014072602216187131932     P0000020201MUCOSOLVAN COMP SOL 120ML          0000001000000000000000000119180000001191800000011918000000119180000000000000000000000075010346510200000   00000000000000000000000000                                        
2014072602216187131932     P0000020201BUSCAPINA 20 MG AMP. 3X1 ML        0000001000000000000000000091410000000914100000009141000000091410000000000000000000000075010379080150000   00000000000000000000000000                                        
2014072602216187131932     P0000020201BUSCAPINA COMP A 3                 0000001000000000000000000165560000001655600000016556000000165560000000000000000000000075010379085100000   00000000000000000000000000                                        
2014072602216187131932     P0000020201RENITEC RENITEC 5MG X 30           0000001000000000000000000213890000002138900000021389000000213890000000000000000000000075013260034760000   00000000000000000000000000                                        
2014072602216187131932     P0000020205CHUPON BABYDAMACO FLOR MIEL        0000005000000000000000000004530000000045300000002265000000022650000000036000000000000075015075120320000   00000000000000000000000000                                        
2014072602216187131932     P0000020205NATURELLA TLLS NOCHE 10 ALAS       0000001000000000000000000012520000000125200000001252000000012520000000020000000000000075010014053350000   00000000000000000000000000                                        
2014072602216187131932     P0000020202GEL X-TREME AZUL 250 G             0000003000000000000000000007100000000071000000002130000000021300000000034200000000000075030021635280000   00000000000000000000000000                                        
2014072602216187131932     P0000020205PILOPEPTAN 650 MH C/60 CAPS.       0000001000000000000000000456690000004566900000045669000000456690000000730700000000000084233720250440000   00000000000000000000000000                                        
2014072602216187131932     P0000020205SIETE MACHOS LOC 220ML             0000001000000000000000000062310000000623100000006231000000062310000000099700000000000075011687103100000   00000000000000000000000000                                        
2014072602216187131932     P0000020201TRADOL RETARD 100 MG TAB 30        0000001000000000000000000548500000005485000000054850000000548500000000000000000000000075022092909140000   00000000000000000000000000                                        
2014072602216187131932     P0000020205TENA S CALZON DESCH ANAT 10GDE     0000001000000000000000000068960000000689600000006896000000068960000000110300000000000075010190510430000   00000000000000000000000000                                        
2014072602216187131932     P0000020202VASELINE PURE SKIN 50G ORIG        0000003000000000000000000012710000000127100000003813000000038130000000060900000000000075010563395310000   00000000000000000000000000                                        
2014072602216187131932     P0000020201MUCOSOLVAN COMP SOL 120ML          0000001000000000000000000119180000001191800000011918000000119180000000000000000000000075010346510200000   00000000000000000000000000                                        
2014072602216187131932     P0000020201BUSCAPINA 20 MG AMP. 3X1 ML        0000001000000000000000000091410000000914100000009141000000091410000000000000000000000075010379080150000   00000000000000000000000000                                        
2014072602216187131932     P0000020201BUSCAPINA COMP A 3                 0000001000000000000000000165560000001655600000016556000000165560000000000000000000000075010379085100000   00000000000000000000000000                                        
2014072602216187131932     P0000020201RENITEC RENITEC 5MG X 30           0000001000000000000000000213890000002138900000021389000000213890000000000000000000000075013260034760000   00000000000000000000000000                                        
2014072602216187131932     P0000020205CHUPON BABYDAMACO FLOR MIEL        0000005000000000000000000004530000000045300000002265000000022650000000036000000000000075015075120320000   00000000000000000000000000                                        
2014072602216187131932     P0000020205NATURELLA TLLS NOCHE 10 ALAS       0000001000000000000000000012520000000125200000001252000000012520000000020000000000000075010014053350000   00000000000000000000000000                                        
2014072602216187131932     P0000020201VOLTAREN 30GR 33%G GTS EN PRECIO   0000001000000000000000000036850000000368500000003685000000036850000000000000000000000075011248154860000   00000000000000000000000000                                        
2014072602216187131932     P0000020202GEL X-TREME AZUL 250 G             0000003000000000000000000007100000000071000000002130000000021300000000034200000000000075030021635280000   00000000000000000000000000                                        
2014072602216187131932     P0000020205PILOPEPTAN 650 MH C/60 CAPS.       0000001000000000000000000456690000004566900000045669000000456690000000730700000000000084233720250440000   00000000000000000000000000                                        
2014072602216187131932     P0000020205SIETE MACHOS LOC 220ML             0000001000000000000000000062310000000623100000006231000000062310000000099700000000000075011687103100000   00000000000000000000000000                                        
2014072602216187131932     P0000020201TRADOL RETARD 100 MG TAB 30        0000001000000000000000000548500000005485000000054850000000548500000000000000000000000075022092909140000   00000000000000000000000000                                        
2014072602216187131932     P0000020205TENA S CALZON DESCH ANAT 10GDE     0000001000000000000000000068960000000689600000006896000000068960000000110300000000000075010190510430000   00000000000000000000000000                                        
2014072602216187131932     P0000020202VASELINE PURE SKIN 50G ORIG        0000003000000000000000000012710000000127100000003813000000038130000000060900000000000075010563395310000   00000000000000000000000000                                        
2014072602216187131932     P0000020201MUCOSOLVAN COMP SOL 120ML          0000001000000000000000000119180000001191800000011918000000119180000000000000000000000075010346510200000   00000000000000000000000000                                        
2014072602216187131932     P0000020201BUSCAPINA 20 MG AMP. 3X1 ML        0000001000000000000000000091410000000914100000009141000000091410000000000000000000000075010379080150000   00000000000000000000000000                                        
2014072602216187131932     P0000020201BUSCAPINA COMP A 3                 0000001000000000000000000165560000001655600000016556000000165560000000000000000000000075010379085100000   00000000000000000000000000                                        
2014072602216187131932     P0000020201RENITEC RENITEC 5MG X 30           0000001000000000000000000213890000002138900000021389000000213890000000000000000000000075013260034760000   00000000000000000000000000                                        
2014072602216187131932     P0000020205CHUPON BABYDAMACO FLOR MIEL        0000005000000000000000000004530000000045300000002265000000022650000000036000000000000075015075120320000   00000000000000000000000000                                        
2014072602216187131932     P0000020205NATURELLA TLLS NOCHE 10 ALAS       0000001000000000000000000012520000000125200000001252000000012520000000020000000000000075010014053350000   00000000000000000000000000                                        
2014072602216187131932     P0000020201VOLTAREN 30GR 33%G GTS EN PRECIO   0000001000000000000000000036850000000368500000003685000000036850000000000000000000000075011248154860000   00000000000000000000000000                                        
2014072602216187131932     P0000020202EGO GEL 250ML BLACK                0000002000000000000000000009100000000091000000001820000000018200000000029200000000000075061925005550000   00000000000000000000000000                                        
2014072602216187131932     P0000020202GEL X-TREME AZUL 250 G             0000003000000000000000000007100000000071000000002130000000021300000000034200000000000075030021635280000   00000000000000000000000000                                        
2014072602216187131932     P0000020205PILOPEPTAN 650 MH C/60 CAPS.       0000001000000000000000000456690000004566900000045669000000456690000000730700000000000084233720250440000   00000000000000000000000000                                        
2014072602216187131932     P0000020205SIETE MACHOS LOC 220ML             0000001000000000000000000062310000000623100000006231000000062310000000099700000000000075011687103100000   00000000000000000000000000                                        
2014072602216187131932     P0000020201TRADOL RETARD 100 MG TAB 30        0000001000000000000000000548500000005485000000054850000000548500000000000000000000000075022092909140000   00000000000000000000000000                                        
2014072602216187131932     P0000020205TENA S CALZON DESCH ANAT 10GDE     0000001000000000000000000068960000000689600000006896000000068960000000110300000000000075010190510430000   00000000000000000000000000                                        
2014072602216187131932     P0000020202VASELINE PURE SKIN 50G ORIG        0000003000000000000000000012710000000127100000003813000000038130000000060900000000000075010563395310000   00000000000000000000000000                                        
2014072602216187131932     P0000020201MUCOSOLVAN COMP SOL 120ML          0000001000000000000000000119180000001191800000011918000000119180000000000000000000000075010346510200000   00000000000000000000000000                                        
2014072602216187131932     P0000020201BUSCAPINA 20 MG AMP. 3X1 ML        0000001000000000000000000091410000000914100000009141000000091410000000000000000000000075010379080150000   00000000000000000000000000                                        
2014072602216187131932     P0000020201BUSCAPINA COMP A 3                 0000001000000000000000000165560000001655600000016556000000165560000000000000000000000075010379085100000   00000000000000000000000000                                        
2014072602216187131932     P0000020201RENITEC RENITEC 5MG X 30           0000001000000000000000000213890000002138900000021389000000213890000000000000000000000075013260034760000   00000000000000000000000000                                        
2014072602216187131932     P0000020205CHUPON BABYDAMACO FLOR MIEL        0000005000000000000000000004530000000045300000002265000000022650000000036000000000000075015075120320000   00000000000000000000000000                                        
2014072602216187131932     P0000020205NATURELLA TLLS NOCHE 10 ALAS       0000001000000000000000000012520000000125200000001252000000012520000000020000000000000075010014053350000   00000000000000000000000000                                        
2014072602216187131932     P0000020201VOLTAREN 30GR 33%G GTS EN PRECIO   0000001000000000000000000036850000000368500000003685000000036850000000000000000000000075011248154860000   00000000000000000000000000                                        
2014072602216187131932     P0000020202EGO GEL 250ML BLACK                0000002000000000000000000009100000000091000000001820000000018200000000029200000000000075061925005550000   00000000000000000000000000                                        
2014072602216187131932     P0000020202EGO GEL 500ML BLACK                0000001000000000000000000018930000000189300000001893000000018930000000030300000000000075030083361930000   00000000000000000000000000                                        
2014072602216187131932     P0000020202GEL X-TREME AZUL 250 G             0000003000000000000000000007100000000071000000002130000000021300000000034200000000000075030021635280000   00000000000000000000000000                                        
2014072602216187131932     P0000020205PILOPEPTAN 650 MH C/60 CAPS.       0000001000000000000000000456690000004566900000045669000000456690000000730700000000000084233720250440000   00000000000000000000000000                                        
2014072602216187131932     P0000020205SIETE MACHOS LOC 220ML             0000001000000000000000000062310000000623100000006231000000062310000000099700000000000075011687103100000   00000000000000000000000000                                        
2014072602216187131932     P0000020201TRADOL RETARD 100 MG TAB 30        0000001000000000000000000548500000005485000000054850000000548500000000000000000000000075022092909140000   00000000000000000000000000                                        
2014072602216187131932     P0000020205TENA S CALZON DESCH ANAT 10GDE     0000001000000000000000000068960000000689600000006896000000068960000000110300000000000075010190510430000   00000000000000000000000000                                        
2014072602216187131932     P0000020202VASELINE PURE SKIN 50G ORIG        0000003000000000000000000012710000000127100000003813000000038130000000060900000000000075010563395310000   00000000000000000000000000                                        
2014072602216187131932     P0000020201MUCOSOLVAN COMP SOL 120ML          0000001000000000000000000119180000001191800000011918000000119180000000000000000000000075010346510200000   00000000000000000000000000                                        
2014072602216187131932     P0000020201BUSCAPINA 20 MG AMP. 3X1 ML        0000001000000000000000000091410000000914100000009141000000091410000000000000000000000075010379080150000   00000000000000000000000000                                        
2014072602216187131932     P0000020201BUSCAPINA COMP A 3                 0000001000000000000000000165560000001655600000016556000000165560000000000000000000000075010379085100000   00000000000000000000000000                                        
2014072602216187131932     P0000020201RENITEC RENITEC 5MG X 30           0000001000000000000000000213890000002138900000021389000000213890000000000000000000000075013260034760000   00000000000000000000000000                                        
2014072602216187131932     P0000020205CHUPON BABYDAMACO FLOR MIEL        0000005000000000000000000004530000000045300000002265000000022650000000036000000000000075015075120320000   00000000000000000000000000                                        
2014072602216187131932     P0000020205NATURELLA TLLS NOCHE 10 ALAS       0000001000000000000000000012520000000125200000001252000000012520000000020000000000000075010014053350000   00000000000000000000000000                                        
2014072602216187131932     P0000020201VOLTAREN 30GR 33%G GTS EN PRECIO   0000001000000000000000000036850000000368500000003685000000036850000000000000000000000075011248154860000   00000000000000000000000000                                        
2014072602216187131932     P0000020202EGO GEL 250ML BLACK                0000002000000000000000000009100000000091000000001820000000018200000000029200000000000075061925005550000   00000000000000000000000000                                        
2014072602216187131932     P0000020202EGO GEL 500ML BLACK                0000001000000000000000000018930000000189300000001893000000018930000000030300000000000075030083361930000   00000000000000000000000000                                        
2014072602216187131932     P0000020202GEL X-TREME VERDE 250 G            0000003000000000000000000007100000000071000000002130000000021300000000034200000000000075030021636270000   00000000000000000000000000                                        
2014072602216187131932     P0000020202GEL X-TREME AZUL 250 G             0000003000000000000000000007100000000071000000002130000000021300000000034200000000000075030021635280000   00000000000000000000000000                                        
2014072602216187131932     P0000020205PILOPEPTAN 650 MH C/60 CAPS.       0000001000000000000000000456690000004566900000045669000000456690000000730700000000000084233720250440000   00000000000000000000000000                                        
2014072602216187131932     P0000020205SIETE MACHOS LOC 220ML             0000001000000000000000000062310000000623100000006231000000062310000000099700000000000075011687103100000   00000000000000000000000000                                        
2014072602216187131932     P0000020201TRADOL RETARD 100 MG TAB 30        0000001000000000000000000548500000005485000000054850000000548500000000000000000000000075022092909140000   00000000000000000000000000                                        
2014072602216187131932     P0000020205TENA S CALZON DESCH ANAT 10GDE     0000001000000000000000000068960000000689600000006896000000068960000000110300000000000075010190510430000   00000000000000000000000000                                        
2014072602216187131932     P0000020202VASELINE PURE SKIN 50G ORIG        0000003000000000000000000012710000000127100000003813000000038130000000060900000000000075010563395310000   00000000000000000000000000                                        
2014072602216187131932     P0000020201MUCOSOLVAN COMP SOL 120ML          0000001000000000000000000119180000001191800000011918000000119180000000000000000000000075010346510200000   00000000000000000000000000                                        
2014072602216187131932     P0000020201BUSCAPINA 20 MG AMP. 3X1 ML        0000001000000000000000000091410000000914100000009141000000091410000000000000000000000075010379080150000   00000000000000000000000000                                        
2014072602216187131932     P0000020201BUSCAPINA COMP A 3                 0000001000000000000000000165560000001655600000016556000000165560000000000000000000000075010379085100000   00000000000000000000000000                                        
2014072602216187131932     P0000020201RENITEC RENITEC 5MG X 30           0000001000000000000000000213890000002138900000021389000000213890000000000000000000000075013260034760000   00000000000000000000000000                                        
2014072602216187131932     P0000020205CHUPON BABYDAMACO FLOR MIEL        0000005000000000000000000004530000000045300000002265000000022650000000036000000000000075015075120320000   00000000000000000000000000                                        
2014072602216187131932     P0000020205NATURELLA TLLS NOCHE 10 ALAS       0000001000000000000000000012520000000125200000001252000000012520000000020000000000000075010014053350000   00000000000000000000000000                                        
2014072602216187131932     P0000020201VOLTAREN 30GR 33%G GTS EN PRECIO   0000001000000000000000000036850000000368500000003685000000036850000000000000000000000075011248154860000   00000000000000000000000000                                        
2014072602216187131932     P0000020202EGO GEL 250ML BLACK                0000002000000000000000000009100000000091000000001820000000018200000000029200000000000075061925005550000   00000000000000000000000000                                        
2014072602216187131932     P0000020202EGO GEL 500ML BLACK                0000001000000000000000000018930000000189300000001893000000018930000000030300000000000075030083361930000   00000000000000000000000000                                        
2014072602216187131932     P0000020202GEL X-TREME VERDE 250 G            0000003000000000000000000007100000000071000000002130000000021300000000034200000000000075030021636270000   00000000000000000000000000                                        
2014072602216187131932     P0000020201SOLUCION HARTMANN PSA 500MLPLA     0000001000000000000000000034580000000345800000003458000000034580000000000000000000000075011251002460000   00000000000000000000000000                                        
2014072602216187131932     P0000020202GEL X-TREME AZUL 250 G             0000003000000000000000000007100000000071000000002130000000021300000000034200000000000075030021635280000   00000000000000000000000000                                        
2014072602216187131932     P0000020205PILOPEPTAN 650 MH C/60 CAPS.       0000001000000000000000000456690000004566900000045669000000456690000000730700000000000084233720250440000   00000000000000000000000000                                        
2014072602216187131932     P0000020205SIETE MACHOS LOC 220ML             0000001000000000000000000062310000000623100000006231000000062310000000099700000000000075011687103100000   00000000000000000000000000                                        
2014072602216187131932     P0000020201TRADOL RETARD 100 MG TAB 30        0000001000000000000000000548500000005485000000054850000000548500000000000000000000000075022092909140000   00000000000000000000000000                                        
2014072602216187131932     P0000020205TENA S CALZON DESCH ANAT 10GDE     0000001000000000000000000068960000000689600000006896000000068960000000110300000000000075010190510430000   00000000000000000000000000                                        
2014072602216187131932     P0000020202VASELINE PURE SKIN 50G ORIG        0000003000000000000000000012710000000127100000003813000000038130000000060900000000000075010563395310000   00000000000000000000000000                                        
2014072602216187131932     P0000020201MUCOSOLVAN COMP SOL 120ML          0000001000000000000000000119180000001191800000011918000000119180000000000000000000000075010346510200000   00000000000000000000000000                                        
2014072602216187131932     P0000020201BUSCAPINA 20 MG AMP. 3X1 ML        0000001000000000000000000091410000000914100000009141000000091410000000000000000000000075010379080150000   00000000000000000000000000                                        
2014072602216187131932     P0000020201BUSCAPINA COMP A 3                 0000001000000000000000000165560000001655600000016556000000165560000000000000000000000075010379085100000   00000000000000000000000000                                        
2014072602216187131932     P0000020201RENITEC RENITEC 5MG X 30           0000001000000000000000000213890000002138900000021389000000213890000000000000000000000075013260034760000   00000000000000000000000000                                        
2014072602216187131932     P0000020205CHUPON BABYDAMACO FLOR MIEL        0000005000000000000000000004530000000045300000002265000000022650000000036000000000000075015075120320000   00000000000000000000000000                                        
2014072602216187131932     P0000020205NATURELLA TLLS NOCHE 10 ALAS       0000001000000000000000000012520000000125200000001252000000012520000000020000000000000075010014053350000   00000000000000000000000000                                        
2014072602216187131932     P0000020201VOLTAREN 30GR 33%G GTS EN PRECIO   0000001000000000000000000036850000000368500000003685000000036850000000000000000000000075011248154860000   00000000000000000000000000                                        
2014072602216187131932     P0000020202EGO GEL 250ML BLACK                0000002000000000000000000009100000000091000000001820000000018200000000029200000000000075061925005550000   00000000000000000000000000                                        
2014072602216187131932     P0000020202EGO GEL 500ML BLACK                0000001000000000000000000018930000000189300000001893000000018930000000030300000000000075030083361930000   00000000000000000000000000                                        
2014072602216187131932     P0000020202GEL X-TREME VERDE 250 G            0000003000000000000000000007100000000071000000002130000000021300000000034200000000000075030021636270000   00000000000000000000000000                                        
2014072602216187131932     P0000020201SOLUCION HARTMANN PSA 500MLPLA     0000001000000000000000000034580000000345800000003458000000034580000000000000000000000075011251002460000   00000000000000000000000000                                        
2014072602216187131932     P0000020202GEL X-TREME TRANSP 250 G     1     0000003000000000000000000006360000000063600000001908000000019080000000030600000000000075030021630230000   00000000000000000000000000                                        
2014072602216187131932     P0000020202GEL X-TREME AZUL 250 G             0000003000000000000000000007100000000071000000002130000000021300000000034200000000000075030021635280000   00000000000000000000000000                                        
2014072602216187131932     P0000020205PILOPEPTAN 650 MH C/60 CAPS.       0000001000000000000000000456690000004566900000045669000000456690000000730700000000000084233720250440000   00000000000000000000000000                                        
2014072602216187131932     P0000020205SIETE MACHOS LOC 220ML             0000001000000000000000000062310000000623100000006231000000062310000000099700000000000075011687103100000   00000000000000000000000000                                        
2014072602216187131932     P0000020201TRADOL RETARD 100 MG TAB 30        0000001000000000000000000548500000005485000000054850000000548500000000000000000000000075022092909140000   00000000000000000000000000                                        
2014072602216187131932     P0000020205TENA S CALZON DESCH ANAT 10GDE     0000001000000000000000000068960000000689600000006896000000068960000000110300000000000075010190510430000   00000000000000000000000000                                        
2014072602216187131932     P0000020202VASELINE PURE SKIN 50G ORIG        0000003000000000000000000012710000000127100000003813000000038130000000060900000000000075010563395310000   00000000000000000000000000                                        
2014072602216187131932     P0000020201MUCOSOLVAN COMP SOL 120ML          0000001000000000000000000119180000001191800000011918000000119180000000000000000000000075010346510200000   00000000000000000000000000                                        
2014072602216187131932     P0000020201BUSCAPINA 20 MG AMP. 3X1 ML        0000001000000000000000000091410000000914100000009141000000091410000000000000000000000075010379080150000   00000000000000000000000000                                        
2014072602216187131932     P0000020201BUSCAPINA COMP A 3                 0000001000000000000000000165560000001655600000016556000000165560000000000000000000000075010379085100000   00000000000000000000000000                                        
2014072602216187131932     P0000020201RENITEC RENITEC 5MG X 30           0000001000000000000000000213890000002138900000021389000000213890000000000000000000000075013260034760000   00000000000000000000000000                                        
2014072602216187131932     P0000020205CHUPON BABYDAMACO FLOR MIEL        0000005000000000000000000004530000000045300000002265000000022650000000036000000000000075015075120320000   00000000000000000000000000                                        
2014072602216187131932     P0000020205NATURELLA TLLS NOCHE 10 ALAS       0000001000000000000000000012520000000125200000001252000000012520000000020000000000000075010014053350000   00000000000000000000000000                                        
2014072602216187131932     P0000020201VOLTAREN 30GR 33%G GTS EN PRECIO   0000001000000000000000000036850000000368500000003685000000036850000000000000000000000075011248154860000   00000000000000000000000000                                        
2014072602216187131932     P0000020202EGO GEL 250ML BLACK                0000002000000000000000000009100000000091000000001820000000018200000000029200000000000075061925005550000   00000000000000000000000000                                        
2014072602216187131932     P0000020202EGO GEL 500ML BLACK                0000001000000000000000000018930000000189300000001893000000018930000000030300000000000075030083361930000   00000000000000000000000000                                        
2014072602216187131932     P0000020202GEL X-TREME VERDE 250 G            0000003000000000000000000007100000000071000000002130000000021300000000034200000000000075030021636270000   00000000000000000000000000                                        
2014072602216187131932     P0000020201SOLUCION HARTMANN PSA 500MLPLA     0000001000000000000000000034580000000345800000003458000000034580000000000000000000000075011251002460000   00000000000000000000000000                                        
2014072602216187131932     P0000020202GEL X-TREME TRANSP 250 G     1     0000003000000000000000000006360000000063600000001908000000019080000000030600000000000075030021630230000   00000000000000000000000000                                        
2014072602216187131932     P0000020201CIPRO XR T 7 500MG                 0000001000000000000000000155540000001555400000015554000000155540000000000000000000000075013186708910000   00000000000000000000000000                                        
2014072602216187131932     P0000020202GEL X-TREME AZUL 250 G             0000003000000000000000000007100000000071000000002130000000021300000000034200000000000075030021635280000   00000000000000000000000000                                        
2014072602216187131932     P0000020205PILOPEPTAN 650 MH C/60 CAPS.       0000001000000000000000000456690000004566900000045669000000456690000000730700000000000084233720250440000   00000000000000000000000000                                        
2014072602216187131932     P0000020205SIETE MACHOS LOC 220ML             0000001000000000000000000062310000000623100000006231000000062310000000099700000000000075011687103100000   00000000000000000000000000                                        
2014072602216187131932     P0000020201TRADOL RETARD 100 MG TAB 30        0000001000000000000000000548500000005485000000054850000000548500000000000000000000000075022092909140000   00000000000000000000000000                                        
2014072602216187131932     P0000020205TENA S CALZON DESCH ANAT 10GDE     0000001000000000000000000068960000000689600000006896000000068960000000110300000000000075010190510430000   00000000000000000000000000                                        
2014072602216187131932     P0000020202VASELINE PURE SKIN 50G ORIG        0000003000000000000000000012710000000127100000003813000000038130000000060900000000000075010563395310000   00000000000000000000000000                                        
2014072602216187131932     P0000020201MUCOSOLVAN COMP SOL 120ML          0000001000000000000000000119180000001191800000011918000000119180000000000000000000000075010346510200000   00000000000000000000000000                                        
2014072602216187131932     P0000020201BUSCAPINA 20 MG AMP. 3X1 ML        0000001000000000000000000091410000000914100000009141000000091410000000000000000000000075010379080150000   00000000000000000000000000                                        
2014072602216187131932     P0000020201BUSCAPINA COMP A 3                 0000001000000000000000000165560000001655600000016556000000165560000000000000000000000075010379085100000   00000000000000000000000000                                        
2014072602216187131932     P0000020201RENITEC RENITEC 5MG X 30           0000001000000000000000000213890000002138900000021389000000213890000000000000000000000075013260034760000   00000000000000000000000000                                        
2014072602216187131932     P0000020205CHUPON BABYDAMACO FLOR MIEL        0000005000000000000000000004530000000045300000002265000000022650000000036000000000000075015075120320000   00000000000000000000000000                                        
2014072602216187131932     P0000020205NATURELLA TLLS NOCHE 10 ALAS       0000001000000000000000000012520000000125200000001252000000012520000000020000000000000075010014053350000   00000000000000000000000000                                        
2014072602216187131932     P0000020201VOLTAREN 30GR 33%G GTS EN PRECIO   0000001000000000000000000036850000000368500000003685000000036850000000000000000000000075011248154860000   00000000000000000000000000                                        
2014072602216187131932     P0000020202EGO GEL 250ML BLACK                0000002000000000000000000009100000000091000000001820000000018200000000029200000000000075061925005550000   00000000000000000000000000                                        
2014072602216187131932     P0000020202EGO GEL 500ML BLACK                0000001000000000000000000018930000000189300000001893000000018930000000030300000000000075030083361930000   00000000000000000000000000                                        
2014072602216187131932     P0000020202GEL X-TREME VERDE 250 G            0000003000000000000000000007100000000071000000002130000000021300000000034200000000000075030021636270000   00000000000000000000000000                                        
2014072602216187131932     P0000020201SOLUCION HARTMANN PSA 500MLPLA     0000001000000000000000000034580000000345800000003458000000034580000000000000000000000075011251002460000   00000000000000000000000000                                        
2014072602216187131932     P0000020202GEL X-TREME TRANSP 250 G     1     0000003000000000000000000006360000000063600000001908000000019080000000030600000000000075030021630230000   00000000000000000000000000                                        
2014072602216187131932     P0000020201CIPRO XR T 7 500MG                 0000001000000000000000000155540000001555400000015554000000155540000000000000000000000075013186708910000   00000000000000000000000000                                        
2014072602216187135202     P0000020101LOCOID CREMA TUBO 30 G             0000002000000000000000000103310000001033100000020662000000206620000000000000000000000075012993035420000   00000000000000000000000000                                        
2014072602216187131932     P0000020202GEL X-TREME AZUL 250 G             0000003000000000000000000007100000000071000000002130000000021300000000034200000000000075030021635280000   00000000000000000000000000                                        
2014072602216187131932     P0000020205PILOPEPTAN 650 MH C/60 CAPS.       0000001000000000000000000456690000004566900000045669000000456690000000730700000000000084233720250440000   00000000000000000000000000                                        
2014072602216187131932     P0000020205SIETE MACHOS LOC 220ML             0000001000000000000000000062310000000623100000006231000000062310000000099700000000000075011687103100000   00000000000000000000000000                                        
2014072602216187131932     P0000020201TRADOL RETARD 100 MG TAB 30        0000001000000000000000000548500000005485000000054850000000548500000000000000000000000075022092909140000   00000000000000000000000000                                        
2014072602216187131932     P0000020205TENA S CALZON DESCH ANAT 10GDE     0000001000000000000000000068960000000689600000006896000000068960000000110300000000000075010190510430000   00000000000000000000000000                                        
2014072602216187131932     P0000020202VASELINE PURE SKIN 50G ORIG        0000003000000000000000000012710000000127100000003813000000038130000000060900000000000075010563395310000   00000000000000000000000000                                        
2014072602216187131932     P0000020201MUCOSOLVAN COMP SOL 120ML          0000001000000000000000000119180000001191800000011918000000119180000000000000000000000075010346510200000   00000000000000000000000000                                        
2014072602216187131932     P0000020201BUSCAPINA 20 MG AMP. 3X1 ML        0000001000000000000000000091410000000914100000009141000000091410000000000000000000000075010379080150000   00000000000000000000000000                                        
2014072602216187131932     P0000020201BUSCAPINA COMP A 3                 0000001000000000000000000165560000001655600000016556000000165560000000000000000000000075010379085100000   00000000000000000000000000                                        
2014072602216187131932     P0000020201RENITEC RENITEC 5MG X 30           0000001000000000000000000213890000002138900000021389000000213890000000000000000000000075013260034760000   00000000000000000000000000                                        
2014072602216187131932     P0000020205CHUPON BABYDAMACO FLOR MIEL        0000005000000000000000000004530000000045300000002265000000022650000000036000000000000075015075120320000   00000000000000000000000000                                        
2014072602216187131932     P0000020205NATURELLA TLLS NOCHE 10 ALAS       0000001000000000000000000012520000000125200000001252000000012520000000020000000000000075010014053350000   00000000000000000000000000                                        
2014072602216187131932     P0000020201VOLTAREN 30GR 33%G GTS EN PRECIO   0000001000000000000000000036850000000368500000003685000000036850000000000000000000000075011248154860000   00000000000000000000000000                                        
2014072602216187131932     P0000020202EGO GEL 250ML BLACK                0000002000000000000000000009100000000091000000001820000000018200000000029200000000000075061925005550000   00000000000000000000000000                                        
2014072602216187131932     P0000020202EGO GEL 500ML BLACK                0000001000000000000000000018930000000189300000001893000000018930000000030300000000000075030083361930000   00000000000000000000000000                                        
2014072602216187131932     P0000020202GEL X-TREME VERDE 250 G            0000003000000000000000000007100000000071000000002130000000021300000000034200000000000075030021636270000   00000000000000000000000000                                        
2014072602216187131932     P0000020201SOLUCION HARTMANN PSA 500MLPLA     0000001000000000000000000034580000000345800000003458000000034580000000000000000000000075011251002460000   00000000000000000000000000                                        
2014072602216187131932     P0000020202GEL X-TREME TRANSP 250 G     1     0000003000000000000000000006360000000063600000001908000000019080000000030600000000000075030021630230000   00000000000000000000000000                                        
2014072602216187131932     P0000020201CIPRO XR T 7 500MG                 0000001000000000000000000155540000001555400000015554000000155540000000000000000000000075013186708910000   00000000000000000000000000                                        
2014072602216187135202     P0000020101LOCOID CREMA TUBO 30 G             0000002000000000000000000103310000001033100000020662000000206620000000000000000000000075012993035420000   00000000000000000000000000                                        
2014072602216187135202     P0000020101CIPROFLOX C 12 250MG ANT           0000002000000000000000000148460000001484600000029692000000296920000000000000000000000075013147018650000   00000000000000000000000000                                        
2014072602216187131932     P0000020202GEL X-TREME AZUL 250 G             0000003000000000000000000007100000000071000000002130000000021300000000034200000000000075030021635280000   00000000000000000000000000                                        
2014072602216187131932     P0000020205PILOPEPTAN 650 MH C/60 CAPS.       0000001000000000000000000456690000004566900000045669000000456690000000730700000000000084233720250440000   00000000000000000000000000                                        
2014072602216187131932     P0000020205SIETE MACHOS LOC 220ML             0000001000000000000000000062310000000623100000006231000000062310000000099700000000000075011687103100000   00000000000000000000000000                                        
2014072602216187131932     P0000020201TRADOL RETARD 100 MG TAB 30        0000001000000000000000000548500000005485000000054850000000548500000000000000000000000075022092909140000   00000000000000000000000000                                        
2014072602216187131932     P0000020205TENA S CALZON DESCH ANAT 10GDE     0000001000000000000000000068960000000689600000006896000000068960000000110300000000000075010190510430000   00000000000000000000000000                                        
2014072602216187131932     P0000020202VASELINE PURE SKIN 50G ORIG        0000003000000000000000000012710000000127100000003813000000038130000000060900000000000075010563395310000   00000000000000000000000000                                        
2014072602216187131932     P0000020201MUCOSOLVAN COMP SOL 120ML          0000001000000000000000000119180000001191800000011918000000119180000000000000000000000075010346510200000   00000000000000000000000000                                        
2014072602216187131932     P0000020201BUSCAPINA 20 MG AMP. 3X1 ML        0000001000000000000000000091410000000914100000009141000000091410000000000000000000000075010379080150000   00000000000000000000000000                                        
2014072602216187131932     P0000020201BUSCAPINA COMP A 3                 0000001000000000000000000165560000001655600000016556000000165560000000000000000000000075010379085100000   00000000000000000000000000                                        
2014072602216187131932     P0000020201RENITEC RENITEC 5MG X 30           0000001000000000000000000213890000002138900000021389000000213890000000000000000000000075013260034760000   00000000000000000000000000                                        
2014072602216187131932     P0000020205CHUPON BABYDAMACO FLOR MIEL        0000005000000000000000000004530000000045300000002265000000022650000000036000000000000075015075120320000   00000000000000000000000000                                        
2014072602216187131932     P0000020205NATURELLA TLLS NOCHE 10 ALAS       0000001000000000000000000012520000000125200000001252000000012520000000020000000000000075010014053350000   00000000000000000000000000                                        
2014072602216187131932     P0000020201VOLTAREN 30GR 33%G GTS EN PRECIO   0000001000000000000000000036850000000368500000003685000000036850000000000000000000000075011248154860000   00000000000000000000000000                                        
2014072602216187131932     P0000020202EGO GEL 250ML BLACK                0000002000000000000000000009100000000091000000001820000000018200000000029200000000000075061925005550000   00000000000000000000000000                                        
2014072602216187131932     P0000020202EGO GEL 500ML BLACK                0000001000000000000000000018930000000189300000001893000000018930000000030300000000000075030083361930000   00000000000000000000000000                                        
2014072602216187131932     P0000020202GEL X-TREME VERDE 250 G            0000003000000000000000000007100000000071000000002130000000021300000000034200000000000075030021636270000   00000000000000000000000000                                        
2014072602216187131932     P0000020201SOLUCION HARTMANN PSA 500MLPLA     0000001000000000000000000034580000000345800000003458000000034580000000000000000000000075011251002460000   00000000000000000000000000                                        
2014072602216187131932     P0000020202GEL X-TREME TRANSP 250 G     1     0000003000000000000000000006360000000063600000001908000000019080000000030600000000000075030021630230000   00000000000000000000000000                                        
2014072602216187131932     P0000020201CIPRO XR T 7 500MG                 0000001000000000000000000155540000001555400000015554000000155540000000000000000000000075013186708910000   00000000000000000000000000                                        
2014072602216187135202     P0000020101LOCOID CREMA TUBO 30 G             0000002000000000000000000103310000001033100000020662000000206620000000000000000000000075012993035420000   00000000000000000000000000                                        
2014072602216187135202     P0000020101CIPROFLOX C 12 250MG ANT           0000002000000000000000000148460000001484600000029692000000296920000000000000000000000075013147018650000   00000000000000000000000000                                        
2014072602216187135202     P0000020101ESMISEN T 10                       0000002000000000000000000143720000001437200000028744000000287440000000000000000000000075013147039200000   00000000000000000000000000                                        
2014072602216187131932     P0000020202GEL X-TREME AZUL 250 G             0000003000000000000000000007100000000071000000002130000000021300000000034200000000000075030021635280000   00000000000000000000000000                                        
2014072602216187131932     P0000020205PILOPEPTAN 650 MH C/60 CAPS.       0000001000000000000000000456690000004566900000045669000000456690000000730700000000000084233720250440000   00000000000000000000000000                                        
2014072602216187131932     P0000020205SIETE MACHOS LOC 220ML             0000001000000000000000000062310000000623100000006231000000062310000000099700000000000075011687103100000   00000000000000000000000000                                        
2014072602216187131932     P0000020201TRADOL RETARD 100 MG TAB 30        0000001000000000000000000548500000005485000000054850000000548500000000000000000000000075022092909140000   00000000000000000000000000                                        
2014072602216187131932     P0000020205TENA S CALZON DESCH ANAT 10GDE     0000001000000000000000000068960000000689600000006896000000068960000000110300000000000075010190510430000   00000000000000000000000000                                        
2014072602216187131932     P0000020202VASELINE PURE SKIN 50G ORIG        0000003000000000000000000012710000000127100000003813000000038130000000060900000000000075010563395310000   00000000000000000000000000                                        
2014072602216187131932     P0000020201MUCOSOLVAN COMP SOL 120ML          0000001000000000000000000119180000001191800000011918000000119180000000000000000000000075010346510200000   00000000000000000000000000                                        
2014072602216187131932     P0000020201BUSCAPINA 20 MG AMP. 3X1 ML        0000001000000000000000000091410000000914100000009141000000091410000000000000000000000075010379080150000   00000000000000000000000000                                        
2014072602216187131932     P0000020201BUSCAPINA COMP A 3                 0000001000000000000000000165560000001655600000016556000000165560000000000000000000000075010379085100000   00000000000000000000000000                                        
2014072602216187131932     P0000020201RENITEC RENITEC 5MG X 30           0000001000000000000000000213890000002138900000021389000000213890000000000000000000000075013260034760000   00000000000000000000000000                                        
2014072602216187131932     P0000020205CHUPON BABYDAMACO FLOR MIEL        0000005000000000000000000004530000000045300000002265000000022650000000036000000000000075015075120320000   00000000000000000000000000                                        
2014072602216187131932     P0000020205NATURELLA TLLS NOCHE 10 ALAS       0000001000000000000000000012520000000125200000001252000000012520000000020000000000000075010014053350000   00000000000000000000000000                                        
2014072602216187131932     P0000020201VOLTAREN 30GR 33%G GTS EN PRECIO   0000001000000000000000000036850000000368500000003685000000036850000000000000000000000075011248154860000   00000000000000000000000000                                        
2014072602216187131932     P0000020202EGO GEL 250ML BLACK                0000002000000000000000000009100000000091000000001820000000018200000000029200000000000075061925005550000   00000000000000000000000000                                        
2014072602216187131932     P0000020202EGO GEL 500ML BLACK                0000001000000000000000000018930000000189300000001893000000018930000000030300000000000075030083361930000   00000000000000000000000000                                        
2014072602216187131932     P0000020202GEL X-TREME VERDE 250 G            0000003000000000000000000007100000000071000000002130000000021300000000034200000000000075030021636270000   00000000000000000000000000                                        
2014072602216187131932     P0000020201SOLUCION HARTMANN PSA 500MLPLA     0000001000000000000000000034580000000345800000003458000000034580000000000000000000000075011251002460000   00000000000000000000000000                                        
2014072602216187131932     P0000020202GEL X-TREME TRANSP 250 G     1     0000003000000000000000000006360000000063600000001908000000019080000000030600000000000075030021630230000   00000000000000000000000000                                        
2014072602216187131932     P0000020201CIPRO XR T 7 500MG                 0000001000000000000000000155540000001555400000015554000000155540000000000000000000000075013186708910000   00000000000000000000000000                                        
2014072602216187135202     P0000020101LOCOID CREMA TUBO 30 G             0000002000000000000000000103310000001033100000020662000000206620000000000000000000000075012993035420000   00000000000000000000000000                                        
2014072602216187135202     P0000020101CIPROFLOX C 12 250MG ANT           0000002000000000000000000148460000001484600000029692000000296920000000000000000000000075013147018650000   00000000000000000000000000                                        
2014072602216187135202     P0000020101ESMISEN T 10                       0000002000000000000000000143720000001437200000028744000000287440000000000000000000000075013147039200000   00000000000000000000000000                                        
2014072602216187135202     P0000020101ESMISEN T 30                       0000001000000000000000000320090000003200900000032009000000320090000000000000000000000075013147039440000   00000000000000000000000000                                        
2014072602216187131932     P0000020202GEL X-TREME AZUL 250 G             0000003000000000000000000007100000000071000000002130000000021300000000034200000000000075030021635280000   00000000000000000000000000                                        
2014072602216187131932     P0000020205PILOPEPTAN 650 MH C/60 CAPS.       0000001000000000000000000456690000004566900000045669000000456690000000730700000000000084233720250440000   00000000000000000000000000                                        
2014072602216187131932     P0000020205SIETE MACHOS LOC 220ML             0000001000000000000000000062310000000623100000006231000000062310000000099700000000000075011687103100000   00000000000000000000000000                                        
2014072602216187131932     P0000020201TRADOL RETARD 100 MG TAB 30        0000001000000000000000000548500000005485000000054850000000548500000000000000000000000075022092909140000   00000000000000000000000000                                        
2014072602216187131932     P0000020205TENA S CALZON DESCH ANAT 10GDE     0000001000000000000000000068960000000689600000006896000000068960000000110300000000000075010190510430000   00000000000000000000000000                                        
2014072602216187131932     P0000020202VASELINE PURE SKIN 50G ORIG        0000003000000000000000000012710000000127100000003813000000038130000000060900000000000075010563395310000   00000000000000000000000000                                        
2014072602216187131932     P0000020201MUCOSOLVAN COMP SOL 120ML          0000001000000000000000000119180000001191800000011918000000119180000000000000000000000075010346510200000   00000000000000000000000000                                        
2014072602216187131932     P0000020201BUSCAPINA 20 MG AMP. 3X1 ML        0000001000000000000000000091410000000914100000009141000000091410000000000000000000000075010379080150000   00000000000000000000000000                                        
2014072602216187131932     P0000020201BUSCAPINA COMP A 3                 0000001000000000000000000165560000001655600000016556000000165560000000000000000000000075010379085100000   00000000000000000000000000                                        
2014072602216187131932     P0000020201RENITEC RENITEC 5MG X 30           0000001000000000000000000213890000002138900000021389000000213890000000000000000000000075013260034760000   00000000000000000000000000                                        
2014072602216187131932     P0000020205CHUPON BABYDAMACO FLOR MIEL        0000005000000000000000000004530000000045300000002265000000022650000000036000000000000075015075120320000   00000000000000000000000000                                        
2014072602216187131932     P0000020205NATURELLA TLLS NOCHE 10 ALAS       0000001000000000000000000012520000000125200000001252000000012520000000020000000000000075010014053350000   00000000000000000000000000                                        
2014072602216187131932     P0000020201VOLTAREN 30GR 33%G GTS EN PRECIO   0000001000000000000000000036850000000368500000003685000000036850000000000000000000000075011248154860000   00000000000000000000000000                                        
2014072602216187131932     P0000020202EGO GEL 250ML BLACK                0000002000000000000000000009100000000091000000001820000000018200000000029200000000000075061925005550000   00000000000000000000000000                                        
2014072602216187131932     P0000020202EGO GEL 500ML BLACK                0000001000000000000000000018930000000189300000001893000000018930000000030300000000000075030083361930000   00000000000000000000000000                                        
2014072602216187131932     P0000020202GEL X-TREME VERDE 250 G            0000003000000000000000000007100000000071000000002130000000021300000000034200000000000075030021636270000   00000000000000000000000000                                        
2014072602216187131932     P0000020201SOLUCION HARTMANN PSA 500MLPLA     0000001000000000000000000034580000000345800000003458000000034580000000000000000000000075011251002460000   00000000000000000000000000                                        
2014072602216187131932     P0000020202GEL X-TREME TRANSP 250 G     1     0000003000000000000000000006360000000063600000001908000000019080000000030600000000000075030021630230000   00000000000000000000000000                                        
2014072602216187131932     P0000020201CIPRO XR T 7 500MG                 0000001000000000000000000155540000001555400000015554000000155540000000000000000000000075013186708910000   00000000000000000000000000                                        
2014072602216187135202     P0000020101LOCOID CREMA TUBO 30 G             0000002000000000000000000103310000001033100000020662000000206620000000000000000000000075012993035420000   00000000000000000000000000                                        
2014072602216187135202     P0000020101CIPROFLOX C 12 250MG ANT           0000002000000000000000000148460000001484600000029692000000296920000000000000000000000075013147018650000   00000000000000000000000000                                        
2014072602216187135202     P0000020101ESMISEN T 10                       0000002000000000000000000143720000001437200000028744000000287440000000000000000000000075013147039200000   00000000000000000000000000                                        
2014072602216187135202     P0000020101ESMISEN T 30                       0000001000000000000000000320090000003200900000032009000000320090000000000000000000000075013147039440000   00000000000000000000000000                                        
2014072602216187135202     P0000020101INHIBITRON DUAL 20 MG CAPS C/14    0000001000000000000000000172680000001726800000017268000000172680000000000000000000000075012993026680000   00000000000000000000000000                                        
2014072602216187131932     P0000020202GEL X-TREME AZUL 250 G             0000003000000000000000000007100000000071000000002130000000021300000000034200000000000075030021635280000   00000000000000000000000000                                        
2014072602216187131932     P0000020205PILOPEPTAN 650 MH C/60 CAPS.       0000001000000000000000000456690000004566900000045669000000456690000000730700000000000084233720250440000   00000000000000000000000000                                        
2014072602216187131932     P0000020205SIETE MACHOS LOC 220ML             0000001000000000000000000062310000000623100000006231000000062310000000099700000000000075011687103100000   00000000000000000000000000                                        
2014072602216187131932     P0000020201TRADOL RETARD 100 MG TAB 30        0000001000000000000000000548500000005485000000054850000000548500000000000000000000000075022092909140000   00000000000000000000000000                                        
2014072602216187131932     P0000020205TENA S CALZON DESCH ANAT 10GDE     0000001000000000000000000068960000000689600000006896000000068960000000110300000000000075010190510430000   00000000000000000000000000                                        
2014072602216187131932     P0000020202VASELINE PURE SKIN 50G ORIG        0000003000000000000000000012710000000127100000003813000000038130000000060900000000000075010563395310000   00000000000000000000000000                                        
2014072602216187131932     P0000020201MUCOSOLVAN COMP SOL 120ML          0000001000000000000000000119180000001191800000011918000000119180000000000000000000000075010346510200000   00000000000000000000000000                                        
2014072602216187131932     P0000020201BUSCAPINA 20 MG AMP. 3X1 ML        0000001000000000000000000091410000000914100000009141000000091410000000000000000000000075010379080150000   00000000000000000000000000                                        
2014072602216187131932     P0000020201BUSCAPINA COMP A 3                 0000001000000000000000000165560000001655600000016556000000165560000000000000000000000075010379085100000   00000000000000000000000000                                        
2014072602216187131932     P0000020201RENITEC RENITEC 5MG X 30           0000001000000000000000000213890000002138900000021389000000213890000000000000000000000075013260034760000   00000000000000000000000000                                        
2014072602216187131932     P0000020205CHUPON BABYDAMACO FLOR MIEL        0000005000000000000000000004530000000045300000002265000000022650000000036000000000000075015075120320000   00000000000000000000000000                                        
2014072602216187131932     P0000020205NATURELLA TLLS NOCHE 10 ALAS       0000001000000000000000000012520000000125200000001252000000012520000000020000000000000075010014053350000   00000000000000000000000000                                        
2014072602216187131932     P0000020201VOLTAREN 30GR 33%G GTS EN PRECIO   0000001000000000000000000036850000000368500000003685000000036850000000000000000000000075011248154860000   00000000000000000000000000                                        
2014072602216187131932     P0000020202EGO GEL 250ML BLACK                0000002000000000000000000009100000000091000000001820000000018200000000029200000000000075061925005550000   00000000000000000000000000                                        
2014072602216187131932     P0000020202EGO GEL 500ML BLACK                0000001000000000000000000018930000000189300000001893000000018930000000030300000000000075030083361930000   00000000000000000000000000                                        
2014072602216187131932     P0000020202GEL X-TREME VERDE 250 G            0000003000000000000000000007100000000071000000002130000000021300000000034200000000000075030021636270000   00000000000000000000000000                                        
2014072602216187131932     P0000020201SOLUCION HARTMANN PSA 500MLPLA     0000001000000000000000000034580000000345800000003458000000034580000000000000000000000075011251002460000   00000000000000000000000000                                        
2014072602216187131932     P0000020202GEL X-TREME TRANSP 250 G     1     0000003000000000000000000006360000000063600000001908000000019080000000030600000000000075030021630230000   00000000000000000000000000                                        
2014072602216187131932     P0000020201CIPRO XR T 7 500MG                 0000001000000000000000000155540000001555400000015554000000155540000000000000000000000075013186708910000   00000000000000000000000000                                        
2014072602216187135202     P0000020101LOCOID CREMA TUBO 30 G             0000002000000000000000000103310000001033100000020662000000206620000000000000000000000075012993035420000   00000000000000000000000000                                        
2014072602216187135202     P0000020101CIPROFLOX C 12 250MG ANT           0000002000000000000000000148460000001484600000029692000000296920000000000000000000000075013147018650000   00000000000000000000000000                                        
2014072602216187135202     P0000020101ESMISEN T 10                       0000002000000000000000000143720000001437200000028744000000287440000000000000000000000075013147039200000   00000000000000000000000000                                        
2014072602216187135202     P0000020101ESMISEN T 30                       0000001000000000000000000320090000003200900000032009000000320090000000000000000000000075013147039440000   00000000000000000000000000                                        
2014072602216187135202     P0000020101INHIBITRON DUAL 20 MG CAPS C/14    0000001000000000000000000172680000001726800000017268000000172680000000000000000000000075012993026680000   00000000000000000000000000                                        
2014072602216187135202     P0000020101UNASAL T 10 250MG                  0000001000000000000000000205770000002057700000020577000000205770000000000000000000000075013147012160000   00000000000000000000000000                                        
2014072602216187131932     P0000020202GEL X-TREME AZUL 250 G             0000003000000000000000000007100000000071000000002130000000021300000000034200000000000075030021635280000   00000000000000000000000000                                        
2014072602216187131932     P0000020205PILOPEPTAN 650 MH C/60 CAPS.       0000001000000000000000000456690000004566900000045669000000456690000000730700000000000084233720250440000   00000000000000000000000000                                        
2014072602216187131932     P0000020205SIETE MACHOS LOC 220ML             0000001000000000000000000062310000000623100000006231000000062310000000099700000000000075011687103100000   00000000000000000000000000                                        
2014072602216187131932     P0000020201TRADOL RETARD 100 MG TAB 30        0000001000000000000000000548500000005485000000054850000000548500000000000000000000000075022092909140000   00000000000000000000000000                                        
2014072602216187131932     P0000020205TENA S CALZON DESCH ANAT 10GDE     0000001000000000000000000068960000000689600000006896000000068960000000110300000000000075010190510430000   00000000000000000000000000                                        
2014072602216187131932     P0000020202VASELINE PURE SKIN 50G ORIG        0000003000000000000000000012710000000127100000003813000000038130000000060900000000000075010563395310000   00000000000000000000000000                                        
2014072602216187131932     P0000020201MUCOSOLVAN COMP SOL 120ML          0000001000000000000000000119180000001191800000011918000000119180000000000000000000000075010346510200000   00000000000000000000000000                                        
2014072602216187131932     P0000020201BUSCAPINA 20 MG AMP. 3X1 ML        0000001000000000000000000091410000000914100000009141000000091410000000000000000000000075010379080150000   00000000000000000000000000                                        
2014072602216187131932     P0000020201BUSCAPINA COMP A 3                 0000001000000000000000000165560000001655600000016556000000165560000000000000000000000075010379085100000   00000000000000000000000000                                        
2014072602216187131932     P0000020201RENITEC RENITEC 5MG X 30           0000001000000000000000000213890000002138900000021389000000213890000000000000000000000075013260034760000   00000000000000000000000000                                        
2014072602216187131932     P0000020205CHUPON BABYDAMACO FLOR MIEL        0000005000000000000000000004530000000045300000002265000000022650000000036000000000000075015075120320000   00000000000000000000000000                                        
2014072602216187131932     P0000020205NATURELLA TLLS NOCHE 10 ALAS       0000001000000000000000000012520000000125200000001252000000012520000000020000000000000075010014053350000   00000000000000000000000000                                        
2014072602216187131932     P0000020201VOLTAREN 30GR 33%G GTS EN PRECIO   0000001000000000000000000036850000000368500000003685000000036850000000000000000000000075011248154860000   00000000000000000000000000                                        
2014072602216187131932     P0000020202EGO GEL 250ML BLACK                0000002000000000000000000009100000000091000000001820000000018200000000029200000000000075061925005550000   00000000000000000000000000                                        
2014072602216187131932     P0000020202EGO GEL 500ML BLACK                0000001000000000000000000018930000000189300000001893000000018930000000030300000000000075030083361930000   00000000000000000000000000                                        
2014072602216187131932     P0000020202GEL X-TREME VERDE 250 G            0000003000000000000000000007100000000071000000002130000000021300000000034200000000000075030021636270000   00000000000000000000000000                                        
2014072602216187131932     P0000020201SOLUCION HARTMANN PSA 500MLPLA     0000001000000000000000000034580000000345800000003458000000034580000000000000000000000075011251002460000   00000000000000000000000000                                        
2014072602216187131932     P0000020202GEL X-TREME TRANSP 250 G     1     0000003000000000000000000006360000000063600000001908000000019080000000030600000000000075030021630230000   00000000000000000000000000                                        
2014072602216187131932     P0000020201CIPRO XR T 7 500MG                 0000001000000000000000000155540000001555400000015554000000155540000000000000000000000075013186708910000   00000000000000000000000000                                        
2014072602216187135202     P0000020101LOCOID CREMA TUBO 30 G             0000002000000000000000000103310000001033100000020662000000206620000000000000000000000075012993035420000   00000000000000000000000000                                        
2014072602216187135202     P0000020101CIPROFLOX C 12 250MG ANT           0000002000000000000000000148460000001484600000029692000000296920000000000000000000000075013147018650000   00000000000000000000000000                                        
2014072602216187135202     P0000020101ESMISEN T 10                       0000002000000000000000000143720000001437200000028744000000287440000000000000000000000075013147039200000   00000000000000000000000000                                        
2014072602216187135202     P0000020101ESMISEN T 30                       0000001000000000000000000320090000003200900000032009000000320090000000000000000000000075013147039440000   00000000000000000000000000                                        
2014072602216187135202     P0000020101INHIBITRON DUAL 20 MG CAPS C/14    0000001000000000000000000172680000001726800000017268000000172680000000000000000000000075012993026680000   00000000000000000000000000                                        
2014072602216187135202     P0000020101UNASAL T 10 250MG                  0000001000000000000000000205770000002057700000020577000000205770000000000000000000000075013147012160000   00000000000000000000000000                                        
2014072602216187135202     P0000020101INDAFLEX CRA 40G 2.5%              0000003000000000000000000163050000001630500000048915000000489150000000000000000000000075012895144600000   00000000000000000000000000                                        
2014072602216187131932     P0000020202GEL X-TREME AZUL 250 G             0000003000000000000000000007100000000071000000002130000000021300000000034200000000000075030021635280000   00000000000000000000000000                                        
2014072602216187131932     P0000020205PILOPEPTAN 650 MH C/60 CAPS.       0000001000000000000000000456690000004566900000045669000000456690000000730700000000000084233720250440000   00000000000000000000000000                                        
2014072602216187131932     P0000020205SIETE MACHOS LOC 220ML             0000001000000000000000000062310000000623100000006231000000062310000000099700000000000075011687103100000   00000000000000000000000000                                        
2014072602216187131932     P0000020201TRADOL RETARD 100 MG TAB 30        0000001000000000000000000548500000005485000000054850000000548500000000000000000000000075022092909140000   00000000000000000000000000                                        
2014072602216187131932     P0000020205TENA S CALZON DESCH ANAT 10GDE     0000001000000000000000000068960000000689600000006896000000068960000000110300000000000075010190510430000   00000000000000000000000000                                        
2014072602216187131932     P0000020202VASELINE PURE SKIN 50G ORIG        0000003000000000000000000012710000000127100000003813000000038130000000060900000000000075010563395310000   00000000000000000000000000                                        
2014072602216187131932     P0000020201MUCOSOLVAN COMP SOL 120ML          0000001000000000000000000119180000001191800000011918000000119180000000000000000000000075010346510200000   00000000000000000000000000                                        
2014072602216187131932     P0000020201BUSCAPINA 20 MG AMP. 3X1 ML        0000001000000000000000000091410000000914100000009141000000091410000000000000000000000075010379080150000   00000000000000000000000000                                        
2014072602216187131932     P0000020201BUSCAPINA COMP A 3                 0000001000000000000000000165560000001655600000016556000000165560000000000000000000000075010379085100000   00000000000000000000000000                                        
2014072602216187131932     P0000020201RENITEC RENITEC 5MG X 30           0000001000000000000000000213890000002138900000021389000000213890000000000000000000000075013260034760000   00000000000000000000000000                                        
2014072602216187131932     P0000020205CHUPON BABYDAMACO FLOR MIEL        0000005000000000000000000004530000000045300000002265000000022650000000036000000000000075015075120320000   00000000000000000000000000                                        
2014072602216187131932     P0000020205NATURELLA TLLS NOCHE 10 ALAS       0000001000000000000000000012520000000125200000001252000000012520000000020000000000000075010014053350000   00000000000000000000000000                                        
2014072602216187131932     P0000020201VOLTAREN 30GR 33%G GTS EN PRECIO   0000001000000000000000000036850000000368500000003685000000036850000000000000000000000075011248154860000   00000000000000000000000000                                        
2014072602216187131932     P0000020202EGO GEL 250ML BLACK                0000002000000000000000000009100000000091000000001820000000018200000000029200000000000075061925005550000   00000000000000000000000000                                        
2014072602216187131932     P0000020202EGO GEL 500ML BLACK                0000001000000000000000000018930000000189300000001893000000018930000000030300000000000075030083361930000   00000000000000000000000000                                        
2014072602216187131932     P0000020202GEL X-TREME VERDE 250 G            0000003000000000000000000007100000000071000000002130000000021300000000034200000000000075030021636270000   00000000000000000000000000                                        
2014072602216187131932     P0000020201SOLUCION HARTMANN PSA 500MLPLA     0000001000000000000000000034580000000345800000003458000000034580000000000000000000000075011251002460000   00000000000000000000000000                                        
2014072602216187131932     P0000020202GEL X-TREME TRANSP 250 G     1     0000003000000000000000000006360000000063600000001908000000019080000000030600000000000075030021630230000   00000000000000000000000000                                        
2014072602216187131932     P0000020201CIPRO XR T 7 500MG                 0000001000000000000000000155540000001555400000015554000000155540000000000000000000000075013186708910000   00000000000000000000000000                                        
2014072602216187135202     P0000020101LOCOID CREMA TUBO 30 G             0000002000000000000000000103310000001033100000020662000000206620000000000000000000000075012993035420000   00000000000000000000000000                                        
2014072602216187135202     P0000020101CIPROFLOX C 12 250MG ANT           0000002000000000000000000148460000001484600000029692000000296920000000000000000000000075013147018650000   00000000000000000000000000                                        
2014072602216187135202     P0000020101ESMISEN T 10                       0000002000000000000000000143720000001437200000028744000000287440000000000000000000000075013147039200000   00000000000000000000000000                                        
2014072602216187135202     P0000020101ESMISEN T 30                       0000001000000000000000000320090000003200900000032009000000320090000000000000000000000075013147039440000   00000000000000000000000000                                        
2014072602216187135202     P0000020101INHIBITRON DUAL 20 MG CAPS C/14    0000001000000000000000000172680000001726800000017268000000172680000000000000000000000075012993026680000   00000000000000000000000000                                        
2014072602216187135202     P0000020101UNASAL T 10 250MG                  0000001000000000000000000205770000002057700000020577000000205770000000000000000000000075013147012160000   00000000000000000000000000                                        
2014072602216187135202     P0000020101INDAFLEX CRA 40G 2.5%              0000003000000000000000000163050000001630500000048915000000489150000000000000000000000075012895144600000   00000000000000000000000000                                        
2014072602216187135202     P0000020101PLANTIVAL GRAG 40                  0000001000000000000000000166680000001666800000016668000000166680000000000000000000000075011688608240000   00000000000000000000000000                                        
2014072602216187131932     P0000020202GEL X-TREME AZUL 250 G             0000003000000000000000000007100000000071000000002130000000021300000000034200000000000075030021635280000   00000000000000000000000000                                        
2014072602216187131932     P0000020205PILOPEPTAN 650 MH C/60 CAPS.       0000001000000000000000000456690000004566900000045669000000456690000000730700000000000084233720250440000   00000000000000000000000000                                        
2014072602216187131932     P0000020205SIETE MACHOS LOC 220ML             0000001000000000000000000062310000000623100000006231000000062310000000099700000000000075011687103100000   00000000000000000000000000                                        
2014072602216187131932     P0000020201TRADOL RETARD 100 MG TAB 30        0000001000000000000000000548500000005485000000054850000000548500000000000000000000000075022092909140000   00000000000000000000000000                                        
2014072602216187131932     P0000020205TENA S CALZON DESCH ANAT 10GDE     0000001000000000000000000068960000000689600000006896000000068960000000110300000000000075010190510430000   00000000000000000000000000                                        
2014072602216187131932     P0000020202VASELINE PURE SKIN 50G ORIG        0000003000000000000000000012710000000127100000003813000000038130000000060900000000000075010563395310000   00000000000000000000000000                                        
2014072602216187131932     P0000020201MUCOSOLVAN COMP SOL 120ML          0000001000000000000000000119180000001191800000011918000000119180000000000000000000000075010346510200000   00000000000000000000000000                                        
2014072602216187131932     P0000020201BUSCAPINA 20 MG AMP. 3X1 ML        0000001000000000000000000091410000000914100000009141000000091410000000000000000000000075010379080150000   00000000000000000000000000                                        
2014072602216187131932     P0000020201BUSCAPINA COMP A 3                 0000001000000000000000000165560000001655600000016556000000165560000000000000000000000075010379085100000   00000000000000000000000000                                        
2014072602216187131932     P0000020201RENITEC RENITEC 5MG X 30           0000001000000000000000000213890000002138900000021389000000213890000000000000000000000075013260034760000   00000000000000000000000000                                        
2014072602216187131932     P0000020205CHUPON BABYDAMACO FLOR MIEL        0000005000000000000000000004530000000045300000002265000000022650000000036000000000000075015075120320000   00000000000000000000000000                                        
2014072602216187131932     P0000020205NATURELLA TLLS NOCHE 10 ALAS       0000001000000000000000000012520000000125200000001252000000012520000000020000000000000075010014053350000   00000000000000000000000000                                        
2014072602216187131932     P0000020201VOLTAREN 30GR 33%G GTS EN PRECIO   0000001000000000000000000036850000000368500000003685000000036850000000000000000000000075011248154860000   00000000000000000000000000                                        
2014072602216187131932     P0000020202EGO GEL 250ML BLACK                0000002000000000000000000009100000000091000000001820000000018200000000029200000000000075061925005550000   00000000000000000000000000                                        
2014072602216187131932     P0000020202EGO GEL 500ML BLACK                0000001000000000000000000018930000000189300000001893000000018930000000030300000000000075030083361930000   00000000000000000000000000                                        
2014072602216187131932     P0000020202GEL X-TREME VERDE 250 G            0000003000000000000000000007100000000071000000002130000000021300000000034200000000000075030021636270000   00000000000000000000000000                                        
2014072602216187131932     P0000020201SOLUCION HARTMANN PSA 500MLPLA     0000001000000000000000000034580000000345800000003458000000034580000000000000000000000075011251002460000   00000000000000000000000000                                        
2014072602216187131932     P0000020202GEL X-TREME TRANSP 250 G     1     0000003000000000000000000006360000000063600000001908000000019080000000030600000000000075030021630230000   00000000000000000000000000                                        
2014072602216187131932     P0000020201CIPRO XR T 7 500MG                 0000001000000000000000000155540000001555400000015554000000155540000000000000000000000075013186708910000   00000000000000000000000000                                        
2014072602216187135202     P0000020101LOCOID CREMA TUBO 30 G             0000002000000000000000000103310000001033100000020662000000206620000000000000000000000075012993035420000   00000000000000000000000000                                        
2014072602216187135202     P0000020101CIPROFLOX C 12 250MG ANT           0000002000000000000000000148460000001484600000029692000000296920000000000000000000000075013147018650000   00000000000000000000000000                                        
2014072602216187135202     P0000020101ESMISEN T 10                       0000002000000000000000000143720000001437200000028744000000287440000000000000000000000075013147039200000   00000000000000000000000000                                        
2014072602216187135202     P0000020101ESMISEN T 30                       0000001000000000000000000320090000003200900000032009000000320090000000000000000000000075013147039440000   00000000000000000000000000                                        
2014072602216187135202     P0000020101INHIBITRON DUAL 20 MG CAPS C/14    0000001000000000000000000172680000001726800000017268000000172680000000000000000000000075012993026680000   00000000000000000000000000                                        
2014072602216187135202     P0000020101UNASAL T 10 250MG                  0000001000000000000000000205770000002057700000020577000000205770000000000000000000000075013147012160000   00000000000000000000000000                                        
2014072602216187135202     P0000020101INDAFLEX CRA 40G 2.5%              0000003000000000000000000163050000001630500000048915000000489150000000000000000000000075012895144600000   00000000000000000000000000                                        
2014072602216187135202     P0000020101PLANTIVAL GRAG 40                  0000001000000000000000000166680000001666800000016668000000166680000000000000000000000075011688608240000   00000000000000000000000000                                        
2014072602216187135202     P0000020101DOLOCARTIGEN CAJA CON 20 CAPSULAS  0000001000000000000000000489690000004896900000048969000000489690000000000000000000000075012508135300000   00000000000000000000000000                                        
