NO000027495000009000392IQ44556   20160422130000300727501571201436002100003480000000079001000637DAVID PALAFOX SALAS           000030072ACIDO RETINOICO 0.05% CREMA             ACNIL CREMA 20 GRS                      0000000
NO000027495000009000392IQ44556   20160422130000300727501571200668002200009300000000029001000637DAVID PALAFOX SALAS           000030072ALBENDAZOL 20 MG/ML SUSP                ALFAZOL SUSP 20ML                       0000000
NO000027495000009000392IQ44556   20160422130000300727501571200521022100057000000000035001000637DAVID PALAFOX SALAS           000030072GLIBENCLAMIDA 5 MG 50 TABL              DIGLEXOL 5 MG 50 TABS                   0000000
NO000027495000009000392IQ44556   20160422130000300727501571200606026800025890000000028001000637DAVID PALAFOX SALAS           000030072METOCLOPRAMIDA 10 MG 20 TABL            MIPRAMID 10 MG 20 TABS                  0000000
NO000027495000009000392IQ44556   20160422130000300727501571200934028800138600000000056001000637DAVID PALAFOX SALAS           000030072NAPROXENO SODICO/PARACETAMOL 275/300 MG ARSENAL COMP 10 TABS                    0000000
NO00002749600000900119455        20160422130000299367501472600139009100025190000000110001000637DAVID PALAFOX SALAS           000029936CASTAÑA DE INDIAS 30 TABS              CASTAÑA DE INDIAS 30 TABS              0000000
NO00002749600000900119455        20160422130000299367501472600086019100013000000000155001000637DAVID PALAFOX SALAS           000029936EXTRACTO DE SEN 50 TROCISCOS            EXTRACTO DE SEN 50 TROCISCOS            0000000
NO00002749600000900119455        20160422130000299367501472260296025100006000000000190010000637DAVID PALAFOX SALAS           000029936LECITINA DE SOYA 50 CAPS O TABS         LECITINA DE SOYA 50 CAPS O TABS         0000000
NO00002749600000900119455        20160422130000299367501472600024042900003550000000164001000637DAVID PALAFOX SALAS           000029936AJO DEODORIZADO 100 MG 100 CAPS         AJO DEODORIZADO 100 MG 100 CAPS         0000000
NO00002749600000900119455        20160422130000299367501472600380052100002830000000110001000637DAVID PALAFOX SALAS           000029936LEVADURA DE CERVEZA 500 MG 100 TROSCISCOLEVADURA DE CERVEZA 500 MG 100 TROSCISCO0000000
NO00002749600000900119455        20160422130000299367501472600031055400006290000000135001000637DAVID PALAFOX SALAS           000029936HEDERA HELIX 0.7 G JBE 120 ML SABOR LIMOHEDERA HELIX 0.7 G JBE 120 ML SABOR LIMO0000000
NO00002749600000900119455        20160422130000299367501472600340055700003350000000230001000637DAVID PALAFOX SALAS           000029936EXTRACTO DE HIGADO DE BACALAO SUSP 340 MEXTRACTO DE HIGADO DE BACALAO SUSP 340 M0000000
NO0000274970000090004142377      20160422130000299807501075714739022100018000000000055001000637DAVID PALAFOX SALAS           000029980GLIBENCLAMIDA 5 MG 50 TABL              REGLUSAN TAB 5 MG                       0000000
NO0000274970000090004142377      20160422130000299807501075713176027800024000000000070001000637DAVID PALAFOX SALAS           000029980METRONIDAZOL 500 MG 30 TABL             LAMBLIT 500 MG 30 TABS                  0000000
NO0000274970000090004142377      20160422130000299807501075718119073700004240000000460001000637DAVID PALAFOX SALAS           000029980TAMSULOSINA 0.4 MG 20 CAPS              AMZUVAG 0.4 MG 20 CAP                   0000000
NO000027498000009001142A8779     20160422130000301477502004530680041500045600000000100001000637DAVID PALAFOX SALAS           000030147ALCOHOL DESNATURALIZADO 71% 500 ML      ALCOHOL DESNATURALIZADO 71% 500 ML      0000000
NO000027499000009000116FA44334   20160422130000300627501044205404056900009900000000073002000637DAVID PALAFOX SALAS           000030062TALCO DESODORANTE PARA PIES 150 G       TALCO DESODORANTE PARA PIES 150 G       0000000
NO000027500000009000670403414198120160422130000300697501349020023010900014000000000090701000637DAVID PALAFOX SALAS           000030069CLINDAMICINA 300 MG 1 AMP 2 ML          CLINDAMICINA 300 MG 1 AMP 2 ML          0000000
NO000027500000009000670403414198120160422130000300697501349021013011100012960000000130101000637DAVID PALAFOX SALAS           000030069CLINDAMICINA 600 MG 4 ML                CLINDAMICINA 600 MG 4 ML                0000000
NO0000275010000090012341236      20160422130000299627503003738404060800056320000000171601000637DAVID PALAFOX SALAS           000029962AMANTADINA 0.5 G/PARACETAMOL 3 G/CLORFENAMANTADINA 0.5 G/PARACETAMOL 3 G/CLORFEN0000000
NO000027502000009000793FG549311  20160425130000302097502211782537024300001320000000100801000637DAVID PALAFOX SALAS           000030209KETOCONAZOL 400 MG 5 OVS                KETOCONAZOL 400 MG 5 OVS                0000000
NO000027502000009000793FG549311  20160425130000302097501825300694026500012440000000039001000637DAVID PALAFOX SALAS           000030209METAMIZOL 500 MG 10 COMP                METAMIZOL 500 MG 10 COMP                0000000
NO000027502000009000793FG549311  20160425130000302097502211784241049900001920000000153501000637DAVID PALAFOX SALAS           000030209DICLOFENACO 180 MG JBE SUSP 120 ML      DICLOFENACO 180 MG JBE SUSP 120 ML      0000000
NO000027503000009000793FG549343  20160425130000302027501825300601001000013440000000077701000637DAVID PALAFOX SALAS           000030202ACIDO ACETILSALICILICO 100 MG 30 TABS INMIDOLEN 100 MG 30 TABS INF (DEGORTS CHEM0000000
NO000027503000009000793FG549343  20160425130000302020780083140922005100001500000000430501000637DAVID PALAFOX SALAS           000030202AMPICILINA/DIPIRONA/CLORFENIRA AD 500 MGAMPIGRIN ADULTO  (COLLINS)              0000000
NO000027503000009000793FG549343  20160425130000302020780083139957019900002200000000152101000637DAVID PALAFOX SALAS           000030202FENILEFRINA/CLOROPROFENPIRIDAMINA 2.5/2 KORIFEN SOL GTS 30 ML (COLLINS)         0000000
NO000027504000009000419FGI20531  20160425130000300010000075016944035200007000000000260001000637DAVID PALAFOX SALAS           000030001SULINDACO 200 MG 20 TABL                SULINDACO 200 MG 20 TABL                0000000
NO000027505000009001206A4927     20160425130000302497502272120224093600007200000000250002000637DAVID PALAFOX SALAS           000030249SHAMPOO REPELENTE DE PIOJOS 120 MLS 120 PIOJO RIP 120 ML                        0000000
NO0000275060000090004142387      20160425130000299800000075006471002200016800000000030001000637DAVID PALAFOX SALAS           000029980ALBENDAZOL 20 MG/ML SUSP                VERMISEN 20 MG/ML SUSP 20 ML            0000000
NO0000275060000090004142387      20160425130000299807501075717075029400005000000000280001000637DAVID PALAFOX SALAS           000029980NAPROXENO 500 MG 45 TABS                NOVAXEN 500 MG 45 TABS                  0000000
NO0000275060000090004142387      20160425130000299807501075717914029500014160000000130001000637DAVID PALAFOX SALAS           000029980NEOMICINA/CAOLIN/PECTINA SUSP 75 MLTREDANINEKA SUSP 75 ML                       0000000
NO0000275060000090004142387      20160425130000299807501075715095036600033000000000070001000637DAVID PALAFOX SALAS           000029980TRIMETOPRIMA/SULFAMETOXAZOL 80/400 MG 20SULFAWAL 480 MG 20 TAB                  0000000
NO0000275060000090004142387      20160425130000299807501075718706070700006400000000320001000637DAVID PALAFOX SALAS           000029980RANITIDINA 1.5 G/100 ML JBE 200 ML      RAUDIL 1.5 G/100 ML JBE 200 ML          0000000
NO0000275070000090005463708      20160426130000300030670079000951045300009000000000380001000637DAVID PALAFOX SALAS           000030003SUMATRIPTAN 100 MG 2 TABLIMIGRAN        SUMATRIPTAN 100 MG 2 TABLIMIGRAN        0000000
NO00002750800000900037325065     20160426130000301337502003388527084200008000000000135001000637DAVID PALAFOX SALAS           000030133DEXTROMETORFANO/GUAIFENESINA GTS 30 MLRODEXTROMETORFANO/GUAIFENESINA GTS 30 MLRO0000000
NO0000275090000090004281206      20160427130000302267503008344600042800006000000000426701000637DAVID PALAFOX SALAS           000030226VITAMINAS PRENATALES 30 TABL            VITAMINAS PRENATALES 30 TABL            0000000
NO000027510000009000866FC5001    20160427130000302117502223111073030200009000000000189201000637DAVID PALAFOX SALAS           000030211NITAZOXANIDA 100 MG SUSP 60 ML          NITAZOXANIDA 100 MG SUSP 60 ML          0000000
NO000027511000009000377A6694     20160427130000300717509500005131095400005800000000240010000637DAVID PALAFOX SALAS           000030071CASSIA SENNA 50 TABL                    CASSIA SENNA 50 TABL                    0000000
NO00002751200000900049420143895  20160427130000302847501349012004010100029950000000235001000637DAVID PALAFOX SALAS           000030284CEFTRIAXONA 1G SOL INY IV O IM          AMCEF 1GR IM INY                        0000000
NO000027513000009000793FG549523  20160427130000302417502009741425009200003550000000655501000637DAVID PALAFOX SALAS           000030241CEFACLOR 500 MG 15 CAPS                 FASICLOR 500 MG 15 CAPS (MAVER)         0000000
NO000027513000009000793FG549523  20160427130000302417502004401409014700004200000000126101000637DAVID PALAFOX SALAS           000030241DEXAMETA/NEOMIC/FENILEF 1/3.5/2.5 MG GTSDEXNE 100 MG. 10 ML. NASAL (OFFENBACH)  0000000
NO000027513000009000793FG549523  20160427130000302410785118752637067000010000000000157101000637DAVID PALAFOX SALAS           000030241SUBSALICILATO DE BISMUTO 262 MG 24 TABL ITAMOL 262 MG C/24 TABS MAST (MAVI)     0000000
NO000027513000009000793FG549523  20160427130000302417502009744563072900005300000000484901000637DAVID PALAFOX SALAS           000030241SILDENAFIL 50 MG 10 TABL                SILDENAFIL 50 MG 10 TABS (SERRAL)       0000000
NO000027514000009000816125       20160427130000302827501537102180013100018660000000082001000637DAVID PALAFOX SALAS           000030282COMPLEJO B 100 MG 30 TABL               COMPLEJO B 100 MG 30 TABL               0000000
NO000027514000009000816125       20160427130000302827501537182960022400006600000000330701000637DAVID PALAFOX SALAS           000030282HIDROXOCOBALAMINA 50 000 UI FA INY      HIDROXOCOBALAMINA 50 000 UI FA INY      0000000
NO000027514000009000816125       20160427130000302827501537100452055800009600000000296101000637DAVID PALAFOX SALAS           000030282LIDOCAINA/COMPLEJO B 50000 2 ML         LIDOCAINA/COMPLEJO B 50000 2 ML         0000000
NO000027515000009000426B8796     20160428130000302477506335700736061300025000000000285001000637DAVID PALAFOX SALAS           000030247LEVOFLOXACINO 500 MG 7 TABL             LEVOFLOXACINO 500 MG 7 TABL             0000000
NO0000275160000090004142390      20160428130000302767501075710724008700030400000000075001000637DAVID PALAFOX SALAS           000030276CARBAMAZEPINA 200 MG 20 TABS            CARBAMAZEPINA 200 MG 20 TABS            0000000
NO0000275160000090004142390      20160428130000302767501075713169033500003800000000120001000637DAVID PALAFOX SALAS           000030276QUINFAMIDA 100 MG 3 TABS                QUINFAMIDA 100 MG 3 TABS                0000000
NO0000275160000090004142390      20160428130000302767501075720969088600001800000000650001000637DAVID PALAFOX SALAS           000030276TELMISARTAN 40MG 30 TABS                TELMISARTAN 40MG 30 TABS                0000000
NO00002751700000900082168958     20160428130000302777503002771167052900011000000000165001000637DAVID PALAFOX SALAS           000030277BAÑO COLOIDE PH 5.75 90 G              BAÑO COLOIDE PH 5.75 90 G              0000000
NO00002751700000900082168958     20160428130000302777503002772508080900003000000000300001000637DAVID PALAFOX SALAS           000030277SUCRALFATO 1 GR 40 TABS                 SUCRALFATO 1 GR 40 TABS                 0000000
NO000027518000009000766FE3009799920160428130000302317501128113120023400420000000000008405000637DAVID PALAFOX SALAS           000030231JERINGA DE 3 ML 21GX32 MM               JERINGA DE 3 ML 21GX32 MM               0000000
NO000027518000009000766FE3009799920160428130000302317501128113229023600420000000000010905000637DAVID PALAFOX SALAS           000030231JERINGA DESECHABLE 5 ML 21 X 32 PIEZA   JERINGA DESECHABLE 5 ML 21 X 32 PIEZA   0000000
NO00002751900000900119456        20160428130000302367501472600109039500005000000000140001000637DAVID PALAFOX SALAS           000030236SUPLEMENTO ALIMENTICIO 50 TROCISCOS     SUPLEMENTO ALIMENTICIO 50 TROCISCOS     0000000
NO000027520000009000793FG549534  20160502130000302717503001007137005500002700000000088501000637DAVID PALAFOX SALAS           000030271AMPICILINA 250 MG SUSP                  AMPICILINA 250 MG SUSP                  0000000
NO000027520000009000793FG549534  20160502130000302710780083142377009200010000000000655501000637DAVID PALAFOX SALAS           000030271CEFACLOR 500 MG 15 CAPS                 CEFACLOR 500 MG 15 CAPS                 0000000
NO000027521000009001224B720      20160502130000302393311000001049076200002880000000046005000637DAVID PALAFOX SALAS           000030239POMADA DE ARNICA 50 MG                  POMADA DE ARNICA 50 MG                  0000000
NO000027522000009000670403414253420160502130000302307501349012387088400005280000000084101000637DAVID PALAFOX SALAS           000030230SUERO ORAL PEDIATRICO SABOR MANZANA 300 SUERO ORAL PEDIATRICO SABOR MANZANA 300 0000000
NO000027523000009000670403414253320160502130000302307501349021846004400003780000000142301000637DAVID PALAFOX SALAS           000030230AMOXICILINA 500 MG SUSP                 AMOXICILINA 500 MG SUSP                 0000000
NO000027523000009000670403414253320160502130000302307501349026087021500021760000000050701000637DAVID PALAFOX SALAS           000030230GENTAMICINA 160 MG 1 AMP 2 ML           GENTAMICINA 160 MG 1 AMP 2 ML           0000000
NO000027523000009000670403414253320160502130000302307501349028982059800006000000000056001000637DAVID PALAFOX SALAS           000030230DIFENIDOL GI 40 MG 2 AMPS               DIFENIDOL GI 40 MG 2 AMPS               0000000
NO000027524000009000712FA23975   20160502130000302450000075049737064700008000000000192501000637DAVID PALAFOX SALAS           000030245HIPROMELOSA 0.5% SOL OFT 15 ML          HIPROMELOSA 0.5% SOL OFT 15 ML          0000000
NO000027525000009000820F349296   20160502130000302807502208892355001500001380000000043301000637DAVID PALAFOX SALAS           000030280ACIDO FOLICO 5 MG 20 TABS               CILOCID 5 MG 20 TABS (BRULUAGSA)        0000000
NO000027525000009000820F349296   20160502130000302807501349011243003900000200000000289301000637DAVID PALAFOX SALAS           000030280AMOX/AC CLAVULANICO 500MG/125MG 10 TABS CLAVIPEN 500/125 MG 10 TABS (BRULUAGSA) 0000000
NO000027526000009000820F349297   20160502130000302807501349011243003900004800000000289301000637DAVID PALAFOX SALAS           000030280AMOX/AC CLAVULANICO 500MG/125MG 10 TABS CLAVIPEN 500/125 MG 10 TABS (BRULUAGSA) 0000000
NO000027527000009000820F349298   20160502130000302830780083140588015700000540000000224301000637DAVID PALAFOX SALAS           000030283HIDROXIDO ALUMINIO/MAGNESIO/DIMETICONA 3PLUSGEL 50 TABS MAST (COLLINS)          0000000
NO000027527000009000820F349298   20160502130000302837501109763436039700000120000000172101000637DAVID PALAFOX SALAS           000030283LIDOCAINA/HIDROCO/ALUM/OXIDO ZINC 5/0.25ARTIZON UNG 20 GRS                      0000000
NO000027527000009000820F349298   20160502130000302830656599040486040100000080000001193501000637DAVID PALAFOX SALAS           000030283ESTROGENOS CONJUGADOS 0.625 MG 42 GRAGPRELRREDIN 0.625 MG 42 GRAGS (VICTORY)    0000000
NO000027527000009000820F349298   20160502130000302837501672690771048700000320000000155401000637DAVID PALAFOX SALAS           000030283CLINDAMICINA AL 1 G/100 G GEL 30 G      CLINDAMICINA GEL 1.0G/100 TUBO C/30 G (A0000000
NO000027527000009000820F349298   20160502130000302837502009740299064100000040000000176601000637DAVID PALAFOX SALAS           000030283CISAPRIDA 1 MG SUSP 60 ML               PRESISTIN 1 MG SUSP 60 ML (MAVER)       0000000
NO000027527000009000820F349298   20160502130000302837502211788911088200000560000000310801000637DAVID PALAFOX SALAS           000030283LIDOCAINA 60 MG/HIDROCORTISONA 5 MG 6 SULIDOCAINA 60 MG/HIDROCORTISONA 5 MG 6 SU0000000
NO000027527000009000820F349298   20160502130000302837502211788423730100000950000000189301000637DAVID PALAFOX SALAS           000030283INDOMETACINA 100 MG 6 SUPOSITORIOS      ARTAXOL                                 0000000
NO000027528000009000820F349299   20160502130000302830780083140588015700005280000000224301000637DAVID PALAFOX SALAS           000030283HIDROXIDO ALUMINIO/MAGNESIO/DIMETICONA 3PLUSGEL 50 TABS MAST (COLLINS)          0000000
NO000027528000009000820F349299   20160502130000302837501109763436039700007560000000172101000637DAVID PALAFOX SALAS           000030283LIDOCAINA/HIDROCO/ALUM/OXIDO ZINC 5/0.25ARTIZON UNG 20 GRS                      0000000
NO000027528000009000820F349299   20160502130000302837501314704156061500002000000000167001000637DAVID PALAFOX SALAS           000030283GLICEROL ADULTO 2.632 G 10 SUPSSENOSIAINSENOSIAIN ADULTO 2.632 G 10 SUPS        0000000
NO000027528000009000820F349299   20160502130000302837502009740299064100000600000000176601000637DAVID PALAFOX SALAS           000030283CISAPRIDA 1 MG SUSP 60 ML               PRESISTIN 1 MG SUSP 60 ML (MAVER)       0000000
NO000027528000009000820F349299   20160502130000302837502211788911088200003600000000310801000637DAVID PALAFOX SALAS           000030283LIDOCAINA 60 MG/HIDROCORTISONA 5 MG 6 SULIDOCAINA 60 MG/HIDROCORTISONA 5 MG 6 SU0000000
NO000027528000009000820F349299   20160502130000302837502211788423730100001250000000189301000637DAVID PALAFOX SALAS           000030283INDOMETACINA 100 MG 6 SUPOSITORIOS      ARTAXOL                                 0000000
NO000027529000009000915A85       20160502130000303107503012924133086500007920000000150002000637DAVID PALAFOX SALAS           000030310K-LAMINA LOCION 180 ML                  K-LAMINA LOCION 180 ML                  0000000
NO000027530000009000970A27081    20160502130000302337501836009661055600040000000000193201000637DAVID PALAFOX SALAS           000030233IBUPROFENO 200 MG/PARACETAMOL 325 MG 20 IBUPROFENO 200 MG/PARACETAMOL 325 MG 20 0000000
NO000027531000009000793FG549680  20160502130000303257502009743993074300001200000000397110000637DAVID PALAFOX SALAS           000030325L-CARNITINA 500 MG 30 CAPS              L-CARNITINA 500 MG 30 CAPS              0000000
NO000027531000009000793FG549680  20160502130000303257502009744891083900003650000000293401000637DAVID PALAFOX SALAS           000030325NORFENEFRINA 10 MG GTS ORALES 24 ML     NORFENEFRINA 10 MG GTS ORALES 24 ML     0000000
NO000027532000009000168A90003400 20160502130000299247501672602163038300017340000000280001000637DAVID PALAFOX SALAS           000029924METFORMINA/GLIBENCLAMIDA 500/5 MG 60 TABMIFELAR C 500/5MG 60 TABS               0000000
NO000027533000009000168A90003443 20160502130000299247501672602163038300032660000000280001000637DAVID PALAFOX SALAS           000029924METFORMINA/GLIBENCLAMIDA 500/5 MG 60 TABMIFELAR C 500/5MG 60 TABS               0000000
NO0000275340000090004142398      20160503130000303567501075710724008700068400000000080001000637DAVID PALAFOX SALAS           000030356CARBAMAZEPINA 200 MG 20 TABS            CARPIN 200 MG 20 TAB                    0000000
NO0000275340000090004142398      20160503130000303567501075710113022300020800000000090001000637DAVID PALAFOX SALAS           000030356HIDROXIDO DE ALUM/HIDROXIDO DE MAGN 3.7/ALUMAG FCO. C/240 ML (NOVAG)            0000000
NO0000275340000090004142398      20160503130000303567501075717020026600025000000000085001000637DAVID PALAFOX SALAS           000030356METFORMINA 850 MG 30 TABL               GLUNOVAG 850 MG 30 TABS                 0000000
NO0000275340000090004142398      20160503130000303567501075715088036400034440000000065001000637DAVID PALAFOX SALAS           000030356TRIMETOPRIMA/SULFAMETOXAZOL 200/40 MG SUSULFAWAL SUSP 120 ML                    0000000
NO0000275340000090004142398      20160503130000303567501075719253084300003800000000420001000637DAVID PALAFOX SALAS           000030356CLOPIDOGREL 75 MG 14 TABL               DEVIPLAT 75 MG 14 TABS                  0000000
NO0000275340000090004142398      20160503130000303567501075720969088600006000000000650001000637DAVID PALAFOX SALAS           000030356TELMISARTAN 40MG 30 TABS                NATRAZIM 40 MG 30 TAB                   0000000
NO000027535000009000257410009206920160503130000302227501277078318051900005500000000119001000637DAVID PALAFOX SALAS           000030222SUERO ORAL LIMON 28.3 G 4 SOBRES        SUERO ORAL LIMON 28.3 G 4 SOBRES        0000000
NO000027535000009000257410009206920160503130000302227501277078301070800004500000000119001000637DAVID PALAFOX SALAS           000030222SUERO ORAL LIMA LIMON 28.3 G 4 SOBRES   SUERO ORAL LIMA LIMON 28.3 G 4 SOBRES   0000000
NO000027536000009000426B8844     20160503130000303087506335701665003900010000000000260001000637DAVID PALAFOX SALAS           000030308AMOX/AC CLAVULANICO 500MG/125MG 10 TABS CAXICUM 500/125 MG 12 TAB               0000000
NO000027537000009000168A90003451 20160503130000301697501672690351045600005280000000091501000637DAVID PALAFOX SALAS           000030169INDOMETACINA 100 MG 15 SUPS             INDOMETACINA 100 MG 15 SUPS             0000000
NO000027538000009000391EV13525   20160503130000303497501251600344001600006430000000130010000637DAVID PALAFOX SALAS           000030349ACIDO GLUTAMICO 100 TABS                ACIDO GLUTAMICO 100 TABS                0000000
NO000027539000009000392IQ44630   20160503130000303487501571201511006800060000000000072001000637DAVID PALAFOX SALAS           000030348BETAMETASONA/CLOTRIMAZOL/GENTAMICINA 0.0BETRIGEN CREMA 25 GR                    0000000
NO000027540000009000392IQ44631   20160503130000303477501571200101011800200000000000030001000637DAVID PALAFOX SALAS           000030347CLORFENAMINA COMPUESTA 500 MG 10 TABL   CLORFENAMINA COMPUESTA 500 MG 10 TABL   0000000
NO000027540000009000392IQ44631   20160503130000303477501571200583026500100000000000027201000637DAVID PALAFOX SALAS           000030347METAMIZOL 500 MG 10 COMP                METAMIZOL 500 MG 10 COMP                0000000
NO000027540000009000392IQ44631   20160503130000303477501571201368031200050000000000065001000637DAVID PALAFOX SALAS           000030347OXIDO DE ZINC 25 MG CREMA               OXIDO DE ZINC 25 MG CREMA               0000000
NO0000275410000090012341249      20160503130000302687502240450018006000039000000000160001000637DAVID PALAFOX SALAS           000030268AZITROMICINA 500 MG 3 TABS              AZITROMICINA 500 MG 3 TABS              0000000
NO0000275410000090012341249      20160503130000302687501258204002066200011010000000240001000637DAVID PALAFOX SALAS           000030268LORATADINA 5 MG/BETAMETASONA 0.25 MG 10 LORATADINA 5 MG/BETAMETASONA 0.25 MG 10 0000000
NO0000275410000090012341249      20160503130000302687502240450230080700008400000000146501000637DAVID PALAFOX SALAS           000030268AMANTADINA/PARACE/CLORFE 0.5/3/1.02G SOLAMANTADINA/PARACE/CLORFE 0.5/3/1.02G SOL0000000
NO0000275420000090007095720      20160504130000303347502213040871006400003500000000190001000637DAVID PALAFOX SALAS           000030334BENCIDAMINA 5 G GEL 60 G                BENCIDAMINA 5 G GEL 60 G                0000000
NO0000275420000090007095720      20160504130000303347502213040017034200035000000000220001000637DAVID PALAFOX SALAS           000030334SALBUTAMOL 100 MCG SPRAY 200 DOSISVENTOLSALBUTAMOL 100 MCG SPRAY 200 DOSISVENTOL0000000
NO0000275420000090007095720      20160504130000303347502213040987063500030000000000185001000637DAVID PALAFOX SALAS           000030334LEVONORGESTREL 0.15 MG/ETIMILESTRADIOL 0LEVONORGESTREL 0.15 MG/ETIMILESTRADIOL 00000000
NO000027543000009000793FG549615  20160504130000303137502004402154008400003500000000158201000637DAVID PALAFOX SALAS           000030313CAOLIN PECTINA SUSP                                                             0000000
NO000027543000009000793FG549615  20160504130000303137501825300366036000000400000000149401000637DAVID PALAFOX SALAS           000030313TRIMEBUTINA PED 20 MG GTS 30 ML                                                 0000000
NO000027543000009000793FG549615  20160504130000303130780083144302065000006740000000133301000637DAVID PALAFOX SALAS           000030313OXIMETAZOLINA ADUL 50 MG SOL NASAL 20 ML                                        0000000
NO000027543000009000793FG549615  20160504130000303130780083144296065100004000000000128001000637DAVID PALAFOX SALAS           000030313OXIMETAZOLINA SOL NASAL INF 25 MG 20 ML                                         0000000
NO0000275440000090012151100      20160504130000302387506336700018045100061980000000039205000637DAVID PALAFOX SALAS           000030238GASA ESTERILIZADA 7.5X5CM 10 SBS        GASA ESTERILIZADA 7.5X5CM 10 SBS        0000000
NO0000275440000090012151100      20160504130000302387506336700001045200066960000000050005000637DAVID PALAFOX SALAS           000030238GASA ESTERILIZADA 10 X 10 CM 10 SOBRES  GASA ESTERILIZADA 10 X 10 CM 10 SOBRES  0000000
NO0000275440000090012151100      20160504130000302387506336700223060100007680000000035205000637DAVID PALAFOX SALAS           000030238CUBREBOCAS DESECHABLE 10 PZAS           CUBREBOCAS DESECHABLE 10 PZAS           0000000
NO000027545000009001142A8851     20160504130000302447502004530819083000010000000000028005000637DAVID PALAFOX SALAS           000030244VASO COPRO DE PLASTICO                  VASO COPRO DE PLASTICO                  0000000
NO000027545000009001142A8851     20160504130000302447502256330076100200002260000000060005000637DAVID PALAFOX SALAS           000030244ALGODON ENROLLADO O PLISADO 100 G       ALGODON ENROLLADO O PLISADO 100 G       0000000
NO000027546000009001142A8852     20160504130000303627502004532011050300002850000000050505000637DAVID PALAFOX SALAS           000030362MULTIAPLICADORES DE ALGODON C/100       MULTIAPLICADORES DE ALGODON C/100       0000000
NO00002754700000900114759650     20160504130000302357503013570018039200004090000000138005000637DAVID PALAFOX SALAS           000030235PRUEBA DE EMBARAZO CASSETTE             PRUEBA DE EMBARAZO CASSETTE             0000000
NO00002754800000900114760306     20160504130000302357503013570018039200013910000000138005000637DAVID PALAFOX SALAS           000030235PRUEBA DE EMBARAZO CASSETTE             PRUEBA DE EMBARAZO CASSETTE             0000000
NO000027549000009000960B43743    20160504130000303047501573902652042300001500000000075001000637DAVID PALAFOX SALAS           000030304LORATADINA 100 MG/100 ML GTS 30 ML      GRIMERAL GOTAS 30 ML                    0000000
NO000027550000009000960B43742    20160504130000302727501573900023033900148540000000085001000637DAVID PALAFOX SALAS           000030272RANITIDINA 300 MG 10 TABL               ULGASTRIN 300 MG 10 TABS                0000000
NO000027550000009000960B43742    20160504130000302727501573904779081200030000000000135501000637DAVID PALAFOX SALAS           000030272SILDENAFIL 100 MG 1 TABL                DIONIXOL 100 MG 1 TAB                   0000000
NO000027551000009001135O1676     20160504130000303090821998000014090600006840000000270010000637DAVID PALAFOX SALAS           000030309VITAMINAS/MINERALES/OMEGA 3/DHA/EPA 30 CVITAMINAS/MINERALES/OMEGA 3/DHA/EPA 30 C0000000
NO000027552000009001224B739      20160504130000302393311000001049076200004980000000046005000637DAVID PALAFOX SALAS           000030239POMADA DE ARNICA 50 MG                  POMADA DE ARNICA 50 MG                  0000000
NO000027553000009000419FGI20652  20160505130000302257503004908844041700010000000000250001000637DAVID PALAFOX SALAS           000030225NISTATINA 2 400 000 UI SUSP ORAL        NISTATINA 2 400 000 UI SUSP ORAL        0000000
NO000027554000009000419FGI20658  20160505130000303507503004908776026600045000000000090001000637DAVID PALAFOX SALAS           000030350METFORMINA 850 MG 30 TABL               METFORMINA 850 MG 30 TABL               0000000
NO000027555000009000793FG546915  20160506130000303130780083144302065000001260000000133301000637DAVID PALAFOX SALAS           000030313OXIMETAZOLINA ADUL 50 MG SOL NASAL 20 ML                                        0000000
NO000027556000009000793FG549779  20160506130000303570785118753528000700008000000000278301000637DAVID PALAFOX SALAS           000030357ACICLOVIR 4 MG SUSP 125 ML              LESACLOR SUSP 125 ML (MAVI)             0000000
NO000027556000009000793FG549779  20160506130000303577501537162214003100005760000000132301000637DAVID PALAFOX SALAS           000030357AMBROXOL/CLEMBUTEROL 150/0.1 MG SOL 120 OXOLVAN C 150 MG/0.1 MG 120ML (BRULUART)0000000
NO000027556000009000793FG549779  20160506130000303577502009740268003400020400000000136801000637DAVID PALAFOX SALAS           000030357AMBROXOL/DEXTROMETORFANO AD 225/225 MG JCOBADEX ADULTO 225 MG/225 MG SUSP 120 ML0000000
NO000027556000009000793FG549779  20160506130000303577502211782018054600002500000000120101000637DAVID PALAFOX SALAS           000030357NITROFURAL 6.0 MG 6 OVULOS              PROBIZAL C/6 OVULOS (LOEFFLER)          0000000
NO000027556000009000793FG549779  20160506130000303570785118753917061100005600000000090301000637DAVID PALAFOX SALAS           000030357GLIMEPIRIDA 2 MG 30 TABL                GLEURIX 2 MG 30 TABS                    0000000
NO000027556000009000793FG549779  20160506130000303570785118752927078400003250000000338801000637DAVID PALAFOX SALAS           000030357BENCIDAMINA 150 MG/100 ML SOL 360 ML    ARTROBEN 150 MG/100 ML SOL 360 ML (MAVI)0000000
NO0000275570000090004488780      20160506130000300027501620329555021400002160000000035501000637DAVID PALAFOX SALAS           000030002GENTAMICINA INF 20 MG SOL INY 1 AMP 2 MLGENTAMICINA INF 20 MG SOL INY 1 AMP 2 ML0000000
NO0000275570000090004488780      20160506130000300027501620339530021600006720000000180001000637DAVID PALAFOX SALAS           000030002GENTAMICINA 160 MG 5 AMP 2 ML           GENTAMICINA 160 MG 5 AMP 2 ML           0000000
NO000027558000009001074A4617     20160509130000302347503181043161075500010010000000170002000637DAVID PALAFOX SALAS           000030234GLUCOSAMINA CONDROITINA BELLADONA GEL TUGLUCOSAMINA CONDROITINA BELLADONA GEL TU0000000
NO000027559000009000168A90003479 20160509130000301697501672600732020900005390000000091701000637DAVID PALAFOX SALAS           000030169FUMARATO FERROSO 200 MG 50 TABL         FUMARATO FERROSO 200 MG 50 TABL         0000000
NO000027560000009001236A10617    20160511130000299740714706100109313400000960000000634000000637DAVID PALAFOX SALAS           000029974JARABE PARA LA TOS CON MIEL 250 ML PQTE BRONCOLIN JARABE ETIQUETA AZUL 250 ML C/0000000
NO000027560000009001236A10617    20160511130000299740714706200700313500000720000000741000000637DAVID PALAFOX SALAS           000029974JARABE PARA LA TOS CON MIEL 250 ML PQTE BRONCOLIN JARABE ETIQUETA VERDE 250 ML C0000000
NO000027561000009001236A10618    20160511130000299750714706400209102800005100000000424900000637DAVID PALAFOX SALAS           000029975JARABE EXTRACTO DE PLANTAS PORPOLEO Y MIBRONCOLIPTOS JARABE 250 ML              0000102
NO000027561000009001236A10618    20160511130000299750714706904417102900003200000000311900000637DAVID PALAFOX SALAS           000029975JARABE EXTRACTO DE PLANTAS Y MIEL 240 MLHERBACIL JARABE 240 ML                  0000064
NO000027562000009001236A10619    20160511130000299810714706907654103000001920000000033300000637DAVID PALAFOX SALAS           000029981BRONCOFRESH MIXTOS CHAROLA CON 12 PAQS VBRONCOFRESH MIXTOS CHAROLA CON 12 PAQS V0000000
NO000027562000009001236A10619    20160511130000299810714706906817103100002000000000037200000637DAVID PALAFOX SALAS           000029981BRONCOLIN CARAMELOS MIXTOS CHAROLA 20 PABRONCOLIN CARAMELOS MIXTOS CHAROLA 20 PA0000000
NO00002756300000900123368        20160511130000302407501380704005069800006020000000064402000637DAVID PALAFOX SALAS           000030240GEL ANTIBACTERIAL 110-125 ML            GEL ANTIBACTERIAL 110-125 ML            0000000
NO000027564000009000866FC5128    20160511130000304257502223112155059900013860000000206301000637DAVID PALAFOX SALAS           000030425ACIDO ASCORBICO 1 G 10 COMP EFERV C/SABOACIDO ASCORBICO 1 G 10 COMP EFERV C/SABO0000000
NO000027564000009000866FC5128    20160511130000304257502223112223066500006600000000284401000637DAVID PALAFOX SALAS           000030425LACTULOSA JBE 125 ML                    LACTULOSA JBE 125 ML                    0000000
NO00002756500000900123533        20160511130000303757502005861028031600009790000000227701000637DAVID PALAFOX SALAS           000030375PANCREATINA/EXTRACTO BILIS 30 GRAG      PANCREATINA/EXTRACTO BILIS 30 GRAG      0000000
NO00002756500000900123533        20160511130000303757502005865071036500003000000000139201000637DAVID PALAFOX SALAS           000030375TRIMETOPRIMA/SULFAMET/GUAIF 800 MG SUSP TRIMETOPRIMA/SULFAMET/GUAIF 800 MG SUSP 0000000
NO000027566000009001224B756      20160511130000304357501258205474066000004850000000630001000637DAVID PALAFOX SALAS           000030435TIBOLONA 2.5 MG 30 TABS                 TIBOLONA 2.5 MG 30 TABS                 0000000
NO0000275670000090012031291      20160511130000304337503008344488096800006600000000277601000637DAVID PALAFOX SALAS           000030433LACTOBACILOS ACIDOFILOS 350 MG 20 CAPS  LACTOBACILOS ACIDOFILOS 350 MG 20 CAPS  0000000
NO0000275680000090012341294      20160512130000304367502240450070058600052000000000110001000637DAVID PALAFOX SALAS           000030436LOSARTAN POTASICO 50 MG 30 TABL         LOSARTAN POTASICO 50 MG 30 TABL         0000000
NO000027569000009000392IQ44648   20160512130000304157501571200231015400017640000000072001000637DAVID PALAFOX SALAS           000030415DEXTROMETORFANO 300 MG/100 ML JBE 120 MLDEXTROMETORFANO 300 MG/100 ML JBE 120 ML0000000
NO000027569000009000392IQ44648   20160512130000304157501571202426032800029400000000057001000637DAVID PALAFOX SALAS           000030415PREDNISONA 5 MG 20 TABS                 PREDNISONA 5 MG 20 TABS                 0000000
NO000027570000009000793FG550026  20160512130000304237502009740497043700007360000000181801000637DAVID PALAFOX SALAS           000030423AMOXICILINA/AC CLAVULANICO 200/28.5 MG SAMOXICILINA/AC CLAVULANICO 200/28.5 MG S0000000
NO000027571000009000816127       20160513130000303737502227870259017900009000000000185401000637DAVID PALAFOX SALAS           000030373DOXICICLINA 100 MG 10 CAPS              DOXICICLINA 100 MG 10 CAPS              0000000
NO000027571000009000816127       20160513130000303737501258205900097800007120000000316310000637DAVID PALAFOX SALAS           000030373DICLOFENACO,B1,B6,B12 75/100/100/1 MG SODICLOFENACO,B1,B6,B12 75/100/100/1 MG SO0000000
NO000027572000009000419FGI20726  20160513130000304187503004908615031700027000000000041001000637DAVID PALAFOX SALAS           000030418PARACETAMOL PED 100 MG GTS ORALES 15 ML PARACETAMOL PED 100 MG GTS ORALES 15 ML 0000000
NO000027573000009000915A86       20160513130000304267503012924102038500035700000000087505000637DAVID PALAFOX SALAS           000030426ALCANFOR/MENTOL/EUCALIPTO UNG           ALCANFOR/MENTOL/EUCALIPTO UNG           0000000
NO000027574000009000376A281      20160516130000304097503008434349077700009760000000529001000637DAVID PALAFOX SALAS           000030409VITAMINA B1/LEVADURA CERVEZA/CAFEINA 10 VITAMINA B1/LEVADURA CERVEZA/CAFEINA 10 0000000
NO000027575000009000376A282      20160516130000304097503008434363085000003600000000529010000637DAVID PALAFOX SALAS           000030409ISOFLAVONAS D/SOYA/VITAMINAS/MINERALES 1ISOFLAVONAS D/SOYA/VITAMINAS/MINERALES 10000000
NO000027576000009000376A283      20160516130000304097503008434103078800002880000000730002000637DAVID PALAFOX SALAS           000030409CALENDULA/GLICERINA GEL 65 G            CALENDULA/GLICERINA GEL 65 G            0000000
NO0000275770000090004142414      20160516130000304177501075715927002300030400000000042001000637DAVID PALAFOX SALAS           000030417ALBENDAZOL 200 MG 6 TABS                ALBENDAZOL 200 MG 6 TABS                0000000
NO0000275770000090004142414      20160516130000304170000075006433026700004500000000055001000637DAVID PALAFOX SALAS           000030417METOCLOPRAMIDA 400 MG GTS 20 ML         METOCLOPRAMIDA 400 MG GTS 20 ML         0000000
NO000027578000009000257410009239120160517130000304077501277078325052000011000000000119001000637DAVID PALAFOX SALAS           000030407SUERO ORAL MANZANA 28.3 G 4 SOBRES      SUERO ORAL MANZANA 28.3 G 4 SOBRES      0000000
NO000027578000009000257410009239120160517130000304077501277078332071000006600000000119001000637DAVID PALAFOX SALAS           000030407SUERO ORAL NARANJA 28.3 G 4 SOBRES      SUERO ORAL NARANJA 28.3 G 4 SOBRES      0000000
NO000027579000009001236A10668    20160517130000304590714706907654103000001920000000033300000637DAVID PALAFOX SALAS           000030459BRONCOFRESH MIXTOS CHAROLA CON 12 PAQS VBRONCOFRESH MIXTOS CHAROLA CON 12 PAQS V0000000
NO000027579000009001236A10668    20160517130000304590714706906817103100002000000000037200000637DAVID PALAFOX SALAS           000030459BRONCOLIN CARAMELOS MIXTOS CHAROLA 20 PABRONCOLIN CARAMELOS MIXTOS CHAROLA 20 PA0000000
NO000027580000009000820F351493   20160517130000303720785118753528000700000300000000245101000637DAVID PALAFOX SALAS           000030372ACICLOVIR 4 MG SUSP 125 ML              LESACLOR 200 MG/5 ML SUSP 125 ML        0000000
NO000027580000009000820F351493   20160517130000303727502208892355001500001950000000043301000637DAVID PALAFOX SALAS           000030372ACIDO FOLICO 5 MG 20 TABS               CILOCID 5 MG 20 TABS (BRULUAGSA)        0000000
NO000027580000009000820F351493   20160517130000303727502009740268003400000240000000117701000637DAVID PALAFOX SALAS           000030372AMBROXOL/DEXTROMETORFANO AD 225/225 MG JOXOLBRUL ADULTO JBE 120 ML ADUL (BRULUAR0000000
NO000027580000009000820F351493   20160517130000303727501537105471003500000320000000109901000637DAVID PALAFOX SALAS           000030372AMBROXOL/DEXTROMETORFANO INF 150/113 MG OXOLBRUL INFANTIL 120 ML (BRULUART)     0000000
NO000027580000009000820F351493   20160517130000303727502208892324009500000420000000128701000637DAVID PALAFOX SALAS           000030372CEFALEXINA 250 MG/5 ML SUSP 100 ML      ARLEXEN 250MG/5ML SUSPENSION P/100ML (AR0000000
NO000027580000009000820F351493   20160517130000303727501537101954011900000200000000091201000637DAVID PALAFOX SALAS           000030372CLORFENAMINA 50 MG JBE 120 ML           CLORFENAMINA 50 MG JBE 120 ML (BIOMEP)  0000000
NO000027580000009000820F351493   20160517130000303727503001007083016400000080000000133201000637DAVID PALAFOX SALAS           000030372DICLOXACILINA 125 MG SUSP 60 ML         DICLOXACILINA 125 MG SUSP 60 ML         0000000
NO000027580000009000820F351493   20160517130000303727501672600732020900001070000000088801000637DAVID PALAFOX SALAS           000030372FUMARATO FERROSO 200 MG 50 TABL         GESTAFERRON 200 MG 50 TAB (ARLEX)       0000000
NO000027580000009000820F351493   20160517130000303727502238910197034200000120000000183801000637DAVID PALAFOX SALAS           000030372SALBUTAMOL 100 MCG SPRAY 200 DOSISVENTOLBRESALTEC 100 MCG SPRAY 200 DOSIS       0000000
NO000027580000009000820F351493   20160517130000303727501314704156061500001840000000167001000637DAVID PALAFOX SALAS           000030372GLICEROL ADULTO 2.632 G 10 SUPSSENOSIAINSENOSIAIN ADULTO 2.632 G 10 SUPS        0000000
NO000027580000009000820F351493   20160517130000303727502213040987063500001120000000164801000637DAVID PALAFOX SALAS           000030372LEVONORGESTREL 0.15 MG/ETIMILESTRADIOL 0LETINNOV 21 0.15 MG 0.3 MG 21 GRAGS (FH)0000000
NO000027580000009000820F351493   20160517130000303727502209850910070100001960000000238701000637DAVID PALAFOX SALAS           000030372LAMOTRIGINA 100 MG 28 TABS DISP         LAMOTRIGINA 100 MG 28 TABS (SOLARA)     0000000
NO000027580000009000820F351493   20160517130000303720785118752927078400000030000000298401000637DAVID PALAFOX SALAS           000030372BENCIDAMINA 150 MG/100 ML SOL 360 ML    BENIFLANT 150 MG/100 ML SOL 360 ML (LOEF0000000
NO000027581000009000820F351494   20160517130000303720785118753528000700007700000000245101000637DAVID PALAFOX SALAS           000030372ACICLOVIR 4 MG SUSP 125 ML              LESACLOR 200 MG/5 ML SUSP 125 ML        0000000
NO000027581000009000820F351494   20160517130000303727502208892355001500022050000000043301000637DAVID PALAFOX SALAS           000030372ACIDO FOLICO 5 MG 20 TABS               CILOCID 5 MG 20 TABS (BRULUAGSA)        0000000
NO000027581000009000820F351494   20160517130000303727502009740268003400020400000000117701000637DAVID PALAFOX SALAS           000030372AMBROXOL/DEXTROMETORFANO AD 225/225 MG JOXOLBRUL ADULTO JBE 120 ML ADUL (BRULUAR0000000
NO000027581000009000820F351494   20160517130000303727501537105471003500008800000000109901000637DAVID PALAFOX SALAS           000030372AMBROXOL/DEXTROMETORFANO INF 150/113 MG OXOLBRUL INFANTIL 120 ML (BRULUART)     0000000
NO000027581000009000820F351494   20160517130000303727502208892324009500028800000000128701000637DAVID PALAFOX SALAS           000030372CEFALEXINA 250 MG/5 ML SUSP 100 ML      ARLEXEN 250MG/5ML SUSPENSION P/100ML (AR0000000
NO000027581000009000820F351494   20160517130000303727501537101954011900004000000000091201000637DAVID PALAFOX SALAS           000030372CLORFENAMINA 50 MG JBE 120 ML           CLORFENAMINA 50 MG JBE 120 ML (BIOMEP)  0000000
NO000027581000009000820F351494   20160517130000303727501537102845016300078750000000077401000637DAVID PALAFOX SALAS           000030372DICLOFENACO 100 MG 20 GRAG              NEDICLON 100 MG 20 GRAG (BRULUART)      0000000
NO000027581000009000820F351494   20160517130000303727503001007083016400001800000000133201000637DAVID PALAFOX SALAS           000030372DICLOXACILINA 125 MG SUSP 60 ML         DICLOXACILINA 125 MG SUSP 60 ML         0000000
NO000027581000009000820F351494   20160517130000303727502216791923026100016000000000076401000637DAVID PALAFOX SALAS           000030372MELOXICAM 15 MG 10 TABL                 RETOFLAM 15 MG 10 TABS (ULTRA)          0000000
NO000027581000009000820F351494   20160517130000303727502211780069028000010560000000222701000637DAVID PALAFOX SALAS           000030372METRONIDAZOL/DIYODOHIDROXIQUINOLEINA 125STOMFFLER PLUS 250 MG 120 ML            0000000
NO000027581000009000820F351494   20160517130000303727502001165045032500006000000000178901000637DAVID PALAFOX SALAS           000030372PIROXICAM GEL 60 G                      DOLZYCAM GEL 60 GRS (SONS)              0000000
NO000027581000009000820F351494   20160517130000303727502238910197034200033000000000183801000637DAVID PALAFOX SALAS           000030372SALBUTAMOL 100 MCG SPRAY 200 DOSISVENTOLBRESALTEC 100 MCG SPRAY 200 DOSIS       0000000
NO000027581000009000820F351494   20160517130000303727501537165468041300007800000000134101000637DAVID PALAFOX SALAS           000030372AMBROXOL/SALBUTAMOL 0.150 G/0.40 SOL 120ADRIBEL SOL 120 ML (BRULUART)           0000000
NO000027581000009000820F351494   20160517130000303720785118752347043000017500000000655301000637DAVID PALAFOX SALAS           000030372CLARITROMICINA 250 MG SUSP 60 ML        KROBICIN SUSP 250 MG (MAVI)             0000000
NO000027581000009000820F351494   20160517130000303727502211784241049900002880000000288701000637DAVID PALAFOX SALAS           000030372DICLOFENACO 180 MG JBE SUSP 120 ML      DOFLATEM 0.18 G SUSP 120 ML             0000000
NO000027581000009000820F351494   20160517130000303727502211782018054600003750000000106301000637DAVID PALAFOX SALAS           000030372NITROFURAL 6.0 MG 6 OVULOS              PROBIZAL C/6 OVULOS (LOEFFLER)          0000000
NO000027581000009000820F351494   20160517130000303727502009741296057000016000000000529701000637DAVID PALAFOX SALAS           000030372CEFUROXIMA 250 MG SUSP 50 ML            CEFAGEN 250 MG SUSP 50 ML (MAVER)       0000000
NO000027581000009000820F351494   20160517130000303727502211783657057900005000000000426501000637DAVID PALAFOX SALAS           000030372TERBINAFINA 250 MG 7 TAB                ERBITRAX-T 250 MG 7 TAB                 0000000
NO000027581000009000820F351494   20160517130000303727501314704156061500002000000000167001000637DAVID PALAFOX SALAS           000030372GLICEROL ADULTO 2.632 G 10 SUPSSENOSIAINSENOSIAIN ADULTO 2.632 G 10 SUPS        0000000
NO000027581000009000820F351494   20160517130000303727502009741487063200014400000000353101000637DAVID PALAFOX SALAS           000030372CLONIXINATO DE LISINA/BUTILHIOSC 250MG/1PRESTODOL COMPUESTO 250 MG/10 MG 10 TAB 0000000
NO000027581000009000820F351494   20160517130000303727502213040987063500028800000000164801000637DAVID PALAFOX SALAS           000030372LEVONORGESTREL 0.15 MG/ETIMILESTRADIOL 0LETINNOV 21 0.15 MG 0.3 MG 21 GRAGS (FH)0000000
NO000027581000009000820F351494   20160517130000303727501836009807074700004200000000200301000637DAVID PALAFOX SALAS           000030372BUTILHIOSCINA 2 MG/PARACETAMOL 100 MG SOPRECICOL 2 MG/100 MG SOL 20 ML          0000000
NO000027581000009000820F351494   20160517130000303720785118752927078400009250000000298401000637DAVID PALAFOX SALAS           000030372BENCIDAMINA 150 MG/100 ML SOL 360 ML    BENIFLANT 150 MG/100 ML SOL 360 ML (LOEF0000000
NO000027581000009000820F351494   20160517130000303727502211781752096200003750000000130201000637DAVID PALAFOX SALAS           000030372PARACETAMOL 300 MG 6 SUPS               PIREMOL 300 MG 6 SUPS                   0000000
NO000027582000009000820F351495   20160517130000303727502208891228010100030000000000203801000637DAVID PALAFOX SALAS           000030372CEFTRIAXONA 1G SOL INY IV O IM          TRIXONA IM 1 G SOL INY DE 3.5 ML (BRULUA0000000
NO00002758300000900119457        20160518130000305267501472600123018800040190000000139001000637DAVID PALAFOX SALAS           000030526EUCALIPTO/MIEL/GUAYACOL/GORDOLOBO/MENTOLEUCALIPTO/MIEL/GUAYACOL/GORDOLOBO/MENTOL0000000
NO00002758300000900119457        20160518130000305267501472600284066900006250000000230001000637DAVID PALAFOX SALAS           000030526JARABE MIEL DE AGAVE PARA DIABETICOS 240JARABE MIEL DE AGAVE PARA DIABETICOS 2400000000
NO00002758400000900082169089     20160519130000304727503002772737103300005880000000350000000637DAVID PALAFOX SALAS           000030472KETOROLACO GEL 2% TUBO 30 GRS           KETOROLACO GEL 2% TUBO 30 GRS           0000000
NO000027585000009000759B1582     20160519130000304227502215220134063600004000000000460001000637DAVID PALAFOX SALAS           000030422LISADOS BACTERIANOS 5 AMP ORALES 3 ML   LISADOS BACTERIANOS 5 AMP ORALES 3 ML   0000000
NO000027586000009001131B70223    20160519130000305256939663900072061400003630000000220305000637DAVID PALAFOX SALAS           000030525TERMOMETRO DIGITAL                      TERMOMETRO DIGITAL                      0000000
NO000027587000009000670403414386820160520130000305217501349022539009900001200000000220401000637DAVID PALAFOX SALAS           000030521CEFTAZIDIMA 1 G SOL INY 1 AMP 3 ML      CEFTAZIDIMA 1 G SOL INY 1 AMP 3 ML      0000000
NO000027588000009000670403414386720160520130000305217501349015081006100025200000000076701000637DAVID PALAFOX SALAS           000030521BENCILPENICILINA COMB 1200 000 UI 1 AMP BENCILPENICILINA COMB 1200 000 UI 1 AMP 0000000
NO000027589000009000670403414385620160520130000305217501349010222004000013200000000210001000637DAVID PALAFOX SALAS           000030521AMOXICILINA/AC CLAVULANICO 250/62.5 MG SAMOXICILINA/AC CLAVULANICO 250/62.5 MG S0000000
NO000027589000009000670403414385620160520130000305217501349021037005000010800000000088601000637DAVID PALAFOX SALAS           000030521AMPICILINA 1 G SOL INY 1 AMP 5 ML       AMPICILINA 1 G SOL INY 1 AMP 5 ML       0000000
NO000027589000009000670403414385620160520130000305217501349022027005400008760000000149901000637DAVID PALAFOX SALAS           000030521AMPICILINA 1 GR 10 TABS                 AMPICILINA 1 GR 10 TABS                 0000000
NO000027589000009000670403414385620160520130000305217501349025073006500019800000000084301000637DAVID PALAFOX SALAS           000030521BENCILPENICILINA BENZATINA 1200 000 UI 1BENCILPENICILINA BENZATINA 1200 000 UI 10000000
NO000027589000009000670403414385620160520130000305217501349022539009900000590000000220401000637DAVID PALAFOX SALAS           000030521CEFTAZIDIMA 1 G SOL INY 1 AMP 3 ML      CEFTAZIDIMA 1 G SOL INY 1 AMP 3 ML      0000000
NO000027589000009000670403414385620160520130000305217501349025042016200018000000000082801000637DAVID PALAFOX SALAS           000030521DICLOFENACO GI 75 MG 3 ML 2 AMPS        DICLOFENACO GI 75 MG 3 ML 2 AMPS        0000000
NO000027589000009000670403414385620160520130000305217501349024458024400015840000000088001000637DAVID PALAFOX SALAS           000030521KETOROLACO TROMETAMINA 30 MG 3 AMP 1 ML KETOROLACO TROMETAMINA 30 MG 3 AMP 1 ML 0000000
NO000027589000009000670403414385620160520130000305217501349020115044600009000000000063801000637DAVID PALAFOX SALAS           000030521ACIDO ACETILSALICILICO 300 MG 20 TABL EFACIDO ACETILSALICILICO 300 MG 20 TABL EF0000000
NO000027589000009000670403414385620160520130000305217501349021075062200023520000000204101000637DAVID PALAFOX SALAS           000030521DICLOXACILINA 500 MG 20 CAPS            DICLOXACILINA 500 MG 20 CAPS            0000000
NO000027589000009000670403414385620160520130000305217501349028975088900004000000000462201000637DAVID PALAFOX SALAS           000030521MONTELUKAST 5 MG 20 TABL MAST           MONTELUKAST 5 MG 20 TABL MAST           0000000
NO000027589000009000670403414385620160520130000305217501349020856102700007200000000279901000637DAVID PALAFOX SALAS           000030521TRAMADOL 100 MG/ML GOTAS ORALES 10 ML   TRAMADOL 100 MG/ML GOTAS ORALES 10 ML   0000000
NO00002759000000900049420143946  20160520130000303437506272400461047700010030000000030205000637DAVID PALAFOX SALAS           000030343GLICERINA PURA                          GLICERINA PURA                          0000000
NO00002759000000900049420143946  20160520130000303437506272401451047800016350000000031505000637DAVID PALAFOX SALAS           000030343BICARBONATO DE SODIO 100 GRS            BICARBONATO DE SODIO 100 GRS            0000000
NO00002759000000900049420143946  20160520130000303437506272400454048300009500000000034505000637DAVID PALAFOX SALAS           000030343ACEITE DE RICINO                        ACEITE DE RICINO                        0000000
NO00002759000000900049420143946  20160520130000303437506272400812054000006750000000094205000637DAVID PALAFOX SALAS           000030343RASTRILLO DESECHABLE HOMBRE 2 PZAS      RASTRILLO DESECHABLE HOMBRE 2 PZAS      0000000
NO00002759000000900049420143946  20160520130000303437501072629012055100003000000000031505000637DAVID PALAFOX SALAS           000030343CEPILLO DENTAL ADUL                     CEPILLO DENTAL ADUL                     0000000
NO00002759000000900049420143946  20160520130000303437501361180064059600007860000000095002000637DAVID PALAFOX SALAS           000030343VASELINA BEBE 60 G                      VASELINA BEBE 60 G                      0000000
NO00002759000000900049420143946  20160520130000303437506272401772068200032000000000029405000637DAVID PALAFOX SALAS           000030343CURITAS 10 PZAS                         CURITAS 10 PZAS                         0000000
NO00002759000000900049420143946  20160520130000303437501361180132068900010500000000146105000637DAVID PALAFOX SALAS           000030343REPELENTE INSECTOS GEL 150 ML           REPELENTE INSECTOS GEL 150 ML           0000000
NO000027591000009000168A90003672 20160520130000305437501672690900103400030000000000180000000637DAVID PALAFOX SALAS           000030543TERBINAFINA 1% CREMA 30 G               FINMILEX 1% (1G/100G) CREMA 30 G        0000000
NO000027592000009000419FGI20799  20160520130000305187502226290249023100012260000000200001000637DAVID PALAFOX SALAS           000030518ITRACONAZOL 100 MG 15 TABS O CAPS       ITRACONAZOL 100 MG 15 TABS O CAPS       0000000
NO000027593000009000419FGI20801  20160520130000305187503004908783010500016000000000070001000637DAVID PALAFOX SALAS           000030518CIPROFLOXACINO 250 MG 8 TABS            CIPROFLOXACINO 250 MG 8 TABS            0000000
NO000027594000009000426B8928     20160520130000305197502254000339058700016000000000180001000637DAVID PALAFOX SALAS           000030519SERTRALINA 50 MG 14 TABL                SERTRALINA 50 MG 14 TABL                0000000
