NO000027555000009000793FG546915  20160506130000303130780083144302065000001260000000133301000637DAVID PALAFOX SALAS           000030313OXIMETAZOLINA ADUL 50 MG SOL NASAL 20 ML                                        0000000
NO000027556000009000793FG549779  20160506130000303570785118753528000700008000000000278301000637DAVID PALAFOX SALAS           000030357ACICLOVIR 4 MG SUSP 125 ML              LESACLOR SUSP 125 ML (MAVI)             0000000
NO000027556000009000793FG549779  20160506130000303577501537162214003100005760000000132301000637DAVID PALAFOX SALAS           000030357AMBROXOL/CLEMBUTEROL 150/0.1 MG SOL 120 OXOLVAN C 150 MG/0.1 MG 120ML (BRULUART)0000000
NO000027556000009000793FG549779  20160506130000303577502009740268003400020400000000136801000637DAVID PALAFOX SALAS           000030357AMBROXOL/DEXTROMETORFANO AD 225/225 MG JCOBADEX ADULTO 225 MG/225 MG SUSP 120 ML0000000
NO000027556000009000793FG549779  20160506130000303577502211782018054600002500000000120101000637DAVID PALAFOX SALAS           000030357NITROFURAL 6.0 MG 6 OVULOS              PROBIZAL C/6 OVULOS (LOEFFLER)          0000000
NO000027556000009000793FG549779  20160506130000303570785118753917061100005600000000090301000637DAVID PALAFOX SALAS           000030357GLIMEPIRIDA 2 MG 30 TABL                GLEURIX 2 MG 30 TABS                    0000000
NO000027556000009000793FG549779  20160506130000303570785118752927078400003250000000338801000637DAVID PALAFOX SALAS           000030357BENCIDAMINA 150 MG/100 ML SOL 360 ML    ARTROBEN 150 MG/100 ML SOL 360 ML (MAVI)0000000
NO0000275570000090004488780      20160506130000300027501620329555021400002160000000035501000637DAVID PALAFOX SALAS           000030002GENTAMICINA INF 20 MG SOL INY 1 AMP 2 MLGENTAMICINA INF 20 MG SOL INY 1 AMP 2 ML0000000
NO0000275570000090004488780      20160506130000300027501620339530021600006720000000180001000637DAVID PALAFOX SALAS           000030002GENTAMICINA 160 MG 5 AMP 2 ML           GENTAMICINA 160 MG 5 AMP 2 ML           0000000
NO000027558000009001074A4617     20160509130000302347503181043161075500010010000000170002000637DAVID PALAFOX SALAS           000030234GLUCOSAMINA CONDROITINA BELLADONA GEL TUGLUCOSAMINA CONDROITINA BELLADONA GEL TU0000000
NO000027559000009000168A90003479 20160509130000301697501672600732020900005390000000091701000637DAVID PALAFOX SALAS           000030169FUMARATO FERROSO 200 MG 50 TABL         FUMARATO FERROSO 200 MG 50 TABL         0000000
NO000027560000009001236A10617    20160511130000299740714706100109313400000960000000634000000637DAVID PALAFOX SALAS           000029974JARABE PARA LA TOS CON MIEL 250 ML PQTE BRONCOLIN JARABE ETIQUETA AZUL 250 ML C/0000000
NO000027560000009001236A10617    20160511130000299740714706200700313500000720000000741000000637DAVID PALAFOX SALAS           000029974JARABE PARA LA TOS CON MIEL 250 ML PQTE BRONCOLIN JARABE ETIQUETA VERDE 250 ML C0000000
NO000027561000009001236A10618    20160511130000299750714706400209102800005100000000424901000637DAVID PALAFOX SALAS           000029975JARABE EXTRACTO DE PLANTAS PORPOLEO Y MIBRONCOLIPTOS JARABE 250 ML              0000102
NO000027561000009001236A10618    20160511130000299750714706904417102900003200000000311910000637DAVID PALAFOX SALAS           000029975JARABE EXTRACTO DE PLANTAS Y MIEL 240 MLHERBACIL JARABE 240 ML                  0000064
NO000027562000009001236A10619    20160511130000299810714706907654103000001920000000033310000637DAVID PALAFOX SALAS           000029981BRONCOFRESH MIXTOS CHAROLA CON 12 PAQS VBRONCOFRESH MIXTOS CHAROLA CON 12 PAQS V0000000
NO000027562000009001236A10619    20160511130000299810714706906817103100002000000000037210000637DAVID PALAFOX SALAS           000029981BRONCOLIN CARAMELOS MIXTOS CHAROLA 20 PABRONCOLIN CARAMELOS MIXTOS CHAROLA 20 PA0000000
NO00002756300000900123368        20160511130000302407501380704005069800006020000000064402000637DAVID PALAFOX SALAS           000030240GEL ANTIBACTERIAL 110-125 ML            GEL ANTIBACTERIAL 110-125 ML            0000000
NO000027564000009000866FC5128    20160511130000304257502223112155059900013860000000206301000637DAVID PALAFOX SALAS           000030425ACIDO ASCORBICO 1 G 10 COMP EFERV C/SABOACIDO ASCORBICO 1 G 10 COMP EFERV C/SABO0000000
NO000027564000009000866FC5128    20160511130000304257502223112223066500006600000000284401000637DAVID PALAFOX SALAS           000030425LACTULOSA JBE 125 ML                    LACTULOSA JBE 125 ML                    0000000
NO00002756500000900123533        20160511130000303757502005861028031600009790000000227701000637DAVID PALAFOX SALAS           000030375PANCREATINA/EXTRACTO BILIS 30 GRAG      PANCREATINA/EXTRACTO BILIS 30 GRAG      0000000
NO00002756500000900123533        20160511130000303757502005865071036500003000000000139201000637DAVID PALAFOX SALAS           000030375TRIMETOPRIMA/SULFAMET/GUAIF 800 MG SUSP TRIMETOPRIMA/SULFAMET/GUAIF 800 MG SUSP 0000000
NO000027566000009001224B756      20160511130000304357501258205474066000004850000000630001000637DAVID PALAFOX SALAS           000030435TIBOLONA 2.5 MG 30 TABS                 TIBOLONA 2.5 MG 30 TABS                 0000000
NO0000275670000090012031291      20160511130000304337503008344488096800006600000000277601000637DAVID PALAFOX SALAS           000030433LACTOBACILOS ACIDOFILOS 350 MG 20 CAPS  LACTOBACILOS ACIDOFILOS 350 MG 20 CAPS  0000000
NO0000275680000090012341294      20160512130000304367502240450070058600052000000000110001000637DAVID PALAFOX SALAS           000030436LOSARTAN POTASICO 50 MG 30 TABL         LOSARTAN POTASICO 50 MG 30 TABL         0000000
NO000027569000009000392IQ44648   20160512130000304157501571200231015400017640000000072001000637DAVID PALAFOX SALAS           000030415DEXTROMETORFANO 300 MG/100 ML JBE 120 MLDEXTROMETORFANO 300 MG/100 ML JBE 120 ML0000000
NO000027569000009000392IQ44648   20160512130000304157501571202426032800029400000000057001000637DAVID PALAFOX SALAS           000030415PREDNISONA 5 MG 20 TABS                 PREDNISONA 5 MG 20 TABS                 0000000
NO000027570000009000793FG550026  20160512130000304237502009740497043700007360000000181801000637DAVID PALAFOX SALAS           000030423AMOXICILINA/AC CLAVULANICO 200/28.5 MG SAMOXICILINA/AC CLAVULANICO 200/28.5 MG S0000000
NO000027571000009000816127       20160513130000303737502227870259017900009000000000185401000637DAVID PALAFOX SALAS           000030373DOXICICLINA 100 MG 10 CAPS              DOXICICLINA 100 MG 10 CAPS              0000000
NO000027571000009000816127       20160513130000303737501258205900097800007120000000316310000637DAVID PALAFOX SALAS           000030373DICLOFENACO,B1,B6,B12 75/100/100/1 MG SODICLOFENACO,B1,B6,B12 75/100/100/1 MG SO0000000
NO000027572000009000419FGI20726  20160513130000304187503004908615031700027000000000041001000637DAVID PALAFOX SALAS           000030418PARACETAMOL PED 100 MG GTS ORALES 15 ML PARACETAMOL PED 100 MG GTS ORALES 15 ML 0000000
NO000027573000009000915A86       20160513130000304267503012924102038500035700000000087505000637DAVID PALAFOX SALAS           000030426ALCANFOR/MENTOL/EUCALIPTO UNG           ALCANFOR/MENTOL/EUCALIPTO UNG           0000000
NO000027574000009000376A281      20160516130000304097503008434349077700009760000000529001000637DAVID PALAFOX SALAS           000030409VITAMINA B1/LEVADURA CERVEZA/CAFEINA 10 VITAMINA B1/LEVADURA CERVEZA/CAFEINA 10 0000000
NO000027575000009000376A282      20160516130000304097503008434363085000003600000000529010000637DAVID PALAFOX SALAS           000030409ISOFLAVONAS D/SOYA/VITAMINAS/MINERALES 1ISOFLAVONAS D/SOYA/VITAMINAS/MINERALES 10000000
NO000027576000009000376A283      20160516130000304097503008434103078800002880000000730002000637DAVID PALAFOX SALAS           000030409CALENDULA/GLICERINA GEL 65 G            CALENDULA/GLICERINA GEL 65 G            0000000
NO0000275770000090004142414      20160516130000304177501075715927002300030400000000042001000637DAVID PALAFOX SALAS           000030417ALBENDAZOL 200 MG 6 TABS                ALBENDAZOL 200 MG 6 TABS                0000000
NO0000275770000090004142414      20160516130000304170000075006433026700004500000000055001000637DAVID PALAFOX SALAS           000030417METOCLOPRAMIDA 400 MG GTS 20 ML         METOCLOPRAMIDA 400 MG GTS 20 ML         0000000
NO000027578000009000257410009239120160517130000304077501277078325052000011000000000119001000637DAVID PALAFOX SALAS           000030407SUERO ORAL MANZANA 28.3 G 4 SOBRES      SUERO ORAL MANZANA 28.3 G 4 SOBRES      0000000
NO000027578000009000257410009239120160517130000304077501277078332071000006600000000119001000637DAVID PALAFOX SALAS           000030407SUERO ORAL NARANJA 28.3 G 4 SOBRES      SUERO ORAL NARANJA 28.3 G 4 SOBRES      0000000
NO000027579000009001236A10668    20160517130000304590714706907654103000001920000000033310000637DAVID PALAFOX SALAS           000030459BRONCOFRESH MIXTOS CHAROLA CON 12 PAQS VBRONCOFRESH MIXTOS CHAROLA CON 12 PAQS V0000000
NO000027579000009001236A10668    20160517130000304590714706906817103100002000000000037210000637DAVID PALAFOX SALAS           000030459BRONCOLIN CARAMELOS MIXTOS CHAROLA 20 PABRONCOLIN CARAMELOS MIXTOS CHAROLA 20 PA0000000
NO000027580000009000820F351493   20160517130000303720785118753528000700000300000000245101000637DAVID PALAFOX SALAS           000030372ACICLOVIR 4 MG SUSP 125 ML              LESACLOR 200 MG/5 ML SUSP 125 ML        0000000
NO000027580000009000820F351493   20160517130000303727502208892355001500001950000000043301000637DAVID PALAFOX SALAS           000030372ACIDO FOLICO 5 MG 20 TABS               CILOCID 5 MG 20 TABS (BRULUAGSA)        0000000
NO000027580000009000820F351493   20160517130000303727502009740268003400000240000000117701000637DAVID PALAFOX SALAS           000030372AMBROXOL/DEXTROMETORFANO AD 225/225 MG JOXOLBRUL ADULTO JBE 120 ML ADUL (BRULUAR0000000
NO000027580000009000820F351493   20160517130000303727501537105471003500000320000000109901000637DAVID PALAFOX SALAS           000030372AMBROXOL/DEXTROMETORFANO INF 150/113 MG OXOLBRUL INFANTIL 120 ML (BRULUART)     0000000
NO000027580000009000820F351493   20160517130000303727502208892324009500000420000000128701000637DAVID PALAFOX SALAS           000030372CEFALEXINA 250 MG/5 ML SUSP 100 ML      ARLEXEN 250MG/5ML SUSPENSION P/100ML (AR0000000
NO000027580000009000820F351493   20160517130000303727501537101954011900000200000000091201000637DAVID PALAFOX SALAS           000030372CLORFENAMINA 50 MG JBE 120 ML           CLORFENAMINA 50 MG JBE 120 ML (BIOMEP)  0000000
NO000027580000009000820F351493   20160517130000303727503001007083016400000080000000133201000637DAVID PALAFOX SALAS           000030372DICLOXACILINA 125 MG SUSP 60 ML         DICLOXACILINA 125 MG SUSP 60 ML         0000000
NO000027580000009000820F351493   20160517130000303727501672600732020900001070000000088801000637DAVID PALAFOX SALAS           000030372FUMARATO FERROSO 200 MG 50 TABL         GESTAFERRON 200 MG 50 TAB (ARLEX)       0000000
NO000027580000009000820F351493   20160517130000303727502238910197034200000120000000183801000637DAVID PALAFOX SALAS           000030372SALBUTAMOL 100 MCG SPRAY 200 DOSISVENTOLBRESALTEC 100 MCG SPRAY 200 DOSIS       0000000
NO000027580000009000820F351493   20160517130000303727501314704156061500001840000000167001000637DAVID PALAFOX SALAS           000030372GLICEROL ADULTO 2.632 G 10 SUPSSENOSIAINSENOSIAIN ADULTO 2.632 G 10 SUPS        0000000
NO000027580000009000820F351493   20160517130000303727502213040987063500001120000000164801000637DAVID PALAFOX SALAS           000030372LEVONORGESTREL 0.15 MG/ETIMILESTRADIOL 0LETINNOV 21 0.15 MG 0.3 MG 21 GRAGS (FH)0000000
NO000027580000009000820F351493   20160517130000303727502209850910070100001960000000238701000637DAVID PALAFOX SALAS           000030372LAMOTRIGINA 100 MG 28 TABS DISP         LAMOTRIGINA 100 MG 28 TABS (SOLARA)     0000000
NO000027580000009000820F351493   20160517130000303720785118752927078400000030000000298401000637DAVID PALAFOX SALAS           000030372BENCIDAMINA 150 MG/100 ML SOL 360 ML    BENIFLANT 150 MG/100 ML SOL 360 ML (LOEF0000000
NO000027581000009000820F351494   20160517130000303720785118753528000700007700000000245101000637DAVID PALAFOX SALAS           000030372ACICLOVIR 4 MG SUSP 125 ML              LESACLOR 200 MG/5 ML SUSP 125 ML        0000000
NO000027581000009000820F351494   20160517130000303727502208892355001500022050000000043301000637DAVID PALAFOX SALAS           000030372ACIDO FOLICO 5 MG 20 TABS               CILOCID 5 MG 20 TABS (BRULUAGSA)        0000000
NO000027581000009000820F351494   20160517130000303727502009740268003400020400000000117701000637DAVID PALAFOX SALAS           000030372AMBROXOL/DEXTROMETORFANO AD 225/225 MG JOXOLBRUL ADULTO JBE 120 ML ADUL (BRULUAR0000000
NO000027581000009000820F351494   20160517130000303727501537105471003500008800000000109901000637DAVID PALAFOX SALAS           000030372AMBROXOL/DEXTROMETORFANO INF 150/113 MG OXOLBRUL INFANTIL 120 ML (BRULUART)     0000000
NO000027581000009000820F351494   20160517130000303727502208892324009500028800000000128701000637DAVID PALAFOX SALAS           000030372CEFALEXINA 250 MG/5 ML SUSP 100 ML      ARLEXEN 250MG/5ML SUSPENSION P/100ML (AR0000000
NO000027581000009000820F351494   20160517130000303727501537101954011900004000000000091201000637DAVID PALAFOX SALAS           000030372CLORFENAMINA 50 MG JBE 120 ML           CLORFENAMINA 50 MG JBE 120 ML (BIOMEP)  0000000
NO000027581000009000820F351494   20160517130000303727501537102845016300078750000000077401000637DAVID PALAFOX SALAS           000030372DICLOFENACO 100 MG 20 GRAG              NEDICLON 100 MG 20 GRAG (BRULUART)      0000000
NO000027581000009000820F351494   20160517130000303727503001007083016400001800000000133201000637DAVID PALAFOX SALAS           000030372DICLOXACILINA 125 MG SUSP 60 ML         DICLOXACILINA 125 MG SUSP 60 ML         0000000
NO000027581000009000820F351494   20160517130000303727502216791923026100016000000000076401000637DAVID PALAFOX SALAS           000030372MELOXICAM 15 MG 10 TABL                 RETOFLAM 15 MG 10 TABS (ULTRA)          0000000
NO000027581000009000820F351494   20160517130000303727502211780069028000010560000000222701000637DAVID PALAFOX SALAS           000030372METRONIDAZOL/DIYODOHIDROXIQUINOLEINA 125STOMFFLER PLUS 250 MG 120 ML            0000000
NO000027581000009000820F351494   20160517130000303727502001165045032500006000000000178901000637DAVID PALAFOX SALAS           000030372PIROXICAM GEL 60 G                      DOLZYCAM GEL 60 GRS (SONS)              0000000
NO000027581000009000820F351494   20160517130000303727502238910197034200033000000000183801000637DAVID PALAFOX SALAS           000030372SALBUTAMOL 100 MCG SPRAY 200 DOSISVENTOLBRESALTEC 100 MCG SPRAY 200 DOSIS       0000000
NO000027581000009000820F351494   20160517130000303727501537165468041300007800000000134101000637DAVID PALAFOX SALAS           000030372AMBROXOL/SALBUTAMOL 0.150 G/0.40 SOL 120ADRIBEL SOL 120 ML (BRULUART)           0000000
NO000027581000009000820F351494   20160517130000303720785118752347043000017500000000655301000637DAVID PALAFOX SALAS           000030372CLARITROMICINA 250 MG SUSP 60 ML        KROBICIN SUSP 250 MG (MAVI)             0000000
NO000027581000009000820F351494   20160517130000303727502211784241049900002880000000288701000637DAVID PALAFOX SALAS           000030372DICLOFENACO 180 MG JBE SUSP 120 ML      DOFLATEM 0.18 G SUSP 120 ML             0000000
NO000027581000009000820F351494   20160517130000303727502211782018054600003750000000106301000637DAVID PALAFOX SALAS           000030372NITROFURAL 6.0 MG 6 OVULOS              PROBIZAL C/6 OVULOS (LOEFFLER)          0000000
NO000027581000009000820F351494   20160517130000303727502009741296057000016000000000529701000637DAVID PALAFOX SALAS           000030372CEFUROXIMA 250 MG SUSP 50 ML            CEFAGEN 250 MG SUSP 50 ML (MAVER)       0000000
NO000027581000009000820F351494   20160517130000303727502211783657057900005000000000426501000637DAVID PALAFOX SALAS           000030372TERBINAFINA 250 MG 7 TAB                ERBITRAX-T 250 MG 7 TAB                 0000000
NO000027581000009000820F351494   20160517130000303727501314704156061500002000000000167001000637DAVID PALAFOX SALAS           000030372GLICEROL ADULTO 2.632 G 10 SUPSSENOSIAINSENOSIAIN ADULTO 2.632 G 10 SUPS        0000000
NO000027581000009000820F351494   20160517130000303727502009741487063200014400000000353101000637DAVID PALAFOX SALAS           000030372CLONIXINATO DE LISINA/BUTILHIOSC 250MG/1PRESTODOL COMPUESTO 250 MG/10 MG 10 TAB 0000000
NO000027581000009000820F351494   20160517130000303727502213040987063500028800000000164801000637DAVID PALAFOX SALAS           000030372LEVONORGESTREL 0.15 MG/ETIMILESTRADIOL 0LETINNOV 21 0.15 MG 0.3 MG 21 GRAGS (FH)0000000
NO000027581000009000820F351494   20160517130000303727501836009807074700004200000000200301000637DAVID PALAFOX SALAS           000030372BUTILHIOSCINA 2 MG/PARACETAMOL 100 MG SOPRECICOL 2 MG/100 MG SOL 20 ML          0000000
NO000027581000009000820F351494   20160517130000303720785118752927078400009250000000298401000637DAVID PALAFOX SALAS           000030372BENCIDAMINA 150 MG/100 ML SOL 360 ML    BENIFLANT 150 MG/100 ML SOL 360 ML (LOEF0000000
NO000027581000009000820F351494   20160517130000303727502211781752096200003750000000130201000637DAVID PALAFOX SALAS           000030372PARACETAMOL 300 MG 6 SUPS               PIREMOL 300 MG 6 SUPS                   0000000
NO000027582000009000820F351495   20160517130000303727502208891228010100030000000000203801000637DAVID PALAFOX SALAS           000030372CEFTRIAXONA 1G SOL INY IV O IM          TRIXONA IM 1 G SOL INY DE 3.5 ML (BRULUA0000000
NO00002758300000900119457        20160518130000305267501472600123018800040190000000139001000637DAVID PALAFOX SALAS           000030526EUCALIPTO/MIEL/GUAYACOL/GORDOLOBO/MENTOLEUCALIPTO/MIEL/GUAYACOL/GORDOLOBO/MENTOL0000000
NO00002758300000900119457        20160518130000305267501472600284066900006250000000230001000637DAVID PALAFOX SALAS           000030526JARABE MIEL DE AGAVE PARA DIABETICOS 240JARABE MIEL DE AGAVE PARA DIABETICOS 2400000000
NO00002758400000900082169089     20160519130000304727503002772737103300005880000000350001000637DAVID PALAFOX SALAS           000030472KETOROLACO GEL 2% TUBO 30 GRS           KETOROLACO GEL 2% TUBO 30 GRS           0000000
NO000027585000009000759B1582     20160519130000304227502215220134063600004000000000460001000637DAVID PALAFOX SALAS           000030422LISADOS BACTERIANOS 5 AMP ORALES 3 ML   LISADOS BACTERIANOS 5 AMP ORALES 3 ML   0000000
NO000027586000009001131B70223    20160519130000305256939663900072061400003630000000220305000637DAVID PALAFOX SALAS           000030525TERMOMETRO DIGITAL                      TERMOMETRO DIGITAL                      0000000
NO000027587000009000670403414386820160520130000305217501349022539009900001200000000220401000637DAVID PALAFOX SALAS           000030521CEFTAZIDIMA 1 G SOL INY 1 AMP 3 ML      CEFTAZIDIMA 1 G SOL INY 1 AMP 3 ML      0000000
NO000027588000009000670403414386720160520130000305217501349015081006100025200000000076701000637DAVID PALAFOX SALAS           000030521BENCILPENICILINA COMB 1200 000 UI 1 AMP BENCILPENICILINA COMB 1200 000 UI 1 AMP 0000000
NO000027589000009000670403414385620160520130000305217501349010222004000013200000000210001000637DAVID PALAFOX SALAS           000030521AMOXICILINA/AC CLAVULANICO 250/62.5 MG SAMOXICILINA/AC CLAVULANICO 250/62.5 MG S0000000
NO000027589000009000670403414385620160520130000305217501349021037005000010800000000088601000637DAVID PALAFOX SALAS           000030521AMPICILINA 1 G SOL INY 1 AMP 5 ML       AMPICILINA 1 G SOL INY 1 AMP 5 ML       0000000
NO000027589000009000670403414385620160520130000305217501349022027005400008760000000149901000637DAVID PALAFOX SALAS           000030521AMPICILINA 1 GR 10 TABS                 AMPICILINA 1 GR 10 TABS                 0000000
NO000027589000009000670403414385620160520130000305217501349025073006500019800000000084301000637DAVID PALAFOX SALAS           000030521BENCILPENICILINA BENZATINA 1200 000 UI 1BENCILPENICILINA BENZATINA 1200 000 UI 10000000
NO000027589000009000670403414385620160520130000305217501349022539009900000590000000220401000637DAVID PALAFOX SALAS           000030521CEFTAZIDIMA 1 G SOL INY 1 AMP 3 ML      CEFTAZIDIMA 1 G SOL INY 1 AMP 3 ML      0000000
NO000027589000009000670403414385620160520130000305217501349025042016200018000000000082801000637DAVID PALAFOX SALAS           000030521DICLOFENACO GI 75 MG 3 ML 2 AMPS        DICLOFENACO GI 75 MG 3 ML 2 AMPS        0000000
NO000027589000009000670403414385620160520130000305217501349024458024400015840000000088001000637DAVID PALAFOX SALAS           000030521KETOROLACO TROMETAMINA 30 MG 3 AMP 1 ML KETOROLACO TROMETAMINA 30 MG 3 AMP 1 ML 0000000
NO000027589000009000670403414385620160520130000305217501349020115044600009000000000063801000637DAVID PALAFOX SALAS           000030521ACIDO ACETILSALICILICO 300 MG 20 TABL EFACIDO ACETILSALICILICO 300 MG 20 TABL EF0000000
NO000027589000009000670403414385620160520130000305217501349021075062200023520000000204101000637DAVID PALAFOX SALAS           000030521DICLOXACILINA 500 MG 20 CAPS            DICLOXACILINA 500 MG 20 CAPS            0000000
NO000027589000009000670403414385620160520130000305217501349028975088900004000000000462201000637DAVID PALAFOX SALAS           000030521MONTELUKAST 5 MG 20 TABL MAST           MONTELUKAST 5 MG 20 TABL MAST           0000000
NO000027589000009000670403414385620160520130000305217501349020856102700007200000000279901000637DAVID PALAFOX SALAS           000030521TRAMADOL 100 MG/ML GOTAS ORALES 10 ML   TRAMADOL 100 MG/ML GOTAS ORALES 10 ML   0000000
NO00002759000000900049420143946  20160520130000303437506272400461047700010030000000030205000637DAVID PALAFOX SALAS           000030343GLICERINA PURA                          GLICERINA PURA                          0000000
NO00002759000000900049420143946  20160520130000303437506272401451047800016350000000031505000637DAVID PALAFOX SALAS           000030343BICARBONATO DE SODIO 100 GRS            BICARBONATO DE SODIO 100 GRS            0000000
NO00002759000000900049420143946  20160520130000303437506272400454048300009500000000034505000637DAVID PALAFOX SALAS           000030343ACEITE DE RICINO                        ACEITE DE RICINO                        0000000
NO00002759000000900049420143946  20160520130000303437506272400812054000006750000000094205000637DAVID PALAFOX SALAS           000030343RASTRILLO DESECHABLE HOMBRE 2 PZAS      RASTRILLO DESECHABLE HOMBRE 2 PZAS      0000000
NO00002759000000900049420143946  20160520130000303437501072629012055100003000000000031505000637DAVID PALAFOX SALAS           000030343CEPILLO DENTAL ADUL                     CEPILLO DENTAL ADUL                     0000000
NO00002759000000900049420143946  20160520130000303437501361180064059600007860000000095002000637DAVID PALAFOX SALAS           000030343VASELINA BEBE 60 G                      VASELINA BEBE 60 G                      0000000
NO00002759000000900049420143946  20160520130000303437506272401772068200032000000000029405000637DAVID PALAFOX SALAS           000030343CURITAS 10 PZAS                         CURITAS 10 PZAS                         0000000
NO00002759000000900049420143946  20160520130000303437501361180132068900010500000000146105000637DAVID PALAFOX SALAS           000030343REPELENTE INSECTOS GEL 150 ML           REPELENTE INSECTOS GEL 150 ML           0000000
NO000027591000009000168A90003672 20160520130000305437501672690900103400030000000000180001000637DAVID PALAFOX SALAS           000030543TERBINAFINA 1% CREMA 30 G               FINMILEX 1% (1G/100G) CREMA 30 G        0000000
NO000027592000009000419FGI20799  20160520130000305187502226290249023100012260000000200001000637DAVID PALAFOX SALAS           000030518ITRACONAZOL 100 MG 15 TABS O CAPS       ITRACONAZOL 100 MG 15 TABS O CAPS       0000000
NO000027593000009000419FGI20801  20160520130000305187503004908783010500016000000000070001000637DAVID PALAFOX SALAS           000030518CIPROFLOXACINO 250 MG 8 TABS            CIPROFLOXACINO 250 MG 8 TABS            0000000
NO000027594000009000426B8928     20160520130000305197502254000339058700016000000000180001000637DAVID PALAFOX SALAS           000030519SERTRALINA 50 MG 14 TABL                SERTRALINA 50 MG 14 TABL                0000000
NO000027595000009001142A8939     20160520130000305797502004532011050300011530000000050505000637DAVID PALAFOX SALAS           000030579MULTIAPLICADORES DE ALGODON C/100       MULTIAPLICADORES DE ALGODON C/100       0000000
NO000027596000009001142a8940     20160520130000304307502004530758056400010080000000021505000637DAVID PALAFOX SALAS           000030430AGUA OXIGENADA 100 ML                   AGUA OXIGENADA 100 ML                   0000000
NO000027596000009001142a8940     20160520130000304307502004530819083000050000000000028005000637DAVID PALAFOX SALAS           000030430VASO COPRO DE PLASTICO                  VASO COPRO DE PLASTICO                  0000000
NO000027596000009001142a8940     20160520130000304307502256330052094300002800000000022005000637DAVID PALAFOX SALAS           000030430ALGODON ABSORBENTE 25 G                 ALGODON ABSORBENTE 25 G                 0000000
NO000027597000009000816128       20160523130000305317501573900153012000020140000000060801000637DAVID PALAFOX SALAS           000030531CLORFENAMINA 4 MG 20 TABL               CLORFENAMINA 4 MG 20 TABL               0000000
NO000027597000009000816128       20160523130000305317502211784272081000011400000000326401000637DAVID PALAFOX SALAS           000030531KETOCONAZOL 400 MG/CLINDAMICINA 100 MG 7KETOCONAZOL 400 MG/CLINDAMICINA 100 MG 70000000
NO000027598000009000793FG550176  20160523130000305297501590211263001200004000000000359801000637DAVID PALAFOX SALAS           000030529VITAMINA C 500 MG 60 COMP O TABS MASTICAROSAVIT C 60 COMP                       0000000
NO000027598000009000793FG550176  20160523130000305297502208891907016600003500000000135601000637DAVID PALAFOX SALAS           000030529DICLOXACILINA 250 MG/5 ML SUSP 60 ML    BUTIMAXIL 250MG/5ML SUSP 60 ML (BRULUAGS0000000
NO000027598000009000793FG550176  20160523130000305297502211783275054900025410000000172501000637DAVID PALAFOX SALAS           000030529TERBINAFINA AL 1% CREMA 15 G            ERBITRAX CRA AL 1% 15 GRS (LOEFFLER)    0000000
NO000027598000009000793FG550176  20160523130000305297501258206259061700008440000000158801000637DAVID PALAFOX SALAS           000030529QUINFAMIDA 300 MG 1 TABL                SHERPAMIDA 300 MG 1 TABS                0000000
NO000027598000009000793FG550176  20160523130000305297502009745027073000004100000000377001000637DAVID PALAFOX SALAS           000030529MAGALDRATO 8 G/DIMETICONA 1 G FCO 250 MLGALAVER GEL 8/1 G SUSP FCO C/250 ML (MAV0000000
NO000027599000009001074A4634     20160523130000304297503181043185079600018740000000189701000637DAVID PALAFOX SALAS           000030429VALERIANA TILA/PASIFLORINA 500 MG 30 CAPVALERIANA TILA/PASIFLORINA 500 MG 30 CAP0000000
NO00002760000000900123543        20160524130000305247506217101026057700007560000000356801000637DAVID PALAFOX SALAS           000030524VITAMINAS PARA MUJER 30 TABL            NATRUVIT MUJER VITAMINAS Y MIN 30 TAB (V0000000
NO00002760100000900123542        20160524130000305657502005861059042000030000000000106301000637DAVID PALAFOX SALAS           000030565DICLOFENACO SODICO 50 MG 20 GRAGVOLTARENDICLOFENACO SODICO 50 MG 20 GRAGVOLTAREN0000000
NO00002760100000900123542        20160524130000305650656599020525060400007000000000404801000637DAVID PALAFOX SALAS           000030565DIGOXINA 0.250 MG 60 TABLLANOXIN        DIGOXINA 0.250 MG 60 TABLLANOXIN        0000000
NO00002760200000900114761216     20160524130000305677503013570049042400030000000000120005000637DAVID PALAFOX SALAS           000030567PRUEBA DE EMBARAZO TIPO PLUMA           PRUEBA EMBARAZO INSTANT VIEW            0000000
NO0000276030000090007095845      20160525130000305227502213040864015800034320000000120001000637DAVID PALAFOX SALAS           000030522DICLOFENACO 1 G GEL 60 GRS              DICLOFENACO 1 G GEL 60 GRS              0000000
NO000027604000009000793FG550407  20160525130000305297502211783275054900007260000000172501000637DAVID PALAFOX SALAS           000030529TERBINAFINA AL 1% CREMA 15 G            ERBITRAX CRA AL 1% 15 GRS (LOEFFLER)    0000000
NO000027605000009000960B44350    20160526130000305237501573900276000800009600000000270001000637DAVID PALAFOX SALAS           000030523ACICLOVIR 200 MG 25 COMPS (TECNOFARMA)  ACICLOVIR 200 MG 25 COMPS (TECNOFARMA)  0000000
NO000027605000009000960B44350    20160526130000305237501573900146022500012800000000057001000637DAVID PALAFOX SALAS           000030523IBUPROFENO 200 MG 10 TABL               IBUPROFENO 200 MG 10 TABL               0000000
NO000027605000009000960B44350    20160526130000305237501573904151062400005040000000362301000637DAVID PALAFOX SALAS           000030523FEXOFENADINA 120 MG 10 COMPALLEGRA      FEXOFENADINA 120 MG 10 COMPALLEGRA      0000000
NO000027605000009000960B44350    20160526130000305237501573904212062500010080000000546001000637DAVID PALAFOX SALAS           000030523FEXOFENADINA 180 MG 10 TABL             FEXOFENADINA 180 MG 10 TABL             0000000
NO000027605000009000960B44350    20160526130000305237501573905677066300025200000000215001000637DAVID PALAFOX SALAS           000030523BROMURO DE PINAVERIO 100 MG 14 TABL     BROMURO DE PINAVERIO 100 MG 14 TABL     0000000
NO000027606000009000257410009251020160526130000305337501277091034081300025920000000300001000637DAVID PALAFOX SALAS           000030533BUTILHIOSCINA/IBUPROFENO 20 MG-400 MG 10BUTILHIOSCINA/IBUPROFENO 20 MG-400 MG 100000000
NO000027607000009001191A20947    20160526130000305707501349022539009900012800000000211701000637DAVID PALAFOX SALAS           000030570CEFTAZIDIMA 1 G SOL INY 1 AMP 3 ML      CEFTAZIDIMA 1 GR INY 3 ML (AMSA)        0000000
NO000027607000009001191A20947    20160526130000305707501825300946036200011520000000429401000637DAVID PALAFOX SALAS           000030570TRIMEBUTINA 200 MG 40 TABL              ESPABION 200 MG 40 TAB (DEGORT´S CHEMIC0000000
NO000027607000009001191A20947    20160526130000305707501349017115063100004320000000201601000637DAVID PALAFOX SALAS           000030570TOBRAMICINA 3 MG/DEXAMETASONA 1 MG SOL OTOBRACORT 3 MG/1 MG SOL OFT 5 ML (AMSA) 0000000
NO00002760800000900049420143955  20160527130000306077506272401543048200003000000000040105000637DAVID PALAFOX SALAS           000030607POMADA DE PAN PUERCO 50 G               POMADA DE PAN PUERCO 50 G               0000000
NO00002760800000900049420143955  20160527130000306077506272400447048400006000000000043105000637DAVID PALAFOX SALAS           000030607ACEITE DE ALMENDRAS DULCES 50 ML        ACEITE DE ALMENDRAS DULCES 50 ML        0000000
NO00002760800000900049420143955  20160527130000306077501072629029055200003000000000028005000637DAVID PALAFOX SALAS           000030607CEPILLO DENTAL INF                      CEPILLO DENTAL INF                      0000000
NO000027609000009000759B1606     20160527130000306147501711641788100400002900000000410001000637DAVID PALAFOX SALAS           000030614TETRACICLINA/DIPIRONA/GUAYACOL SOL INY ATETRACICLINA/DIPIRONA/GUAYACOL SOL INY A0000000
NO00002761000000900123546        20160527130000306270656599040264016900011000000000113901000637DAVID PALAFOX SALAS           000030627DIFENHIDRAMINA 25 MG 20 CAPSBENADRYL    DIFENHIDRAMINA 25 MG 20 CAPSBENADRYL    0000000
NO000027611000009000168A90003877 20160527130000304717501672600510022600090000000000066001000637DAVID PALAFOX SALAS           000030471IBUPROFENO 400 MG 10 TABL               IBUPROFENO 400 MG 10 TABL               0000000
NO0000276120000090007095879      20160527130000306127502213040529060300006510000000200001000637DAVID PALAFOX SALAS           000030612MEDROXIPROGESTERONA 25 MG/ESTRADIOL 5 MGMEDROXIPROGESTERONA 25 MG/ESTRADIOL 5 MG0000000
NO000027613000009000970A27230    20160527130000306217501836000118000200004700000000263201000637DAVID PALAFOX SALAS           000030621PARACETAMOL 350 MG METOCARBAMOL 400 MG 3PARACETAMOL 350 MG METOCARBAMOL 400 MG 30000000
NO000027613000009000970A27230    20160527130000306217501836000927024000003900000000232401000637DAVID PALAFOX SALAS           000030621KETOCONAZOL AL 2% SHAMPOO 120 ML        KETOCONAZOL AL 2% SHAMPOO 120 ML        0000000
NO000027614000009000449A042158   20160530130000305947501258205092016000013860000000224301000637DAVID PALAFOX SALAS           000030594DICLOFENACO SODICO/COMPLEJO B 50 MG 30 GDICLOFENACO SODICO/COMPLEJO B 50 MG 30 G0000000
NO000027614000009000449A042158   20160530130000305947501258205733050600010500000000394401000637DAVID PALAFOX SALAS           000030594AZITROMICINA 200 MG/5 ML 15 ML          AZITROMICINA 200 MG/5 ML 15 ML          0000000
NO000027614000009000449A042158   20160530130000305947501258206525060700009600000000696001000637DAVID PALAFOX SALAS           000030594TERBINAFINA 250 MG 28 TAB               TERBINAFINA 250 MG 28 TAB               0000000
NO000027615000009000670403414464620160530130000305217501349011601043800049920000000101101000637DAVID PALAFOX SALAS           000030521SUERO ORAL COCO 500 ML                  SUERO ORAL COCO 500 ML                  0000000
NO000027616000009001142A8979     20160530130000306237502256330076100200003200000000060005000637DAVID PALAFOX SALAS           000030623ALGODON ENROLLADO O PLISADO 100 G       ALGODON ENROLLADO O PLISADO 100 G       0000000
NO000027617000009001142A8980     20160530130000306977502004530819083000043850000000028005000637DAVID PALAFOX SALAS           000030697VASO COPRO DE PLASTICO                  VASO COPRO DE PLASTICO                  0000000
NO000027618000009000857TIJ1370   20160531130000305620725742760462020300031960000000085001000637DAVID PALAFOX SALAS           000030562FLUCONAZOL 150 MG 1 CAPDIFLUCAN         FLUCONAZOL 150 MG 1 CAPDIFLUCAN         0000000
NO000027618000009000857TIJ1370   20160531130000305620725742761001074000016380000000135001000637DAVID PALAFOX SALAS           000030562AMLODIPINO 5 MG 30 TABSNORVAS           AMLODIPINO 5 MG 30 TABSNORVAS           0000000
NO0000276190000090004142435      20160531130000306047501075718546006900012000000000110001000637DAVID PALAFOX SALAS           000030604BEZAFIBRATO 200 MG 30 TABS              BEZAFIBRATO 200 MG 30 TABS              0000000
NO0000276190000090004142435      20160531130000306047501075717914029500007080000000130001000637DAVID PALAFOX SALAS           000030604NEOMICINA/CAOLIN/PECTINA SUSP 75 MLTREDANEOMICINA/CAOLIN/PECTINA SUSP 75 MLTREDA0000000
NO000027620000009000116FA45272   20160531130000305867501044205404056900009900000000073002000637DAVID PALAFOX SALAS           000030586TALCO DESODORANTE PARA PIES 150 G       TALCO DESODORANTE PARA PIES 150 G       0000000
NO000027621000009000419FGI20884  20160531130000306057503003134268018600003340000000250001000637DAVID PALAFOX SALAS           000030605ERITROMICINA 500 MG 20 TABL             ERITROMICINA 500 MG 20 TABL             0000000
NO000027622000009000419FGI20883  20160531130000306057503004908721000500010250000000095001000637DAVID PALAFOX SALAS           000030605ACETONIDO DE FLUOCINOLONA CREMA         ACETONIDO DE FLUOCINOLONA CREMA         0000000
NO000027623000009000260FGI000757 20160531130000306557501384504922032700021600000000120001000637DAVID PALAFOX SALAS           000030655PRAVASTATINA 10 MG 30 TABS              PRAVASTATINA 10 MG 30 TABS              0000000
NO000027624000009000260FGI000754 20160531130000306557501384541132029200081000000000120001000637DAVID PALAFOX SALAS           000030655NAPROXENO SODICO 550 MG 12 TAB          NAPROXENO SODICO 550 MG 12 TAB          0000000
NO000027625000009000866FC5301    20160531130000306207502223112186074900002400000000140001000637DAVID PALAFOX SALAS           000030620GUAIFENESINA/OXOLAMINA 2.5/1.25 G GTS 60GUAIFENESINA/OXOLAMINA 2.5/1.25 G GTS 600000000
NO000027626000009000857TIJ1376   20160601130000306190725742760059094500054000000000345001000637DAVID PALAFOX SALAS           000030619OMEPRAZOL 20 MG 120 CAPS                OMEPRAZOL 20 MG 120 CAPS                0000000
NO0000276270000090007095906      20160601130000306917502213049249103500005000000001200001000637DAVID PALAFOX SALAS           000030691MOMETASONA SUSP NASAL 50 MCG 140 DOSIS (MOMETASONA SUSP NASAL 50 MCG 140 DOSIS (0000000
NO000027628000009001142A9004     20160601130000306237506338200004100300002610000000080005000637DAVID PALAFOX SALAS           000030623ALMOHADILLAS FACIALES DE ALGODON 100 PZAALMOHADILLAS FACIALES DE ALGODON 100 PZA0000000
NO000027629000009001142A8996     20160601130000307507502004530819083000004650000000028005000637DAVID PALAFOX SALAS           000030750VASO COPRO DE PLASTICO                  VASO COPRO DE PLASTICO                  0000000
NO000027630000009001142A8997     20160601130000301477502004530680041500042480000000100001000637DAVID PALAFOX SALAS           000030147ALCOHOL DESNATURALIZADO 71% 500 ML      ALCOHOL DESNATURALIZADO 71% 500 ML      0000000
NO000027631000009000168A90003913 20160601130000305887501672600671020500016800000000102801000637DAVID PALAFOX SALAS           000030588FLUOCINOLONA/NEOMICINA AL 1%/.35% CREMA FLUOCINOLONA/NEOMICINA AL 1%/.35% CREMA 0000000
NO000027632000009000168A90003951 20160601130000307167501672600732020900010380000000091701000637DAVID PALAFOX SALAS           000030716FUMARATO FERROSO 200 MG 50 TABL         FUMARATO FERROSO 200 MG 50 TABL         0000000
NO000027633000009000168A90004055 20160601130000305887501672690115039700018900000000164001000637DAVID PALAFOX SALAS           000030588LIDOCAINA/HIDROCO/ALUM/OXIDO ZINC 5/0.25LIDOCAINA/HIDROCO/ALUM/OXIDO ZINC 5/0.250000000
NO000027634000009000419FGI20918  20160602130000306050000075016845025200155300000000060001000637DAVID PALAFOX SALAS           000030605LOPERAMIDA 2 MG 12 TABL                 LOPERAMIDA 2 MG 12 TABL                 0000000
NO000027635000009000426B9012     20160602130000307427506335701306010600050000000000150001000637DAVID PALAFOX SALAS           000030742CIPROFLOXACINO 500 MG TABS              FLUXACORD 500 MG 14 TABS                0000000
NO000027635000009000426B9012     20160602130000307427506335700378061200002000000000134001000637DAVID PALAFOX SALAS           000030742GLIMEPIRIDA 4 MG 30 TABS                ADIRIPEM 4 MG 30 TABS                   0000000
NO000027635000009000426B9012     20160602130000307427506335702006103700004500000000290001000637DAVID PALAFOX SALAS           000030742ESCITALOPRAM 10 MG 14 TABS              ESCITALOPRAM 10 MG 14 TABS              0000000
NO000027636000009000686R92790    20160602130000306107501563370690002700001950000000083601000637DAVID PALAFOX SALAS           000030610ALOPURINOL 300 MG 20 TABS               ALOPURINOL 300 MG 20 TABS               0000000
NO000027636000009000686R92790    20160602130000306107501563381733016800003930000000058001000637DAVID PALAFOX SALAS           000030610DIFENHIDRAMINA 250 MG JBE 120 ML        DIFENHIDRAMINA 250 MG JBE 120 ML        0000000
NO000027636000009000686R92790    20160602130000306107501563370973024600005020000000106601000637DAVID PALAFOX SALAS           000030610KETOTIFENO 20 MG/100 ML SOL 120 ML      KETOTIFENO 20 MG/100 ML SOL 120 ML      0000000
NO000027636000009000686R92790    20160602130000306107501563310450030000002530000000090401000637DAVID PALAFOX SALAS           000030610NISTATINA 100 000 UI 12 TABL            NISTATINA 100 000 UI 12 TABL            0000000
NO000027636000009000686R92790    20160602130000306107501563381252061600005120000000121701000637DAVID PALAFOX SALAS           000030610FENITOINA 100 MG 50 TABL                FENITOINA 100 MG 50 TABL                0000000
NO0000276370000090004142446      20160602130000306047501075715378002600003000000000130001000637DAVID PALAFOX SALAS           000030604ALFAMETILDOPA 250 MG 30 TABS            ALFAMETILDOPA 250 MG 30 TABS            0000000
NO0000276370000090004142446      20160602130000306047501075718546006900006000000000110001000637DAVID PALAFOX SALAS           000030604BEZAFIBRATO 200 MG 30 TABS              BEZAFIBRATO 200 MG 30 TABS              0000000
NO0000276370000090004142446      20160602130000306047501075710465015300013440000000095001000637DAVID PALAFOX SALAS           000030604DEXTROMETORFANO GUAIFENESINA JBE 120 ML DEXTROMETORFANO GUAIFENESINA JBE 120 ML 0000000
NO0000276370000090004142446      20160602130000306047501075711332018000051000000000055001000637DAVID PALAFOX SALAS           000030604ENALAPRIL 10 MG 30 TABL                 ENALAPRIL 10 MG 30 TABL                 0000000
NO0000276370000090004142446      20160602130000306047501075711011022900007600000000055001000637DAVID PALAFOX SALAS           000030604ISOSORBIDA 10 MG 20 TABLISORBID         ISOSORBIDA 10 MG 20 TABLISORBID         0000000
NO0000276370000090004142446      20160602130000306047501075717150024200019000000000076001000637DAVID PALAFOX SALAS           000030604KETOCONAZOL 200 MG 10 TABL              KETOCONAZOL 200 MG 10 TABL              0000000
NO0000276370000090004142446      20160602130000306047501075713183027300004200000000090001000637DAVID PALAFOX SALAS           000030604METRONIDAZOL 250 MG/5 ML SUSP 120 ML    METRONIDAZOL 250 MG/5 ML SUSP 120 ML    0000000
NO0000276370000090004142446      20160602130000306047501075717075029400007200000000290001000637DAVID PALAFOX SALAS           000030604NAPROXENO 500 MG 45 TABS                NAPROXENO 500 MG 45 TABS                0000000
NO0000276370000090004142446      20160602130000306047501075713770033200012900000000300001000637DAVID PALAFOX SALAS           000030604PSYLLIUM PLANTAGO POLVO 400 G           PSYLLIUM PLANTAGO POLVO 400 G           0000000
NO000027638000009001074A4655     20160602130000306227503181043215079900011890000000142201000637DAVID PALAFOX SALAS           000030622LACTOBACILOS 500 MG 30 TABL MAST        LACTOBACILOS 500 MG 30 TABL MAST        0000000
NO00002763900000900037325538     20160606130000305907502003380989012100002520000000165301000637DAVID PALAFOX SALAS           000030590CLORFENAMINA/PARACETAMOL/FENILEFRINA 0.1CLORFENAMINA/PARACETAMOL/FENILEFRINA 0.10000000
NO00002763900000900037325538     20160606130000305907502003388107044400009000000000148501000637DAVID PALAFOX SALAS           000030590DIMENHIDRINATO 50 MG 20 CAPS O TABS     DIMENHIDRINATO 50 MG 20 CAPS O TABS     0000000
NO00002763900000900037325538     20160606130000305907502003381153076600009000000000236001000637DAVID PALAFOX SALAS           000030590OXELADINA 200 MG/AMBROXOL 225 MG ADUL JBOXELADINA 200 MG/AMBROXOL 225 MG ADUL JB0000000
NO0000276400000090012341349      20160606130000305897501258204002066200031500000000240001000637DAVID PALAFOX SALAS           000030589LORATADINA 5 MG/BETAMETASONA 0.25 MG 10 LORATADINA 5 MG/BETAMETASONA 0.25 MG 10 0000000
