NO0000276750000090012341399      20160622130000308817503003738671058800003200000000715001000637DAVID PALAFOX SALAS           000030881ITRACONAZOL 33.3 MG/SECNIDAZOL 16.66 MG ITRACONAZOL 33.3 MG/SECNIDAZOL 16.66 MG 0000000
NO00002767600000900121498        20160622130000308857506322300000039800123940000000060005000637DAVID PALAFOX SALAS           000030885PRESERVATIVO CLASICO                    PRESERVATIVO CLASICO                    0000000
NO000027677000009000837WFE100200720160622130000308797503001007205002900001000000000145001000637DAVID PALAFOX SALAS           000030879AMBROXOL/AMOXICILINA 250/15 MG SUSP 90 MVANMOXOL SUSP 250MG/15MG 90 ML          0000000
NO000027677000009000837WFE100200720160622130000308797503001007069004300004500000000121001000637DAVID PALAFOX SALAS           000030879AMOXICILINA 250 MG SUSP                 VANDIX 250 MG 75 ML                     0000000
NO000027677000009000837WFE100200720160622130000308797503001007137005500002700000000090001000637DAVID PALAFOX SALAS           000030879AMPICILINA 250 MG SUSP                  MEXAPIN 250 MG 60 ML                    0000000
NO000027677000009000837WFE100200720160622130000308797503001007250043500012960000000483001000637DAVID PALAFOX SALAS           000030879AMOXICILINA/AC CLAVULANICO 875/125 MG 10VALCLAN 875/125 MG 10 TABS              0000000
NO000027677000009000837WFE100200720160622130000308797503001007182043600015300000000284001000637DAVID PALAFOX SALAS           000030879AMOXICILINA/AC CLAVULANICO 400/57 MG    VALCLAN JR 12H 400 MG /57 MG 60 ML      0000000
NO000027678000009000960B44929    20160622130000308787501573921264000900004800000000605001000637DAVID PALAFOX SALAS           000030878ACICLOVIR 400 MG 35 TABS                BRIMEX 400 MG 35 TABS                   0000000
NO000027678000009000960B44929    20160622130000308787501573900399001300003200000000061001000637DAVID PALAFOX SALAS           000030878ACIDO ASCORBICO INF 100 MG 20 TABS      C MESSEL 100 MG 20 TABS                 0000000
NO000027678000009000960B44929    20160622130000308787501573903260007100001800000000129001000637DAVID PALAFOX SALAS           000030878BROMHEXINA ADULTO 160 MG SOL 100 ML     BROMHEXINA 160 MG SOL 100 ML AD         0000000
NO000027678000009000960B44929    20160622130000308787501573900351012800001500000000135501000637DAVID PALAFOX SALAS           000030878COLCHICINA 1 MG 30 TABS                 SIXOL* 1 MG 30 TABS                     0000000
NO000027678000009000960B44929    20160622130000308787501573902454057400003200000000200001000637DAVID PALAFOX SALAS           000030878OFLOXACINA 400 MG 8 TABL                OC-XAL 400 MG 8 TABS                    0000000
NO000027678000009000960B44929    20160622130000308787501573904755059500039000000000110001000637DAVID PALAFOX SALAS           000030878SILDENAFIL 50 MG 1 TAB                  DIONIXOL 50 MG 1 TAB                    0000000
NO000027678000009000960B44929    20160622130000308787501573905677066300007200000000215001000637DAVID PALAFOX SALAS           000030878BROMURO DE PINAVERIO 100 MG 14 TABL     BRIOMON 100 MG 14 TAB                   0000000
NO00002767900000900082169333     20160622130000308837503002772881012600021000000000177801000637DAVID PALAFOX SALAS           000030883CLOTRIMAZOL AL 2 % CRA VGINAL 20 G C/3 ACLOTRIMAZOL AL 2 % CRA VGINAL 20 G C/3 A0000000
NO000027680000009000766FE3010421520160623130000307597501128119436072500315000000000012105000637DAVID PALAFOX SALAS           000030759JERINGA P/INSULINA 1 ML 30X13 MM PZA    JERINGA P/INSULINA 1 ML 30X13 MM PZA    0000000
NO000027681000009000915A90       20160623130000308867503012924133086500005040000000182702000637DAVID PALAFOX SALAS           000030886K-LAMINA LOCION 180 ML                  K-LAMINA LOCION 180 ML                  0000000
NO0000276820000090007096040      20160623130000308237502213040871006400003150000000190001000637DAVID PALAFOX SALAS           000030823BENCIDAMINA 5 G GEL 60 G                BENCIDAMINA 5 G GEL 60 G                0000000
NO0000276820000090007096040      20160623130000308237502213040291063400005600000000230001000637DAVID PALAFOX SALAS           000030823NORETISTERONA 50 MG/ESTRADIOL 5 MG SOL INORETISTERONA 50 MG/ESTRADIOL 5 MG SOL I0000000
NO0000276820000090007096040      20160623130000308237502213049201100100004500000001400001000637DAVID PALAFOX SALAS           000030823SALMETEROL/FLUTICASONA 50/100 MCG INHALASALMETEROL/FLUTICASONA 50/100 MCG INHALA0000000
NO0000276820000090007096040      20160623130000308237502213049249103500002500000001200001000637DAVID PALAFOX SALAS           000030823MOMETASONA SUSP NASAL 50 MCG 140 DOSIS (MOMETASONA SUSP NASAL 50 MCG 140 DOSIS (0000000
NO000027683000009001224B868      20160624130000308517501573906407012600009370000000182001000637DAVID PALAFOX SALAS           000030851CLOTRIMAZOL AL 2 % CRA VGINAL 20 G C/3 ALOZAMIR V 2 % CRA VAGINAL 20 G C/3 APLIC0000000
NO00002768400000900123563        20160624130000308820656599040486040100004000000001138501000637DAVID PALAFOX SALAS           000030882ESTROGENOS CONJUGADOS 0.625 MG 42 GRAGPRESTROGENOS CONJUGADOS 0.625 MG 42 GRAGPR0000000
NO00002768500000900119463        20160624130000308107501472600024042900003230000000164001000637DAVID PALAFOX SALAS           000030810AJO DEODORIZADO 100 MG 100 CAPS         AJO DEODORIZADO 100 MG 100 CAPS         0000000
NO000027686000009000837WFE100201020160624130000309227503001007205002900001000000000145001000637DAVID PALAFOX SALAS           000030922AMBROXOL/AMOXICILINA 250/15 MG SUSP 90 MVANMOXOL SUSP 250MG/15MG 90 ML          0000000
NO000027686000009000837WFE100201020160624130000309227503001007069004300004500000000121001000637DAVID PALAFOX SALAS           000030922AMOXICILINA 250 MG SUSP                 VANDIX 250 MG 75 ML                     0000000
NO000027686000009000837WFE100201020160624130000309227503001007137005500002700000000090001000637DAVID PALAFOX SALAS           000030922AMPICILINA 250 MG SUSP                  MEXAPIN 250 MG 60 ML                    0000000
NO000027686000009000837WFE100201020160624130000309227503001007250043500012960000000483001000637DAVID PALAFOX SALAS           000030922AMOXICILINA/AC CLAVULANICO 875/125 MG 10VALCLAN 875/125 MG 10 TABS              0000000
NO000027686000009000837WFE100201020160624130000309227503001007182043600015300000000284001000637DAVID PALAFOX SALAS           000030922AMOXICILINA/AC CLAVULANICO 400/57 MG    VALCLAN JR 12H 400 MG /57 MG 60 ML      0000000
NO000027687000009000960B44935    20160624130000309217501573921264000900004800000000605001000637DAVID PALAFOX SALAS           000030921ACICLOVIR 400 MG 35 TABS                BRIMEX 400 MG 35 TABS                   0000000
NO000027687000009000960B44935    20160624130000309217501573900399001300003200000000061001000637DAVID PALAFOX SALAS           000030921ACIDO ASCORBICO INF 100 MG 20 TABS      C MESSEL 100 MG 20 TABS                 0000000
NO000027687000009000960B44935    20160624130000309217501573903260007100001800000000129001000637DAVID PALAFOX SALAS           000030921BROMHEXINA ADULTO 160 MG SOL 100 ML     BROMHEXINA 160 MG SOL 100 ML AD         0000000
NO000027687000009000960B44935    20160624130000309217501573900351012800001500000000135501000637DAVID PALAFOX SALAS           000030921COLCHICINA 1 MG 30 TABS                 SIXOL* 1 MG 30 TABS                     0000000
NO000027687000009000960B44935    20160624130000309217501573902454057400003200000000200001000637DAVID PALAFOX SALAS           000030921OFLOXACINA 400 MG 8 TABL                OC-XAL 400 MG 8 TABS                    0000000
NO000027687000009000960B44935    20160624130000309217501573904755059500039000000000110001000637DAVID PALAFOX SALAS           000030921SILDENAFIL 50 MG 1 TAB                  DIONIXOL 50 MG 1 TAB                    0000000
NO000027687000009000960B44935    20160624130000309217501573905677066300007200000000215001000637DAVID PALAFOX SALAS           000030921BROMURO DE PINAVERIO 100 MG 14 TABL     BRIOMON 100 MG 14 TAB                   0000000
NO00002768800000900119462        20160627130000307787501472260361104200004500000000160002000637DAVID PALAFOX SALAS           000030778JUGO DE ALOE VERA 240 ML                MI ALOE 240 ML                          0000000
NO0000276890000090005463844      20160627130000308210670079002887073500009000000000300001000637DAVID PALAFOX SALAS           000030821TRAMADOL 100 MG 10 CAPS                 TRAMADOL 100 MG 10 CAPS                 0000000
NO000027690000009001074A4701     20160627130000308317503181043192079000029500000000142201000637DAVID PALAFOX SALAS           000030831COMPLEJO B 500 MG 30 TABL               COMPLEJO B 500 MG 30 TABL               0000000
NO000027690000009001074A4701     20160627130000308317503181043222079400011180000000265501000637DAVID PALAFOX SALAS           000030831L- CARNITINA/GARCINIA/CAMBOGIA/CROMO 60 L- CARNITINA/GARCINIA/CAMBOGIA/CROMO 60 0000000
NO000027691000009000419FGI21124  20160627130000308557503004908776026600060000000000090001000637DAVID PALAFOX SALAS           000030855METFORMINA 850 MG 30 TABL               METFORMINA 850 MG 30 TABL               0000000
NO000027692000009000670403414608220160627130000308387501349011625041000046800000000101101000637DAVID PALAFOX SALAS           000030838SUERO ORAL FRESA 500 ML                 SUERO ORAL FRESA 500 ML                 0000000
NO000027693000009000670403414619220160627130000309257501349027671062800004500000000184301000637DAVID PALAFOX SALAS           000030925CIPROFLOXACINO 3 MG SOL OFT 5 ML        CIPROFLOXACINO 3 MG SOL OFT 5 ML        0000000
NO000027693000009000670403414619220160627130000309257501349028647104800004500000000291700000637DAVID PALAFOX SALAS           000030925ATORVASTATINA 40 MG 10 TABS             ATORVASTATINA 40 MG 10 TABS             0000000
NO000027693000009000670403414619220160627130000309257501349022430104900004500000000094900000637DAVID PALAFOX SALAS           000030925METAMIZOL SODICO SOL INY 1 G 3 AMP 2 ML METAMIZOL SODICO SOL INY 1 G 3 AMP 2 ML 0000000
NO000027693000009000670403414619220160627130000309257501349017931105000004500000000120100000637DAVID PALAFOX SALAS           000030925NAFAZOLINA/FENIRAMINA 0.16/3 MG SOL OFT LUBRIAMSA SOL OFT 15 ML                 0000000
NO000027693000009000670403414619220160627130000309257501349029170105100004500000000899000000637DAVID PALAFOX SALAS           000030925TELMISARTAN/HIDROCLOROTIAZIDA 80/12.5 MGTELMISARTAN/HIDROCLOROTIAZIDA 80/12.5 MG0000000
NO000027693000009000670403414619220160627130000309257501349024595105200004500000000218200000637DAVID PALAFOX SALAS           000030925BUTILHIOSCINA 20 MG 3 AMP 1 ML          BUTILHIOSCINA 20 MG 3 AMP 1 ML          0000000
NO000027693000009000670403414619220160627130000309257501349021204105300004500000001863000000637DAVID PALAFOX SALAS           000030925LEVETIRACETAM 500 MG 60 TABS            LEVETIRACETAM 500 MG 60 TABS            0000000
NO000027693000009000670403414619220160627130000309257501349024533105400004500000001448701000637DAVID PALAFOX SALAS           000030925EZETIMIBA/SIMVASTATINA 10/20 MG 14 TABS EZETIMIBA/SIMVASTATINA 10/20 MG 14 TABS 0000000
NO000027694000009000419FGI21157  20160628130000309267503003134787011200016640000000061101000637DAVID PALAFOX SALAS           000030926CLIOQUINOL 3 G CREMA 20 G               LASALAR-Y SIMPLE 3 G                    0000000
NO000027695000009000419FGI21156  20160628130000309267502226291888027800018000000000070001000637DAVID PALAFOX SALAS           000030926METRONIDAZOL 500 MG 30 TABL             ELYZOL 500 TAB                          0000000
NO000027695000009000419FGI21156  20160628130000309267503004908691032000300000000000028001000637DAVID PALAFOX SALAS           000030926PARACETAMOL 500 MG 10 TABL              PHARMACEN-T 500 MG TABLETAS             0000000
NO000027695000009000419FGI21156  20160628130000309267503004908745033800057600000000050001000637DAVID PALAFOX SALAS           000030926RANITIDINA 150 MG 20 TABL               RANITIDINA 150 MG 20 TABS               0000000
NO000027695000009000419FGI21156  20160628130000309267503004908738105500004500000000110001000637DAVID PALAFOX SALAS           000030926LIDOCAINA 5% (5/100 G) UNG 35 G         SENSIPHARMA 5% UNG 35 G                 0000000
NO000027696000009000426B9110     20160628130000308937506335700897085200006450000000270001000637DAVID PALAFOX SALAS           000030893SILDENAFIL 100MG 4 TAB (MAVI)           SILDENAFIL 100MG 4 TAB (MAVI)           0000000
NO000027697000009000837WFE100207220160628130000309297503001007236105600004500000000205500000637DAVID PALAFOX SALAS           000030929AMOXICILINA/AC CLAVULANICO 125/31.25 MG/VALCLAN SUSP 125/31.25 MG/5 ML 60 ML    0000000
NO000027698000009000712FA25098   20160628130000308970000075050771002500002220000000201701000637DAVID PALAFOX SALAS           000030897ALCOHOL POLIVINILICO 14 MG SOL OFT 15 MLALCOHOL POLIVINILICO 14 MG SOL OFT 15 ML0000000
NO000027698000009000712FA25098   20160628130000308970000075049737064700006400000000192501000637DAVID PALAFOX SALAS           000030897HIPROMELOSA 0.5% SOL OFT 15 ML          HIPROMELOSA 0.5% SOL OFT 15 ML          0000000
NO000027699000009001135O1733     20160629130000309680821998000083106000004500000000270000000637DAVID PALAFOX SALAS           000030968COLAGENO HIDROLIZADO 500 MG 90 CAPS     COLAGENO HIDROLIZADO 500 MG 90 CAPS     0000000
NO000027700000009001135O1732     20160629130000309760821998000564088700011370000000310010000637DAVID PALAFOX SALAS           000030976GLUCOSAMINA 225 MG/CONDROITINA 10 MG/COLGLUCOSAMINA 225 MG/CONDROITINA 10 MG/COL0000000
NO000027701000009000866FC5571    20160629130000309567502223111073030200008400000000189201000637DAVID PALAFOX SALAS           000030956NITAZOXANIDA 100 MG SUSP 60 ML          NITAZOXANIDA 100 MG SUSP 60 ML          0000000
NO000027701000009000866FC5571    20160629130000309567502223112179070600001820000000180001000637DAVID PALAFOX SALAS           000030956RANITIDINA SOL 40 MG PEDIAT FCO GOTERO 3RANITIDINA SOL 40 MG PEDIAT FCO GOTERO 30000000
NO000027702000009000866FC5576    20160629130000309557502223111202105800004500000000489500000637DAVID PALAFOX SALAS           000030955LIDOCAINA SPRAY 10% 115 ML              PHARMACAINE SPRAY 10% 15 ML             0000000
NO000027702000009000866FC5576    20160629130000309557502223112346105900004500000000195000000637DAVID PALAFOX SALAS           000030955DESLORATADINA 5 MG 10 TABS              HISTAPHARM 5 MG 10 TABS                 0000000
NO000027703000009000820F357352   20160630130000309007502208892355001500018900000000043301000637DAVID PALAFOX SALAS           000030900ACIDO FOLICO 5 MG 20 TABS               CILOCID 5 MG 20 TABS                    0000000
NO000027703000009000820F357352   20160630130000309007501075715910002400019000000000013301000637DAVID PALAFOX SALAS           000030900ALBENDAZOL 200 MG 2 TABS                VERMISEN 200 MG 2 TABS (NOVAG)          0000000
NO000027703000009000820F357352   20160630130000309007502208892416004900002880000000135901000637DAVID PALAFOX SALAS           000030900AMPICILINA/DICLOXACILINA 250/125 MG 12 CBRUCILINA 250 MG 12 CAPS                0000000
NO000027703000009000820F357352   20160630130000309000780083140939005200002400000000362501000637DAVID PALAFOX SALAS           000030900AMPICILINA/DIPIRONA/CLORFENIRAMINA INF 2AMPIGRIN INFANTIL 250 MG 3 AMPS (PRO_FAR0000000
NO000027703000009000820F357352   20160630130000309007501537102586014600007500000000133701000637DAVID PALAFOX SALAS           000030900DEXAMETASONA 8 MG SOL INY 3 AMP 2 ML    BRULIN SOL INY 3X2 ML 8 MG (BRULUART)   0000000
NO000027703000009000820F357352   20160630130000309007501537102845016300022050000000077401000637DAVID PALAFOX SALAS           000030900DICLOFENACO 100 MG 20 GRAG              NEDICLON 100 MG 20 GRAG (BRULUART)      0000000
NO000027703000009000820F357352   20160630130000309007502001165045032500002000000000178901000637DAVID PALAFOX SALAS           000030900PIROXICAM GEL 60 G                      DOLZYCAM GEL 60 GRS                     0000000
NO000027703000009000820F357352   20160630130000309007501537102395032900003000000000308701000637DAVID PALAFOX SALAS           000030900PREDNISONA 50 MG 20 TABL                NORAPRED 50MG 20 TABS                   0000000
NO000027703000009000820F357352   20160630130000309007501537189747036300012960000000119201000637DAVID PALAFOX SALAS           000030900TRIMETOPRIMA/SULFAMETOXAZOL 160/800 MG 1BACTELAN 14 TABS (QUIFA)                0000000
NO000027703000009000820F357352   20160630130000309007502009740657049700024000000000107001000637DAVID PALAFOX SALAS           000030900LORATADINA 100 MG/AMBROXOL 600 MG 120 MLLOVARIN EX 100/600 MG SOL 120 ML        0000000
NO000027703000009000820F357352   20160630130000309007501314704187053200003000000000172001000637DAVID PALAFOX SALAS           000030900GLICEROL BEBE 1.478 G 10 SUPSSENOSIAIN BSENOSIAIN BEBE 1.478 G 10 SUPS          0000000
NO000027703000009000820F357352   20160630130000309007501314704156061500002000000000167001000637DAVID PALAFOX SALAS           000030900GLICEROL ADULTO 2.632 G 10 SUPSSENOSIAINSENOSIAIN ADULTO 2.632 G 10 SUPS        0000000
NO000027703000009000820F357352   20160630130000309007502009741487063200005400000000353101000637DAVID PALAFOX SALAS           000030900CLONIXINATO DE LISINA/BUTILHIOSC 250MG/1PRESTODOL COMPUESTO 250 MG/10 MG 10 TAB 0000000
NO000027703000009000820F357352   20160630130000309007502009740299064100003600000000176601000637DAVID PALAFOX SALAS           000030900CISAPRIDA 1 MG SUSP 60 ML               PRESISTIN 1 MG SUSP 60 ML (MAVER)       0000000
NO000027703000009000820F357352   20160630130000309007501842952890086200012000000000119101000637DAVID PALAFOX SALAS           000030900IBUPROFENO 800 MG 10 TABL               ADOPREN 800 MG 10 TAB                   0000000
NO0000277040000090004142469      20160630130000308337501075713459003600081480000000060001000637DAVID PALAFOX SALAS           000030833AMBROXOL 300 MG SOL 120 ML              AMBROXOL 300 MG SOL 120 ML              0000000
NO0000277050000090004142468      20160630130000308337501075710465015300009240000000095001000637DAVID PALAFOX SALAS           000030833DEXTROMETORFANO GUAIFENESINA JBE 120 ML DEXTROMETORFANO GUAIFENESINA JBE 120 ML 0000000
NO0000277050000090004142468      20160630130000308337501075710199022200004360000000420001000637DAVID PALAFOX SALAS           000030833HIDROCORTISONA 100 MG SOL 20 ML         HIDROCORTISONA 100 MG SOL 20 ML         0000000
NO0000277050000090004142468      20160630130000308337501075717020026600033600000000085001000637DAVID PALAFOX SALAS           000030833METFORMINA 850 MG 30 TABL               METFORMINA 850 MG 30 TABL               0000000
NO0000277050000090004142468      20160630130000308330000075006433026700002700000000055001000637DAVID PALAFOX SALAS           000030833METOCLOPRAMIDA 400 MG GTS 20 ML         METOCLOPRAMIDA 400 MG GTS 20 ML         0000000
NO0000277050000090004142468      20160630130000308337501075713886029000004410000000150001000637DAVID PALAFOX SALAS           000030833NAPROXENO SODICO SUSP 100 ML            NAPROXENO SODICO SUSP 100 ML            0000000
NO0000277050000090004142468      20160630130000308337501075714715033800045200000000050001000637DAVID PALAFOX SALAS           000030833RANITIDINA 150 MG 20 TABL               RANITIDINA 150 MG 20 TABL               0000000
NO0000277050000090004142468      20160630130000308337501075718119073700006000000000460001000637DAVID PALAFOX SALAS           000030833TAMSULOSINA 0.4 MG 20 CAPS              TAMSULOSINA 0.4 MG 20 CAPS              0000000
NO000027706000009001236A11029    20160630130000309580714706400209102800002400000000424901000637DAVID PALAFOX SALAS           000030958JARABE EXTRACTO DE PLANTAS PORPOLEO Y MIJARABE EXTRACTO DE PLANTAS PORPOLEO Y MI0000000
NO000027706000009001236A11029    20160630130000309580714706907654103000012240000000033310000637DAVID PALAFOX SALAS           000030958BRONCOFRESH MIXTOS CHAROLA CON 12 PAQS VBRONCOFRESH MIXTOS CHAROLA CON 12 PAQS V0000000
NO000027706000009001236A11029    20160630130000309580714706906817103100021000000000037210000637DAVID PALAFOX SALAS           000030958BRONCOLIN CARAMELOS MIXTOS CHAROLA 20 PABRONCOLIN CARAMELOS MIXTOS CHAROLA 20 PA0000000
NO0000277070000090012031464      20160630130000307677503008344303074400010200000000221501000637DAVID PALAFOX SALAS           000030767PARACETAMOL300 MG/LORATADINA 2.0 MG/DEXTLADEXGEL 300MG/2.0MG/10.0MG 12 CAPS     0000000
NO0000277070000090012031464      20160630130000307677503008344716104400002430000000805300000637DAVID PALAFOX SALAS           000030767VITAMINAS MENOPAUSIA 30 CAPS            LA FEMME 30 CAPSULAS GELATINA BLANDA    0000000
NO0000277070000090012031464      20160630130000307677503008344495104500004200000000263500000637DAVID PALAFOX SALAS           000030767LACTOBACILLUS HELVETICUS R52M 150 MG 20 LACTOPRAM INF 150 MG 20 CAPS SABOR CHOCO0000000
NO00002770800000900049420144008  20160630130000309177501249601766104700004500000000327300000637DAVID PALAFOX SALAS           000030917LEVOTIROXINA 100 MCG 100 TABS           LEVOTIROXINA 100 MCG 100 TABS (ADN GEN) 0000000
NO00002770900000900049420144013  20160630130000310137506272401772068200028000000000029405000637DAVID PALAFOX SALAS           000031013CURITAS 10 PZAS                         CURITAS 10 PZAS                         0000000
NO000027710000009000670403414645320160704130000310167501349012387088400012000000000084101000637DAVID PALAFOX SALAS           000031016SUERO ORAL PEDIATRICO SABOR MANZANA 300 SUERO ORAL PEDIATRICO SABOR MANZANA 300 0000000
NO000027711000009000670403414645220160704130000310167501349021570004500058800000000126001000637DAVID PALAFOX SALAS           000031016AMOXICILINA 500 MG CAPS                 AMOXICILINA 500 MG CAPS                 0000000
NO000027711000009000670403414645220160704130000310167501349025080006100014400000000076701000637DAVID PALAFOX SALAS           000031016BENCILPENICILINA COMB 1200 000 UI 1 AMP BENCILPENICILINA COMB 1200 000 UI 1 AMP 0000000
NO000027711000009000670403414645220160704130000310167501349028999063800004000000000279901000637DAVID PALAFOX SALAS           000031016FINASTERIDA 5 MG 30 TABL                FINASTERIDA 5 MG 30 TABL                0000000
NO000027711000009000670403414645220160704130000310167501349024885080500004000000000268201000637DAVID PALAFOX SALAS           000031016ATORVASTATINA 10 MG 20 TABS             ATORVASTATINA 10 MG 20 TABS             0000000
NO00002771200000900123572        20160704130000310337502005866030042100002430000000132001000637DAVID PALAFOX SALAS           000031033METAMIZOL GTS ORALES                    METAMIZOL GTS ORALES                    0000000
NO00002771200000900123572        20160704130000310337506217106038090300004240000000670501000637DAVID PALAFOX SALAS           000031033COMPLEJO B/EXT HIGADO/LISINA/HIERRO 10 ACOMPLEJO B/EXT HIGADO/LISINA/HIERRO 10 A0000000
NO00002771200000900123572        20160704130000310337506217101071090400007490000000759001000637DAVID PALAFOX SALAS           000031033GLUCOSAMINA/MSM/CONDROITINA/VITAMINA C 1GLUCOSAMINA/MSM/CONDROITINA/VITAMINA C 10000000
NO000027713000009000766FE3010514320160704130000310227501128113236023700345000000000010905000637DAVID PALAFOX SALAS           000031022JERINGA DE 5 ML 22GX32 MM               JERINGA DE 5 ML 22GX32 MM               0000000
NO000027713000009000766FE3010514320160704130000310227501128119429072400403000000000012805000637DAVID PALAFOX SALAS           000031022JERINGA P/INSULINA 0.5 ML 31X8 MM C/100 JERINGA P/INSULINA 0.5 ML 31X8 MM C/100 0000000
NO000027714000009000257410009335920160704130000310097501277078318051900003400000000119001000637DAVID PALAFOX SALAS           000031009SUERO ORAL LIMON 28.3 G 4 SOBRES        SUERO ORAL LIMON 28.3 G 4 SOBRES        0000000
NO000027714000009000257410009335920160704130000310097501277078301070800003400000000119001000637DAVID PALAFOX SALAS           000031009SUERO ORAL LIMA LIMON 28.3 G 4 SOBRES   SUERO ORAL LIMA LIMON 28.3 G 4 SOBRES   0000000
NO0000277150000090012151157      20160704130000309887506336700223060100050000000000035205000637DAVID PALAFOX SALAS           000030988CUBREBOCAS DESECHABLE 10 PZAS           CUBREBOCAS DESECHABLE 10 PZAS           0000000
NO000027716000009000376A386      20160704130000310107503008434448065800005000000000240001000637DAVID PALAFOX SALAS           000031010OMEGA 3 30 CAPS GELATINA BLANDA         OMEGA 3 30 CAPS GELATINA BLANDA         0000000
NO000027717000009000376A387      20160704130000310107503008434387077300005000000000529010000637DAVID PALAFOX SALAS           000031010ACIDO FOLICO/COMPLEJO/LISINA 10 AMP ORALACIDO FOLICO/COMPLEJO/LISINA 10 AMP ORAL0000000
NO000027718000009000376A388      20160704130000310107503008434332077800005000000000529001000637DAVID PALAFOX SALAS           000031010OMEGA 3000/ACEITE DE SALMON 10 AMP ORALEOMEGA 3000/ACEITE DE SALMON 10 AMP ORALE0000000
NO000027719000009000915A91       20160704130000310277503012924065076100002100000000284002000637DAVID PALAFOX SALAS           000031027CREMA PARA DIABETICOS 400 ML            CREMA PARA DIABETICOS 400 ML            0000000
NO000027720000009000816132       20160704130000310247501258205900097800040860000000316310000637DAVID PALAFOX SALAS           000031024DICLOFENACO,B1,B6,B12 75/100/100/1 MG SODICLOFENACO,B1,B6,B12 75/100/100/1 MG SO0000000
NO000027721000009001206A5306     20160704130000310317502272120224093600015000000000250002000637DAVID PALAFOX SALAS           000031031SHAMPOO REPELENTE DE PIOJOS 120 MLS 120 SHAMPOO REPELENTE DE PIOJOS 120 MLS 120 0000000
NO000027722000009000168A90004539 20160704130000310087501672690399000600022950000000088901000637DAVID PALAFOX SALAS           000031008ACICLOVIR 0.05% 5 G CREMA               ACICLOVIR 0.05% 5 G CREMA               0000000
NO000027722000009000168A90004539 20160704130000310087501672601111035500004680000000201501000637DAVID PALAFOX SALAS           000031008TETRACICLINA 500 MG 16 CAP              TETRACICLINA 500 MG 16 CAP              0000000
NO000027722000009000168A90004539 20160704130000310087501672690771048700008400000000150501000637DAVID PALAFOX SALAS           000031008CLINDAMICINA AL 1 G/100 G GEL 30 G      CLINDAMICINA AL 1 G/100 G GEL 30 G      0000000
NO000027723000009001142A9300     20160704130000310297502004530024044800037820000000038005000637DAVID PALAFOX SALAS           000031029VENDA ELASTICA 10 CM X 5 MTS            VENDA ELASTICA 10 CM X 5 MTS            0000000
NO000027723000009001142A9300     20160704130000310297502004530079044900010400000000058005000637DAVID PALAFOX SALAS           000031029VENDA ELASTICA 15 CM X 5 MTS            VENDA ELASTICA 15 CM X 5 MTS            0000000
NO000027723000009001142A9300     20160704130000310297502004530109045000016970000000103205000637DAVID PALAFOX SALAS           000031029VENDA ELASTICA 30 CM X 5 MTS            VENDA ELASTICA 30 CM X 5 MTS            0000000
NO000027723000009001142A9300     20160704130000310297502256330069051700051600000000035205000637DAVID PALAFOX SALAS           000031029ALGODON ENROLLADO O PLISADO 50 G        ALGODON ENROLLADO O PLISADO 50 G        0000000
NO000027723000009001142A9300     20160704130000310297502004530758056400025330000000021505000637DAVID PALAFOX SALAS           000031029AGUA OXIGENADA 100 ML                   AGUA OXIGENADA 100 ML                   0000000
NO000027723000009001142A9300     20160704130000310297502004530819083000092810000000028005000637DAVID PALAFOX SALAS           000031029VASO COPRO DE PLASTICO                  VASO COPRO DE PLASTICO                  0000000
NO000027723000009001142A9300     20160704130000310297502256330076100200003170000000060005000637DAVID PALAFOX SALAS           000031029ALGODON ENROLLADO O PLISADO 100 G       ALGODON ENROLLADO O PLISADO 100 G       0000000
NO000027724000009001147618993074320160705130000307437503013570049042400049420000000120005000637DAVID PALAFOX SALAS           000030743PRUEBA DE EMBARAZO TIPO PLUMA           PRUEBA DE EMBARAZO TIPO PLUMA           0000000
NO000027725000009001204AF24500   20160705130000308920000075046149097700115200000000022102000637DAVID PALAFOX SALAS           000030892PROTECTOR LABIAL BOLSA 120 PZAS  VENTA XPROTECTOR LABIAL BOLSA 120 PZAS  VENTA X0000000
NO000027726000009000498A1378     20160705130000310140873360000337072700007200000000091201000637DAVID PALAFOX SALAS           000031014CARAMELO DE MIEL DE ABEJA Y PROPOLEO 12 CARAMELO DE MIEL DE ABEJA Y PROPOLEO 12 0000000
NO00002772700000900049420144036  20160705130000310137506272402182047900008660000000054905000637DAVID PALAFOX SALAS           000031013VIOLETA DE GENCIANA                     VIOLETA DE GENCIANA                     0000000
NO000027728000009000260FGI000996 20160706130000310077501384543341008600008000000000140001000637DAVID PALAFOX SALAS           000031007CAPTOPRIL 50 MG TABS                    CAPTOPRIL 50 MG TABS                    0000000
NO000027729000009000419FGI21227  20160706130000310067503004908875057200005000000000260001000637DAVID PALAFOX SALAS           000031006ACARBOSA 50 MG 30 TABL                  ACARBOSA 50 MG 30 TABL                  0000000
NO000027730000009000970A27423    20160706130000310627501836002082000400005000000000151201000637DAVID PALAFOX SALAS           000031062FLUOCINOLONA/CLIOQUINOL CREMA           YDERM 0.010/3G CREMA 30 G               0000000
NO000027730000009000970A27423    20160706130000310627501836009661055600030000000000193201000637DAVID PALAFOX SALAS           000031062IBUPROFENO/PARACETAMOL 200/325 MG 20 TABDUALGOS 200 MG 20 TABS                  0000000
NO000027730000009000970A27423    20160706130000310627501836003256091000005000000000145601000637DAVID PALAFOX SALAS           000031062METFORMINA 500 MG 30 TABL               DINAMEL 500 MG 30 TAB                   0000000
NO00002773100000900119464        20160707130000310777501472260369074300004500000000320010000637DAVID PALAFOX SALAS           000031077L-CARNITINA 500 MG 30 CAPS              L-CARNITINA 500 MG 30 CAPS              0000000
NO000027732000009000816133       20160707130000310247502009740244024500072000000000060001000637DAVID PALAFOX SALAS           000031024KETOROLACO 10 MG 10 TABL                KETOROLACO 10 MG 10 TABL                0000000
NO0000277330000090012341417      20160707130000310327502240450070058600052000000000110001000637DAVID PALAFOX SALAS           000031032LOSARTAN POTASICO 50 MG 30 TABL         LOSARTAN POTASICO 50 MG 30 TABL         0000000
NO0000277340000090004142480      20160708130000310120000075006471002200016800000000030001000637DAVID PALAFOX SALAS           000031012ALBENDAZOL 20 MG/ML SUSP 20 ML          ALBENDAZOL 20 MG/ML SUSP 20 ML          0000000
NO0000277340000090004142480      20160708130000310127501075713459003600007400000000060001000637DAVID PALAFOX SALAS           000031012AMBROXOL 300 MG SOL 120 ML              AMBROXOL 300 MG SOL 120 ML              0000000
NO0000277340000090004142480      20160708130000310127501075710465015300003360000000095001000637DAVID PALAFOX SALAS           000031012DEXTROMETORFANO GUAIFENESINA JBE 120 ML DEXTROMETORFANO GUAIFENESINA JBE 120 ML 0000000
NO0000277340000090004142480      20160708130000310120000075006433026700002700000000055001000637DAVID PALAFOX SALAS           000031012METOCLOPRAMIDA 400 MG GTS 20 ML         METOCLOPRAMIDA 400 MG GTS 20 ML         0000000
NO0000277340000090004142480      20160708130000310127501075717044027900012600000000180001000637DAVID PALAFOX SALAS           000031012METRONIDAZOL 400 MG DIYO 200 MG 20 TABS METRONIDAZOL 400 MG DIYO 200 MG 20 TABS 0000000
NO0000277340000090004142480      20160708130000310127501075717914029500007080000000130001000637DAVID PALAFOX SALAS           000031012NEOMICINA/CAOLIN/PECTINA SUSP 75 MLTREDANEOMICINA/CAOLIN/PECTINA SUSP 75 MLTREDA0000000
NO0000277340000090004142480      20160708130000310127501075717884062600002100000000155001000637DAVID PALAFOX SALAS           000031012CARBAMAZEPINA 2 G SUSP 120 ML           CARBAMAZEPINA 2 G SUSP 120 ML           0000000
NO00002773500000900037325992     20160708130000310787502003386141063200010800000000319501000637DAVID PALAFOX SALAS           000031078CLONIXINATO DE LISINA/BUTILHIOSC 250MG/1CLONIXINATO DE LISINA/BUTILHIOSC 250MG/10000000
NO00002773500000900037325992     20160708130000310787502003382617076500002880000000198001000637DAVID PALAFOX SALAS           000031078NIMESULIDA GEL AL 100 MG 40 GMESULID    NIMESULIDA GEL AL 100 MG 40 GMESULID    0000000
NO00002773500000900037325992     20160708130000310787502003381610103900003600000000339001000637DAVID PALAFOX SALAS           000031078CARISOPRODOL/DICLOFENACO 200/50 MG 20 TACARISOPRODOL/DICLOFENACO 200/50 MG 20 TA0000000
NO00002773500000900037325992     20160708130000310787502003380712104600003090000000231000000637DAVID PALAFOX SALAS           000031078TRIMETOPRIMA/SULFAMETOXAZOL/AMBROXOL 14 TRIMETOPRIMA/SULFAMETOXAZOL/AMBROXOL 14 0000000
NO000027736000009000426B9171     20160711130000310367506335700736061300030000000000285001000637DAVID PALAFOX SALAS           000031036LEVOFLOXACINO 500 MG 7 TABL             SOLOFELX 500 MG 7 TABS                  0000000
NO000027736000009000426B9171     20160711130000310367506335702006103700001500000000290001000637DAVID PALAFOX SALAS           000031036ESCITALOPRAM 10 MG 14 TABS              ESCITALOPRAM 10 MG 14 TABS              0000000
NO0000277370000090005463886      20160711130000310150670079000807022700045000000000240001000637DAVID PALAFOX SALAS           000031015IBUPROFENO 600 MG 45 TABL               IBUPROFENO 600 MG 45 TABL               0000000
NO000027738000009001133AI16487   20160711130000309870769575004669014000003060000000188102000637DAVID PALAFOX SALAS           000030987CONCHA NACAR CREMA 160 G                SUZANNE OLIVIER CREMA DE CONCHA NACAR 160000000
NO000027738000009001133AI16487   20160711130000309870769575004690023200001080000000188102000637DAVID PALAFOX SALAS           000030987JALEA REAL CREMA 160 G                  SUZANNE OLIVIER CREMA JALEA REAL DE 160 0000000
NO000027738000009001133AI16487   20160711130000309870769575004652046800004500000000188102000637DAVID PALAFOX SALAS           000030987CREMA PARA ESTRIAS 160 G                SUZANNE OLIVIER CREMA ELASTINA/ALOE VERA0000000
NO000027738000009001133AI16487   20160711130000309870769575002504067400004500000000376202000637DAVID PALAFOX SALAS           000030987GEL REDUCTOR CORPORAL                   TORONGIA GEL CORPORAL 240 GR            0000000
NO000027738000009001133AI16487   20160711130000309870769575003778106100003300000000313300000637DAVID PALAFOX SALAS           000030987CREMA PARA PIERNAS DIABETICOS PIEL SENS VANIGEL CREMA PIERNAS CANSADAS DIABETICO0000000
NO000027738000009001133AI16487   20160711130000309870769575003761106200004500000000313300000637DAVID PALAFOX SALAS           000030987CREMA CON ALGAS Y TE VERDE PIEL DE NARANVANIGEL CREMA PIEL DE NARANJA 250 ML    0000000
NO00002773900000900119465        20160712130000309087501472600230044500008110000000220001000637DAVID PALAFOX SALAS           000030908CASTAÑA DE INDIAS GEL 240 G            CASTAÑA DE INDIAS GEL 240 G            0000000
NO00002773900000900119465        20160712130000309087501472600380052100003050000000110001000637DAVID PALAFOX SALAS           000030908LEVADURA DE CERVEZA 500 MG 100 TROSCISCOLEVADURA DE CERVEZA 500 MG 100 TROSCISCO0000000
NO00002773900000900119465        20160712130000309087501472600340055700003150000000230001000637DAVID PALAFOX SALAS           000030908EXTRACTO DE HIGADO DE BACALAO SUSP 340 MEXTRACTO DE HIGADO DE BACALAO SUSP 340 M0000000
NO000027740000009001074A4730     20160713130000310287503181043208079100014800000000227610000637DAVID PALAFOX SALAS           000031028LACTOBACILOS 700 MG 100 TABS            LACTOBACILOS 700 MG 100 TABS            0000000
NO000027741000009000168A90004651 20160713130000311017501672600510022600073600000000066001000637DAVID PALAFOX SALAS           000031101IBUPROFENO 400 MG 10 TABL               IBUPROFENO 400 MG 10 TABL               0000000
NO000027742000009000937B1397     20160714130000310357502231320474004500030000000000115001000637DAVID PALAFOX SALAS           000031035AMOXICILINA 500 MG CAPS                 MOXPHARMA 500 MG 12 CAPS                0000000
NO00002774300000900119466        20160714130000309867501472260310106400004500000000250000000637DAVID PALAFOX SALAS           000030986OMEGA 3 ACIDO FOL JALEA REAL VIT SOL ORASLAPP VT JARABE PARA NIÑOS 240 ML      0000000
NO0000277440000090005463905      20160718130000312010670079002887073500009000000000300001000637DAVID PALAFOX SALAS           000031201TRAMADOL 100 MG 10 CAPS                 TRAMADOL 100 MG 10 CAPS                 0000000
NO000027745000009000793FG552101  20160719130000311907502211780045031800006100000000137301000637DAVID PALAFOX SALAS           000031190PARACETAMOL 160 MG/5 ML SOL 120 ML      PROSEDAL 160 MG/5 ML SOL 120 ML         0000000
NO000027745000009000793FG552101  20160719130000311907502001165151073300001000000000246001000637DAVID PALAFOX SALAS           000031190KETOPROFENO 100 MG 15 CAPS              ARTHRIL 100 MG 15 CAPS                  0000000
NO000027746000009000793FG552100  20160719130000311907501537162214003100004500000000132301000637DAVID PALAFOX SALAS           000031190AMBROXOL/CLEMBUTEROL 150/0.1 MG SOL 120 OXOLVAN C 150 MG/0.1 MG 120 ML          0000000
NO000027746000009000793FG552100  20160719130000311900780083141578006800030000000000107901000637DAVID PALAFOX SALAS           000031190BETAMETASONA/CLOTRIMAZOL/GENTAMICINA 0.0GELMICIN CREMA 40 GR                    0000000
NO000027746000009000793FG552100  20160719130000311900714908100082008300001050000000344801000637DAVID PALAFOX SALAS           000031190CALCIO 600 MG 60 TABS                   CALTRON 600 MG 60 TABS                  0000000
NO000027746000009000793FG552100  20160719130000311907502004403502025900002760000000233101000637DAVID PALAFOX SALAS           000031190MECLIZINA/PIRIDOXINA 25/50 MG SOL INY 5 VO-REMI INY 5X1 ML                      0000000
NO000027746000009000793FG552100  20160719130000311907502211780045031800016000000000137301000637DAVID PALAFOX SALAS           000031190PARACETAMOL 160 MG/5 ML SOL 120 ML      PROSEDAL 160 MG/5 ML SOL 120 ML         0000000
NO000027746000009000793FG552100  20160719130000311907501825300885040700004500000000127801000637DAVID PALAFOX SALAS           000031190ERGOCALCIFEROL GTS 25 ML                VI-DEA-C GTS 25 ML                      0000000
NO000027746000009000793FG552100  20160719130000311907502211780687045500000300000000173801000637DAVID PALAFOX SALAS           000031190METAMIZOL SODICO 5 G SUSP 120 ML        NEOSEDAL 5 G JBE 120 ML                 0000000
NO000027746000009000793FG552100  20160719130000311907502001165151073300004500000000246001000637DAVID PALAFOX SALAS           000031190KETOPROFENO 100 MG 15 CAPS              ARTHRIL 100 MG 15 CAPS                  0000000
NO000027746000009000793FG552100  20160719130000311907502009744891083900002000000000292501000637DAVID PALAFOX SALAS           000031190NORFENEFRINA 10 MG GTS ORALES 24 ML     FRINVER 10 MG GTS ORALES 24 ML          0000000
NO000027746000009000793FG552100  20160719130000311907501573900269105700001000000000071500000637DAVID PALAFOX SALAS           000031190PARACETAMOL 750 MG 10 TAB               QUITADOL 750 MG 10 TAB                  0000000
NO00002774700000900049420144068  20160720130000311937506272401451047800008250000000031505000637DAVID PALAFOX SALAS           000031193BICARBONATO DE SODIO 100 GRS            BICARBONATO DE SODIO 100 GRS            0000000
NO00002774700000900049420144068  20160720130000311937501072629012055100009000000000031505000637DAVID PALAFOX SALAS           000031193CEPILLO DENTAL ADUL                     CEPILLO DENTAL ADUL                     0000000
NO00002774700000900049420144068  20160720130000311937506272400508068100002160000000052005000637DAVID PALAFOX SALAS           000031193LIMA PARA UÑAS 10 PZAS                 LIMA PARA UÑAS 10 PZAS                 0000000
NO000027748000009000449A044875   20160721130000311917501258205092016000007920000000224301000637DAVID PALAFOX SALAS           000031191DICLOFENACO SODICO/COMPLEJO B 50 MG 30 GDICLOFENACO SODICO/COMPLEJO B 50 MG 30 G0000000
NO000027748000009000449A044875   20160721130000311917501258205733050600004500000000394401000637DAVID PALAFOX SALAS           000031191AZITROMICINA 200 MG/5 ML 15 ML          AZITROMICINA 200 MG/5 ML 15 ML          0000000
NO000027748000009000449A044875   20160721130000311917501258206259061700010400000000152301000637DAVID PALAFOX SALAS           000031191QUINFAMIDA 300 MG 1 TABL                QUINFAMIDA 300 MG 1 TABL                0000000
NO000027748000009000449A044875   20160721130000311917501258205221066100004800000001914001000637DAVID PALAFOX SALAS           000031191MISOPROSTOL 200 MCG 28 TABCYTOTEC       MISOPROSTOL 200 MCG 28 TABCYTOTEC       0000000
NO00002774900000900123581        20160721130000312420656599041216051500082000000000230001000637DAVID PALAFOX SALAS           000031242TRAMADOL 50 MG 10 CAPSTRADOL            CITRA 50 MG 10 TABS (VICTORY)           0000000
NO00002774900000900123581        20160721130000312427506217101026057700005040000000356801000637DAVID PALAFOX SALAS           000031242VITAMINAS PARA MUJER 30 TABL            NATRUVIT MUJER VITAMINAS Y MIN 30 TAB (V0000000
NO00002774900000900123581        20160721130000312427506217106045090200004800000000594601000637DAVID PALAFOX SALAS           000031242VITAMINA A,D,C 10 AMP ORALES 5 ML       DAOVIT 10 AMP. INGERIBLES DE 5 ML (VICTO0000000
