NO000027595000009001142A8939     20160520130000305797502004532011050300011530000000050505000637DAVID PALAFOX SALAS           000030579MULTIAPLICADORES DE ALGODON C/100       MULTIAPLICADORES DE ALGODON C/100       0000000
NO000027596000009001142a8940     20160520130000304307502004530758056400010080000000021505000637DAVID PALAFOX SALAS           000030430AGUA OXIGENADA 100 ML                   AGUA OXIGENADA 100 ML                   0000000
NO000027596000009001142a8940     20160520130000304307502004530819083000050000000000028005000637DAVID PALAFOX SALAS           000030430VASO COPRO DE PLASTICO                  VASO COPRO DE PLASTICO                  0000000
NO000027596000009001142a8940     20160520130000304307502256330052094300002800000000022005000637DAVID PALAFOX SALAS           000030430ALGODON ABSORBENTE 25 G                 ALGODON ABSORBENTE 25 G                 0000000
NO000027597000009000816128       20160523130000305317501573900153012000020140000000060801000637DAVID PALAFOX SALAS           000030531CLORFENAMINA 4 MG 20 TABL               CLORFENAMINA 4 MG 20 TABL               0000000
NO000027597000009000816128       20160523130000305317502211784272081000011400000000326401000637DAVID PALAFOX SALAS           000030531KETOCONAZOL 400 MG/CLINDAMICINA 100 MG 7KETOCONAZOL 400 MG/CLINDAMICINA 100 MG 70000000
NO000027598000009000793FG550176  20160523130000305297501590211263001200004000000000359801000637DAVID PALAFOX SALAS           000030529VITAMINA C 500 MG 60 COMP O TABS MASTICAROSAVIT C 60 COMP                       0000000
NO000027598000009000793FG550176  20160523130000305297502208891907016600003500000000135601000637DAVID PALAFOX SALAS           000030529DICLOXACILINA 250 MG/5 ML SUSP 60 ML    BUTIMAXIL 250MG/5ML SUSP 60 ML (BRULUAGS0000000
NO000027598000009000793FG550176  20160523130000305297502211783275054900025410000000172501000637DAVID PALAFOX SALAS           000030529TERBINAFINA AL 1% CREMA 15 G            ERBITRAX CRA AL 1% 15 GRS (LOEFFLER)    0000000
NO000027598000009000793FG550176  20160523130000305297501258206259061700008440000000158801000637DAVID PALAFOX SALAS           000030529QUINFAMIDA 300 MG 1 TABL                SHERPAMIDA 300 MG 1 TABS                0000000
NO000027598000009000793FG550176  20160523130000305297502009745027073000004100000000377001000637DAVID PALAFOX SALAS           000030529MAGALDRATO 8 G/DIMETICONA 1 G FCO 250 MLGALAVER GEL 8/1 G SUSP FCO C/250 ML (MAV0000000
NO000027599000009001074A4634     20160523130000304297503181043185079600018740000000189701000637DAVID PALAFOX SALAS           000030429VALERIANA TILA/PASIFLORINA 500 MG 30 CAPVALERIANA TILA/PASIFLORINA 500 MG 30 CAP0000000
NO00002760000000900123543        20160524130000305247506217101026057700007560000000356801000637DAVID PALAFOX SALAS           000030524VITAMINAS PARA MUJER 30 TABL            NATRUVIT MUJER VITAMINAS Y MIN 30 TAB (V0000000
NO00002760100000900123542        20160524130000305657502005861059042000030000000000106301000637DAVID PALAFOX SALAS           000030565DICLOFENACO SODICO 50 MG 20 GRAGVOLTARENDICLOFENACO SODICO 50 MG 20 GRAGVOLTAREN0000000
NO00002760100000900123542        20160524130000305650656599020525060400007000000000404801000637DAVID PALAFOX SALAS           000030565DIGOXINA 0.250 MG 60 TABLLANOXIN        DIGOXINA 0.250 MG 60 TABLLANOXIN        0000000
NO00002760200000900114761216     20160524130000305677503013570049042400030000000000120005000637DAVID PALAFOX SALAS           000030567PRUEBA DE EMBARAZO TIPO PLUMA           PRUEBA EMBARAZO INSTANT VIEW            0000000
NO0000276030000090007095845      20160525130000305227502213040864015800034320000000120001000637DAVID PALAFOX SALAS           000030522DICLOFENACO 1 G GEL 60 GRS              DICLOFENACO 1 G GEL 60 GRS              0000000
NO000027604000009000793FG550407  20160525130000305297502211783275054900007260000000172501000637DAVID PALAFOX SALAS           000030529TERBINAFINA AL 1% CREMA 15 G            ERBITRAX CRA AL 1% 15 GRS (LOEFFLER)    0000000
NO000027605000009000960B44350    20160526130000305237501573900276000800009600000000270001000637DAVID PALAFOX SALAS           000030523ACICLOVIR 200 MG 25 COMPS (TECNOFARMA)  ACICLOVIR 200 MG 25 COMPS (TECNOFARMA)  0000000
NO000027605000009000960B44350    20160526130000305237501573900146022500012800000000057001000637DAVID PALAFOX SALAS           000030523IBUPROFENO 200 MG 10 TABL               IBUPROFENO 200 MG 10 TABL               0000000
NO000027605000009000960B44350    20160526130000305237501573904151062400005040000000362301000637DAVID PALAFOX SALAS           000030523FEXOFENADINA 120 MG 10 COMPALLEGRA      FEXOFENADINA 120 MG 10 COMPALLEGRA      0000000
NO000027605000009000960B44350    20160526130000305237501573904212062500010080000000546001000637DAVID PALAFOX SALAS           000030523FEXOFENADINA 180 MG 10 TABL             FEXOFENADINA 180 MG 10 TABL             0000000
NO000027605000009000960B44350    20160526130000305237501573905677066300025200000000215001000637DAVID PALAFOX SALAS           000030523BROMURO DE PINAVERIO 100 MG 14 TABL     BROMURO DE PINAVERIO 100 MG 14 TABL     0000000
NO000027606000009000257410009251020160526130000305337501277091034081300025920000000300001000637DAVID PALAFOX SALAS           000030533BUTILHIOSCINA/IBUPROFENO 20 MG-400 MG 10BUTILHIOSCINA/IBUPROFENO 20 MG-400 MG 100000000
NO000027607000009001191A20947    20160526130000305707501349022539009900012800000000211701000637DAVID PALAFOX SALAS           000030570CEFTAZIDIMA 1 G SOL INY 1 AMP 3 ML      CEFTAZIDIMA 1 GR INY 3 ML (AMSA)        0000000
NO000027607000009001191A20947    20160526130000305707501825300946036200011520000000429401000637DAVID PALAFOX SALAS           000030570TRIMEBUTINA 200 MG 40 TABL              ESPABION 200 MG 40 TAB (DEGORT´S CHEMIC0000000
NO000027607000009001191A20947    20160526130000305707501349017115063100004320000000201601000637DAVID PALAFOX SALAS           000030570TOBRAMICINA 3 MG/DEXAMETASONA 1 MG SOL OTOBRACORT 3 MG/1 MG SOL OFT 5 ML (AMSA) 0000000
NO00002760800000900049420143955  20160527130000306077506272401543048200003000000000040105000637DAVID PALAFOX SALAS           000030607POMADA DE PAN PUERCO 50 G               POMADA DE PAN PUERCO 50 G               0000000
NO00002760800000900049420143955  20160527130000306077506272400447048400006000000000043105000637DAVID PALAFOX SALAS           000030607ACEITE DE ALMENDRAS DULCES 50 ML        ACEITE DE ALMENDRAS DULCES 50 ML        0000000
NO00002760800000900049420143955  20160527130000306077501072629029055200003000000000028005000637DAVID PALAFOX SALAS           000030607CEPILLO DENTAL INF                      CEPILLO DENTAL INF                      0000000
NO000027609000009000759B1606     20160527130000306147501711641788100400002900000000410001000637DAVID PALAFOX SALAS           000030614TETRACICLINA/DIPIRONA/GUAYACOL SOL INY ATETRACICLINA/DIPIRONA/GUAYACOL SOL INY A0000000
NO00002761000000900123546        20160527130000306270656599040264016900011000000000113901000637DAVID PALAFOX SALAS           000030627DIFENHIDRAMINA 25 MG 20 CAPSBENADRYL    DIFENHIDRAMINA 25 MG 20 CAPSBENADRYL    0000000
NO000027611000009000168A90003877 20160527130000304717501672600510022600090000000000066001000637DAVID PALAFOX SALAS           000030471IBUPROFENO 400 MG 10 TABL               IBUPROFENO 400 MG 10 TABL               0000000
NO0000276120000090007095879      20160527130000306127502213040529060300006510000000200001000637DAVID PALAFOX SALAS           000030612MEDROXIPROGESTERONA 25 MG/ESTRADIOL 5 MGMEDROXIPROGESTERONA 25 MG/ESTRADIOL 5 MG0000000
NO000027613000009000970A27230    20160527130000306217501836000118000200004700000000263201000637DAVID PALAFOX SALAS           000030621PARACETAMOL 350 MG METOCARBAMOL 400 MG 3PARACETAMOL 350 MG METOCARBAMOL 400 MG 30000000
NO000027613000009000970A27230    20160527130000306217501836000927024000003900000000232401000637DAVID PALAFOX SALAS           000030621KETOCONAZOL AL 2% SHAMPOO 120 ML        KETOCONAZOL AL 2% SHAMPOO 120 ML        0000000
NO000027614000009000449A042158   20160530130000305947501258205092016000013860000000224301000637DAVID PALAFOX SALAS           000030594DICLOFENACO SODICO/COMPLEJO B 50 MG 30 GDICLOFENACO SODICO/COMPLEJO B 50 MG 30 G0000000
NO000027614000009000449A042158   20160530130000305947501258205733050600010500000000394401000637DAVID PALAFOX SALAS           000030594AZITROMICINA 200 MG/5 ML 15 ML          AZITROMICINA 200 MG/5 ML 15 ML          0000000
NO000027614000009000449A042158   20160530130000305947501258206525060700009600000000696001000637DAVID PALAFOX SALAS           000030594TERBINAFINA 250 MG 28 TAB               TERBINAFINA 250 MG 28 TAB               0000000
NO000027615000009000670403414464620160530130000305217501349011601043800049920000000101101000637DAVID PALAFOX SALAS           000030521SUERO ORAL COCO 500 ML                  SUERO ORAL COCO 500 ML                  0000000
NO000027616000009001142A8979     20160530130000306237502256330076100200003200000000060005000637DAVID PALAFOX SALAS           000030623ALGODON ENROLLADO O PLISADO 100 G       ALGODON ENROLLADO O PLISADO 100 G       0000000
NO000027617000009001142A8980     20160530130000306977502004530819083000043850000000028005000637DAVID PALAFOX SALAS           000030697VASO COPRO DE PLASTICO                  VASO COPRO DE PLASTICO                  0000000
NO000027618000009000857TIJ1370   20160531130000305620725742760462020300031960000000085001000637DAVID PALAFOX SALAS           000030562FLUCONAZOL 150 MG 1 CAPDIFLUCAN         FLUCONAZOL 150 MG 1 CAPDIFLUCAN         0000000
NO000027618000009000857TIJ1370   20160531130000305620725742761001074000016380000000135001000637DAVID PALAFOX SALAS           000030562AMLODIPINO 5 MG 30 TABSNORVAS           AMLODIPINO 5 MG 30 TABSNORVAS           0000000
NO0000276190000090004142435      20160531130000306047501075718546006900012000000000110001000637DAVID PALAFOX SALAS           000030604BEZAFIBRATO 200 MG 30 TABS              BEZAFIBRATO 200 MG 30 TABS              0000000
NO0000276190000090004142435      20160531130000306047501075717914029500007080000000130001000637DAVID PALAFOX SALAS           000030604NEOMICINA/CAOLIN/PECTINA SUSP 75 MLTREDANEOMICINA/CAOLIN/PECTINA SUSP 75 MLTREDA0000000
NO000027620000009000116FA45272   20160531130000305867501044205404056900009900000000073002000637DAVID PALAFOX SALAS           000030586TALCO DESODORANTE PARA PIES 150 G       TALCO DESODORANTE PARA PIES 150 G       0000000
NO000027621000009000419FGI20884  20160531130000306057503003134268018600003340000000250001000637DAVID PALAFOX SALAS           000030605ERITROMICINA 500 MG 20 TABL             ERITROMICINA 500 MG 20 TABL             0000000
NO000027622000009000419FGI20883  20160531130000306057503004908721000500010250000000095001000637DAVID PALAFOX SALAS           000030605ACETONIDO DE FLUOCINOLONA CREMA         ACETONIDO DE FLUOCINOLONA CREMA         0000000
NO000027623000009000260FGI000757 20160531130000306557501384504922032700021600000000120001000637DAVID PALAFOX SALAS           000030655PRAVASTATINA 10 MG 30 TABS              PRAVASTATINA 10 MG 30 TABS              0000000
NO000027624000009000260FGI000754 20160531130000306557501384541132029200081000000000120001000637DAVID PALAFOX SALAS           000030655NAPROXENO SODICO 550 MG 12 TAB          NAPROXENO SODICO 550 MG 12 TAB          0000000
NO000027625000009000866FC5301    20160531130000306207502223112186074900002400000000140001000637DAVID PALAFOX SALAS           000030620GUAIFENESINA/OXOLAMINA 2.5/1.25 G GTS 60GUAIFENESINA/OXOLAMINA 2.5/1.25 G GTS 600000000
NO000027626000009000857TIJ1376   20160601130000306190725742760059094500054000000000345001000637DAVID PALAFOX SALAS           000030619OMEPRAZOL 20 MG 120 CAPS                OMEPRAZOL 20 MG 120 CAPS                0000000
NO0000276270000090007095906      20160601130000306917502213049249103500005000000001200001000637DAVID PALAFOX SALAS           000030691MOMETASONA SUSP NASAL 50 MCG 140 DOSIS (MOMETASONA SUSP NASAL 50 MCG 140 DOSIS (0000000
NO000027628000009001142A9004     20160601130000306237506338200004100300002610000000080005000637DAVID PALAFOX SALAS           000030623ALMOHADILLAS FACIALES DE ALGODON 100 PZAALMOHADILLAS FACIALES DE ALGODON 100 PZA0000000
NO000027629000009001142A8996     20160601130000307507502004530819083000004650000000028005000637DAVID PALAFOX SALAS           000030750VASO COPRO DE PLASTICO                  VASO COPRO DE PLASTICO                  0000000
NO000027630000009001142A8997     20160601130000301477502004530680041500042480000000100001000637DAVID PALAFOX SALAS           000030147ALCOHOL DESNATURALIZADO 71% 500 ML      ALCOHOL DESNATURALIZADO 71% 500 ML      0000000
NO000027631000009000168A90003913 20160601130000305887501672600671020500016800000000102801000637DAVID PALAFOX SALAS           000030588FLUOCINOLONA/NEOMICINA AL 1%/.35% CREMA FLUOCINOLONA/NEOMICINA AL 1%/.35% CREMA 0000000
NO000027632000009000168A90003951 20160601130000307167501672600732020900010380000000091701000637DAVID PALAFOX SALAS           000030716FUMARATO FERROSO 200 MG 50 TABL         FUMARATO FERROSO 200 MG 50 TABL         0000000
NO000027633000009000168A90004055 20160601130000305887501672690115039700018900000000164001000637DAVID PALAFOX SALAS           000030588LIDOCAINA/HIDROCO/ALUM/OXIDO ZINC 5/0.25LIDOCAINA/HIDROCO/ALUM/OXIDO ZINC 5/0.250000000
NO000027634000009000419FGI20918  20160602130000306050000075016845025200155300000000060001000637DAVID PALAFOX SALAS           000030605LOPERAMIDA 2 MG 12 TABL                 LOPERAMIDA 2 MG 12 TABL                 0000000
NO000027635000009000426B9012     20160602130000307427506335701306010600050000000000150001000637DAVID PALAFOX SALAS           000030742CIPROFLOXACINO 500 MG TABS              FLUXACORD 500 MG 14 TABS                0000000
NO000027635000009000426B9012     20160602130000307427506335700378061200002000000000134001000637DAVID PALAFOX SALAS           000030742GLIMEPIRIDA 4 MG 30 TABS                ADIRIPEM 4 MG 30 TABS                   0000000
NO000027635000009000426B9012     20160602130000307427506335702006103700004500000000290001000637DAVID PALAFOX SALAS           000030742ESCITALOPRAM 10 MG 14 TABS              ESCITALOPRAM 10 MG 14 TABS              0000000
NO000027636000009000686R92790    20160602130000306107501563370690002700001950000000083601000637DAVID PALAFOX SALAS           000030610ALOPURINOL 300 MG 20 TABS               ALOPURINOL 300 MG 20 TABS               0000000
NO000027636000009000686R92790    20160602130000306107501563381733016800003930000000058001000637DAVID PALAFOX SALAS           000030610DIFENHIDRAMINA 250 MG JBE 120 ML        DIFENHIDRAMINA 250 MG JBE 120 ML        0000000
NO000027636000009000686R92790    20160602130000306107501563370973024600005020000000106601000637DAVID PALAFOX SALAS           000030610KETOTIFENO 20 MG/100 ML SOL 120 ML      KETOTIFENO 20 MG/100 ML SOL 120 ML      0000000
NO000027636000009000686R92790    20160602130000306107501563310450030000002530000000090401000637DAVID PALAFOX SALAS           000030610NISTATINA 100 000 UI 12 TABL            NISTATINA 100 000 UI 12 TABL            0000000
NO000027636000009000686R92790    20160602130000306107501563381252061600005120000000121701000637DAVID PALAFOX SALAS           000030610FENITOINA 100 MG 50 TABL                FENITOINA 100 MG 50 TABL                0000000
NO0000276370000090004142446      20160602130000306047501075715378002600003000000000130001000637DAVID PALAFOX SALAS           000030604ALFAMETILDOPA 250 MG 30 TABS            ALFAMETILDOPA 250 MG 30 TABS            0000000
NO0000276370000090004142446      20160602130000306047501075718546006900006000000000110001000637DAVID PALAFOX SALAS           000030604BEZAFIBRATO 200 MG 30 TABS              BEZAFIBRATO 200 MG 30 TABS              0000000
NO0000276370000090004142446      20160602130000306047501075710465015300013440000000095001000637DAVID PALAFOX SALAS           000030604DEXTROMETORFANO GUAIFENESINA JBE 120 ML DEXTROMETORFANO GUAIFENESINA JBE 120 ML 0000000
NO0000276370000090004142446      20160602130000306047501075711332018000051000000000055001000637DAVID PALAFOX SALAS           000030604ENALAPRIL 10 MG 30 TABL                 ENALAPRIL 10 MG 30 TABL                 0000000
NO0000276370000090004142446      20160602130000306047501075711011022900007600000000055001000637DAVID PALAFOX SALAS           000030604ISOSORBIDA 10 MG 20 TABLISORBID         ISOSORBIDA 10 MG 20 TABLISORBID         0000000
NO0000276370000090004142446      20160602130000306047501075717150024200019000000000076001000637DAVID PALAFOX SALAS           000030604KETOCONAZOL 200 MG 10 TABL              KETOCONAZOL 200 MG 10 TABL              0000000
NO0000276370000090004142446      20160602130000306047501075713183027300004200000000090001000637DAVID PALAFOX SALAS           000030604METRONIDAZOL 250 MG/5 ML SUSP 120 ML    METRONIDAZOL 250 MG/5 ML SUSP 120 ML    0000000
NO0000276370000090004142446      20160602130000306047501075717075029400007200000000290001000637DAVID PALAFOX SALAS           000030604NAPROXENO 500 MG 45 TABS                NAPROXENO 500 MG 45 TABS                0000000
NO0000276370000090004142446      20160602130000306047501075713770033200012900000000300001000637DAVID PALAFOX SALAS           000030604PSYLLIUM PLANTAGO POLVO 400 G           PSYLLIUM PLANTAGO POLVO 400 G           0000000
NO000027638000009001074A4655     20160602130000306227503181043215079900011890000000142201000637DAVID PALAFOX SALAS           000030622LACTOBACILOS 500 MG 30 TABL MAST        LACTOBACILOS 500 MG 30 TABL MAST        0000000
NO00002763900000900037325538     20160606130000305907502003380989012100002520000000165301000637DAVID PALAFOX SALAS           000030590CLORFENAMINA/PARACETAMOL/FENILEFRINA 0.1CLORFENAMINA/PARACETAMOL/FENILEFRINA 0.10000000
NO00002763900000900037325538     20160606130000305907502003388107044400009000000000148501000637DAVID PALAFOX SALAS           000030590DIMENHIDRINATO 50 MG 20 CAPS O TABS     DIMENHIDRINATO 50 MG 20 CAPS O TABS     0000000
NO00002763900000900037325538     20160606130000305907502003381153076600009000000000236001000637DAVID PALAFOX SALAS           000030590OXELADINA 200 MG/AMBROXOL 225 MG ADUL JBOXELADINA 200 MG/AMBROXOL 225 MG ADUL JB0000000
NO0000276400000090012341349      20160606130000305897501258204002066200031500000000240001000637DAVID PALAFOX SALAS           000030589LORATADINA 5 MG/BETAMETASONA 0.25 MG 10 LORATADINA 5 MG/BETAMETASONA 0.25 MG 10 0000000
NO0000276410000090006602576      20160608130000307477501752516335006800008000000000113301000637DAVID PALAFOX SALAS           000030747BETAMETASONA/CLOTRIMAZOL/GENTAMICINA 0.0BECLOGEN CRA TUBO 30 GR                 0000000
NO0000276410000090006602576      20160608130000307477501752514614027200026100000000224701000637DAVID PALAFOX SALAS           000030747METRONIDAZOL/NISTATINA/FLUOCINOLONA 500/ACENIL FLUOCI 2 GR 10 OVS               0000000
NO0000276410000090006602576      20160608130000307477501752514218039100005000000000213501000637DAVID PALAFOX SALAS           000030747HIDROCORTISONA 0.1% CREMA 15 G          ICORSAN 1% CRA 30 GRS                   0000000
NO000027642000009001236A10857    20160608130000307580714706907654103000018000000000033310000637DAVID PALAFOX SALAS           000030758BRONCOFRESH MIXTOS CHAROLA CON 12 PAQS VBRONCOFRESH MIXTOS CHAROLA CON 12 PAQS V0000000
NO000027642000009001236A10857    20160608130000307580714706906817103100030000000000037210000637DAVID PALAFOX SALAS           000030758BRONCOLIN CARAMELOS MIXTOS CHAROLA 20 PABRONCOLIN CARAMELOS MIXTOS CHAROLA 20 PA0000000
NO000027643000009000257410009286220160608130000305877501277078349070900003000000000119001000637DAVID PALAFOX SALAS           000030587SUERO ORAL PIÑA 28.3 G 4 SOBRES        SUERO ORAL PIÑA 28.3 G 4 SOBRES        0000000
NO000027643000009000257410009286220160608130000305877501277091034081300001440000000300001000637DAVID PALAFOX SALAS           000030587BUTILHIOSCINA/IBUPROFENO 20 MG-400 MG 10BUTILHIOSCINA/IBUPROFENO 20 MG-400 MG 100000000
NO000027644000009000793FG550944  20160609130000308007502009744563072900005930000000488201000637DAVID PALAFOX SALAS           000030800SILDENAFIL 50 MG 10 TABL                SILDENAFIL 50 MG 10 TABS (SERRAL)       0000000
NO000027645000009000793FG550943  20160610130000308007502004402901031500008690000000207201000637DAVID PALAFOX SALAS           000030800OXOLAMINA CITRATO 10 MG JBE             OXOMAR JBE 120 ML (OFFENBACH)           0000000
NO000027645000009000793FG550943  20160610130000308007502006923619045500001000000000121001000637DAVID PALAFOX SALAS           000030800METAMIZOL SODICO 5 G SUSP 120 ML        FARLIN JBE 120 ML (FAR CONT)            0000000
NO000027645000009000793FG550943  20160610130000308000780083144302065000012600000000132501000637DAVID PALAFOX SALAS           000030800OXIMETAZOLINA ADUL 50 MG SOL NASAL 20 MLCOLLIFRIN NASAL ADULTO 50 MG SOL 20 ML(C0000000
NO000027645000009000793FG550943  20160610130000308000785118752637067000004800000000162001000637DAVID PALAFOX SALAS           000030800SUBSALICILATO DE BISMUTO 262 MG 24 TABL ITAMOL 262 MG C/24 TABS MAST (MAVI)     0000000
NO000027645000009000793FG550943  20160610130000308007502009745027073000005000000000388601000637DAVID PALAFOX SALAS           000030800MAGALDRATO 8 G/DIMETICONA 1 G FCO 250 MLGALAVER GEL 8/1 G SUSP FCO C/250 ML (MAV0000000
NO00002764600000900049420143970  20160610130000306767506272402175056500013500000000052205000637DAVID PALAFOX SALAS           000030676CLORURO DE BENZALCONIO C/60 ML          CLORURO DE BENZALCONIO C/60 ML          0000000
NO00002764700000900114521005     20160610130000307777501908254210013100070000000000061501000637DAVID PALAFOX SALAS           000030777COMPLEJO B 100 MG 30 TABL               COMPLEJO B 100 MG 30 TABL               0000000
NO000027648000009001135O1716     20160613130000307610821998000069034700014360000000145001000637DAVID PALAFOX SALAS           000030761SENOSIDIOS A-B TAB C/10                 ORGALAX 30 TABLETAS                     0000000
NO000027649000009000793FG550964  20160613130000308357502211788362044200001220000000186601000637DAVID PALAFOX SALAS           000030835FENITOINA 750 MG SUSP 120 ML            FENITOINA 750 MG SUSP 120 ML (LOEFFLER) 0000000
NO000027650000009000793FG550963  20160613130000308007502004402901031500001310000000207201000637DAVID PALAFOX SALAS           000030800OXOLAMINA CITRATO 10 MG JBE             OXOMAR JBE 120 ML (OFFENBACH)           0000000
NO000027650000009000793FG550963  20160613130000308007501537100612031800002250000000142601000637DAVID PALAFOX SALAS           000030800PARACETAMOL 160 MG/5 ML SOL 120 ML      PROSEDAL 160 MG/5 ML SOL 120 ML (LOEFFLE0000000
NO000027650000009000793FG550963  20160613130000308007502009744563072900003640000000488201000637DAVID PALAFOX SALAS           000030800SILDENAFIL 50 MG 10 TABL                SILDENAFIL 50 MG 10 TABS (SERRAL)       0000000
NO000027651000009000168A90004213 20160614130000308377501672600305028900025740000000120001000637DAVID PALAFOX SALAS           000030837NAPROXENO SODICO/PARACETAMOL 125/100 MG ARXEN COMPOSITUM 125-100 MG/5 ML SUSP 800000000
NO000027652000009000498A1330     20160614130000306080873360001082070000006720000000264601000637DAVID PALAFOX SALAS           000030608VITAMINA C GOMITAS                      VITAMINA C GOMITAS                      0000000
NO000027652000009000498A1330     20160614130000306080873360000023072600006480000000126301000637DAVID PALAFOX SALAS           000030608PALETA DE MIEL DE ABEJA Y PROPOLEO 12 PZPALETA DE MIEL DE ABEJA Y PROPOLEO 12 PZ0000000
NO000027653000009000392IQ44768   20160614130000308187501571201436002100003480000000079001000637DAVID PALAFOX SALAS           000030818ACIDO RETINOICO 0.05% CREMA 20 G        ACIDO RETINOICO 0.05% CREMA 20 G        0000000
NO000027653000009000392IQ44768   20160614130000308187501571200231015400008820000000072001000637DAVID PALAFOX SALAS           000030818DEXTROMETORFANO 300 MG/100 ML JBE 120 MLDEXTROMETORFANO 300 MG/100 ML JBE 120 ML0000000
NO000027653000009000392IQ44768   20160614130000308187501571200606026800030130000000028001000637DAVID PALAFOX SALAS           000030818METOCLOPRAMIDA 10 MG 20 TABL            METOCLOPRAMIDA 10 MG 20 TABL            0000000
NO000027654000009000816129       20160614130000306167501476021023014400058000000000043001000637DAVID PALAFOX SALAS           000030616DEXAMETASONA SOL INY 1X2 ML 8 MG        DEXAMETASONA SOL INY 1X2 ML 8 MG        0000000
NO000027655000009000419FGI21022  20160615130000308077503004908530048800004000000000150001000637DAVID PALAFOX SALAS           000030807ALENDRONATO 10 MG 30 TABL               DRONADIL 10 MG 30 TABS                  0000000
NO000027656000009000419FGI21023  20160615130000308077503004908714028100050000000000060001000637DAVID PALAFOX SALAS           000030807MICONAZOL AL 2% CREMA TUBO 20 G         MICONAZOL CREMA 2% 20 G                 0000000
NO000027657000009000391EV13540   20160615130000308197501251600184008900002760000000169010000637DAVID PALAFOX SALAS           000030819CARTILAGO DE TIBURON 600 MG 99 COMP     CARTILAGO DE TIBURON 600 MG 99 COMP     0000000
NO000027658000009000392IQ44771   20160615130000308407501571201511006800328260000000072001000637DAVID PALAFOX SALAS           000030840BETAMETASONA/CLOTRIMAZOL/GENTAMICINA 0.0BETAMETASONA/CLOTRIMAZOL/GENTAMICINA 0.00000000
NO00002765900000900049420143995  20160615130000308207506272401451047800008250000000031505000637DAVID PALAFOX SALAS           000030820BICARBONATO DE SODIO 100 GRS            BICARBONATO DE SODIO 100 GRS            0000000
NO00002765900000900049420143995  20160615130000308207506272401543048200004000000000040105000637DAVID PALAFOX SALAS           000030820POMADA DE PAN PUERCO 50 G               POMADA DE PAN PUERCO 50 G               0000000
NO00002765900000900049420143995  20160615130000308207506272400447048400006000000000043105000637DAVID PALAFOX SALAS           000030820ACEITE DE ALMENDRAS DULCES 50 ML        ACEITE DE ALMENDRAS DULCES 50 ML        0000000
NO000027660000009000712FA24859   20160615130000308240000075050788062900006400000000163201000637DAVID PALAFOX SALAS           000030824GENTAMICINA 3 MG SOL OFT 5 ML           GENTAMICINA SOL OFT 5 ML                0000000
NO000027660000009000712FA24859   20160615130000308240000075049812063000006400000000132501000637DAVID PALAFOX SALAS           000030824TIMOLOL AL 5% SOL OFT 5 ML (EXAKTA)     TIMOLOL AL 5% SOL OFT 5 ML (EXAKTA)     0000000
NO000027660000009000712FA24859   20160615130000308240000075050764081100006000000000194301000637DAVID PALAFOX SALAS           000030824NEOMICINA/POLIMIXINA B/BACITRACINA 3.5 MNEOMICINA/POLIMIXINA B/BACITRACINA 3.5 M0000000
NO000027661000009001142A9162     20160616130000308117502004530017044700069600000000021405000637DAVID PALAFOX SALAS           000030811VENDA ELASTICA 5 CM X 5 MTS             VENDA ELASTICA 5 CM X 5 MTS             0000000
NO000027661000009001142A9162     20160616130000308117502256330052094300002150000000022005000637DAVID PALAFOX SALAS           000030811ALGODON ABSORBENTE 25 G                 ALGODON ABSORBENTE 25 G                 0000000
NO000027662000009001142A9165     20160616130000308117502004530758056400004000000000021505000637DAVID PALAFOX SALAS           000030811AGUA OXIGENADA 100 ML                   AGUA OXIGENADA 100 ML                   0000000
NO0000276630000090004488976      20160616130000308087501620339554021300002360000000155001000637DAVID PALAFOX SALAS           000030808GENTAMICINA INF 20 MG SOL INY 5 AMP 2 MLGENTAMICINA INF 20 MG SOL INY 5 AMP 2 ML0000000
NO0000276630000090004488976      20160616130000308087501620329555021400002500000000035501000637DAVID PALAFOX SALAS           000030808GENTAMICINA INF 20 MG SOL INY 1 AMP 2 MLGENTAMICINA INF 20 MG SOL INY 1 AMP 2 ML0000000
NO000027664000009000670403414554920160617130000308387501349021440003800120740000000081901000637DAVID PALAFOX SALAS           000030838AMIKACINA 500 MG 1 AMP 2 ML             AMIKACINA 500 MG 1 AMP 2 ML             0000000
NO000027664000009000670403414554920160617130000308387501349021846004400003780000000163801000637DAVID PALAFOX SALAS           000030838AMOXICILINA 500 MG SUSP                 AMOXICILINA 500 MG SUSP                 0000000
NO000027664000009000670403414554920160617130000308387501349021051005300004000000000088201000637DAVID PALAFOX SALAS           000030838AMPICILINA 500 MG 1 AMP 2 ML            AMPICILINA 500 MG 1 AMP 2 ML            0000000
NO000027664000009000670403414554920160617130000308387501349021365062100072200000000163801000637DAVID PALAFOX SALAS           000030838AMPICILINA 500 MG 20 TABS               AMPICILINA 500 MG 20 TABS               0000000
NO000027664000009000670403414554920160617130000308387501349024625080800008800000000168401000637DAVID PALAFOX SALAS           000030838ATORVASTATINA 20 MG 10 TABS             ATORVASTATINA 20 MG 10 TABS             0000000
NO000027665000009000670403414555020160617130000308387501349022171006200012000000000054201000637DAVID PALAFOX SALAS           000030838BENCILPENICILINA 400 000 UI 1 AMP 2 ML  BENCILPENICILINA 400 000 UI 1 AMP 2 ML  0000000
NO000027665000009000670403414555020160617130000308387501349021495006300112000000000058301000637DAVID PALAFOX SALAS           000030838BENCILPENICILINA 800 000 U AMP          BENCILPENICILINA 800 000 U AMP          0000000
NO000027665000009000670403414555020160617130000308387501349022157009700001620000000175001000637DAVID PALAFOX SALAS           000030838CEFOTAXIMA 1 G SOL INY IM 1 AMP 4 ML    CEFOTAXIMA 1 G SOL INY IM 1 AMP 4 ML    0000000
NO000027665000009000670403414555020160617130000308387501349022539009900019200000000220401000637DAVID PALAFOX SALAS           000030838CEFTAZIDIMA 1 G SOL INY 1 AMP 3 ML      CEFTAZIDIMA 1 G SOL INY 1 AMP 3 ML      0000000
NO000027665000009000670403414555020160617130000308387501349021013011100014040000000130101000637DAVID PALAFOX SALAS           000030838CLINDAMICINA 600 MG 4 ML                CLINDAMICINA 600 MG 4 ML                0000000
NO000027665000009000670403414555020160617130000308387501349028753011400013200000000119601000637DAVID PALAFOX SALAS           000030838CLORANFENICOL 0.5% MG GTS OFT 15 ML     CLORANFENICOL 0.5% MG GTS OFT 15 ML     0000000
NO000027665000009000670403414555020160617130000308387501349024861020600009000000000116601000637DAVID PALAFOX SALAS           000030838FLUOXETINA 20 MG 14 TABL                FLUOXETINA 20 MG 14 TABL                0000000
NO000027665000009000670403414555020160617130000308387501349027657028600029700000000109601000637DAVID PALAFOX SALAS           000030838NAFAZOLINA 0.1 G SOL OFT 15 ML          NAFAZOLINA 0.1 G SOL OFT 15 ML          0000000
NO000027665000009000670403414555020160617130000308387501349028425033700002400000000119701000637DAVID PALAFOX SALAS           000030838RANITIDINA 50 MG 5 AMP 2 ML             RANITIDINA 50 MG 5 AMP 2 ML             0000000
NO000027665000009000670403414555020160617130000308387501349024632049300002400000000100301000637DAVID PALAFOX SALAS           000030838METOCLOPRAMIDA 10 MG 6 AMP 2 ML         METOCLOPRAMIDA 10 MG 6 AMP 2 ML         0000000
NO000027665000009000670403414555020160617130000308387501349028982059800004800000000056001000637DAVID PALAFOX SALAS           000030838DIFENIDOL GI 40 MG 2 AMPS               DIFENIDOL GI 40 MG 2 AMPS               0000000
NO000027665000009000670403414555020160617130000308387501349023369073400030000000000126001000637DAVID PALAFOX SALAS           000030838KETOROLACO 30 MG 6 TABL SUBL            KETOROLACO 30 MG 6 TABL SUBL            0000000
NO0000276660000090007095923      20160617130000306917502213049201100100009000000001400001000637DAVID PALAFOX SALAS           000030691SALMETEROL/FLUTICASONA 50/100 MCG INHALASALMETEROL/FLUTICASONA 50/100 MCG INHALA0000000
NO0000276670000090012341374      20160617130000307967502240450636030900044160000000070001000637DAVID PALAFOX SALAS           000030796OMEPRAZOL 20 MG 14 CAPS                 OMEPRAZOL 20 MG 14 CAPS                 0000000
NO0000276670000090012341374      20160617130000307960008400007063044300003000000000246001000637DAVID PALAFOX SALAS           000030796NAFAZOLINA AL 1% GTS NASALES 15 ML      NAFAZOLINA AL 1% GTS NASALES 15 ML      0000000
NO0000276670000090012341374      20160617130000307960008400007698052600003360000000150001000637DAVID PALAFOX SALAS           000030796CLORANFENICOL 5 MG UNG OFT TBO 5 G      CLORANFENICOL 5 MG UNG OFT TBO 5 G      0000000
NO0000276670000090012341374      20160617130000307967502240450230080700008400000000146501000637DAVID PALAFOX SALAS           000030796AMANTADINA/PARACE/CLORFE 0.5/3/1.02G SOLAMANTADINA/PARACE/CLORFE 0.5/3/1.02G SOL0000000
NO0000276680000090004142462      20160617130000308337501075717020026600018000000000085001000637DAVID PALAFOX SALAS           000030833METFORMINA 850 MG 30 TABL               METFORMINA 850 MG 30 TABL               0000000
NO0000276680000090004142462      20160617130000308337501075714173026900038000000000065001000637DAVID PALAFOX SALAS           000030833METOPROLOL 100 MG 20 TABL               METOPROLOL 100 MG 20 TABL               0000000
NO0000276680000090004142462      20160617130000308337501075713473034600003800000000200001000637DAVID PALAFOX SALAS           000030833SECNIDAZOL 500 MG 8 COMP                SECNIDAZOL 500 MG 8 COMP                0000000
NO00002766900000900037325741     20160620130000308037502003381610103900004500000000339001000637DAVID PALAFOX SALAS           000030803CARISOPRODOL/DICLOFENACO 200/50 MG 20 TADUOFLEX 200/50 MG 20 TABS               0000000
NO00002766900000900037325741     20160620130000308037502003385366104000004500000000484001000637DAVID PALAFOX SALAS           000030803OMEPRAZOL 40 MG 14 CAPS                 NOVOLEXIN 40 MG 14 CAPS                 0000000
NO00002766900000900037325741     20160620130000308037502003380712104600004500000000231000000637DAVID PALAFOX SALAS           000030803TRIMETOPRIMA/SULFAMETOXAZOL/AMBROXOL 14 BROGAMAX 160/800/30 MG 14 TABS          0000000
NO00002767000000900119459        20160620130000307787501472260356104100004500000000310010000637DAVID PALAFOX SALAS           000030778EXTRACTO DE HOJAS DE GUAYABA 500 MG 30 TLEAVES GUABA 500 MG 30 TABS             0000000
NO000027671000009000670403414577320160620130000308387501349011649041100053280000000101101000637DAVID PALAFOX SALAS           000030838SUERO ORAL MANZANA 500 ML               SUERO ORAL MANZANA 500 ML               0000000
