0100017778MUNOZ SANCHEZ MARIA SOLEDAD             GONTOR    20160501050103000000000001000
1300024815DE LA ROSA LOPEZ JUAN GABRIEL           GONTOR    20160501050103000000000005000
0100026065PEREZ ZARATE ALFREDO                    GONTOR    20160501050103000000000002000
1300065273PAIZ DE JESUS ALFONSO                   GONTOR    20160501050103000000000008100
0100017778MUNOZ SANCHEZ MARIA SOLEDAD             GONTOR    20160502050103000000000002000
1300024815DE LA ROSA LOPEZ JUAN GABRIEL           GONTOR    20160502050103000000000004000
1300041331ORTEGA CONTRERAS FRANCISCA              GONTOR    20160502050103000000000001000
1300041331ORTEGA CONTRERAS FRANCISCA              IMPERIALES20160502050103000000000004350
1300069405MEJIA RODRIGUEZ ALFONSO                 GONTOR    20160502050103000000000001000
1300065273PAIZ DE JESUS ALFONSO                   GONTOR    20160503050103000000000008000
1300069405MEJIA RODRIGUEZ ALFONSO                 GONTOR    20160503050103000000000004000
1300069405MEJIA RODRIGUEZ ALFONSO                 IMPERIALES20160503050103000000000018100
1300024815DE LA ROSA LOPEZ JUAN GABRIEL           GONTOR    20160504050103000000000001000
0100026065PEREZ ZARATE ALFREDO                    GONTOR    20160504050103000000000001000
1300041331ORTEGA CONTRERAS FRANCISCA              GONTOR    20160504050103000000000001000
1300065273PAIZ DE JESUS ALFONSO                   GONTOR    20160504050103000000000002000
1300065273PAIZ DE JESUS ALFONSO                   IMPERIALES20160504050103000000000005800
1300069405MEJIA RODRIGUEZ ALFONSO                 GONTOR    20160504050103000000000008000
1300065273PAIZ DE JESUS ALFONSO                   GONTOR    20160505050103000000000005000
1300069405MEJIA RODRIGUEZ ALFONSO                 GONTOR    20160505050103000000000004000
1300024815DE LA ROSA LOPEZ JUAN GABRIEL           GONTOR    20160506050103000000000002000
0100026065PEREZ ZARATE ALFREDO                    GONTOR    20160506050103000000000005000
1300041331ORTEGA CONTRERAS FRANCISCA              GONTOR    20160506050103000000000002000
1300069405MEJIA RODRIGUEZ ALFONSO                 GONTOR    20160506050103000000000006000
1300065273PAIZ DE JESUS ALFONSO                   IMPERIALES20160507050103000000000009250
1300065273PAIZ DE JESUS ALFONSO                   GONTOR    20160508050103000000000002100
1300024815DE LA ROSA LOPEZ JUAN GABRIEL           GONTOR    20160510050103000000000008000
1300024815DE LA ROSA LOPEZ JUAN GABRIEL           IMPERIALES20160510050103000000000018300
1300065273PAIZ DE JESUS ALFONSO                   GONTOR    20160510050103000000000018300
0100017778MUNOZ SANCHEZ MARIA SOLEDAD             GONTOR    20160511050103000000000003000
1300024815DE LA ROSA LOPEZ JUAN GABRIEL           GONTOR    20160511050103000000000005000
1300041331ORTEGA CONTRERAS FRANCISCA              GONTOR    20160511050103000000000001000
1300041331ORTEGA CONTRERAS FRANCISCA              IMPERIALES20160511050103000000000004350
1300069405MEJIA RODRIGUEZ ALFONSO                 GONTOR    20160511050103000000000001000
1300065273PAIZ DE JESUS ALFONSO                   GONTOR    20160512050103000000000002000
1300069405MEJIA RODRIGUEZ ALFONSO                 GONTOR    20160512050103000000000002000
0100017778MUNOZ SANCHEZ MARIA SOLEDAD             GONTOR    20160513050103000000000006200
1300065273PAIZ DE JESUS ALFONSO                   GONTOR    20160513050103000000000005000
0100017778MUNOZ SANCHEZ MARIA SOLEDAD             GONTOR    20160514050103000000000002000
1300065273PAIZ DE JESUS ALFONSO                   GONTOR    20160514050103000000000003000
1300069405MEJIA RODRIGUEZ ALFONSO                 GONTOR    20160514050103000000000004000
1300024815DE LA ROSA LOPEZ JUAN GABRIEL           GONTOR    20160515050103000000000002000
1300065273PAIZ DE JESUS ALFONSO                   IMPERIALES20160515050103000000000004350
0100017778MUNOZ SANCHEZ MARIA SOLEDAD             GONTOR    20160516050103000000000001000
1300024815DE LA ROSA LOPEZ JUAN GABRIEL           GONTOR    20160516050103000000000002000
0100026065PEREZ ZARATE ALFREDO                    GONTOR    20160516050103000000000002000
1300065273PAIZ DE JESUS ALFONSO                   GONTOR    20160516050103000000000011100
1300065273PAIZ DE JESUS ALFONSO                   IMPERIALES20160516050103000000000003500
1300069405MEJIA RODRIGUEZ ALFONSO                 GONTOR    20160516050103000000000001000
1300024815DE LA ROSA LOPEZ JUAN GABRIEL           GONTOR    20160517050103000000000007500
0100056639RAYGOZA RODRIGUEZ EDMUNDO MARTIN        GONTOR    20160517050103000000000001000
1300069405MEJIA RODRIGUEZ ALFONSO                 GONTOR    20160517050103000000000002000
1300065273PAIZ DE JESUS ALFONSO                   IMPERIALES20160518050103000000000004350
1300024815DE LA ROSA LOPEZ JUAN GABRIEL           IMPERIALES20160519050103000000000011000
1300065273PAIZ DE JESUS ALFONSO                   GONTOR    20160519050103000000000011700
1300069405MEJIA RODRIGUEZ ALFONSO                 GONTOR    20160519050103000000000001000
1300069405MEJIA RODRIGUEZ ALFONSO                 IMPERIALES20160519050103000000000008700
1300024815DE LA ROSA LOPEZ JUAN GABRIEL           GONTOR    20160520050103000000000003500
1300065273PAIZ DE JESUS ALFONSO                   GONTOR    20160520050103000000000001000
1300065273PAIZ DE JESUS ALFONSO                   IMPERIALES20160520050103000000000003500
1300069405MEJIA RODRIGUEZ ALFONSO                 GONTOR    20160520050103000000000001000
1300069405MEJIA RODRIGUEZ ALFONSO                 GONTOR    20160521050103000000000007000
0100017778MUNOZ SANCHEZ MARIA SOLEDAD             IMPERIALES20160522050103000000000011600
1300024815DE LA ROSA LOPEZ JUAN GABRIEL           GONTOR    20160522050103000000000003500
1300069405MEJIA RODRIGUEZ ALFONSO                 IMPERIALES20160523050103000000000003500
1300065273PAIZ DE JESUS ALFONSO                   GONTOR    20160525050103000000000009500
1300069405MEJIA RODRIGUEZ ALFONSO                 GONTOR    20160525050103000000000003500
1300024815DE LA ROSA LOPEZ JUAN GABRIEL           IMPERIALES20160526050103000000000004450
1300069405MEJIA RODRIGUEZ ALFONSO                 GONTOR    20160528050103000000000003500
1300069405MEJIA RODRIGUEZ ALFONSO                 IMPERIALES20160528050103000000000003500
1300065273PAIZ DE JESUS ALFONSO                   GONTOR    20160531050103000000000008800
1300076752HIDALGO GARCIA DOMINGA                  GONTOR    20160501050105000000000002000
1300035835SANCHEZ GUZMAN NORMA                    IMPERIALES20160503050105000000000007800
1300076752HIDALGO GARCIA DOMINGA                  GONTOR    20160504050105000000000003500
1300035835SANCHEZ GUZMAN NORMA                    GONTOR    20160505050105000000000015800
1300061377MENDOZA BARRIOS GUSTAVO                 IMPERIALES20160505050105000000000008150
1300061377MENDOZA BARRIOS GUSTAVO                 GONTOR    20160506050105000000000014500
1300076752HIDALGO GARCIA DOMINGA                  GONTOR    20160506050105000000000008150
1300035835SANCHEZ GUZMAN NORMA                    IMPERIALES20160507050105000000000018100
1300061377MENDOZA BARRIOS GUSTAVO                 IMPERIALES20160507050105000000000005000
1300076752HIDALGO GARCIA DOMINGA                  GONTOR    20160507050105000000000005100
1300061377MENDOZA BARRIOS GUSTAVO                 GONTOR    20160508050105000000000006000
1300054672ROSAS JIMENEZ JOSE AMBROSIO LUIS        GONTOR    20160510050105000000000006800
1300061377MENDOZA BARRIOS GUSTAVO                 GONTOR    20160511050105000000000005100
1300076752HIDALGO GARCIA DOMINGA                  GONTOR    20160511050105000000000003150
1300076752HIDALGO GARCIA DOMINGA                  IMPERIALES20160511050105000000000007250
1300029625GARCIA TORIBIO ELPIDIO                  GONTOR    20160512050105000000000008150
1300061377MENDOZA BARRIOS GUSTAVO                 GONTOR    20160512050105000000000001000
1300076752HIDALGO GARCIA DOMINGA                  IMPERIALES20160512050105000000000005650
1300029625GARCIA TORIBIO ELPIDIO                  GONTOR    20160514050105000000000001900
1300035835SANCHEZ GUZMAN NORMA                    GONTOR    20160514050105000000000005100
1300035835SANCHEZ GUZMAN NORMA                    GONTOR    20160515050105000000000005000
1300035835SANCHEZ GUZMAN NORMA                    IMPERIALES20160515050105000000000004150
1300076752HIDALGO GARCIA DOMINGA                  GONTOR    20160515050105000000000020000
1300076752HIDALGO GARCIA DOMINGA                  IMPERIALES20160516050105000000000018300
1300076752HIDALGO GARCIA DOMINGA                  GONTOR    20160517050105000000000014700
1300076752HIDALGO GARCIA DOMINGA                  IMPERIALES20160517050105000000000007650
1300061377MENDOZA BARRIOS GUSTAVO                 GONTOR    20160518050105000000000004400
1300076752HIDALGO GARCIA DOMINGA                  GONTOR    20160518050105000000000005100
1300076752HIDALGO GARCIA DOMINGA                  IMPERIALES20160518050105000000000004150
0100025325GUADARRAMA ATRISCO RICARDO              GONTOR    20160519050105000000000006150
1300029625GARCIA TORIBIO ELPIDIO                  GONTOR    20160519050105000000000001000
1300076752HIDALGO GARCIA DOMINGA                  IMPERIALES20160519050105000000000008150
1300035835SANCHEZ GUZMAN NORMA                    IMPERIALES20160520050105000000000008150
1300029625GARCIA TORIBIO ELPIDIO                  GONTOR    20160521050105000000000001000
1300029625GARCIA TORIBIO ELPIDIO                  IMPERIALES20160521050105000000000002150
1300035835SANCHEZ GUZMAN NORMA                    GONTOR    20160521050105000000000004400
0100056639RAYGOZA RODRIGUEZ EDMUNDO MARTIN        IMPERIALES20160521050105000000000004150
0100029526SANCHEZ MORENO CARLOS OSCAR             IMPERIALES20160523050105000000000007800
1300035835SANCHEZ GUZMAN NORMA                    GONTOR    20160523050105000000000004000
1300035835SANCHEZ GUZMAN NORMA                    IMPERIALES20160523050105000000000011000
0100025325GUADARRAMA ATRISCO RICARDO              IMPERIALES20160524050105000000000003150
1300035835SANCHEZ GUZMAN NORMA                    GONTOR    20160524050105000000000006150
1300035835SANCHEZ GUZMAN NORMA                    IMPERIALES20160524050105000000000002150
1300054672ROSAS JIMENEZ JOSE AMBROSIO LUIS        IMPERIALES20160524050105000000000007000
1300029625GARCIA TORIBIO ELPIDIO                  IMPERIALES20160525050105000000000024900
1300054672ROSAS JIMENEZ JOSE AMBROSIO LUIS        IMPERIALES20160525050105000000000003150
1300035835SANCHEZ GUZMAN NORMA                    GONTOR    20160526050105000000000002000
1300035835SANCHEZ GUZMAN NORMA                    GONTOR    20160527050105000000000001000
1300035835SANCHEZ GUZMAN NORMA                    IMPERIALES20160527050105000000000018500
1300029625GARCIA TORIBIO ELPIDIO                  IMPERIALES20160528050105000000000028150
1300029625GARCIA TORIBIO ELPIDIO                  IMPERIALES20160529050105000000000006650
1300029625GARCIA TORIBIO ELPIDIO                  GONTOR    20160530050105000000000017600
0100056639RAYGOZA RODRIGUEZ EDMUNDO MARTIN        IMPERIALES20160530050105000000000018300
1300076752HIDALGO GARCIA DOMINGA                  GONTOR    20160530050105000000000004400
1300076752HIDALGO GARCIA DOMINGA                  IMPERIALES20160530050105000000000003500
1300029625GARCIA TORIBIO ELPIDIO                  IMPERIALES20160531050105000000000011000
1300035835SANCHEZ GUZMAN NORMA                    IMPERIALES20160531050105000000000026000
1300076752HIDALGO GARCIA DOMINGA                  IMPERIALES20160531050105000000000022100
0100003977CASTULO TREJO MA TERESA                 GONTOR    20160502050106000000000012500
0000060177SANCHEZ ROJAS JUANA ISELA               IMPERIALES20160503050106000000000018100
1300076014TORRES MARQUEZ ARACELI                  GONTOR    20160503050106000000000001900
1300076014TORRES MARQUEZ ARACELI                  IMPERIALES20160507050106000000000021600
0100003977CASTULO TREJO MA TERESA                 IMPERIALES20160511050106000000000011000
0100003977CASTULO TREJO MA TERESA                 GONTOR    20160512050106000000000003500
1300076014TORRES MARQUEZ ARACELI                  IMPERIALES20160512050106000000000003500
1300076014TORRES MARQUEZ ARACELI                  GONTOR    20160513050106000000000008500
1300076014TORRES MARQUEZ ARACELI                  GONTOR    20160514050106000000000003250
1300076014TORRES MARQUEZ ARACELI                  IMPERIALES20160517050106000000000006650
0100003977CASTULO TREJO MA TERESA                 GONTOR    20160518050106000000000011400
1300076014TORRES MARQUEZ ARACELI                  IMPERIALES20160521050106000000000004150
0100003977CASTULO TREJO MA TERESA                 IMPERIALES20160530050106000000000004400
1300060962ESCAMILLA MEZA FRANCISCO JAVIER         GONTOR    20160502050107000000000006150
1300060962ESCAMILLA MEZA FRANCISCO JAVIER         GONTOR    20160503050107000000000001000
0100061443RAMIREZ MERCADO MONICA                  GONTOR    20160503050107000000000002000
1300075918MELGAREJO RODRIGUEZ SELENE              GONTOR    20160503050107000000000005000
0100061443RAMIREZ MERCADO MONICA                  GONTOR    20160506050107000000000002000
1300060962ESCAMILLA MEZA FRANCISCO JAVIER         GONTOR    20160507050107000000000002000
1300060962ESCAMILLA MEZA FRANCISCO JAVIER         GONTOR    20160508050107000000000001000
1300060962ESCAMILLA MEZA FRANCISCO JAVIER         GONTOR    20160510050107000000000001400
0100055212GARDUNO DIAZ JUAN TIRZO                 GONTOR    20160511050107000000000004400
1300060962ESCAMILLA MEZA FRANCISCO JAVIER         GONTOR    20160511050107000000000001000
1300075918MELGAREJO RODRIGUEZ SELENE              GONTOR    20160511050107000000000001000
1300060962ESCAMILLA MEZA FRANCISCO JAVIER         GONTOR    20160512050107000000000006400
0100061443RAMIREZ MERCADO MONICA                  GONTOR    20160512050107000000000006150
0100061443RAMIREZ MERCADO MONICA                  GONTOR    20160513050107000000000001000
0100055212GARDUNO DIAZ JUAN TIRZO                 GONTOR    20160514050107000000000004400
0100061443RAMIREZ MERCADO MONICA                  GONTOR    20160515050107000000000001000
1300075918MELGAREJO RODRIGUEZ SELENE              GONTOR    20160515050107000000000001000
0100055212GARDUNO DIAZ JUAN TIRZO                 GONTOR    20160517050107000000000001000
0100061443RAMIREZ MERCADO MONICA                  GONTOR    20160517050107000000000004400
1300075918MELGAREJO RODRIGUEZ SELENE              GONTOR    20160519050107000000000001000
1300075918MELGAREJO RODRIGUEZ SELENE              GONTOR    20160520050107000000000005800
1300060962ESCAMILLA MEZA FRANCISCO JAVIER         IMPERIALES20160521050107000000000018300
0100061443RAMIREZ MERCADO MONICA                  GONTOR    20160522050107000000000001000
1300060962ESCAMILLA MEZA FRANCISCO JAVIER         GONTOR    20160523050107000000000001000
0100061443RAMIREZ MERCADO MONICA                  GONTOR    20160523050107000000000001000
0100061443RAMIREZ MERCADO MONICA                  GONTOR    20160525050107000000000001000
1300060962ESCAMILLA MEZA FRANCISCO JAVIER         GONTOR    20160526050107000000000006400
0100061443RAMIREZ MERCADO MONICA                  GONTOR    20160527050107000000000005300
1300075918MELGAREJO RODRIGUEZ SELENE              IMPERIALES20160527050107000000000004450
1300060962ESCAMILLA MEZA FRANCISCO JAVIER         GONTOR    20160528050107000000000001000
1300075918MELGAREJO RODRIGUEZ SELENE              GONTOR    20160528050107000000000001000
1300075918MELGAREJO RODRIGUEZ SELENE              GONTOR    20160529050107000000000007300
1300060962ESCAMILLA MEZA FRANCISCO JAVIER         GONTOR    20160530050107000000000001000
1300075918MELGAREJO RODRIGUEZ SELENE              GONTOR    20160530050107000000000001000
1300060962ESCAMILLA MEZA FRANCISCO JAVIER         IMPERIALES20160531050107000000000003200
1300075918MELGAREJO RODRIGUEZ SELENE              GONTOR    20160531050107000000000004500
0100002288SALVADOR MEXICANO VERONICA              GONTOR    20160501050108000000000006000
1300077453ARROYO CABRERA HILDA                    GONTOR    20160501050108000000000002000
1300077453ARROYO CABRERA HILDA                    IMPERIALES20160501050108000000000018300
0100002288SALVADOR MEXICANO VERONICA              GONTOR    20160502050108000000000004400
0100026709AVILA ONTIVEROS MONICA                  GONTOR    20160502050108000000000001000
1300066889VILLAR RUIZ OSIRIS IRMA                 GONTOR    20160502050108000000000006000
1300077453ARROYO CABRERA HILDA                    GONTOR    20160502050108000000000003000
1300077453ARROYO CABRERA HILDA                    IMPERIALES20160502050108000000000003500
0100002288SALVADOR MEXICANO VERONICA              GONTOR    20160503050108000000000003000
0100026709AVILA ONTIVEROS MONICA                  GONTOR    20160503050108000000000002000
1300066889VILLAR RUIZ OSIRIS IRMA                 GONTOR    20160503050108000000000009800
1300066889VILLAR RUIZ OSIRIS IRMA                 IMPERIALES20160503050108000000000019300
1300077453ARROYO CABRERA HILDA                    GONTOR    20160503050108000000000001000
0100002288SALVADOR MEXICANO VERONICA              GONTOR    20160504050108000000000007000
0100026709AVILA ONTIVEROS MONICA                  GONTOR    20160504050108000000000006000
0100026709AVILA ONTIVEROS MONICA                  IMPERIALES20160504050108000000000006700
1300077453ARROYO CABRERA HILDA                    GONTOR    20160504050108000000000001000
0100026709AVILA ONTIVEROS MONICA                  GONTOR    20160505050108000000000004000
0100026709AVILA ONTIVEROS MONICA                  IMPERIALES20160505050108000000000018300
1300066889VILLAR RUIZ OSIRIS IRMA                 GONTOR    20160505050108000000000001000
1300066889VILLAR RUIZ OSIRIS IRMA                 IMPERIALES20160505050108000000000005650
1300077453ARROYO CABRERA HILDA                    GONTOR    20160505050108000000000002000
0100002288SALVADOR MEXICANO VERONICA              GONTOR    20160506050108000000000003000
1300077453ARROYO CABRERA HILDA                    GONTOR    20160506050108000000000011400
0100026709AVILA ONTIVEROS MONICA                  GONTOR    20160509050108000000000001000
1300066889VILLAR RUIZ OSIRIS IRMA                 GONTOR    20160509050108000000000001000
1300066889VILLAR RUIZ OSIRIS IRMA                 GONTOR    20160510050108000000000004000
1300077453ARROYO CABRERA HILDA                    GONTOR    20160510050108000000000004000
1300066889VILLAR RUIZ OSIRIS IRMA                 GONTOR    20160511050108000000000002000
1300077453ARROYO CABRERA HILDA                    GONTOR    20160511050108000000000002000
0100026709AVILA ONTIVEROS MONICA                  GONTOR    20160512050108000000000001000
1300077453ARROYO CABRERA HILDA                    GONTOR    20160512050108000000000001000
0100002288SALVADOR MEXICANO VERONICA              GONTOR    20160513050108000000000002000
1300066889VILLAR RUIZ OSIRIS IRMA                 GONTOR    20160513050108000000000003000
1300077453ARROYO CABRERA HILDA                    IMPERIALES20160513050108000000000007250
1300066889VILLAR RUIZ OSIRIS IRMA                 GONTOR    20160514050108000000000002000
1300077453ARROYO CABRERA HILDA                    GONTOR    20160514050108000000000002000
1300077453ARROYO CABRERA HILDA                    IMPERIALES20160514050108000000000007250
0100002288SALVADOR MEXICANO VERONICA              GONTOR    20160515050108000000000008000
0100002288SALVADOR MEXICANO VERONICA              IMPERIALES20160515050108000000000006300
0100026709AVILA ONTIVEROS MONICA                  GONTOR    20160515050108000000000002000
0100002288SALVADOR MEXICANO VERONICA              GONTOR    20160516050108000000000005100
0100026709AVILA ONTIVEROS MONICA                  GONTOR    20160516050108000000000002000
1300066889VILLAR RUIZ OSIRIS IRMA                 GONTOR    20160516050108000000000009150
1300077453ARROYO CABRERA HILDA                    GONTOR    20160516050108000000000005000
1300077453ARROYO CABRERA HILDA                    IMPERIALES20160516050108000000000019600
0100026709AVILA ONTIVEROS MONICA                  GONTOR    20160517050108000000000017300
0100026709AVILA ONTIVEROS MONICA                  IMPERIALES20160517050108000000000006000
0100002288SALVADOR MEXICANO VERONICA              GONTOR    20160518050108000000000005100
0100026709AVILA ONTIVEROS MONICA                  GONTOR    20160518050108000000000004400
0100026709AVILA ONTIVEROS MONICA                  IMPERIALES20160518050108000000000021800
1300066889VILLAR RUIZ OSIRIS IRMA                 GONTOR    20160518050108000000000006050
1300066889VILLAR RUIZ OSIRIS IRMA                 IMPERIALES20160518050108000000000019350
1300066889VILLAR RUIZ OSIRIS IRMA                 GONTOR    20160519050108000000000004400
1300066889VILLAR RUIZ OSIRIS IRMA                 GONTOR    20160520050108000000000006050
1300077453ARROYO CABRERA HILDA                    GONTOR    20160521050108000000000003500
1300077453ARROYO CABRERA HILDA                    IMPERIALES20160522050108000000000018300
0100026709AVILA ONTIVEROS MONICA                  GONTOR    20160523050108000000000003500
0100026709AVILA ONTIVEROS MONICA                  IMPERIALES20160525050108000000000013750
1300066889VILLAR RUIZ OSIRIS IRMA                 IMPERIALES20160525050108000000000022100
0100002288SALVADOR MEXICANO VERONICA              IMPERIALES20160526050108000000000022600
1300066889VILLAR RUIZ OSIRIS IRMA                 GONTOR    20160526050108000000000021100
0100026709AVILA ONTIVEROS MONICA                  IMPERIALES20160527050108000000000022100
1300066889VILLAR RUIZ OSIRIS IRMA                 IMPERIALES20160528050108000000000003500
1300077453ARROYO CABRERA HILDA                    GONTOR    20160529050108000000000004400
1300077453ARROYO CABRERA HILDA                    IMPERIALES20160529050108000000000004400
1300066889VILLAR RUIZ OSIRIS IRMA                 IMPERIALES20160530050108000000000018300
1300027759ANGELES FLORES MA DEL CARMEN            GONTOR    20160501050109000000000003300
1300069129HERNANDEZ MALDONADO MARIA DE LA LUZ     GONTOR    20160501050109000000000006200
1300043499RAMIREZ FIGUEROA ERNESTO                GONTOR    20160504050109000000000001000
1300069129HERNANDEZ MALDONADO MARIA DE LA LUZ     IMPERIALES20160505050109000000000018300
1300043499RAMIREZ FIGUEROA ERNESTO                GONTOR    20160507050109000000000003500
1300069129HERNANDEZ MALDONADO MARIA DE LA LUZ     GONTOR    20160509050109000000000001000
1300027759ANGELES FLORES MA DEL CARMEN            GONTOR    20160510050109000000000001000
1300027759ANGELES FLORES MA DEL CARMEN            GONTOR    20160512050109000000000002000
1300069129HERNANDEZ MALDONADO MARIA DE LA LUZ     GONTOR    20160512050109000000000001000
1300043499RAMIREZ FIGUEROA ERNESTO                GONTOR    20160514050109000000000001000
1300069129HERNANDEZ MALDONADO MARIA DE LA LUZ     GONTOR    20160514050109000000000001000
1300027759ANGELES FLORES MA DEL CARMEN            GONTOR    20160515050109000000000004400
1300069129HERNANDEZ MALDONADO MARIA DE LA LUZ     GONTOR    20160515050109000000000002000
0100029523GONZALEZ CASTELAN ELIZABETH             IMPERIALES20160516050109000000000004400
1300043499RAMIREZ FIGUEROA ERNESTO                IMPERIALES20160522050109000000000003500
1300027759ANGELES FLORES MA DEL CARMEN            IMPERIALES20160523050109000000000004400
0100029523GONZALEZ CASTELAN ELIZABETH             GONTOR    20160524050109000000000001000
1300027759ANGELES FLORES MA DEL CARMEN            GONTOR    20160525050109000000000001000
0100076471VILLEGAS CAMPUZANO VERONICA             GONTOR    20160528050109000000000001000
1300027759ANGELES FLORES MA DEL CARMEN            GONTOR    20160529050109000000000002000
1300027759ANGELES FLORES MA DEL CARMEN            GONTOR    20160530050109000000000001000
1300006767MIRANDA TINO EMMA LOURDES               GONTOR    20160501050112000000000002900
1300006767MIRANDA TINO EMMA LOURDES               IMPERIALES20160501050112000000000005000
1300006767MIRANDA TINO EMMA LOURDES               GONTOR    20160503050112000000000005400
1300006767MIRANDA TINO EMMA LOURDES               IMPERIALES20160503050112000000000003150
1300049936VASCONSELOS JIMENEZ MA. DE LOURDES      IMPERIALES20160505050112000000000007700
1300006767MIRANDA TINO EMMA LOURDES               IMPERIALES20160509050112000000000007700
0100001276ZARAGOZA LINARES MARTIN                 IMPERIALES20160510050112000000000007700
1300006767MIRANDA TINO EMMA LOURDES               GONTOR    20160510050112000000000002900
1300006767MIRANDA TINO EMMA LOURDES               GONTOR    20160512050112000000000006050
1300006767MIRANDA TINO EMMA LOURDES               IMPERIALES20160512050112000000000007700
1300049936VASCONSELOS JIMENEZ MA. DE LOURDES      IMPERIALES20160512050112000000000018300
1300006767MIRANDA TINO EMMA LOURDES               IMPERIALES20160514050112000000000012050
1300006767MIRANDA TINO EMMA LOURDES               GONTOR    20160516050112000000000002900
1300006767MIRANDA TINO EMMA LOURDES               IMPERIALES20160516050112000000000014950
1300006767MIRANDA TINO EMMA LOURDES               GONTOR    20160518050112000000000011400
1300049936VASCONSELOS JIMENEZ MA. DE LOURDES      IMPERIALES20160520050112000000000018300
0100062316CRUZ TORRES VIRIDIANA                   GONTOR    20160524050112000000000003600
1300006767MIRANDA TINO EMMA LOURDES               IMPERIALES20160527050112000000000007700
1300006767MIRANDA TINO EMMA LOURDES               IMPERIALES20160530050112000000000009200
1300045198ESPINOZA AVENA DIANA                    IMPERIALES20160502050114000000000011250
1300045198ESPINOZA AVENA DIANA                    IMPERIALES20160504050114000000000005405
0100020130CAMACHO BELTRAN MARIBEL                 GONTOR    20160506050114000000000001000
0100020130CAMACHO BELTRAN MARIBEL                 IMPERIALES20160509050114000000000010625
1300051156PERALTA PEREZ MARIA FLAVIA              IMPERIALES20160510050114000000000012325
0100020130CAMACHO BELTRAN MARIBEL                 IMPERIALES20160512050114000000000007000
1300070415MENDOZA ORTIZ LIDIA                     IMPERIALES20160512050114000000000002125
1300051156PERALTA PEREZ MARIA FLAVIA              GONTOR    20160513050114000000000002001
1300051156PERALTA PEREZ MARIA FLAVIA              GONTOR    20160514050114000000000002625
1300070415MENDOZA ORTIZ LIDIA                     GONTOR    20160514050114000000000005002
1300070415MENDOZA ORTIZ LIDIA                     GONTOR    20160515050114000000000002001
1300070415MENDOZA ORTIZ LIDIA                     IMPERIALES20160515050114000000000007000
1300051156PERALTA PEREZ MARIA FLAVIA              IMPERIALES20160517050114000000000007250
1300070415MENDOZA ORTIZ LIDIA                     GONTOR    20160521050114000000000003500
1300051156PERALTA PEREZ MARIA FLAVIA              GONTOR    20160524050114000000000006600
1300070415MENDOZA ORTIZ LIDIA                     IMPERIALES20160524050114000000000003500
0100020130CAMACHO BELTRAN MARIBEL                 IMPERIALES20160527050114000000000007000
0100020130CAMACHO BELTRAN MARIBEL                 GONTOR    20160531050114000000000007250
0100076821MEDINA CASTILLO GUADALUPOE              IMPERIALES20160504050116000000000004350
0100058279HERNANDEZ ROJAS MARIBEL                 GONTOR    20160505050116000000000012500
0000079349ESTEBAN NICOLAS ANABEL YARET            IMPERIALES20160507050116000000000018100
0100076821MEDINA CASTILLO GUADALUPOE              IMPERIALES20160509050116000000000007950
0000079316GIL ALVARADO JESSICA                    IMPERIALES20160511050116000000000018300
0100027731TORRECILLA SOLANO MARIO                 GONTOR    20160512050116000000000002400
0100076821MEDINA CASTILLO GUADALUPOE              IMPERIALES20160512050116000000000007000
0100027731TORRECILLA SOLANO MARIO                 IMPERIALES20160514050116000000000002800
0100058279HERNANDEZ ROJAS MARIBEL                 IMPERIALES20160514050116000000000002150
0000079316GIL ALVARADO JESSICA                    IMPERIALES20160518050116000000000018300
0100076821MEDINA CASTILLO GUADALUPOE              GONTOR    20160520050116000000000003250
0000079349ESTEBAN NICOLAS ANABEL YARET            GONTOR    20160520050116000000000012500
0100076821MEDINA CASTILLO GUADALUPOE              GONTOR    20160521050116000000000018650
0100058279HERNANDEZ ROJAS MARIBEL                 GONTOR    20160527050116000000000006400
0000079316GIL ALVARADO JESSICA                    IMPERIALES20160528050116000000000018300
0100058279HERNANDEZ ROJAS MARIBEL                 GONTOR    20160529050116000000000009850
0100058279HERNANDEZ ROJAS MARIBEL                 IMPERIALES20160530050116000000000004400
0100058279HERNANDEZ ROJAS MARIBEL                 IMPERIALES20160531050116000000000004450
0100076821MEDINA CASTILLO GUADALUPOE              IMPERIALES20160531050116000000000013150
0100051218GOMEZ GALAS ALFREDO                     GONTOR    20160501050129000000000002000
1300061660ORNELAS LAZARO JUANA LUISA              GONTOR    20160502050129000000000002000
0100063299ROSAS HERNANDEZ LAURA                   GONTOR    20160502050129000000000003500
0100051218GOMEZ GALAS ALFREDO                     GONTOR    20160503050129000000000002000
0100051218GOMEZ GALAS ALFREDO                     GONTOR    20160504050129000000000016000
1300061660ORNELAS LAZARO JUANA LUISA              IMPERIALES20160504050129000000000018300
0100051218GOMEZ GALAS ALFREDO                     GONTOR    20160505050129000000000006500
0100052619MORALES CASTANEDA FRANCISCO             GONTOR    20160505050129000000000002000
0100063299ROSAS HERNANDEZ LAURA                   GONTOR    20160505050129000000000002000
0100052619MORALES CASTANEDA FRANCISCO             IMPERIALES20160506050129000000000002800
1300061660ORNELAS LAZARO JUANA LUISA              GONTOR    20160506050129000000000001000
1300061660ORNELAS LAZARO JUANA LUISA              IMPERIALES20160507050129000000000003500
1300061660ORNELAS LAZARO JUANA LUISA              IMPERIALES20160508050129000000000012250
0100051218GOMEZ GALAS ALFREDO                     IMPERIALES20160509050129000000000004300
0100052619MORALES CASTANEDA FRANCISCO             GONTOR    20160509050129000000000003150
1300061660ORNELAS LAZARO JUANA LUISA              GONTOR    20160509050129000000000002000
1300061660ORNELAS LAZARO JUANA LUISA              IMPERIALES20160509050129000000000007250
1300075926RAMIREZ MARQUEZ PAMELA                  IMPERIALES20160510050129000000000002800
0100052619MORALES CASTANEDA FRANCISCO             IMPERIALES20160511050129000000000018300
1300061660ORNELAS LAZARO JUANA LUISA              GONTOR    20160511050129000000000003000
1300061660ORNELAS LAZARO JUANA LUISA              IMPERIALES20160511050129000000000006650
1300054672ROSAS JIMENEZ JOSE AMBROSIO LUIS        GONTOR    20160513050129000000000003000
1300054672ROSAS JIMENEZ JOSE AMBROSIO LUIS        IMPERIALES20160514050129000000000007000
0100063299ROSAS HERNANDEZ LAURA                   GONTOR    20160514050129000000000001000
1300061660ORNELAS LAZARO JUANA LUISA              GONTOR    20160515050129000000000003000
1300061660ORNELAS LAZARO JUANA LUISA              GONTOR    20160516050129000000000006400
0100063299ROSAS HERNANDEZ LAURA                   IMPERIALES20160516050129000000000013150
1300061660ORNELAS LAZARO JUANA LUISA              GONTOR    20160517050129000000000001000
1300061660ORNELAS LAZARO JUANA LUISA              IMPERIALES20160517050129000000000013150
0100051218GOMEZ GALAS ALFREDO                     GONTOR    20160518050129000000000002000
1300054672ROSAS JIMENEZ JOSE AMBROSIO LUIS        GONTOR    20160518050129000000000002500
0100063299ROSAS HERNANDEZ LAURA                   IMPERIALES20160518050129000000000003750
1300061660ORNELAS LAZARO JUANA LUISA              IMPERIALES20160519050129000000000003500
0100063299ROSAS HERNANDEZ LAURA                   IMPERIALES20160520050129000000000008000
1300061660ORNELAS LAZARO JUANA LUISA              GONTOR    20160521050129000000000004400
1300061660ORNELAS LAZARO JUANA LUISA              IMPERIALES20160521050129000000000002800
0100051218GOMEZ GALAS ALFREDO                     GONTOR    20160522050129000000000001000
1300061660ORNELAS LAZARO JUANA LUISA              GONTOR    20160523050129000000000003750
1300061660ORNELAS LAZARO JUANA LUISA              IMPERIALES20160523050129000000000003750
1300076752HIDALGO GARCIA DOMINGA                  IMPERIALES20160523050129000000000018300
0100063299ROSAS HERNANDEZ LAURA                   IMPERIALES20160524050129000000000002800
1300076752HIDALGO GARCIA DOMINGA                  GONTOR    20160524050129000000000004400
0100051218GOMEZ GALAS ALFREDO                     GONTOR    20160525050129000000000003500
0100051218GOMEZ GALAS ALFREDO                     IMPERIALES20160525050129000000000022100
0100063299ROSAS HERNANDEZ LAURA                   GONTOR    20160526050129000000000001000
0100063299ROSAS HERNANDEZ LAURA                   GONTOR    20160527050129000000000001000
1300035835SANCHEZ GUZMAN NORMA                    IMPERIALES20160530050129000000000013200
0000079349ESTEBAN NICOLAS ANABEL                  IMPERIALES20160502050193000000000022063
1300043499RAMIREZ FIGUEROA ERNESTO                IMPERIALES20160508050193000000000004125
0000079349ESTEBAN NICOLAS ANABEL                  IMPERIALES20160509050193000000000004350
0000079349ESTEBAN NICOLAS ANABEL                  GONTOR    20160510050193000000000003500
1300043499RAMIREZ FIGUEROA ERNESTO                IMPERIALES20160524050193000000000008004
0000079349ESTEBAN NICOLAS ANABEL                  IMPERIALES20160528050193000000000007300
0100021527TORRES MONDRAGON SANDRA                 GONTOR    20160501050201000000000001000
1300045652FIGUEROA DELGADO LIDIA                  IMPERIALES20160502050201000000000004350
1300045652FIGUEROA DELGADO LIDIA                  GONTOR    20160503050201000000000005750
1300045652FIGUEROA DELGADO LIDIA                  IMPERIALES20160504050201000000000006625
1300070917AVELINO REYES DANIEL                    IMPERIALES20160504050201000000000018300
1300070917AVELINO REYES DANIEL                    GONTOR    20160506050201000000000002000
0100021527TORRES MONDRAGON SANDRA                 GONTOR    20160507050201000000000000986
1300070917AVELINO REYES DANIEL                    GONTOR    20160508050201000000000001000
1300045652FIGUEROA DELGADO LIDIA                  GONTOR    20160511050201000000000002957
1300070917AVELINO REYES DANIEL                    GONTOR    20160511050201000000000007000
1300045652FIGUEROA DELGADO LIDIA                  GONTOR    20160512050201000000000001000
0100021527TORRES MONDRAGON SANDRA                 GONTOR    20160513050201000000000001000
0100021527TORRES MONDRAGON SANDRA                 IMPERIALES20160513050201000000000018300
1300045652FIGUEROA DELGADO LIDIA                  GONTOR    20160513050201000000000002001
1300045652FIGUEROA DELGADO LIDIA                  GONTOR    20160514050201000000000001000
1300045652FIGUEROA DELGADO LIDIA                  GONTOR    20160515050201000000000001000
0100021527TORRES MONDRAGON SANDRA                 GONTOR    20160516050201000000000001000
1300070917AVELINO REYES DANIEL                    GONTOR    20160516050201000000000000957
1300045652FIGUEROA DELGADO LIDIA                  GONTOR    20160517050201000000000000957
1300070917AVELINO REYES DANIEL                    GONTOR    20160517050201000000000001000
1300045652FIGUEROA DELGADO LIDIA                  GONTOR    20160518050201000000000001000
1300070917AVELINO REYES DANIEL                    GONTOR    20160518050201000000000001000
0100021527TORRES MONDRAGON SANDRA                 GONTOR    20160520050201000000000006250
1300045652FIGUEROA DELGADO LIDIA                  GONTOR    20160521050201000000000001000
0100021527TORRES MONDRAGON SANDRA                 GONTOR    20160522050201000000000015500
0100021527TORRES MONDRAGON SANDRA                 IMPERIALES20160522050201000000000018300
1300045652FIGUEROA DELGADO LIDIA                  GONTOR    20160524050201000000000001000
1300070917AVELINO REYES DANIEL                    IMPERIALES20160528050201000000000018300
0100021527TORRES MONDRAGON SANDRA                 IMPERIALES20160529050201000000000004408
1300070917AVELINO REYES DANIEL                    GONTOR    20160529050201000000000001000
1300045652FIGUEROA DELGADO LIDIA                  GONTOR    20160530050201000000000003000
1300067880MORENO IZQUIERDO JOSE DE JESUS          GONTOR    20160503050202000000000008150
1300025708VAZQUEZ CONTRERAS SILVESTRE             GONTOR    20160507050202000000000001000
1300067880MORENO IZQUIERDO JOSE DE JESUS          IMPERIALES20160508050202000000000018100
1300073299ARRIAGA SOLEDAD RICARDO                 IMPERIALES20160508050202000000000002150
1300073299ARRIAGA SOLEDAD RICARDO                 GONTOR    20160509050202000000000002000
1300073299ARRIAGA SOLEDAD RICARDO                 GONTOR    20160512050202000000000005500
1300025708VAZQUEZ CONTRERAS SILVESTRE             GONTOR    20160513050202000000000001000
1300067880MORENO IZQUIERDO JOSE DE JESUS          GONTOR    20160513050202000000000002000
1300073299ARRIAGA SOLEDAD RICARDO                 GONTOR    20160513050202000000000001000
1300073299ARRIAGA SOLEDAD RICARDO                 IMPERIALES20160519050202000000000018300
1300025708VAZQUEZ CONTRERAS SILVESTRE             IMPERIALES20160525050202000000000004150
1300073299ARRIAGA SOLEDAD RICARDO                 GONTOR    20160526050202000000000008800
0100000118RAMIREZ MEDINA JOSE                     GONTOR    20160529050202000000000002000
0900032386BENITEZ ROBLEDO THELMA PATRICIA         IMPERIALES20160505050501000000000006563
0900061579VAZQUEZ REYES GLORIA MARIA              IMPERIALES20160505050501000000000005000
0900062037CARLISLE LOPEZ ROSA ELIA                GONTOR    20160509050501000000000012500
0900021591DIAZ MORELOS LORENZO                    IMPERIALES20160513050501000000000010000
0900021591DIAZ MORELOS LORENZO                    IMPERIALES20160514050501000000000018300
0900021591DIAZ MORELOS LORENZO                    IMPERIALES20160515050501000000000007250
0900005638GOMEZ REA ROSARIO                       IMPERIALES20160516050501000000000002784
0900073876AGUIRRE TIRADO VICTOR MANUEL            GONTOR    20160517050501000000000025000
0900073876AGUIRRE TIRADO VICTOR MANUEL            GONTOR    20160518050501000000000002500
0900032386BENITEZ ROBLEDO THELMA PATRICIA         GONTOR    20160519050501000000000010000
0900062037CARLISLE LOPEZ ROSA ELIA                GONTOR    20160521050501000000000006960
0900062037CARLISLE LOPEZ ROSA ELIA                GONTOR    20160523050501000000000006960
0900021591DIAZ MORELOS LORENZO                    GONTOR    20160528050501000000000007000
0900021591DIAZ MORELOS LORENZO                    GONTOR    20160529050501000000000007000
0900021591DIAZ MORELOS LORENZO                    IMPERIALES20160529050501000000000036600
0900073876AGUIRRE TIRADO VICTOR MANUEL            GONTOR    20160529050501000000000005000
0900073876AGUIRRE TIRADO VICTOR MANUEL            IMPERIALES20160530050501000000000002200
0900003318ALBA GUADALUPE YHI RIVERA               GONTOR    20160502050504000000000005150
0900003318ALBA GUADALUPE YHI RIVERA               IMPERIALES20160513050504000000000018300
0900003318ALBA GUADALUPE YHI RIVERA               GONTOR    20160529050504000000000005150
0900061883ELIZALDE GARCIA FAUSTO CARLOS           GONTOR    20160511050511000000000006150
1300020375FABIOLA LOPEZ BOJORQUEZ                 GONTOR    20160518050511000000000006150
0900061883ELIZALDE GARCIA FAUSTO CARLOS           GONTOR    20160519050511000000000012500
0900030369LOPEZ VILLA LAURA                       IMPERIALES20160531050511000000000007300
0000072927MARCELENO GOMEZ SARAHI TERESA           IMPERIALES20160518050552000000000018300
0000074190MARQUEZ ALATORRE ALONSO                 GONTOR    20160524050552000000000006960
0000069117ROSALES VILLASENOR MARIA DE LA LUZ      IMPERIALES20160531050552000000000018300
0000077098GREEN PEDRIN PERLA   ELIZABETH          GONTOR    20160501050812000000000005800
0000071725GARCIA MURILLO VIVIANA                  GONTOR    20160503050812000000000005800
0000071725GARCIA MURILLO VIVIANA                  GONTOR    20160505050812000000000005800
0000071725GARCIA MURILLO VIVIANA                  GONTOR    20160512050812000000000005800
0000071725GARCIA MURILLO VIVIANA                  GONTOR    20160525050812000000000005800
0000071725GARCIA MURILLO VIVIANA                  IMPERIALES20160525050812000000000018300
