1300024815DE LA ROSA LOPEZ JUAN GABRIEL           GONTOR    20151101110103000000000021000
0100026065PEREZ ZARATE ALFREDO                    GONTOR    20151101110103000000000002000
1300077583MILA PADILLA LUIS ARMANDO               GONTOR    20151101110103000000000013500
1300079680CORTEZ CAHUANTZI FATIMA ALEJANDRA       GONTOR    20151101110103000000000011000
1300019782SOLIS FAVELA ARACELI                    GONTOR    20151102110103000000000009000
0100026065PEREZ ZARATE ALFREDO                    GONTOR    20151102110103000000000003000
1300065273PAIZ DE JESUS ALFONSO                   GONTOR    20151102110103000000000033000
1300077583MILA PADILLA LUIS ARMANDO               GONTOR    20151102110103000000000009700
1300079680CORTEZ CAHUANTZI FATIMA ALEJANDRA       GONTOR    20151102110103000000000005000
1300019782SOLIS FAVELA ARACELI                    GONTOR    20151103110103000000000010200
1300065273PAIZ DE JESUS ALFONSO                   GONTOR    20151103110103000000000008000
1300065273PAIZ DE JESUS ALFONSO                   IMPERIALES20151103110103000000000002155
1300077583MILA PADILLA LUIS ARMANDO               GONTOR    20151103110103000000000007500
1300079680CORTEZ CAHUANTZI FATIMA ALEJANDRA       GONTOR    20151103110103000000000006000
1300019782SOLIS FAVELA ARACELI                    GONTOR    20151104110103000000000020100
1300065273PAIZ DE JESUS ALFONSO                   GONTOR    20151104110103000000000022350
1300077583MILA PADILLA LUIS ARMANDO               GONTOR    20151104110103000000000016050
1300079680CORTEZ CAHUANTZI FATIMA ALEJANDRA       GONTOR    20151104110103000000000023000
1300019782SOLIS FAVELA ARACELI                    GONTOR    20151105110103000000000010900
0100026065PEREZ ZARATE ALFREDO                    GONTOR    20151105110103000000000002000
1300065273PAIZ DE JESUS ALFONSO                   GONTOR    20151105110103000000000052450
1300065273PAIZ DE JESUS ALFONSO                   IMPERIALES20151105110103000000000002600
1300077583MILA PADILLA LUIS ARMANDO               GONTOR    20151105110103000000000011200
1300079680CORTEZ CAHUANTZI FATIMA ALEJANDRA       GONTOR    20151105110103000000000015450
1300019782SOLIS FAVELA ARACELI                    GONTOR    20151106110103000000000001000
1300024815DE LA ROSA LOPEZ JUAN GABRIEL           GONTOR    20151106110103000000000027650
1300041331ORTEGA CONTRERAS FRANCISCA              GONTOR    20151106110103000000000001000
1300065273PAIZ DE JESUS ALFONSO                   GONTOR    20151106110103000000000017050
1300065273PAIZ DE JESUS ALFONSO                   IMPERIALES20151106110103000000000018100
1300079680CORTEZ CAHUANTZI FATIMA ALEJANDRA       GONTOR    20151106110103000000000002000
1300019782SOLIS FAVELA ARACELI                    GONTOR    20151107110103000000000023450
1300019782SOLIS FAVELA ARACELI                    IMPERIALES20151107110103000000000007450
1300024815DE LA ROSA LOPEZ JUAN GABRIEL           GONTOR    20151107110103000000000006000
0100026065PEREZ ZARATE ALFREDO                    GONTOR    20151107110103000000000006000
1300065273PAIZ DE JESUS ALFONSO                   GONTOR    20151107110103000000000004000
1300077583MILA PADILLA LUIS ARMANDO               GONTOR    20151107110103000000000034950
1300077583MILA PADILLA LUIS ARMANDO               IMPERIALES20151107110103000000000009050
1300019782SOLIS FAVELA ARACELI                    GONTOR    20151108110103000000000014800
0100026065PEREZ ZARATE ALFREDO                    GONTOR    20151108110103000000000003000
1300065273PAIZ DE JESUS ALFONSO                   GONTOR    20151108110103000000000035200
1300065273PAIZ DE JESUS ALFONSO                   IMPERIALES20151108110103000000000002600
1300079680CORTEZ CAHUANTZI FATIMA ALEJANDRA       GONTOR    20151108110103000000000001000
1300019782SOLIS FAVELA ARACELI                    GONTOR    20151109110103000000000019700
1300041331ORTEGA CONTRERAS FRANCISCA              GONTOR    20151109110103000000000004450
1300077583MILA PADILLA LUIS ARMANDO               GONTOR    20151109110103000000000028200
1300077583MILA PADILLA LUIS ARMANDO               IMPERIALES20151109110103000000000011000
1300079680CORTEZ CAHUANTZI FATIMA ALEJANDRA       GONTOR    20151109110103000000000001000
1300024815DE LA ROSA LOPEZ JUAN GABRIEL           GONTOR    20151110110103000000000008000
1300065273PAIZ DE JESUS ALFONSO                   GONTOR    20151110110103000000000016450
1300065273PAIZ DE JESUS ALFONSO                   IMPERIALES20151110110103000000000009160
1300077583MILA PADILLA LUIS ARMANDO               GONTOR    20151110110103000000000006000
1300077583MILA PADILLA LUIS ARMANDO               IMPERIALES20151110110103000000000002155
1300079680CORTEZ CAHUANTZI FATIMA ALEJANDRA       GONTOR    20151110110103000000000012900
1300019782SOLIS FAVELA ARACELI                    GONTOR    20151111110103000000000010450
1300024815DE LA ROSA LOPEZ JUAN GABRIEL           GONTOR    20151111110103000000000007050
1300065273PAIZ DE JESUS ALFONSO                   GONTOR    20151111110103000000000019750
1300077583MILA PADILLA LUIS ARMANDO               GONTOR    20151111110103000000000004000
1300019782SOLIS FAVELA ARACELI                    GONTOR    20151112110103000000000011500
1300024815DE LA ROSA LOPEZ JUAN GABRIEL           GONTOR    20151112110103000000000007450
1300065273PAIZ DE JESUS ALFONSO                   GONTOR    20151112110103000000000012900
1300065273PAIZ DE JESUS ALFONSO                   IMPERIALES20151112110103000000000005200
1300077583MILA PADILLA LUIS ARMANDO               GONTOR    20151112110103000000000006400
1300077583MILA PADILLA LUIS ARMANDO               IMPERIALES20151112110103000000000004850
1300079680CORTEZ CAHUANTZI FATIMA ALEJANDRA       GONTOR    20151112110103000000000004000
1300079680CORTEZ CAHUANTZI FATIMA ALEJANDRA       IMPERIALES20151112110103000000000013600
1300019782SOLIS FAVELA ARACELI                    GONTOR    20151113110103000000000016900
1300024815DE LA ROSA LOPEZ JUAN GABRIEL           GONTOR    20151113110103000000000005450
1300065273PAIZ DE JESUS ALFONSO                   GONTOR    20151113110103000000000043150
1300065273PAIZ DE JESUS ALFONSO                   IMPERIALES20151113110103000000000011100
1300079680CORTEZ CAHUANTZI FATIMA ALEJANDRA       GONTOR    20151113110103000000000006000
1300019782SOLIS FAVELA ARACELI                    GONTOR    20151114110103000000000008000
1300019782SOLIS FAVELA ARACELI                    IMPERIALES20151114110103000000000030520
1300024815DE LA ROSA LOPEZ JUAN GABRIEL           GONTOR    20151114110103000000000004000
0100026065PEREZ ZARATE ALFREDO                    GONTOR    20151114110103000000000002000
1300065273PAIZ DE JESUS ALFONSO                   GONTOR    20151114110103000000000021000
1300065273PAIZ DE JESUS ALFONSO                   IMPERIALES20151114110103000000000012650
1300079680CORTEZ CAHUANTZI FATIMA ALEJANDRA       GONTOR    20151114110103000000000001000
1300024815DE LA ROSA LOPEZ JUAN GABRIEL           GONTOR    20151115110103000000000028400
1300024815DE LA ROSA LOPEZ JUAN GABRIEL           IMPERIALES20151115110103000000000004310
0100026065PEREZ ZARATE ALFREDO                    GONTOR    20151115110103000000000003000
1300065273PAIZ DE JESUS ALFONSO                   GONTOR    20151115110103000000000033800
1300065273PAIZ DE JESUS ALFONSO                   IMPERIALES20151115110103000000000002600
1300019782SOLIS FAVELA ARACELI                    GONTOR    20151116110103000000000022800
1300024815DE LA ROSA LOPEZ JUAN GABRIEL           GONTOR    20151116110103000000000022000
0100026065PEREZ ZARATE ALFREDO                    GONTOR    20151116110103000000000006000
1300019782SOLIS FAVELA ARACELI                    GONTOR    20151117110103000000000005000
0100026065PEREZ ZARATE ALFREDO                    GONTOR    20151117110103000000000003000
1300065273PAIZ DE JESUS ALFONSO                   GONTOR    20151117110103000000000009000
1300077583MILA PADILLA LUIS ARMANDO               GONTOR    20151117110103000000000003400
1300079680CORTEZ CAHUANTZI FATIMA ALEJANDRA       GONTOR    20151117110103000000000018300
1300019782SOLIS FAVELA ARACELI                    GONTOR    20151118110103000000000009000
1300019782SOLIS FAVELA ARACELI                    IMPERIALES20151118110103000000000002200
0100026065PEREZ ZARATE ALFREDO                    GONTOR    20151118110103000000000001000
1300065273PAIZ DE JESUS ALFONSO                   GONTOR    20151118110103000000000015400
1300065273PAIZ DE JESUS ALFONSO                   IMPERIALES20151118110103000000000002155
1300077583MILA PADILLA LUIS ARMANDO               GONTOR    20151118110103000000000004000
1300077583MILA PADILLA LUIS ARMANDO               IMPERIALES20151118110103000000000004755
1300079680CORTEZ CAHUANTZI FATIMA ALEJANDRA       GONTOR    20151118110103000000000010300
1300079680CORTEZ CAHUANTZI FATIMA ALEJANDRA       IMPERIALES20151118110103000000000014500
1300019782SOLIS FAVELA ARACELI                    GONTOR    20151119110103000000000010900
1300019782SOLIS FAVELA ARACELI                    IMPERIALES20151119110103000000000000000
1300024815DE LA ROSA LOPEZ JUAN GABRIEL           GONTOR    20151119110103000000000008000
1300024815DE LA ROSA LOPEZ JUAN GABRIEL           IMPERIALES20151119110103000000000014160
1300065273PAIZ DE JESUS ALFONSO                   GONTOR    20151119110103000000000003000
1300077583MILA PADILLA LUIS ARMANDO               GONTOR    20151119110103000000000018000
1300079680CORTEZ CAHUANTZI FATIMA ALEJANDRA       GONTOR    20151119110103000000000005450
1300079680CORTEZ CAHUANTZI FATIMA ALEJANDRA       IMPERIALES20151119110103000000000002155
1300019782SOLIS FAVELA ARACELI                    GONTOR    20151120110103000000000024400
1300019782SOLIS FAVELA ARACELI                    IMPERIALES20151120110103000000000002155
1300024815DE LA ROSA LOPEZ JUAN GABRIEL           GONTOR    20151120110103000000000008900
1300065273PAIZ DE JESUS ALFONSO                   GONTOR    20151120110103000000000014900
1300065273PAIZ DE JESUS ALFONSO                   IMPERIALES20151120110103000000000016900
1300077583MILA PADILLA LUIS ARMANDO               GONTOR    20151120110103000000000018850
1300077583MILA PADILLA LUIS ARMANDO               IMPERIALES20151120110103000000000010050
1300079680CORTEZ CAHUANTZI FATIMA ALEJANDRA       GONTOR    20151120110103000000000002400
0100017778MUNOZ SANCHEZ MARIA SOLEDAD             GONTOR    20151121110103000000000003450
1300019782SOLIS FAVELA ARACELI                    GONTOR    20151121110103000000000010000
1300024815DE LA ROSA LOPEZ JUAN GABRIEL           GONTOR    20151121110103000000000003000
1300077583MILA PADILLA LUIS ARMANDO               GONTOR    20151121110103000000000031800
1300079680CORTEZ CAHUANTZI FATIMA ALEJANDRA       GONTOR    20151121110103000000000032100
0100017778MUNOZ SANCHEZ MARIA SOLEDAD             GONTOR    20151122110103000000000001000
1300024815DE LA ROSA LOPEZ JUAN GABRIEL           GONTOR    20151122110103000000000013000
0100026065PEREZ ZARATE ALFREDO                    GONTOR    20151122110103000000000003400
1300079680CORTEZ CAHUANTZI FATIMA ALEJANDRA       GONTOR    20151122110103000000000028450
1300079680CORTEZ CAHUANTZI FATIMA ALEJANDRA       IMPERIALES20151122110103000000000008665
1300019782SOLIS FAVELA ARACELI                    GONTOR    20151123110103000000000010600
1300024815DE LA ROSA LOPEZ JUAN GABRIEL           GONTOR    20151123110103000000000007000
1300054930NARANJO CAMACHO FELIPE MAURICIO         GONTOR    20151123110103000000000012600
1300065273PAIZ DE JESUS ALFONSO                   GONTOR    20151123110103000000000007400
1300065273PAIZ DE JESUS ALFONSO                   IMPERIALES20151123110103000000000007940
0100017778MUNOZ SANCHEZ MARIA SOLEDAD             GONTOR    20151124110103000000000001000
1300019782SOLIS FAVELA ARACELI                    GONTOR    20151124110103000000000017450
1300054930NARANJO CAMACHO FELIPE MAURICIO         GONTOR    20151124110103000000000007000
1300054930NARANJO CAMACHO FELIPE MAURICIO         IMPERIALES20151124110103000000000002155
1300065273PAIZ DE JESUS ALFONSO                   GONTOR    20151124110103000000000003000
1300065273PAIZ DE JESUS ALFONSO                   IMPERIALES20151124110103000000000002200
1300079680CORTEZ CAHUANTZI FATIMA ALEJANDRA       GONTOR    20151124110103000000000002000
1300019782SOLIS FAVELA ARACELI                    GONTOR    20151125110103000000000009200
1300024815DE LA ROSA LOPEZ JUAN GABRIEL           GONTOR    20151125110103000000000006000
1300024815DE LA ROSA LOPEZ JUAN GABRIEL           IMPERIALES20151125110103000000000007450
1300065273PAIZ DE JESUS ALFONSO                   GONTOR    20151125110103000000000018100
1300079680CORTEZ CAHUANTZI FATIMA ALEJANDRA       GONTOR    20151125110103000000000004000
1300019782SOLIS FAVELA ARACELI                    GONTOR    20151126110103000000000006000
1300019782SOLIS FAVELA ARACELI                    IMPERIALES20151126110103000000000002200
1300024815DE LA ROSA LOPEZ JUAN GABRIEL           GONTOR    20151126110103000000000003000
1300054930NARANJO CAMACHO FELIPE MAURICIO         GONTOR    20151126110103000000000001000
1300065273PAIZ DE JESUS ALFONSO                   GONTOR    20151126110103000000000007200
1300065273PAIZ DE JESUS ALFONSO                   IMPERIALES20151126110103000000000002600
1300079680CORTEZ CAHUANTZI FATIMA ALEJANDRA       GONTOR    20151126110103000000000002000
1300079680CORTEZ CAHUANTZI FATIMA ALEJANDRA       IMPERIALES20151126110103000000000002155
1300019782SOLIS FAVELA ARACELI                    GONTOR    20151127110103000000000003000
1300024815DE LA ROSA LOPEZ JUAN GABRIEL           GONTOR    20151127110103000000000005000
1300024815DE LA ROSA LOPEZ JUAN GABRIEL           IMPERIALES20151127110103000000000020900
0100026065PEREZ ZARATE ALFREDO                    GONTOR    20151127110103000000000005000
1300054930NARANJO CAMACHO FELIPE MAURICIO         GONTOR    20151127110103000000000007000
1300054930NARANJO CAMACHO FELIPE MAURICIO         IMPERIALES20151127110103000000000007600
1300065273PAIZ DE JESUS ALFONSO                   GONTOR    20151127110103000000000010000
1300079680CORTEZ CAHUANTZI FATIMA ALEJANDRA       GONTOR    20151127110103000000000005000
1300019782SOLIS FAVELA ARACELI                    GONTOR    20151128110103000000000008000
1300024815DE LA ROSA LOPEZ JUAN GABRIEL           GONTOR    20151128110103000000000019700
1300024815DE LA ROSA LOPEZ JUAN GABRIEL           IMPERIALES20151128110103000000000002200
0100026065PEREZ ZARATE ALFREDO                    GONTOR    20151128110103000000000004800
1300054930NARANJO CAMACHO FELIPE MAURICIO         GONTOR    20151128110103000000000005000
1300065273PAIZ DE JESUS ALFONSO                   GONTOR    20151128110103000000000005000
1300065273PAIZ DE JESUS ALFONSO                   IMPERIALES20151128110103000000000007050
1300079680CORTEZ CAHUANTZI FATIMA ALEJANDRA       GONTOR    20151128110103000000000003000
1300079680CORTEZ CAHUANTZI FATIMA ALEJANDRA       IMPERIALES20151128110103000000000007700
0100017778MUNOZ SANCHEZ MARIA SOLEDAD             GONTOR    20151129110103000000000001000
1300019782SOLIS FAVELA ARACELI                    GONTOR    20151129110103000000000011000
1300019782SOLIS FAVELA ARACELI                    IMPERIALES20151129110103000000000002155
0100026065PEREZ ZARATE ALFREDO                    GONTOR    20151129110103000000000006000
1300065273PAIZ DE JESUS ALFONSO                   GONTOR    20151129110103000000000019500
1300065273PAIZ DE JESUS ALFONSO                   IMPERIALES20151129110103000000000007005
1300019782SOLIS FAVELA ARACELI                    GONTOR    20151130110103000000000011500
1300019782SOLIS FAVELA ARACELI                    IMPERIALES20151130110103000000000010450
1300024815DE LA ROSA LOPEZ JUAN GABRIEL           GONTOR    20151130110103000000000005000
1300024815DE LA ROSA LOPEZ JUAN GABRIEL           IMPERIALES20151130110103000000000005200
1300041331ORTEGA CONTRERAS FRANCISCA              GONTOR    20151130110103000000000001000
1300054930NARANJO CAMACHO FELIPE MAURICIO         GONTOR    20151130110103000000000014500
1300054930NARANJO CAMACHO FELIPE MAURICIO         IMPERIALES20151130110103000000000017350
1300079680CORTEZ CAHUANTZI FATIMA ALEJANDRA       GONTOR    20151130110103000000000004000
1300061377MENDOZA BARRIOS GUSTAVO                 GONTOR    20151101110105000000000007000
1300061377MENDOZA BARRIOS GUSTAVO                 IMPERIALES20151101110105000000000004400
1300069405MEJIA RODRIGUEZ ALFONSO                 GONTOR    20151101110105000000000014900
1300069405MEJIA RODRIGUEZ ALFONSO                 IMPERIALES20151101110105000000000002850
0100029526SANCHEZ MORENO CARLOS OSCAR             GONTOR    20151102110105000000000002000
1300054672ROSAS JIMENEZ JOSE AMBROSIO LUIS        GONTOR    20151102110105000000000014900
1300054672ROSAS JIMENEZ JOSE AMBROSIO LUIS        IMPERIALES20151102110105000000000005250
1300061377MENDOZA BARRIOS GUSTAVO                 GONTOR    20151102110105000000000007000
1300069405MEJIA RODRIGUEZ ALFONSO                 GONTOR    20151102110105000000000002500
1300073572CABALLERO GARCIA ANGELICA               GONTOR    20151102110105000000000002500
0100029526SANCHEZ MORENO CARLOS OSCAR             GONTOR    20151103110105000000000002500
1300035835SANCHEZ GUZMAN NORMA                    GONTOR    20151103110105000000000014000
1300035835SANCHEZ GUZMAN NORMA                    IMPERIALES20151103110105000000000014755
1300061377MENDOZA BARRIOS GUSTAVO                 GONTOR    20151103110105000000000002500
1300061377MENDOZA BARRIOS GUSTAVO                 IMPERIALES20151103110105000000000004600
1300069405MEJIA RODRIGUEZ ALFONSO                 IMPERIALES20151103110105000000000010350
1300073572CABALLERO GARCIA ANGELICA               GONTOR    20151103110105000000000002500
1300076752HIDALGO GARCIA DOMINGA                  GONTOR    20151103110105000000000004500
1300076752HIDALGO GARCIA DOMINGA                  IMPERIALES20151103110105000000000002155
0100025325GUADARRAMA ATRISCO RICARDO              GONTOR    20151104110105000000000015450
1300035835SANCHEZ GUZMAN NORMA                    GONTOR    20151104110105000000000027600
1300035835SANCHEZ GUZMAN NORMA                    IMPERIALES20151104110105000000000014755
1300061377MENDOZA BARRIOS GUSTAVO                 GONTOR    20151104110105000000000020850
1300076752HIDALGO GARCIA DOMINGA                  GONTOR    20151104110105000000000014850
1300076752HIDALGO GARCIA DOMINGA                  IMPERIALES20151104110105000000000004310
1300079475TINAJERO SALGADO LEONEL                 IMPERIALES20151104110105000000000004355
1300035835SANCHEZ GUZMAN NORMA                    GONTOR    20151105110105000000000012750
1300035835SANCHEZ GUZMAN NORMA                    IMPERIALES20151105110105000000000005200
1300069405MEJIA RODRIGUEZ ALFONSO                 GONTOR    20151105110105000000000010450
1300069405MEJIA RODRIGUEZ ALFONSO                 IMPERIALES20151105110105000000000011550
1300076752HIDALGO GARCIA DOMINGA                  GONTOR    20151105110105000000000012900
1300076752HIDALGO GARCIA DOMINGA                  IMPERIALES20151105110105000000000009605
1300035835SANCHEZ GUZMAN NORMA                    GONTOR    20151106110105000000000016000
1300035835SANCHEZ GUZMAN NORMA                    IMPERIALES20151106110105000000000007800
1300061377MENDOZA BARRIOS GUSTAVO                 GONTOR    20151106110105000000000004000
1300061377MENDOZA BARRIOS GUSTAVO                 IMPERIALES20151106110105000000000002155
1300076752HIDALGO GARCIA DOMINGA                  GONTOR    20151106110105000000000008900
1300076752HIDALGO GARCIA DOMINGA                  IMPERIALES20151106110105000000000005200
1300035835SANCHEZ GUZMAN NORMA                    GONTOR    20151107110105000000000006450
1300035835SANCHEZ GUZMAN NORMA                    IMPERIALES20151107110105000000000006200
1300054672ROSAS JIMENEZ JOSE AMBROSIO LUIS        GONTOR    20151107110105000000000005900
1300054672ROSAS JIMENEZ JOSE AMBROSIO LUIS        IMPERIALES20151107110105000000000002155
1300069405MEJIA RODRIGUEZ ALFONSO                 GONTOR    20151107110105000000000002000
1300076752HIDALGO GARCIA DOMINGA                  GONTOR    20151107110105000000000002450
1300076752HIDALGO GARCIA DOMINGA                  IMPERIALES20151107110105000000000010100
1300035835SANCHEZ GUZMAN NORMA                    GONTOR    20151108110105000000000008900
1300035835SANCHEZ GUZMAN NORMA                    IMPERIALES20151108110105000000000002200
1300035835SANCHEZ GUZMAN NORMA                    GONTOR    20151109110105000000000010500
1300035835SANCHEZ GUZMAN NORMA                    IMPERIALES20151109110105000000000021600
1300054672ROSAS JIMENEZ JOSE AMBROSIO LUIS        GONTOR    20151109110105000000000002450
1300054672ROSAS JIMENEZ JOSE AMBROSIO LUIS        IMPERIALES20151109110105000000000002155
1300069405MEJIA RODRIGUEZ ALFONSO                 GONTOR    20151109110105000000000004450
1300069405MEJIA RODRIGUEZ ALFONSO                 IMPERIALES20151109110105000000000002155
1300076752HIDALGO GARCIA DOMINGA                  GONTOR    20151109110105000000000004000
1300076752HIDALGO GARCIA DOMINGA                  IMPERIALES20151109110105000000000002850
0100025325GUADARRAMA ATRISCO RICARDO              GONTOR    20151110110105000000000038000
1300035835SANCHEZ GUZMAN NORMA                    GONTOR    20151110110105000000000007900
1300035835SANCHEZ GUZMAN NORMA                    IMPERIALES20151110110105000000000004850
1300054672ROSAS JIMENEZ JOSE AMBROSIO LUIS        IMPERIALES20151110110105000000000007855
1300069405MEJIA RODRIGUEZ ALFONSO                 IMPERIALES20151110110105000000000009050
1300076752HIDALGO GARCIA DOMINGA                  GONTOR    20151110110105000000000003450
1300076752HIDALGO GARCIA DOMINGA                  IMPERIALES20151110110105000000000002350
1300029625GARCIA TORIBIO ELPIDIO                  GONTOR    20151111110105000000000002450
1300035835SANCHEZ GUZMAN NORMA                    GONTOR    20151111110105000000000007450
1300035835SANCHEZ GUZMAN NORMA                    IMPERIALES20151111110105000000000007250
1300069405MEJIA RODRIGUEZ ALFONSO                 GONTOR    20151111110105000000000002450
1300069405MEJIA RODRIGUEZ ALFONSO                 IMPERIALES20151111110105000000000004310
1300076752HIDALGO GARCIA DOMINGA                  GONTOR    20151111110105000000000006900
1300076752HIDALGO GARCIA DOMINGA                  IMPERIALES20151111110105000000000003850
1300079475TINAJERO SALGADO LEONEL                 IMPERIALES20151111110105000000000004310
1300054672ROSAS JIMENEZ JOSE AMBROSIO LUIS        GONTOR    20151112110105000000000002450
1300054672ROSAS JIMENEZ JOSE AMBROSIO LUIS        IMPERIALES20151112110105000000000007160
1300069405MEJIA RODRIGUEZ ALFONSO                 GONTOR    20151112110105000000000008900
1300069405MEJIA RODRIGUEZ ALFONSO                 IMPERIALES20151112110105000000000002350
1300073572CABALLERO GARCIA ANGELICA               GONTOR    20151112110105000000000006450
1300076752HIDALGO GARCIA DOMINGA                  GONTOR    20151112110105000000000007450
1300076752HIDALGO GARCIA DOMINGA                  IMPERIALES20151112110105000000000002155
0100025325GUADARRAMA ATRISCO RICARDO              IMPERIALES20151113110105000000000002155
1300054672ROSAS JIMENEZ JOSE AMBROSIO LUIS        GONTOR    20151113110105000000000005000
1300054672ROSAS JIMENEZ JOSE AMBROSIO LUIS        IMPERIALES20151113110105000000000018100
1300069405MEJIA RODRIGUEZ ALFONSO                 GONTOR    20151113110105000000000002000
1300079475TINAJERO SALGADO LEONEL                 GONTOR    20151113110105000000000023600
1300079475TINAJERO SALGADO LEONEL                 IMPERIALES20151113110105000000000002850
0100029526SANCHEZ MORENO CARLOS OSCAR             GONTOR    20151114110105000000000006450
1300035835SANCHEZ GUZMAN NORMA                    GONTOR    20151114110105000000000002450
1300054672ROSAS JIMENEZ JOSE AMBROSIO LUIS        GONTOR    20151114110105000000000009700
1300054672ROSAS JIMENEZ JOSE AMBROSIO LUIS        IMPERIALES20151114110105000000000010155
1300069405MEJIA RODRIGUEZ ALFONSO                 GONTOR    20151114110105000000000015800
1300073572CABALLERO GARCIA ANGELICA               GONTOR    20151114110105000000000002450
1300076752HIDALGO GARCIA DOMINGA                  GONTOR    20151114110105000000000004450
1300076752HIDALGO GARCIA DOMINGA                  IMPERIALES20151114110105000000000024452
1300079475TINAJERO SALGADO LEONEL                 GONTOR    20151114110105000000000001000
1300079475TINAJERO SALGADO LEONEL                 IMPERIALES20151114110105000000000007800
1300069405MEJIA RODRIGUEZ ALFONSO                 GONTOR    20151115110105000000000010900
1300069405MEJIA RODRIGUEZ ALFONSO                 IMPERIALES20151115110105000000000009050
1300076752HIDALGO GARCIA DOMINGA                  GONTOR    20151115110105000000000012650
1300076752HIDALGO GARCIA DOMINGA                  IMPERIALES20151115110105000000000011450
1300054672ROSAS JIMENEZ JOSE AMBROSIO LUIS        GONTOR    20151116110105000000000038450
1300054672ROSAS JIMENEZ JOSE AMBROSIO LUIS        IMPERIALES20151116110105000000000018050
1300079475TINAJERO SALGADO LEONEL                 GONTOR    20151116110105000000000010450
1300035835SANCHEZ GUZMAN NORMA                    GONTOR    20151117110105000000000002450
1300035835SANCHEZ GUZMAN NORMA                    IMPERIALES20151117110105000000000002155
1300054672ROSAS JIMENEZ JOSE AMBROSIO LUIS        GONTOR    20151117110105000000000002450
1300061377MENDOZA BARRIOS GUSTAVO                 IMPERIALES20151117110105000000000002200
1300076752HIDALGO GARCIA DOMINGA                  GONTOR    20151117110105000000000006450
1300035835SANCHEZ GUZMAN NORMA                    GONTOR    20151118110105000000000020900
1300035835SANCHEZ GUZMAN NORMA                    IMPERIALES20151118110105000000000013300
1300054672ROSAS JIMENEZ JOSE AMBROSIO LUIS        GONTOR    20151118110105000000000010200
1300054672ROSAS JIMENEZ JOSE AMBROSIO LUIS        IMPERIALES20151118110105000000000013400
1300061377MENDOZA BARRIOS GUSTAVO                 GONTOR    20151118110105000000000007350
1300073572CABALLERO GARCIA ANGELICA               GONTOR    20151118110105000000000007350
1300073572CABALLERO GARCIA ANGELICA               IMPERIALES20151118110105000000000011850
1300079475TINAJERO SALGADO LEONEL                 GONTOR    20151118110105000000000002450
1300035835SANCHEZ GUZMAN NORMA                    GONTOR    20151119110105000000000011800
1300054672ROSAS JIMENEZ JOSE AMBROSIO LUIS        GONTOR    20151119110105000000000002450
1300061377MENDOZA BARRIOS GUSTAVO                 GONTOR    20151119110105000000000002450
1300076752HIDALGO GARCIA DOMINGA                  GONTOR    20151119110105000000000008900
1300054672ROSAS JIMENEZ JOSE AMBROSIO LUIS        GONTOR    20151120110105000000000008350
1300061377MENDOZA BARRIOS GUSTAVO                 GONTOR    20151120110105000000000002450
1300061377MENDOZA BARRIOS GUSTAVO                 IMPERIALES20151120110105000000000002850
1300076752HIDALGO GARCIA DOMINGA                  GONTOR    20151120110105000000000009800
1300076752HIDALGO GARCIA DOMINGA                  IMPERIALES20151120110105000000000002850
1300079475TINAJERO SALGADO LEONEL                 GONTOR    20151120110105000000000003600
1300035835SANCHEZ GUZMAN NORMA                    GONTOR    20151121110105000000000015200
1300054672ROSAS JIMENEZ JOSE AMBROSIO LUIS        GONTOR    20151121110105000000000002000
1300061377MENDOZA BARRIOS GUSTAVO                 GONTOR    20151121110105000000000002450
1300073572CABALLERO GARCIA ANGELICA               GONTOR    20151121110105000000000001000
1300076752HIDALGO GARCIA DOMINGA                  IMPERIALES20151121110105000000000002850
1300079475TINAJERO SALGADO LEONEL                 GONTOR    20151121110105000000000002000
1300061377MENDOZA BARRIOS GUSTAVO                 GONTOR    20151122110105000000000015800
1300061377MENDOZA BARRIOS GUSTAVO                 IMPERIALES20151122110105000000000004850
1300079475TINAJERO SALGADO LEONEL                 GONTOR    20151122110105000000000002000
1300035835SANCHEZ GUZMAN NORMA                    IMPERIALES20151123110105000000000015600
1300061377MENDOZA BARRIOS GUSTAVO                 GONTOR    20151123110105000000000002000
1300069405MEJIA RODRIGUEZ ALFONSO                 GONTOR    20151123110105000000000010400
1300069405MEJIA RODRIGUEZ ALFONSO                 IMPERIALES20151123110105000000000011250
1300035835SANCHEZ GUZMAN NORMA                    GONTOR    20151124110105000000000002000
1300035835SANCHEZ GUZMAN NORMA                    IMPERIALES20151124110105000000000004850
1300054672ROSAS JIMENEZ JOSE AMBROSIO LUIS        GONTOR    20151124110105000000000002450
1300054672ROSAS JIMENEZ JOSE AMBROSIO LUIS        IMPERIALES20151124110105000000000002200
1300061377MENDOZA BARRIOS GUSTAVO                 GONTOR    20151124110105000000000009400
1300061377MENDOZA BARRIOS GUSTAVO                 IMPERIALES20151124110105000000000005750
1300069405MEJIA RODRIGUEZ ALFONSO                 GONTOR    20151124110105000000000004450
1300069405MEJIA RODRIGUEZ ALFONSO                 IMPERIALES20151124110105000000000015850
1300073572CABALLERO GARCIA ANGELICA               GONTOR    20151124110105000000000004450
1300076752HIDALGO GARCIA DOMINGA                  GONTOR    20151124110105000000000001000
0100025325GUADARRAMA ATRISCO RICARDO              GONTOR    20151125110105000000000002450
1300035835SANCHEZ GUZMAN NORMA                    GONTOR    20151125110105000000000008900
1300035835SANCHEZ GUZMAN NORMA                    IMPERIALES20151125110105000000000011000
1300061377MENDOZA BARRIOS GUSTAVO                 GONTOR    20151125110105000000000011350
1300069405MEJIA RODRIGUEZ ALFONSO                 GONTOR    20151125110105000000000019000
1300073572CABALLERO GARCIA ANGELICA               GONTOR    20151125110105000000000004900
1300079475TINAJERO SALGADO LEONEL                 GONTOR    20151125110105000000000009200
1300079475TINAJERO SALGADO LEONEL                 IMPERIALES20151125110105000000000002850
1300035835SANCHEZ GUZMAN NORMA                    GONTOR    20151126110105000000000008900
1300035835SANCHEZ GUZMAN NORMA                    IMPERIALES20151126110105000000000094450
1300054672ROSAS JIMENEZ JOSE AMBROSIO LUIS        GONTOR    20151126110105000000000002800
1300069405MEJIA RODRIGUEZ ALFONSO                 GONTOR    20151126110105000000000002450
1300073572CABALLERO GARCIA ANGELICA               GONTOR    20151126110105000000000001000
1300073572CABALLERO GARCIA ANGELICA               IMPERIALES20151126110105000000000002900
1300079475TINAJERO SALGADO LEONEL                 GONTOR    20151126110105000000000014650
1300079475TINAJERO SALGADO LEONEL                 IMPERIALES20151126110105000000000016800
1300035835SANCHEZ GUZMAN NORMA                    GONTOR    20151127110105000000000009100
1300035835SANCHEZ GUZMAN NORMA                    IMPERIALES20151127110105000000000005500
1300054672ROSAS JIMENEZ JOSE AMBROSIO LUIS        GONTOR    20151127110105000000000004900
1300061377MENDOZA BARRIOS GUSTAVO                 GONTOR    20151127110105000000000017200
1300061377MENDOZA BARRIOS GUSTAVO                 IMPERIALES20151127110105000000000018255
1300069405MEJIA RODRIGUEZ ALFONSO                 GONTOR    20151127110105000000000009350
1300069405MEJIA RODRIGUEZ ALFONSO                 IMPERIALES20151127110105000000000035255
1300076752HIDALGO GARCIA DOMINGA                  IMPERIALES20151127110105000000000009000
1300035835SANCHEZ GUZMAN NORMA                    GONTOR    20151128110105000000000011350
1300035835SANCHEZ GUZMAN NORMA                    IMPERIALES20151128110105000000000043200
1300054672ROSAS JIMENEZ JOSE AMBROSIO LUIS        GONTOR    20151128110105000000000002000
1300061377MENDOZA BARRIOS GUSTAVO                 GONTOR    20151128110105000000000013100
1300069405MEJIA RODRIGUEZ ALFONSO                 GONTOR    20151128110105000000000004900
1300069405MEJIA RODRIGUEZ ALFONSO                 IMPERIALES20151128110105000000000013850
1300073572CABALLERO GARCIA ANGELICA               GONTOR    20151128110105000000000002000
1300029625GARCIA TORIBIO ELPIDIO                  GONTOR    20151129110105000000000018700
1300029625GARCIA TORIBIO ELPIDIO                  IMPERIALES20151129110105000000000004310
1300076752HIDALGO GARCIA DOMINGA                  GONTOR    20151129110105000000000004450
1300076752HIDALGO GARCIA DOMINGA                  IMPERIALES20151129110105000000000005500
0100029526SANCHEZ MORENO CARLOS OSCAR             GONTOR    20151130110105000000000002450
1300035835SANCHEZ GUZMAN NORMA                    GONTOR    20151130110105000000000006250
1300061377MENDOZA BARRIOS GUSTAVO                 GONTOR    20151130110105000000000001000
1300061377MENDOZA BARRIOS GUSTAVO                 IMPERIALES20151130110105000000000009050
1300069405MEJIA RODRIGUEZ ALFONSO                 GONTOR    20151130110105000000000002450
1300073572CABALLERO GARCIA ANGELICA               GONTOR    20151130110105000000000008650
1300076752HIDALGO GARCIA DOMINGA                  GONTOR    20151130110105000000000010950
0100003977CASTULO TREJO MA TERESA                 GONTOR    20151101110106000000000004500
0100073979LOPEZ SANCHEZ ELIZABETH                 IMPERIALES20151102110106000000000008400
0100003977CASTULO TREJO MA TERESA                 GONTOR    20151103110106000000000007700
0100073979LOPEZ SANCHEZ ELIZABETH                 GONTOR    20151104110106000000000005500
1300079727GARCIA HERNANDEZ JAZMIN MELINA          GONTOR    20151104110106000000000003850
1300079727GARCIA HERNANDEZ JAZMIN MELINA          IMPERIALES20151104110106000000000002155
1300079727GARCIA HERNANDEZ JAZMIN MELINA          GONTOR    20151105110106000000000001400
0100073979LOPEZ SANCHEZ ELIZABETH                 IMPERIALES20151106110106000000000002155
1300076014TORRES MARQUEZ ARACELI                  IMPERIALES20151106110106000000000002850
0100003977CASTULO TREJO MA TERESA                 GONTOR    20151108110106000000000010400
0100003977CASTULO TREJO MA TERESA                 IMPERIALES20151108110106000000000010350
0100003977CASTULO TREJO MA TERESA                 GONTOR    20151109110106000000000001000
0100073979LOPEZ SANCHEZ ELIZABETH                 GONTOR    20151109110106000000000002000
0100073979LOPEZ SANCHEZ ELIZABETH                 GONTOR    20151110110106000000000004850
0100073979LOPEZ SANCHEZ ELIZABETH                 IMPERIALES20151110110106000000000007800
1300079727GARCIA HERNANDEZ JAZMIN MELINA          GONTOR    20151110110106000000000005000
1300079727GARCIA HERNANDEZ JAZMIN MELINA          IMPERIALES20151110110106000000000002600
0100003977CASTULO TREJO MA TERESA                 IMPERIALES20151111110106000000000006600
0100003977CASTULO TREJO MA TERESA                 GONTOR    20151112110106000000000005400
0100073979LOPEZ SANCHEZ ELIZABETH                 GONTOR    20151112110106000000000002450
0100003977CASTULO TREJO MA TERESA                 GONTOR    20151113110106000000000003000
0100073979LOPEZ SANCHEZ ELIZABETH                 GONTOR    20151113110106000000000001000
0100003977CASTULO TREJO MA TERESA                 GONTOR    20151114110106000000000002700
1300076014TORRES MARQUEZ ARACELI                  GONTOR    20151114110106000000000001000
1300076014TORRES MARQUEZ ARACELI                  IMPERIALES20151114110106000000000008750
0100003977CASTULO TREJO MA TERESA                 GONTOR    20151115110106000000000010450
0100073979LOPEZ SANCHEZ ELIZABETH                 GONTOR    20151115110106000000000003000
1300076014TORRES MARQUEZ ARACELI                  GONTOR    20151115110106000000000004500
0100073979LOPEZ SANCHEZ ELIZABETH                 IMPERIALES20151116110106000000000032955
1300076014TORRES MARQUEZ ARACELI                  GONTOR    20151116110106000000000002000
0100003977CASTULO TREJO MA TERESA                 GONTOR    20151117110106000000000001400
0100003977CASTULO TREJO MA TERESA                 GONTOR    20151118110106000000000005500
0100073979LOPEZ SANCHEZ ELIZABETH                 GONTOR    20151118110106000000000004650
1300076014TORRES MARQUEZ ARACELI                  GONTOR    20151119110106000000000004650
0100003977CASTULO TREJO MA TERESA                 GONTOR    20151120110106000000000001400
0100003977CASTULO TREJO MA TERESA                 GONTOR    20151122110106000000000003850
0100073979LOPEZ SANCHEZ ELIZABETH                 GONTOR    20151122110106000000000003600
0100003977CASTULO TREJO MA TERESA                 GONTOR    20151123110106000000000010000
0000077512BAUTISTA VALENCIA JULIO CESAR           GONTOR    20151124110106000000000002450
0100073979LOPEZ SANCHEZ ELIZABETH                 GONTOR    20151125110106000000000004850
0100003977CASTULO TREJO MA TERESA                 GONTOR    20151126110106000000000002800
0100003977CASTULO TREJO MA TERESA                 GONTOR    20151127110106000000000001400
0100003977CASTULO TREJO MA TERESA                 GONTOR    20151128110106000000000002450
0100003977CASTULO TREJO MA TERESA                 IMPERIALES20151128110106000000000005400
0100003977CASTULO TREJO MA TERESA                 GONTOR    20151129110106000000000004850
0100073979LOPEZ SANCHEZ ELIZABETH                 GONTOR    20151130110106000000000001400
0100055212GARDUNO DIAZ JUAN TIRZO                 GONTOR    20151101110107000000000001000
1300060962ESCAMILLA MEZA FRANCISCO JAVIER         GONTOR    20151101110107000000000001000
1300075918MELGAREJO RODRIGUEZ SELENE              GONTOR    20151101110107000000000001000
1300060962ESCAMILLA MEZA FRANCISCO JAVIER         GONTOR    20151102110107000000000014100
1300070415LIDIA MENDOZA  ORTIZ                    GONTOR    20151102110107000000000006400
1300075918MELGAREJO RODRIGUEZ SELENE              GONTOR    20151102110107000000000001000
0100061443RAMIREZ MERCADO MONICA                  GONTOR    20151103110107000000000005000
1300070415LIDIA MENDOZA  ORTIZ                    GONTOR    20151103110107000000000007400
1300075918MELGAREJO RODRIGUEZ SELENE              GONTOR    20151103110107000000000007400
1300060962ESCAMILLA MEZA FRANCISCO JAVIER         GONTOR    20151104110107000000000004850
1300070415LIDIA MENDOZA  ORTIZ                    GONTOR    20151104110107000000000005000
1300075918MELGAREJO RODRIGUEZ SELENE              GONTOR    20151104110107000000000005800
1300070415LIDIA MENDOZA  ORTIZ                    GONTOR    20151105110107000000000004450
1300075918MELGAREJO RODRIGUEZ SELENE              GONTOR    20151105110107000000000021400
1300075918MELGAREJO RODRIGUEZ SELENE              IMPERIALES20151105110107000000000013200
0100055212GARDUNO DIAZ JUAN TIRZO                 GONTOR    20151106110107000000000001400
1300060962ESCAMILLA MEZA FRANCISCO JAVIER         GONTOR    20151106110107000000000001000
0100061443RAMIREZ MERCADO MONICA                  GONTOR    20151106110107000000000002000
1300070415LIDIA MENDOZA  ORTIZ                    GONTOR    20151106110107000000000001000
1300070415LIDIA MENDOZA  ORTIZ                    IMPERIALES20151106110107000000000002200
1300060962ESCAMILLA MEZA FRANCISCO JAVIER         GONTOR    20151107110107000000000003450
0100061443RAMIREZ MERCADO MONICA                  GONTOR    20151107110107000000000001000
1300070415LIDIA MENDOZA  ORTIZ                    GONTOR    20151107110107000000000002000
1300075918MELGAREJO RODRIGUEZ SELENE              GONTOR    20151107110107000000000001000
1300060962ESCAMILLA MEZA FRANCISCO JAVIER         GONTOR    20151108110107000000000001000
1300060962ESCAMILLA MEZA FRANCISCO JAVIER         IMPERIALES20151108110107000000000007450
1300070415LIDIA MENDOZA  ORTIZ                    GONTOR    20151108110107000000000002000
1300070415LIDIA MENDOZA  ORTIZ                    IMPERIALES20151108110107000000000009050
1300060962ESCAMILLA MEZA FRANCISCO JAVIER         GONTOR    20151109110107000000000007400
1300070415LIDIA MENDOZA  ORTIZ                    GONTOR    20151109110107000000000003000
1300075918MELGAREJO RODRIGUEZ SELENE              GONTOR    20151109110107000000000005450
1300060962ESCAMILLA MEZA FRANCISCO JAVIER         GONTOR    20151110110107000000000001000
0100061443RAMIREZ MERCADO MONICA                  GONTOR    20151110110107000000000006450
1300070415LIDIA MENDOZA  ORTIZ                    GONTOR    20151110110107000000000011350
1300075918MELGAREJO RODRIGUEZ SELENE              GONTOR    20151110110107000000000005000
1300060962ESCAMILLA MEZA FRANCISCO JAVIER         GONTOR    20151111110107000000000004450
1300075918MELGAREJO RODRIGUEZ SELENE              GONTOR    20151111110107000000000005850
0100061443RAMIREZ MERCADO MONICA                  GONTOR    20151112110107000000000002450
1300070415LIDIA MENDOZA  ORTIZ                    GONTOR    20151112110107000000000006450
1300075918MELGAREJO RODRIGUEZ SELENE              GONTOR    20151112110107000000000011000
1300060962ESCAMILLA MEZA FRANCISCO JAVIER         GONTOR    20151113110107000000000006950
1300070415LIDIA MENDOZA  ORTIZ                    GONTOR    20151113110107000000000009450
1300060962ESCAMILLA MEZA FRANCISCO JAVIER         GONTOR    20151114110107000000000030000
1300070415LIDIA MENDOZA  ORTIZ                    GONTOR    20151114110107000000000005450
1300075918MELGAREJO RODRIGUEZ SELENE              GONTOR    20151114110107000000000007350
1300070415LIDIA MENDOZA  ORTIZ                    GONTOR    20151115110107000000000006450
1300070415LIDIA MENDOZA  ORTIZ                    IMPERIALES20151115110107000000000012550
1300075918MELGAREJO RODRIGUEZ SELENE              GONTOR    20151115110107000000000007450
1300070415LIDIA MENDOZA  ORTIZ                    GONTOR    20151116110107000000000008350
1300075918MELGAREJO RODRIGUEZ SELENE              GONTOR    20151116110107000000000012900
1300075918MELGAREJO RODRIGUEZ SELENE              IMPERIALES20151116110107000000000004850
0100055212GARDUNO DIAZ JUAN TIRZO                 GONTOR    20151117110107000000000002450
1300060962ESCAMILLA MEZA FRANCISCO JAVIER         GONTOR    20151117110107000000000005000
1300070415LIDIA MENDOZA  ORTIZ                    IMPERIALES20151117110107000000000002600
1300075918MELGAREJO RODRIGUEZ SELENE              GONTOR    20151117110107000000000002450
1300060962ESCAMILLA MEZA FRANCISCO JAVIER         GONTOR    20151118110107000000000002000
1300070415LIDIA MENDOZA  ORTIZ                    GONTOR    20151118110107000000000001000
1300075918MELGAREJO RODRIGUEZ SELENE              GONTOR    20151118110107000000000003450
1300060962ESCAMILLA MEZA FRANCISCO JAVIER         GONTOR    20151119110107000000000033450
1300075918MELGAREJO RODRIGUEZ SELENE              GONTOR    20151119110107000000000004850
1300060962ESCAMILLA MEZA FRANCISCO JAVIER         GONTOR    20151120110107000000000002000
1300070415LIDIA MENDOZA  ORTIZ                    GONTOR    20151120110107000000000002000
1300075918MELGAREJO RODRIGUEZ SELENE              GONTOR    20151120110107000000000004450
1300075918MELGAREJO RODRIGUEZ SELENE              IMPERIALES20151120110107000000000009000
1300070415LIDIA MENDOZA  ORTIZ                    GONTOR    20151121110107000000000012850
1300075918MELGAREJO RODRIGUEZ SELENE              GONTOR    20151121110107000000000004900
1300060962ESCAMILLA MEZA FRANCISCO JAVIER         GONTOR    20151122110107000000000004400
1300075918MELGAREJO RODRIGUEZ SELENE              GONTOR    20151122110107000000000001000
1300060962ESCAMILLA MEZA FRANCISCO JAVIER         GONTOR    20151123110107000000000008900
1300070415LIDIA MENDOZA  ORTIZ                    GONTOR    20151123110107000000000008250
0100055212GARDUNO DIAZ JUAN TIRZO                 GONTOR    20151124110107000000000001000
1300060962ESCAMILLA MEZA FRANCISCO JAVIER         GONTOR    20151124110107000000000004450
1300075918MELGAREJO RODRIGUEZ SELENE              GONTOR    20151124110107000000000001000
1300060962ESCAMILLA MEZA FRANCISCO JAVIER         GONTOR    20151125110107000000000007950
1300070415LIDIA MENDOZA  ORTIZ                    GONTOR    20151125110107000000000007850
1300045198ESPINOZA AVENA DIANA                    GONTOR    20151126110107000000000002000
1300060962ESCAMILLA MEZA FRANCISCO JAVIER         GONTOR    20151126110107000000000010500
1300070415LIDIA MENDOZA  ORTIZ                    GONTOR    20151126110107000000000004000
0100061443RAMIREZ MERCADO MONICA                  GONTOR    20151127110107000000000002000
1300070415LIDIA MENDOZA  ORTIZ                    GONTOR    20151127110107000000000046750
1300075918MELGAREJO RODRIGUEZ SELENE              GONTOR    20151127110107000000000015500
1300070415LIDIA MENDOZA  ORTIZ                    GONTOR    20151128110107000000000004000
1300070415LIDIA MENDOZA  ORTIZ                    IMPERIALES20151128110107000000000007700
1300075918MELGAREJO RODRIGUEZ SELENE              GONTOR    20151128110107000000000012350
1300060962ESCAMILLA MEZA FRANCISCO JAVIER         GONTOR    20151129110107000000000001000
1300070415LIDIA MENDOZA  ORTIZ                    GONTOR    20151129110107000000000002000
1300070415LIDIA MENDOZA  ORTIZ                    IMPERIALES20151129110107000000000002600
1300060962ESCAMILLA MEZA FRANCISCO JAVIER         GONTOR    20151130110107000000000007950
1300070415LIDIA MENDOZA  ORTIZ                    GONTOR    20151130110107000000000003450
1300075918MELGAREJO RODRIGUEZ SELENE              GONTOR    20151130110107000000000008900
0100002288SALVADOR MEXICANO VERONICA              GONTOR    20151101110108000000000001000
1300054930NARANJO CAMACHO FELIPE MAURICIO         GONTOR    20151101110108000000000003000
1300077453ARROYO CABRERA HILDA                    GONTOR    20151101110108000000000003000
1300045198ESPINOZA AVENA DIANA                    GONTOR    20151102110108000000000002000
1300054930NARANJO CAMACHO FELIPE MAURICIO         GONTOR    20151102110108000000000008000
1300066889VILLAR RUIZ OSIRIS IRMA                 GONTOR    20151102110108000000000007000
1300077453ARROYO CABRERA HILDA                    GONTOR    20151102110108000000000003500
1300077453ARROYO CABRERA HILDA                    IMPERIALES20151102110108000000000002850
0100026709AVILA ONTIVEROS MONICA                  GONTOR    20151103110108000000000011000
1300054930NARANJO CAMACHO FELIPE MAURICIO         GONTOR    20151103110108000000000007000
1300066889VILLAR RUIZ OSIRIS IRMA                 GONTOR    20151103110108000000000005000
1300077453ARROYO CABRERA HILDA                    GONTOR    20151103110108000000000010900
1300077453ARROYO CABRERA HILDA                    IMPERIALES20151103110108000000000003540
0100002288SALVADOR MEXICANO VERONICA              GONTOR    20151104110108000000000005850
0100026709AVILA ONTIVEROS MONICA                  GONTOR    20151104110108000000000010900
1300054930NARANJO CAMACHO FELIPE MAURICIO         GONTOR    20151104110108000000000004000
1300054930NARANJO CAMACHO FELIPE MAURICIO         IMPERIALES20151104110108000000000009600
1300077453ARROYO CABRERA HILDA                    GONTOR    20151104110108000000000010200
0100002288SALVADOR MEXICANO VERONICA              GONTOR    20151105110108000000000004000
0100026709AVILA ONTIVEROS MONICA                  GONTOR    20151105110108000000000005200
0100026709AVILA ONTIVEROS MONICA                  IMPERIALES20151105110108000000000012000
1300054930NARANJO CAMACHO FELIPE MAURICIO         GONTOR    20151105110108000000000025100
1300054930NARANJO CAMACHO FELIPE MAURICIO         IMPERIALES20151105110108000000000005400
1300077453ARROYO CABRERA HILDA                    GONTOR    20151105110108000000000006400
0100002288SALVADOR MEXICANO VERONICA              GONTOR    20151106110108000000000021000
0100026709AVILA ONTIVEROS MONICA                  GONTOR    20151106110108000000000013600
0100026709AVILA ONTIVEROS MONICA                  IMPERIALES20151106110108000000000009000
1300054930NARANJO CAMACHO FELIPE MAURICIO         GONTOR    20151106110108000000000010000
1300054930NARANJO CAMACHO FELIPE MAURICIO         IMPERIALES20151106110108000000000002850
1300066889VILLAR RUIZ OSIRIS IRMA                 GONTOR    20151106110108000000000009300
1300066889VILLAR RUIZ OSIRIS IRMA                 IMPERIALES20151106110108000000000005200
0100026709AVILA ONTIVEROS MONICA                  GONTOR    20151107110108000000000006850
1300038446MORALES CRUZ ELVIRA                     GONTOR    20151107110108000000000003000
1300066889VILLAR RUIZ OSIRIS IRMA                 GONTOR    20151107110108000000000006000
1300066889VILLAR RUIZ OSIRIS IRMA                 IMPERIALES20151107110108000000000009600
1300077453ARROYO CABRERA HILDA                    GONTOR    20151107110108000000000006800
0100002288SALVADOR MEXICANO VERONICA              GONTOR    20151108110108000000000002450
0100026709AVILA ONTIVEROS MONICA                  GONTOR    20151108110108000000000002000
0100026709AVILA ONTIVEROS MONICA                  IMPERIALES20151108110108000000000002850
1300077453ARROYO CABRERA HILDA                    GONTOR    20151108110108000000000004000
0100002288SALVADOR MEXICANO VERONICA              GONTOR    20151109110108000000000008900
1300038446MORALES CRUZ ELVIRA                     GONTOR    20151109110108000000000005200
1300054930NARANJO CAMACHO FELIPE MAURICIO         GONTOR    20151109110108000000000009000
1300077453ARROYO CABRERA HILDA                    GONTOR    20151109110108000000000014150
1300077453ARROYO CABRERA HILDA                    IMPERIALES20151109110108000000000004400
0100002288SALVADOR MEXICANO VERONICA              GONTOR    20151110110108000000000002000
0100026709AVILA ONTIVEROS MONICA                  GONTOR    20151110110108000000000004000
1300054930NARANJO CAMACHO FELIPE MAURICIO         GONTOR    20151110110108000000000005450
1300054930NARANJO CAMACHO FELIPE MAURICIO         IMPERIALES20151110110108000000000002600
1300066889VILLAR RUIZ OSIRIS IRMA                 GONTOR    20151110110108000000000018200
1300066889VILLAR RUIZ OSIRIS IRMA                 IMPERIALES20151110110108000000000004355
0100002288SALVADOR MEXICANO VERONICA              GONTOR    20151111110108000000000015550
1300066889VILLAR RUIZ OSIRIS IRMA                 GONTOR    20151111110108000000000014950
1300077453ARROYO CABRERA HILDA                    GONTOR    20151111110108000000000006250
1300077453ARROYO CABRERA HILDA                    IMPERIALES20151111110108000000000002200
0100002288SALVADOR MEXICANO VERONICA              GONTOR    20151112110108000000000002000
0100026709AVILA ONTIVEROS MONICA                  GONTOR    20151112110108000000000016350
1300054930NARANJO CAMACHO FELIPE MAURICIO         GONTOR    20151112110108000000000016350
1300066889VILLAR RUIZ OSIRIS IRMA                 GONTOR    20151112110108000000000046400
1300077453ARROYO CABRERA HILDA                    GONTOR    20151112110108000000000024450
1300077453ARROYO CABRERA HILDA                    IMPERIALES20151112110108000000000015000
1300038446MORALES CRUZ ELVIRA                     GONTOR    20151113110108000000000013200
1300054930NARANJO CAMACHO FELIPE MAURICIO         GONTOR    20151113110108000000000004450
1300066889VILLAR RUIZ OSIRIS IRMA                 GONTOR    20151113110108000000000007100
1300077453ARROYO CABRERA HILDA                    GONTOR    20151113110108000000000005450
1300077453ARROYO CABRERA HILDA                    IMPERIALES20151113110108000000000008850
0100026709AVILA ONTIVEROS MONICA                  GONTOR    20151114110108000000000001000
1300054930NARANJO CAMACHO FELIPE MAURICIO         GONTOR    20151114110108000000000013300
1300066889VILLAR RUIZ OSIRIS IRMA                 GONTOR    20151114110108000000000003000
1300077453ARROYO CABRERA HILDA                    GONTOR    20151114110108000000000005400
0100026709AVILA ONTIVEROS MONICA                  GONTOR    20151115110108000000000001000
1300054930NARANJO CAMACHO FELIPE MAURICIO         GONTOR    20151115110108000000000015600
1300054930NARANJO CAMACHO FELIPE MAURICIO         IMPERIALES20151115110108000000000011500
1300066889VILLAR RUIZ OSIRIS IRMA                 GONTOR    20151115110108000000000010900
1300077453ARROYO CABRERA HILDA                    GONTOR    20151115110108000000000020000
1300054930NARANJO CAMACHO FELIPE MAURICIO         GONTOR    20151116110108000000000010400
1300066889VILLAR RUIZ OSIRIS IRMA                 GONTOR    20151116110108000000000005400
1300077453ARROYO CABRERA HILDA                    GONTOR    20151116110108000000000002000
0100002288SALVADOR MEXICANO VERONICA              GONTOR    20151117110108000000000001000
1300045198ESPINOZA AVENA DIANA                    GONTOR    20151117110108000000000004900
1300054930NARANJO CAMACHO FELIPE MAURICIO         GONTOR    20151117110108000000000011200
1300077453ARROYO CABRERA HILDA                    GONTOR    20151117110108000000000004000
0100026709AVILA ONTIVEROS MONICA                  GONTOR    20151118110108000000000014050
0100026709AVILA ONTIVEROS MONICA                  IMPERIALES20151118110108000000000021600
1300054930NARANJO CAMACHO FELIPE MAURICIO         GONTOR    20151118110108000000000014700
1300077453ARROYO CABRERA HILDA                    GONTOR    20151118110108000000000010700
0100026709AVILA ONTIVEROS MONICA                  GONTOR    20151119110108000000000007900
1300054930NARANJO CAMACHO FELIPE MAURICIO         GONTOR    20151119110108000000000008000
1300054930NARANJO CAMACHO FELIPE MAURICIO         IMPERIALES20151119110108000000000011000
1300077453ARROYO CABRERA HILDA                    GONTOR    20151119110108000000000014250
1300077453ARROYO CABRERA HILDA                    IMPERIALES20151119110108000000000023000
0100002288SALVADOR MEXICANO VERONICA              GONTOR    20151120110108000000000002600
0100026709AVILA ONTIVEROS MONICA                  GONTOR    20151120110108000000000001000
1300066889VILLAR RUIZ OSIRIS IRMA                 GONTOR    20151120110108000000000017100
1300066889VILLAR RUIZ OSIRIS IRMA                 IMPERIALES20151120110108000000000011000
1300077453ARROYO CABRERA HILDA                    GONTOR    20151120110108000000000023000
1300077453ARROYO CABRERA HILDA                    IMPERIALES20151120110108000000000004850
0100026709AVILA ONTIVEROS MONICA                  GONTOR    20151121110108000000000003450
1300054930NARANJO CAMACHO FELIPE MAURICIO         GONTOR    20151121110108000000000014700
1300054930NARANJO CAMACHO FELIPE MAURICIO         IMPERIALES20151121110108000000000020350
1300066889VILLAR RUIZ OSIRIS IRMA                 GONTOR    20151121110108000000000012850
1300066889VILLAR RUIZ OSIRIS IRMA                 IMPERIALES20151121110108000000000017080
0100002288SALVADOR MEXICANO VERONICA              IMPERIALES20151122110108000000000002850
0100026709AVILA ONTIVEROS MONICA                  GONTOR    20151122110108000000000020900
0100026709AVILA ONTIVEROS MONICA                  IMPERIALES20151122110108000000000012000
1300054930NARANJO CAMACHO FELIPE MAURICIO         GONTOR    20151122110108000000000006000
1300066889VILLAR RUIZ OSIRIS IRMA                 GONTOR    20151122110108000000000004450
0100002288SALVADOR MEXICANO VERONICA              GONTOR    20151123110108000000000007450
1300045198ESPINOZA AVENA DIANA                    GONTOR    20151123110108000000000003000
1300066889VILLAR RUIZ OSIRIS IRMA                 GONTOR    20151123110108000000000014250
1300077453ARROYO CABRERA HILDA                    GONTOR    20151123110108000000000030950
0100026709AVILA ONTIVEROS MONICA                  GONTOR    20151124110108000000000008450
1300066889VILLAR RUIZ OSIRIS IRMA                 GONTOR    20151124110108000000000005000
1300066889VILLAR RUIZ OSIRIS IRMA                 IMPERIALES20151124110108000000000010250
1300077453ARROYO CABRERA HILDA                    GONTOR    20151124110108000000000007450
1300077453ARROYO CABRERA HILDA                    IMPERIALES20151124110108000000000016200
1300077583MILA PADILLA LUIS ARMANDO               GONTOR    20151124110108000000000019750
0100002288SALVADOR MEXICANO VERONICA              GONTOR    20151125110108000000000004400
0100026709AVILA ONTIVEROS MONICA                  GONTOR    20151125110108000000000004200
0100026709AVILA ONTIVEROS MONICA                  IMPERIALES20151125110108000000000009700
1300066889VILLAR RUIZ OSIRIS IRMA                 GONTOR    20151125110108000000000010450
1300066889VILLAR RUIZ OSIRIS IRMA                 IMPERIALES20151125110108000000000002155
1300077453ARROYO CABRERA HILDA                    GONTOR    20151125110108000000000012750
0100002288SALVADOR MEXICANO VERONICA              GONTOR    20151126110108000000000002000
0100002288SALVADOR MEXICANO VERONICA              IMPERIALES20151126110108000000000011500
0100026709AVILA ONTIVEROS MONICA                  GONTOR    20151126110108000000000003000
1300066889VILLAR RUIZ OSIRIS IRMA                 GONTOR    20151126110108000000000005000
1300066889VILLAR RUIZ OSIRIS IRMA                 IMPERIALES20151126110108000000000011250
1300077453ARROYO CABRERA HILDA                    GONTOR    20151126110108000000000010200
1300077453ARROYO CABRERA HILDA                    IMPERIALES20151126110108000000000005200
0100002288SALVADOR MEXICANO VERONICA              GONTOR    20151127110108000000000002000
1300066889VILLAR RUIZ OSIRIS IRMA                 GONTOR    20151127110108000000000011000
1300066889VILLAR RUIZ OSIRIS IRMA                 IMPERIALES20151127110108000000000002155
1300077583MILA PADILLA LUIS ARMANDO               GONTOR    20151127110108000000000007900
0100026709AVILA ONTIVEROS MONICA                  GONTOR    20151128110108000000000001000
0100026709AVILA ONTIVEROS MONICA                  IMPERIALES20151128110108000000000002155
1300045198ESPINOZA AVENA DIANA                    GONTOR    20151128110108000000000004000
1300077453ARROYO CABRERA HILDA                    GONTOR    20151128110108000000000005000
1300077583MILA PADILLA LUIS ARMANDO               GONTOR    20151128110108000000000008200
0100026709AVILA ONTIVEROS MONICA                  GONTOR    20151129110108000000000004000
1300077453ARROYO CABRERA HILDA                    GONTOR    20151129110108000000000004800
1300077453ARROYO CABRERA HILDA                    IMPERIALES20151129110108000000000011250
1300077583MILA PADILLA LUIS ARMANDO               GONTOR    20151129110108000000000006000
1300077583MILA PADILLA LUIS ARMANDO               IMPERIALES20151129110108000000000011000
0100002288SALVADOR MEXICANO VERONICA              GONTOR    20151130110108000000000008000
0100002288SALVADOR MEXICANO VERONICA              IMPERIALES20151130110108000000000009000
1300038446MORALES CRUZ ELVIRA                     GONTOR    20151130110108000000000044000
1300038446MORALES CRUZ ELVIRA                     IMPERIALES20151130110108000000000002600
1300066889VILLAR RUIZ OSIRIS IRMA                 GONTOR    20151130110108000000000018000
1300077453ARROYO CABRERA HILDA                    GONTOR    20151130110108000000000003400
1300027759ANGELES FLORES MA DEL CARMEN            GONTOR    20151101110109000000000001000
0100029523GONZALEZ CASTELAN ELIZABETH             GONTOR    20151103110109000000000003400
1300069129HERNANDEZ MALDONADO MARIA DE LA LUZ     GONTOR    20151103110109000000000001400
1300027759ANGELES FLORES MA DEL CARMEN            GONTOR    20151104110109000000000007000
0100029523GONZALEZ CASTELAN ELIZABETH             GONTOR    20151104110109000000000001000
1300069129HERNANDEZ MALDONADO MARIA DE LA LUZ     GONTOR    20151104110109000000000005000
1300069129HERNANDEZ MALDONADO MARIA DE LA LUZ     GONTOR    20151105110109000000000004000
1300027759ANGELES FLORES MA DEL CARMEN            IMPERIALES20151106110109000000000002850
1300069129HERNANDEZ MALDONADO MARIA DE LA LUZ     GONTOR    20151106110109000000000002000
1300069129HERNANDEZ MALDONADO MARIA DE LA LUZ     GONTOR    20151107110109000000000004500
1300069129HERNANDEZ MALDONADO MARIA DE LA LUZ     IMPERIALES20151107110109000000000007700
1300043499RAMIREZ FIGUEROA ERNESTO                GONTOR    20151108110109000000000003000
1300069129HERNANDEZ MALDONADO MARIA DE LA LUZ     GONTOR    20151108110109000000000004200
0100076471VILLEGAS CAMPUZANO VERONICA             GONTOR    20151108110109000000000001000
1300043499RAMIREZ FIGUEROA ERNESTO                GONTOR    20151109110109000000000004500
1300069129HERNANDEZ MALDONADO MARIA DE LA LUZ     GONTOR    20151109110109000000000002500
1300027759ANGELES FLORES MA DEL CARMEN            GONTOR    20151110110109000000000001000
0100029523GONZALEZ CASTELAN ELIZABETH             GONTOR    20151110110109000000000002500
1300043499RAMIREZ FIGUEROA ERNESTO                GONTOR    20151110110109000000000001000
1300027759ANGELES FLORES MA DEL CARMEN            GONTOR    20151111110109000000000001000
0100029523GONZALEZ CASTELAN ELIZABETH             IMPERIALES20151111110109000000000009600
1300069129HERNANDEZ MALDONADO MARIA DE LA LUZ     GONTOR    20151111110109000000000003200
0100029523GONZALEZ CASTELAN ELIZABETH             GONTOR    20151112110109000000000001000
1300043499RAMIREZ FIGUEROA ERNESTO                GONTOR    20151112110109000000000002500
1300069129HERNANDEZ MALDONADO MARIA DE LA LUZ     GONTOR    20151112110109000000000002500
1300027759ANGELES FLORES MA DEL CARMEN            GONTOR    20151113110109000000000003000
1300027759ANGELES FLORES MA DEL CARMEN            IMPERIALES20151113110109000000000002850
1300043499RAMIREZ FIGUEROA ERNESTO                GONTOR    20151113110109000000000003500
0100029523GONZALEZ CASTELAN ELIZABETH             GONTOR    20151114110109000000000002000
1300069129HERNANDEZ MALDONADO MARIA DE LA LUZ     GONTOR    20151114110109000000000001000
1300027759ANGELES FLORES MA DEL CARMEN            GONTOR    20151115110109000000000001000
0100029523GONZALEZ CASTELAN ELIZABETH             GONTOR    20151115110109000000000002500
1300069129HERNANDEZ MALDONADO MARIA DE LA LUZ     GONTOR    20151115110109000000000003600
1300027759ANGELES FLORES MA DEL CARMEN            GONTOR    20151116110109000000000003500
0100029523GONZALEZ CASTELAN ELIZABETH             GONTOR    20151116110109000000000002500
0100029523GONZALEZ CASTELAN ELIZABETH             IMPERIALES20151116110109000000000002850
1300043499RAMIREZ FIGUEROA ERNESTO                GONTOR    20151116110109000000000002000
1300027759ANGELES FLORES MA DEL CARMEN            GONTOR    20151117110109000000000013500
0100029523GONZALEZ CASTELAN ELIZABETH             GONTOR    20151117110109000000000001000
0100029523GONZALEZ CASTELAN ELIZABETH             IMPERIALES20151117110109000000000002850
1300043499RAMIREZ FIGUEROA ERNESTO                GONTOR    20151117110109000000000002000
1300069129HERNANDEZ MALDONADO MARIA DE LA LUZ     GONTOR    20151117110109000000000006200
1300027759ANGELES FLORES MA DEL CARMEN            GONTOR    20151118110109000000000006100
1300069129HERNANDEZ MALDONADO MARIA DE LA LUZ     GONTOR    20151118110109000000000002000
1300043499RAMIREZ FIGUEROA ERNESTO                GONTOR    20151119110109000000000002000
0100029523GONZALEZ CASTELAN ELIZABETH             GONTOR    20151120110109000000000001000
0100029523GONZALEZ CASTELAN ELIZABETH             IMPERIALES20151121110109000000000004500
1300043499RAMIREZ FIGUEROA ERNESTO                IMPERIALES20151121110109000000000002850
0100029523GONZALEZ CASTELAN ELIZABETH             IMPERIALES20151122110109000000000008000
1300069129HERNANDEZ MALDONADO MARIA DE LA LUZ     IMPERIALES20151122110109000000000009600
1300027759ANGELES FLORES MA DEL CARMEN            GONTOR    20151123110109000000000007000
0100029523GONZALEZ CASTELAN ELIZABETH             GONTOR    20151123110109000000000006800
0100029523GONZALEZ CASTELAN ELIZABETH             GONTOR    20151124110109000000000002000
1300069129HERNANDEZ MALDONADO MARIA DE LA LUZ     GONTOR    20151124110109000000000001000
1300027759ANGELES FLORES MA DEL CARMEN            IMPERIALES20151125110109000000000016000
0100029523GONZALEZ CASTELAN ELIZABETH             GONTOR    20151126110109000000000001000
1300043499RAMIREZ FIGUEROA ERNESTO                GONTOR    20151126110109000000000001000
1300069129HERNANDEZ MALDONADO MARIA DE LA LUZ     GONTOR    20151126110109000000000001000
1300027759ANGELES FLORES MA DEL CARMEN            GONTOR    20151127110109000000000003900
1300069129HERNANDEZ MALDONADO MARIA DE LA LUZ     GONTOR    20151128110109000000000001000
1300027759ANGELES FLORES MA DEL CARMEN            GONTOR    20151129110109000000000002000
1300069129HERNANDEZ MALDONADO MARIA DE LA LUZ     GONTOR    20151129110109000000000002500
1300027759ANGELES FLORES MA DEL CARMEN            IMPERIALES20151130110109000000000002155
0100001276ZARAGOZA LINARES MARTIN                 GONTOR    20151101110112000000000006100
0100062316CRUZ TORRES VIRIDIANA                   GONTOR    20151101110112000000000011800
1300070917DANIEL AVELINO REYES                    GONTOR    20151101110112000000000001000
0100001276ZARAGOZA LINARES MARTIN                 GONTOR    20151102110112000000000002400
0100001276ZARAGOZA LINARES MARTIN                 IMPERIALES20151102110112000000000004900
1300049936VASCONSELOS JIMENEZ MA. DE LOURDES      GONTOR    20151102110112000000000009500
0100062316CRUZ TORRES VIRIDIANA                   GONTOR    20151102110112000000000001000
1300070917DANIEL AVELINO REYES                    GONTOR    20151102110112000000000002500
1300049936VASCONSELOS JIMENEZ MA. DE LOURDES      GONTOR    20151103110112000000000011400
0100062316CRUZ TORRES VIRIDIANA                   GONTOR    20151103110112000000000011700
0100062316CRUZ TORRES VIRIDIANA                   IMPERIALES20151103110112000000000002400
1300070917DANIEL AVELINO REYES                    GONTOR    20151103110112000000000002500
0100001276ZARAGOZA LINARES MARTIN                 GONTOR    20151104110112000000000003000
0100001276ZARAGOZA LINARES MARTIN                 IMPERIALES20151104110112000000000002155
1300049936VASCONSELOS JIMENEZ MA. DE LOURDES      GONTOR    20151104110112000000000004000
0100062316CRUZ TORRES VIRIDIANA                   GONTOR    20151104110112000000000012650
0100062316CRUZ TORRES VIRIDIANA                   IMPERIALES20151104110112000000000005700
0100001276ZARAGOZA LINARES MARTIN                 IMPERIALES20151105110112000000000002850
1300049936VASCONSELOS JIMENEZ MA. DE LOURDES      GONTOR    20151105110112000000000001400
0100062316CRUZ TORRES VIRIDIANA                   GONTOR    20151105110112000000000010450
0100001276ZARAGOZA LINARES MARTIN                 GONTOR    20151106110112000000000006200
1300049936VASCONSELOS JIMENEZ MA. DE LOURDES      GONTOR    20151106110112000000000002400
0100062316CRUZ TORRES VIRIDIANA                   GONTOR    20151106110112000000000009100
0100001276ZARAGOZA LINARES MARTIN                 GONTOR    20151107110112000000000003000
1300049936VASCONSELOS JIMENEZ MA. DE LOURDES      GONTOR    20151107110112000000000024900
1300070917DANIEL AVELINO REYES                    GONTOR    20151107110112000000000004950
0100001276ZARAGOZA LINARES MARTIN                 GONTOR    20151108110112000000000003200
0100001276ZARAGOZA LINARES MARTIN                 IMPERIALES20151108110112000000000005400
1300070917DANIEL AVELINO REYES                    GONTOR    20151108110112000000000011600
0100001276ZARAGOZA LINARES MARTIN                 GONTOR    20151109110112000000000002450
1300049936VASCONSELOS JIMENEZ MA. DE LOURDES      GONTOR    20151109110112000000000009600
0100062316CRUZ TORRES VIRIDIANA                   GONTOR    20151109110112000000000014650
0100062316CRUZ TORRES VIRIDIANA                   IMPERIALES20151109110112000000000002850
1300070917DANIEL AVELINO REYES                    GONTOR    20151109110112000000000002000
0100001276ZARAGOZA LINARES MARTIN                 GONTOR    20151110110112000000000003500
1300049936VASCONSELOS JIMENEZ MA. DE LOURDES      GONTOR    20151110110112000000000004000
0100062316CRUZ TORRES VIRIDIANA                   GONTOR    20151110110112000000000026350
0100062316CRUZ TORRES VIRIDIANA                   IMPERIALES20151110110112000000000009700
1300070917DANIEL AVELINO REYES                    GONTOR    20151110110112000000000002000
0100001276ZARAGOZA LINARES MARTIN                 GONTOR    20151111110112000000000001400
1300006767MIRANDA TINO EMMA LOURDES               GONTOR    20151111110112000000000006900
0100062316CRUZ TORRES VIRIDIANA                   GONTOR    20151111110112000000000002400
0100062316CRUZ TORRES VIRIDIANA                   IMPERIALES20151111110112000000000002850
0100001276ZARAGOZA LINARES MARTIN                 GONTOR    20151112110112000000000004650
1300049936VASCONSELOS JIMENEZ MA. DE LOURDES      GONTOR    20151112110112000000000008050
1300049936VASCONSELOS JIMENEZ MA. DE LOURDES      IMPERIALES20151112110112000000000012300
0100062316CRUZ TORRES VIRIDIANA                   GONTOR    20151112110112000000000001000
0100062316CRUZ TORRES VIRIDIANA                   IMPERIALES20151112110112000000000007500
1300070917DANIEL AVELINO REYES                    GONTOR    20151112110112000000000009500
1300070917DANIEL AVELINO REYES                    IMPERIALES20151112110112000000000015600
1300006767MIRANDA TINO EMMA LOURDES               GONTOR    20151113110112000000000005050
0100062316CRUZ TORRES VIRIDIANA                   IMPERIALES20151113110112000000000005400
1300070917DANIEL AVELINO REYES                    GONTOR    20151113110112000000000043750
1300070917DANIEL AVELINO REYES                    IMPERIALES20151113110112000000000007080
1300006767MIRANDA TINO EMMA LOURDES               GONTOR    20151114110112000000000017300
0100062316CRUZ TORRES VIRIDIANA                   GONTOR    20151114110112000000000033900
0100062316CRUZ TORRES VIRIDIANA                   IMPERIALES20151114110112000000000009050
1300070917DANIEL AVELINO REYES                    GONTOR    20151114110112000000000003850
0100001276ZARAGOZA LINARES MARTIN                 GONTOR    20151115110112000000000005450
1300006767MIRANDA TINO EMMA LOURDES               GONTOR    20151115110112000000000017300
1300006767MIRANDA TINO EMMA LOURDES               IMPERIALES20151115110112000000000020700
0100062316CRUZ TORRES VIRIDIANA                   GONTOR    20151115110112000000000001000
0100001276ZARAGOZA LINARES MARTIN                 GONTOR    20151116110112000000000012300
0100062316CRUZ TORRES VIRIDIANA                   GONTOR    20151116110112000000000003000
1300070917DANIEL AVELINO REYES                    GONTOR    20151116110112000000000003000
0100001276ZARAGOZA LINARES MARTIN                 GONTOR    20151117110112000000000003000
1300006767MIRANDA TINO EMMA LOURDES               GONTOR    20151117110112000000000003400
0100062316CRUZ TORRES VIRIDIANA                   GONTOR    20151117110112000000000012100
0100062316CRUZ TORRES VIRIDIANA                   IMPERIALES20151117110112000000000003540
1300070917DANIEL AVELINO REYES                    GONTOR    20151117110112000000000005650
1300006767MIRANDA TINO EMMA LOURDES               GONTOR    20151118110112000000000013300
1300070917DANIEL AVELINO REYES                    GONTOR    20151118110112000000000021200
1300070917DANIEL AVELINO REYES                    IMPERIALES20151118110112000000000004850
0100001276ZARAGOZA LINARES MARTIN                 GONTOR    20151119110112000000000002000
1300006767MIRANDA TINO EMMA LOURDES               GONTOR    20151119110112000000000001000
1300070917DANIEL AVELINO REYES                    GONTOR    20151119110112000000000010450
1300070917DANIEL AVELINO REYES                    IMPERIALES20151119110112000000000002850
1300006767MIRANDA TINO EMMA LOURDES               GONTOR    20151120110112000000000003400
0100062316CRUZ TORRES VIRIDIANA                   GONTOR    20151120110112000000000001400
0100001276ZARAGOZA LINARES MARTIN                 GONTOR    20151121110112000000000002450
0100062316CRUZ TORRES VIRIDIANA                   GONTOR    20151121110112000000000002000
1300070917DANIEL AVELINO REYES                    IMPERIALES20151121110112000000000005400
0100062316CRUZ TORRES VIRIDIANA                   GONTOR    20151122110112000000000003600
1300070917DANIEL AVELINO REYES                    GONTOR    20151122110112000000000003200
1300070917DANIEL AVELINO REYES                    IMPERIALES20151122110112000000000002155
0100001276ZARAGOZA LINARES MARTIN                 GONTOR    20151123110112000000000002400
1300006767MIRANDA TINO EMMA LOURDES               GONTOR    20151123110112000000000010550
0100062316CRUZ TORRES VIRIDIANA                   GONTOR    20151123110112000000000003000
1300070917DANIEL AVELINO REYES                    GONTOR    20151123110112000000000011100
1300070917DANIEL AVELINO REYES                    IMPERIALES20151123110112000000000010750
0100001276ZARAGOZA LINARES MARTIN                 GONTOR    20151124110112000000000004450
1300006767MIRANDA TINO EMMA LOURDES               GONTOR    20151124110112000000000001400
0100062316CRUZ TORRES VIRIDIANA                   GONTOR    20151124110112000000000002000
0100062316CRUZ TORRES VIRIDIANA                   IMPERIALES20151124110112000000000005400
1300070917DANIEL AVELINO REYES                    GONTOR    20151124110112000000000001000
1300006767MIRANDA TINO EMMA LOURDES               GONTOR    20151125110112000000000015450
0100062316CRUZ TORRES VIRIDIANA                   GONTOR    20151125110112000000000004000
0100062316CRUZ TORRES VIRIDIANA                   IMPERIALES20151125110112000000000007080
1300070917DANIEL AVELINO REYES                    GONTOR    20151125110112000000000001400
0100001276ZARAGOZA LINARES MARTIN                 GONTOR    20151126110112000000000002000
1300006767MIRANDA TINO EMMA LOURDES               GONTOR    20151126110112000000000003200
1300006767MIRANDA TINO EMMA LOURDES               IMPERIALES20151126110112000000000017450
0100062316CRUZ TORRES VIRIDIANA                   GONTOR    20151126110112000000000012400
0100001276ZARAGOZA LINARES MARTIN                 GONTOR    20151127110112000000000011250
1300006767MIRANDA TINO EMMA LOURDES               GONTOR    20151127110112000000000028600
1300006767MIRANDA TINO EMMA LOURDES               IMPERIALES20151127110112000000000007700
0100062316CRUZ TORRES VIRIDIANA                   GONTOR    20151127110112000000000002500
1300070917DANIEL AVELINO REYES                    GONTOR    20151127110112000000000025150
1300070917DANIEL AVELINO REYES                    IMPERIALES20151127110112000000000011900
0100001276ZARAGOZA LINARES MARTIN                 GONTOR    20151128110112000000000004200
1300006767MIRANDA TINO EMMA LOURDES               GONTOR    20151128110112000000000006400
0100062316CRUZ TORRES VIRIDIANA                   GONTOR    20151128110112000000000005250
0100062316CRUZ TORRES VIRIDIANA                   IMPERIALES20151128110112000000000005700
1300006767MIRANDA TINO EMMA LOURDES               GONTOR    20151129110112000000000009000
0100062316CRUZ TORRES VIRIDIANA                   GONTOR    20151129110112000000000009900
1300006767MIRANDA TINO EMMA LOURDES               GONTOR    20151130110112000000000006150
0100062316CRUZ TORRES VIRIDIANA                   GONTOR    20151130110112000000000016100
1300070917DANIEL AVELINO REYES                    GONTOR    20151130110112000000000016100
1300070917DANIEL AVELINO REYES                    IMPERIALES20151130110112000000000011000
1300051156PERALTA PEREZ MARIA FLAVIA              GONTOR    20151102110114000000000001000
1300063921VAZQUEZ GERARDO BAZAN                   GONTOR    20151102110114000000000001000
1300045198ESPINOZA AVENA DIANA                    GONTOR    20151103110114000000000001000
1300063921VAZQUEZ GERARDO BAZAN                   GONTOR    20151103110114000000000001000
1300051156PERALTA PEREZ MARIA FLAVIA              GONTOR    20151104110114000000000020700
1300063921VAZQUEZ GERARDO BAZAN                   GONTOR    20151104110114000000000002001
1300038446MORALES CRUZ ELVIRA                     GONTOR    20151105110114000000000003001
1300038446MORALES CRUZ ELVIRA                     IMPERIALES20151105110114000000000002500
1300051156PERALTA PEREZ MARIA FLAVIA              GONTOR    20151105110114000000000005451
1300038446MORALES CRUZ ELVIRA                     GONTOR    20151106110114000000000001000
1300051156PERALTA PEREZ MARIA FLAVIA              GONTOR    20151106110114000000000009452
1300063921VAZQUEZ GERARDO BAZAN                   GONTOR    20151106110114000000000002000
1300051156PERALTA PEREZ MARIA FLAVIA              GONTOR    20151107110114000000000001625
1300038446MORALES CRUZ ELVIRA                     GONTOR    20151108110114000000000008750
1300063921VAZQUEZ GERARDO BAZAN                   GONTOR    20151108110114000000000002450
1300063921VAZQUEZ GERARDO BAZAN                   IMPERIALES20151108110114000000000004480
1300051156PERALTA PEREZ MARIA FLAVIA              GONTOR    20151109110114000000000004450
1300063921VAZQUEZ GERARDO BAZAN                   GONTOR    20151109110114000000000001000
1300038446MORALES CRUZ ELVIRA                     GONTOR    20151110110114000000000003001
1300038446MORALES CRUZ ELVIRA                     IMPERIALES20151110110114000000000002500
1300045198ESPINOZA AVENA DIANA                    GONTOR    20151110110114000000000004451
1300063921VAZQUEZ GERARDO BAZAN                   GONTOR    20151110110114000000000018965
1300045198ESPINOZA AVENA DIANA                    GONTOR    20151111110114000000000014494
1300051156PERALTA PEREZ MARIA FLAVIA              GONTOR    20151111110114000000000006003
1300063921VAZQUEZ GERARDO BAZAN                   GONTOR    20151111110114000000000003450
1300045198ESPINOZA AVENA DIANA                    GONTOR    20151112110114000000000002450
1300051156PERALTA PEREZ MARIA FLAVIA              GONTOR    20151112110114000000000002450
1300063921VAZQUEZ GERARDO BAZAN                   GONTOR    20151112110114000000000022415
1300051156PERALTA PEREZ MARIA FLAVIA              GONTOR    20151113110114000000000015851
1300063921VAZQUEZ GERARDO BAZAN                   GONTOR    20151113110114000000000001000
1300045198ESPINOZA AVENA DIANA                    GONTOR    20151114110114000000000003000
1300051156PERALTA PEREZ MARIA FLAVIA              GONTOR    20151114110114000000000002450
1300063921VAZQUEZ GERARDO BAZAN                   GONTOR    20151114110114000000000002450
0100020130CAMACHO BELTRAN MARIBEL                 GONTOR    20151116110114000000000001000
1300045198ESPINOZA AVENA DIANA                    GONTOR    20151116110114000000000002450
1300063921VAZQUEZ GERARDO BAZAN                   GONTOR    20151116110114000000000004001
0100020130CAMACHO BELTRAN MARIBEL                 IMPERIALES20151117110114000000000011330
1300038446MORALES CRUZ ELVIRA                     GONTOR    20151117110114000000000024765
1300063921VAZQUEZ GERARDO BAZAN                   GONTOR    20151117110114000000000002450
1300038446MORALES CRUZ ELVIRA                     GONTOR    20151118110114000000000005851
1300038446MORALES CRUZ ELVIRA                     IMPERIALES20151118110114000000000012100
1300063921VAZQUEZ GERARDO BAZAN                   GONTOR    20151118110114000000000002000
1300038446MORALES CRUZ ELVIRA                     GONTOR    20151119110114000000000009901
1300063921VAZQUEZ GERARDO BAZAN                   GONTOR    20151119110114000000000001000
1300051156PERALTA PEREZ MARIA FLAVIA              GONTOR    20151120110114000000000001000
1300063921VAZQUEZ GERARDO BAZAN                   GONTOR    20151120110114000000000006451
1300051156PERALTA PEREZ MARIA FLAVIA              GONTOR    20151121110114000000000007090
1300063921VAZQUEZ GERARDO BAZAN                   GONTOR    20151121110114000000000006900
1300063921VAZQUEZ GERARDO BAZAN                   IMPERIALES20151121110114000000000005000
0100020130CAMACHO BELTRAN MARIBEL                 GONTOR    20151123110114000000000008500
1300051156PERALTA PEREZ MARIA FLAVIA              GONTOR    20151123110114000000000004450
1300038446MORALES CRUZ ELVIRA                     GONTOR    20151124110114000000000004450
1300045198ESPINOZA AVENA DIANA                    GONTOR    20151124110114000000000002000
0100020130CAMACHO BELTRAN MARIBEL                 GONTOR    20151125110114000000000002001
1300038446MORALES CRUZ ELVIRA                     GONTOR    20151125110114000000000002450
1300038446MORALES CRUZ ELVIRA                     IMPERIALES20151125110114000000000008700
1300063921VAZQUEZ GERARDO BAZAN                   GONTOR    20151125110114000000000004001
1300038446MORALES CRUZ ELVIRA                     GONTOR    20151126110114000000000002450
1300051156PERALTA PEREZ MARIA FLAVIA              GONTOR    20151126110114000000000019978
1300063921VAZQUEZ GERARDO BAZAN                   GONTOR    20151126110114000000000003450
1300051156PERALTA PEREZ MARIA FLAVIA              GONTOR    20151127110114000000000012650
0100020130CAMACHO BELTRAN MARIBEL                 GONTOR    20151128110114000000000001000
1300051156PERALTA PEREZ MARIA FLAVIA              GONTOR    20151128110114000000000003001
1300063921VAZQUEZ GERARDO BAZAN                   GONTOR    20151128110114000000000004900
0100020130CAMACHO BELTRAN MARIBEL                 GONTOR    20151129110114000000000006450
1300051156PERALTA PEREZ MARIA FLAVIA              IMPERIALES20151129110114000000000004480
1300063921VAZQUEZ GERARDO BAZAN                   GONTOR    20151129110114000000000002450
1300045198ESPINOZA AVENA DIANA                    GONTOR    20151130110114000000000029315
1300063921VAZQUEZ GERARDO BAZAN                   GONTOR    20151130110114000000000008451
1300063921VAZQUEZ GERARDO BAZAN                   IMPERIALES20151130110114000000000002500
0100058279HERNANDEZ ROJAS MARIBEL                 GONTOR    20151101110116000000000006800
1300079316GIL ALVARADO JESSICA                    GONTOR    20151101110116000000000005500
1300079316GIL ALVARADO JESSICA                    IMPERIALES20151101110116000000000011000
0100058279HERNANDEZ ROJAS MARIBEL                 GONTOR    20151102110116000000000006300
1300079316GIL ALVARADO JESSICA                    GONTOR    20151102110116000000000001400
0100058279HERNANDEZ ROJAS MARIBEL                 GONTOR    20151103110116000000000040700
0100058279HERNANDEZ ROJAS MARIBEL                 IMPERIALES20151103110116000000000021400
1300079316GIL ALVARADO JESSICA                    GONTOR    20151103110116000000000019000
0100058279HERNANDEZ ROJAS MARIBEL                 GONTOR    20151104110116000000000005300
1300079316GIL ALVARADO JESSICA                    GONTOR    20151104110116000000000002000
0100058279HERNANDEZ ROJAS MARIBEL                 GONTOR    20151105110116000000000005850
1300079316GIL ALVARADO JESSICA                    GONTOR    20151105110116000000000001000
0100058279HERNANDEZ ROJAS MARIBEL                 GONTOR    20151106110116000000000004400
1300079316GIL ALVARADO JESSICA                    GONTOR    20151106110116000000000007450
0000079349ESTEBAN NICOLAS ANABEL YARET            GONTOR    20151106110116000000000001000
0100058279HERNANDEZ ROJAS MARIBEL                 GONTOR    20151107110116000000000001000
1300079316GIL ALVARADO JESSICA                    GONTOR    20151107110116000000000003400
0000079349ESTEBAN NICOLAS ANABEL YARET            GONTOR    20151107110116000000000004450
1300079316GIL ALVARADO JESSICA                    GONTOR    20151108110116000000000014700
0000079349ESTEBAN NICOLAS ANABEL YARET            GONTOR    20151108110116000000000004400
0100058279HERNANDEZ ROJAS MARIBEL                 GONTOR    20151109110116000000000005450
1300079316GIL ALVARADO JESSICA                    GONTOR    20151109110116000000000025800
0000079349ESTEBAN NICOLAS ANABEL YARET            GONTOR    20151109110116000000000001000
0100058279HERNANDEZ ROJAS MARIBEL                 GONTOR    20151110110116000000000008250
1300079316GIL ALVARADO JESSICA                    GONTOR    20151110110116000000000022400
0100058279HERNANDEZ ROJAS MARIBEL                 GONTOR    20151111110116000000000005450
1300079316GIL ALVARADO JESSICA                    GONTOR    20151111110116000000000004850
0100058279HERNANDEZ ROJAS MARIBEL                 GONTOR    20151112110116000000000003600
1300079316GIL ALVARADO JESSICA                    IMPERIALES20151112110116000000000002850
0100058279HERNANDEZ ROJAS MARIBEL                 GONTOR    20151113110116000000000005200
0100058279HERNANDEZ ROJAS MARIBEL                 IMPERIALES20151113110116000000000009600
1300079316GIL ALVARADO JESSICA                    GONTOR    20151113110116000000000007450
0100058279HERNANDEZ ROJAS MARIBEL                 GONTOR    20151114110116000000000006300
1300079316GIL ALVARADO JESSICA                    GONTOR    20151114110116000000000011850
0100058279HERNANDEZ ROJAS MARIBEL                 GONTOR    20151115110116000000000013700
0100058279HERNANDEZ ROJAS MARIBEL                 GONTOR    20151116110116000000000013150
1300079316GIL ALVARADO JESSICA                    GONTOR    20151116110116000000000001000
0100058279HERNANDEZ ROJAS MARIBEL                 GONTOR    20151117110116000000000012250
1300079316GIL ALVARADO JESSICA                    GONTOR    20151117110116000000000003800
0100058279HERNANDEZ ROJAS MARIBEL                 GONTOR    20151118110116000000000004100
0100058279HERNANDEZ ROJAS MARIBEL                 IMPERIALES20151118110116000000000009600
1300079316GIL ALVARADO JESSICA                    GONTOR    20151118110116000000000001000
0100058279HERNANDEZ ROJAS MARIBEL                 GONTOR    20151119110116000000000005000
1300079316GIL ALVARADO JESSICA                    GONTOR    20151119110116000000000012300
0000079349ESTEBAN NICOLAS ANABEL YARET            GONTOR    20151119110116000000000001400
0100058279HERNANDEZ ROJAS MARIBEL                 GONTOR    20151120110116000000000014650
1300079316GIL ALVARADO JESSICA                    GONTOR    20151120110116000000000003850
0100058279HERNANDEZ ROJAS MARIBEL                 GONTOR    20151121110116000000000001400
1300079316GIL ALVARADO JESSICA                    GONTOR    20151121110116000000000002000
0000079349ESTEBAN NICOLAS ANABEL YARET            IMPERIALES20151121110116000000000009600
0100058279HERNANDEZ ROJAS MARIBEL                 GONTOR    20151122110116000000000002800
0100058279HERNANDEZ ROJAS MARIBEL                 IMPERIALES20151122110116000000000011800
1300079316GIL ALVARADO JESSICA                    GONTOR    20151122110116000000000002400
1300079316GIL ALVARADO JESSICA                    IMPERIALES20151122110116000000000009600
0100027731TORRECILLA SOLANO MARIO                 GONTOR    20151123110116000000000004450
0100058279HERNANDEZ ROJAS MARIBEL                 GONTOR    20151123110116000000000001000
0100027731TORRECILLA SOLANO MARIO                 GONTOR    20151124110116000000000003450
0100058279HERNANDEZ ROJAS MARIBEL                 GONTOR    20151124110116000000000012300
1300079316GIL ALVARADO JESSICA                    GONTOR    20151124110116000000000003400
0100027731TORRECILLA SOLANO MARIO                 GONTOR    20151125110116000000000003000
0100027731TORRECILLA SOLANO MARIO                 IMPERIALES20151125110116000000000002850
0100058279HERNANDEZ ROJAS MARIBEL                 GONTOR    20151125110116000000000005050
0100027731TORRECILLA SOLANO MARIO                 GONTOR    20151126110116000000000001400
0100058279HERNANDEZ ROJAS MARIBEL                 GONTOR    20151127110116000000000004450
0100058279HERNANDEZ ROJAS MARIBEL                 IMPERIALES20151127110116000000000014200
1300079316GIL ALVARADO JESSICA                    GONTOR    20151127110116000000000003850
1300079316GIL ALVARADO JESSICA                    GONTOR    20151128110116000000000004000
0100027731TORRECILLA SOLANO MARIO                 GONTOR    20151129110116000000000002000
1300079316GIL ALVARADO JESSICA                    GONTOR    20151129110116000000000003450
1300061660ORNELAS LAZARO JUANA LUISA              GONTOR    20151101110129000000000006900
1300073299ARRIAGA SOLEDAD RICARDO                 IMPERIALES20151101110129000000000003900
1300075926RAMIREZ MARQUEZ PAMELA                  GONTOR    20151101110129000000000001000
1300061660ORNELAS LAZARO JUANA LUISA              GONTOR    20151102110129000000000002500
0000072399SALTO BELTRAN ROSALBA                   IMPERIALES20151102110129000000000002155
1300061660ORNELAS LAZARO JUANA LUISA              GONTOR    20151103110129000000000012100
0100063299ROSAS HERNANDEZ LAURA                   GONTOR    20151103110129000000000002500
1300073299ARRIAGA SOLEDAD RICARDO                 GONTOR    20151103110129000000000009000
1300073299ARRIAGA SOLEDAD RICARDO                 IMPERIALES20151103110129000000000000900
1300075926RAMIREZ MARQUEZ PAMELA                  GONTOR    20151103110129000000000016400
1300075926RAMIREZ MARQUEZ PAMELA                  IMPERIALES20151103110129000000000002200
1300061660ORNELAS LAZARO JUANA LUISA              GONTOR    20151104110129000000000002800
1300061660ORNELAS LAZARO JUANA LUISA              IMPERIALES20151104110129000000000002200
0100063299ROSAS HERNANDEZ LAURA                   GONTOR    20151104110129000000000007000
0100063299ROSAS HERNANDEZ LAURA                   IMPERIALES20151104110129000000000002850
1300073299ARRIAGA SOLEDAD RICARDO                 GONTOR    20151104110129000000000003000
0100063299ROSAS HERNANDEZ LAURA                   GONTOR    20151105110129000000000030550
1300073299ARRIAGA SOLEDAD RICARDO                 GONTOR    20151105110129000000000005450
1300075926RAMIREZ MARQUEZ PAMELA                  GONTOR    20151105110129000000000008400
1300075926RAMIREZ MARQUEZ PAMELA                  IMPERIALES20151105110129000000000009050
1300061660ORNELAS LAZARO JUANA LUISA              GONTOR    20151106110129000000000026450
1300061660ORNELAS LAZARO JUANA LUISA              IMPERIALES20151106110129000000000002155
0100063299ROSAS HERNANDEZ LAURA                   GONTOR    20151106110129000000000007300
1300075926RAMIREZ MARQUEZ PAMELA                  GONTOR    20151106110129000000000002450
1300061660ORNELAS LAZARO JUANA LUISA              GONTOR    20151107110129000000000011800
1300061660ORNELAS LAZARO JUANA LUISA              IMPERIALES20151107110129000000000002600
1300073299ARRIAGA SOLEDAD RICARDO                 GONTOR    20151107110129000000000008000
1300075926RAMIREZ MARQUEZ PAMELA                  GONTOR    20151107110129000000000015700
1300061660ORNELAS LAZARO JUANA LUISA              GONTOR    20151108110129000000000003450
1300061660ORNELAS LAZARO JUANA LUISA              IMPERIALES20151108110129000000000010450
0100063299ROSAS HERNANDEZ LAURA                   GONTOR    20151108110129000000000002450
1300073299ARRIAGA SOLEDAD RICARDO                 GONTOR    20151108110129000000000005450
1300061660ORNELAS LAZARO JUANA LUISA              GONTOR    20151109110129000000000007900
0100063299ROSAS HERNANDEZ LAURA                   GONTOR    20151109110129000000000004450
1300075926RAMIREZ MARQUEZ PAMELA                  GONTOR    20151109110129000000000011600
1300075926RAMIREZ MARQUEZ PAMELA                  IMPERIALES20151109110129000000000002600
0100063299ROSAS HERNANDEZ LAURA                   GONTOR    20151110110129000000000001000
1300075926RAMIREZ MARQUEZ PAMELA                  GONTOR    20151110110129000000000002450
1300061660ORNELAS LAZARO JUANA LUISA              GONTOR    20151111110129000000000002000
0100063299ROSAS HERNANDEZ LAURA                   GONTOR    20151111110129000000000002450
1300073299ARRIAGA SOLEDAD RICARDO                 GONTOR    20151111110129000000000002600
1300073299ARRIAGA SOLEDAD RICARDO                 IMPERIALES20151111110129000000000007500
1300075926RAMIREZ MARQUEZ PAMELA                  GONTOR    20151111110129000000000009650
1300061660ORNELAS LAZARO JUANA LUISA              IMPERIALES20151112110129000000000006300
0100063299ROSAS HERNANDEZ LAURA                   GONTOR    20151112110129000000000001000
1300075926RAMIREZ MARQUEZ PAMELA                  GONTOR    20151112110129000000000025450
0100063299ROSAS HERNANDEZ LAURA                   GONTOR    20151113110129000000000002450
0100063299ROSAS HERNANDEZ LAURA                   IMPERIALES20151113110129000000000002200
1300073299ARRIAGA SOLEDAD RICARDO                 GONTOR    20151113110129000000000004800
1300075926RAMIREZ MARQUEZ PAMELA                  GONTOR    20151113110129000000000006450
1300061660ORNELAS LAZARO JUANA LUISA              GONTOR    20151114110129000000000001400
1300073299ARRIAGA SOLEDAD RICARDO                 GONTOR    20151114110129000000000007850
1300073299ARRIAGA SOLEDAD RICARDO                 IMPERIALES20151114110129000000000002200
1300075926RAMIREZ MARQUEZ PAMELA                  GONTOR    20151114110129000000000004450
0100063299ROSAS HERNANDEZ LAURA                   GONTOR    20151115110129000000000002450
1300073299ARRIAGA SOLEDAD RICARDO                 GONTOR    20151115110129000000000003400
1300073299ARRIAGA SOLEDAD RICARDO                 IMPERIALES20151115110129000000000002850
1300061660ORNELAS LAZARO JUANA LUISA              GONTOR    20151116110129000000000001000
1300061660ORNELAS LAZARO JUANA LUISA              IMPERIALES20151116110129000000000002850
0100063299ROSAS HERNANDEZ LAURA                   GONTOR    20151116110129000000000001400
1300073299ARRIAGA SOLEDAD RICARDO                 GONTOR    20151116110129000000000002450
1300075926RAMIREZ MARQUEZ PAMELA                  GONTOR    20151116110129000000000005450
1300061660ORNELAS LAZARO JUANA LUISA              GONTOR    20151117110129000000000006000
0100063299ROSAS HERNANDEZ LAURA                   GONTOR    20151117110129000000000005850
1300073299ARRIAGA SOLEDAD RICARDO                 GONTOR    20151117110129000000000004450
1300073299ARRIAGA SOLEDAD RICARDO                 IMPERIALES20151117110129000000000022650
1300075926RAMIREZ MARQUEZ PAMELA                  IMPERIALES20151117110129000000000002850
1300073299ARRIAGA SOLEDAD RICARDO                 GONTOR    20151118110129000000000002450
1300075926RAMIREZ MARQUEZ PAMELA                  GONTOR    20151118110129000000000010400
1300061660ORNELAS LAZARO JUANA LUISA              GONTOR    20151119110129000000000010150
0100063299ROSAS HERNANDEZ LAURA                   GONTOR    20151119110129000000000003450
1300073299ARRIAGA SOLEDAD RICARDO                 GONTOR    20151119110129000000000004900
1300061660ORNELAS LAZARO JUANA LUISA              GONTOR    20151120110129000000000002000
1300061660ORNELAS LAZARO JUANA LUISA              IMPERIALES20151120110129000000000005700
0100063299ROSAS HERNANDEZ LAURA                   GONTOR    20151120110129000000000013750
0100063299ROSAS HERNANDEZ LAURA                   IMPERIALES20151120110129000000000002600
1300075926RAMIREZ MARQUEZ PAMELA                  GONTOR    20151120110129000000000006850
1300061660ORNELAS LAZARO JUANA LUISA              GONTOR    20151121110129000000000006250
1300073299ARRIAGA SOLEDAD RICARDO                 GONTOR    20151121110129000000000003850
1300075926RAMIREZ MARQUEZ PAMELA                  GONTOR    20151121110129000000000019000
1300061660ORNELAS LAZARO JUANA LUISA              IMPERIALES20151122110129000000000002850
0100063299ROSAS HERNANDEZ LAURA                   GONTOR    20151122110129000000000011850
1300075926RAMIREZ MARQUEZ PAMELA                  GONTOR    20151122110129000000000002000
1300061660ORNELAS LAZARO JUANA LUISA              GONTOR    20151123110129000000000019000
1300061660ORNELAS LAZARO JUANA LUISA              IMPERIALES20151123110129000000000002850
0100063299ROSAS HERNANDEZ LAURA                   GONTOR    20151123110129000000000005900
0100063299ROSAS HERNANDEZ LAURA                   IMPERIALES20151123110129000000000002200
1300073299ARRIAGA SOLEDAD RICARDO                 GONTOR    20151123110129000000000001400
1300061660ORNELAS LAZARO JUANA LUISA              GONTOR    20151124110129000000000003450
1300061660ORNELAS LAZARO JUANA LUISA              IMPERIALES20151124110129000000000004400
0100063299ROSAS HERNANDEZ LAURA                   GONTOR    20151124110129000000000003850
0100063299ROSAS HERNANDEZ LAURA                   IMPERIALES20151124110129000000000003150
1300073299ARRIAGA SOLEDAD RICARDO                 GONTOR    20151124110129000000000002000
1300075926RAMIREZ MARQUEZ PAMELA                  GONTOR    20151124110129000000000007100
1300061660ORNELAS LAZARO JUANA LUISA              GONTOR    20151125110129000000000021150
0100063299ROSAS HERNANDEZ LAURA                   GONTOR    20151125110129000000000001400
0100063299ROSAS HERNANDEZ LAURA                   IMPERIALES20151125110129000000000002200
1300073299ARRIAGA SOLEDAD RICARDO                 GONTOR    20151125110129000000000004500
1300075926RAMIREZ MARQUEZ PAMELA                  GONTOR    20151125110129000000000006450
0100063299ROSAS HERNANDEZ LAURA                   GONTOR    20151126110129000000000003850
0100063299ROSAS HERNANDEZ LAURA                   IMPERIALES20151126110129000000000003150
1300073299ARRIAGA SOLEDAD RICARDO                 GONTOR    20151126110129000000000002450
1300075926RAMIREZ MARQUEZ PAMELA                  IMPERIALES20151126110129000000000002200
1300061660ORNELAS LAZARO JUANA LUISA              GONTOR    20151127110129000000000002450
0100063299ROSAS HERNANDEZ LAURA                   GONTOR    20151127110129000000000001400
1300073299ARRIAGA SOLEDAD RICARDO                 GONTOR    20151127110129000000000008900
1300075926RAMIREZ MARQUEZ PAMELA                  GONTOR    20151127110129000000000003850
1300075926RAMIREZ MARQUEZ PAMELA                  IMPERIALES20151127110129000000000007700
1300061660ORNELAS LAZARO JUANA LUISA              GONTOR    20151128110129000000000006900
1300073299ARRIAGA SOLEDAD RICARDO                 GONTOR    20151128110129000000000002450
1300075926RAMIREZ MARQUEZ PAMELA                  GONTOR    20151128110129000000000001400
0100063299ROSAS HERNANDEZ LAURA                   GONTOR    20151129110129000000000009250
1300073299ARRIAGA SOLEDAD RICARDO                 GONTOR    20151129110129000000000002400
0100063299ROSAS HERNANDEZ LAURA                   GONTOR    20151130110129000000000001400
1300073299ARRIAGA SOLEDAD RICARDO                 GONTOR    20151130110129000000000005650
1300075926RAMIREZ MARQUEZ PAMELA                  GONTOR    20151130110129000000000018150
1300079475TINAJERO SALGADO LEONEL                 GONTOR    20151130110129000000000004450
1300053241RAMIREZ ISLAS ALBERTO AGUSTIN           GONTOR    20151101110141000000000001000
1300077574DE LA CRUZ MUJICA  ANTONIO              GONTOR    20151101110141000000000001800
1300077574DE LA CRUZ MUJICA  ANTONIO              GONTOR    20151102110141000000000006500
0100063288HERNANDEZ PAEZ DANIEL                   GONTOR    20151103110141000000000006000
1300077574DE LA CRUZ MUJICA  ANTONIO              GONTOR    20151103110141000000000004000
1300053241RAMIREZ ISLAS ALBERTO AGUSTIN           GONTOR    20151104110141000000000004000
1300077574DE LA CRUZ MUJICA  ANTONIO              GONTOR    20151104110141000000000007000
0000077772BRYAN SANCHEZ SALAS                     GONTOR    20151104110141000000000002000
1300053241RAMIREZ ISLAS ALBERTO AGUSTIN           GONTOR    20151105110141000000000004000
1300077574DE LA CRUZ MUJICA  ANTONIO              GONTOR    20151105110141000000000002000
0000077772BRYAN SANCHEZ SALAS                     GONTOR    20151105110141000000000004450
0100063288HERNANDEZ PAEZ DANIEL                   GONTOR    20151106110141000000000004450
1300077574DE LA CRUZ MUJICA  ANTONIO              GONTOR    20151106110141000000000002000
0100063288HERNANDEZ PAEZ DANIEL                   GONTOR    20151107110141000000000007000
1300077574DE LA CRUZ MUJICA  ANTONIO              GONTOR    20151107110141000000000002000
0100063288HERNANDEZ PAEZ DANIEL                   GONTOR    20151109110141000000000006650
1300077574DE LA CRUZ MUJICA  ANTONIO              GONTOR    20151109110141000000000005000
0000077772BRYAN SANCHEZ SALAS                     GONTOR    20151109110141000000000002000
