1300024815DE LA ROSA LOPEZ JUAN GABRIEL           GONTOR    20160401040103000000000006000
0100026065PEREZ ZARATE ALFREDO                    GONTOR    20160401040103000000000001000
1300065273PAIZ DE JESUS ALFONSO                   GONTOR    20160401040103000000000011500
1300065273PAIZ DE JESUS ALFONSO                   IMPERIALES20160401040103000000000052450
1300069405MEJIA RODRIGUEZ ALFONSO                 GONTOR    20160401040103000000000011000
0100017778MUNOZ SANCHEZ MARIA SOLEDAD             GONTOR    20160402040103000000000002000
1300024815DE LA ROSA LOPEZ JUAN GABRIEL           GONTOR    20160402040103000000000005000
0100026065PEREZ ZARATE ALFREDO                    GONTOR    20160402040103000000000004000
1300065273PAIZ DE JESUS ALFONSO                   GONTOR    20160402040103000000000005000
1300069405MEJIA RODRIGUEZ ALFONSO                 GONTOR    20160402040103000000000003000
0100079398HERNANDEZ PEREZ MONTSERRAT              GONTOR    20160402040103000000000002000
0100017778MUNOZ SANCHEZ MARIA SOLEDAD             GONTOR    20160403040103000000000001000
1300024815DE LA ROSA LOPEZ JUAN GABRIEL           GONTOR    20160403040103000000000012000
1300024815DE LA ROSA LOPEZ JUAN GABRIEL           IMPERIALES20160403040103000000000007250
1300069405MEJIA RODRIGUEZ ALFONSO                 GONTOR    20160403040103000000000006850
0100079398HERNANDEZ PEREZ MONTSERRAT              GONTOR    20160403040103000000000004000
0100017778MUNOZ SANCHEZ MARIA SOLEDAD             GONTOR    20160404040103000000000010500
1300024815DE LA ROSA LOPEZ JUAN GABRIEL           GONTOR    20160404040103000000000002000
1300024815DE LA ROSA LOPEZ JUAN GABRIEL           IMPERIALES20160404040103000000000008700
0100079398HERNANDEZ PEREZ MONTSERRAT              GONTOR    20160404040103000000000002000
1300024815DE LA ROSA LOPEZ JUAN GABRIEL           GONTOR    20160405040103000000000010500
1300024815DE LA ROSA LOPEZ JUAN GABRIEL           IMPERIALES20160405040103000000000014500
1300069405MEJIA RODRIGUEZ ALFONSO                 GONTOR    20160405040103000000000004000
0100079398HERNANDEZ PEREZ MONTSERRAT              GONTOR    20160405040103000000000002000
0100017778MUNOZ SANCHEZ MARIA SOLEDAD             IMPERIALES20160407040103000000000006650
1300069405MEJIA RODRIGUEZ ALFONSO                 GONTOR    20160408040103000000000003000
0000079398HERNANDEZ PEREZ MONTSERRAT              IMPERIALES20160410040103000000000020700
0100026065PEREZ ZARATE ALFREDO                    GONTOR    20160412040103000000000008500
0100026065PEREZ ZARATE ALFREDO                    IMPERIALES20160412040103000000000010750
1300069405MEJIA RODRIGUEZ ALFONSO                 GONTOR    20160412040103000000000002100
1300069405MEJIA RODRIGUEZ ALFONSO                 IMPERIALES20160412040103000000000013300
0000079398HERNANDEZ PEREZ MONTSERRAT              GONTOR    20160412040103000000000002000
0100017778MUNOZ SANCHEZ MARIA SOLEDAD             GONTOR    20160413040103000000000006000
0100026065PEREZ ZARATE ALFREDO                    GONTOR    20160413040103000000000095750
1300069405MEJIA RODRIGUEZ ALFONSO                 GONTOR    20160413040103000000000007000
0100017778MUNOZ SANCHEZ MARIA SOLEDAD             GONTOR    20160414040103000000000004150
1300024815DE LA ROSA LOPEZ JUAN GABRIEL           GONTOR    20160414040103000000000006500
0100026065PEREZ ZARATE ALFREDO                    GONTOR    20160414040103000000000006400
1300069405MEJIA RODRIGUEZ ALFONSO                 GONTOR    20160414040103000000000006000
1300069405MEJIA RODRIGUEZ ALFONSO                 IMPERIALES20160414040103000000000006650
0100017778MUNOZ SANCHEZ MARIA SOLEDAD             GONTOR    20160415040103000000000001000
1300024815DE LA ROSA LOPEZ JUAN GABRIEL           GONTOR    20160415040103000000000005000
1300069405MEJIA RODRIGUEZ ALFONSO                 GONTOR    20160415040103000000000002000
1300069405MEJIA RODRIGUEZ ALFONSO                 IMPERIALES20160415040103000000000002150
0000079398HERNANDEZ PEREZ MONTSERRAT              GONTOR    20160415040103000000000003000
1300024815DE LA ROSA LOPEZ JUAN GABRIEL           GONTOR    20160416040103000000000004000
0100026065PEREZ ZARATE ALFREDO                    GONTOR    20160416040103000000000001000
0100026065PEREZ ZARATE ALFREDO                    IMPERIALES20160416040103000000000004350
1300076752HIDALGO GARCIA DOMINGA                  GONTOR    20160416040103000000000006400
0000079398HERNANDEZ PEREZ MONTSERRAT              GONTOR    20160416040103000000000002500
1300024815DE LA ROSA LOPEZ JUAN GABRIEL           GONTOR    20160417040103000000000003000
0100026065PEREZ ZARATE ALFREDO                    GONTOR    20160417040103000000000001000
1300069405MEJIA RODRIGUEZ ALFONSO                 GONTOR    20160417040103000000000001000
1300069405MEJIA RODRIGUEZ ALFONSO                 IMPERIALES20160417040103000000000011600
0000079398HERNANDEZ PEREZ MONTSERRAT              GONTOR    20160417040103000000000005000
0100017778MUNOZ SANCHEZ MARIA SOLEDAD             GONTOR    20160418040103000000000002000
1300024815DE LA ROSA LOPEZ JUAN GABRIEL           GONTOR    20160418040103000000000004000
0100026065PEREZ ZARATE ALFREDO                    GONTOR    20160418040103000000000004000
0100026065PEREZ ZARATE ALFREDO                    IMPERIALES20160418040103000000000012000
0000079398HERNANDEZ PEREZ MONTSERRAT              GONTOR    20160418040103000000000001000
1300024815DE LA ROSA LOPEZ JUAN GABRIEL           GONTOR    20160419040103000000000003000
1300024815DE LA ROSA LOPEZ JUAN GABRIEL           IMPERIALES20160419040103000000000006650
0100026065PEREZ ZARATE ALFREDO                    GONTOR    20160419040103000000000002000
1300069405MEJIA RODRIGUEZ ALFONSO                 GONTOR    20160419040103000000000004000
1300065273PAIZ DE JESUS ALFONSO                   GONTOR    20160420040103000000000002000
1300024815DE LA ROSA LOPEZ JUAN GABRIEL           IMPERIALES20160421040103000000000018300
0100026065PEREZ ZARATE ALFREDO                    GONTOR    20160421040103000000000003500
0100026065PEREZ ZARATE ALFREDO                    GONTOR    20160422040103000000000006150
1300065273PAIZ DE JESUS ALFONSO                   GONTOR    20160422040103000000000003500
1300065273PAIZ DE JESUS ALFONSO                   IMPERIALES20160422040103000000000027500
0100026065PEREZ ZARATE ALFREDO                    IMPERIALES20160424040103000000000004350
1300024815DE LA ROSA LOPEZ JUAN GABRIEL           IMPERIALES20160425040103000000000007000
1300065273PAIZ DE JESUS ALFONSO                   GONTOR    20160425040103000000000005100
1300065273PAIZ DE JESUS ALFONSO                   IMPERIALES20160425040103000000000009250
1300069405MEJIA RODRIGUEZ ALFONSO                 GONTOR    20160425040103000000000007000
1300069405MEJIA RODRIGUEZ ALFONSO                 IMPERIALES20160425040103000000000004350
0100017778MUNOZ SANCHEZ MARIA SOLEDAD             GONTOR    20160428040103000000000002000
1300024815DE LA ROSA LOPEZ JUAN GABRIEL           GONTOR    20160428040103000000000003000
0100026065PEREZ ZARATE ALFREDO                    GONTOR    20160428040103000000000003000
1300024815DE LA ROSA LOPEZ JUAN GABRIEL           GONTOR    20160429040103000000000007000
1300041331ORTEGA CONTRERAS FRANCISCA              GONTOR    20160429040103000000000001000
1300065273PAIZ DE JESUS ALFONSO                   GONTOR    20160429040103000000000002000
0100017778MUNOZ SANCHEZ MARIA SOLEDAD             GONTOR    20160430040103000000000001000
0100026065PEREZ ZARATE ALFREDO                    GONTOR    20160430040103000000000001000
1300065273PAIZ DE JESUS ALFONSO                   GONTOR    20160430040103000000000007000
1300065273PAIZ DE JESUS ALFONSO                   IMPERIALES20160430040103000000000005000
1300069405MEJIA RODRIGUEZ ALFONSO                 GONTOR    20160430040103000000000010500
1300029625GARCIA TORIBIO ELPIDIO                  IMPERIALES20160401040105000000000003150
1300054672ROSAS JIMENEZ JOSE AMBROSIO LUIS        IMPERIALES20160401040105000000000007750
1300035835SANCHEZ GUZMAN NORMA                    GONTOR    20160402040105000000000003000
1300076752HIDALGO GARCIA DOMINGA                  GONTOR    20160402040105000000000030100
1300054672ROSAS JIMENEZ JOSE AMBROSIO LUIS        GONTOR    20160403040105000000000003500
1300054672ROSAS JIMENEZ JOSE AMBROSIO LUIS        IMPERIALES20160403040105000000000003500
1300035835SANCHEZ GUZMAN NORMA                    GONTOR    20160404040105000000000005000
1300076752HIDALGO GARCIA DOMINGA                  GONTOR    20160406040105000000000002000
1300035835SANCHEZ GUZMAN NORMA                    GONTOR    20160407040105000000000002000
0100056639RAYGOZA RODRIGUEZ EDMUNDO MARTIN        GONTOR    20160407040105000000000005100
1300061377MENDOZA BARRIOS GUSTAVO                 GONTOR    20160407040105000000000002000
1300061377MENDOZA BARRIOS GUSTAVO                 IMPERIALES20160407040105000000000015600
1300035835SANCHEZ GUZMAN NORMA                    IMPERIALES20160408040105000000000015000
1300054672ROSAS JIMENEZ JOSE AMBROSIO LUIS        GONTOR    20160408040105000000000005100
1300061377MENDOZA BARRIOS GUSTAVO                 IMPERIALES20160408040105000000000007800
1300054672ROSAS JIMENEZ JOSE AMBROSIO LUIS        GONTOR    20160409040105000000000006100
1300029625GARCIA TORIBIO ELPIDIO                  GONTOR    20160411040105000000000004500
1300035835SANCHEZ GUZMAN NORMA                    IMPERIALES20160411040105000000000005000
1300061377MENDOZA BARRIOS GUSTAVO                 GONTOR    20160411040105000000000002000
1300029625GARCIA TORIBIO ELPIDIO                  IMPERIALES20160412040105000000000005000
1300035835SANCHEZ GUZMAN NORMA                    IMPERIALES20160412040105000000000020300
1300061377MENDOZA BARRIOS GUSTAVO                 IMPERIALES20160412040105000000000006650
1300029625GARCIA TORIBIO ELPIDIO                  IMPERIALES20160413040105000000000009450
1300035835SANCHEZ GUZMAN NORMA                    GONTOR    20160413040105000000000005500
1300035835SANCHEZ GUZMAN NORMA                    IMPERIALES20160413040105000000000002150
0100029526SANCHEZ MORENO CARLOS OSCAR             GONTOR    20160414040105000000000002500
1300035835SANCHEZ GUZMAN NORMA                    GONTOR    20160414040105000000000003500
0100056639RAYGOZA RODRIGUEZ EDMUNDO MARTIN        GONTOR    20160414040105000000000044000
1300061377MENDOZA BARRIOS GUSTAVO                 IMPERIALES20160414040105000000000016600
1300076752HIDALGO GARCIA DOMINGA                  GONTOR    20160414040105000000000002000
1300035835SANCHEZ GUZMAN NORMA                    GONTOR    20160415040105000000000006150
1300035835SANCHEZ GUZMAN NORMA                    IMPERIALES20160415040105000000000004150
1300029625GARCIA TORIBIO ELPIDIO                  GONTOR    20160416040105000000000003000
1300029625GARCIA TORIBIO ELPIDIO                  IMPERIALES20160416040105000000000008150
1300035835SANCHEZ GUZMAN NORMA                    GONTOR    20160416040105000000000017600
1300054672ROSAS JIMENEZ JOSE AMBROSIO LUIS        GONTOR    20160418040105000000000004400
1300061377MENDOZA BARRIOS GUSTAVO                 IMPERIALES20160418040105000000000003500
0100025325GUADARRAMA ATRISCO RICARDO              IMPERIALES20160419040105000000000006650
1300076752HIDALGO GARCIA DOMINGA                  IMPERIALES20160419040105000000000006600
0100025325GUADARRAMA ATRISCO RICARDO              GONTOR    20160420040105000000000001000
1300035835SANCHEZ GUZMAN NORMA                    GONTOR    20160420040105000000000001000
1300035835SANCHEZ GUZMAN NORMA                    IMPERIALES20160420040105000000000009250
1300054672ROSAS JIMENEZ JOSE AMBROSIO LUIS        GONTOR    20160420040105000000000002000
1300054672ROSAS JIMENEZ JOSE AMBROSIO LUIS        GONTOR    20160421040105000000000002000
0100056639RAYGOZA RODRIGUEZ EDMUNDO MARTIN        GONTOR    20160421040105000000000006150
1300061377MENDOZA BARRIOS GUSTAVO                 GONTOR    20160421040105000000000003150
0100029526SANCHEZ MORENO CARLOS OSCAR             IMPERIALES20160422040105000000000018300
1300054672ROSAS JIMENEZ JOSE AMBROSIO LUIS        GONTOR    20160422040105000000000003000
1300076752HIDALGO GARCIA DOMINGA                  GONTOR    20160422040105000000000002000
1300035835SANCHEZ GUZMAN NORMA                    IMPERIALES20160423040105000000000014500
1300061377MENDOZA BARRIOS GUSTAVO                 GONTOR    20160423040105000000000005150
1300076752HIDALGO GARCIA DOMINGA                  GONTOR    20160423040105000000000003500
1300076752HIDALGO GARCIA DOMINGA                  IMPERIALES20160423040105000000000007250
0100056639RAYGOZA RODRIGUEZ EDMUNDO MARTIN        GONTOR    20160424040105000000000003000
1300061377MENDOZA BARRIOS GUSTAVO                 GONTOR    20160424040105000000000003500
1300061377MENDOZA BARRIOS GUSTAVO                 IMPERIALES20160424040105000000000006650
1300035835SANCHEZ GUZMAN NORMA                    GONTOR    20160425040105000000000002000
1300035835SANCHEZ GUZMAN NORMA                    IMPERIALES20160425040105000000000002150
1300076752HIDALGO GARCIA DOMINGA                  GONTOR    20160425040105000000000018600
1300035835SANCHEZ GUZMAN NORMA                    IMPERIALES20160426040105000000000007250
1300076752HIDALGO GARCIA DOMINGA                  GONTOR    20160426040105000000000001000
1300035835SANCHEZ GUZMAN NORMA                    IMPERIALES20160427040105000000000012750
1300061377MENDOZA BARRIOS GUSTAVO                 GONTOR    20160427040105000000000001000
1300076752HIDALGO GARCIA DOMINGA                  GONTOR    20160427040105000000000001000
1300035835SANCHEZ GUZMAN NORMA                    GONTOR    20160428040105000000000002000
1300035835SANCHEZ GUZMAN NORMA                    IMPERIALES20160428040105000000000005650
1300061377MENDOZA BARRIOS GUSTAVO                 GONTOR    20160428040105000000000025000
1300076752HIDALGO GARCIA DOMINGA                  IMPERIALES20160428040105000000000003150
1300035835SANCHEZ GUZMAN NORMA                    IMPERIALES20160429040105000000000003150
1300054672ROSAS JIMENEZ JOSE AMBROSIO LUIS        GONTOR    20160429040105000000000002000
1300061377MENDOZA BARRIOS GUSTAVO                 IMPERIALES20160429040105000000000008150
0100003977CASTULO TREJO MA TERESA                 GONTOR    20160403040106000000000003500
0100003977CASTULO TREJO MA TERESA                 IMPERIALES20160403040106000000000005000
0100073979LOPEZ SANCHEZ ELIZABETH                 GONTOR    20160406040106000000000001500
0100073979LOPEZ SANCHEZ ELIZABETH                 GONTOR    20160407040106000000000004250
0000079902SALINAS FLORES EDDY LEONEL              IMPERIALES20160410040106000000000002150
0100003977CASTULO TREJO MA TERESA                 IMPERIALES20160412040106000000000005750
0100003977CASTULO TREJO MA TERESA                 IMPERIALES20160415040106000000000003500
0000060177SANCHEZ ROJAS JUANA ISELA               GONTOR    20160415040106000000000003150
1300076014TORRES MARQUEZ ARACELI                  IMPERIALES20160416040106000000000016600
0100003977CASTULO TREJO MA TERESA                 GONTOR    20160417040106000000000003500
0100003977CASTULO TREJO MA TERESA                 IMPERIALES20160417040106000000000016600
0100003977CASTULO TREJO MA TERESA                 GONTOR    20160421040106000000000004400
0000077512BAUTISTA VALENCIA JULIO CESAR           IMPERIALES20160421040106000000000055100
0100003977CASTULO TREJO MA TERESA                 IMPERIALES20160422040106000000000005000
0000060177SANCHEZ ROJAS JUANA ISELA               IMPERIALES20160422040106000000000018300
0100003977CASTULO TREJO MA TERESA                 IMPERIALES20160425040106000000000010000
1300025708VAZQUEZ CONTRERAS SILVESTRE             GONTOR    20160401040107000000000001000
1300060962ESCAMILLA MEZA FRANCISCO JAVIER         GONTOR    20160401040107000000000004400
1300060962ESCAMILLA MEZA FRANCISCO JAVIER         GONTOR    20160402040107000000000001000
1300075918MELGAREJO RODRIGUEZ SELENE              GONTOR    20160402040107000000000002000
0100061443RAMIREZ MERCADO MONICA                  GONTOR    20160403040107000000000006150
1300060962ESCAMILLA MEZA FRANCISCO JAVIER         GONTOR    20160404040107000000000004400
1300075918MELGAREJO RODRIGUEZ SELENE              GONTOR    20160404040107000000000004400
1300075918MELGAREJO RODRIGUEZ SELENE              IMPERIALES20160404040107000000000009250
1300025708VAZQUEZ CONTRERAS SILVESTRE             GONTOR    20160405040107000000000002000
1300060962ESCAMILLA MEZA FRANCISCO JAVIER         GONTOR    20160405040107000000000001000
0100061443RAMIREZ MERCADO MONICA                  GONTOR    20160405040107000000000001000
1300075918MELGAREJO RODRIGUEZ SELENE              GONTOR    20160405040107000000000004400
1300025708VAZQUEZ CONTRERAS SILVESTRE             GONTOR    20160406040107000000000002000
0100061443RAMIREZ MERCADO MONICA                  GONTOR    20160406040107000000000001000
1300060962ESCAMILLA MEZA FRANCISCO JAVIER         GONTOR    20160407040107000000000001000
0100061443RAMIREZ MERCADO MONICA                  GONTOR    20160407040107000000000001000
0100061443RAMIREZ MERCADO MONICA                  GONTOR    20160408040107000000000001000
0100055212GARDUNO DIAZ JUAN TIRZO                 GONTOR    20160409040107000000000001000
0100061443RAMIREZ MERCADO MONICA                  GONTOR    20160412040107000000000001000
1300075918MELGAREJO RODRIGUEZ SELENE              GONTOR    20160414040107000000000006150
0100061443RAMIREZ MERCADO MONICA                  GONTOR    20160415040107000000000001000
1300075918MELGAREJO RODRIGUEZ SELENE              IMPERIALES20160415040107000000000004350
1300060962ESCAMILLA MEZA FRANCISCO JAVIER         GONTOR    20160416040107000000000001000
1300060962ESCAMILLA MEZA FRANCISCO JAVIER         GONTOR    20160419040107000000000001000
1300060962ESCAMILLA MEZA FRANCISCO JAVIER         GONTOR    20160420040107000000000004000
1300075918MELGAREJO RODRIGUEZ SELENE              GONTOR    20160420040107000000000001000
1300075918MELGAREJO RODRIGUEZ SELENE              GONTOR    20160423040107000000000004400
1300075918MELGAREJO RODRIGUEZ SELENE              GONTOR    20160425040107000000000001000
1300060962ESCAMILLA MEZA FRANCISCO JAVIER         GONTOR    20160430040107000000000001000
0100002288SALVADOR MEXICANO VERONICA              GONTOR    20160401040108000000000003000
1300066889VILLAR RUIZ OSIRIS IRMA                 GONTOR    20160401040108000000000004000
1300077453ARROYO CABRERA HILDA                    GONTOR    20160401040108000000000007000
0100002288SALVADOR MEXICANO VERONICA              GONTOR    20160402040108000000000001000
0100026709AVILA ONTIVEROS MONICA                  GONTOR    20160402040108000000000001000
1300066889VILLAR RUIZ OSIRIS IRMA                 GONTOR    20160403040108000000000001000
0100026709AVILA ONTIVEROS MONICA                  GONTOR    20160404040108000000000002000
1300066889VILLAR RUIZ OSIRIS IRMA                 GONTOR    20160404040108000000000008100
0100072407MORENO CERVANTES JUAN RAMON             IMPERIALES20160404040108000000000019000
1300077453ARROYO CABRERA HILDA                    GONTOR    20160404040108000000000001000
0100002288SALVADOR MEXICANO VERONICA              GONTOR    20160405040108000000000007500
0100026709AVILA ONTIVEROS MONICA                  GONTOR    20160405040108000000000001900
1300066889VILLAR RUIZ OSIRIS IRMA                 GONTOR    20160405040108000000000005500
0100002288SALVADOR MEXICANO VERONICA              GONTOR    20160406040108000000000001000
0100002288SALVADOR MEXICANO VERONICA              IMPERIALES20160406040108000000000006300
0100026709AVILA ONTIVEROS MONICA                  GONTOR    20160406040108000000000005500
0100072407MORENO CERVANTES JUAN RAMON             GONTOR    20160406040108000000000003500
0100002288SALVADOR MEXICANO VERONICA              GONTOR    20160407040108000000000001000
0100026709AVILA ONTIVEROS MONICA                  GONTOR    20160407040108000000000003000
1300066889VILLAR RUIZ OSIRIS IRMA                 GONTOR    20160407040108000000000001000
0100002288SALVADOR MEXICANO VERONICA              GONTOR    20160408040108000000000001000
1300066889VILLAR RUIZ OSIRIS IRMA                 GONTOR    20160408040108000000000002000
0100072407MORENO CERVANTES JUAN RAMON             GONTOR    20160408040108000000000002000
1300077453ARROYO CABRERA HILDA                    GONTOR    20160408040108000000000005500
0100026709AVILA ONTIVEROS MONICA                  GONTOR    20160409040108000000000004000
1300066889VILLAR RUIZ OSIRIS IRMA                 GONTOR    20160409040108000000000003500
0100072407MORENO CERVANTES JUAN RAMON             GONTOR    20160409040108000000000002000
0100002288SALVADOR MEXICANO VERONICA              GONTOR    20160410040108000000000003000
0100026709AVILA ONTIVEROS MONICA                  GONTOR    20160410040108000000000008100
0100002288SALVADOR MEXICANO VERONICA              GONTOR    20160411040108000000000002000
0100026709AVILA ONTIVEROS MONICA                  GONTOR    20160411040108000000000008150
0100026709AVILA ONTIVEROS MONICA                  IMPERIALES20160411040108000000000003500
1300066889VILLAR RUIZ OSIRIS IRMA                 GONTOR    20160411040108000000000004000
0100072407MORENO CERVANTES JUAN RAMON             GONTOR    20160411040108000000000002000
0100002288SALVADOR MEXICANO VERONICA              GONTOR    20160412040108000000000001000
0100026709AVILA ONTIVEROS MONICA                  GONTOR    20160412040108000000000008050
0100072407MORENO CERVANTES JUAN RAMON             GONTOR    20160412040108000000000002000
1300077453ARROYO CABRERA HILDA                    GONTOR    20160412040108000000000001000
0100002288SALVADOR MEXICANO VERONICA              GONTOR    20160414040108000000000006000
1300066889VILLAR RUIZ OSIRIS IRMA                 GONTOR    20160414040108000000000002000
1300066889VILLAR RUIZ OSIRIS IRMA                 IMPERIALES20160414040108000000000007250
1300077453ARROYO CABRERA HILDA                    GONTOR    20160414040108000000000001000
1300077453ARROYO CABRERA HILDA                    IMPERIALES20160414040108000000000029950
0100002288SALVADOR MEXICANO VERONICA              GONTOR    20160415040108000000000002000
1300066889VILLAR RUIZ OSIRIS IRMA                 GONTOR    20160415040108000000000002000
0100072407MORENO CERVANTES JUAN RAMON             GONTOR    20160415040108000000000001000
1300077453ARROYO CABRERA HILDA                    GONTOR    20160415040108000000000004000
1300066889VILLAR RUIZ OSIRIS IRMA                 GONTOR    20160416040108000000000002900
0100002288SALVADOR MEXICANO VERONICA              IMPERIALES20160417040108000000000009250
1300066889VILLAR RUIZ OSIRIS IRMA                 IMPERIALES20160418040108000000000007000
0100002288SALVADOR MEXICANO VERONICA              IMPERIALES20160419040108000000000006650
0100002288SALVADOR MEXICANO VERONICA              IMPERIALES20160420040108000000000003500
1300077453ARROYO CABRERA HILDA                    IMPERIALES20160420040108000000000003500
0100026709AVILA ONTIVEROS MONICA                  IMPERIALES20160424040108000000000002150
0100026709AVILA ONTIVEROS MONICA                  GONTOR    20160428040108000000000006000
0100026709AVILA ONTIVEROS MONICA                  IMPERIALES20160428040108000000000022300
1300066889VILLAR RUIZ OSIRIS IRMA                 GONTOR    20160428040108000000000004900
1300077453ARROYO CABRERA HILDA                    GONTOR    20160428040108000000000005000
0100002288SALVADOR MEXICANO VERONICA              GONTOR    20160429040108000000000001000
1300066889VILLAR RUIZ OSIRIS IRMA                 GONTOR    20160429040108000000000008000
1300077453ARROYO CABRERA HILDA                    GONTOR    20160429040108000000000009000
1300077453ARROYO CABRERA HILDA                    IMPERIALES20160429040108000000000006600
0100002288SALVADOR MEXICANO VERONICA              GONTOR    20160430040108000000000001000
1300066889VILLAR RUIZ OSIRIS IRMA                 GONTOR    20160430040108000000000006000
1300077453ARROYO CABRERA HILDA                    GONTOR    20160430040108000000000003000
1300027759ANGELES FLORES MA DEL CARMEN            IMPERIALES20160405040109000000000009500
1300027759ANGELES FLORES MA DEL CARMEN            GONTOR    20160406040109000000000003200
1300043499RAMIREZ FIGUEROA ERNESTO                GONTOR    20160406040109000000000014500
1300043499RAMIREZ FIGUEROA ERNESTO                GONTOR    20160409040109000000000001000
1300027759ANGELES FLORES MA DEL CARMEN            GONTOR    20160411040109000000000012500
1300043499RAMIREZ FIGUEROA ERNESTO                GONTOR    20160413040109000000000001000
1300043499RAMIREZ FIGUEROA ERNESTO                GONTOR    20160416040109000000000001000
1300069129HERNANDEZ MALDONADO MARIA DE LA LUZ     GONTOR    20160417040109000000000006200
1300027759ANGELES FLORES MA DEL CARMEN            IMPERIALES20160418040109000000000016200
1300027759ANGELES FLORES MA DEL CARMEN            GONTOR    20160419040109000000000001000
0100029523GONZALEZ CASTELAN ELIZABETH             GONTOR    20160419040109000000000012500
1300069129HERNANDEZ MALDONADO MARIA DE LA LUZ     IMPERIALES20160421040109000000000036600
1300069129HERNANDEZ MALDONADO MARIA DE LA LUZ     GONTOR    20160422040109000000000002000
1300069129HERNANDEZ MALDONADO MARIA DE LA LUZ     GONTOR    20160423040109000000000002500
1300027759ANGELES FLORES MA DEL CARMEN            GONTOR    20160427040109000000000006500
1300027759ANGELES FLORES MA DEL CARMEN            IMPERIALES20160427040109000000000006700
1300043499RAMIREZ FIGUEROA ERNESTO                GONTOR    20160428040109000000000012500
0100076471VILLEGAS CAMPUZANO VERONICA             GONTOR    20160428040109000000000012500
1300027759ANGELES FLORES MA DEL CARMEN            IMPERIALES20160430040109000000000018300
1300006767MIRANDA TINO EMMA LOURDES               GONTOR    20160401040112000000000003000
0100001276ZARAGOZA LINARES MARTIN                 GONTOR    20160402040112000000000004200
0100001276ZARAGOZA LINARES MARTIN                 IMPERIALES20160402040112000000000006700
1300006767MIRANDA TINO EMMA LOURDES               GONTOR    20160404040112000000000004200
1300006767MIRANDA TINO EMMA LOURDES               IMPERIALES20160404040112000000000002150
0100062316CRUZ TORRES VIRIDIANA                   GONTOR    20160405040112000000000001900
1300049936VASCONSELOS JIMENEZ MA. DE LOURDES      IMPERIALES20160406040112000000000021550
1300006767MIRANDA TINO EMMA LOURDES               IMPERIALES20160407040112000000000007000
1300006767MIRANDA TINO EMMA LOURDES               GONTOR    20160411040112000000000002900
1300006767MIRANDA TINO EMMA LOURDES               GONTOR    20160413040112000000000002900
1300006767MIRANDA TINO EMMA LOURDES               GONTOR    20160414040112000000000002900
1300049936VASCONSELOS JIMENEZ MA. DE LOURDES      GONTOR    20160414040112000000000004200
1300049936VASCONSELOS JIMENEZ MA. DE LOURDES      IMPERIALES20160414040112000000000016600
1300006767MIRANDA TINO EMMA LOURDES               IMPERIALES20160415040112000000000016600
1300006767MIRANDA TINO EMMA LOURDES               GONTOR    20160416040112000000000006000
1300006767MIRANDA TINO EMMA LOURDES               IMPERIALES20160417040112000000000005000
1300049936VASCONSELOS JIMENEZ MA. DE LOURDES      GONTOR    20160419040112000000000006050
1300049936VASCONSELOS JIMENEZ MA. DE LOURDES      GONTOR    20160421040112000000000004200
1300006767MIRANDA TINO EMMA LOURDES               GONTOR    20160423040112000000000005800
1300006767MIRANDA TINO EMMA LOURDES               GONTOR    20160424040112000000000002900
1300006767MIRANDA TINO EMMA LOURDES               IMPERIALES20160424040112000000000001600
1300006767MIRANDA TINO EMMA LOURDES               GONTOR    20160429040112000000000004200
1300049936VASCONSELOS JIMENEZ MA. DE LOURDES      IMPERIALES20160429040112000000000013300
1300049936VASCONSELOS JIMENEZ MA. DE LOURDES      IMPERIALES20160430040112000000000003150
1300051156PERALTA PEREZ MARIA FLAVIA              IMPERIALES20160402040114000000000007000
1300045198ESPINOZA AVENA DIANA                    GONTOR    20160404040114000000000002875
1300051156PERALTA PEREZ MARIA FLAVIA              GONTOR    20160404040114000000000003000
1300070415MENDOZA ORTIZ LIDIA                     IMPERIALES20160404040114000000000029743
1300045198ESPINOZA AVENA DIANA                    IMPERIALES20160405040114000000000008120
1300051156PERALTA PEREZ MARIA FLAVIA              IMPERIALES20160407040114000000000003500
1300045198ESPINOZA AVENA DIANA                    GONTOR    20160408040114000000000000968
1300045198ESPINOZA AVENA DIANA                    IMPERIALES20160408040114000000000002125
1300070415MENDOZA ORTIZ LIDIA                     IMPERIALES20160412040114000000000007850
1300045198ESPINOZA AVENA DIANA                    IMPERIALES20160415040114000000000008120
1300051156PERALTA PEREZ MARIA FLAVIA              GONTOR    20160419040114000000000007250
1300070415MENDOZA ORTIZ LIDIA                     IMPERIALES20160419040114000000000004350
1300045198ESPINOZA AVENA DIANA                    GONTOR    20160420040114000000000001875
1300051156PERALTA PEREZ MARIA FLAVIA              IMPERIALES20160421040114000000000007250
1300070415MENDOZA ORTIZ LIDIA                     IMPERIALES20160422040114000000000009250
1300051156PERALTA PEREZ MARIA FLAVIA              GONTOR    20160424040114000000000000968
1300070415MENDOZA ORTIZ LIDIA                     GONTOR    20160424040114000000000001875
0100020130CAMACHO BELTRAN MARIBEL                 IMPERIALES20160428040114000000000007688
1300045198ESPINOZA AVENA DIANA                    IMPERIALES20160428040114000000000008750
1300070415MENDOZA ORTIZ LIDIA                     GONTOR    20160429040114000000000001056
0100027731TORRECILLA SOLANO MARIO                 GONTOR    20160401040116000000000001650
0100027731TORRECILLA SOLANO MARIO                 IMPERIALES20160401040116000000000004350
0100058279HERNANDEZ ROJAS MARIBEL                 GONTOR    20160402040116000000000002500
0100076821MEDINA CASTILLO GUADALUPOE              GONTOR    20160404040116000000000003000
0100027731TORRECILLA SOLANO MARIO                 GONTOR    20160405040116000000000002900
0100076821MEDINA CASTILLO GUADALUPOE              GONTOR    20160406040116000000000003500
0100027731TORRECILLA SOLANO MARIO                 GONTOR    20160407040116000000000002650
0100058279HERNANDEZ ROJAS MARIBEL                 GONTOR    20160407040116000000000003000
0100058279HERNANDEZ ROJAS MARIBEL                 IMPERIALES20160407040116000000000007850
0100076821MEDINA CASTILLO GUADALUPOE              GONTOR    20160407040116000000000002900
0000079349ESTEBAN NICOLAS ANABEL YARET            GONTOR    20160407040116000000000003000
0100058279HERNANDEZ ROJAS MARIBEL                 GONTOR    20160409040116000000000003000
0100058279HERNANDEZ ROJAS MARIBEL                 GONTOR    20160410040116000000000001900
0100027731TORRECILLA SOLANO MARIO                 IMPERIALES20160413040116000000000007450
0100076821MEDINA CASTILLO GUADALUPOE              IMPERIALES20160413040116000000000011250
0000079316GIL ALVARADO JESSICA                    GONTOR    20160414040116000000000003000
0100058279HERNANDEZ ROJAS MARIBEL                 GONTOR    20160415040116000000000001000
0100076821MEDINA CASTILLO GUADALUPOE              GONTOR    20160415040116000000000001000
0100076821MEDINA CASTILLO GUADALUPOE              GONTOR    20160416040116000000000002000
0100027731TORRECILLA SOLANO MARIO                 GONTOR    20160417040116000000000005800
0100076821MEDINA CASTILLO GUADALUPOE              GONTOR    20160418040116000000000013150
0100076821MEDINA CASTILLO GUADALUPOE              GONTOR    20160421040116000000000002000
0100058279HERNANDEZ ROJAS MARIBEL                 GONTOR    20160422040116000000000002000
0100058279HERNANDEZ ROJAS MARIBEL                 GONTOR    20160423040116000000000001000
0100058279HERNANDEZ ROJAS MARIBEL                 IMPERIALES20160423040116000000000002150
0100058279HERNANDEZ ROJAS MARIBEL                 GONTOR    20160424040116000000000002000
0100076821MEDINA CASTILLO GUADALUPOE              GONTOR    20160424040116000000000001000
0100058279HERNANDEZ ROJAS MARIBEL                 GONTOR    20160425040116000000000001000
0100076821MEDINA CASTILLO GUADALUPOE              GONTOR    20160426040116000000000001000
0100027731TORRECILLA SOLANO MARIO                 GONTOR    20160427040116000000000003500
0100058279HERNANDEZ ROJAS MARIBEL                 GONTOR    20160427040116000000000001000
0100076821MEDINA CASTILLO GUADALUPOE              GONTOR    20160427040116000000000003250
0100027731TORRECILLA SOLANO MARIO                 GONTOR    20160428040116000000000001000
1300061660ORNELAS LAZARO JUANA LUISA              IMPERIALES20160401040129000000000003500
0100063299ROSAS HERNANDEZ LAURA                   GONTOR    20160401040129000000000001000
1300061660ORNELAS LAZARO JUANA LUISA              GONTOR    20160402040129000000000002000
1300061660ORNELAS LAZARO JUANA LUISA              IMPERIALES20160404040129000000000005200
1300075926RAMIREZ MARQUEZ PAMELA                  GONTOR    20160405040129000000000006000
1300061660ORNELAS LAZARO JUANA LUISA              GONTOR    20160406040129000000000003000
1300061660ORNELAS LAZARO JUANA LUISA              IMPERIALES20160406040129000000000002150
1300061660ORNELAS LAZARO JUANA LUISA              GONTOR    20160407040129000000000005000
1300061660ORNELAS LAZARO JUANA LUISA              IMPERIALES20160407040129000000000013250
1300075926RAMIREZ MARQUEZ PAMELA                  GONTOR    20160408040129000000000003000
1300075926RAMIREZ MARQUEZ PAMELA                  GONTOR    20160410040129000000000002000
0100052619MORALES CASTANEDA FRANCISCO             IMPERIALES20160411040129000000000004350
1300061660ORNELAS LAZARO JUANA LUISA              GONTOR    20160411040129000000000008950
1300061660ORNELAS LAZARO JUANA LUISA              GONTOR    20160412040129000000000002000
1300075926RAMIREZ MARQUEZ PAMELA                  IMPERIALES20160412040129000000000010750
1300061660ORNELAS LAZARO JUANA LUISA              GONTOR    20160413040129000000000006500
0100051218GOMEZ GALAS ALFREDO                     IMPERIALES20160415040129000000000016600
0100052619MORALES CASTANEDA FRANCISCO             GONTOR    20160415040129000000000006150
1300061660ORNELAS LAZARO JUANA LUISA              GONTOR    20160416040129000000000002000
1300061660ORNELAS LAZARO JUANA LUISA              IMPERIALES20160416040129000000000010750
1300075926RAMIREZ MARQUEZ PAMELA                  GONTOR    20160416040129000000000020000
1300061660ORNELAS LAZARO JUANA LUISA              IMPERIALES20160417040129000000000003500
1300075926RAMIREZ MARQUEZ PAMELA                  IMPERIALES20160417040129000000000008150
1300061660ORNELAS LAZARO JUANA LUISA              GONTOR    20160418040129000000000012500
0100051218GOMEZ GALAS ALFREDO                     GONTOR    20160419040129000000000004000
1300061660ORNELAS LAZARO JUANA LUISA              GONTOR    20160419040129000000000004150
0100051218GOMEZ GALAS ALFREDO                     GONTOR    20160420040129000000000002000
1300075926RAMIREZ MARQUEZ PAMELA                  GONTOR    20160420040129000000000006150
0100051218GOMEZ GALAS ALFREDO                     IMPERIALES20160422040129000000000007250
1300061660ORNELAS LAZARO JUANA LUISA              GONTOR    20160422040129000000000003500
1300075926RAMIREZ MARQUEZ PAMELA                  IMPERIALES20160424040129000000000004350
1300061660ORNELAS LAZARO JUANA LUISA              IMPERIALES20160425040129000000000008800
1300075926RAMIREZ MARQUEZ PAMELA                  GONTOR    20160425040129000000000001500
0100051218GOMEZ GALAS ALFREDO                     IMPERIALES20160426040129000000000010150
1300061660ORNELAS LAZARO JUANA LUISA              IMPERIALES20160426040129000000000003750
1300075926RAMIREZ MARQUEZ PAMELA                  GONTOR    20160427040129000000000001000
0100051218GOMEZ GALAS ALFREDO                     IMPERIALES20160428040129000000000009250
1300061660ORNELAS LAZARO JUANA LUISA              GONTOR    20160428040129000000000006650
1300061660ORNELAS LAZARO JUANA LUISA              IMPERIALES20160428040129000000000019950
0100051218GOMEZ GALAS ALFREDO                     IMPERIALES20160429040129000000000021600
1300061660ORNELAS LAZARO JUANA LUISA              GONTOR    20160429040129000000000002000
0000079349ESTEBAN NICOLAS ANABEL                  GONTOR    20160401040193000000000001000
1300043499RAMIREZ FIGUEROA ERNESTO                GONTOR    20160407040193000000000002001
0000079349ESTEBAN NICOLAS ANABEL                  IMPERIALES20160408040193000000000019000
1300043499RAMIREZ FIGUEROA ERNESTO                GONTOR    20160413040193000000000004001
0000079349ESTEBAN NICOLAS ANABEL                  GONTOR    20160415040193000000000002001
1300043499RAMIREZ FIGUEROA ERNESTO                IMPERIALES20160416040193000000000004350
0000079349ESTEBAN NICOLAS ANABEL                  GONTOR    20160418040193000000000002001
1300043499RAMIREZ FIGUEROA ERNESTO                GONTOR    20160419040193000000000002001
0000079349ESTEBAN NICOLAS ANABEL                  IMPERIALES20160419040193000000000007250
1300043499RAMIREZ FIGUEROA ERNESTO                GONTOR    20160422040193000000000006002
0000079349ESTEBAN NICOLAS ANABEL                  GONTOR    20160428040193000000000002813
0000079349ESTEBAN NICOLAS ANABEL                  GONTOR    20160430040193000000000006125
0000072574MEJIA LARA MARIO ALBERTO                IMPERIALES20160402040201000000000021518
1300045652FIGUEROA DELGADO LIDIA                  GONTOR    20160404040201000000000005750
0100021527TORRES MONDRAGON SANDRA                 GONTOR    20160408040201000000000011335
0100021527TORRES MONDRAGON SANDRA                 GONTOR    20160410040201000000000010500
0100021527TORRES MONDRAGON SANDRA                 IMPERIALES20160412040201000000000020700
0100021527TORRES MONDRAGON SANDRA                 IMPERIALES20160416040201000000000007250
1300045652FIGUEROA DELGADO LIDIA                  IMPERIALES20160416040201000000000004350
1300045652FIGUEROA DELGADO LIDIA                  IMPERIALES20160418040201000000000006625
1300045652FIGUEROA DELGADO LIDIA                  GONTOR    20160420040201000000000003125
0100021527TORRES MONDRAGON SANDRA                 GONTOR    20160421040201000000000002001
1300045652FIGUEROA DELGADO LIDIA                  IMPERIALES20160425040201000000000003250
1300045652FIGUEROA DELGADO LIDIA                  IMPERIALES20160427040201000000000007250
1300073299ARRIAGA SOLEDAD RICARDO                 IMPERIALES20160401040202000000000021550
1300073299ARRIAGA SOLEDAD RICARDO                 GONTOR    20160406040202000000000003500
1300025708VAZQUEZ CONTRERAS SILVESTRE             IMPERIALES20160407040202000000000021550
1300025708VAZQUEZ CONTRERAS SILVESTRE             GONTOR    20160409040202000000000001000
1300073299ARRIAGA SOLEDAD RICARDO                 GONTOR    20160410040202000000000006150
1300025708VAZQUEZ CONTRERAS SILVESTRE             GONTOR    20160412040202000000000001000
1300025708VAZQUEZ CONTRERAS SILVESTRE             IMPERIALES20160412040202000000000004150
1300067880MORENO IZQUIERDO JOSE DE JESUS          GONTOR    20160414040202000000000001000
1300073299ARRIAGA SOLEDAD RICARDO                 IMPERIALES20160414040202000000000006650
0100000118RAMIREZ MEDINA JOSE                     IMPERIALES20160418040202000000000007250
1300067880MORENO IZQUIERDO JOSE DE JESUS          IMPERIALES20160419040202000000000006650
1300067880MORENO IZQUIERDO JOSE DE JESUS          IMPERIALES20160420040202000000000003500
1300073299ARRIAGA SOLEDAD RICARDO                 GONTOR    20160422040202000000000003500
1300025708VAZQUEZ CONTRERAS SILVESTRE             GONTOR    20160429040202000000000002000
1300025708VAZQUEZ CONTRERAS SILVESTRE             IMPERIALES20160430040202000000000014500
0900021591DIAZ MORELOS LORENZO                    IMPERIALES20160410040501000000000008500
0900073876AGUIRRE TIRADO VICTOR MANUEL            GONTOR    20160410040501000000000002500
0900021591DIAZ MORELOS LORENZO                    GONTOR    20160424040501000000000007000
0900005638GOMEZ REA ROSARIO                       IMPERIALES20160427040501000000000006990
0900021591DIAZ MORELOS LORENZO                    GONTOR    20160427040501000000000006960
0900005638GOMEZ REA ROSARIO                       IMPERIALES20160428040501000000000018300
0900032386BENITEZ ROBLEDO THELMA PATRICIA         GONTOR    20160430040501000000000020000
0900062037CARLISLE LOPEZ ROSA ELIA                IMPERIALES20160430040501000000000007688
0900073876AGUIRRE TIRADO VICTOR MANUEL            IMPERIALES20160430040501000000000036600
0900003318ALBA GUADALUPE YHI RIVERA               GONTOR    20160402040504000000000002000
0900003318ALBA GUADALUPE YHI RIVERA               IMPERIALES20160402040504000000000011250
0900003150GUZMAN ARELLANO GUADALUPE               GONTOR    20160406040504000000000006150
0900003318ALBA GUADALUPE YHI RIVERA               GONTOR    20160406040504000000000006150
0900026479NEVAREZ MARTINEZ JUAN CARLOS            IMPERIALES20160415040504000000000016600
0900003318ALBA GUADALUPE YHI RIVERA               GONTOR    20160419040504000000000005150
0900003318ALBA GUADALUPE YHI RIVERA               IMPERIALES20160426040504000000000018300
0900079968CORRALES SAYAS ALMA CECILIA             GONTOR    20160430040511000000000002400
0900036510PALAFOX DELGADO MARIA EUGENIA           IMPERIALES20160410040552000000000007975
0000072927MARCELENO GOMEZ SARAHI TERESA           IMPERIALES20160413040552000000000020700
0900005124DIAZ SILLAS MARTHA ALICIA               GONTOR    20160414040552000000000003750
0900005124DIAZ SILLAS MARTHA ALICIA               GONTOR    20160415040552000000000006960
0900036510PALAFOX DELGADO MARIA EUGENIA           GONTOR    20160427040552000000000014000
0000074190MARQUEZ ALATORRE ALONSO                 GONTOR    20160427040552000000000006960
0000077098GREEN PEDRIN PERLA   ELIZABETH          IMPERIALES20160420040806000000000018300
0000077098GREEN PEDRIN PERLA   ELIZABETH          IMPERIALES20160424040806000000000018300
0000071725GARCIA MURILLO VIVIANA                  GONTOR    20160410040812000000000005800
0000071725GARCIA MURILLO VIVIANA                  GONTOR    20160430040812000000000005800
