1300065273PAIZ DE JESUS ALFONSO                   GONTOR    20160602060103000000000003500
1300041331ORTEGA CONTRERAS FRANCISCA              GONTOR    20160603060103000000000002500
1300024815DE LA ROSA LOPEZ JUAN GABRIEL           GONTOR    20160604060103000000000006150
1300069405MEJIA RODRIGUEZ ALFONSO                 IMPERIALES20160604060103000000000018300
1300065273PAIZ DE JESUS ALFONSO                   IMPERIALES20160606060103000000000018300
1300065273PAIZ DE JESUS ALFONSO                   IMPERIALES20160607060103000000000004450
1300069405MEJIA RODRIGUEZ ALFONSO                 GONTOR    20160608060103000000000003500
1300065273PAIZ DE JESUS ALFONSO                   GONTOR    20160609060103000000000004400
1300069405MEJIA RODRIGUEZ ALFONSO                 GONTOR    20160609060103000000000003500
1300024815DE LA ROSA LOPEZ JUAN GABRIEL           GONTOR    20160613060103000000000003500
1300069405MEJIA RODRIGUEZ ALFONSO                 IMPERIALES20160618060103000000000009200
0100026065PEREZ ZARATE ALFREDO                    GONTOR    20160619060103000000000004400
1300024815DE LA ROSA LOPEZ JUAN GABRIEL           GONTOR    20160620060103000000000003500
0100026065PEREZ ZARATE ALFREDO                    GONTOR    20160620060103000000000005100
1300069405MEJIA RODRIGUEZ ALFONSO                 IMPERIALES20160620060103000000000004450
0100026065PEREZ ZARATE ALFREDO                    IMPERIALES20160621060103000000000011000
1300069405MEJIA RODRIGUEZ ALFONSO                 GONTOR    20160621060103000000000003000
0100026065PEREZ ZARATE ALFREDO                    IMPERIALES20160622060103000000000038200
1300024815DE LA ROSA LOPEZ JUAN GABRIEL           GONTOR    20160625060103000000000004400
0100052619MORALES CASTANEDA FRANCISCO             GONTOR    20160625060103000000000004400
0100026065PEREZ ZARATE ALFREDO                    GONTOR    20160628060103000000000003500
0100029526SANCHEZ MORENO CARLOS OSCAR             GONTOR    20160629060103000000000002500
1300024815DE LA ROSA LOPEZ JUAN GABRIEL           GONTOR    20160630060103000000000004400
1300035835SANCHEZ GUZMAN NORMA                    GONTOR    20160601060105000000000005000
1300076752HIDALGO GARCIA DOMINGA                  IMPERIALES20160601060105000000000044200
1300035835SANCHEZ GUZMAN NORMA                    GONTOR    20160602060105000000000007900
1300076752HIDALGO GARCIA DOMINGA                  IMPERIALES20160602060105000000000029350
1300029625GARCIA TORIBIO ELPIDIO                  IMPERIALES20160603060105000000000022100
1300035835SANCHEZ GUZMAN NORMA                    IMPERIALES20160603060105000000000004450
1300061377MENDOZA BARRIOS GUSTAVO                 GONTOR    20160604060105000000000002500
1300076752HIDALGO GARCIA DOMINGA                  GONTOR    20160604060105000000000004400
0100056639RAYGOZA RODRIGUEZ EDMUNDO MARTIN        GONTOR    20160605060105000000000006150
1300035835SANCHEZ GUZMAN NORMA                    GONTOR    20160606060105000000000008150
1300035835SANCHEZ GUZMAN NORMA                    IMPERIALES20160606060105000000000021700
1300076752HIDALGO GARCIA DOMINGA                  IMPERIALES20160606060105000000000029050
0100025325GUADARRAMA ATRISCO RICARDO              IMPERIALES20160607060105000000000005000
1300061377MENDOZA BARRIOS GUSTAVO                 IMPERIALES20160607060105000000000018300
1300029625GARCIA TORIBIO ELPIDIO                  IMPERIALES20160608060105000000000009200
1300035835SANCHEZ GUZMAN NORMA                    IMPERIALES20160608060105000000000007500
1300061377MENDOZA BARRIOS GUSTAVO                 IMPERIALES20160609060105000000000008500
1300076752HIDALGO GARCIA DOMINGA                  IMPERIALES20160609060105000000000004450
1300076752HIDALGO GARCIA DOMINGA                  IMPERIALES20160610060105000000000011000
0100025325GUADARRAMA ATRISCO RICARDO              GONTOR    20160611060105000000000003500
0100025325GUADARRAMA ATRISCO RICARDO              IMPERIALES20160611060105000000000009200
1300035835SANCHEZ GUZMAN NORMA                    GONTOR    20160611060105000000000061600
1300029625GARCIA TORIBIO ELPIDIO                  IMPERIALES20160612060105000000000022000
1300035835SANCHEZ GUZMAN NORMA                    IMPERIALES20160612060105000000000032900
0100025325GUADARRAMA ATRISCO RICARDO              IMPERIALES20160613060105000000000034800
1300035835SANCHEZ GUZMAN NORMA                    IMPERIALES20160613060105000000000005000
1300054672ROSAS JIMENEZ JOSE AMBROSIO LUIS        IMPERIALES20160614060105000000000008500
0100025325GUADARRAMA ATRISCO RICARDO              IMPERIALES20160615060105000000000008050
1300029625GARCIA TORIBIO ELPIDIO                  IMPERIALES20160615060105000000000033100
1300035835SANCHEZ GUZMAN NORMA                    IMPERIALES20160616060105000000000022000
1300035835SANCHEZ GUZMAN NORMA                    IMPERIALES20160617060105000000000009250
1300035835SANCHEZ GUZMAN NORMA                    IMPERIALES20160618060105000000000003500
1300054672ROSAS JIMENEZ JOSE AMBROSIO LUIS        GONTOR    20160618060105000000000003000
1300054672ROSAS JIMENEZ JOSE AMBROSIO LUIS        IMPERIALES20160618060105000000000098750
1300035835SANCHEZ GUZMAN NORMA                    GONTOR    20160619060105000000000006150
1300054672ROSAS JIMENEZ JOSE AMBROSIO LUIS        GONTOR    20160619060105000000000003500
0100056639RAYGOZA RODRIGUEZ EDMUNDO MARTIN        IMPERIALES20160619060105000000000019100
1300061377MENDOZA BARRIOS GUSTAVO                 IMPERIALES20160620060105000000000009250
1300035835SANCHEZ GUZMAN NORMA                    GONTOR    20160621060105000000000008800
1300035835SANCHEZ GUZMAN NORMA                    IMPERIALES20160621060105000000000004400
1300054672ROSAS JIMENEZ JOSE AMBROSIO LUIS        IMPERIALES20160621060105000000000008900
1300054672ROSAS JIMENEZ JOSE AMBROSIO LUIS        IMPERIALES20160622060105000000000022100
1300035835SANCHEZ GUZMAN NORMA                    IMPERIALES20160625060105000000000012950
1300035835SANCHEZ GUZMAN NORMA                    GONTOR    20160626060105000000000006150
1300035835SANCHEZ GUZMAN NORMA                    IMPERIALES20160626060105000000000006700
1300061377MENDOZA BARRIOS GUSTAVO                 GONTOR    20160626060105000000000006000
1300061377MENDOZA BARRIOS GUSTAVO                 IMPERIALES20160626060105000000000062000
1300061377MENDOZA BARRIOS GUSTAVO                 IMPERIALES20160629060105000000000012500
1300035835SANCHEZ GUZMAN NORMA                    IMPERIALES20160630060105000000000019100
0100003977CASTULO TREJO MA TERESA                 GONTOR    20160607060106000000000003500
0100073979LOPEZ SANCHEZ ELIZABETH                 IMPERIALES20160608060106000000000003500
1300076014TORRES MARQUEZ ARACELI                  GONTOR    20160610060106000000000009100
0100003977CASTULO TREJO MA TERESA                 GONTOR    20160611060106000000000002900
0100003977CASTULO TREJO MA TERESA                 IMPERIALES20160611060106000000000005700
1300076014TORRES MARQUEZ ARACELI                  IMPERIALES20160611060106000000000005000
1300076014TORRES MARQUEZ ARACELI                  IMPERIALES20160612060106000000000013200
0100003977CASTULO TREJO MA TERESA                 GONTOR    20160613060106000000000004400
1300076014TORRES MARQUEZ ARACELI                  IMPERIALES20160613060106000000000004450
1300076014TORRES MARQUEZ ARACELI                  GONTOR    20160617060106000000000003300
1300076014TORRES MARQUEZ ARACELI                  IMPERIALES20160622060106000000000027600
0100003977CASTULO TREJO MA TERESA                 GONTOR    20160625060106000000000002500
1300065154CIPRIANO GERARDO LORENZO                GONTOR    20160626060106000000000006150
1300060962ESCAMILLA MEZA FRANCISCO JAVIER         IMPERIALES20160601060107000000000018300
0100055212GARDUNO DIAZ JUAN TIRZO                 GONTOR    20160603060107000000000002400
1300060962ESCAMILLA MEZA FRANCISCO JAVIER         GONTOR    20160603060107000000000001400
1300075918MELGAREJO RODRIGUEZ SELENE              IMPERIALES20160606060107000000000018300
0100055212GARDUNO DIAZ JUAN TIRZO                 GONTOR    20160609060107000000000004400
0100061443RAMIREZ MERCADO MONICA                  IMPERIALES20160612060107000000000007300
0100061443RAMIREZ MERCADO MONICA                  IMPERIALES20160613060107000000000004450
1300075918MELGAREJO RODRIGUEZ SELENE              IMPERIALES20160613060107000000000004450
0100061443RAMIREZ MERCADO MONICA                  GONTOR    20160622060107000000000004200
1300075918MELGAREJO RODRIGUEZ SELENE              IMPERIALES20160624060107000000000022300
1300076752HIDALGO GARCIA DOMINGA                  GONTOR    20160624060107000000000003500
1300076752HIDALGO GARCIA DOMINGA                  GONTOR    20160626060107000000000002500
0100056639RAYGOZA RODRIGUEZ EDMUNDO MARTIN        IMPERIALES20160627060107000000000004450
0100026709AVILA ONTIVEROS MONICA                  GONTOR    20160601060108000000000003500
1300066889VILLAR RUIZ OSIRIS IRMA                 GONTOR    20160601060108000000000020850
0100002288SALVADOR MEXICANO VERONICA              IMPERIALES20160603060108000000000006700
0100026709AVILA ONTIVEROS MONICA                  IMPERIALES20160604060108000000000018300
1300066889VILLAR RUIZ OSIRIS IRMA                 IMPERIALES20160604060108000000000003500
0100002288SALVADOR MEXICANO VERONICA              IMPERIALES20160606060108000000000002200
0100026709AVILA ONTIVEROS MONICA                  IMPERIALES20160606060108000000000013150
1300066889VILLAR RUIZ OSIRIS IRMA                 GONTOR    20160606060108000000000005800
1300077453ARROYO CABRERA HILDA                    GONTOR    20160606060108000000000004400
0100002288SALVADOR MEXICANO VERONICA              GONTOR    20160608060108000000000006050
1300077453ARROYO CABRERA HILDA                    IMPERIALES20160609060108000000000003500
1300066889VILLAR RUIZ OSIRIS IRMA                 GONTOR    20160613060108000000000003500
1300077453ARROYO CABRERA HILDA                    IMPERIALES20160613060108000000000020450
1300077453ARROYO CABRERA HILDA                    GONTOR    20160618060108000000000006050
1300077453ARROYO CABRERA HILDA                    IMPERIALES20160619060108000000000022100
0100002288SALVADOR MEXICANO VERONICA              IMPERIALES20160622060108000000000003150
1300066889VILLAR RUIZ OSIRIS IRMA                 IMPERIALES20160622060108000000000003500
0100002288SALVADOR MEXICANO VERONICA              IMPERIALES20160623060108000000000022100
1300066889VILLAR RUIZ OSIRIS IRMA                 IMPERIALES20160624060108000000000010800
0100026709AVILA ONTIVEROS MONICA                  IMPERIALES20160625060108000000000003500
1300077453ARROYO CABRERA HILDA                    GONTOR    20160626060108000000000003500
0100026709AVILA ONTIVEROS MONICA                  IMPERIALES20160628060108000000000006700
1300066889VILLAR RUIZ OSIRIS IRMA                 GONTOR    20160630060108000000000002500
1300069129HERNANDEZ MALDONADO MARIA DE LA LUZ     GONTOR    20160601060109000000000002000
0100076471VILLEGAS CAMPUZANO VERONICA             GONTOR    20160601060109000000000005000
1300069129HERNANDEZ MALDONADO MARIA DE LA LUZ     GONTOR    20160603060109000000000003500
1300027759ANGELES FLORES MA DEL CARMEN            IMPERIALES20160604060109000000000011300
0100029523GONZALEZ CASTELAN ELIZABETH             IMPERIALES20160605060109000000000006700
1300069129HERNANDEZ MALDONADO MARIA DE LA LUZ     IMPERIALES20160605060109000000000018300
1300027759ANGELES FLORES MA DEL CARMEN            GONTOR    20160606060109000000000002500
1300069129HERNANDEZ MALDONADO MARIA DE LA LUZ     GONTOR    20160606060109000000000002400
1300027759ANGELES FLORES MA DEL CARMEN            IMPERIALES20160607060109000000000004500
1300027759ANGELES FLORES MA DEL CARMEN            IMPERIALES20160608060109000000000019100
1300069129HERNANDEZ MALDONADO MARIA DE LA LUZ     GONTOR    20160610060109000000000003500
1300027759ANGELES FLORES MA DEL CARMEN            GONTOR    20160611060109000000000002500
1300027759ANGELES FLORES MA DEL CARMEN            IMPERIALES20160611060109000000000015800
1300027759ANGELES FLORES MA DEL CARMEN            IMPERIALES20160612060109000000000002200
1300069129HERNANDEZ MALDONADO MARIA DE LA LUZ     IMPERIALES20160615060109000000000003500
1300069129HERNANDEZ MALDONADO MARIA DE LA LUZ     GONTOR    20160617060109000000000004400
1300027759ANGELES FLORES MA DEL CARMEN            IMPERIALES20160625060109000000000019100
1300069129HERNANDEZ MALDONADO MARIA DE LA LUZ     IMPERIALES20160626060109000000000002200
1300069129HERNANDEZ MALDONADO MARIA DE LA LUZ     GONTOR    20160629060109000000000003500
1300027759ANGELES FLORES MA DEL CARMEN            IMPERIALES20160630060109000000000019100
0100062316CRUZ TORRES VIRIDIANA                   IMPERIALES20160601060112000000000006700
0100062316CRUZ TORRES VIRIDIANA                   GONTOR    20160603060112000000000002500
1300006767MIRANDA TINO EMMA LOURDES               IMPERIALES20160605060112000000000007700
1300006767MIRANDA TINO EMMA LOURDES               IMPERIALES20160607060112000000000018300
1300049936VASCONSELOS JIMENEZ MA. DE LOURDES      GONTOR    20160607060112000000000020300
0100001276ZARAGOZA LINARES MARTIN                 GONTOR    20160608060112000000000003600
0100001276ZARAGOZA LINARES MARTIN                 IMPERIALES20160608060112000000000007700
1300006767MIRANDA TINO EMMA LOURDES               GONTOR    20160609060112000000000002900
1300006767MIRANDA TINO EMMA LOURDES               GONTOR    20160613060112000000000002900
1300006767MIRANDA TINO EMMA LOURDES               IMPERIALES20160613060112000000000015000
0100062316CRUZ TORRES VIRIDIANA                   GONTOR    20160614060112000000000006150
1300006767MIRANDA TINO EMMA LOURDES               GONTOR    20160617060112000000000003500
1300049936VASCONSELOS JIMENEZ MA. DE LOURDES      IMPERIALES20160617060112000000000005000
1300006767MIRANDA TINO EMMA LOURDES               GONTOR    20160621060112000000000004400
0100001276ZARAGOZA LINARES MARTIN                 GONTOR    20160622060112000000000003500
1300006767MIRANDA TINO EMMA LOURDES               IMPERIALES20160623060112000000000011300
1300006767MIRANDA TINO EMMA LOURDES               GONTOR    20160625060112000000000002900
1300006767MIRANDA TINO EMMA LOURDES               IMPERIALES20160625060112000000000019100
1300006767MIRANDA TINO EMMA LOURDES               GONTOR    20160627060112000000000002900
1300006767MIRANDA TINO EMMA LOURDES               IMPERIALES20160627060112000000000019100
0100020130CAMACHO BELTRAN MARIBEL                 IMPERIALES20160606060114000000000008688
1300045198ESPINOZA AVENA DIANA                    GONTOR    20160606060114000000000007000
1300045198ESPINOZA AVENA DIANA                    GONTOR    20160607060114000000000016000
1300051156PERALTA PEREZ MARIA FLAVIA              IMPERIALES20160607060114000000000018300
1300051156PERALTA PEREZ MARIA FLAVIA              IMPERIALES20160613060114000000000007300
1300080303HERNANDEZ MAQUEDA HERIBERTO             GONTOR    20160613060114000000000003500
1300045198ESPINOZA AVENA DIANA                    IMPERIALES20160614060114000000000003500
1300051156PERALTA PEREZ MARIA FLAVIA              GONTOR    20160614060114000000000004500
1300080303HERNANDEZ MAQUEDA HERIBERTO             IMPERIALES20160615060114000000000019100
0100020130CAMACHO BELTRAN MARIBEL                 IMPERIALES20160616060114000000000013400
1300045198ESPINOZA AVENA DIANA                    GONTOR    20160616060114000000000012500
1300045198ESPINOZA AVENA DIANA                    IMPERIALES20160619060114000000000007300
1300051156PERALTA PEREZ MARIA FLAVIA              GONTOR    20160622060114000000000003500
1300051156PERALTA PEREZ MARIA FLAVIA              IMPERIALES20160629060114000000000007000
0100027731TORRECILLA SOLANO MARIO                 GONTOR    20160601060116000000000003400
0100058279HERNANDEZ ROJAS MARIBEL                 IMPERIALES20160601060116000000000003500
0100076821MEDINA CASTILLO GUADALUPOE              GONTOR    20160601060116000000000007000
0100027731TORRECILLA SOLANO MARIO                 IMPERIALES20160602060116000000000013150
0100027731TORRECILLA SOLANO MARIO                 GONTOR    20160605060116000000000012500
0100076821MEDINA CASTILLO GUADALUPOE              GONTOR    20160606060116000000000003400
0100027731TORRECILLA SOLANO MARIO                 GONTOR    20160608060116000000000007000
0100076821MEDINA CASTILLO GUADALUPOE              GONTOR    20160609060116000000000003500
0100058279HERNANDEZ ROJAS MARIBEL                 GONTOR    20160611060116000000000005000
0100058279HERNANDEZ ROJAS MARIBEL                 GONTOR    20160615060116000000000002000
0100027731TORRECILLA SOLANO MARIO                 IMPERIALES20160617060116000000000019100
0100058279HERNANDEZ ROJAS MARIBEL                 GONTOR    20160620060116000000000003000
0100027731TORRECILLA SOLANO MARIO                 GONTOR    20160621060116000000000003500
0100058279HERNANDEZ ROJAS MARIBEL                 GONTOR    20160623060116000000000006150
0100058279HERNANDEZ ROJAS MARIBEL                 IMPERIALES20160628060116000000000010250
0100058279HERNANDEZ ROJAS MARIBEL                 GONTOR    20160629060116000000000003200
1300061660ORNELAS LAZARO JUANA LUISA              GONTOR    20160602060129000000000001000
1300061660ORNELAS LAZARO JUANA LUISA              GONTOR    20160603060129000000000001000
1300061660ORNELAS LAZARO JUANA LUISA              IMPERIALES20160603060129000000000007300
0100051218GOMEZ GALAS ALFREDO                     GONTOR    20160604060129000000000001000
0100051218GOMEZ GALAS ALFREDO                     GONTOR    20160606060129000000000002000
0100063299ROSAS HERNANDEZ LAURA                   IMPERIALES20160607060129000000000022100
1300061660ORNELAS LAZARO JUANA LUISA              GONTOR    20160608060129000000000004400
1300054672ROSAS JIMENEZ JOSE AMBROSIO LUIS        GONTOR    20160609060129000000000005000
0100063299ROSAS HERNANDEZ LAURA                   GONTOR    20160610060129000000000005000
0100063299ROSAS HERNANDEZ LAURA                   GONTOR    20160612060129000000000004400
0100063299ROSAS HERNANDEZ LAURA                   IMPERIALES20160612060129000000000004450
1300061377MENDOZA BARRIOS GUSTAVO                 GONTOR    20160613060129000000000003000
1300061660ORNELAS LAZARO JUANA LUISA              GONTOR    20160616060129000000000003500
1300061660ORNELAS LAZARO JUANA LUISA              GONTOR    20160617060129000000000005000
0100051218GOMEZ GALAS ALFREDO                     GONTOR    20160618060129000000000002000
1300061660ORNELAS LAZARO JUANA LUISA              GONTOR    20160621060129000000000002000
1300061660ORNELAS LAZARO JUANA LUISA              IMPERIALES20160621060129000000000002200
0100051218GOMEZ GALAS ALFREDO                     IMPERIALES20160623060129000000000006700
1300054672ROSAS JIMENEZ JOSE AMBROSIO LUIS        IMPERIALES20160624060129000000000003500
1300054672ROSAS JIMENEZ JOSE AMBROSIO LUIS        IMPERIALES20160625060129000000000004450
0100051218GOMEZ GALAS ALFREDO                     IMPERIALES20160626060129000000000008050
0100051218GOMEZ GALAS ALFREDO                     IMPERIALES20160627060129000000000002200
1300061660ORNELAS LAZARO JUANA LUISA              IMPERIALES20160627060129000000000010100
0100051218GOMEZ GALAS ALFREDO                     GONTOR    20160628060129000000000003000
1300061660ORNELAS LAZARO JUANA LUISA              IMPERIALES20160628060129000000000003500
0100063299ROSAS HERNANDEZ LAURA                   GONTOR    20160629060129000000000002000
0100063299ROSAS HERNANDEZ LAURA                   IMPERIALES20160629060129000000000009200
1300061660ORNELAS LAZARO JUANA LUISA              IMPERIALES20160630060129000000000005000
1300043499RAMIREZ FIGUEROA ERNESTO                GONTOR    20160601060193000000000003500
1300043499RAMIREZ FIGUEROA ERNESTO                GONTOR    20160606060193000000000003600
1300043499RAMIREZ FIGUEROA ERNESTO                IMPERIALES20160612060193000000000007300
0000079349ESTEBAN NICOLAS ANABEL                  GONTOR    20160617060193000000000004400
0000079349ESTEBAN NICOLAS ANABEL                  IMPERIALES20160628060193000000000004200
1300045652FIGUEROA DELGADO LIDIA                  GONTOR    20160601060201000000000001000
1300045652FIGUEROA DELGADO LIDIA                  IMPERIALES20160601060201000000000006700
1300080298LAGUNAS PEREZ ALFONSO                   GONTOR    20160601060201000000000002001
1300045652FIGUEROA DELGADO LIDIA                  GONTOR    20160603060201000000000001000
1300045652FIGUEROA DELGADO LIDIA                  GONTOR    20160606060201000000000001000
1300045652FIGUEROA DELGADO LIDIA                  IMPERIALES20160607060201000000000018300
1300045652FIGUEROA DELGADO LIDIA                  GONTOR    20160608060201000000000002500
0000080298LAGUNAS PEREZ ALFONSO                   IMPERIALES20160611060201000000000003250
1300045652FIGUEROA DELGADO LIDIA                  GONTOR    20160612060201000000000001000
1300045652FIGUEROA DELGADO LIDIA                  GONTOR    20160614060201000000000001000
1300045652FIGUEROA DELGADO LIDIA                  IMPERIALES20160615060201000000000006700
1300070917AVELINO REYES DANIEL                    GONTOR    20160617060201000000000003200
0100021527TORRES MONDRAGON SANDRA                 IMPERIALES20160618060201000000000019100
0000080298LAGUNAS PEREZ ALFONSO                   GONTOR    20160618060201000000000003500
0000080298LAGUNAS PEREZ ALFONSO                   GONTOR    20160621060201000000000008000
1300070917AVELINO REYES DANIEL                    IMPERIALES20160623060201000000000004408
0100021527TORRES MONDRAGON SANDRA                 GONTOR    20160625060201000000000001000
1300045652FIGUEROA DELGADO LIDIA                  GONTOR    20160627060201000000000004300
1300073299ARRIAGA SOLEDAD RICARDO                 GONTOR    20160601060202000000000003000
1300067880MORENO IZQUIERDO JOSE DE JESUS          GONTOR    20160608060202000000000004500
1300065273PAIZ DE JESUS ALFONSO                   GONTOR    20160613060202000000000004400
1300073299ARRIAGA SOLEDAD RICARDO                 GONTOR    20160613060202000000000004400
0100000118RAMIREZ MEDINA JOSE                     GONTOR    20160614060202000000000004400
0100000118RAMIREZ MEDINA JOSE                     IMPERIALES20160616060202000000000011000
1300065273PAIZ DE JESUS ALFONSO                   GONTOR    20160617060202000000000006150
1300073299ARRIAGA SOLEDAD RICARDO                 GONTOR    20160626060202000000000012300
1300067880MORENO IZQUIERDO JOSE DE JESUS          IMPERIALES20160627060202000000000004200
1300065273PAIZ DE JESUS ALFONSO                   IMPERIALES20160630060202000000000004200
0900032386BENITEZ ROBLEDO THELMA PATRICIA         GONTOR    20160601060501000000000002400
0900073876AGUIRRE TIRADO VICTOR MANUEL            GONTOR    20160603060501000000000021000
0900021591DIAZ MORELOS LORENZO                    IMPERIALES20160604060501000000000018300
0900021591DIAZ MORELOS LORENZO                    IMPERIALES20160608060501000000000003200
0900061579VAZQUEZ REYES GLORIA MARIA              GONTOR    20160608060501000000000007000
0900073876AGUIRRE TIRADO VICTOR MANUEL            IMPERIALES20160612060501000000000019100
0900021591DIAZ MORELOS LORENZO                    IMPERIALES20160616060501000000000019100
0900021591DIAZ MORELOS LORENZO                    GONTOR    20160620060501000000000003300
0900032386BENITEZ ROBLEDO THELMA PATRICIA         IMPERIALES20160622060501000000000019100
0900021591DIAZ MORELOS LORENZO                    IMPERIALES20160623060501000000000007300
0900021591DIAZ MORELOS LORENZO                    GONTOR    20160626060501000000000025000
0900021591DIAZ MORELOS LORENZO                    IMPERIALES20160627060501000000000057300
0900021591DIAZ MORELOS LORENZO                    GONTOR    20160630060501000000000008300
0900061579VAZQUEZ REYES GLORIA MARIA              GONTOR    20160630060501000000000006960
0900003318ALBA GUADALUPE YHI RIVERA               GONTOR    20160607060504000000000014600
0900003318ALBA GUADALUPE YHI RIVERA               IMPERIALES20160607060504000000000018600
0900003318ALBA GUADALUPE YHI RIVERA               GONTOR    20160613060504000000000004200
0900003150GUZMAN ARELLANO GUADALUPE               IMPERIALES20160614060504000000000008800
0900003150GUZMAN ARELLANO GUADALUPE               GONTOR    20160615060504000000000004200
0900003318ALBA GUADALUPE YHI RIVERA               IMPERIALES20160615060504000000000008500
0900026479NEVAREZ MARTINEZ JUAN CARLOS            IMPERIALES20160615060504000000000008800
0900003150GUZMAN ARELLANO GUADALUPE               GONTOR    20160618060504000000000007300
0900003150GUZMAN ARELLANO GUADALUPE               IMPERIALES20160618060504000000000008800
0900026479NEVAREZ MARTINEZ JUAN CARLOS            IMPERIALES20160619060504000000000019100
0900003318ALBA GUADALUPE YHI RIVERA               GONTOR    20160621060504000000000004400
0900003318YHI RIVERA ALBA GUADALUPE               IMPERIALES20160622060504000000000008800
0900026479NEVAREZ MARTINEZ JUAN CARLOS            GONTOR    20160627060504000000000004200
0900026479NEVAREZ MARTINEZ JUAN CARLOS            IMPERIALES20160628060504000000000019100
0900003318ALBA GUADALUPE YHI RIVERA               GONTOR    20160629060504000000000004200
0900026479NEVAREZ MARTINEZ JUAN CARLOS            GONTOR    20160629060504000000000004200
0900079968CORRALES SAYAS ALMA CECILIA             IMPERIALES20160612060511000000000008500
0900061883ELIZALDE GARCIA FAUSTO CARLOS           IMPERIALES20160615060511000000000019100
1300020375FABIOLA LOPEZ BOJORQUEZ                 IMPERIALES20160628060511000000000019100
0000072927MARCELENO GOMEZ SARAHI TERESA           IMPERIALES20160602060552000000000018300
0000069117ROSALES VILLASENOR MARIA DE LA LUZ      IMPERIALES20160606060552000000000003400
0900005124DIAZ SILLAS MARTHA ALICIA               GONTOR    20160619060552000000000003500
0000074190MARQUEZ ALATORRE ALONSO                 IMPERIALES20160620060552000000000019100
0900005124DIAZ SILLAS MARTHA ALICIA               GONTOR    20160628060552000000000018000
0000077098GREEN PEDRIN PERLA   ELIZABETH          IMPERIALES20160607060806000000000018300
0000077098GREEN PEDRIN PERLA   ELIZABETH          GONTOR    20160602060812000000000005800
0000071725GARCIA MURILLO VIVIANA                  GONTOR    20160603060812000000000005800
0000071725GARCIA MURILLO VIVIANA                  GONTOR    20160605060812000000000005800
0000071725GARCIA MURILLO VIVIANA                  GONTOR    20160607060812000000000005800
0000071725GARCIA MURILLO VIVIANA                  GONTOR    20160610060812000000000005800
