PAT0000376271091FAC11396  20150623201507290100002801271670          71670          00000100000000083005003                    000028012FRESA DE DIAMANTE BOLA #0                                                                           0000
PAT0000376271091FAC11396  20150623201507290100002801271680          71680          00000100000000083005003                    000028012FRESA DE DIAMANTE BOLA #1                                                                           0000
PAT0000376271091FAC11396  20150623201507290100002801271690          71690          00000100000000083005003                    000028012FRESA DE DIAMANTE BOLA #2                                                                           0000
PAT0000376601091FAC11471  20150710201508060100002822271690          71690          00000300000000083005003                    000028222FRESA DE DIAMANTE BOLA #2                                                                           0000
PAT0000376271091FAC11396  20150623201507290100002801271700          71700          00000100000000083005003                    000028012FRESA DE DIAMANTE BOLA #3                                                                           0000
PAT0000376271091FAC11396  20150623201507290100002801271710          71710          00000100000000083005003                    000028012FRESA DE DIAMANTE BOLA #4                                                                           0000
PAT0000376271091FAC11396  20150623201507290100002801271720          71720          00000100000000083005003                    000028012FRESA DE DIAMANTE PUNTA DE LAPIZ # 1                                                                0000
PAT0000376271091FAC11396  20150623201507290100002801271730          71730          00000100000000083005003                    000028012FRESA DE DIAMANTE PUNTA DE LAPIZ # 2                                                                0000
PAT0000376271091FAC11396  20150623201507290100002801271740          71740          00000100000000083005003                    000028012FRESA DE DIAMANTE PUNTA DE LAPIZ # 3                                                                0000
PAT0000376271091FAC11396  20150623201507290100002801271750          71750          00000100000000083005003                    000028012FRESA DE DIAMANTE BALON #1                                                                          0000
PAT0000376271091FAC11396  20150623201507290100002801271760          71760          00000100000000083005003                    000028012FRESA DE DIAMANTE BALON #2                                                                          0000
PAT0000376271091FAC11396  20150623201507290100002801271770          71770          00000100000000083005003                    000028012FRESA DE DIAMANTE BALON #3                                                                          0000
PAT0000376271091FAC11396  20150623201507290100002801271780          71780          00000100000000083005003                    000028012FRESA DE DIAMANTE PERA #0                                                                           0000
PAT0000376271091FAC11396  20150623201507290100002801271790          71790          00000100000000083005003                    000028012FRESA DE DIAMANTE PERA #1                                                                           0000
PAT0000376271091FAC11396  20150623201507290100002801271800          71800          00000100000000083005003                    000028012FRESA DE DIAMANTE PERA #2                                                                           0000
PAT0000376271091FAC11396  20150623201507290100002801271810          71810          00000100000000083005003                    000028012FRESA DE DIAMANTE PERA #3                                                                           0000
PAT0000376271091FAC11396  20150623201507290100002801271820          71820          00000100000000083005003                    000028012FRESA DE DIAMANTE TRONCO CONICA 1 PZA                                                               0000
PAT0000376271091FAC11396  20150623201507290100002801271830          71830          00000100000000083005003                    000028012FRESA DE DIAMANTE TRONCO CONICA 2 PZA                                                               0000
PAT0000376271091FAC11396  20150623201507290100002801271840          71840          00000100000000083005003                    000028012FRESA DE DIAMANTE TRONCO CONICA 3 PZAS                                                              0000
PAT0000376271091FAC11396  20150623201507290100002801271850          71850          00000100000000047005003                    000028012CAPSULA PARA AMALGAMADOR PZA                                                                        0000
PAT0000378180771A044715   201509032015090301000028492111000         111000         00000060000003117305000                    000028492                                                                                                    0000
PAT0000376551178B7159     201507312015080601000028395213090         213090         00000660000000208005003                    000028395                                                                                                    0000
PAT0000376561178B7160     201507312015080601000028395213090         213090         00000670000000208005003                    000028395                                                                                                    0000
PAT0000376571178B7181     201507312015080601000028395213090         213090         00000670000000208005003                    000028395                                                                                                    0000
PAT0000377951178B7432     201508312015083101000028494324090         324090         00000160000000495005000                    000028494                                                                                                    0000
PAT0000378180771A044715   2015090320150903010000284921001005        1001005        00000040000001770505000                    000028492                                                                                                    0000
PAT0000378180771A044715   2015090320150903010000284921001202        1001202        00000170000001770505000                    000028492                                                                                                    0000
PAT0000377951178B7432     2015083120150831010000284942001213        2001213        00000060000000510005000                    000028494                                                                                                    0000
PAT0000377951178B7432     2015083120150831010000284944018781        4018781        00000910000000038005000                    000028494                                                                                                    0000
PAT0000377951178B7432     2015083120150831010000284944019416        4019416        00000010000001025005000                    000028494                                                                                                    0000
PAT0000378180771A044715   20150903201509030100002849210100621       10100621       00000080000001400005000                    000028492                                                                                                    0000
PAT0000378180771A044715   20150903201509030100002849222001005       22001005       00000020000000077105000                    000028492                                                                                                    0000
PAT0000378180771A044715   20150903201509030100002849222001100       22001100       00000050000000118505000                    000028492                                                                                                    0000
PAT000037889999815160-A   20150907201509070100002859175006471       75006471       00001000000000032201000                    000028591ALBENDAZOL 20MG/1ML SUSP 20 ML                                                                      0000
PAT0000375690825B-1783775320150610201507230100000775375026226       75026226       00000050000000640801003                    000007753VITAMINA E                                                                                          0000
PAT0000376920825B17953846 20150701201508110100000384675026226       75026226       00000020000000640801003                    000003846VITAMINA E                                                                                          0000
PAT000037889999815160-A   20150907201509070100002859175049690       75049690       00002800000000366301000                    000028591LATANOPROST                                                                                         0000
PAT00003767708252737      2015081420150817010000284568400001177     8400001177     00000010000000691301009                    000028456NAFAZOLINA                                                                                          0000
PAT0000375640825B-178377482015061020150723010000077488400004574     8400004574     00000050000001903901003                    000007748OXIMETAZOLINA, HIALURONATO DE SODIO                                                                 0000
PAT0000377380825B18240189 2015082120150821010000285418400004574     8400004574     00000020000001903901000                    000028541OXIMETAZOLINA, HIALURONATO DE SODIO                                                                 0000
PAT0000377800833AA39752   20150831201508310100002849514302336160    14302336160    00000030000001495405000                    000028495NA                                                                                                  0000
PAT0000375640825B-1783774820150610201507230100000774820800756440    20800756440    00000050000000313201003                    000007748BISMUTO                                                                                             0000
PAT0000375640825B-1783774820150610201507230100000774820800790253    20800790253    00000050000001003601003                    000007748PLANTAGO OVATA MUCILAGO                                                                             0000
PAT0000378180771A044715   20150903201509030100002849224550000008    24550000008    00000090000000903205000                    000028492                                                                                                    0000
PAT000037631010700034669  20150709201507310100002825440565121413    40565121413    00000040000003793201003                    000028254NA                                                                                                  0000
PAT000037889999815160-A   20150907201509070100002859185118753528    85118753528    00000300000000224301000                    000028591ACICLOVIR SUSP 125 ML                                                                               0000
PAT0000375700825B-17837754201506102015072301000007754300055501331   300055501331   00000050000000707301003                    000007754CARBONATO DE CALCIO / VITAMINA D3                                                                   0000
PAT0000375860825B-17854227201506122015072401000004227300055501331   300055501331   00000050000000707301003                    000004227CARBONATO DE CALCIO / VITAMINA D3                                                                   0000
PAT0000376910825B17953845 201507012015081101000003845300055501331   300055501331   00000010000000707301003                    000003845CARBONATO DE CALCIO / VITAMINA D3                                                                   0000
PAT0000375630825B-17837563201506102015072301000007563300090029081   300090029081   00000050000002452701003                    000007563ALPRAZOLAM                                                                                          0000
PAT0000375870825B-17862868201506152015072401000002868300090055097   300090055097   00000020000003558301003                    000002868ALPRAZOLAM                                                                                          0000
PAT0000375910825B-17863038201506152015072401000003038300090286200   300090286200   00000050000001882801003                    000003038MEDROXIPROGESTERONA                                                                                 0000
PAT00003521111644017113088201410182015070901000000001300090555412   300090555412   00000100000000675201003                    000000001LINCOMICINA                                                                                         0000
PAT0000377250825B18232429 201508212015082101000028515300092960016   300092960016   00000100000004617701000                    000028515LATANOPROST                                                                                         0000
PAT0000377230825B18232427 201508212015082101000028516300092960030   300092960030   00000200000005451901000                    000028516LATANOPROST, TIMOLOL                                                                                0000
PAT0000377250825B18232429 201508212015082101000028515300092960030   300092960030   00000300000005451901000                    000028515LATANOPROST, TIMOLOL                                                                                0000
PAT0000377270825B18232431 201508212015082101000028514300092960030   300092960030   00000300000005451901000                    000028514LATANOPROST, TIMOLOL                                                                                0000
PAT0000377290825B18232433 201508212015082101000028513300092960030   300092960030   00000500000005451901000                    000028513LATANOPROST, TIMOLOL                                                                                0000
PAT0000377310825B18232435 201508212015082101000028512300092960030   300092960030   00000500000005451901000                    000028512LATANOPROST, TIMOLOL                                                                                0000
PAT0000375700825B-17837754201506102015072301000007754300093458017   300093458017   00000050000003294701003                    000007754CLINDAMICINA                                                                                        0000
PAT0000352130107BTFA-00055201507072015070801000028210300098416630   300098416630   00000010000000766601003                    000028210FOSFATO Y CITRATO DE SODIO PARA ENEMA                                                               0000
PAT0000376920825B17953846 201507012015081101000003846301320010206   301320010206   00000010000000726201003                    000003846FOSFATO DE SODIO                                                                                    0000
PAT0000375970825B-17869331201506162015072401000009331612197777773   612197777773   00000010000000461601003                    000009331SUPLEMENTO ALIMENTICIO                                                                              0000
PAT0000378030825B18290042 201508312015090101000028581612197933339   612197933339   00000300000001915005000                    000028581AMINOACIDOS DE CADENA RAMIFICADA, CRBOHIDRATOS COMPLEJOS Y GRASAS                                   0000
PAT0000379690825B18218858 201509222015092201000028465612197933339   612197933339   00000300000001915005000                    000028465AMINOACIDOS DE CADENA RAMIFICADA, CRBOHIDRATOS COMPLEJOS Y GRASAS                                   0000
PAT0000375970825B-17869331201506162015072401000009331650240006647   650240006647   00000010000000551701003                    000009331NAPROXENO, LIDOCAINA, METILO, MENTOL                                                                0000
PAT0000378180771A044715   201509032015090301000028492729513107920   729513107920   00000030000001293605000                    000028492VENDA ELASTICA 20 CM X 5 MT (TRASPASO SEG POP)                                                      0000
PAT0000375640825B-17837748201506102015072301000007748736085048063   736085048063   00000050000002467501003                    000007748DEXAMETASONA, TOBRAMICINA                                                                           0000
PAT0000375880825B-17863035201506152015072401000003035736085048063   736085048063   00000020000002467501003                    000003035DEXAMETASONA, TOBRAMICINA                                                                           0000
PAT0000375640825B-17837748201506102015072301000007748736085171051   736085171051   00000050000001514801003                    000007748GRAMICIDINA, NEOMICINA, POLIMIXINA                                                                  0000
PAT0000375640825B-17837748201506102015072301000007748736085268096   736085268096   00000050000000870601003                    000007748GRAMICIDINA, NEOMICINA, POLIMIXINA                                                                  0000
PAT0000375640825B-17837748201506102015072301000007748736085278392   736085278392   00000050000002267001003                    000007748CIPROFLOXACINO                                                                                      0000
PAT0000375640825B-17837748201506102015072301000007748736085280005   736085280005   00000050000002604405003                    000007748HIALURONATO DE SODIO                                                                                0000
PAT0000375640825B-17837748201506102015072301000007748736085400830   736085400830   00000050000002928501003                    000007748TOBRAMICINA / DEXAMETASONA                                                                          0000
PAT0000376200825B-17923824201506252015072701000003824736085400830   736085400830   00000030000002662301003                    000003824TOBRAMICINA / DEXAMETASONA                                                                          0000
PAT0000375640825B-17837748201506102015072301000007748736085401288   736085401288   00000050000000843001003                    000007748TIMOLOL                                                                                             0000
PAT0000376040825B-17876412201506172015072401000006412736085401530   736085401530   00000010000004962901003                    000006412CICLOSPORINA                                                                                        0000
PAT0000376510825B18153720 201508052015080701000003720736085402346   736085402346   00000080000004613801003                    000003720LATANOPROST                                                                                         0000
PAT0000377380825B18240189 201508212015082101000028541736085402346   736085402346   00000020000004613801000                    000028541LATANOPROST                                                                                         0000
PAT0000375640825B-17837748201506102015072301000007748736085405668   736085405668   00000050000002996201003                    000007748CONDROITIN HIALURONATO                                                                              0000
PAT0000377380825B18240189 201508212015082101000028541736085405668   736085405668   00000040000002996201000                    000028541CONDROITIN HIALURONATO                                                                              0000
PAT0000376100825B17854224 201506122015072401000004224736085904727   736085904727   00000050000003308901009                    000004224CIPROFLOXACINO                                                                                      0000
PAT0000376351178B-6926    201507142015073101000028168750104892449   750104892449   00000200000000935005003                    000028168GUANTES PARA EXPLORACION                                                                            0000
PAT000037889999815160-A   201509072015090701000028591750182530037   750182530037   00000100000000175601000                    000028591TRIMEBUTINA SUSP ADTO 100 MG 100 ML (DEGORT?S                                                       0000
PAT0000378191178B7433     201509022015090301000028494768455106912   768455106912   00000020000006500005000                    000028494NA                                                                                                  0000
PAT0000376180825B-17891024201506192015072701000001024768455106974   768455106974   00000010000004631905003                    000001024NA                                                                                                  0000
PAT0000377800833AA39752   201508312015083101000028495768455106974   768455106974   00000100000000988405000                    000028495NA                                                                                                  0000
PAT000037889999815160-A   201509072015090701000028591780083140076   780083140076   00001000000000114801000                    000028591HIOSINA METAMIZOL                                                                                   0000
PAT000037889999815160-A   201509072015090701000028591780083142704   780083142704   00000500000000077701000                    000028591                                                                                                    0000
PAT000037889999815160-A   201509072015090701000028591780083144814   780083144814   00000300000000202501000                    000028591CIPROFLOXACINO SOL OFT 5ML                                                                          0000
PAT000037889999815160-A   201509072015090701000028591785118752477   785118752477   00001500000000156501000                    000028591FENAZOPIRIDINA 100 MG 20 TABS (MAVI)                                                                0000
PAT000037889999815160-A   201509072015090701000028591785118752996   785118752996   00002100000000292201000                    000028591                                                                                                    0000
PAT0000377800833AA39752   201508312015083101000028495884521015671   884521015671   00000040000001135805000                    000028495MEDIA TED A RODILL MEDIA                                                                            0000
PAT000035211116440171130882014101820150709010000000011000004022536  1000004022536  00000010000001263601003                    000000001N/A                                                                                                 0000
PAT000035211116440171130882014101820150709010000000011000004031552  1000004031552  00000010000000578801003                    000000001METAMIZOL SODICO SOL. ORAL 5 GR/100 ML                                                              0000
PAT00003767008251434      2015081420150817010000284523282776432026  3282776432026  00000020000000870905009                    000028452NA                                                                                                  0000
PAT0000376960825B18188749 2015081220150812010000087493337872411922  3337872411922  00000020000002357005003                    000008749NA                                                                                                  0000
PAT0000375760825B17854223 2015061220150723010000042233499320000215  3499320000215  00000050000002289601009                    000004223TRETINOINA                                                                                          0000
PAT0000375920825B-178630392015061520150724010000030393499320001205  3499320001205  00000020000002296901003                    000003039DESONIDA                                                                                            0000
PAT0000375920825B-178630392015061520150724010000030393499320001526  3499320001526  00000020000002977101003                    000003039ADAPALENE                                                                                           0000
PAT00003767108251435      2015081420150817010000284523499320002868  3499320002868  00000020000003254001009                    000028452CLOBETASOL                                                                                          0000
PAT0000379630825B18201435 2015092220150922010000284523499320002868  3499320002868  00000020000003254001000                    000028452CLOBETASOL                                                                                          0000
PAT0000375640825B-178377482015061020150723010000077483594456400103  3594456400103  00000050000003530201003                    000007748DIOSMINA HESPERIDINA                                                                                0000
PAT0000376100825B17854224 2015061220150724010000042243594456400103  3594456400103  00000050000003530201009                    000004224DIOSMINA HESPERIDINA                                                                                0000
PAT0000376500825B17953841 2015070120150807010000038413594456400103  3594456400103  00000040000003530201009                    000003841DIOSMINA HESPERIDINA                                                                                0000
PAT0000377380825B18240189 2015082120150821010000285413594456400103  3594456400103  00000040000003530201000                    000028541DIOSMINA HESPERIDINA                                                                                0000
PAT0000376339998A-167     2015073020150731010000283914019338605159  4019338605159  00000300000001000001009                    000028391                                                                                                    0000
PAT0000376830221AM-11858162015072820150811010000284274019338605159  4019338605159  00000050000002880001003                    000028427                                                                                                    0000
PAT0000376840221AM-11858162015072820150811010000284284019338605159  4019338605159  00000050000002880001003                    000028428                                                                                                    0000
PAT0000376850221AM-11858162015072820150811010000284294019338605159  4019338605159  00000050000002880001003                    000028429                                                                                                    0000
PAT0000376860221AM118581582015072820150811010000284254019338605159  4019338605159  00000050000002880001009                    000028425                                                                                                    0000
PAT0000376870221AM118581592015072820150811010000284264019338605159  4019338605159  00000050000002880001009                    000028426                                                                                                    0000
PAT0000375640825B-178377482015061020150723010000077484030571000389  4030571000389  00000050000002611505003                    000007748DEXPANTENOL                                                                                         0000
PAT0000375640825B-178377482015061020150723010000077484035710006628  4035710006628  00000050000001369505003                    000007748HIDROXIPROPILMETILCELULOSA                                                                          0000
PAT0000377951178B7432     2015083120150831010000284944042809234602  4042809234602  00000010000002000005000                    000028494APOSITO ADHESIVO TRANSPARENTE 10 CM X 12.5 CM 4X4 3/4                                               0000
PAT0000375690825B-178377532015061020150723010000077534104480412103  4104480412103  00000050000001468801003                    000007753HIEDRA DESECADA                                                                                     0000
PAT0000376351178B-6926    2015071420150731010000281687500142144622  7500142144622  00000010000001800005003                    000028168CATGUT CROMICO CON AGUJA, LONGITUD DE LA HEBRA 68-75 ML CALIBRE DE LA SUTURA 3-0 CARACTERISTICAS DE 0000
PAT000035211116440171130882014101820150709010000000017501008427330  7501008427330  00000300000002058401003                    000000001DEXPANTENOL                                                                                         0000
PAT0000375690825B-178377532015061020150723010000077537501008465646  7501008465646  00000050000000695901003                    000007753ACIDO ASCORBICO                                                                                     0000
PAT0000375690825B-178377532015061020150723010000077537501008497340  7501008497340  00000050000001300801003                    000007753NAPROXENO SODICO                                                                                    0000
PAT0000375690825B-178377532015061020150723010000077537501008497357  7501008497357  00000050000001085201003                    000007753NAPROXENO SODICO                                                                                    0000
PAT000035211116440171130882014101820150709010000000017501008497913  7501008497913  00000220000000354601003                    000000001HIDROTALCITA                                                                                        0000
PAT0000375930825B-178690212015061620150724010000090217501009004585  7501009004585  00000020000004046801003                    000009021BROMAZEPAM                                                                                          0000
PAT0000375630825B-178375632015061020150723010000075637501009007074  7501009007074  00000050000003792201003                    000007563CLONAZEPAM                                                                                          0000
PAT0000375630825B-178375632015061020150723010000075637501009007111  7501009007111  00000050000002519201003                    000007563CLONAZEPAM                                                                                          0000
PAT0000375980825B-178726812015061620150724010000026817501009007111  7501009007111  00000020000002519201003                    000002681CLONAZEPAM                                                                                          0000
PAT0000352130107BTFA-000552015070720150708010000282107501009071020  7501009071020  00000010000310000001003                    000028210                                                                                                    0000
PAT0000375890825B-178630362015061520150724010000030367501009071938  7501009071938  00000020000010472101003                    000003036IBANDRONATO SODICO                                                                                  0000
PAT0000375640825B-178377482015061020150723010000077487501022110263  7501022110263  00000050000003337401003                    000007748NA                                                                                                  0000
PAT0000375690825B-178377532015061020150723010000077537501033921292  7501033921292  00000050000003884801003                    000007753VALPROATO SEMISODICO                                                                                0000
PAT0000377010825B18201433 2015081420150814010000284507501033950636  7501033950636  00000250000000541101003                    000028450PROTEINAS BAJA EN LIQUIDOS, ELECTROLITOS                                                            0000
PAT000037753999810128140  2015082520150825010000281067501033951374  7501033951374  00000300000003400001000                    000028106LACTOBIONATO DE CLARITROMICINA                                                                      0000
PAT0000378350825B18327253 2015090720150907010000286917501033952791  7501033952791  00000010000003276701000                    000028691CANDESARTAN, HIDROCLOROTIAZIDA                                                                      0000
PAT0000378120825B18297472 2015090220150902010000286207501033952869  7501033952869  00000020000005957101000                    000028620CANDESARTAN, HIDROCLOROTIAZIDA                                                                      0000
PAT0000377000825B18201432 2015081420150814010000284507501033954078  7501033954078  00000010000000472701003                    000028450SUPLEMENTO ALIMENTICIO                                                                              0000
PAT0000377000825B18201432 2015081420150814010000284507501033956126  7501033956126  00000300000000488901003                    000028450ALIMENTACION ESPECIALIZADA                                                                          0000
PAT0000377000825B18201432 2015081420150814010000284507501033956294  7501033956294  00000100000000485101003                    000028450COMPLEMENTO ALIMENTICIO PEDIATRICO                                                                  0000
PAT0000375590825B17844231 2015061120150722010000042317501033956690  7501033956690  00000100000000231701009                    000004231NA                                                                                                  0000
PAT0000375670825B-178377512015061020150723010000077517501033956690  7501033956690  00000050000000231701003                    000007751NA                                                                                                  0000
PAT0000375950825B-178693292015061620150724010000093297501033956690  7501033956690  00000100000000231701003                    000009329NA                                                                                                  0000
PAT0000376900825B17953844 2015070120150811010000038447501033956690  7501033956690  00000120000000231701003                    000003844NA                                                                                                  0000
PAT0000377000825B18201432 2015081420150814010000284507501033958717  7501033958717  00000100000000559701003                    000028450NA                                                                                                  0000
PAT0000375690825B-178377532015061020150723010000077537501034630070  7501034630070  00000050000000807401003                    000007753NAFAZOLINA                                                                                          0000
PAT000037752999800001     2015082520150825010000000007501034630087  7501034630087  00000020000000000001000                    000000000NAFAZOLINA                                                                                          0000
PAT0000379650825B18201439 2015092220150922010000285327501034630087  7501034630087  00000020000000807101000                    000028532NAFAZOLINA                                                                                          0000
PAT0000375690825B-178377532015061020150723010000077537501034635198  7501034635198  00000050000002624501003                    000007753MULTIVITAMINAS PEDIATRICO                                                                           0000
PAT0000375690825B-178377532015061020150723010000077537501034635242  7501034635242  00000050000001837801003                    000007753MULTIVITAMINAS PEDIATRICO                                                                           0000
PAT0000375970825B-178693312015061620150724010000093317501037905588  7501037905588  00000010000004779501003                    000009331BROMURO DE IPATROPIO / SALBUTAMOL                                                                   0000
PAT0000376010825B-178728022015061620150724010000028027501037905588  7501037905588  00000010000004779501003                    000002802BROMURO DE IPATROPIO / SALBUTAMOL                                                                   0000
PAT00003767608252350      2015081720150817010000284577501037905588  7501037905588  00000010000004779501009                    000028457BROMURO DE IPATROPIO / SALBUTAMOL                                                                   0000
PAT0000379670825B18212350 2015092220150922010000284577501037905588  7501037905588  00000010000004779501000                    000028457BROMURO DE IPATROPIO / SALBUTAMOL                                                                   0000
PAT0000377570825B18257677 2015082520150825010000285547501037907667  7501037907667  00000010000017544701000                    000028554PRAMIPEXOL                                                                                          0000
PAT0000375970825B-178693312015061620150724010000093317501037910025  7501037910025  00000010000004864901003                    000009331CLONIDINA                                                                                           0000
PAT0000376920825B17953846 2015070120150811010000038467501037910063  7501037910063  00000010000002610801003                    000003846IPRATROPIO, SALBUTAMOL                                                                              0000
PAT0000377820825B18273814 2015083120150831010000285657501037935196  7501037935196  00000010000004296701000                    000028565LINAGLIPTINA / METFORMINA                                                                           0000
PAT0000375730825B17844234 2015061120150723010000042347501037946154  7501037946154  00000050000003128001009                    000004234TELMISARTAN                                                                                         0000
PAT0000377400825B18240191 2015082120150821010000285417501037946215  7501037946215  00000040000004254401000                    000028541TELMISARTAN, HIDROCLOROTIAZIDA                                                                      0000
PAT0000378140825B18297474 2015090220150902010000286187501037946215  7501037946215  00000030000004254401000                    000028618TELMISARTAN, HIDROCLOROTIAZIDA                                                                      0000
PAT0000375730825B17844234 2015061120150723010000042347501037946246  7501037946246  00000050000007511901009                    000004234TELMISARTAN, HIDROCLOROTIAZIDA                                                                      0000
PAT0000376210825B-179238262015062520150727010000038267501037946246  7501037946246  00000040000007511901003                    000003826TELMISARTAN, HIDROCLOROTIAZIDA                                                                      0000
PAT0000377930825B18290046 2015083120150831010000285837501037950526  7501037950526  00000010000004436601000                    000028583NITROFURANTOINA                                                                                     0000
PAT0000375690825B-178377532015061020150723010000077537501037985115  7501037985115  00000050000006807201003                    000007753CLORHIDRATO DE TAMSULOSINA                                                                          0000
PAT0000375730825B17844234 2015061120150723010000042347501041941763  7501041941763  00000050000007030001009                    000004234SAXAGLIPTINA / METFORMINA                                                                           0000
PAT0000375730825B17844234 2015061120150723010000042347501041941770  7501041941770  00000050000007030001009                    000004234SAXAGLIPTINA / METFORMINA                                                                           0000
PAT000035211116440171130882014101820150709010000000017501043110686  7501043110686  00000660000002221601003                    000000001BETAMETASONA                                                                                        0000
PAT000035211116440171130882014101820150709010000000017501043161626  7501043161626  00000230000016058501003                    000000001VALACICLOVIR                                                                                        0000
PAT000035211116440171130882014101820150709010000000017501046424018  7501046424018  00000040000001039901003                    000000001PIRIMETAMINA                                                                                        0000
PAT000035211116440171130882014101820150709010000000017501046427576  7501046427576  00000070000002636001003                    000000001LAMOTRIGINA                                                                                         0000
PAT0000376340833AA-37190  2015072220150731010000281947501048612109  7501048612109  00000010000011694605003                    000028194                                                                                                    0000
PAT0000377800833AA39752   2015083120150831010000284957501048612109  7501048612109  00000010000011694305000                    000028495                                                                                                    0000
PAT0000378280100000002    2015090420150904010000000007501048613700  7501048613700  00000360000000000005000                    000000000NA                                                                                                  0000
PAT0000376351178B-6926    2015071420150731010000281687501048616602  7501048616602  00000030000000370605003                    000028168GUATAS                                                                                              0000
PAT0000377951178B7432     2015083120150831010000284947501048616602  7501048616602  00000020000000370605000                    000028494GUATAS                                                                                              0000
PAT0000377951178B7432     2015083120150831010000284947501048616909  7501048616909  00000010000001045005000                    000028494GUATAS                                                                                              0000
PAT000037632117439910     2015062520150731010000280687501048620906  7501048620906  00000500000000128705003                    000028068NA                                                                                                  0000
PAT0000378280100000002    2015090420150904010000000007501048780518  7501048780518  00000010000000000005000                    000000000APLICADORES                                                                                         0000
PAT0000376351178B-6926    2015071420150731010000281687501048920600  7501048920600  00000020000000935005003                    000028168NA                                                                                                  0000
PAT00003770508251395      2015081720150819010000284607501048922208  7501048922208  00000020000001251305009                    000028460434000                                                                                              0000
PAT0000379700825B18221395 2015092220150922010000284607501048922208  7501048922208  00000020000001251305000                    000028460434000                                                                                              0000
PAT0000376371178B-7042    2015072320150731010000283457501048923403  7501048923403  00000050000001035005003                    000028345434100                                                                                              0000
PAT00003770608251396      2015081720150819010000284607501048923403  7501048923403  00000020000001251305009                    000028460434100                                                                                              0000
PAT0000379710825B18221396 2015092220150922010000284607501048923403  7501048923403  00000020000001251305000                    000028460434100                                                                                              0000
PAT0000376351178B-6926    2015071420150731010000281687501048942473  7501048942473  00000250000000935005003                    000028168GUANTES                                                                                             0000
PAT0000375910825B-178630382015061520150724010000030387501050611053  7501050611053  00000020000002628301003                    000003038MOMETASONA FUROATO MONOHIDRATADO                                                                    0000
PAT0000375910825B-178630382015061520150724010000030387501050611657  7501050611657  00000050000001491501003                    000003038BETAMETASONA, CLOTRIMAZOL, GENTAMICINA                                                              0000
PAT0000376020825B-178764102015061720150724010000064107501050612555  7501050612555  00000010000000860901003                    000006410IBUPROFENO, PARACETAMOL                                                                             0000
PAT0000375690825B-178377532015061020150723010000077537501050613460  7501050613460  00000050000000364601003                    000007753OXIMETAZOLINA                                                                                       0000
PAT0000375690825B-178377532015061020150723010000077537501050616638  7501050616638  00000050000000967501003                    000007753BETACAROTENO,GINKGO BILOBA,PANAX,GINSENG                                                            0000
PAT0000377370825B18240188 2015082120150821010000285277501050617208  7501050617208  00000020000005302101000                    000028527OLMESARTAN, HIDROCLOROTIAZIDA                                                                       0000
PAT0000375730825B17844234 2015061120150723010000042347501050620345  7501050620345  00000050000003544701009                    000004234LORATADINA, FENILEFRINA                                                                             0000
PAT0000375700825B-178377542015061020150723010000077547501050629201  7501050629201  00000050000005603901003                    000007754MOMETASONA / FORMOTEROL                                                                             0000
PAT000037889999815160-A   2015090720150907010000285917501050631075  7501050631075  00001000000000190101000                    000028591LORATADINA BETAMETASONA                                                                             0000
PAT0000375960825B-178693302015061620150724010000093307501050649513  7501050649513  00000010000000749001003                    000009330GENTAMICINA                                                                                         0000
PAT0000375690825B-178377532015061020150723010000077537501050661201  7501050661201  00000050000000352701003                    000007753OXIMETAZOLINA                                                                                       0000
PAT0000375700825B-178377542015061020150723010000077547501050693806  7501050693806  00000050000003408901003                    000007754FUROATO MONOHIDRATADO DE MOMETASONA                                                                 0000
PAT00003767708252737      2015081420150817010000284567501070613044  7501070613044  00000040000000914501009                    000028456ISOTIPENDILO                                                                                        0000
PAT0000375880825B-178630352015061520150724010000030357501070615277  7501070615277  00000050000002808201003                    000003035DIOSMINA HESPERIDINA                                                                                0000
PAT0000376100825B17854224 2015061220150724010000042247501070615277  7501070615277  00000050000002808201009                    000004224DIOSMINA HESPERIDINA                                                                                0000
PAT0000376950825B18188748 2015081220150812010000087487501070615277  7501070615277  00000010000002552901003                    000008748DIOSMINA HESPERIDINA                                                                                0000
PAT0000375580825B17844229 2015061120150722010000042297501070634810  7501070634810  00000050000001691701009                    000004229DICLOXACILINA                                                                                       0000
PAT0000375640825B-178377482015061020150723010000077487501070635664  7501070635664  00000050000001302001003                    000007748DIFENIDOL                                                                                           0000
PAT0000375640825B-178377482015061020150723010000077487501070901059  7501070901059  00000050000003066201003                    000007748TRIMEBUTINA                                                                                         0000
PAT0000375640825B-178377482015061020150723010000077487501070902384  7501070902384  00000050000001919101003                    000007748VERALIPRIDA                                                                                         0000
PAT0000375640825B-178377482015061020150723010000077487501070903053  7501070903053  00000050000000751901003                    000007748TRIMEBUTINA                                                                                         0000
PAT0000375640825B-178377482015061020150723010000077487501070903688  7501070903688  00000050000001461601003                    000007748TRIMEBUTINA / SIMETICONA                                                                            0000
PAT0000376920825B17953846 2015070120150811010000038467501072300102  7501072300102  00000010000002195001003                    000003846FOSFATO SODICO DE PREDNISOLONA                                                                      0000
PAT0000377960058FA220023222015083120150831010000284557501072340313  7501072340313  00000440000002601101000                    000028455KETOPROFENO                                                                                         0000
PAT000035211116440171130882014101820150709010000000017501072350039  7501072350039  00000730000000438401003                    000000001                                                                                                    0000
PAT0000378280100000002    2015090420150904010000000007501073025417  7501073025417  00000030000000000005000                    000000000JGA DESCH B D 3 ML 22X32                                                                            0000
PAT0000378280100000002    2015090420150904010000000007501073025622  7501073025622  00000020000000000005000                    000000000NA                                                                                                  0000
PAT000037889999815160-A   2015090720150907010000285917501075713800  7501075713800  00009000000000103801000                    000028591                                                                                                    0000
PAT0000378060825B18297466 2015090220150902010000286207501080911185  7501080911185  00000030000001322005000                    000028620AGUA DE MAR, MINERALES                                                                              0000
PAT00003767708252737      2015081420150817010000284567501080912076  7501080912076  00000010000001211005009                    000028456AGUA DE MAR                                                                                         0000
PAT0000376510825B18153720 2015080520150807010000037207501080912274  7501080912274  00000010000001115405003                    000003720AGUA DE MAR, HALOGENOS, AGUA PURIFICADA                                                             0000
PAT0000376100825B17854224 2015061220150724010000042247501080954212  7501080954212  00000050000001123605009                    000004224STERIMAR INFANTIL 1 AER 50 ML                                                                       0000
PAT0000375740825B17844658 2015061120150723010000046587501082208108  7501082208108  00000050000003644101009                    000004658INSULINA HUMANA DE ACCION NPH                                                                       0000
PAT0000377320825B18232436 2015082120150821010000285127501082208702  7501082208702  00000100000006067601000                    000028512INSULINA LISPRO                                                                                     0000
PAT0000377240825B18232428 2015082120150821010000285167501082208733  7501082208733  00000500000004290101000                    000028516INSULINA LISPRO PROTAMINA,...                                                                       0000
PAT0000377260825B18232430 2015082120150821010000285157501082208733  7501082208733  00000300000004290101000                    000028515INSULINA LISPRO PROTAMINA,...                                                                       0000
PAT0000377300825B18232434 2015082120150821010000285137501082208733  7501082208733  00001000000004290101000                    000028513INSULINA LISPRO PROTAMINA,...                                                                       0000
PAT0000377320825B18232436 2015082120150821010000285127501082208733  7501082208733  00000210000004290101000                    000028512INSULINA LISPRO PROTAMINA,...                                                                       0000
PAT0000378170825B18297659 2015090220150902010000286207501082208733  7501082208733  00000020000004290101000                    000028620INSULINA LISPRO PROTAMINA,...                                                                       0000
PAT0000377240825B18232428 2015082120150821010000285167501082208740  7501082208740  00000100000003872801000                    000028516INSULINA LISPRO                                                                                     0000
PAT0000377280825B18232432 2015082120150821010000285147501082208740  7501082208740  00000100000003872801000                    000028514INSULINA LISPRO                                                                                     0000
PAT0000377320825B18232436 2015082120150821010000285127501082208740  7501082208740  00000100000003872801000                    000028512INSULINA LISPRO                                                                                     0000
PAT0000377280825B18232432 2015082120150821010000285147501082208764  7501082208764  00000500000007160001000                    000028514INSULINA LISPRO, INSULINA LISPRO PROTAMI                                                            0000
PAT0000377749998A-196     2015082620150826010000284887501082208764  7501082208764  00000500000002400001000                    000028488INSULINA LISPRO, INSULINA LISPRO PROTAMI                                                            0000
PAT000035211116440171130882014101820150709010000000017501082242256  7501082242256  00000750000001543101003                    000000001NA                                                                                                  0000
PAT0000376180825B-178910242015061920150727010000010247501082242607  7501082242607  00000020000008322201003                    000001024PIOGLITAZONA / METFORMINA                                                                           0000
PAT0000376920825B17953846 2015070120150811010000038467501082242607  7501082242607  00000040000008322201003                    000003846PIOGLITAZONA / METFORMINA                                                                           0000
PAT0000376070825B-178796532015061720150724010000096537501088504532  7501088504532  00000030000000961801003                    000009653DIMETICONA, GUAIAZULENE                                                                             0000
PAT0000375890825B-178630362015061520150724010000030367501088504655  7501088504655  00000050000002988901003                    000003036DOXICICLINA                                                                                         0000
PAT0000375640825B-178377482015061020150723010000077487501088504808  7501088504808  00000050000003334101003                    000007748RUSCUS ACULEATOS                                                                                    0000
PAT0000375640825B-178377482015061020150723010000077487501088505003  7501088505003  00000050000000357401003                    000007748FOSFATO DE DEXAMETAXONA                                                                             0000
PAT0000377900825B18290043 2015083120150831010000285837501088506789  7501088506789  00000020000014044901000                    000028583LACOSAMIDA                                                                                          0000
PAT0000375770825B17854228 2015061220150723010000042287501088507502  7501088507502  00000010000002492101009                    000004228HIDROXIZINA                                                                                         0000
PAT0000376200825B-179238242015062520150727010000038247501088507618  7501088507618  00000010000004676801003                    000003824NA                                                                                                  0000
PAT0000377900825B18290043 2015083120150831010000285837501088507618  7501088507618  00000010000004676801000                    000028583NA                                                                                                  0000
PAT0000375880825B-178630352015061520150724010000030357501088507625  7501088507625  00000050000002391601003                    000003035LEVOCETIRIZINA                                                                                      0000
PAT0000377380825B18240189 2015082120150821010000285417501088507632  7501088507632  00000020000003810901000                    000028541LEVOCETIRIZINA                                                                                      0000
PAT0000378330825B18327251 2015090720150907010000286917501088508929  7501088508929  00000020000000541101000                    000028691PICOSULFATO DE SODIO                                                                                0000
PAT0000375880825B-178630352015061520150724010000030357501088509773  7501088509773  00000050000000782401003                    000003035AMANTADINA, CLORFENAMINA, PARACETAMOL                                                               0000
PAT0000376500825B17953841 2015070120150807010000038417501088509773  7501088509773  00000040000000782401009                    000003841AMANTADINA, CLORFENAMINA, PARACETAMOL                                                               0000
PAT0000376040825B-178764122015061720150724010000064127501088604058  7501088604058  00000020000004499601003                    000006412OLOPATADINA                                                                                         0000
PAT0000375640825B-178377482015061020150723010000077487501088606304  7501088606304  00000050000003047001003                    000007748POLIMIXINA B, NEOMICINA, DEXAMETASONA                                                               0000
PAT0000375940825B-178693282015061620150724010000093287501088617553  7501088617553  00000020000005204001003                    000009328TRAVAPROST                                                                                          0000
PAT0000375640825B-178377482015061020150723010000077487501088617959  7501088617959  00000050000003602405003                    000007748POLIETILENGLICOL,PROPILENGLICOL,...                                                                 0000
PAT000035212116440171526682014112720150709010000000017501089800039  7501089800039  00000040000000807201003                    000000001VALPROATO DE MAGNESIO                                                                               0000
PAT000035211116440171130882014101820150709010000000017501089802460  7501089802460  00000900000001903601003                    000000001ATENOLOL, NIFEDIPINA                                                                                0000
PAT0000375850825B-178542262015061220150724010000042267501089802965  7501089802965  00000050000001658901003                    000004226DINITRATO DE ISOSORBIDA                                                                             0000
PAT000035211116440171130882014101820150709010000000017501089803221  7501089803221  00006560000001249301003                    000000001NA                                                                                                  0000
PAT0000377890825B18290041 2015083120150831010000285807501089803351  7501089803351  00000010000001464501000                    000028580CLORHIDRATO DE BIPERIDENO                                                                           0000
PAT0000378350825B18327253 2015090720150907010000286917501089803351  7501089803351  00000010000001464501000                    000028691CLORHIDRATO DE BIPERIDENO                                                                           0000
PAT000035211116440171130882014101820150709010000000017501089804136  7501089804136  00000070000001178601003                    000000001ACEXAMICO DE SODIO                                                                                  0000
PAT0000377360825B18240187 2015082120150821010000285277501089808936  7501089808936  00000020000003363101000                    000028527PIDOTIMOD                                                                                           0000
PAT000035211116440171130882014101820150709010000000017501089810014  7501089810014  00001960000000689901003                    000000001LINDANO, LIDOCAINA                                                                                  0000
PAT000035211116440171130882014101820150709010000000017501092701026  7501092701026  00000020000001115701003                    000000001PLANTAGO OVATO, SENOSIDOS A, B                                                                      0000
PAT0000375690825B-178377532015061020150723010000077537501092701026  7501092701026  00000050000001537401003                    000007753PLANTAGO OVATO, SENOSIDOS A, B                                                                      0000
PAT000035211116440171130882014101820150709010000000017501092743026  7501092743026  00000100000000906701003                    000000001HIERRO ELEMENTAL                                                                                    0000
PAT0000375690825B-178377532015061020150723010000077537501092743033  7501092743033  00000050000002296201003                    000007753HIERRO POLIMALTOSADO, ACIDO FOLICO                                                                  0000
PAT00003768008252740      2015081420150817010000284567501092772354  7501092772354  00000010000000804701009                    000028456LIDOCAINA, POLIDOCANOL                                                                              0000
PAT0000375690825B-178377532015061020150723010000077537501092773511  7501092773511  00000050000002839201003                    000007753TROXERRUTINA, CUMARINA                                                                              0000
PAT00003768008252740      2015081420150817010000284567501092774013  7501092774013  00000050000000804701009                    000028456LIDOCAINA, POLIDOCANOL                                                                              0000
PAT000035212116440171526682014112720150709010000000017501092774754  7501092774754  00000250000000727201003                    000000001CARBOCISTEINA                                                                                       0000
PAT000035212116440171526682014112720150709010000000017501092774761  7501092774761  00000040000002760101003                    000000001CARBOCISTEINA                                                                                       0000
PAT0000375690825B-178377532015061020150723010000077537501092774815  7501092774815  00000050000004847601003                    000007753PANTOPRAZOL                                                                                         0000
PAT0000375690825B-178377532015061020150723010000077537501092774822  7501092774822  00000050000002544801003                    000007753PANTOPRAZOL                                                                                         0000
PAT0000376520825B18153721 2015080520150807010000037217501092777212  7501092777212  00000020000003840201009                    000003721PINAVERIO, SIMETICONA                                                                               0000
PAT0000375690825B-178377532015061020150723010000077537501092778226  7501092778226  00000050000000955101003                    000007753NA                                                                                                  0000
PAT0000376020825B-178764102015061720150724010000064107501092779278  7501092779278  00000080000002714901003                    000006410BROMURO DE PINAVERIO, SIMETICONA                                                                    0000
PAT0000378150825B18297475 2015090220150902010000286207501092780014  7501092780014  00000020000001019801000                    000028620COMPLEJO OSEINICO MINERAL                                                                           0000
PAT0000375640825B-178377482015061020150723010000077487501094910723  7501094910723  00000050000002658501003                    000007748DICLOFENACO SODICO                                                                                  0000
PAT0000376500825B17953841 2015070120150807010000038417501094910723  7501094910723  00000020000002658501009                    000003841DICLOFENACO SODICO                                                                                  0000
PAT0000375640825B-178377482015061020150723010000077487501094911485  7501094911485  00000050000000647601003                    000007748DICLOFENACO DIETILAMONIO                                                                            0000
PAT0000377850825B18280126 2015083120150831010000285907501094914448  7501094914448  00000300000007108301000                    000028590VANCOMICINA                                                                                         0000
PAT000035211116440171130882014101820150709010000000017501094914882  7501094914882  00004380000004996401003                    000000001LEVODOPA, CARBIDOPA, ENTACAPONA                                                                     0000
PAT0000375640825B-178377482015061020150723010000077487501094915353  7501094915353  00000050000000880901003                    000007748DICLOFENACO                                                                                         0000
PAT0000376060825B-178794892015061720150724010000094897501094915988  7501094915988  00000010000077540501003                    000009489OMALIZUMAB                                                                                          0000
PAT0000377840825B18280125 2015083120150831010000285907501098604383  7501098604383  00000500000002360001000                    000028590ESOMEPRAZOL                                                                                         0000
PAT000035211116440171130882014101820150709010000000017501098604505  7501098604505  00000800000003210001003                    000000001CANDESARTAN, CILEXETILO                                                                             0000
PAT000035211116440171130882014101820150709010000000017501098604512  7501098604512  00000190000002217901003                    000000001CANDESARTAN, CILEXETILO                                                                             0000
PAT0000376180825B-178910242015061920150727010000010247501098606127  7501098606127  00000010000004340001003                    000001024NA                                                                                                  0000
PAT0000376920825B17953846 2015070120150811010000038467501098611305  7501098611305  00000020000002840001003                    000003846ESOMEPRAZOL                                                                                         0000
PAT0000377360825B18240187 2015082120150821010000285277501098611305  7501098611305  00000020000002840001000                    000028527ESOMEPRAZOL                                                                                         0000
PAT0000376520825B18153721 2015080520150807010000037217501098611329  7501098611329  00000040000004050001009                    000003721ESOMEPRAZOL                                                                                         0000
PAT0000377360825B18240187 2015082120150821010000285277501098611329  7501098611329  00000070000004050001000                    000028527ESOMEPRAZOL                                                                                         0000
PAT0000378120825B18297472 2015090220150902010000286207501098611329  7501098611329  00000030000004050001000                    000028620ESOMEPRAZOL                                                                                         0000
PAT0000378350825B18327253 2015090720150907010000286917501098611329  7501098611329  00000010000004050001000                    000028691ESOMEPRAZOL                                                                                         0000
PAT0000375680825B-178377522015061020150723010000077527501101606236  7501101606236  00000050000003570101003                    000007752INDOMETACINA, METOCARBAMOL                                                                          0000
PAT0000375680825B-178377522015061020150723010000077527501101614026  7501101614026  00000050000001228201003                    000007752INDOMETACINA                                                                                        0000
PAT0000377390825B18240190 2015082120150821010000285327501101654985  7501101654985  00000020000005590201000                    000028532GLIBENCLAMIDA, METFORMINA                                                                           0000
PAT0000375680825B-178377522015061020150723010000077527501101698453  7501101698453  00000050000003500201003                    000007752MELOXICAM                                                                                           0000
PAT0000375700825B-178377542015061020150723010000077547501108712213  7501108712213  00000050000004480201003                    000007754ESTROGENOS CONJUGADOS                                                                               0000
PAT0000375780825B17854229 2015061220150723010000042297501108713487  7501108713487  00000020000007781401009                    000004229VENLAFAXINA                                                                                         0000
PAT0000376540825B18153723 2015080520150807010000037237501108718147  7501108718147  00000050000008744501009                    000003723VENLAFAXINA                                                                                         0000
PAT0000375700825B-178377542015061020150723010000077547501108761839  7501108761839  00000050000001664601003                    000007754VITAMINAS MINERALES                                                                                 0000
PAT0000375960825B-178693302015061620150724010000093307501108762157  7501108762157  00000040000001059401003                    000009330VITAMINAS, MINERALES                                                                                0000
PAT000035211116440171130882014101820150709010000000017501108762997  7501108762997  00000030000004786901003                    000000001ESTRADIOL, TRIMEGESTONA                                                                             0000
PAT000037889999815160-A   2015090720150907010000285917501109761760  7501109761760  00002100000000057301000                    000028591                                                                                                    0000
PAT000035211116440171130882014101820150709010000000017501109900503  7501109900503  00000410000001668301003                    000000001MICONAZOL                                                                                           0000
PAT000035211116440171130882014101820150709010000000017501109901098  7501109901098  00000200000001850401003                    000000001DOMPERIDONA                                                                                         0000
PAT000035211116440171130882014101820150709010000000017501109901319  7501109901319  00000150000001506801003                    000000001                                                                                                    0000
PAT0000352130107BTFA-000552015070720150708010000282107501109901616  7501109901616  00000150000009203801003                    000028210RISPERIDONA                                                                                         0000
PAT0000377910825B18290044 2015083120150831010000285837501122900399  7501122900399  00000020000004734301000                    000028583FLUOROURACILO                                                                                       0000
PAT0000375650825B-178377492015061020150723010000077497501122961246  7501122961246  00000050000002277701003                    000007749MELATONINA                                                                                          0000
PAT0000375650825B-178377492015061020150723010000077497501122961253  7501122961253  00000050000001681201003                    000007749NA                                                                                                  0000
PAT0000376160825B-178910222015061920150727010000010227501122961505  7501122961505  00000020000002061801003                    000001022HIDROQUINONA                                                                                        0000
PAT0000376030825B-178764112015061720150724010000064117501122961901  7501122961901  00000030000002397501003                    000006411HIDROQUINONA                                                                                        0000
PAT0000375650825B-178377492015061020150723010000077497501122963028  7501122963028  00000050000001126401003                    000007749PANCREATINA,DIMETICONA,BILIS DE BUEY,...                                                            0000
PAT0000375650825B-178377492015061020150723010000077497501122963516  7501122963516  00000050000002174101003                    000007749VITAMINAS, MINERALES                                                                                0000
PAT0000375650825B-178377492015061020150723010000077497501123011704  7501123011704  00000050000002388701003                    000007749TRITICUM VULGARE, FENOXIETANOL,...                                                                  0000
PAT0000375900825B-178630372015061520150724010000030377501123013302  7501123013302  00000050000002443101003                    000003037VITAMINAS B1, B6, B12                                                                               0000
PAT0000376140825B-178238252015062520150727010000038257501123013302  7501123013302  00000010000002443101003                    000003825VITAMINAS B1, B6, B12                                                                               0000
PAT0000376880825B17953842 2015070120150811010000038427501123013302  7501123013302  00000020000002443101003                    000003842VITAMINAS B1, B6, B12                                                                               0000
PAT0000375660825B-178377502015061020150723010000077507501123013340  7501123013340  00000050000001360301003                    000007750VITAMINAS B1, B6, B12                                                                               0000
PAT0000376880825B17953842 2015070120150811010000038427501123013340  7501123013340  00000020000001360301003                    000003842VITAMINAS B1, B6, B12                                                                               0000
PAT0000375650825B-178377492015061020150723010000077497501123013807  7501123013807  00000050000001849001003                    000007749CIPROFLOXACINO,HIDROCORTISONA,LIDOCAINA                                                             0000
PAT0000352130107BTFA-000552015070720150708010000282107501123013814  7501123013814  00000020000004443201003                    000028210ALFA DIHIDROERGOCRIPTINA                                                                            0000
PAT00003767708252737      2015081420150817010000284567501124103118  7501124103118  00000050000001601401009                    000028456LACTOBACILOS ACIDOFILOS                                                                             0000
PAT0000375580825B17844229 2015061120150722010000042297501124760250  7501124760250  00000050000002115301009                    000004229TRAMADOL / PARACETAMOL                                                                              0000
PAT000035211116440171130882014101820150709010000000017501124810474  7501124810474  00000800000001594301003                    000000001DICLOFENACO, COLESTIRAMINA                                                                          0000
PAT0000375640825B-178377482015061020150723010000077487501124810900  7501124810900  00000050000000909101003                    000007748SENOSIDOS A, B                                                                                      0000
PAT0000375990825B-178728002015061620150724010000028007501124810917  7501124810917  00000010000000921801003                    000002800SENOSIDOS A, B                                                                                      0000
PAT00003767708252737      2015081420150817010000284567501124810993  7501124810993  00000050000000677501009                    000028456VITAMINAS A, D, E, OXIDO DE ZINC                                                                    0000
PAT0000376980825B18190284 2015081220150813010000002847501124813192  7501124813192  00000020000003467001003                    000000284VILDAGLIPTINA                                                                                       0000
PAT000035211116440171130882014101820150709010000000017501124814052  7501124814052  00007700000003436801003                    000000001VALSARTAN / HIDROCLOROTIAZIDA                                                                       0000
PAT000035212116440171526682014112720150709010000000017501124814052  7501124814052  00000760000003436801003                    000000001VALSARTAN / HIDROCLOROTIAZIDA                                                                       0000
PAT00003767508252349      2015081720150817010000284577501124814052  7501124814052  00000010000006762701009                    000028457VALSARTAN / HIDROCLOROTIAZIDA                                                                       0000
PAT0000379660825B18212349 2015092220150922010000284577501124814052  7501124814052  00000010000006762701000                    000028457VALSARTAN / HIDROCLOROTIAZIDA                                                                       0000
PAT000035211116440171130882014101820150709010000000017501124815790  7501124815790  00000620000005243001003                    000000001NA                                                                                                  0000
PAT0000377810825B18273813 2015083120150831010000285657501124815844  7501124815844  00000010000004734601000                    000028565NA                                                                                                  0000
PAT0000376980825B18190284 2015081220150813010000002847501124815899  7501124815899  00000010000010997101003                    000000284NA                                                                                                  0000
PAT0000377020825B18201440 2015081420150814010000284517501124815899  7501124815899  00000010000010997101003                    000028451NA                                                                                                  0000
PAT0000375700825B-178377542015061020150723010000077547501124850654  7501124850654  00000050000001188001003                    000007754CALCIO                                                                                              0000
PAT000035211116440171130882014101820150709010000000017501124853631  7501124853631  00000750000006580101003                    000000001BROMOCRIPTINA                                                                                       0000
PAT0000377200825B18231852 2015082120150821010000285137501125102790  7501125102790  00000500000001877901000                    000028513INSULINA HUMANA                                                                                     0000
PAT0000377210825B18231853 2015082120150821010000285147501125102790  7501125102790  00000500000001877901000                    000028514INSULINA HUMANA                                                                                     0000
PAT0000376500825B17953841 2015070120150807010000038417501125106224  7501125106224  00000050000001882801009                    000003841CEFTRIAXONA                                                                                         0000
PAT0000376500825B17953841 2015070120150807010000038417501125106231  7501125106231  00000100000003380701009                    000003841CEFTRIAXONA                                                                                         0000
PAT0000376950825B18188748 2015081220150812010000087487501125110719  7501125110719  00000060000000263601003                    000008748AGUA ESTERILIZADA                                                                                   0000
PAT0000375880825B-178630352015061520150724010000030357501125118333  7501125118333  00000050000002300401003                    000003035AMOXICILINA,AC. CLAVULANICO O CLAVULANAT                                                            0000
PAT0000376500825B17953841 2015070120150807010000038417501125118333  7501125118333  00000050000002300401009                    000003841AMOXICILINA,AC. CLAVULANICO O CLAVULANAT                                                            0000
PAT0000376070825B-178796532015061720150724010000096537501125118432  7501125118432  00000010000001997801003                    000009653ORLISTAT                                                                                            0000
PAT0000377800833AA39752   2015083120150831010000284957501125139239  7501125139239  00001000000000739405000                    000028495NA                                                                                                  0000
PAT0000376351178B-6926    2015071420150731010000281687501125194191  7501125194191  00000300000000108005003                    000028168EQUIPOS                                                                                             0000
PAT0000378191178B7433     2015090220150903010000284947501128106016  7501128106016  00000220000000027005000                    000028494                                                                                                    0000
PAT0000375700825B-178377542015061020150723010000077547501142911306  7501142911306  00000050000002233401003                    000007754SULFASALAZINA                                                                                       0000
PAT000035211116440171130882014101820150709010000000017501142915717  7501142915717  00001000000000901201003                    000000001GLIPICIDA                                                                                           0000
PAT000035211116440171130882014101820150709010000000017501159519021  7501159519021  00007000000001935701003                    000000001DIMETICONA, METOCLOPRAMIDA                                                                          0000
PAT0000375690825B-178377532015061020150723010000077537501159579858  7501159579858  00000050000002479601003                    000007753ACIDO NALIDIXICO, FENAZOPIRIDINA                                                                    0000
PAT0000375690825B-178377532015061020150723010000077537501165000179  7501165000179  00000050000002233901003                    000007753ESPIRONOLACTONA, FUROSEMIDA                                                                         0000
PAT0000376920825B17953846 2015070120150811010000038467501165000179  7501165000179  00000040000002233901003                    000003846ESPIRONOLACTONA, FUROSEMIDA                                                                         0000
PAT0000375690825B-178377532015061020150723010000077537501165000193  7501165000193  00000050000001085101003                    000007753FUROSEMIDA                                                                                          0000
PAT0000375850825B-178542262015061220150724010000042267501165000315  7501165000315  00000050000000750701003                    000004226METAMIZOL SODICO                                                                                    0000
PAT0000377580825B18257856 2015082520150825010000285557501165002937  7501165002937  00000010000009464001000                    000028555INSULINA GLARGINA                                                                                   0000
PAT000035211116440171130882014101820150709010000000017501165005518  7501165005518  00000010000062226001003                    000000001                                                                                                    0000
PAT0000377400825B18240191 2015082120150821010000285417501165005839  7501165005839  00000020000005532001000                    000028541GLIMEPIRIDA / METFORMINA                                                                            0000
PAT0000375690825B-178377532015061020150723010000077537501165006362  7501165006362  00000050000004196301003                    000007753KETOPROFENO                                                                                         0000
PAT0000376920825B17953846 2015070120150811010000038467501165007956  7501165007956  00000030000005463505003                    000003846COLAGENO HIDROLIZADO                                                                                0000
PAT0000376500825B17953841 2015070120150807010000038417501168810508  7501168810508  00000020000003143201009                    000003841ACIDO URSODESOXICOLICO                                                                              0000
PAT0000376510825B18153720 2015080520150807010000037207501168870403  7501168870403  00000040000001650201003                    000003720TROXERUTINA                                                                                         0000
PAT0000378150825B18297475 2015090220150902010000286207501168870403  7501168870403  00000040000001650201000                    000028620TROXERUTINA                                                                                         0000
PAT0000376510825B18153720 2015080520150807010000037207501168890166  7501168890166  00000010000002003801003                    000003720CIMICIFUGA RACEMOSA                                                                                 0000
PAT0000375690825B-178377532015061020150723010000077537501174600124  7501174600124  00000050000000423101003                    000007753VITAMINAS A, C, D                                                                                   0000
PAT0000375970825B-178693312015061620150724010000093317501174600827  7501174600827  00000010000001303501003                    000009331VITAMINAS B1, B6, B12                                                                               0000
PAT000037889999815160-A   2015090720150907010000285917501188850072  7501188850072  00003500000000565801000                    000028591FLOROGLUCINOL TRIMETILFLOROGLUCINOL                                                                 0000
PAT00003767408251438      2015081420150817010000284527501201400352  7501201400352  00000030000005329301009                    000028452BIMATOPROST                                                                                         0000
PAT0000376050825B-178764132015061720150724010000064137501201400482  7501201400482  00000010000004204901003                    000006413GATIFLOXACINA                                                                                       0000
PAT0000378340825B18327252 2015090720150907010000286917501201400581  7501201400581  00000010000005377001000                    000028691TARTRATO DE BRIMONIDINA, TIMOLOL                                                                    0000
PAT0000378130825B18297473 2015090220150902010000286207501201400659  7501201400659  00000080000003538005000                    000028620CARBOXIMETILCELULOSA SODICA                                                                         0000
PAT0000375700825B-178377542015061020150723010000077547501201400710  7501201400710  00000050000002700505003                    000007754GLICERINA CARBOXIMETILCELULOSA SODICA                                                               0000
PAT0000376170825B-178910232015061920150727010000010237501201448088  7501201448088  00000010000003135601003                    000001023OXIMETAZOLINA                                                                                       0000
PAT0000375700825B-178377542015061020150723010000077547501201490797  7501201490797  00000050000004054601003                    000007754CARBOXIMETILCELULOSA SODICA 0.5%                                                                    0000
PAT0000376050825B-178764132015061720150724010000064137501228300277  7501228300277  00000050000001694501003                    000006413VITAMINAS, MINERALES                                                                                0000
PAT0000376540825B18153723 2015080520150807010000037237501228300291  7501228300291  00000050000003321001009                    000003723MINOCICLINA                                                                                         0000
PAT0000378090825B18297469 2015090220150902010000286207501228300291  7501228300291  00000050000003321001000                    000028620MINOCICLINA                                                                                         0000
PAT0000377800833AA39752   2015083120150831010000284957501232007315  7501232007315  00000600000000029305000                    000028495SONDA                                                                                               0000
PAT0000375750825B17854081 2015061220150723010000040817501249601322  7501249601322  00000010000004266001009                    000004081CLOBENZOREX                                                                                         0000
PAT0000376100825B17854224 2015061220150724010000042247501250810195  7501250810195  00000050000004015601009                    000004224PREGABALINA                                                                                         0000
PAT0000376100825B17854224 2015061220150724010000042247501250810218  7501250810218  00000050000003928801009                    000004224PREGABALINA                                                                                         0000
PAT0000375640825B-178377482015061020150723010000077487501250810614  7501250810614  00000050000003437601003                    000007748INDOMETACINA, BETAMETASONA, METOCARBAMOL                                                            0000
PAT0000377550825B18257675 2015082520150825010000285557501250810621  7501250810621  00000010000006902301000                    000028555INDOMETACINA, BETAMETASONA, METOCARBAMOL                                                            0000
PAT0000375640825B-178377482015061020150723010000077487501250810645  7501250810645  00000050000002158201003                    000007748INDOMETACINA, BETAMETASONA                                                                          0000
PAT0000376500825B17953841 2015070120150807010000038417501250810645  7501250810645  00000020000002158201009                    000003841INDOMETACINA, BETAMETASONA                                                                          0000
PAT0000377900825B18290043 2015083120150831010000285837501250810645  7501250810645  00000020000002157201000                    000028583INDOMETACINA, BETAMETASONA                                                                          0000
PAT0000377340825B18240185 2015082120150821010000285277501250813295  7501250813295  00000020000007443201000                    000028527DIACEREINA / MELOXICAM                                                                              0000
PAT0000378050825B18297465 2015090220150902010000286197501250813295  7501250813295  00000010000007443201000                    000028619DIACEREINA / MELOXICAM                                                                              0000
PAT00003767008251434      2015081420150817010000284527501250813363  7501250813363  00000020000004262901009                    000028452DIACEREINA                                                                                          0000
PAT0000375640825B-178377482015061020150723010000077487501250813530  7501250813530  00000050000005672601003                    000007748DIACEREINA / MELOXICAM                                                                              0000
PAT0000375990825B-178728002015061620150724010000028007501250813530  7501250813530  00000020000005672601003                    000002800DIACEREINA / MELOXICAM                                                                              0000
PAT0000375640825B-178377482015061020150723010000077487501250813578  7501250813578  00000050000003354101003                    000007748MELOXICAM                                                                                           0000
PAT0000375640825B-178377482015061020150723010000077487501250813639  7501250813639  00000050000004169301003                    000007748MELOXICAM / METOCARBAMOL                                                                            0000
PAT0000377340825B18240185 2015082120150821010000285277501250813639  7501250813639  00000030000004168101000                    000028527MELOXICAM / METOCARBAMOL                                                                            0000
PAT0000375640825B-178377482015061020150723010000077487501250818689  7501250818689  00000050000002706001003                    000007748CALCIO, GLYCINE MAX, VITAMINA                                                                       0000
PAT0000378150825B18297475 2015090220150902010000286207501250818689  7501250818689  00000040000002704501000                    000028620CALCIO, GLYCINE MAX, VITAMINA                                                                       0000
PAT0000375640825B-178377482015061020150723010000077487501250822174  7501250822174  00000050000003768401003                    000007748MELOXICAM, PIRIDOXINA, TIAMINA, VIT B12                                                             0000
PAT0000375940825B-178693282015061620150724010000093287501250829852  7501250829852  00000040000003022701003                    000009328KETOROLACO, TROMETAMINA, TRAMADOL                                                                   0000
PAT0000376100825B17854224 2015061220150724010000042247501250829852  7501250829852  00000050000003022701009                    000004224KETOROLACO, TROMETAMINA, TRAMADOL                                                                   0000
PAT0000375640825B-178377482015061020150723010000077487501250838212  7501250838212  00000050000003006701003                    000007748BROMURO DE PINAVERIO, DIMETICONA                                                                    0000
PAT0000376510825B18153720 2015080520150807010000037207501250838212  7501250838212  00000100000003160401003                    000003720BROMURO DE PINAVERIO, DIMETICONA                                                                    0000
PAT0000377340825B18240185 2015082120150821010000285277501250838236  7501250838236  00000070000004002601000                    000028527GABAPENTINA, TRAMADOL                                                                               0000
PAT0000375640825B-178377482015061020150723010000077487501250838359  7501250838359  00000050000003000101003                    000007748DIACEREINA                                                                                          0000
PAT0000376500825B17953841 2015070120150807010000038417501250838632  7501250838632  00000030000004637001009                    000003841CONDROITINA / DIACEREINA                                                                            0000
PAT0000375640825B-178377482015061020150723010000077487501250838656  7501250838656  00000050000003775001003                    000007748MELOXICAM,PIRIDOXINA,TIAMINA,VITAMINA                                                               0000
PAT0000375640825B-178377482015061020150723010000077487501250838915  7501250838915  00000050000005706101003                    000007748GABAPENTINA, TRAMADOL                                                                               0000
PAT0000375640825B-178377482015061020150723010000077487501250838939  7501250838939  00000050000003494401003                    000007748CALCIO, DIOSMINA, HESPERIDINA                                                                       0000
PAT000037889999815160-A   2015090720150907010000285917501258203586  7501258203586  00004800000000147401000                    000028591CLONIXINATO DE LISINA 250 MG 10 TABS                                                                0000
PAT0000376930825B18187853 2015081220150812010000078537501258205818  7501258205818  00000010000009710501003                    000007853ISOTRETINOINA                                                                                       0000
PAT000037889999815160-A   2015090720150907010000285917501258207270  7501258207270  00000500000000165201000                    000028591BETAMETASONA, CLOTRIMAZOL,GENTAMICINA                                                               0000
PAT000037889999815160-A   2015090720150907010000285917501258208499  7501258208499  00000200000000269701000                    000028591                                                                                                    0000
PAT0000377900825B18290043 2015083120150831010000285837501273500530  7501273500530  00000010000001266705000                    000028583SODIO,LAURILSARCOSINATO SODIO,LACTAMIDA                                                             0000
PAT0000375700825B-178377542015061020150723010000077547501287621504  7501287621504  00000050000003625801003                    000007754ESPIRONOLACTONA                                                                                     0000
PAT0000375960825B-178693302015061620150724010000093307501287624512  7501287624512  00000030000008356201003                    000009330CELECOXIB                                                                                           0000
PAT0000375860825B-178542272015061220150724010000042277501287624529  7501287624529  00000050000010336201003                    000004227CELECOXIB                                                                                           0000
PAT0000376170825B-178910232015061920150727010000010237501287640895  7501287640895  00000010000010916001003                    000001023NA                                                                                                  0000
PAT0000375700825B-178377542015061020150723010000077547501287652713  7501287652713  00000050000005293501003                    000007754GABAPENTINA                                                                                         0000
