ESP0000392820260FGB022211 2016032320160323010000295282654           2654           00001910000001200001009                    000029528LEVODOPA Y CARBIDOPA TABLETA 250 MG/25 MG ENVASE CON 100 TABLETAS.                                  0000
ESP0000392850260FGB022250 2016032920160329010000298752654           2654           00000010000001200001009                    000029875LEVODOPA Y CARBIDOPA TABLETA 250 MG/25 MG ENVASE CON 100 TABLETAS.                                  0000
ESP00003928602463180110   201603292016032901000029764243            243            00000100000001371101009                    000029764ETOMIDATO SOLUCION INYECTABLE 20 MG / 10 ML ENVASE CON 5 AMPOLLETAS CON 10 ML.                      0000
ESP0000392950426B8676     2016040120160401010000299105432           5432           00000010000027500001009                    000029910FILGRASTIM SOLUCION INYECTABLE 300 ΜG ENVASE CON 5 FRASCOS AMPULA O JERINGAS.                      0000
ESP0000392950426B8676     2016040120160401010000299105453           5453           00000020000085000001009                    000029910PEMETREXED DISODICO HEPTAHIDRATADO SOLUCION INYECTABLE 500 MG ENVASE CON FRASCO AMPULA.             0000
ESP0000393210825B19597248 201604072016040701000029970SC/00132       SC/00132       00000020000010711501009                    000029970METILFENIDATO 54 MG  30 TABS                                                                        0000
ESP00003932202463193167   201604072016040701000029764202            202            00000100000001660001009                    000029764DIAZEPAM (GT20) SOLUCION INYECTABLE 10 MG / 2 ML ENVASE CON 50 AMPOLLETAS DE 2 ML.                  0000
ESP0000393231213A-498     2016040720160407010000299651761.01        1761.01        00000190000011000001009                    000029965MERCAPTOPURINA TABLETAS 50 MG 25 TABLETAS                                                           0000
ESP0000393231213A-498     2016040720160407010000299655318           5318           00000020000052000001009                    000029965VORICONAZOL TABLETA 200 MG ENVASE CON 14 TABLETAS.                                                  0000
ESP0000393231213A-498     2016040720160407010000299655418.01        5418.01        00000040000021000001009                    000029965EXEMESTANO GRAGEA 25 MG ENVASE CON 30 GRAGEAS.                                                      0000
ESP0000393301195BIO14319  2016040820160408010000299593848           3848           00000050000035000001009                    000029959FABOTERAPICO POLIVALENTE ANTIARACNIDO SOLUCION INYECTABLE CADA FRASCO AMPULA CON LIOFILIZADO CONTIEN0000
ESP0000393400862B4325     2016041120160411010000299663662           3662           00001250000006120001009                    000029966ALBUMINA HUMANA SOLUCION INYECTABLE CADA ENVASE CONTIENE: ALBUMINA HUMANA 12.5 G ENVASE CON 50 ML.  0000
ESP0000393400862B4325     2016041120160411010000299664552           4552           00000720000004950001009                    000029966ALBUMINA HUMANA SOLUCION INYECTABLE CADA ENVASE CONTIENE: ALBUMINA HUMANA 10 G ENVASE CON 50 ML.    0000
ESP0000393400862B4325     2016041120160411010000299665240           5240           00000100000077400001009                    000029966INMUNOGLOBULINA G NO MODIFICADA SOLUCION INYECTABLE 6 G ENVASE CON UN FRASCO AMPULA CON 120 ML.     0000
ESP0000393400862B4325     2016041120160411010000299665244           5244           00000400000064530001009                    000029966INMUNOGLOBULINA G NO MODIFICADA SOLUCION INYECTABLE 5 G ENVASE CON UN FRASCO AMPULA CON 100 ML.     0000
ESP0000393410488E45142    2016041120160411010000299522012           2012           00000200000001800001009                    000029952AMFOTERICINA B SOLUCION INYECTABLE 50 MG ENVASE CON UN FRASCO AMPULA.                               0000
ESP0000393410488E45142    2016041120160411010000299525291           5291           00002030000001400001009                    000029952MEROPENEM TRIHIDRATADO SOLUCION INYECTABLE 500 MG ENVASE CON 1 FRASCO AMPULA.                       0000
ESP0000393421213A-499     2016041120160411010000299925171           5171           00000020000136000001009                    000029992OCTREOTIDA, ACETATO DE (GT5) SUSPENSION INYECTABLE 20 MG ENVASE CON UN FRASCO AMPULA Y DOS AMPOLLETA0000
ESP0000393480182AB93655   2016041220160412010000299721760           1760           00000020000000517501009                    000029972METOTREXATO SODICO SOLUCION INYECTABLE 50 MG ENVASE CON UN FRASCO AMPULA.                           0000
ESP0000393480182AB93655   2016041220160412010000299723047           3047           00002630000000161001009                    000029972TAMOXIFENO, CITRATO DE TABLETA 20 MG ENVASE CON 14 TABLETAS.                                        0000
ESP0000393480182AB93655   2016041220160412010000299725449           5449           00002260000003345601009                    000029972ANASTROZOL TABLETA 1 MG ENVASE CON 28 TABLETAS.                                                     0000
ESP0000393491213A-504     2016041220160412010000300064431           4431           00000020000005760001009                    000030006CARBOPLATINO SOLUCION INYECTABLE 150 MG ENVASE CON UN FRASCO AMPULA.                                0000
ESP0000393491213A-504     2016041220160412010000300064442           4442           00000010000012000001009                    000030006APREPITANT CAPSULA 125 MG - 80 MG ENVASE CON UNA CAPSULA DE 125 MG Y 2 CAPSULAS DE 80 MG.           0000
ESP0000393491213A-504     2016041220160412010000300065428           5428           00000010000003500001009                    000030006ONDANSETRON, CLORHIDRATO DIHIDRATADO DE SOLUCION INYECTABLE 8 MG/4 ML ENVASE CON 3 AMPOLLETAS O FRAS0000
ESP0000393491213A-504     2016041220160412010000300065453           5453           00000020000110000001009                    000030006PEMETREXED DISODICO HEPTAHIDRATADO SOLUCION INYECTABLE 500 MG ENVASE CON FRASCO AMPULA.             0000
ESP0000393491213A-504     2016041220160412010000300065472           5472           00000020000052000001009                    000030006BEVACIZUMAB SOLUCION INYECTABLE 100 MG ENVASE CON FRASCO AMPULA CON 4 ML.                           0000
ESP0000393491213A-504     2016041220160412010000300065473           5473           00000010000186200001009                    000030006BEVACIZUMAB SOLUCION INYECTABLE 400 MG ENVASE CON FRASCO AMPULA CON 16 ML.                          0000
ESP0000393500260FGB022401 2016041220160412010000299292612           2612           00007000000000220001009                    000029929CLONAZEPAM TABLETA 2 MG ENVASE CON 30 TABLETAS.                                                     0000
ESP0000393500260FGB022401 2016041220160412010000299295351           5351           00001200000000680001009                    000029929METILFENIDATO, CLORHIDRATO DE COMPRIMIDO 10 MG ENVASE CON 30 COMPRIMIDOS.                           0000
ESP0000393500260FGB022401 2016041220160412010000299295478           5478           00000300000000900001009                    000029929LORAZEPAM TABLETA 1 MG ENVASE CON 40 TABLETAS.                                                      0000
ESP0000393510260FGB022402 2016041220160412010000299293251           3251           00001710000000140001009                    000029929HALOPERIDOL TABLETA 5 MG ENVASE CON 20 TABLETAS.                                                    0000
ESP0000393559998FAC36255  2016041320160413010000299875463           5463           00000050000029500001009                    000029987TEMOZOLOMIDA CAPSULA 100 MG ENVASE CON 5 CAPSULAS.                                                  0000
ESP0000393559998FAC36255  2016041320160413010000299875465           5465           00000030000009000001009                    000029987TEMOZOLOMIDA CAPSULA 20 MG ENVASE CON 5 CAPSULAS.                                                   0000
ESP0000393671213A-505     2016041420160414010000300074442           4442           00000090000012000001009                    000030007APREPITANT CAPSULA 125 MG - 80 MG ENVASE CON UNA CAPSULA DE 125 MG Y 2 CAPSULAS DE 80 MG.           0000
ESP0000393671213A-505     2016041420160414010000300075482           5482           00000060000161000001009                    000030007SUNITINIB, MALATO DE CAPSULA 12.5 MG ENVASE CON 28 CAPSULAS.                                        0000
ESP0000393681224B-691     2016041420160414010000300444582           4582           00000040000005800001009                    000030044OSELTAMIVIR CAPSULA 75 MG ENVASE CON 10 CAPSULAS.                                                   0000
ESP0000393691224B-690     2016041420160414010000300245461           5461           00000120000052000001009                    000030024CAPECITABINA TABLETA 500 MG ENVASE CON 120 TABLETAS                                                 0000
ESP0000393700260FGB022439 2016041420160414010000299972654           2654           00000250000001200001009                    000029997LEVODOPA Y CARBIDOPA TABLETA 250 MG/25 MG ENVASE CON 100 TABLETAS.                                  0000
ESP0000393720260FGB022453 201604142016041501000029997132.01         132.01         00000900000000320001009                    000029997NALBUFINA, CLORHIDRATO DE SOLUCION INYECTABLE CADA AMPOLLETA CONTIENE: CLORHIDRATO DE NALBUFINA 10 M0000
ESP0000393720260FGB022453 2016041420160415010000299972499           2499           00000200000001800001009                    000029997ALPRAZOLAM TABLETA 2 MG ENVASE CON 30 TABLETAS.                                                     0000
ESP0000393720260FGB022453 2016041420160415010000299972500           2500           00000500000001000001009                    000029997ALPRAZOLAM TABLETA 0.25 MG ENVASE CON 30 TABLETAS.                                                  0000
ESP0000393720260FGB022453 2016041420160415010000299972612           2612           00002000000000220001009                    000029997CLONAZEPAM TABLETA 2 MG ENVASE CON 30 TABLETAS.                                                     0000
ESP0000393720260FGB022453 2016041420160415010000299973215           3215           00001000000000180001009                    000029997DIAZEPAM (GT14) TABLETA 10 MG ENVASE CON 20 TABLETAS.                                               0000
ESP0000393720260FGB022453 2016041420160415010000299973305           3305           00003000000000300001009                    000029997AMITRIPTILINA, CLORHIDRATO DE TABLETA 25 MG ENVASE CON 20 TABLETAS.                                 0000
ESP0000393730182AB93743   2016041520160415010000300323047           3047           00001400000000199001009                    000030032TAMOXIFENO, CITRATO DE TABLETA 20 MG ENVASE CON 14 TABLETAS.                                        0000
ESP0000393749998FAC-36354 2016041520160415010000300435449           5449           00001000000003000001009                    000030043ANASTROZOL TABLETA 1 MG ENVASE CON 28 TABLETAS.                                                     0000
ESP0000393749998FAC-36354 2016041520160415010000300435463           5463           00000040000029500001009                    000030043TEMOZOLOMIDA CAPSULA 100 MG ENVASE CON 5 CAPSULAS.                                                  0000
ESP0000393749998FAC-36354 2016041520160415010000300435465           5465           00000020000009000001009                    000030043TEMOZOLOMIDA CAPSULA 20 MG ENVASE CON 5 CAPSULAS.                                                   0000
ESP0000393749998FAC-36354 201604152016041501000030043ESP0006        ESP0006        00000120000025709901009                    000030043BICALUTAMIDA TABLETAS 150 MG 28 TABLETAS                                                            0000
ESP0000393751224B-694     2016041520160415010000300444582           4582           00000010000005800001009                    000030044OSELTAMIVIR CAPSULA 75 MG ENVASE CON 10 CAPSULAS.                                                   0000
ESP0000393761224B-695     20160415201604150100003001940             40             00000140000004900001009                    000030019PIRACETAM TABLETAS 800 MG 30 TABLETAS                                                               0000
ESP0000393790709SAP5566   2016041520160415010000299474185           4185           00000030000001800001009                    000029947ACIDO URSODEOXICOLICO CAPSULA 250 MG ENVASE CON 50 CAPSULAS.                                        0000
ESP0000393790709SAP5566   2016041520160415010000299475291           5291           00002030000001700001009                    000029947MEROPENEM TRIHIDRATADO SOLUCION INYECTABLE 500 MG ENVASE CON 1 FRASCO AMPULA.                       0000
ESP0000393800841FA93      2016041520160415010000300824057           4057           00003000000000672001009                    000030082MIDAZOLAM, CLORHIDRATO DE SOLUCION INYECTABLE 15 MG / 3 ML ENVASE CON 5 AMPOLLETAS CON 3 ML.        0000
ESP00003938102463203083   2016041520160415010000299211544           1544           00000380000004552601009                    000029921ERGOMETRINA, MALEATO DE SOLUCION INYECTABLE 0.2 MG/ML ENVASE CON 50 AMPOLLETAS DE 1 ML.             0000
ESP00003938202463202940   2016041520160415010000299212108           2108           00004020000000331801009                    000029921MIDAZOLAM, CLORHIDRATO DE SOLUCION INYECTABLE 5 MG / 5 ML ENVASE CON 5 AMPOLLETAS CON 5 ML.         0000
ESP00003938302463202939   2016041820160418010000299204060           4060           00006850000012000001009                    000029920MIDAZOLAM, CLORHIDRATO DE SOLUCION INYECTABLE 50 MG / 10 ML ENVASE CON 5 AMPOLLETAS CON 10 ML.      0000
ESP0000393841213A-507     2016041820160418010000300855432           5432           00000010000025000001009                    000030085FILGRASTIM SOLUCION INYECTABLE 300 ΜG ENVASE CON 5 FRASCOS AMPULA O JERINGAS.                      0000
ESP0000393850426GO100     2016041820160418010000300085440.01        5440.01        00000150000005450001009                    000030008BICALUTAMIDA TABLETA 50 MG ENVASE CON 28 TABLETAS.                                                  0000
ESP0000393850426GO100     2016041820160418010000300085541           5541           00000500000008600001009                    000030008LETROZOL GRAGEA O TABLETA 2.5 MG ENVASE CON 30 GRAGEAS O TABLETAS.                                  0000
ESP0000393860426GO99      2016041820160418010000299405461           5461           00000270000100000001009                    000029940CAPECITABINA TABLETA 500 MG ENVASE CON 120 TABLETAS                                                 0000
ESP00003940602463205434   2016041920160419010000299954060           4060           00003000000012000001009                    000029995MIDAZOLAM, CLORHIDRATO DE SOLUCION INYECTABLE 50 MG / 10 ML ENVASE CON 5 AMPOLLETAS CON 10 ML.      0000
ESP00003940602463205434   2016041920160419010000299955478           5478           00000100000000787501009                    000029995LORAZEPAM TABLETA 1 MG ENVASE CON 40 TABLETAS.                                                      0000
ESP0000394071224B-698     2016041920160419010000300175418.01        5418.01        00000530000019000001009                    000030017EXEMESTANO GRAGEA 25 MG ENVASE CON 30 GRAGEAS.                                                      0000
ESP0000394080862B4359     2016041920160419010000300584552           4552           00000200000004950001009                    000030058ALBUMINA HUMANA SOLUCION INYECTABLE CADA ENVASE CONTIENE: ALBUMINA HUMANA 10 G ENVASE CON 50 ML.    0000
ESP0000394091213A-508     2016041920160419010000300884301           4301           00000130000012000001009                    000030088ERTAPENEM SODICO SOLUCION INYECTABLE 1 G ENVASE CON UN FRASCO AMPULA CON LIOFILIZADO.               0000
ESP0000394091213A-508     2016041920160419010000300885313           5313           00000120000030000001009                    000030088CASPOFUNGINA, ACETATO DE SOLUCION INYECTABLE 50 MG (5 MG / ML) ENVASE CON FRASCO AMPULA CON POLVO PA0000
ESP0000394091213A-508     2016041920160419010000300885436           5436           00000010000090000001009                    000030088TRETINOINA CAPSULA 10 MG ENVASE CON 100 CAPSULAS.                                                   0000
ESP0000394109998A34581    2016041920160419010000300865330           5330           00000030000046063001009                    000030086ALFA-DORNASA SOLUCION PARA INHALACION 2.5 MG ENVASE CON 6 AMPOLLETAS DE 2.5 ML                      0000
ESP00003941902463209609   2016042120160421010000300094225           4225           00000040000120446001008                    000030009IMATINIB, MESILATO DE COMPRIMIDO RECUBIERTO 100 MG ENVASE CON 60 COMPRIMIDOS.                       0000
ESP00003942002463205971   2016042120160421010000299951544           1544           00000060000004552601008                    000029995ERGOMETRINA, MALEATO DE SOLUCION INYECTABLE 0.2 MG/ML ENVASE CON 50 AMPOLLETAS DE 1 ML.             0000
ESP00003942102463209612   2016042120160421010000299511752           1752           00000010000000990001008                    000029951CICLOFOSFAMIDA MONOHIDRATADA SOLUCION INYECTABLE 200 MG ENVASE CON 5 FRASCOS AMPULA.                0000
ESP00003942102463209612   2016042120160421010000299511753           1753           00000040000001212901008                    000029951CICLOFOSFAMIDA MONOHIDRATADA SOLUCION INYECTABLE 500 MG ENVASE CON 2 FRASCOS AMPULA.                0000
ESP00003942102463209612   2016042120160421010000299515333           5333           00001130000003402001008                    000029951ERITROPOYETINA HUMANA RECOMBINANTE ALFA SOLUCION INYECTABLE 4000 UI ENVASE CON 6 FRASCOS AMPULA CON 0000
ESP00003942202463209607   2016042120160421010000299512195           2195           00002050000000264501008                    000029951ONDANSETRON, CLORHIDRATO DIHIDRATADO DE TABLETA 8 MG ENVASE CON 10 TABLETAS.                        0000
ESP00003942202463209607   2016042120160421010000299515428           5428           00004730000000453401008                    000029951ONDANSETRON, CLORHIDRATO DIHIDRATADO DE SOLUCION INYECTABLE 8 MG/4 ML ENVASE CON 3 AMPOLLETAS O FRAS0000
ESP0000394230260FGB022476 2016042120160421010000299972613           2613           00004000000000250001008                    000029997CLONAZEPAM SOLUCION 2.5 MG/ML ENVASE CON 10 ML Y GOTERO INTEGRAL.                                   0000
ESP0000394240260FGB022477 2016042120160421010000299292613           2613           00000500000000250001008                    000029929CLONAZEPAM SOLUCION 2.5 MG/ML ENVASE CON 10 ML Y GOTERO INTEGRAL.                                   0000
ESP0000394250058FA220038272016042120160421010000300145424           5424           00000050000018720201008                    000030014NILUTAMIDA COMPRIMIDO 150 MG ENVASE CON 30 COMPRIMIDOS.                                             0000
ESP0000394260058FA220038272016042120160421010000300564158           4158           00002200000003400001008                    000030056INSULINA GLARGINA SOLUCION INYECTABLE 100.0 UI (3.64 MG / ML) ENVASE CON UN FRASCO AMPULA CON 10 ML.0000
ESP0000394339998B1452     2016042220160422010000299684352           4352           00000040000062100001009                    000029968TOXINA BOTULINICA TIPO A SOLUCION INYECTABLE 12.5 NG (500 U) ENVASE CON UN FRASCO AMPULA.           0000
ESP0000394339998B1452     2016042220160422010000299684445           4445           00000220000015444401009                    000029968VINORELBINA, BITARTRATO DE CAPSULA 20 MG ENVASE CON 1 CAPSULA.                                      0000
ESP0000394339998B1452     2016042220160422010000299684446           4446           00000230000026250001009                    000029968VINORELBINA, BITARTRATO DE CAPSULA 30 MG ENVASE CON 1 CAPSULA.                                      0000
ESP0000394339998B1452     2016042220160422010000299685171           5171           00000030000197781601009                    000029968OCTREOTIDA, ACETATO DE (GT5) SUSPENSION INYECTABLE 20 MG ENVASE CON UN FRASCO AMPULA Y DOS AMPOLLETA0000
ESP0000394339998B1452     2016042220160422010000299685421           5421           00000010000208506601009                    000029968LAPATINIB, DITOSILATO DE TABLETA 250 MG ENVASE CON 70 TABLETAS.                                     0000
ESP000039434019037807     2016042220160422010000299414174           4174           00000060000043198201009                    000029941TERIPARATIDA SOLUCION INYECTABLE 250 ΜG/ML ENVASE CON PLUMA CON CARTUCHO ENSAMBLADO DE 2.4 ML.     0000
ESP000039436019037796     2016042220160422010000299414163           4163           00000950000002839101009                    000029941RALOXIFENO, CLORHIDRATO DE TABLETA 60 MG ENVASE CON 14 TABLETAS.                                    0000
ESP000039437019037798     2016042220160422010000300544163           4163           00001000000002839101009                    000030054RALOXIFENO, CLORHIDRATO DE TABLETA 60 MG ENVASE CON 14 TABLETAS.                                    0000
ESP0000394380260FGB022492 2016042220160422010000299573253           3253           00000500000000600001009                    000029957HALOPERIDOL SOLUCION INYECTABLE 5 MG/ML ENVASE CON 6 AMPOLLETAS (5 MG/ML).                          0000
ESP0000394409998B1470     2016042220160422010000300795421           5421           00000050000208506601009                    000030079LAPATINIB, DITOSILATO DE TABLETA 250 MG ENVASE CON 70 TABLETAS.                                     0000
ESP0000394439998B1487     2016042220160422010000300103050           3050           00000010000071250001009                    000030010BCG INMUNOTERAPEUTICO (BACILO DE CALMETTE-GUERIN) SUSPENSION 81.00 MG ENVASE CON UN FRASCO AMPULA CO0000
ESP0000394460260FGB022491 201604222016042201000029957132.01         132.01         00005000000000320001009                    000029957NALBUFINA, CLORHIDRATO DE SOLUCION INYECTABLE CADA AMPOLLETA CONTIENE: CLORHIDRATO DE NALBUFINA 10 M0000
ESP0000394460260FGB022491 2016042220160422010000299572612           2612           00001050000000220001009                    000029957CLONAZEPAM TABLETA 2 MG ENVASE CON 30 TABLETAS.                                                     0000
ESP0000394460260FGB022491 2016042220160422010000299572613           2613           00000550000000250001009                    000029957CLONAZEPAM SOLUCION 2.5 MG/ML ENVASE CON 10 ML Y GOTERO INTEGRAL.                                   0000
ESP0000394460260FGB022491 2016042220160422010000299573215           3215           00000550000000180001009                    000029957DIAZEPAM (GT14) TABLETA 10 MG ENVASE CON 20 TABLETAS.                                               0000
ESP0000394460260FGB022491 2016042220160422010000299573241           3241           00000500000000380001009                    000029957TRIFLUOPERAZINA, CLORHIDRATO DE GRAGEA O TABLETA 5 MG ENVASE CON 20 GRAGEAS O TABLETAS.             0000
ESP0000394460260FGB022491 2016042220160422010000299575351           5351           00001000000001000001009                    000029957METILFENIDATO, CLORHIDRATO DE COMPRIMIDO 10 MG ENVASE CON 30 COMPRIMIDOS.                           0000
ESP0000394581213A-516     2016042520160425010000301994225           4225           00000080000085000001009                    000030199IMATINIB, MESILATO DE COMPRIMIDO RECUBIERTO 100 MG ENVASE CON 60 COMPRIMIDOS.                       0000
ESP0000394581213A-516     2016042520160425010000301994227.01        4227.01        00000010000268510001009                    000030199IMATINIB COMPRIMIDOS RECUBIERTOS 400 MG 10 COMPRIMIDOS RECUBIERTOS                                  0000
ESP0000394581213A-516     2016042520160425010000301995461           5461           00000050000080000001009                    000030199CAPECITABINA TABLETA 500 MG ENVASE CON 120 TABLETAS                                                 0000
ESP0000394581213A-516     2016042520160425010000301995482           5482           00000120000161000001009                    000030199SUNITINIB, MALATO DE CAPSULA 12.5 MG ENVASE CON 28 CAPSULAS.                                        0000
ESP0000394590709SAP5644   2016042520160425010000301515292           5292           00010000000001850001009                    000030151MEROPENEM TRIHIDRATADO SOLUCION INYECTABLE 1 G ENVASE CON 1 FRASCO AMPULA.                          0000
ESP0000394600488E45455    2016042520160425010000301274057           4057           00005000000000490001009                    000030127MIDAZOLAM, CLORHIDRATO DE SOLUCION INYECTABLE 15 MG / 3 ML ENVASE CON 5 AMPOLLETAS CON 3 ML.        0000
ESP0000394610488E45454    2016042520160425010000299964057           4057           00003000000000490001009                    000029996MIDAZOLAM, CLORHIDRATO DE SOLUCION INYECTABLE 15 MG / 3 ML ENVASE CON 5 AMPOLLETAS CON 3 ML.        0000
ESP0000394620488E45417    2016042520160425010000299154057           4057           00005970000000490001009                    000029915MIDAZOLAM, CLORHIDRATO DE SOLUCION INYECTABLE 15 MG / 3 ML ENVASE CON 5 AMPOLLETAS CON 3 ML.        0000
ESP0000394630488E45416    2016042520160425010000299564057           4057           00003000000000490001009                    000029956MIDAZOLAM, CLORHIDRATO DE SOLUCION INYECTABLE 15 MG / 3 ML ENVASE CON 5 AMPOLLETAS CON 3 ML.        0000
ESP000039474066700246148  2016042620160426010000300775418.01        5418.01        00000310000020380201009                    000030077EXEMESTANO GRAGEA 25 MG ENVASE CON 30 GRAGEAS.                                                      0000
ESP0000394760426GO106     2016042620160426010000301985418.01        5418.01        00001000000014500001009                    000030198EXEMESTANO GRAGEA 25 MG ENVASE CON 30 GRAGEAS.                                                      0000
ESP0000394760426GO106     2016042620160426010000301985461           5461           00000250000050000001009                    000030198CAPECITABINA TABLETA 500 MG ENVASE CON 120 TABLETAS                                                 0000
ESP0000394760426GO106     2016042620160426010000301985541           5541           00001000000008600001009                    000030198LETROZOL GRAGEA O TABLETA 2.5 MG ENVASE CON 30 GRAGEAS O TABLETAS.                                  0000
ESP0000394949998FAC36671  2016042720160427010000301973047           3047           00000170000000170001009                    000030197TAMOXIFENO, CITRATO DE TABLETA 20 MG ENVASE CON 14 TABLETAS.                                        0000
ESP0000394949998FAC36671  2016042720160427010000301975440.01        5440.01        00000300000002750001009                    000030197BICALUTAMIDA TABLETA 50 MG ENVASE CON 28 TABLETAS.                                                  0000
ESP0000395001213A-519     2016042720160427010000300885335.01        5335.01        00000030000046000001009                    000030088FOSFOLIPIDOS DE PULMON PORCINO SUSPENSION 80 MG ENVASE CON 3 ML.                                    0000
ESP0000395011213A-518     2016042720160427010000301524446           4446           00000230000019300001009                    000030152VINORELBINA, BITARTRATO DE CAPSULA 30 MG ENVASE CON 1 CAPSULA.                                      0000
ESP0000395029998A35084    2016042720160427010000302654442           4442           00000380000017322701009                    000030265APREPITANT CAPSULA 125 MG - 80 MG ENVASE CON UNA CAPSULA DE 125 MG Y 2 CAPSULAS DE 80 MG.           0000
ESP0000395029998A35084    2016042720160427010000302655421           5421           00000010000148763601009                    000030265LAPATINIB, DITOSILATO DE TABLETA 250 MG ENVASE CON 70 TABLETAS.                                     0000
ESP0000395029998A35084    2016042720160427010000302655657           5657           00000030000515841201009                    000030265ABIRATERONA ACETATO DE TABLETA 250 MG ENVASE CON 120 TABLETAS                                       0000
ESP000039503122390012112  2016042720160427010000302181759           1759           00001520000000508901009                    000030218METOTREXATO SODICO TABLETA 2.5 MG ENVASE CON 50 TABLETAS.                                           0000
ESP0000395069998B1488     2016042720160427010000300105474           5474           00000030000419990001009                    000030010ERLOTINIB, CLORHIDRATO DE COMPRIMIDO 150 MG ENVASE CON 30 COMPRIMIDOS.                              0000
ESP0000395149998FAC-36734 2016042820160428010000302244302           4302           00001440000002500001009                    000030224FINASTERIDA GRAGEA O TABLETA RECUBIERTA 5 MG ENVASE CON 30 GRAGEAS O TABLETAS RECUBIERTAS.          0000
ESP0000395170260FGB022556 2016042820160428010000301183253           3253           00000400000000600001009                    000030118HALOPERIDOL SOLUCION INYECTABLE 5 MG/ML ENVASE CON 6 AMPOLLETAS (5 MG/ML).                          0000
ESP0000395170260FGB022556 2016042820160428010000301184477           4477           00000100000000600001009                    000030118HALOPERIDOL SOLUCION ORAL 2 MG/ML ENVASE CON GOTERO INTEGRAL CON 15 ML.                             0000
ESP0000395220260FGB022555 2016042820160428010000301182499           2499           00000250000001800001009                    000030118ALPRAZOLAM TABLETA 2 MG ENVASE CON 30 TABLETAS.                                                     0000
ESP0000395220260FGB022555 2016042820160428010000301182612           2612           00001000000000220001009                    000030118CLONAZEPAM TABLETA 2 MG ENVASE CON 30 TABLETAS.                                                     0000
ESP0000395220260FGB022555 2016042820160428010000301183241           3241           00000500000000380001009                    000030118TRIFLUOPERAZINA, CLORHIDRATO DE GRAGEA O TABLETA 5 MG ENVASE CON 20 GRAGEAS O TABLETAS.             0000
ESP0000395220260FGB022555 2016042820160428010000301183245           3245           00000100000000750001009                    000030118PERFENAZINA TABLETAS 4 MG 30 TABLETAS                                                               0000
ESP0000395240260FGB022536 201604282016042801000030132132.01         132.01         00001500000000320001009                    000030132NALBUFINA, CLORHIDRATO DE SOLUCION INYECTABLE CADA AMPOLLETA CONTIENE: CLORHIDRATO DE NALBUFINA 10 M0000
ESP0000395240260FGB022536 2016042820160428010000301324026           4026           00001500000000650001009                    000030132BUPRENORFINA, CLORHIDRATO DE SOLUCION INYECTABLE 0.3 MG / ML ENVASE CON 6 AMPOLLETAS O FRASCOS AMPUL0000
ESP0000395251213A-520     2016042820160428010000303112154           2154           00000960000001430001009                    000030311ENOXAPARINA SODICA SOLUCION INYECTABLE 40 MG/0.4 ML ENVASE CON 2 JERINGAS DE 0.4 ML.                0000
ESP0000395251213A-520     2016042820160428010000303114298           4298           00000130000032000001009                    000030311CICLOSPORINA MODIFICADA O CICLOSPORINA EN MICROEMULSION CAPSULA DE GELATINA BLANDA 100 MG ENVASE CON0000
ESP0000395251213A-520     2016042820160428010000303115428           5428           00001920000000650001009                    000030311ONDANSETRON, CLORHIDRATO DIHIDRATADO DE SOLUCION INYECTABLE 8 MG/4 ML ENVASE CON 3 AMPOLLETAS O FRAS0000
ESP00003952610508675      2016042820160428010000302664227           4227           00000120000355000001009                    000030266IMATINIB, MESILATO DE COMPRIMIDO 400 MG ENVASE CON 30 COMPRIMIDOS.                                  0000
ESP00003952610508675      2016042820160428010000302665440.01        5440.01        00000200000010000001009                    000030266BICALUTAMIDA TABLETA 50 MG ENVASE CON 28 TABLETAS.                                                  0000
ESP00003952610508675      2016042820160428010000302665880           5880           00000120000153000001009                    000030266FULVESTRANT SOLUCION INYECTABLE 250 MG ENVASE CON 2 JERINGAS PRELLENADAS, CON 5 ML CADA UNA.        0000
ESP0000395271224B-722     20160428201604280100003001940             40             00000140000004900001009                    000030019PIRACETAM TABLETAS 800 MG 30 TABLETAS                                                               0000
ESP00003953911237426      2016042920160429010000302795751           5751           00000100000028000001009                    000030279SOMATROPINA SOLUCION INYECTABLE 6.70 MG ENVASE CON UNA PLUMA PRELLENADA CON 1.5 ML (10 MG/1.5 ML).  0000
ESP0000395401213A-523     2016042920160429010000303354158           4158           00001000000002900001009                    000030335INSULINA GLARGINA SOLUCION INYECTABLE 100.0 UI (3.64 MG / ML) ENVASE CON UN FRASCO AMPULA CON 10 ML.0000
ESP0000395521213A-526     2016042920160429010000303415421           5421           00000010000153000001009                    000030341LAPATINIB, DITOSILATO DE TABLETA 250 MG ENVASE CON 70 TABLETAS.                                     0000
ESP00003957002463221789   2016050220160502010000303184060           4060           00005500000012000001009                    000030318MIDAZOLAM, CLORHIDRATO DE SOLUCION INYECTABLE 50 MG / 10 ML ENVASE CON 5 AMPOLLETAS CON 10 ML.      0000
ESP0000395711224B-734     2016050220160502010000303442195           2195           00000240000000282001009                    000030344ONDANSETRON, CLORHIDRATO DIHIDRATADO DE TABLETA 8 MG ENVASE CON 10 TABLETAS.                        0000
ESP0000395820709SAP5719   2016050320160503010000303395291           5291           00003000000001700001009                    000030339MEROPENEM TRIHIDRATADO SOLUCION INYECTABLE 500 MG ENVASE CON 1 FRASCO AMPULA.                       0000
ESP0000395820709SAP5719   2016050320160503010000303395292           5292           00015440000001900001009                    000030339MEROPENEM TRIHIDRATADO SOLUCION INYECTABLE 1 G ENVASE CON 1 FRASCO AMPULA.                          0000
ESP00003959002463223460   2016050320160503010000303172108           2108           00002680000000331801009                    000030317MIDAZOLAM, CLORHIDRATO DE SOLUCION INYECTABLE 5 MG / 5 ML ENVASE CON 5 AMPOLLETAS CON 5 ML.         0000
ESP00003959102463221787   2016050320160503010000303171544           1544           00000100000004552601009                    000030317ERGOMETRINA, MALEATO DE SOLUCION INYECTABLE 0.2 MG/ML ENVASE CON 50 AMPOLLETAS DE 1 ML.             0000
ESP000039598025741000922062016050420160504010000302233251           3251           00000080000000180001009                    000030223HALOPERIDOL TABLETA 5 MG ENVASE CON 20 TABLETAS.                                                    0000
ESP0000395990260FGI000559 2016050420160504010000303145351           5351           00000540000000680001009                    000030314METILFENIDATO, CLORHIDRATO DE COMPRIMIDO 10 MG ENVASE CON 30 COMPRIMIDOS.                           0000
ESP0000396000260FGB022641 2016050420160504010000303383258           3258           00001040000000250001009                    000030338RISPERIDONA TABLETA 2 MG ENVASE CON 40 TABLETAS.                                                    0000
ESP00003960102463222010   201605042016050401000030317226            226            00000790000000233601009                    000030317KETAMINA, CLORHIDRATO DE SOLUCION INYECTABLE 500 MG / 10 ML ENVASE CON UN FRASCO AMPULA DE 10 ML.   0000
ESP0000396120260FGB022652 2016050520160505010000303203253           3253           00000310000000600001009                    000030320HALOPERIDOL SOLUCION INYECTABLE 5 MG/ML ENVASE CON 6 AMPOLLETAS (5 MG/ML).                          0000
ESP0000396130260FGB022653 2016050520160505010000303202500           2500           00000850000001000001009                    000030320ALPRAZOLAM TABLETA 0.25 MG ENVASE CON 30 TABLETAS.                                                  0000
ESP0000396130260FGB022653 2016050520160505010000303202612           2612           00007000000000220001009                    000030320CLONAZEPAM TABLETA 2 MG ENVASE CON 30 TABLETAS.                                                     0000
ESP0000396130260FGB022653 2016050520160505010000303203259           3259           00000350000009650001009                    000030320CLOZAPINA COMPRIMIDO 100 MG ENVASE CON 30 COMPRIMIDOS.                                              0000
ESP000039621067040341429982016050620160506010000303453258           3258           00001040000000296301009                    000030345RISPERIDONA TABLETA 2 MG ENVASE CON 40 TABLETAS.                                                    0000
ESP0000396240825B19782075 201605112016051101000030456SC/00132       SC/00132       00000020000010171501009                    000030456METILFENIDATO 54 MG  30 TABS                                                                        0000
ESP0000396291213A-535     2016051220160512010000303585432           5432           00000010000025000001009                    000030358FILGRASTIM SOLUCION INYECTABLE 300 ΜG ENVASE CON 5 FRASCOS AMPULA O JERINGAS.                      0000
ESP0000396291213A-535     2016051220160512010000303585472           5472           00000020000052000001009                    000030358BEVACIZUMAB SOLUCION INYECTABLE 100 MG ENVASE CON FRASCO AMPULA CON 4 ML.                           0000
ESP0000396291213A-535     2016051220160512010000303585473           5473           00000010000186200001009                    000030358BEVACIZUMAB SOLUCION INYECTABLE 400 MG ENVASE CON FRASCO AMPULA CON 16 ML.                          0000
ESP0000396331213A-537     2016051220160512010000304665453           5453           00000020000110000001009                    000030466PEMETREXED DISODICO HEPTAHIDRATADO SOLUCION INYECTABLE 500 MG ENVASE CON FRASCO AMPULA.             0000
ESP00003963402463231933   2016051220160512010000299552108           2108           00006000000000331801009                    000029955MIDAZOLAM, CLORHIDRATO DE SOLUCION INYECTABLE 5 MG / 5 ML ENVASE CON 5 AMPOLLETAS CON 5 ML.         0000
ESP00003963402463231933   2016051220160512010000299554060           4060           00000500000012000001009                    000029955MIDAZOLAM, CLORHIDRATO DE SOLUCION INYECTABLE 50 MG / 10 ML ENVASE CON 5 AMPOLLETAS CON 10 ML.      0000
ESP00003963502463231931   2016051220160512010000301292108           2108           00005000000000331801009                    000030129MIDAZOLAM, CLORHIDRATO DE SOLUCION INYECTABLE 5 MG / 5 ML ENVASE CON 5 AMPOLLETAS CON 5 ML.         0000
ESP00003963502463231931   2016051220160512010000301294060           4060           00002000000012000001009                    000030129MIDAZOLAM, CLORHIDRATO DE SOLUCION INYECTABLE 50 MG / 10 ML ENVASE CON 5 AMPOLLETAS CON 10 ML.      0000
ESP0000396670260FGI000638 2016051620160516010000303855351           5351           00000760000000680001009                    000030385METILFENIDATO, CLORHIDRATO DE COMPRIMIDO 10 MG ENVASE CON 30 COMPRIMIDOS.                           0000
ESP000039668040309700489852016051620160516010000304504026           4026           00003110000000550001009                    000030450BUPRENORFINA, CLORHIDRATO DE SOLUCION INYECTABLE 0.3 MG / ML ENVASE CON 6 AMPOLLETAS O FRASCOS AMPUL0000
ESP0000396721213A-538     2016051620160516010000304624385           4385           00000020000036211501009                    000030462ENTECAVIR TABLETA 0.50 MG ENVASE CON 30 TABLETAS.                                                   0000
ESP000039673040309700490472016051620160516010000304505428           5428           00021420000000420601009                    000030450ONDANSETRON, CLORHIDRATO DIHIDRATADO DE SOLUCION INYECTABLE 8 MG/4 ML ENVASE CON 3 AMPOLLETAS O FRAS0000
ESP000039674067040341434932016051620160516010000304454507           4507           00000300000000865901009                    000030445DEFLAZACORT TABLETA 30 MG ENVASE CON 10 TABLETAS.                                                   0000
ESP000039675067040341434942016051620160516010000304455333           5333           00007880000003265901009                    000030445ERITROPOYETINA HUMANA RECOMBINANTE ALFA SOLUCION INYECTABLE 4000 UI ENVASE CON 6 FRASCOS AMPULA CON 0000
ESP0000396780260FGB022744 2016051620160516010000304392500           2500           00001880000001000001009                    000030439ALPRAZOLAM TABLETA 0.25 MG ENVASE CON 30 TABLETAS.                                                  0000
ESP0000396780260FGB022744 2016051620160516010000304392612           2612           00016200000000220001009                    000030439CLONAZEPAM TABLETA 2 MG ENVASE CON 30 TABLETAS.                                                     0000
ESP0000396780260FGB022744 2016051620160516010000304393255           3255           00000080000000800001009                    000030439LITIO, CARBONATO DE TABLETA 300 MG ENVASE CON 50 TABLETAS.                                          0000
ESP0000396780260FGB022744 2016051620160516010000304393305           3305           00004150000000300001009                    000030439AMITRIPTILINA, CLORHIDRATO DE TABLETA 25 MG ENVASE CON 20 TABLETAS.                                 0000
ESP0000396880822C-500001362016051720160517010000304494164           4164           00003560000000365001009                    000030449ACIDO ALENDRONICO (ALENDRONATO DE SODIO) TABLETA O COMPRIMIDO CADA TABLETA O COMPRIMIDO CONTIENE: AL0000
ESP0000396880822C-500001362016051720160517010000304495481           5481           00008190000000110001009                    000030449PAROXETINA, CLORHIDRATO DE TABLETA 20 MG ENVASE CON 10 TABLETAS.                                    0000
ESP000039689122390012267  2016051720160517010000304651773           1773           00000480000001156801009                    000030465EPIRUBICINA, CLORHIDRATO DE SOLUCION INYECTABLE 10 MG ENVASE CON UN FRASCO AMPULA CON LIOFILIZADO.  0000
ESP0000396900709SAP5781   2016051720160517010000304474185           4185           00001030000001700001009                    000030447ACIDO URSODEOXICOLICO CAPSULA 250 MG ENVASE CON 50 CAPSULAS.                                        0000
ESP0000396900709SAP5781   2016051720160517010000304475292           5292           00019280000001850001009                    000030447MEROPENEM TRIHIDRATADO SOLUCION INYECTABLE 1 G ENVASE CON 1 FRASCO AMPULA.                          0000
ESP000039691025741000924222016051720160517010000304403251           3251           00000130000000150001009                    000030440HALOPERIDOL TABLETA 5 MG ENVASE CON 20 TABLETAS.                                                    0000
ESP000039691025741000924222016051720160517010000304404482           4482           00000260000000500001009                    000030440BROMAZEPAM COMPRIMIDO 3 MG ENVASE CON 30 COMPRIMIDOS.                                               0000
ESP0000397020260FGB022773 2016051920160519010000304813251           3251           00000410000000140001009                    000030481HALOPERIDOL TABLETA 5 MG ENVASE CON 20 TABLETAS.                                                    0000
ESP0000397050825B19848161 2016052020160520010000305714470.01        4470.01        00000020000008187201009                    000030571METILFENIDATO, CLORHIDRATO DE TABLETA DE LIBERACION PROLONGADA 18 MG ENVASE CON 30 TABLETAS DE LIBER0000
ESP0000397410260FGB022809 2016052420160524010000304392499           2499           00003400000001800001009                    000030439ALPRAZOLAM TABLETA 2 MG ENVASE CON 30 TABLETAS.                                                     0000
ESP0000397420449A041787   2016052420160524010000304322207.01        2207.01        00000080000000470501009                    000030432TIBOLONA TABLETA 2.5 MG ENVASE CON 30 TABLETAS.                                                     0000
ESP0000397439998FAC-37549 2016052420160524010000303611437.02        1437.02        00000300000002405701009                    000030361MEMANTINA TABLETAS 10 MG 30 TABLETAS                                                                0000
ESP000039744019038959     2016052420160524010000302564163           4163           00005600000002834901009                    000030256RALOXIFENO, CLORHIDRATO DE TABLETA 60 MG ENVASE CON 14 TABLETAS.                                    0000
ESP00003974502463244346   2016052420160524010000304945332           5332           00000600000006793401009                    000030494ERITROPOYETINA HUMANA RECOMBINANTE ALFA SOLUCION INYECTABLE 2000 UI/1 ML ENVASE CON 12 FRASCOS AMPUL0000
ESP00003974602463244347   2016052420160524010000304944251           4251           00004640000000318201009                    000030494VANCOMICINA, CLORHIDRATO DE SOLUCION INYECTABLE 500 MG ENVASE CON UN FRASCO AMPULA.                 0000
ESP00003974902463244345   2016052420160524010000304943258           3258           00000090000000125001009                    000030494RISPERIDONA TABLETA 2 MG ENVASE CON 40 TABLETAS.                                                    0000
ESP00003974902463244345   2016052420160524010000304943262           3262           00000550000002100001009                    000030494RISPERIDONA SOLUCION ORAL 1.0 MG/ML ENVASE CON 60 ML Y GOTERO DOSIFICADOR.                          0000
ESP0000397870426GC18      2016052620160526010000305915432.01        5432.01        00000100000005500001009                    000030591FILGRASTIM SOLUCION INYECTABLE 30 MUI/0.5 ML (300 ΜG) 1 JGA. PRELL. SOLUCION INYECTABLE            0000
ESP0000397880426GO145     2016052620160526010000305915453           5453           00000020000085000001009                    000030591PEMETREXED DISODICO HEPTAHIDRATADO SOLUCION INYECTABLE 500 MG ENVASE CON FRASCO AMPULA.             0000
ESP0000397890426GO144     2016052620160526010000305355449           5449           00000100000007000001009                    000030535ANASTROZOL TABLETA 1 MG ENVASE CON 28 TABLETAS.                                                     0000
ESP00003979110508888      2016052620160526010000305955472           5472           00000020000088300001009                    000030595BEVACIZUMAB SOLUCION INYECTABLE 100 MG ENVASE CON FRASCO AMPULA CON 4 ML.                           0000
ESP00003979110508888      2016052620160526010000305955473           5473           00000010000322000001009                    000030595BEVACIZUMAB SOLUCION INYECTABLE 400 MG ENVASE CON FRASCO AMPULA CON 16 ML.                          0000
ESP00003981002463249597   2016053120160531010000304945332           5332           00000330000006793401009                    000030494ERITROPOYETINA HUMANA RECOMBINANTE ALFA SOLUCION INYECTABLE 2000 UI/1 ML ENVASE CON 12 FRASCOS AMPUL0000
ESP000039816066700252808  2016053120160531010000299224471.01        4471.01        00000070000005335901009                    000029922METILFENIDATO, CLORHIDRATO DE TABLETA DE LIBERACION PROLONGADA 27 MG ENVASE CON 30 TABLETAS DE LIBER0000
ESP000039816066700252808  2016053120160531010000299224472.01        4472.01        00000070000005715901009                    000029922METILFENIDATO, CLORHIDRATO DE TABLETA DE LIBERACION PROLONGADA 36 MG ENVASE CON 30 TABLETAS DE LIBER0000
ESP000039817066700252807  2016053120160531010000303304470.01        4470.01        00000430000005113401009                    000030330METILFENIDATO, CLORHIDRATO DE TABLETA DE LIBERACION PROLONGADA 18 MG ENVASE CON 30 TABLETAS DE LIBER0000
ESP0000398180260FGB022852 2016053120160531010000303202499           2499           00000550000001800001009                    000030320ALPRAZOLAM TABLETA 2 MG ENVASE CON 30 TABLETAS.                                                     0000
ESP0000398190260FGB022881 2016053120160531010000306282654           2654           00000290000001200001009                    000030628LEVODOPA Y CARBIDOPA TABLETA 250 MG/25 MG ENVASE CON 100 TABLETAS.                                  0000
ESP00003982002463254157   2016053120160531010000304945332           5332           00001590000006793401009                    000030494ERITROPOYETINA HUMANA RECOMBINANTE ALFA SOLUCION INYECTABLE 2000 UI/1 ML ENVASE CON 12 FRASCOS AMPUL0000
ESP0000398390260FGB022893 201606012016060101000030628202            202            00000140000001800001009                    000030628DIAZEPAM (GT20) SOLUCION INYECTABLE 10 MG / 2 ML ENVASE CON 50 AMPOLLETAS DE 2 ML.                  0000
ESP0000398390260FGB022893 2016060120160601010000306283215           3215           00000150000000179701009                    000030628DIAZEPAM (GT14) TABLETA 10 MG ENVASE CON 20 TABLETAS.                                               0000
ESP0000398400260FGB022889 2016060120160601010000306283251           3251           00001400000000140001009                    000030628HALOPERIDOL TABLETA 5 MG ENVASE CON 20 TABLETAS.                                                    0000
ESP0000398400260FGB022889 2016060120160601010000306283253           3253           00000200000000600001009                    000030628HALOPERIDOL SOLUCION INYECTABLE 5 MG/ML ENVASE CON 6 AMPOLLETAS (5 MG/ML).                          0000
ESP0000398510426B9013     2016060220160602010000307374302           4302           00005000000000300001009                    000030737FINASTERIDA GRAGEA O TABLETA RECUBIERTA 5 MG ENVASE CON 30 GRAGEAS O TABLETAS RECUBIERTAS.          0000
ESP0000398640260FGB022946 2016060320160603010000304392654           2654           00001900000001200001009                    000030439LEVODOPA Y CARBIDOPA TABLETA 250 MG/25 MG ENVASE CON 100 TABLETAS.                                  0000
ESP0000398670260FGB022913 2016060320160603010000301183259           3259           00000100000009650001009                    000030118CLOZAPINA COMPRIMIDO 100 MG ENVASE CON 30 COMPRIMIDOS.                                              0000
ESP0000398680260FGI000765 2016060320160603010000306642499           2499           00000550000001700001009                    000030664ALPRAZOLAM TABLETA 2 MG ENVASE CON 30 TABLETAS.                                                     0000
ESP0000398770260FGB022973 2016060720160607010000307563251           3251           00000410000000140001009                    000030756HALOPERIDOL TABLETA 5 MG ENVASE CON 20 TABLETAS.                                                    0000
ESP0000398790260FGB022988 2016060720160607010000307562651           2651           00000860000000280001009                    000030756TRIHEXIFENIDILO, CLORHIDRATO DE TABLETA 5 MG ENVASE CON 50 TABLETAS.                                0000
ESP0000398800260FGB022978 2016060720160607010000306732500           2500           00000500000000750001009                    000030673ALPRAZOLAM TABLETA 0.25 MG ENVASE CON 30 TABLETAS.                                                  0000
ESP0000398800260FGB022978 2016060720160607010000306735351           5351           00001000000000680001009                    000030673METILFENIDATO, CLORHIDRATO DE COMPRIMIDO 10 MG ENVASE CON 30 COMPRIMIDOS.                           0000
ESP00003989602463264157   201606102016061001000030671202            202            00004000000001660001009                    000030671DIAZEPAM (GT20) SOLUCION INYECTABLE 10 MG / 2 ML ENVASE CON 50 AMPOLLETAS DE 2 ML.                  0000
ESP00003989602463264157   2016061020160610010000306712107           2107           00000480000022284301009                    000030671EFEDRINA, SULFATO DE (GT2) SOLUCION INYECTABLE 50 MG / 2 ML ENVASE CON 100 AMPOLLETAS CON 2 ML. (25 0000
ESP00003989602463264157   201606102016061001000030671221            221            00003670000000324901009                    000030671TIOPENTAL SODICO SOLUCION INYECTABLE 0.5 G / 20 ML ENVASE CON FRASCO AMPULA Y DILUYENTE CON 20 ML.  0000
ESP00003989602463264157   201606102016061001000030671243            243            00000240000001371101009                    000030671ETOMIDATO SOLUCION INYECTABLE 20 MG / 10 ML ENVASE CON 5 AMPOLLETAS CON 10 ML.                      0000
ESP0000399001213A-564     2016061020160610010000308062154           2154           00001980000001430001009                    000030806ENOXAPARINA SODICA SOLUCION INYECTABLE 40 MG/0.4 ML ENVASE CON 2 JERINGAS DE 0.4 ML.                0000
ESP0000399001213A-564     2016061020160610010000308064158           4158           00006690000003100001009                    000030806INSULINA GLARGINA SOLUCION INYECTABLE 100.0 UI (3.64 MG / ML) ENVASE CON UN FRASCO AMPULA CON 10 ML.0000
ESP0000399001213A-564     2016061020160610010000308064224           4224           00000730000002300001009                    000030806ENOXAPARINA SODICA SOLUCION INYECTABLE 60 MG/0.6 ML ENVASE CON 2 JERINGAS DE 0.6 ML.                0000
ESP0000399011213A-563     2016061320160613010000308124385           4385           00000010000036211501009                    000030812ENTECAVIR TABLETA 0.50 MG ENVASE CON 30 TABLETAS.                                                   0000
ESP0000399060260FGB023031 2016061320160613010000307902654           2654           00000250000001200001009                    000030790LEVODOPA Y CARBIDOPA TABLETA 250 MG/25 MG ENVASE CON 100 TABLETAS.                                  0000
ESP00003990802463266789   2016061420160614010000308365332           5332           00002520000003015001009                    000030836ERITROPOYETINA HUMANA RECOMBINANTE ALFA SOLUCION INYECTABLE 2000 UI/1 ML ENVASE CON 12 FRASCOS AMPUL0000
ESP0000399099998FAC-38349 2016061420160614010000307291094           1094           00000250000001754401009                    000030729CABERGOLINA TABLETA 0.5 MG ENVASE CON 2 TABLETAS.                                                   0000
ESP0000399099998FAC-38349 2016061420160614010000307294514           4514           00000300000007800001009                    000030729LEFLUNOMIDA COMPRIMIDO 20 MG ENVASE CON 30 COMPRIMIDOS.                                             0000
ESP00003991002463266489   2016061420160614010000304944057           4057           00003540000000589501009                    000030494MIDAZOLAM, CLORHIDRATO DE SOLUCION INYECTABLE 15 MG / 3 ML ENVASE CON 5 AMPOLLETAS CON 3 ML.        0000
ESP000039913025741000929732016061420160614010000306653251           3251           00001710000000150001009                    000030665HALOPERIDOL TABLETA 5 MG ENVASE CON 20 TABLETAS.                                                    0000
ESP00003991502463268940   2016061420160614010000306711544           1544           00000250000004552601009                    000030671ERGOMETRINA, MALEATO DE SOLUCION INYECTABLE 0.2 MG/ML ENVASE CON 50 AMPOLLETAS DE 1 ML.             0000
ESP0000399180825B20012497 2016061320160614010000308344158.01        4158.01        00000030000016019001009                    000030834INSULINA GLARGINA SOLUCION INYECTABLE 100.0 UI (3.64 MG / ML) ENVASE CON 5 CARTUCHOS DE VIDRIO CON 30000
ESP0000399221213A-566     2016061520160615010000308064158           4158           00001310000003100001009                    000030806INSULINA GLARGINA SOLUCION INYECTABLE 100.0 UI (3.64 MG / ML) ENVASE CON UN FRASCO AMPULA CON 10 ML.0000
ESP0000399221213A-566     2016061520160615010000308064224           4224           00001240000002300001009                    000030806ENOXAPARINA SODICA SOLUCION INYECTABLE 60 MG/0.6 ML ENVASE CON 2 JERINGAS DE 0.6 ML.                0000
ESP0000399230890A22447    2016061520160615010000307284158           4158           00004000000002500001009                    000030728INSULINA GLARGINA SOLUCION INYECTABLE 100.0 UI (3.64 MG / ML) ENVASE CON UN FRASCO AMPULA CON 10 ML.0000
ESP00003992402463269304   2016061520160615010000304943258           3258           00001540000000125001009                    000030494RISPERIDONA TABLETA 2 MG ENVASE CON 40 TABLETAS.                                                    0000
ESP0000399481213A-568     2016062020160620010000308545453           5453           00000020000110000001009                    000030854PEMETREXED DISODICO HEPTAHIDRATADO SOLUCION INYECTABLE 500 MG ENVASE CON FRASCO AMPULA.             0000
ESP0000399481213A-568     2016062020160620010000308545472           5472           00000020000052000001009                    000030854BEVACIZUMAB SOLUCION INYECTABLE 100 MG ENVASE CON FRASCO AMPULA CON 4 ML.                           0000
ESP0000399481213A-568     2016062020160620010000308545473           5473           00000010000186200001009                    000030854BEVACIZUMAB SOLUCION INYECTABLE 400 MG ENVASE CON FRASCO AMPULA CON 16 ML.                          0000
ESP0000392811185A45646    201603162016032301000029812600880652      600880652      00000010000004125005001                    000029812APOSITOS HIDROCOLOIDES,  PARA  EL  TRATAMIENTO  DE  HERIDAS,EXTRADELGADO, AUTOADHERIBLE. ESTERIL. TA0000
ESP0000392811185A45646    201603162016032301000029812600880702      600880702      00000010000002722505001                    000029812APOSITOS EN FORMA DE MECHA, COMPUESTOS POR FIBRAS DE ALGINATODE CALCIO Y SODIO DE ORIGEN NATURAL. ES0000
ESP0000392811185A45646    201603162016032301000029812602030553      602030553      00000010000001965005001                    000029812CINTA TRANSPARENTE PLASTICA CINTA TRANSPARENTE PLASTICA, MICROPERFORADA, DE POLIETILENO; CON ADHESIV0000
ESP0000392811185A45646    201603162016032301000029812602030561      602030561      00000010000001965005001                    000029812CINTA TRANSPARENTE PLASTICA CINTA TRANSPARENTE PLASTICA, MICROPERFORADA, DE POLIETILENO; CON ADHESIV0000
ESP0000392811185A45646    201603162016032301000029812608690103      608690103      00000010000002227505001                    000029812TELAS ADHESIVAS DE ACETATO CON ADHESIVO EN UNA DE SUS CARAS. LONGITUD:10 M X ANCHO:1.25 CM 24 PIEZAS0000
ESP0000392880392IQ44472   2016032920160330010000298901206           1206           00001000000000090001000                    000029890BUTILHIOSCINA, BROMURO DE O BUTILBROMURO DE HIOSCINA GRAGEA O TABLETA 10 MG ENVASE CON 10 GRAGEA O T0000
ESP0000393200392IQ44531   2016040620160407010000299382471           2471           00001340000000030001002                    000029938CLORFENAMINA COMPUESTA TABLETA PARACETAMOL 500 MG, CAFEINA 25 MG, FENILEFRINA 5 MG, CLORFENAMINA 4 M0000
ESP0000393241224B-678     2016040720160407010000299645267           5267           00000180000000100001002                    000029964FLUCONAZOL CAPSULA O TABLETA 100 MG ENVASE CON 10 CAPSULAS O TABLETAS.                              0000
ESP0000393241224B-678     2016040720160407010000299645384           5384           00006050000000460001002                    000029964MULTIVITAMINAS SOLUCION INYECTABLE ADULTO VITAMINA A, D, E, B1, B2, B6, B12, ACIDO PANTOTENICO, C, B0000
ESP0000393241224B-678     2016040720160407010000299645385           5385           00000400000000440001002                    000029964MULTIVITAMINAS SOLUCION INYECTABLE INFANTIL VITAMINA A, D, E, K, B1, B2, B6, B12, ACIDO PANTOTENICO,0000
ESP0000393261224B-679     2016040720160407010000299642123           2123           00000030000000725001002                    000029964MUPIROCINA UNGUENTO 2 G / 100 G ENVASE CON 15 G.                                                    0000
ESP0000393310731F160088   201604072016040801000029958523            523            00000030000000413201002                    000029958POTASIO, SALES DE (BICARBONATO DE POTASIO, BITARTRATO DE POTASIO Y ACIDO CITRICO) TABLETA SOLUBLE O 0000
ESP0000393310731F160088   201604072016040801000029958801            801            00000030000000152901002                    000029958BAAO COLOIDE (HARINA DE SOYA Y POLIVIDONA) POLVO 965 MG / 20 MG / G ENVASE CON UN SOBRE INDIVIDUAL 0000
ESP0000393320731P160103   2016040720160408010000299582618           2618           00000190000001291701002                    000029958LEVETIRACETAM TABLETA 1000 MG ENVASE CON 30 TABLETAS.                                               0000
ESP0000393320731P160103   2016040720160408010000299582710           2710           00000330000000128701002                    000029958VITAMINAS Y MINERALES TABLETA TIAMINA, RIBOFLAVINA, PIRIDOXINA, B12, ACIDO FOLICO, VITAMINA C, SULFA0000
ESP0000393320731P160103   2016040720160408010000299582736.01        2736.01        00000060000007004701002                    000029958DIETA ELEMENTAL POLVO ENERGIA 373- 386; 99-103.45 KCAL;HIDRATOS DE CARBONO 71-78.50; 19.00-21.04 G;P0000
ESP0000393330731N161337   2016040720160408010000299585391           5391           00000020000000100001002                    000029958DIETA POLIMERICA SIN FIBRA SUSPENSION ENTERAL PROTEINAS 3.6 - 4 G, LAPIDOS 3.4 -3.92 G, HIDRATOS DE0000
ESP0000393330731N161337   2016040720160408010000299585392           5392           00000020000000105001002                    000029958DIETA POLIMERICA CON FIBRA SUSPENSION ENTERAL PROTEINAS 3.69 - 3.74 G, LAPIDOS 3.45 - 3.56 G, HIDRA0000
ESP0000393369998A18731    201604082016040801000029982608790143      608790143      00000320000000088005002                    000029982TERMOMETROS CLINICO,  DE  VIDRIO  TRANSPARENTE,  CON  MERCURIO QUIMICAMENTE  PURO,  ESCALA  GRADUADA0000
ESP0000393369998A18731    201604082016040801000029982608790150      608790150      00001800000000088005002                    000029982TERMOMETROS CLINICO,  DE  VIDRIO  TRANSPARENTE,  CON  MERCURIO QUIMICAMENTE  PURO,  ESCALA  GRADUADA0000
ESP00003934312281275      2016040820160411010000299883116855119     3116855119     00000070000001885005002                    000029988PAPELES PARA ENVOLTURA. KRAFT DE 70 KG Y 45 CM DE ANCHO. KRAFT DE 70 KG Y 45 CM DE ANCHO.           0000
ESP00003934312281275      201604082016041101000029988602030306      602030306      00000020000001200005002                    000029988CINTAS MICROPOROSA, DE TELA NO TEJIDA, UNIDIRECCIONAL, DE COLOR BLANCO,  CON  RECUBRIMIENTOS  ADHESI0000
ESP00003934312281275      201604082016041101000029988607710068      607710068      00000400000000060005002                    000029988RASTRILLOS DE CABEZA FIJA, RECTANGULAR. DE 1 A 1.5 CM DE ANCHO Y DE 3.5  A  4.5  CM  DE  LONGITUD.  0000
ESP00003934312281275      201604082016041101000029988608190021      608190021      00000010000000770005002                    000029988SOLVENTES ACETONA. PARA USOS DIVERSOS. ENVASE CON 1000 ML. PIEZA.                                   0000
ESP00003934312281275      20160408201604110100002998860BD01SS01     60BD01SS01     00000110000001370005002                    000029988BATA PARA PACIENTE CON MANGA CORTA DE TELA NO TEJIDA DE 35 A 40 G BATA PARA PACIENTE CON MANGA CORTA0000
ESP00003934312281275      201604082016041101000029988802650523.1    802650523.1    00000070000000750005002                    000029988CUBRE OBJETOS DE VIDRIO N.1 CON UN ESPESOR DE 0.13 A 0.16 MM CUBRE OBJETOS DE VIDRIO N.1 CON UN ESPE0000
ESP00003934312281275      201604082016041101000029988807290010      807290010      00000080000000520005002                    000029988PORTA OBJETOS DE VIDRIO, RECTANGULARES DE GROSOR UNIFORME DE 75 X 25 PORTA OBJETOS DE VIDRIO, RECTAN0000
ESP00003934312281275      201604082016041101000029988808294342      808294342      00000020000005652005002                    000029988ALCOHOL ETILICO DESNATURALIZADO 96 (ANTISEPTICO) ALCOHOL ETILICO DESNATURALIZADO 96 (ANTISEPTICO) GA0000
ESP00003934312281275      201604082016041101000029988SC-MC-295      SC-MC-295      00001310000000500005002                    000029988CUBREBOCAS PLISADO DE TRES PLIEGOS, RESISTENTE A FLUIDOS ANTIESTATICO CUBREBOCAS PLISADO DE TRES PLI0000
ESP00003934312281275      201604082016041101000029988SC-MC-459      SC-MC-459      00000050000017325005002                    000029988AGUJA PARA RAQUIANESTECIA CON PUNTA TIPO QUINCKER ESTERIL DE 27 X35 AGUJA PARA RAQUIANESTECIA CON PU0000
ESP00003934312281275      201604082016041101000029988SC-MC-469      SC-MC-469      00000140000008990005002                    000029988CATETER VENOSO PERIFERICO, HECHO DE VIALON CAL. 24 G X 0.56 IN (0.7 X CATETER VENOSO PERIFERICO, HEC0000
ESP00003934312281275      201604082016041101000029988SC-MC-471      SC-MC-471      00000280000008990005002                    000029988CATETER VENOSO PERIFERICO HECHO DE VIALON CAL. 20 G X 1.16 IN (1.1X CATETER VENOSO PERIFERICO HECHO 0000
ESP00003934312281275      201604082016041101000029988SC-MC-472      SC-MC-472      00000160000008990005002                    000029988CATETER VENOSO PERIFERICO HECHO DE VIALON CAL. 18 G X 1.16 IN (1.3 X CATETER VENOSO PERIFERICO HECHO0000
ESP00003934312281275      201604082016041101000029988SC-MC-591      SC-MC-591      00000030000037500005002                    000029988VALVULA PARA DERIVACION VENTRICULAR DE 12 MM INFANTIL CON 1 PIEZA VALVULA PARA DERIVACION VENTRICULA0000
ESP00003934312281275      201604082016041101000029988SC-MC-592      SC-MC-592      00000010000017325005002                    000029988AGUJA PARA RAQUIANESTESIA CON PUNTA TIPO QUINCKER ESTERIL 20 X 3.5 PIEZ AGUJA PARA RAQUIANESTESIA CO0000
ESP00003934312281275      201604082016041101000029988SC-MC-593      SC-MC-593      00001620000001920005002                    000029988TOALLAS INTERDOBLADAS DE PAPEL PARA MANOS C/2000 TOALLAS INTERDOBLADAS DE PAPEL PARA MANOS C/2000 TO0000
ESP00003934312281275      201604082016041101000029988SC-MC-594      SC-MC-594      00000290000000030005002                    000029988VASO RECOLECTOR PARA MUESTRAS DE PLASTICO CON TAPA DE ROSCA DE BOCA VASO RECOLECTOR PARA MUESTRAS DE0000
ESP0000393440488E45138    2016040820160411010000299452111.01        2111.01        00000020000000065001002                    000029945AMLODIPINO, BESILATO DE TABLETA O CAPSULA 5 MG ENVASE CON 30 TABLETAS O CAPSULAS.                   0000
ESP0000393440488E45138    201604082016041101000029945612            612            00000050000018000001002                    000029945NOREPINEFRINA, BITARTRATO DE SOLUCION INYECTABLE CADA AMPOLLETA CONTIENE: BITARTRATO DE NOREPINEFRIN0000
ESP0000393450414CFDI2367  2016041120160411010000299431969           1969           00000330000000250001002                    000029943AZITROMICINA DIHIDRATADA TABLETA 500 MG ENVASE CON 3 TABLETAS.                                      0000
ESP0000393450414CFDI2367  2016041120160411010000299434358.01        4358.01        00000150000001000001002                    000029943PREGABALINA CAPSULA 150 MG ENVASE CON 28 CAPSULAS.                                                  0000
ESP0000393450414CFDI2367  2016041120160411010000299435186.01        5186.01        00005580000000065001002                    000029943PANTOPRAZOL TABLETA O GRAGEA O CAPSULA 40 MG ENVASE CON 14 TABLETAS O GRAGEAS O CAPSULAS.           0000
ESP0000393450414CFDI2367  2016041120160411010000299435365           5365           00000020000000820001002                    000029943TOPIRAMATO TABLETA 25 MG ENVASE CON 60 TABLETAS.                                                    0000
ESP0000393460883A48834    2016040820160411010000299392734           2734           00000290000007715001002                    000029939NUTRICION PARENTERAL EMULSION INYECTABLE CADA 100 ML CONTIENEN: EN EL COMPARTIMIENTO DE EMULSION DE 0000
ESP0000393460883A48834    2016040820160411010000299393617           3617           00000010000003040001002                    000029939POTASIO DIBASICO Y MONOBASICO, FOSFATO DE SOLUCION INYECTABLE CADA AMPOLLETA CONTIENE: FOSFATO DE PO0000
ESP0000393460883A48834    2016040820160411010000299395386           5386           00000020000003250001002                    000029939SODIO, CLORURO DE SOLUCION INYECTABLE AL 17.7% CADA ML CONTIENE: CLORURO DE SODIO 0.177 G ENVASE CON0000
ESP000039353069352521413372016040820160412010000299422742           2742           00000100000003600001002                    000029942ALANINA Y LEVOGLUTAMINA SOLUCION INYECTABLE N-(2)-L-ALANIL-L-GLUTAMINA 20 G/50 ML ENVASE CON 50 ML. 0000
ESP000039353069352521413372016040820160412010000299423601           3601           00010560000000076001002                    000029942GLUCOSA SOLUCION INYECTABLE AL 5% CADA 100 ML CONTIENE: GLUCOSA 5 G. CONTIENE: GLUCOSA 12.5 G ENVASE0000
ESP000039353069352521413372016040820160412010000299423611           3611           00004320000000076001002                    000029942SODIO, CLORURO DE Y GLUCOSA SOLUCION INYECTABLE CADA 100 ML CONTIENEN: CLORURO DE SODIO 0.9 G GLUCOS0000
ESP000039353069352521413372016040820160412010000299423612           3612           00012600000000086001002                    000029942SODIO, CLORURO DE Y GLUCOSA ANHIDRA SOLUCION INYECTABLE CADA 100 ML CONTIENEN: CLORURO DE SODIO 0.9 0000
ESP000039353069352521413372016040820160412010000299423614           3614           00000960000000076001002                    000029942SOLUCION HARTMANN SOLUCION INYECTABLE CADA 100 ML CONTIENEN: CLORURO DE SODIO 0.600 G CLORURO DE POT0000
ESP000039353069352521413372016040820160412010000299423630           3630           00014800000000085001002                    000029942GLUCOSA ANHIDRA SOLUCION INYECTABLE AL 5% CADA 100 ML CONTIENE: GLUCOSA ANHIDRA EQUIVALENTE A 5.0 G 0000
ESP000039353069352521413372016040820160412010000299423675           3675           00023200000000091401002                    000029942AGUA INYECTABLE SOLUCION INYECTABLE CADA ENVASE CONTIENE: AGUA INYECTABLE 500 ML ENVASE CON 500 ML. 0000
ESP000039353069352521413372016040820160412010000299425382           5382           00001500000001550001002                    000029942LIPIDOS INTRAVENOSOS (LAPIDOS DE CADENA LARGA AL 20%; SOYA/CARTAMO) EMULSION INYECTABLE AL 20% 10 G0000
ESP000039354069352521415012016041220160412010000299422733           2733           00000040000007300001002                    000029942NUTRICION PARENTERAL EMULSION INYECTABLE CADA 100 ML CONTIENEN: EN EL COMPARTIMIENTO DE EMULSION DE 0000
ESP0000393561225FAC-36254 2016041220160413010000299902096           2096           00002290000000940001002                    000029990TRAMADOL, CLORHIDRATO DE, PARACETAMOL TABLETA CADA TABLETA CONTIENE: CLORHIDRATO DE TRAMADOL 37.5 MG0000
ESP0000393561225FAC-36254 2016041220160413010000299905490           5490           00000060000004700001002                    000029990MIRTAZAPINA TABLETA O TABLETA DISPERSABLE 30 MG ENVASE CON 30 TABLETAS O TABLETAS DISPERSABLES.     0000
ESP0000393640392IQ44549   2016041320160413010000299382463           2463           00003010000000065001002                    000029938AMBROXOL, CLORHIDRATO DE SOLUCION 300 MG/100 ML ENVASE CON 120 ML Y DOSIFICADOR.                    0000
ESP0000393650392IQ44550   2016041320160414010000300372067           2067           00000200000000065001002                    000030037KETOCONAZOL KETOCONAZOL 2/100G CREMA TUBO 30 GR CREMA TUBO 30 GR                                    0000
ESP0000393661224B-689     2016041320160414010000300132198           2198           00000110000000180001002                    000030013OXIMETAZOLINA, CLORHIDRATO DE SOLUCION NASAL 50 MG/100 ML ENVASE CON GOTERO INTEGRAL CON 20 ML.     0000
ESP0000393661224B-689     201604132016041401000030013SC-MED-0187    SC-MED-0187    00000490000001895001002                    000030013CEFUROXIMA CEFUROXIMA 500 MG 10 TABLETAS 10 TABLETAS                                                0000
ESP00003937707095572      2016041420160415010000299444332           4332           00001650000001100001002                    000029944BUDESONIDA (MICRONIZADA) SUSPENSION PARA NEBULIZAR 0.250 MG ENVASE CON 5 ENVASES CON 2 ML.          0000
ESP00003937707095572      2016041420160415010000299444333           4333           00000140000001500001002                    000029944BUDESONIDA (MICRONIZADA) SUSPENSION PARA NEBULIZAR 0.500 MG ENVASE CON 5 ENVASES CON 2 ML.          0000
ESP00003937707095572      2016041420160415010000299444337           4337           00000090000002100001002                    000029944BUDESONIDA SUSPENSION PARA INHALACION 1.280 MG ENVASE CON FRASCO PULVERIZADOR CON 6 ML (120 DOSIS DE0000
ESP00003937707095572      201604142016041501000029944441            441            00000030000001850001002                    000029944SALMETEROL, XINAFOATO DE SUSPENSION EN AEROSOL 0.330 MG/G ENVASE CON INHALADOR CON 12 G PARA 120 DOS0000
ESP00003937707095572      201604142016041501000029944450            450            00000030000001300001002                    000029944FLUTICASONA, PROPIONATO DE SUSPENSION EN AEROSOL 0.83 MG/G ENVASE CON UN FRASCO PRESURIZADO CON 10.20000
ESP00003937812281286      201604132016041501000030067805740164      805740164      00000020000003400005002                    000030067LANCETA METALICA ESTERIL DESECHABLE CON ENVOLTURA INDIVIDUAL: PUNTA LANCETA METALICA ESTERIL DESECHA0000
ESP00003937812281286      201604132016041501000030067808892590      808892590      00000050000010200005002                    000030067TIRA REACTIVA PARA DETERMINACION SEMI O CUANTITATIVA EN EQUIPO SEMLO TIRA REACTIVA PARA DETERMINACIO0000
ESP00003937812281286      201604132016041501000030067SC-MC-457      SC-MC-457      00000020000017325005002                    000030067AGUJA PARA RAQUIANESTESIA CON PUNTA TIPO QUINCKER ESTERIL DE 26 X 3.5 AGUJA PARA RAQUIANESTESIA CON 0000
ESP00003937812281286      201604132016041501000030067SC-MC-459      SC-MC-459      00000220000017325005002                    000030067AGUJA PARA RAQUIANESTECIA CON PUNTA TIPO QUINCKER ESTERIL DE 27 X35 AGUJA PARA RAQUIANESTECIA CON PU0000
ESP00003937812281286      201604132016041501000030067SC-MC-591      SC-MC-591      00000010000037500005002                    000030067VALVULA PARA DERIVACION VENTRICULAR DE 12 MM INFANTIL CON 1 PIEZA VALVULA PARA DERIVACION VENTRICULA0000
ESP0000394010414CFDI2375  201604192016041901000030048572            572            00005000000000065001001                    000030048METOPROLOL, TARTRATO DE TABLETA 100 MG ENVASE CON 20 TABLETAS.                                      0000
ESP0000394010414CFDI2375  201604192016041901000030048SC-MED-0028    SC-MED-0028    00005000000000070001001                    000030048KETOROLACO TROMETAMINA 10 MG CAJA CON 10 TABLETAS                                                   0000
ESP0000394020414CFDI2376  201604192016041901000029943SC-MED-0028    SC-MED-0028    00009550000000070001001                    000029943KETOROLACO TROMETAMINA 10 MG CAJA CON 10 TABLETAS                                                   0000
ESP00003941502463209610   2016042020160421010000301085265           5265           00000500000001000001001                    000030108IMIPENEM MONOHIDRATADO - CILASTATINA SODICA SOLUCION INYECTABLE 500 MG/500 MG ENVASE CON UN FRASCO A0000
ESP0000394160058FA22003827201604202016042101000030055104            104            00005000000000027901001                    000030055PARACETAMOL TABLETA 500 MG ENVASE CON 10 TABLETAS.                                                  0000
ESP0000394170058FA220038272016042020160421010000300552520           2520           00005000000000073501001                    000030055LOSARTAN POTASICO GRAGEA O COMPRIMIDO RECUBIERTO 50 MG ENVASE CON 30 GRAGEAS O COMPRIMIDOS RECUBIERT0000
ESP00003942702463209608   2016042020160421010000299501097           1097           00000060000003508601001                    000029950DESMOPRESINA, ACETATO DE SOLUCION NASAL 89 ΜG / ML ENVASE NEBULIZADOR CON 2.5 ML.                  0000
ESP00003942702463209608   2016042020160421010000299501209           1209           00000190000000102001001                    000029950CISAPRIDA TABLETA 5 MG ENVASE CON 30 TABLETAS.                                                      0000
ESP00003942702463209608   2016042020160421010000299501234           1234           00002770000000065001001                    000029950RANITIDINA, CLORHIDRATO DE SOLUCION INYECTABLE CADA AMPOLLETA CONTIENE: CLORHIDRATO DE RANITIDINA EQ0000
ESP00003942702463209608   2016042020160421010000299502111           2111           00000680000000034301001                    000029950AMLODIPINO, BESILATO DE TABLETA O CAPSULA 5 MG ENVASE CON 10 TABLETAS O CAPSULAS.                   0000
ESP00003942702463209608   2016042020160421010000299502512           2512           00000080000005625001001                    000029950AMINOACIDOS CRISTALINOS (PEDIATRICO) SOLUCION INYECTABLE AL 10% CADA 100 ML CONTIENE: L- ISOLEUCINA 0000
ESP00003942702463209608   201604202016042101000029950253            253            00000010000007000001001                    000029950BROMURO DE PANCURONIO SOLUCION INYECTABLE DE 4 M CON 50 AMPOLLETAS DE 2 ML BROMURO DE PANCURONIO SOL0000
ESP00003942702463209608   201604202016042101000029950270            270            00000010000005500001001                    000029950ROPIVACAINA MONOHIDRATADA, CLORHIDRATO DE SOLUCION INYECTABLE 150 MG / 20 ML ENVASE CON 5 AMPOLLETAS0000
ESP00003942702463209608   201604202016042101000029950273            273            00000020000001000001001                    000029950BUPIVACAINA CON EPINEFRINA SOL. INY. 5/0.005 ML BUPIVACAINA CON EPINEFRINA SOL. INY. 5/0.005 ML PIEZ0000
ESP00003942702463209608   2016042020160421010000299502738           2738           00000310000000888601001                    000029950AMINOACIDOS CRISTALINOS (ADULTO) SOLUCION INYECTABLE AL 10% CADA 100 ML CONTIENE: L- ISOLEUCINA 490 0000
ESP00003942702463209608   2016042020160421010000299503132           3132           00000010000000120501001                    000029950NEOMICINA, SULFATO DE, POLIMIXINA B, SULFATO DE, FLUOCINOLONA, ACETONIDO DE, LIDOCAINA, CLORHIDRATO 0000
ESP00003942702463209608   2016042020160421010000299504028           4028           00001540000000135001001                    000029950CLONIXINATO DE LISINA SOLUCION INYECTABLE 100 MG / 2 ML ENVASE CON 5 AMPOLLETAS DE 2 ML.            0000
ESP00003942702463209608   2016042020160421010000299504592           4592           00000020000000590001001                    000029950PIPERACILINA SODICA- TAZOBACTAM SODICO SOLUCION INYECTABLE 4 G/500 MG ENVASE CON FRASCO AMPULA.     0000
ESP00003942702463209608   2016042020160421010000299505106           5106           00001030000000290001001                    000029950ATORVASTATINA CALCICA TRIHIDRATADA TABLETA 20 MG ENVASE CON 10 TABLETAS.                            0000
ESP00003942702463209608   2016042020160421010000299505229           5229           00000620000001100001001                    000029950ACIDO ASCORBICO SOLUCION INYECTABLE 1 G ENVASE CON 6 AMPOLLETAS DE 10 ML.                           0000
ESP00003942812281294      201604202016042101000030142607710068      607710068      00005000000000060005002                    000030142RASTRILLOS DE CABEZA FIJA, RECTANGULAR. DE 1 A 1.5 CM DE ANCHO Y DE 3.5  A  4.5  CM  DE  LONGITUD.  0000
ESP00003942912281296      201604202016042101000030145600040109      600040109      00002000000000900005002                    000030145ABATELENGUAS DE MADERA, DESECHABLES. LARGO: 142.0 MM,    ANCHO:18.0 MM ENVASE CON 500 PIEZAS.       0000
ESP00003942912281296      201604202016042101000030145SC-MC-593      SC-MC-593      00000750000001920005002                    000030145TOALLAS INTERDOBLADAS DE PAPEL PARA MANOS C/2000 TOALLAS INTERDOBLADAS DE PAPEL PARA MANOS C/2000 TO0000
ESP00003943012281297      201604202016042101000030148601250582      601250582      00001000000000340005002                    000030148BOLSAS PARA ILEOSTOMIA O COLOSTOMIA. TAMAAO ADULTO. AUTOADHERIBLE,  DE  PLASTICO  GRADO  MEDICO,  S0000
ESP00003943012281297      201604202016042101000030148608940052      608940052      00002720000002800005002                    000030148TOALLAS PARA GINECO-OBSTETRICIA.RECTANGULARES, CONSTITUIDAS POR CUATRO CAPAS DE MATERIAL ABSORBENTE.0000
ESP00003943012281297      201604202016042101000030148SC-MC-593      SC-MC-593      00001220000001920005002                    000030148TOALLAS INTERDOBLADAS DE PAPEL PARA MANOS C/2000 TOALLAS INTERDOBLADAS DE PAPEL PARA MANOS C/2000 TO0000
ESP000039431019080131946792016042120160422010000300534148           4148           00001000000002806101002                    000030053INSULINA LISPRO (ORIGEN ADN RECOMBINANTE), LISPRO PROTAMINA (ORIGEN ADN RECOMBINANTE) SUSPENSION INY0000
ESP000039431019080131946792016042120160422010000300534162           4162           00001200000002049501002                    000030053INSULINA LISPRO (ORIGEN ADN RECOMBINANTE) SOLUCION INYECTABLE 100 UI / ML ENVASE CON UN FRASCO AMPUL0000
ESP0000394320260FGB022490 2016042120160422010000299492331           2331           00000400000000140001002                    000029949FENAZOPIRIDINA, CLORHIDRATO DE TABLETA 100 MG ENVASE CON 20 TABLETAS.                               0000
ESP0000394320260FGB022490 2016042120160422010000299495356           5356           00000040000000220001002                    000029949LAMOTRIGINA TABLETA 100 MG ENVASE CON 28 TABLETAS.                                                  0000
ESP0000394320260FGB022490 2016042120160422010000299495358           5358           00000010000000180001002                    000029949LAMOTRIGINA TABLETA 25 MG ENVASE CON 28 TABLETAS.                                                   0000
ESP000039435019080131946742016042120160422010000299373308           3308           00000420000003215901002                    000029937ATOMOXETINA, CLORHIDRATO DE CAPSULA 40 MG ENVASE CON 14 CAPSULAS.                                   0000
ESP000039435019080131946742016042120160422010000299373309           3309           00000460000003215901002                    000029937ATOMOXETINA, CLORHIDRATO DE CAPSULA 60 MG ENVASE CON 14 CAPSULAS.                                   0000
ESP000039435019080131946742016042120160422010000299374485           4485           00000570000002638401002                    000029937DULOXETINA, CLORHIDRATO DE CAPSULA 60 MG ENVASE CON 14 CAPSULAS DE LIBERACION RETARDADA.            0000
ESP00003943501908013194674201604212016042201000029937SC-MED-0057    SC-MED-0057    00000230000003385101002                    000029937ATOMOXETINA ATOMOXETINA 18 MG 14 CAPSULAS                                                           0000
ESP000039439067040341419792016042120160422010000301491234           1234           00005000000000093301001                    000030149RANITIDINA, CLORHIDRATO DE SOLUCION INYECTABLE CADA AMPOLLETA CONTIENE: CLORHIDRATO DE RANITIDINA EQ0000
ESP000039439067040341419792016042120160422010000301491241           1241           00004750000000100301001                    000030149METOCLOPRAMIDA, CLORHIDRATO DE SOLUCION INYECTABLE 10 MG ENVASE CON 6 AMPOLLETAS DE 2 ML.           0000
ESP000039439067040341419792016042120160422010000301491954           1954           00009370000000037301001                    000030149GENTAMICINA, SULFATO DE SOLUCION INYECTABLE 80 MG ENVASE CON AMPOLLETA CON 2 ML.                    0000
ESP000039439067040341419792016042120160422010000301491956           1956           00010000000000081901001                    000030149AMIKACINA, SULFATO DE SOLUCION INYECTABLE 500 MG / 2 ML ENVASE CON 1 AMPOLLETA O FRASCO AMPULA CON 20000
ESP000039439067040341419792016042120160422010000301491973           1973           00015000000000090701001                    000030149CLINDAMICINA, FOSFATO DE SOLUCION INYECTABLE 300 MG / 2 ML ENVASE AMPOLLETA CON 2 ML.               0000
ESP000039439067040341419792016042120160422010000301492308           2308           00005000000000093301001                    000030149FUROSEMIDA SOLUCION INYECTABLE 20 MG/2 ML ENVASE CON 5 AMPOLLETAS CON 2 ML.                         0000
ESP000039439067040341419792016042120160422010000301493422           3422           00010000000000088001001                    000030149KETOROLACO-TROMETAMINA SOLUCION INYECTABLE 30 MG ENVASE CON 3 FRASCOS AMPULA O 3 AMPOLLETAS DE 1 ML.0000
ESP000039439067040341419792016042120160422010000301494241           4241           00003000000000068001001                    000030149DEXAMETASONA, FOSFATO SODICO DE (GT10) SOLUCION INYECTABLE CADA FRASCO AMPULA O AMPOLLETA CONTIENE: 0000
ESP00003944106935252142200201604222016042201000029942245            245            00000010000002350001001                    000029942PROPOFOL (EN SOLUCION CON ACEITE DE SOYA, FOSFATIDO DE HUEVO O LECITINA DE HUEVO Y GLICEROL) EMULSIO0000
ESP0000394420709SAP5632   2016042120160422010000301254332           4332           00007000000001000001001                    000030125BUDESONIDA (MICRONIZADA) SUSPENSION PARA NEBULIZAR 0.250 MG ENVASE CON 5 ENVASES CON 2 ML.          0000
ESP0000394441232071732    201604212016042201000030153609532825      609532825      00009500000000096205001                    000030153VENDAS ELASTICAS  DE  TEJIDO  PLANO;  DE  ALGODON  CON  FIBRAS SINTETICAS. LONGITUD: 5 M X ANCHO: 300000
ESP0000394441232071732    201604212016042201000030153609532866      609532866      00009840000000413505001                    000030153VENDAS ELASTICAS  DE  TEJIDO  PLANO;  DE  ALGODON  CON  FIBRAS SINTETICAS. LONGITUD: 5 M X ANCHO:10 0000
ESP0000394450392IQ44563   201604212016042201000030136104            104            00297870000000029001001                    000030136PARACETAMOL TABLETA 500 MG ENVASE CON 10 TABLETAS.                                                  0000
ESP0000394450392IQ44563   2016042120160422010000301361242           1242           00060000000000023901001                    000030136METOCLOPRAMIDA, CLORHIDRATO DE TABLETA 10 MG ENVASE CON 20 TABLETAS.                                0000
ESP0000394450392IQ44563   2016042120160422010000301362016           2016           00007280000000061001001                    000030136KETOCONAZOL TABLETA 200 MG ENVASE CON 10 TABLETAS.                                                  0000
ESP0000394450392IQ44563   2016042120160422010000301362018           2018           00012510000000208601001                    000030136ITRACONAZOL CAPSULA 100 MG ENVASE CON 15 CAPSULAS.                                                  0000
ESP0000394450392IQ44563   2016042120160422010000301362144           2144           00042800000000035001001                    000030136LORATADINA TABLETA O GRAGEA 10 MG ENVASE CON 20 TABLETAS O GRAGEAS.                                 0000
ESP0000394450392IQ44563   2016042120160422010000301362431           2431           00026080000000083101001                    000030136DEXTROMETORFANO, BROMHIDRATO DE JARABE 300 MG/100 ML ENVASE CON 60 ML Y DOSIFICADOR (15 MG/5 ML).   0000
ESP0000394450392IQ44563   2016042120160422010000301362463           2463           00088800000000074701001                    000030136AMBROXOL, CLORHIDRATO DE SOLUCION 300 MG/100 ML ENVASE CON 120 ML Y DOSIFICADOR.                    0000
ESP0000394450392IQ44563   2016042120160422010000301363407           3407           00156140000000098301001                    000030136NAPROXENO TABLETA 250 MG ENVASE CON 30 TABLETAS.                                                    0000
ESP0000394450392IQ44563   201604212016042201000030136572            572            00066000000000061801001                    000030136METOPROLOL, TARTRATO DE TABLETA 100 MG ENVASE CON 20 TABLETAS.                                      0000
ESP0000394450392IQ44563   201604212016042201000030136657            657            00024920000000103301001                    000030136PRAVASTATINA SODICA TABLETA 10 MG ENVASE CON 30 TABLETAS.                                           0000
ESP0000394450392IQ44563   201604212016042201000030136872            872            00013060000000048901001                    000030136CLIOQUINOL CREMA 30 MG / G ENVASE CON 20 G.                                                         0000
ESP0000394450392IQ44563   201604212016042201000030136904            904            00000960000000067201001                    000030136ACIDO RETINOICO CREMA 0.05 G / 100 G ENVASE CON 20 G.                                               0000
ESP0000394500822C-500001292016042020160422010000300182114           2114           00001390000000300001001                    000030018FELODIPINO TABLETA DE LIBERACION PROLONGADA 5 MG ENVASE CON 10 TABLETAS DE LIBERACION PROLONGADA.   0000
ESP0000394500822C-500001292016042020160422010000300182521           2521           00000040000000552801001                    000030018LOSARTAN POTASICO,  HIDROCLOROTIAZIDA GRAGEA O COMPRIMIDO RECUBIERTO 50.0 MG/12.5 MG ENVASE CON 30 G0000
ESP0000394500822C-500001292016042020160422010000300182616           2616           00000090000009000001001                    000030018LEVETIRACETAM SOLUCION ORAL 10 G / 100 ML ENVASE CON 300 ML (100 MG/ML).                            0000
ESP0000394500822C-500001292016042020160422010000300182626           2626           00000070000000550001001                    000030018OXCARBAZEPINA GRAGEA O TABLETA 300 MG ENVASE CON 20 GRAGEAS O TABLETAS.                             0000
ESP0000394500822C-500001292016042020160422010000300182627           2627           00000060000000680001001                    000030018OXCARBAZEPINA GRAGEA O TABLETA 600 MG ENVASE CON 20 GRAGEAS O TABLETAS.                             0000
ESP0000394500822C-500001292016042020160422010000300183423           3423           00000440000000060001001                    000030018MELOXICAM TABLETA 15 MG ENVASE CON 10 TABLETAS.                                                     0000
ESP0000394560260FGB022502 2016042220160425010000301303422           3422           00014000000000058001001                    000030130KETOROLACO-TROMETAMINA SOLUCION INYECTABLE 30 MG ENVASE CON 3 FRASCOS AMPULA O 3 AMPOLLETAS DE 1 ML.0000
ESP0000394570392IQ44569   2016042220160425010000301351345           1345           00483840000000030201001                    000030135ALBENDAZOL SUSPENSION ORAL 400 MG / 20 ML ENVASE CON 20 ML.                                         0000
ESP00003946407095645      2016042520160425010000301504332           4332           00001000000001000001001                    000030150BUDESONIDA (MICRONIZADA) SUSPENSION PARA NEBULIZAR 0.250 MG ENVASE CON 5 ENVASES CON 2 ML.          0000
ESP0000394650414CFDI 2386 2016042520160425010000301781272           1272           00001000000000080001001                    000030178SENOSIDOS A-B  TABLETA CONCENTRADO DE SEN DESECADOS 187 MG (NORMALIZADO A 8.6 MG) ENVASE CON 20 TABL0000
ESP0000394650414CFDI 2386 2016042520160425010000301782540           2540           00000520000000650001001                    000030178TELMISARTAN TABLETA 40 MG ENVASE CON 30 TABLETAS.                                                   0000
ESP0000394660414CFDI 2384 2016042520160425010000300802301           2301           00002000000000150001001                    000030080HIDROCLOROTIAZIDA TABLETA 25 MG ENVASE CON 20 TABLETAS.                                             0000
ESP00003946712281299      201604222016042501000030186600660773      600660773      00000170000005900005002                    000030186ANTISEPTICOS Y GERMICIDAS ALCOHOL DESNATURALIZADO. ENVASE CON 20 L. PIEZA.                          0000
ESP00003946712281299      201604222016042501000030186601251879      601251879      00005000000000330005002                    000030186BOLSAS PARA RECOLECCION DE ORINA. RECTANGULAR, ELABORADA A BASE DE CLORURO DE POLIVINILO, CON GRADUA0000
ESP00003946712281299      201604222016042501000030186601300015      601300015      00003680000000750005002                    000030186BOTAS PARA USO EN QUIROFANOS.DESECHABLES.  ENVASE CON 25 PARES.                                     0000
ESP00003946712281299      201604222016042501000030186601689243      601689243      00010000000000030005002                    000030186SONDAS PARA ALIMENTACION. DE PLASTICO  TRANSPARENTE,  ESTERIL Y DESECHABLE CON UN ORIFICIO EN EL EXT0000
ESP0000394681224B-713     2016042520160425010000301711939           1939           00001490000000310001001                    000030171CEFALEXINA MONOHIDRATADA TABLETA O CAPSULA 500 MG ENVASE CON 20 TABLETAS O CAPSULAS.                0000
ESP00003946912281305      201604252016042501000030242600880108      600880108      00002000000002465005002                    000030242APOSITOS COMBINADOS.DE CELULOSA, CON TELA NO TEJIDA. MEDIDAS:20 X 13 CM. ENVASE CON 150 PIEZAS.     0000
ESP00003947012281300      201604222016042501000030144600160279      600160279      00000240000016930005002                    000030144ACEITES DE ALMENDRAS DULCES. ENVASE CON 4 L. PIEZA.                                                 0000
ESP00003947012281300      201604222016042501000030144600661003      600661003      00001000000008350005002                    000030144ANTISEPTICOS Y GERMICIDAS SOLUCION ESTERILIZANTE Y DESINFECTANTE DE SUPEROXIDACION CON PH NEUTRO, NO0000
ESP00003947012281300      201604222016042501000030144607400025      607400025      00000500000001200005002                    000030144PROTECTORES DE PIEL. TINTURA DE BENJUI AL 20%. ENVASE CON 1000 ML. PIEZA.                           0000
ESP00003947012281300      201604222016042501000030144607710050      607710050      00020120000000060005002                    000030144RASTRILLOS CON DIENTES DE BORDES ROMOS Y HOJA DE UN FILO.DESECHABLES.  PIEZA.                       0000
ESP00003947012281300      201604222016042501000030144608190021      608190021      00000300000000700005002                    000030144SOLVENTES ACETONA. PARA USOS DIVERSOS. ENVASE CON 1000 ML. PIEZA.                                   0000
ESP00003947012281300      201604222016042501000030144609390059      609390059      00000090000015050005002                    000030144VASELINAS LIQUIDA. ENVASE CON 18 L. PIEZA                                                           0000
ESP0000394711224B-712     2016042520160425010000301121929           1929           00099600000000168001001                    000030112AMPICILINA ANHIDRA  TABLETA O CAPSULA 500 MG ENVASE CON 20 TABLETAS O CAPSULAS.                     0000
ESP0000394711224B-712     2016042520160425010000301121930           1930           00004550000000203201001                    000030112AMPICILINA TRIHIDRATADA SUSPENSION ORAL 250 MG / 5 ML ENVASE CON POLVO PARA 60 ML Y DOSIFICADOR.    0000
ESP0000394711224B-712     201604252016042501000030112261            261            00000860000000700001001                    000030112LIDOCAINA, CLORHIDRATO DE (GT2) SOLUCION INYECTABLE AL 1% 500 MG / 50 ML ENVASE CON 5 FRASCOS AMPULA0000
ESP0000394711224B-712     201604252016042501000030112262            262            00000090000000870001001                    000030112LIDOCAINA, CLORHIDRATO DE SOLUCION INYECTABLE AL 2% 1 G / 50 ML ENVASE CON 5 FRASCOS AMPULA CON 50 M0000
ESP0000394711224B-712     201604252016042501000030112615            615            00000720000000370001001                    000030112DOBUTAMINA, CLORHIDRATO DE SOLUCION INYECTABLE 250 MG / 5 ML ENVASE CON 5 AMPOLLETAS CON 5 ML CADA U0000
ESP0000394711224B-712     201604252016042501000030112622            622            00000150000019800001001                    000030112HEPARINA SODICA SOLUCION INYECTABLE CADA FRASCO AMPULA CONTIENE: HEPARINA SODICA EQUIVALENTE A 25 000000
ESP00003947212281295      201604202016042501000030143SC-MC-506.1    SC-MC-506.1    00001160000002990005002                    000030143TOALLA PARA LA DESINFECCION, ESPECTRO DE ACCION BACTERICIDA, TUBERCU TOALLA PARA LA DESINFECCION, ES0000
ESP000039475066700246154  2016042520160426010000300763265           3265           00000010000005435401001                    000030076ZIPRASIDONA, CLORHIDRATO DE CAPSULA 80 MG ENVASE CON 28 CAPSULAS.                                   0000
ESP000039475066700246154  201604252016042601000030076573            573            00000160000000371101001                    000030076PRAZOSINA, CLORHIDRATO DE CAPSULA O COMPRIMIDO 1 MG ENVASE CON 30 CAPSULAS O COMPRIMIDOS.           0000
ESP00003947912281308      201604252016042601000030204601661903      601661903      00000990000011730005002                    000030204CATETERES VENOSO  CENTRAL CALIBRE  4  FR,  LONGITUD  13  CM,  DE POLIURETANO  O  SILICON,  RADIOPACO0000
ESP00003947912281308      201604252016042601000030204601661911      601661911      00001000000011730005002                    000030204CATETERES PARA CATETERISMO VENOSO CENTRAL CALIBRE 5 FR Y 13 CM DE LONGITUD,  DE  POLIURETANO O  SILI0000
ESP0000394800419FGI20546  2016042620160426010000301901345           1345           01481200000000035001001                    000030190ALBENDAZOL SUSPENSION ORAL 400 MG / 20 ML ENVASE CON 20 ML.                                         0000
ESP0000394810419FGI20537  2016042520160426010000301891345           1345           00470170000000035001001                    000030189ALBENDAZOL SUSPENSION ORAL 400 MG / 20 ML ENVASE CON 20 ML.                                         0000
ESP0000394820419FGI20539  2016042520160426010000301881345           1345           00463190000000035001001                    000030188ALBENDAZOL SUSPENSION ORAL 400 MG / 20 ML ENVASE CON 20 ML.                                         0000
ESP00003948312281306      201604252016042601000030205601180052      601180052      00001310000000306005001                    000030205BIBERONES DE VIDRIO CON MAMILA, TAPA DE ROSCA, CAPUCHON PROTECTOR. CAPACIDAD:120 ML. PIEZA.         0000
ESP00003948312281306      201604252016042601000030205601253230      601253230      00001000000010970005001                    000030205BOLSAS PARA USO GENERAL, DE POLIETILENO. MEDIDAS:60 X 80 CM. ENVASE CON 100 PIEZAS.                 0000
ESP00003948312281306      201604252016042601000030205601660590      601660590      00001000000001300005001                    000030205CANULAS PARA  ASPIRACION  MANUAL  ENDOUTERINA,  DE  POLIETILENO FLEXIBLE, ESTERIL Y DESECHABLE. DIAM0000
ESP00003948312281306      201604252016042601000030205605980036      605980036      00002480000000430005001                    000030205LLAVES DE TRES VIAS CON TUBO DE EXTENSION. DE PLASTICO RIGIDO O EQUIVALENTE, CON TUBO DE EXTENSION D0000
ESP00003948312281306      201604252016042601000030205607710068      607710068      00005000000000060005001                    000030205RASTRILLOS DE CABEZA FIJA, RECTANGULAR. DE 1 A 1.5 CM DE ANCHO Y DE 3.5  A  4.5  CM  DE  LONGITUD.  0000
ESP0000394840419FGI20538  2016042520160426010000301881345           1345           00555240000000035001000                    000030188ALBENDAZOL SUSPENSION ORAL 400 MG / 20 ML ENVASE CON 20 ML.                                         0000
ESP00003948506704034142308201604262016042601000030095103            103            00048750000000063801002                    000030095ACIDO ACETILSALICILICO TABLETA SOLUBLE O EFERVESCENTE 300 MG ENVASE CON 20 TABLETAS SOLUBLES O EFERV0000
ESP000039485067040341423082016042620160426010000300951207           1207           00026330000000189001002                    000030095BUTILHIOSCINA, BROMURO DE O BUTILBROMURO DE HIOSCINA SOLUCION INYECTABLE 20 MG ENVASE CON 3 AMPOLLET0000
ESP000039485067040341423082016042620160426010000300951234           1234           00036080000000093301002                    000030095RANITIDINA, CLORHIDRATO DE SOLUCION INYECTABLE CADA AMPOLLETA CONTIENE: CLORHIDRATO DE RANITIDINA EQ0000
ESP000039485067040341423082016042620160426010000300951241           1241           00030630000000100301002                    000030095METOCLOPRAMIDA, CLORHIDRATO DE SOLUCION INYECTABLE 10 MG ENVASE CON 6 AMPOLLETAS DE 2 ML.           0000
ESP000039485067040341423082016042620160426010000300951921           1921           00002800000000057701002                    000030095BENCILPENICILINA SODICA CRISTALINA SOLUCION INYECTABLE 1000 000 UI ENVASE CON UN FRASCO AMPULA, CON 0000
ESP000039485067040341423082016042620160426010000300951923           1923           00032000000000054201002                    000030095BENCILPENICILINA PROCAINICA CON BENCILPENICILINA CRISTALINA SUSPENSION INYECTABLE PROCAINICA 300 0000000
